{
  "_format": "hh-sol-artifact-1",
  "contractName": "MockERC20",
  "sourceName": "lib/v4-periphery/lib/v4-core/test/foundry-tests/utils/MockERC20.sol",
  "abi": [
    {
      "inputs": [
        {
          "internalType": "string",
          "name": "name",
          "type": "string"
        },
        {
          "internalType": "string",
          "name": "symbol",
          "type": "string"
        },
        {
          "internalType": "uint8",
          "name": "decimals",
          "type": "uint8"
        },
        {
          "internalType": "uint256",
          "name": "amountToMint",
          "type": "uint256"
        }
      ],
      "stateMutability": "nonpayable",
      "type": "constructor"
    },
    {
      "anonymous": false,
      "inputs": [
        {
          "indexed": true,
          "internalType": "address",
          "name": "owner",
          "type": "address"
        },
        {
          "indexed": true,
          "internalType": "address",
          "name": "spender",
          "type": "address"
        },
        {
          "indexed": false,
          "internalType": "uint256",
          "name": "amount",
          "type": "uint256"
        }
      ],
      "name": "Approval",
      "type": "event"
    },
    {
      "anonymous": false,
      "inputs": [
        {
          "indexed": true,
          "internalType": "address",
          "name": "from",
          "type": "address"
        },
        {
          "indexed": true,
          "internalType": "address",
          "name": "to",
          "type": "address"
        },
        {
          "indexed": false,
          "internalType": "uint256",
          "name": "amount",
          "type": "uint256"
        }
      ],
      "name": "Transfer",
      "type": "event"
    },
    {
      "inputs": [],
      "name": "DOMAIN_SEPARATOR",
      "outputs": [
        {
          "internalType": "bytes32",
          "name": "",
          "type": "bytes32"
        }
      ],
      "stateMutability": "view",
      "type": "function"
    },
    {
      "inputs": [
        {
          "internalType": "address",
          "name": "",
          "type": "address"
        },
        {
          "internalType": "address",
          "name": "",
          "type": "address"
        }
      ],
      "name": "allowance",
      "outputs": [
        {
          "internalType": "uint256",
          "name": "",
          "type": "uint256"
        }
      ],
      "stateMutability": "view",
      "type": "function"
    },
    {
      "inputs": [
        {
          "internalType": "address",
          "name": "spender",
          "type": "address"
        },
        {
          "internalType": "uint256",
          "name": "amount",
          "type": "uint256"
        }
      ],
      "name": "approve",
      "outputs": [
        {
          "internalType": "bool",
          "name": "",
          "type": "bool"
        }
      ],
      "stateMutability": "nonpayable",
      "type": "function"
    },
    {
      "inputs": [
        {
          "internalType": "address",
          "name": "",
          "type": "address"
        }
      ],
      "name": "balanceOf",
      "outputs": [
        {
          "internalType": "uint256",
          "name": "",
          "type": "uint256"
        }
      ],
      "stateMutability": "view",
      "type": "function"
    },
    {
      "inputs": [],
      "name": "decimals",
      "outputs": [
        {
          "internalType": "uint8",
          "name": "",
          "type": "uint8"
        }
      ],
      "stateMutability": "view",
      "type": "function"
    },
    {
      "inputs": [
        {
          "internalType": "address",
          "name": "_from",
          "type": "address"
        },
        {
          "internalType": "address",
          "name": "_to",
          "type": "address"
        },
        {
          "internalType": "uint256",
          "name": "_amount",
          "type": "uint256"
        }
      ],
      "name": "forceApprove",
      "outputs": [
        {
          "internalType": "bool",
          "name": "",
          "type": "bool"
        }
      ],
      "stateMutability": "nonpayable",
      "type": "function"
    },
    {
      "inputs": [
        {
          "internalType": "address",
          "name": "_to",
          "type": "address"
        },
        {
          "internalType": "uint256",
          "name": "_amount",
          "type": "uint256"
        }
      ],
      "name": "mint",
      "outputs": [],
      "stateMutability": "nonpayable",
      "type": "function"
    },
    {
      "inputs": [],
      "name": "name",
      "outputs": [
        {
          "internalType": "string",
          "name": "",
          "type": "string"
        }
      ],
      "stateMutability": "view",
      "type": "function"
    },
    {
      "inputs": [
        {
          "internalType": "address",
          "name": "",
          "type": "address"
        }
      ],
      "name": "nonces",
      "outputs": [
        {
          "internalType": "uint256",
          "name": "",
          "type": "uint256"
        }
      ],
      "stateMutability": "view",
      "type": "function"
    },
    {
      "inputs": [
        {
          "internalType": "address",
          "name": "owner",
          "type": "address"
        },
        {
          "internalType": "address",
          "name": "spender",
          "type": "address"
        },
        {
          "internalType": "uint256",
          "name": "value",
          "type": "uint256"
        },
        {
          "internalType": "uint256",
          "name": "deadline",
          "type": "uint256"
        },
        {
          "internalType": "uint8",
          "name": "v",
          "type": "uint8"
        },
        {
          "internalType": "bytes32",
          "name": "r",
          "type": "bytes32"
        },
        {
          "internalType": "bytes32",
          "name": "s",
          "type": "bytes32"
        }
      ],
      "name": "permit",
      "outputs": [],
      "stateMutability": "nonpayable",
      "type": "function"
    },
    {
      "inputs": [],
      "name": "symbol",
      "outputs": [
        {
          "internalType": "string",
          "name": "",
          "type": "string"
        }
      ],
      "stateMutability": "view",
      "type": "function"
    },
    {
      "inputs": [],
      "name": "totalSupply",
      "outputs": [
        {
          "internalType": "uint256",
          "name": "",
          "type": "uint256"
        }
      ],
      "stateMutability": "view",
      "type": "function"
    },
    {
      "inputs": [
        {
          "internalType": "address",
          "name": "to",
          "type": "address"
        },
        {
          "internalType": "uint256",
          "name": "amount",
          "type": "uint256"
        }
      ],
      "name": "transfer",
      "outputs": [
        {
          "internalType": "bool",
          "name": "",
          "type": "bool"
        }
      ],
      "stateMutability": "nonpayable",
      "type": "function"
    },
    {
      "inputs": [
        {
          "internalType": "address",
          "name": "from",
          "type": "address"
        },
        {
          "internalType": "address",
          "name": "to",
          "type": "address"
        },
        {
          "internalType": "uint256",
          "name": "amount",
          "type": "uint256"
        }
      ],
      "name": "transferFrom",
      "outputs": [
        {
          "internalType": "bool",
          "name": "",
          "type": "bool"
        }
      ],
      "stateMutability": "nonpayable",
      "type": "function"
    }
  ],
  "bytecode": "0x60e06040523480156200001157600080fd5b506040516200218638038062002186833981810160405281019062000037919062000430565b83838382600090816200004b919062000721565b5081600190816200005d919062000721565b508060ff1660808160ff16815250504660a0818152505062000084620000aa60201b60201c565b60c08181525050505050620000a033826200013a60201b60201c565b5050505062000a25565b60007f8b73c3c69bb8fe3d512ecc4cf759cc79239f7b179b0ffacaa9a75d522b39400f6000604051620000de9190620008b7565b60405180910390207fc89efdaa54c0f20c7adf612882df0950f5a951637e0307cdcb4c672f298b8bc646306040516020016200011f95949392919062000941565b60405160208183030381529060405280519060200120905090565b6200014c82826200015060201b60201c565b5050565b8060026000828254620001649190620009cd565b9250508190555080600360008473ffffffffffffffffffffffffffffffffffffffff1673ffffffffffffffffffffffffffffffffffffffff168152602001908152602001600020600082825401925050819055508173ffffffffffffffffffffffffffffffffffffffff16600073ffffffffffffffffffffffffffffffffffffffff167fddf252ad1be2c89b69c2b068fc378daa952ba7f163c4a11628f55a4df523b3ef8360405162000218919062000a08565b60405180910390a35050565b6000604051905090565b600080fd5b600080fd5b600080fd5b600080fd5b6000601f19601f8301169050919050565b7f4e487b7100000000000000000000000000000000000000000000000000000000600052604160045260246000fd5b6200028d8262000242565b810181811067ffffffffffffffff82111715620002af57620002ae62000253565b5b80604052505050565b6000620002c462000224565b9050620002d2828262000282565b919050565b600067ffffffffffffffff821115620002f557620002f462000253565b5b620003008262000242565b9050602081019050919050565b60005b838110156200032d57808201518184015260208101905062000310565b60008484015250505050565b6000620003506200034a84620002d7565b620002b8565b9050828152602081018484840111156200036f576200036e6200023d565b5b6200037c8482856200030d565b509392505050565b600082601f8301126200039c576200039b62000238565b5b8151620003ae84826020860162000339565b91505092915050565b600060ff82169050919050565b620003cf81620003b7565b8114620003db57600080fd5b50565b600081519050620003ef81620003c4565b92915050565b6000819050919050565b6200040a81620003f5565b81146200041657600080fd5b50565b6000815190506200042a81620003ff565b92915050565b600080600080608085870312156200044d576200044c6200022e565b5b600085015167ffffffffffffffff8111156200046e576200046d62000233565b5b6200047c8782880162000384565b945050602085015167ffffffffffffffff811115620004a0576200049f62000233565b5b620004ae8782880162000384565b9350506040620004c187828801620003de565b9250506060620004d48782880162000419565b91505092959194509250565b600081519050919050565b7f4e487b7100000000000000000000000000000000000000000000000000000000600052602260045260246000fd5b600060028204905060018216806200053357607f821691505b602082108103620005495762000548620004eb565b5b50919050565b60008190508160005260206000209050919050565b60006020601f8301049050919050565b600082821b905092915050565b600060088302620005b37fffffffffffffffffffffffffffffffffffffffffffffffffffffffffffffffff8262000574565b620005bf868362000574565b95508019841693508086168417925050509392505050565b6000819050919050565b600062000602620005fc620005f684620003f5565b620005d7565b620003f5565b9050919050565b6000819050919050565b6200061e83620005e1565b620006366200062d8262000609565b84845462000581565b825550505050565b600090565b6200064d6200063e565b6200065a81848462000613565b505050565b5b8181101562000682576200067660008262000643565b60018101905062000660565b5050565b601f821115620006d1576200069b816200054f565b620006a68462000564565b81016020851015620006b6578190505b620006ce620006c58562000564565b8301826200065f565b50505b505050565b600082821c905092915050565b6000620006f660001984600802620006d6565b1980831691505092915050565b6000620007118383620006e3565b9150826002028217905092915050565b6200072c82620004e0565b67ffffffffffffffff81111562000748576200074762000253565b5b6200075482546200051a565b6200076182828562000686565b600060209050601f83116001811462000799576000841562000784578287015190505b62000790858262000703565b86555062000800565b601f198416620007a9866200054f565b60005b82811015620007d357848901518255600182019150602085019450602081019050620007ac565b86831015620007f35784890151620007ef601f891682620006e3565b8355505b6001600288020188555050505b505050505050565b600081905092915050565b60008190508160005260206000209050919050565b6000815462000837816200051a565b62000843818662000808565b945060018216600081146200086157600181146200087757620008ae565b60ff1983168652811515820286019350620008ae565b620008828562000813565b60005b83811015620008a65781548189015260018201915060208101905062000885565b838801955050505b50505092915050565b6000620008c5828462000828565b915081905092915050565b6000819050919050565b620008e581620008d0565b82525050565b620008f681620003f5565b82525050565b600073ffffffffffffffffffffffffffffffffffffffff82169050919050565b60006200092982620008fc565b9050919050565b6200093b816200091c565b82525050565b600060a082019050620009586000830188620008da565b620009676020830187620008da565b620009766040830186620008da565b620009856060830185620008eb565b62000994608083018462000930565b9695505050505050565b7f4e487b7100000000000000000000000000000000000000000000000000000000600052601160045260246000fd5b6000620009da82620003f5565b9150620009e783620003f5565b925082820190508082111562000a025762000a016200099e565b5b92915050565b600060208201905062000a1f6000830184620008eb565b92915050565b60805160a05160c05161173162000a55600039600061073901526000610705015260006106df01526117316000f3fe608060405234801561001057600080fd5b50600436106100ea5760003560e01c806361f49ed61161008c57806395d89b411161006657806395d89b4114610273578063a9059cbb14610291578063d505accf146102c1578063dd62ed3e146102dd576100ea565b806361f49ed6146101e357806370a08231146102135780637ecebe0014610243576100ea565b806323b872dd116100c857806323b872dd1461015b578063313ce5671461018b5780633644e515146101a957806340c10f19146101c7576100ea565b806306fdde03146100ef578063095ea7b31461010d57806318160ddd1461013d575b600080fd5b6100f761030d565b6040516101049190610f3b565b60405180910390f35b61012760048036038101906101229190610ff6565b61039b565b6040516101349190611051565b60405180910390f35b61014561048d565b604051610152919061107b565b60405180910390f35b61017560048036038101906101709190611096565b610493565b6040516101829190611051565b60405180910390f35b6101936106dd565b6040516101a09190611105565b60405180910390f35b6101b1610701565b6040516101be9190611139565b60405180910390f35b6101e160048036038101906101dc9190610ff6565b61075e565b005b6101fd60048036038101906101f89190611096565b61076c565b60405161020a9190611051565b60405180910390f35b61022d60048036038101906102289190611154565b61085f565b60405161023a919061107b565b60405180910390f35b61025d60048036038101906102589190611154565b610877565b60405161026a919061107b565b60405180910390f35b61027b61088f565b6040516102889190610f3b565b60405180910390f35b6102ab60048036038101906102a69190610ff6565b61091d565b6040516102b89190611051565b60405180910390f35b6102db60048036038101906102d691906111d9565b610a31565b005b6102f760048036038101906102f2919061127b565b610d2a565b604051610304919061107b565b60405180910390f35b6000805461031a906112ea565b80601f0160208091040260200160405190810160405280929190818152602001828054610346906112ea565b80156103935780601f1061036857610100808354040283529160200191610393565b820191906000526020600020905b81548152906001019060200180831161037657829003601f168201915b505050505081565b600081600460003373ffffffffffffffffffffffffffffffffffffffff1673ffffffffffffffffffffffffffffffffffffffff16815260200190815260200160002060008573ffffffffffffffffffffffffffffffffffffffff1673ffffffffffffffffffffffffffffffffffffffff168152602001908152602001600020819055508273ffffffffffffffffffffffffffffffffffffffff163373ffffffffffffffffffffffffffffffffffffffff167f8c5be1e5ebec7d5bd14f71427d1e84f3dd0314c0f7b2291e5b200ac8c7c3b9258460405161047b919061107b565b60405180910390a36001905092915050565b60025481565b600080600460008673ffffffffffffffffffffffffffffffffffffffff1673ffffffffffffffffffffffffffffffffffffffff16815260200190815260200160002060003373ffffffffffffffffffffffffffffffffffffffff1673ffffffffffffffffffffffffffffffffffffffff1681526020019081526020016000205490507fffffffffffffffffffffffffffffffffffffffffffffffffffffffffffffffff81146105c9578281610548919061134a565b600460008773ffffffffffffffffffffffffffffffffffffffff1673ffffffffffffffffffffffffffffffffffffffff16815260200190815260200160002060003373ffffffffffffffffffffffffffffffffffffffff1673ffffffffffffffffffffffffffffffffffffffff168152602001908152602001600020819055505b82600360008773ffffffffffffffffffffffffffffffffffffffff1673ffffffffffffffffffffffffffffffffffffffff1681526020019081526020016000206000828254610618919061134a565b9250508190555082600360008673ffffffffffffffffffffffffffffffffffffffff1673ffffffffffffffffffffffffffffffffffffffff168152602001908152602001600020600082825401925050819055508373ffffffffffffffffffffffffffffffffffffffff168573ffffffffffffffffffffffffffffffffffffffff167fddf252ad1be2c89b69c2b068fc378daa952ba7f163c4a11628f55a4df523b3ef856040516106c9919061107b565b60405180910390a360019150509392505050565b7f000000000000000000000000000000000000000000000000000000000000000081565b60007f0000000000000000000000000000000000000000000000000000000000000000461461073757610732610d4f565b610759565b7f00000000000000000000000000000000000000000000000000000000000000005b905090565b6107688282610ddb565b5050565b600081600460008673ffffffffffffffffffffffffffffffffffffffff1673ffffffffffffffffffffffffffffffffffffffff16815260200190815260200160002060008573ffffffffffffffffffffffffffffffffffffffff1673ffffffffffffffffffffffffffffffffffffffff168152602001908152602001600020819055508273ffffffffffffffffffffffffffffffffffffffff168473ffffffffffffffffffffffffffffffffffffffff167f8c5be1e5ebec7d5bd14f71427d1e84f3dd0314c0f7b2291e5b200ac8c7c3b9258460405161084c919061107b565b60405180910390a3600190509392505050565b60036020528060005260406000206000915090505481565b60056020528060005260406000206000915090505481565b6001805461089c906112ea565b80601f01602080910402602001604051908101604052809291908181526020018280546108c8906112ea565b80156109155780601f106108ea57610100808354040283529160200191610915565b820191906000526020600020905b8154815290600101906020018083116108f857829003601f168201915b505050505081565b600081600360003373ffffffffffffffffffffffffffffffffffffffff1673ffffffffffffffffffffffffffffffffffffffff168152602001908152602001600020600082825461096e919061134a565b9250508190555081600360008573ffffffffffffffffffffffffffffffffffffffff1673ffffffffffffffffffffffffffffffffffffffff168152602001908152602001600020600082825401925050819055508273ffffffffffffffffffffffffffffffffffffffff163373ffffffffffffffffffffffffffffffffffffffff167fddf252ad1be2c89b69c2b068fc378daa952ba7f163c4a11628f55a4df523b3ef84604051610a1f919061107b565b60405180910390a36001905092915050565b42841015610a74576040517f08c379a0000000000000000000000000000000000000000000000000000000008152600401610a6b906113ca565b60405180910390fd5b60006001610a80610701565b7f6e71edae12b1b97f4d1f60370fef10105fa2faae0126114a169c64845d6126c98a8a8a600560008f73ffffffffffffffffffffffffffffffffffffffff1673ffffffffffffffffffffffffffffffffffffffff1681526020019081526020016000206000815480929190600101919050558b604051602001610b08969594939291906113f9565b60405160208183030381529060405280519060200120604051602001610b2f9291906114d2565b6040516020818303038152906040528051906020012085858560405160008152602001604052604051610b659493929190611509565b6020604051602081039080840390855afa158015610b87573d6000803e3d6000fd5b505050602060405103519050600073ffffffffffffffffffffffffffffffffffffffff168173ffffffffffffffffffffffffffffffffffffffff1614158015610bfb57508773ffffffffffffffffffffffffffffffffffffffff168173ffffffffffffffffffffffffffffffffffffffff16145b610c3a576040517f08c379a0000000000000000000000000000000000000000000000000000000008152600401610c319061159a565b60405180910390fd5b85600460008373ffffffffffffffffffffffffffffffffffffffff1673ffffffffffffffffffffffffffffffffffffffff16815260200190815260200160002060008973ffffffffffffffffffffffffffffffffffffffff1673ffffffffffffffffffffffffffffffffffffffff16815260200190815260200160002081905550508573ffffffffffffffffffffffffffffffffffffffff168773ffffffffffffffffffffffffffffffffffffffff167f8c5be1e5ebec7d5bd14f71427d1e84f3dd0314c0f7b2291e5b200ac8c7c3b92587604051610d19919061107b565b60405180910390a350505050505050565b6004602052816000526040600020602052806000526040600020600091509150505481565b60007f8b73c3c69bb8fe3d512ecc4cf759cc79239f7b179b0ffacaa9a75d522b39400f6000604051610d81919061165d565b60405180910390207fc89efdaa54c0f20c7adf612882df0950f5a951637e0307cdcb4c672f298b8bc64630604051602001610dc0959493929190611674565b60405160208183030381529060405280519060200120905090565b8060026000828254610ded91906116c7565b9250508190555080600360008473ffffffffffffffffffffffffffffffffffffffff1673ffffffffffffffffffffffffffffffffffffffff168152602001908152602001600020600082825401925050819055508173ffffffffffffffffffffffffffffffffffffffff16600073ffffffffffffffffffffffffffffffffffffffff167fddf252ad1be2c89b69c2b068fc378daa952ba7f163c4a11628f55a4df523b3ef83604051610e9f919061107b565b60405180910390a35050565b600081519050919050565b600082825260208201905092915050565b60005b83811015610ee5578082015181840152602081019050610eca565b60008484015250505050565b6000601f19601f8301169050919050565b6000610f0d82610eab565b610f178185610eb6565b9350610f27818560208601610ec7565b610f3081610ef1565b840191505092915050565b60006020820190508181036000830152610f558184610f02565b905092915050565b600080fd5b600073ffffffffffffffffffffffffffffffffffffffff82169050919050565b6000610f8d82610f62565b9050919050565b610f9d81610f82565b8114610fa857600080fd5b50565b600081359050610fba81610f94565b92915050565b6000819050919050565b610fd381610fc0565b8114610fde57600080fd5b50565b600081359050610ff081610fca565b92915050565b6000806040838503121561100d5761100c610f5d565b5b600061101b85828601610fab565b925050602061102c85828601610fe1565b9150509250929050565b60008115159050919050565b61104b81611036565b82525050565b60006020820190506110666000830184611042565b92915050565b61107581610fc0565b82525050565b6000602082019050611090600083018461106c565b92915050565b6000806000606084860312156110af576110ae610f5d565b5b60006110bd86828701610fab565b93505060206110ce86828701610fab565b92505060406110df86828701610fe1565b9150509250925092565b600060ff82169050919050565b6110ff816110e9565b82525050565b600060208201905061111a60008301846110f6565b92915050565b6000819050919050565b61113381611120565b82525050565b600060208201905061114e600083018461112a565b92915050565b60006020828403121561116a57611169610f5d565b5b600061117884828501610fab565b91505092915050565b61118a816110e9565b811461119557600080fd5b50565b6000813590506111a781611181565b92915050565b6111b681611120565b81146111c157600080fd5b50565b6000813590506111d3816111ad565b92915050565b600080600080600080600060e0888a0312156111f8576111f7610f5d565b5b60006112068a828b01610fab565b97505060206112178a828b01610fab565b96505060406112288a828b01610fe1565b95505060606112398a828b01610fe1565b945050608061124a8a828b01611198565b93505060a061125b8a828b016111c4565b92505060c061126c8a828b016111c4565b91505092959891949750929550565b6000806040838503121561129257611291610f5d565b5b60006112a085828601610fab565b92505060206112b185828601610fab565b9150509250929050565b7f4e487b7100000000000000000000000000000000000000000000000000000000600052602260045260246000fd5b6000600282049050600182168061130257607f821691505b602082108103611315576113146112bb565b5b50919050565b7f4e487b7100000000000000000000000000000000000000000000000000000000600052601160045260246000fd5b600061135582610fc0565b915061136083610fc0565b92508282039050818111156113785761137761131b565b5b92915050565b7f5045524d49545f444541444c494e455f45585049524544000000000000000000600082015250565b60006113b4601783610eb6565b91506113bf8261137e565b602082019050919050565b600060208201905081810360008301526113e3816113a7565b9050919050565b6113f381610f82565b82525050565b600060c08201905061140e600083018961112a565b61141b60208301886113ea565b61142860408301876113ea565b611435606083018661106c565b611442608083018561106c565b61144f60a083018461106c565b979650505050505050565b600081905092915050565b7f1901000000000000000000000000000000000000000000000000000000000000600082015250565b600061149b60028361145a565b91506114a682611465565b600282019050919050565b6000819050919050565b6114cc6114c782611120565b6114b1565b82525050565b60006114dd8261148e565b91506114e982856114bb565b6020820191506114f982846114bb565b6020820191508190509392505050565b600060808201905061151e600083018761112a565b61152b60208301866110f6565b611538604083018561112a565b611545606083018461112a565b95945050505050565b7f494e56414c49445f5349474e4552000000000000000000000000000000000000600082015250565b6000611584600e83610eb6565b915061158f8261154e565b602082019050919050565b600060208201905081810360008301526115b381611577565b9050919050565b600081905092915050565b60008190508160005260206000209050919050565b600081546115e7816112ea565b6115f181866115ba565b9450600182166000811461160c576001811461162157611654565b60ff1983168652811515820286019350611654565b61162a856115c5565b60005b8381101561164c5781548189015260018201915060208101905061162d565b838801955050505b50505092915050565b600061166982846115da565b915081905092915050565b600060a082019050611689600083018861112a565b611696602083018761112a565b6116a3604083018661112a565b6116b0606083018561106c565b6116bd60808301846113ea565b9695505050505050565b60006116d282610fc0565b91506116dd83610fc0565b92508282019050808211156116f5576116f461131b565b5b9291505056fea2646970667358221220d31e47fd1accc7a22040a33b1819ef70519b11925aa65adeb7bdfcd7a72d4d9264736f6c63430008150033",
  "linkReferences": {},
  "deployedLinkReferences": {}
}