{
  "_format": "hh-sol-artifact-1",
  "contractName": "HedgeTest",
  "sourceName": "test/HEDGE/Remix/unit/RemixHedge.sol",
  "abi": [
    {
      "inputs": [
        {
          "internalType": "address",
          "name": "_manager",
          "type": "address"
        }
      ],
      "stateMutability": "nonpayable",
      "type": "constructor"
    },
    {
      "anonymous": false,
      "inputs": [
        {
          "indexed": false,
          "internalType": "string",
          "name": "message",
          "type": "string"
        }
      ],
      "name": "Failure",
      "type": "event"
    },
    {
      "anonymous": false,
      "inputs": [
        {
          "indexed": false,
          "internalType": "string",
          "name": "testName",
          "type": "string"
        },
        {
          "indexed": false,
          "internalType": "string",
          "name": "message",
          "type": "string"
        }
      ],
      "name": "TestLog",
      "type": "event"
    },
    {
      "inputs": [],
      "name": "MAX_TICK_SPACING",
      "outputs": [
        {
          "internalType": "int24",
          "name": "",
          "type": "int24"
        }
      ],
      "stateMutability": "view",
      "type": "function"
    },
    {
      "inputs": [],
      "name": "SQRT_RATIO_1_1",
      "outputs": [
        {
          "internalType": "uint160",
          "name": "",
          "type": "uint160"
        }
      ],
      "stateMutability": "view",
      "type": "function"
    },
    {
      "inputs": [],
      "name": "hook",
      "outputs": [
        {
          "internalType": "contract Hedge",
          "name": "",
          "type": "address"
        }
      ],
      "stateMutability": "view",
      "type": "function"
    },
    {
      "inputs": [],
      "name": "setUp",
      "outputs": [],
      "stateMutability": "nonpayable",
      "type": "function"
    },
    {
      "inputs": [],
      "name": "test_setTrigger",
      "outputs": [],
      "stateMutability": "nonpayable",
      "type": "function"
    },
    {
      "stateMutability": "payable",
      "type": "receive"
    }
  ],
  "bytecode": "0x60806040523480156200001157600080fd5b506040516200be2d3803806200be2d8339818101604052810190620000379190620000e9565b80600560006101000a81548173ffffffffffffffffffffffffffffffffffffffff021916908373ffffffffffffffffffffffffffffffffffffffff160217905550506200011b565b600080fd5b600073ffffffffffffffffffffffffffffffffffffffff82169050919050565b6000620000b18262000084565b9050919050565b620000c381620000a4565b8114620000cf57600080fd5b50565b600081519050620000e381620000b8565b92915050565b6000602082840312156200010257620001016200007f565b5b60006200011284828501620000d2565b91505092915050565b61bd02806200012b6000396000f3fe608060405260043610620000555760003560e01c80630a9254e4146200006257806360460f06146200007c57806377267b1e14620000ac5780637f5a7c7b14620000dc578063d95afdb4146200010c576200005d565b366200005d57005b600080fd5b3480156200006f57600080fd5b506200007a62000126565b005b3480156200008957600080fd5b506200009462000f5d565b604051620000a391906200143b565b60405180910390f35b348015620000b957600080fd5b50620000c462000f66565b604051620000d3919062001489565b60405180910390f35b348015620000e957600080fd5b50620000f462000f77565b60405162000103919062001511565b60405180910390f35b3480156200011957600080fd5b506200012462000f9b565b005b60127001000000000000000000000000000000006040516200014890620013e5565b620001559291906200167c565b604051809103906000f08015801562000172573d6000803e3d6000fd5b50600660006101000a81548173ffffffffffffffffffffffffffffffffffffffff021916908373ffffffffffffffffffffffffffffffffffffffff1602179055506012700100000000000000000000000000000000604051620001d590620013e5565b620001e292919062001773565b604051809103906000f080158015620001ff573d6000803e3d6000fd5b50600760006101000a81548173ffffffffffffffffffffffffffffffffffffffff021916908373ffffffffffffffffffffffffffffffffffffffff16021790555062000290600660009054906101000a900473ffffffffffffffffffffffffffffffffffffffff16600760009054906101000a900473ffffffffffffffffffffffffffffffffffffffff1662001359565b600b6000600c60008491906101000a81548173ffffffffffffffffffffffffffffffffffffffff021916908373ffffffffffffffffffffffffffffffffffffffff1602179055508391906101000a81548173ffffffffffffffffffffffffffffffffffffffff021916908373ffffffffffffffffffffffffffffffffffffffff16021790555050506000730400000000000000000000000000000000000000905060008073__$2ccf06fa9794493534b1d95450906729d5$__63ab86511830856000604051806020016200036490620013f3565b6020820181038252601f19601f82011660405250600560009054906101000a900473ffffffffffffffffffffffffffffffffffffffff16604051602001620003ad9190620017ef565b6040516020818303038152906040526040518663ffffffff1660e01b8152600401620003de9594939291906200190b565b6040805180830381865af4158015620003fb573d6000803e3d6000fd5b505050506040513d601f19601f82011682018060405250810190620004219190620019e7565b9150915080600560009054906101000a900473ffffffffffffffffffffffffffffffffffffffff166040516200045790620013f3565b62000463919062001a53565b8190604051809103906000f590508015801562000484573d6000803e3d6000fd5b506000806101000a81548173ffffffffffffffffffffffffffffffffffffffff021916908373ffffffffffffffffffffffffffffffffffffffff1602179055508173ffffffffffffffffffffffffffffffffffffffff1660008054906101000a900473ffffffffffffffffffffffffffffffffffffffff1673ffffffffffffffffffffffffffffffffffffffff161462000555576040517f08c379a00000000000000000000000000000000000000000000000000000000081526004016200054c9062001ae6565b60405180910390fd5b6040518060a00160405280600b60009054906101000a900473ffffffffffffffffffffffffffffffffffffffff1673ffffffffffffffffffffffffffffffffffffffff168152602001600c60009054906101000a900473ffffffffffffffffffffffffffffffffffffffff1673ffffffffffffffffffffffffffffffffffffffff168152602001600062ffffff168152602001617fff60010b60020b815260200160008054906101000a900473ffffffffffffffffffffffffffffffffffffffff1673ffffffffffffffffffffffffffffffffffffffff16815250600160008201518160000160006101000a81548173ffffffffffffffffffffffffffffffffffffffff021916908373ffffffffffffffffffffffffffffffffffffffff16021790555060208201518160010160006101000a81548173ffffffffffffffffffffffffffffffffffffffff021916908373ffffffffffffffffffffffffffffffffffffffff16021790555060408201518160010160146101000a81548162ffffff021916908362ffffff16021790555060608201518160010160176101000a81548162ffffff021916908360020b62ffffff16021790555060808201518160020160006101000a81548173ffffffffffffffffffffffffffffffffffffffff021916908373ffffffffffffffffffffffffffffffffffffffff160217905550905050620008b060016040518060a00160405290816000820160009054906101000a900473ffffffffffffffffffffffffffffffffffffffff1673ffffffffffffffffffffffffffffffffffffffff1673ffffffffffffffffffffffffffffffffffffffff1681526020016001820160009054906101000a900473ffffffffffffffffffffffffffffffffffffffff1673ffffffffffffffffffffffffffffffffffffffff1673ffffffffffffffffffffffffffffffffffffffff1681526020016001820160149054906101000a900462ffffff1662ffffff1662ffffff1681526020016001820160179054906101000a900460020b60020b60020b81526020016002820160009054906101000a900473ffffffffffffffffffffffffffffffffffffffff1673ffffffffffffffffffffffffffffffffffffffff1673ffffffffffffffffffffffffffffffffffffffff1681525050620013b3565b600481905550600560009054906101000a900473ffffffffffffffffffffffffffffffffffffffff16604051620008e79062001401565b620008f3919062001a53565b604051809103906000f08015801562000910573d6000803e3d6000fd5b50600860006101000a81548173ffffffffffffffffffffffffffffffffffffffff021916908373ffffffffffffffffffffffffffffffffffffffff160217905550600560009054906101000a900473ffffffffffffffffffffffffffffffffffffffff1660405162000982906200140f565b6200098e919062001a53565b604051809103906000f080158015620009ab573d6000803e3d6000fd5b50600960006101000a81548173ffffffffffffffffffffffffffffffffffffffff021916908373ffffffffffffffffffffffffffffffffffffffff160217905550600660009054906101000a900473ffffffffffffffffffffffffffffffffffffffff1673ffffffffffffffffffffffffffffffffffffffff1663095ea7b360008054906101000a900473ffffffffffffffffffffffffffffffffffffffff167fffffffffffffffffffffffffffffffffffffffffffffffffffffffffffffffff6040518363ffffffff1660e01b815260040162000a8b92919062001b19565b6020604051808303816000875af115801562000aab573d6000803e3d6000fd5b505050506040513d601f19601f8201168201806040525081019062000ad1919062001b83565b50600760009054906101000a900473ffffffffffffffffffffffffffffffffffffffff1673ffffffffffffffffffffffffffffffffffffffff1663095ea7b360008054906101000a900473ffffffffffffffffffffffffffffffffffffffff167fffffffffffffffffffffffffffffffffffffffffffffffffffffffffffffffff6040518363ffffffff1660e01b815260040162000b7192919062001b19565b6020604051808303816000875af115801562000b91573d6000803e3d6000fd5b505050506040513d601f19601f8201168201806040525081019062000bb7919062001b83565b50600660009054906101000a900473ffffffffffffffffffffffffffffffffffffffff1673ffffffffffffffffffffffffffffffffffffffff1663095ea7b3600860009054906101000a900473ffffffffffffffffffffffffffffffffffffffff167fffffffffffffffffffffffffffffffffffffffffffffffffffffffffffffffff6040518363ffffffff1660e01b815260040162000c5992919062001b19565b6020604051808303816000875af115801562000c79573d6000803e3d6000fd5b505050506040513d601f19601f8201168201806040525081019062000c9f919062001b83565b50600760009054906101000a900473ffffffffffffffffffffffffffffffffffffffff1673ffffffffffffffffffffffffffffffffffffffff1663095ea7b3600860009054906101000a900473ffffffffffffffffffffffffffffffffffffffff167fffffffffffffffffffffffffffffffffffffffffffffffffffffffffffffffff6040518363ffffffff1660e01b815260040162000d4192919062001b19565b6020604051808303816000875af115801562000d61573d6000803e3d6000fd5b505050506040513d601f19601f8201168201806040525081019062000d87919062001b83565b50600660009054906101000a900473ffffffffffffffffffffffffffffffffffffffff1673ffffffffffffffffffffffffffffffffffffffff1663095ea7b3600960009054906101000a900473ffffffffffffffffffffffffffffffffffffffff167fffffffffffffffffffffffffffffffffffffffffffffffffffffffffffffffff6040518363ffffffff1660e01b815260040162000e2992919062001b19565b6020604051808303816000875af115801562000e49573d6000803e3d6000fd5b505050506040513d601f19601f8201168201806040525081019062000e6f919062001b83565b50600760009054906101000a900473ffffffffffffffffffffffffffffffffffffffff1673ffffffffffffffffffffffffffffffffffffffff1663095ea7b3600960009054906101000a900473ffffffffffffffffffffffffffffffffffffffff167fffffffffffffffffffffffffffffffffffffffffffffffffffffffffffffffff6040518363ffffffff1660e01b815260040162000f1192919062001b19565b6020604051808303816000875af115801562000f31573d6000803e3d6000fd5b505050506040513d601f19601f8201168201806040525081019062000f57919062001b83565b50505050565b617fff60010b81565b6c0100000000000000000000000081565b60008054906101000a900473ffffffffffffffffffffffffffffffffffffffff1681565b60006747316bd1f1c100009050600068056bc75e2d63100000905060008054906101000a900473ffffffffffffffffffffffffffffffffffffffff1673ffffffffffffffffffffffffffffffffffffffff1663f92ee941600660009054906101000a900473ffffffffffffffffffffffffffffffffffffffff16848460016040518563ffffffff1660e01b81526004016200103a949392919062001c40565b600060405180830381600087803b1580156200105557600080fd5b505af11580156200106a573d6000803e3d6000fd5b5050505060008060008060009054906101000a900473ffffffffffffffffffffffffffffffffffffffff1673ffffffffffffffffffffffffffffffffffffffff166377102910600660009054906101000a900473ffffffffffffffffffffffffffffffffffffffff168760006040518463ffffffff1660e01b8152600401620010f69392919062001c9e565b61012060405180830381865afa15801562001115573d6000803e3d6000fd5b505050506040513d601f19601f820116820180604052508101906200113b919062001d3d565b985098505050965050505050600660009054906101000a900473ffffffffffffffffffffffffffffffffffffffff1673ffffffffffffffffffffffffffffffffffffffff16600b60009054906101000a900473ffffffffffffffffffffffffffffffffffffffff1673ffffffffffffffffffffffffffffffffffffffff1603620011fc577f81169a5d04af4a3bb9a1cdebce8d9c090ab67042281e2e90cd51935e1beb565f604051620011ee9062001ee2565b60405180910390a162001234565b7ffd5de27667e5407df5be0b6efb7f86ae8c40433040399a5e4d36a46ccc50638d6040516200122b9062001f8f565b60405180910390a15b846fffffffffffffffffffffffffffffffff1683036200128b577f81169a5d04af4a3bb9a1cdebce8d9c090ab67042281e2e90cd51935e1beb565f6040516200127d9062002077565b60405180910390a1620012c3565b7ffd5de27667e5407df5be0b6efb7f86ae8c40433040399a5e4d36a46ccc50638d604051620012ba9062002124565b60405180910390a15b836fffffffffffffffffffffffffffffffff1682036200131a577f81169a5d04af4a3bb9a1cdebce8d9c090ab67042281e2e90cd51935e1beb565f6040516200130c906200220c565b60405180910390a162001352565b7ffd5de27667e5407df5be0b6efb7f86ae8c40433040399a5e4d36a46ccc50638d6040516200134990620022b9565b60405180910390a15b5050505050565b6000808273ffffffffffffffffffffffffffffffffffffffff168473ffffffffffffffffffffffffffffffffffffffff161015620013a15783838092508193505050620013ac565b828480925081935050505b9250929050565b600081604051602001620013c89190620023b4565b604051602081830303815290604052805190602001209050919050565b61218680620023d283390190565b613daa806200455883390190565b611a3f806200830283390190565b611f8c8062009d4183390190565b60008160020b9050919050565b62001435816200141d565b82525050565b60006020820190506200145260008301846200142a565b92915050565b600073ffffffffffffffffffffffffffffffffffffffff82169050919050565b620014838162001458565b82525050565b6000602082019050620014a0600083018462001478565b92915050565b6000819050919050565b6000620014d1620014cb620014c58462001458565b620014a6565b62001458565b9050919050565b6000620014e582620014b0565b9050919050565b6000620014f982620014d8565b9050919050565b6200150b81620014ec565b82525050565b600060208201905062001528600083018462001500565b92915050565b600082825260208201905092915050565b7f5465737441000000000000000000000000000000000000000000000000000000600082015250565b6000620015776005836200152e565b915062001584826200153f565b602082019050919050565b7f4100000000000000000000000000000000000000000000000000000000000000600082015250565b6000620015c76001836200152e565b9150620015d4826200158f565b602082019050919050565b6000819050919050565b600060ff82169050919050565b600062001617620016116200160b84620015df565b620014a6565b620015e9565b9050919050565b6200162981620015f6565b82525050565b6000819050919050565b6000819050919050565b6000620016646200165e62001658846200162f565b620014a6565b62001639565b9050919050565b620016768162001643565b82525050565b60006080820190508181036000830152620016978162001568565b90508181036020830152620016ac81620015b8565b9050620016bd60408301856200161e565b620016cc60608301846200166b565b9392505050565b7f5465737442000000000000000000000000000000000000000000000000000000600082015250565b60006200170b6005836200152e565b91506200171882620016d3565b602082019050919050565b7f4200000000000000000000000000000000000000000000000000000000000000600082015250565b60006200175b6001836200152e565b9150620017688262001723565b602082019050919050565b600060808201905081810360008301526200178e81620016fc565b90508181036020830152620017a3816200174c565b9050620017b460408301856200161e565b620017c360608301846200166b565b9392505050565b6000620017d78262001458565b9050919050565b620017e981620017ca565b82525050565b6000602082019050620018066000830184620017de565b92915050565b6200181781620017ca565b82525050565b620018288162001458565b82525050565b6000819050919050565b600062001859620018536200184d846200182e565b620014a6565b62001639565b9050919050565b6200186b8162001838565b82525050565b600081519050919050565b600082825260208201905092915050565b60005b83811015620018ad57808201518184015260208101905062001890565b60008484015250505050565b6000601f19601f8301169050919050565b6000620018d78262001871565b620018e381856200187c565b9350620018f58185602086016200188d565b6200190081620018b9565b840191505092915050565b600060a0820190506200192260008301886200180c565b6200193160208301876200181d565b62001940604083018662001860565b8181036060830152620019548185620018ca565b905081810360808301526200196a8184620018ca565b90509695505050505050565b600080fd5b6200198681620017ca565b81146200199257600080fd5b50565b600081519050620019a6816200197b565b92915050565b6000819050919050565b620019c181620019ac565b8114620019cd57600080fd5b50565b600081519050620019e181620019b6565b92915050565b6000806040838503121562001a015762001a0062001976565b5b600062001a118582860162001995565b925050602062001a2485828601620019d0565b9150509250929050565b600062001a3b82620014d8565b9050919050565b62001a4d8162001a2e565b82525050565b600060208201905062001a6a600083018462001a42565b92915050565b7f466169725472616465546573743a20486f6f6b2061646472657373206d69736d60008201527f6174636800000000000000000000000000000000000000000000000000000000602082015250565b600062001ace6024836200152e565b915062001adb8262001a70565b604082019050919050565b6000602082019050818103600083015262001b018162001abf565b9050919050565b62001b138162001639565b82525050565b600060408201905062001b306000830185620017de565b62001b3f602083018462001b08565b9392505050565b60008115159050919050565b62001b5d8162001b46565b811462001b6957600080fd5b50565b60008151905062001b7d8162001b52565b92915050565b60006020828403121562001b9c5762001b9b62001976565b5b600062001bac8482850162001b6c565b91505092915050565b600062001bc282620014d8565b9050919050565b62001bd48162001bb5565b82525050565b60006fffffffffffffffffffffffffffffffff82169050919050565b600062001c1762001c1162001c0b8462001bda565b620014a6565b62001639565b9050919050565b62001c298162001bf6565b82525050565b62001c3a8162001b46565b82525050565b600060808201905062001c57600083018762001bc9565b62001c66602083018662001c1e565b62001c75604083018562001c1e565b62001c84606083018462001c2f565b95945050505050565b62001c988162001838565b82525050565b600060608201905062001cb5600083018662001bc9565b62001cc4602083018562001c1e565b62001cd3604083018462001c8d565b949350505050565b62001ce681620017ca565b811462001cf257600080fd5b50565b60008151905062001d068162001cdb565b92915050565b62001d178162001639565b811462001d2357600080fd5b50565b60008151905062001d378162001d0c565b92915050565b60008060008060008060008060006101208a8c03121562001d635762001d6262001976565b5b600062001d738c828d0162001b6c565b995050602062001d868c828d0162001b6c565b985050604062001d998c828d0162001cf5565b975050606062001dac8c828d0162001cf5565b965050608062001dbf8c828d0162001d26565b95505060a062001dd28c828d0162001d26565b94505060c062001de58c828d0162001d26565b93505060e062001df88c828d0162001d26565b92505061010062001e0c8c828d0162001995565b9150509295985092959850929598565b7f43757272656e6379302074657374000000000000000000000000000000000000600082015250565b600062001e54600e836200152e565b915062001e618262001e1c565b602082019050919050565b7f5041535345443a43757272656e63793020616e6420746f6b656e30206172652060008201527f696e64656564207468652073616d652061646472657373000000000000000000602082015250565b600062001eca6037836200152e565b915062001ed78262001e6c565b604082019050919050565b6000604082019050818103600083015262001efd8162001e45565b9050818103602083015262001f128162001ebb565b9050919050565b7f4641494c45443a43757272656e63793020616e6420746f6b656e30206172652060008201527f6e6f74207468652073616d652061646472657373000000000000000000000000602082015250565b600062001f776034836200152e565b915062001f848262001f19565b604082019050919050565b6000602082019050818103600083015262001faa8162001f68565b9050919050565b7f50726963654c696d697420746573740000000000000000000000000000000000600082015250565b600062001fe9600f836200152e565b915062001ff68262001fb1565b602082019050919050565b7f5041535345443a206d696e50726963654c696d697420657175616c732070726960008201527f63654c696d697400000000000000000000000000000000000000000000000000602082015250565b60006200205f6027836200152e565b91506200206c8262002001565b604082019050919050565b60006040820190508181036000830152620020928162001fda565b90508181036020830152620020a78162002050565b9050919050565b7f4641494c45443a6d696e50726963654c696d697420646f6573206e6f7420657160008201527f75616c2070726963654c696d6974000000000000000000000000000000000000602082015250565b60006200210c602e836200152e565b91506200211982620020ae565b604082019050919050565b600060208201905081810360008301526200213f81620020fd565b9050919050565b7f4d617853776170416d6f756e7420746573740000000000000000000000000000600082015250565b60006200217e6012836200152e565b91506200218b8262002146565b602082019050919050565b7f5041535345443a206d6178416d6f756e745377617020657175616c73206d617860008201527f416d6f756e740000000000000000000000000000000000000000000000000000602082015250565b6000620021f46026836200152e565b9150620022018262002196565b604082019050919050565b6000604082019050818103600083015262002227816200216f565b905081810360208301526200223c81620021e5565b9050919050565b7f4641494c45443a206d6178416d6f756e745377617020646f6573206e6f74206560008201527f7175616c206d6178416d6f756e74000000000000000000000000000000000000602082015250565b6000620022a1602e836200152e565b9150620022ae8262002243565b604082019050919050565b60006020820190508181036000830152620022d48162002292565b9050919050565b620022e68162001bb5565b82525050565b600062ffffff82169050919050565b6200230681620022ec565b82525050565b62002317816200141d565b82525050565b60006200232a82620014d8565b9050919050565b6200233c816200231d565b82525050565b60a0820160008201516200235a6000850182620022db565b5060208201516200236f6020850182620022db565b506040820151620023846040850182620022fb565b5060608201516200239960608501826200230c565b506080820151620023ae608085018262002331565b50505050565b600060a082019050620023cb600083018462002342565b9291505056fe60e06040523480156200001157600080fd5b506040516200218638038062002186833981810160405281019062000037919062000430565b83838382600090816200004b919062000721565b5081600190816200005d919062000721565b508060ff1660808160ff16815250504660a0818152505062000084620000aa60201b60201c565b60c08181525050505050620000a033826200013a60201b60201c565b5050505062000a25565b60007f8b73c3c69bb8fe3d512ecc4cf759cc79239f7b179b0ffacaa9a75d522b39400f6000604051620000de9190620008b7565b60405180910390207fc89efdaa54c0f20c7adf612882df0950f5a951637e0307cdcb4c672f298b8bc646306040516020016200011f95949392919062000941565b60405160208183030381529060405280519060200120905090565b6200014c82826200015060201b60201c565b5050565b8060026000828254620001649190620009cd565b9250508190555080600360008473ffffffffffffffffffffffffffffffffffffffff1673ffffffffffffffffffffffffffffffffffffffff168152602001908152602001600020600082825401925050819055508173ffffffffffffffffffffffffffffffffffffffff16600073ffffffffffffffffffffffffffffffffffffffff167fddf252ad1be2c89b69c2b068fc378daa952ba7f163c4a11628f55a4df523b3ef8360405162000218919062000a08565b60405180910390a35050565b6000604051905090565b600080fd5b600080fd5b600080fd5b600080fd5b6000601f19601f8301169050919050565b7f4e487b7100000000000000000000000000000000000000000000000000000000600052604160045260246000fd5b6200028d8262000242565b810181811067ffffffffffffffff82111715620002af57620002ae62000253565b5b80604052505050565b6000620002c462000224565b9050620002d2828262000282565b919050565b600067ffffffffffffffff821115620002f557620002f462000253565b5b620003008262000242565b9050602081019050919050565b60005b838110156200032d57808201518184015260208101905062000310565b60008484015250505050565b6000620003506200034a84620002d7565b620002b8565b9050828152602081018484840111156200036f576200036e6200023d565b5b6200037c8482856200030d565b509392505050565b600082601f8301126200039c576200039b62000238565b5b8151620003ae84826020860162000339565b91505092915050565b600060ff82169050919050565b620003cf81620003b7565b8114620003db57600080fd5b50565b600081519050620003ef81620003c4565b92915050565b6000819050919050565b6200040a81620003f5565b81146200041657600080fd5b50565b6000815190506200042a81620003ff565b92915050565b600080600080608085870312156200044d576200044c6200022e565b5b600085015167ffffffffffffffff8111156200046e576200046d62000233565b5b6200047c8782880162000384565b945050602085015167ffffffffffffffff811115620004a0576200049f62000233565b5b620004ae8782880162000384565b9350506040620004c187828801620003de565b9250506060620004d48782880162000419565b91505092959194509250565b600081519050919050565b7f4e487b7100000000000000000000000000000000000000000000000000000000600052602260045260246000fd5b600060028204905060018216806200053357607f821691505b602082108103620005495762000548620004eb565b5b50919050565b60008190508160005260206000209050919050565b60006020601f8301049050919050565b600082821b905092915050565b600060088302620005b37fffffffffffffffffffffffffffffffffffffffffffffffffffffffffffffffff8262000574565b620005bf868362000574565b95508019841693508086168417925050509392505050565b6000819050919050565b600062000602620005fc620005f684620003f5565b620005d7565b620003f5565b9050919050565b6000819050919050565b6200061e83620005e1565b620006366200062d8262000609565b84845462000581565b825550505050565b600090565b6200064d6200063e565b6200065a81848462000613565b505050565b5b8181101562000682576200067660008262000643565b60018101905062000660565b5050565b601f821115620006d1576200069b816200054f565b620006a68462000564565b81016020851015620006b6578190505b620006ce620006c58562000564565b8301826200065f565b50505b505050565b600082821c905092915050565b6000620006f660001984600802620006d6565b1980831691505092915050565b6000620007118383620006e3565b9150826002028217905092915050565b6200072c82620004e0565b67ffffffffffffffff81111562000748576200074762000253565b5b6200075482546200051a565b6200076182828562000686565b600060209050601f83116001811462000799576000841562000784578287015190505b62000790858262000703565b86555062000800565b601f198416620007a9866200054f565b60005b82811015620007d357848901518255600182019150602085019450602081019050620007ac565b86831015620007f35784890151620007ef601f891682620006e3565b8355505b6001600288020188555050505b505050505050565b600081905092915050565b60008190508160005260206000209050919050565b6000815462000837816200051a565b62000843818662000808565b945060018216600081146200086157600181146200087757620008ae565b60ff1983168652811515820286019350620008ae565b620008828562000813565b60005b83811015620008a65781548189015260018201915060208101905062000885565b838801955050505b50505092915050565b6000620008c5828462000828565b915081905092915050565b6000819050919050565b620008e581620008d0565b82525050565b620008f681620003f5565b82525050565b600073ffffffffffffffffffffffffffffffffffffffff82169050919050565b60006200092982620008fc565b9050919050565b6200093b816200091c565b82525050565b600060a082019050620009586000830188620008da565b620009676020830187620008da565b620009766040830186620008da565b620009856060830185620008eb565b62000994608083018462000930565b9695505050505050565b7f4e487b7100000000000000000000000000000000000000000000000000000000600052601160045260246000fd5b6000620009da82620003f5565b9150620009e783620003f5565b925082820190508082111562000a025762000a016200099e565b5b92915050565b600060208201905062000a1f6000830184620008eb565b92915050565b60805160a05160c05161173162000a55600039600061073901526000610705015260006106df01526117316000f3fe608060405234801561001057600080fd5b50600436106100ea5760003560e01c806361f49ed61161008c57806395d89b411161006657806395d89b4114610273578063a9059cbb14610291578063d505accf146102c1578063dd62ed3e146102dd576100ea565b806361f49ed6146101e357806370a08231146102135780637ecebe0014610243576100ea565b806323b872dd116100c857806323b872dd1461015b578063313ce5671461018b5780633644e515146101a957806340c10f19146101c7576100ea565b806306fdde03146100ef578063095ea7b31461010d57806318160ddd1461013d575b600080fd5b6100f761030d565b6040516101049190610f3b565b60405180910390f35b61012760048036038101906101229190610ff6565b61039b565b6040516101349190611051565b60405180910390f35b61014561048d565b604051610152919061107b565b60405180910390f35b61017560048036038101906101709190611096565b610493565b6040516101829190611051565b60405180910390f35b6101936106dd565b6040516101a09190611105565b60405180910390f35b6101b1610701565b6040516101be9190611139565b60405180910390f35b6101e160048036038101906101dc9190610ff6565b61075e565b005b6101fd60048036038101906101f89190611096565b61076c565b60405161020a9190611051565b60405180910390f35b61022d60048036038101906102289190611154565b61085f565b60405161023a919061107b565b60405180910390f35b61025d60048036038101906102589190611154565b610877565b60405161026a919061107b565b60405180910390f35b61027b61088f565b6040516102889190610f3b565b60405180910390f35b6102ab60048036038101906102a69190610ff6565b61091d565b6040516102b89190611051565b60405180910390f35b6102db60048036038101906102d691906111d9565b610a31565b005b6102f760048036038101906102f2919061127b565b610d2a565b604051610304919061107b565b60405180910390f35b6000805461031a906112ea565b80601f0160208091040260200160405190810160405280929190818152602001828054610346906112ea565b80156103935780601f1061036857610100808354040283529160200191610393565b820191906000526020600020905b81548152906001019060200180831161037657829003601f168201915b505050505081565b600081600460003373ffffffffffffffffffffffffffffffffffffffff1673ffffffffffffffffffffffffffffffffffffffff16815260200190815260200160002060008573ffffffffffffffffffffffffffffffffffffffff1673ffffffffffffffffffffffffffffffffffffffff168152602001908152602001600020819055508273ffffffffffffffffffffffffffffffffffffffff163373ffffffffffffffffffffffffffffffffffffffff167f8c5be1e5ebec7d5bd14f71427d1e84f3dd0314c0f7b2291e5b200ac8c7c3b9258460405161047b919061107b565b60405180910390a36001905092915050565b60025481565b600080600460008673ffffffffffffffffffffffffffffffffffffffff1673ffffffffffffffffffffffffffffffffffffffff16815260200190815260200160002060003373ffffffffffffffffffffffffffffffffffffffff1673ffffffffffffffffffffffffffffffffffffffff1681526020019081526020016000205490507fffffffffffffffffffffffffffffffffffffffffffffffffffffffffffffffff81146105c9578281610548919061134a565b600460008773ffffffffffffffffffffffffffffffffffffffff1673ffffffffffffffffffffffffffffffffffffffff16815260200190815260200160002060003373ffffffffffffffffffffffffffffffffffffffff1673ffffffffffffffffffffffffffffffffffffffff168152602001908152602001600020819055505b82600360008773ffffffffffffffffffffffffffffffffffffffff1673ffffffffffffffffffffffffffffffffffffffff1681526020019081526020016000206000828254610618919061134a565b9250508190555082600360008673ffffffffffffffffffffffffffffffffffffffff1673ffffffffffffffffffffffffffffffffffffffff168152602001908152602001600020600082825401925050819055508373ffffffffffffffffffffffffffffffffffffffff168573ffffffffffffffffffffffffffffffffffffffff167fddf252ad1be2c89b69c2b068fc378daa952ba7f163c4a11628f55a4df523b3ef856040516106c9919061107b565b60405180910390a360019150509392505050565b7f000000000000000000000000000000000000000000000000000000000000000081565b60007f0000000000000000000000000000000000000000000000000000000000000000461461073757610732610d4f565b610759565b7f00000000000000000000000000000000000000000000000000000000000000005b905090565b6107688282610ddb565b5050565b600081600460008673ffffffffffffffffffffffffffffffffffffffff1673ffffffffffffffffffffffffffffffffffffffff16815260200190815260200160002060008573ffffffffffffffffffffffffffffffffffffffff1673ffffffffffffffffffffffffffffffffffffffff168152602001908152602001600020819055508273ffffffffffffffffffffffffffffffffffffffff168473ffffffffffffffffffffffffffffffffffffffff167f8c5be1e5ebec7d5bd14f71427d1e84f3dd0314c0f7b2291e5b200ac8c7c3b9258460405161084c919061107b565b60405180910390a3600190509392505050565b60036020528060005260406000206000915090505481565b60056020528060005260406000206000915090505481565b6001805461089c906112ea565b80601f01602080910402602001604051908101604052809291908181526020018280546108c8906112ea565b80156109155780601f106108ea57610100808354040283529160200191610915565b820191906000526020600020905b8154815290600101906020018083116108f857829003601f168201915b505050505081565b600081600360003373ffffffffffffffffffffffffffffffffffffffff1673ffffffffffffffffffffffffffffffffffffffff168152602001908152602001600020600082825461096e919061134a565b9250508190555081600360008573ffffffffffffffffffffffffffffffffffffffff1673ffffffffffffffffffffffffffffffffffffffff168152602001908152602001600020600082825401925050819055508273ffffffffffffffffffffffffffffffffffffffff163373ffffffffffffffffffffffffffffffffffffffff167fddf252ad1be2c89b69c2b068fc378daa952ba7f163c4a11628f55a4df523b3ef84604051610a1f919061107b565b60405180910390a36001905092915050565b42841015610a74576040517f08c379a0000000000000000000000000000000000000000000000000000000008152600401610a6b906113ca565b60405180910390fd5b60006001610a80610701565b7f6e71edae12b1b97f4d1f60370fef10105fa2faae0126114a169c64845d6126c98a8a8a600560008f73ffffffffffffffffffffffffffffffffffffffff1673ffffffffffffffffffffffffffffffffffffffff1681526020019081526020016000206000815480929190600101919050558b604051602001610b08969594939291906113f9565b60405160208183030381529060405280519060200120604051602001610b2f9291906114d2565b6040516020818303038152906040528051906020012085858560405160008152602001604052604051610b659493929190611509565b6020604051602081039080840390855afa158015610b87573d6000803e3d6000fd5b505050602060405103519050600073ffffffffffffffffffffffffffffffffffffffff168173ffffffffffffffffffffffffffffffffffffffff1614158015610bfb57508773ffffffffffffffffffffffffffffffffffffffff168173ffffffffffffffffffffffffffffffffffffffff16145b610c3a576040517f08c379a0000000000000000000000000000000000000000000000000000000008152600401610c319061159a565b60405180910390fd5b85600460008373ffffffffffffffffffffffffffffffffffffffff1673ffffffffffffffffffffffffffffffffffffffff16815260200190815260200160002060008973ffffffffffffffffffffffffffffffffffffffff1673ffffffffffffffffffffffffffffffffffffffff16815260200190815260200160002081905550508573ffffffffffffffffffffffffffffffffffffffff168773ffffffffffffffffffffffffffffffffffffffff167f8c5be1e5ebec7d5bd14f71427d1e84f3dd0314c0f7b2291e5b200ac8c7c3b92587604051610d19919061107b565b60405180910390a350505050505050565b6004602052816000526040600020602052806000526040600020600091509150505481565b60007f8b73c3c69bb8fe3d512ecc4cf759cc79239f7b179b0ffacaa9a75d522b39400f6000604051610d81919061165d565b60405180910390207fc89efdaa54c0f20c7adf612882df0950f5a951637e0307cdcb4c672f298b8bc64630604051602001610dc0959493929190611674565b60405160208183030381529060405280519060200120905090565b8060026000828254610ded91906116c7565b9250508190555080600360008473ffffffffffffffffffffffffffffffffffffffff1673ffffffffffffffffffffffffffffffffffffffff168152602001908152602001600020600082825401925050819055508173ffffffffffffffffffffffffffffffffffffffff16600073ffffffffffffffffffffffffffffffffffffffff167fddf252ad1be2c89b69c2b068fc378daa952ba7f163c4a11628f55a4df523b3ef83604051610e9f919061107b565b60405180910390a35050565b600081519050919050565b600082825260208201905092915050565b60005b83811015610ee5578082015181840152602081019050610eca565b60008484015250505050565b6000601f19601f8301169050919050565b6000610f0d82610eab565b610f178185610eb6565b9350610f27818560208601610ec7565b610f3081610ef1565b840191505092915050565b60006020820190508181036000830152610f558184610f02565b905092915050565b600080fd5b600073ffffffffffffffffffffffffffffffffffffffff82169050919050565b6000610f8d82610f62565b9050919050565b610f9d81610f82565b8114610fa857600080fd5b50565b600081359050610fba81610f94565b92915050565b6000819050919050565b610fd381610fc0565b8114610fde57600080fd5b50565b600081359050610ff081610fca565b92915050565b6000806040838503121561100d5761100c610f5d565b5b600061101b85828601610fab565b925050602061102c85828601610fe1565b9150509250929050565b60008115159050919050565b61104b81611036565b82525050565b60006020820190506110666000830184611042565b92915050565b61107581610fc0565b82525050565b6000602082019050611090600083018461106c565b92915050565b6000806000606084860312156110af576110ae610f5d565b5b60006110bd86828701610fab565b93505060206110ce86828701610fab565b92505060406110df86828701610fe1565b9150509250925092565b600060ff82169050919050565b6110ff816110e9565b82525050565b600060208201905061111a60008301846110f6565b92915050565b6000819050919050565b61113381611120565b82525050565b600060208201905061114e600083018461112a565b92915050565b60006020828403121561116a57611169610f5d565b5b600061117884828501610fab565b91505092915050565b61118a816110e9565b811461119557600080fd5b50565b6000813590506111a781611181565b92915050565b6111b681611120565b81146111c157600080fd5b50565b6000813590506111d3816111ad565b92915050565b600080600080600080600060e0888a0312156111f8576111f7610f5d565b5b60006112068a828b01610fab565b97505060206112178a828b01610fab565b96505060406112288a828b01610fe1565b95505060606112398a828b01610fe1565b945050608061124a8a828b01611198565b93505060a061125b8a828b016111c4565b92505060c061126c8a828b016111c4565b91505092959891949750929550565b6000806040838503121561129257611291610f5d565b5b60006112a085828601610fab565b92505060206112b185828601610fab565b9150509250929050565b7f4e487b7100000000000000000000000000000000000000000000000000000000600052602260045260246000fd5b6000600282049050600182168061130257607f821691505b602082108103611315576113146112bb565b5b50919050565b7f4e487b7100000000000000000000000000000000000000000000000000000000600052601160045260246000fd5b600061135582610fc0565b915061136083610fc0565b92508282039050818111156113785761137761131b565b5b92915050565b7f5045524d49545f444541444c494e455f45585049524544000000000000000000600082015250565b60006113b4601783610eb6565b91506113bf8261137e565b602082019050919050565b600060208201905081810360008301526113e3816113a7565b9050919050565b6113f381610f82565b82525050565b600060c08201905061140e600083018961112a565b61141b60208301886113ea565b61142860408301876113ea565b611435606083018661106c565b611442608083018561106c565b61144f60a083018461106c565b979650505050505050565b600081905092915050565b7f1901000000000000000000000000000000000000000000000000000000000000600082015250565b600061149b60028361145a565b91506114a682611465565b600282019050919050565b6000819050919050565b6114cc6114c782611120565b6114b1565b82525050565b60006114dd8261148e565b91506114e982856114bb565b6020820191506114f982846114bb565b6020820191508190509392505050565b600060808201905061151e600083018761112a565b61152b60208301866110f6565b611538604083018561112a565b611545606083018461112a565b95945050505050565b7f494e56414c49445f5349474e4552000000000000000000000000000000000000600082015250565b6000611584600e83610eb6565b915061158f8261154e565b602082019050919050565b600060208201905081810360008301526115b381611577565b9050919050565b600081905092915050565b60008190508160005260206000209050919050565b600081546115e7816112ea565b6115f181866115ba565b9450600182166000811461160c576001811461162157611654565b60ff1983168652811515820286019350611654565b61162a856115c5565b60005b8381101561164c5781548189015260018201915060208101905061162d565b838801955050505b50505092915050565b600061166982846115da565b915081905092915050565b600060a082019050611689600083018861112a565b611696602083018761112a565b6116a3604083018661112a565b6116b0606083018561106c565b6116bd60808301846113ea565b9695505050505050565b60006116d282610fc0565b91506116dd83610fc0565b92508282019050808211156116f5576116f461131b565b5b9291505056fea2646970667358221220d31e47fd1accc7a22040a33b1819ef70519b11925aa65adeb7bdfcd7a72d4d9264736f6c6343000815003360a06040523480156200001157600080fd5b5060405162003daa38038062003daa833981810160405281019062000037919062000506565b808073ffffffffffffffffffffffffffffffffffffffff1660808173ffffffffffffffffffffffffffffffffffffffff16815250506200007d306200008560201b60201c565b505062000566565b620000a6816200009a620000a960201b60201c565b6200010a60201b60201c565b50565b620000b362000433565b60405180610100016040528060001515815260200160001515815260200160001515815260200160001515815260200160001515815260200160011515815260200160001515815260200160001515815250905090565b6200011b826200026b60201b60201c565b1515816000015115151415806200014a57506200013e82620002a460201b60201c565b15158160200151151514155b806200016e57506200016282620002dd60201b60201c565b15158160400151151514155b8062000192575062000186826200031660201b60201c565b15158160600151151514155b80620001b65750620001aa826200034f60201b60201c565b15158160800151151514155b80620001da5750620001ce826200038860201b60201c565b15158160a00151151514155b80620001fe5750620001f282620003c160201b60201c565b15158160c00151151514155b806200022257506200021682620003fa60201b60201c565b15158160e00151151514155b156200026757816040517fe65af6a00000000000000000000000000000000000000000000000000000000081526004016200025e919062000549565b60405180910390fd5b5050565b6000807380000000000000000000000000000000000000008373ffffffffffffffffffffffffffffffffffffffff161614159050919050565b6000807340000000000000000000000000000000000000008373ffffffffffffffffffffffffffffffffffffffff161614159050919050565b6000807320000000000000000000000000000000000000008373ffffffffffffffffffffffffffffffffffffffff161614159050919050565b6000807310000000000000000000000000000000000000008373ffffffffffffffffffffffffffffffffffffffff161614159050919050565b6000807308000000000000000000000000000000000000008373ffffffffffffffffffffffffffffffffffffffff161614159050919050565b6000807304000000000000000000000000000000000000008373ffffffffffffffffffffffffffffffffffffffff161614159050919050565b6000807302000000000000000000000000000000000000008373ffffffffffffffffffffffffffffffffffffffff161614159050919050565b6000807301000000000000000000000000000000000000008373ffffffffffffffffffffffffffffffffffffffff161614159050919050565b6040518061010001604052806000151581526020016000151581526020016000151581526020016000151581526020016000151581526020016000151581526020016000151581526020016000151581525090565b600080fd5b600073ffffffffffffffffffffffffffffffffffffffff82169050919050565b6000620004ba826200048d565b9050919050565b6000620004ce82620004ad565b9050919050565b620004e081620004c1565b8114620004ec57600080fd5b50565b6000815190506200050081620004d5565b92915050565b6000602082840312156200051f576200051e62000488565b5b60006200052f84828501620004ef565b91505092915050565b6200054381620004ad565b82525050565b600060208201905062000560600083018462000538565b92915050565b6080516137b8620005f26000396000818161051c015281816105a4015281816106470152818161072501528181610762015281816107f001528181610ab201528181610f6b01528181611242015281816112ca0152818161136d015281816114490152818161148601528181611514015281816115b701528181611c3f0152611e5101526137b86000f3fe608060405234801561001057600080fd5b506004361061010b5760003560e01c8063a910f80f116100a2578063d5f8cc4d11610071578063d5f8cc4d14610332578063dc4c90d314610362578063e1b4af6914610380578063f92ee941146103b0578063fe9a6f45146103cc5761010b565b8063a910f80f14610272578063ab6291fe146102a2578063b47b2fb1146102d2578063b6a8b0fa146103025761010b565b8063575e24b4116100de578063575e24b4146101bc578063612c39b7146101ec578063771029101461020a578063a5aa370a146102425761010b565b806327a7cc9a1461011057806330b7cdef1461012c578063334f137c1461015c5780633440d8201461018c575b600080fd5b61012a6004803603810190610125919061237b565b6103fc565b005b6101466004803603810190610141919061248a565b610890565b6040516101539190612562565b60405180910390f35b6101766004803603810190610171919061257d565b6108c4565b60405161018391906125cc565b60405180910390f35b6101a660048036038101906101a19190612613565b6108f5565b6040516101b39190612562565b60405180910390f35b6101d660048036038101906101d1919061269c565b610929565b6040516101e39190612562565b60405180910390f35b6101f461095d565b60405161020191906127d7565b60405180910390f35b610224600480360381019061021f91906127f3565b6109bc565b604051610239999897969594939291906128c3565b60405180910390f35b61025c60048036038101906102579190612950565b610aae565b6040516102699190612562565b60405180910390f35b61028c600480360381019061028791906129f2565b610f33565b6040516102999190612562565b60405180910390f35b6102bc60048036038101906102b79190612a8e565b610f67565b6040516102c99190612b5a565b60405180910390f35b6102ec60048036038101906102e79190612b7c565b6110b8565b6040516102f99190612562565b60405180910390f35b61031c60048036038101906103179190612c19565b6110ec565b6040516103299190612562565b60405180910390f35b61034c6004803603810190610347919061237b565b611120565b60405161035991906125cc565b60405180910390f35b61036a6115b5565b6040516103779190612cd6565b60405180910390f35b61039a60048036038101906103959190612c19565b6115d9565b6040516103a79190612562565b60405180910390f35b6103ca60048036038101906103c59190612cf1565b61160d565b005b6103e660048036038101906103e19190612d58565b6119d4565b6040516103f39190612562565b60405180910390f35b3073ffffffffffffffffffffffffffffffffffffffff163373ffffffffffffffffffffffffffffffffffffffff1614610461576040517f29c3b7ee00000000000000000000000000000000000000000000000000000000815260040160405180910390fd5b60008160600151905060008173ffffffffffffffffffffffffffffffffffffffff166370a082318461010001516040518263ffffffff1660e01b81526004016104aa9190612de2565b602060405180830381865afa1580156104c7573d6000803e3d6000fd5b505050506040513d601f19601f820116820180604052508101906104eb9190612e12565b90508260c001518110610889578173ffffffffffffffffffffffffffffffffffffffff166323b872dd8461010001517f00000000000000000000000000000000000000000000000000000000000000008660c001516040518463ffffffff1660e01b815260040161055e93929190612e3f565b6020604051808303816000875af115801561057d573d6000803e3d6000fd5b505050506040513d601f19601f820116820180604052508101906105a19190612e8b565b507f000000000000000000000000000000000000000000000000000000000000000073ffffffffffffffffffffffffffffffffffffffff16636a256b2984606001516040518263ffffffff1660e01b81526004016105ff9190612eb8565b6020604051808303816000875af115801561061e573d6000803e3d6000fd5b505050506040513d601f19601f820116820180604052508101906106429190612e12565b5060007f000000000000000000000000000000000000000000000000000000000000000073ffffffffffffffffffffffffffffffffffffffff1663f3cd914c878760405160200161069290612f0a565b6040516020818303038152906040526040518463ffffffff1660e01b81526004016106bf939291906131c6565b6020604051808303816000875af11580156106de573d6000803e3d6000fd5b505050506040513d601f19601f82011682018060405250810190610702919061321b565b9050600061070f82611a08565b6fffffffffffffffffffffffffffffffff1690507f000000000000000000000000000000000000000000000000000000000000000073ffffffffffffffffffffffffffffffffffffffff1663f242432a307f0000000000000000000000000000000000000000000000000000000000000000886040015173ffffffffffffffffffffffffffffffffffffffff16856040518563ffffffff1660e01b81526004016107bc949392919061326b565b600060405180830381600087803b1580156107d657600080fd5b505af11580156107ea573d6000803e3d6000fd5b505050507f000000000000000000000000000000000000000000000000000000000000000073ffffffffffffffffffffffffffffffffffffffff16630b0d9c098660400151876101000151846040518463ffffffff1660e01b8152600401610854939291906132c3565b600060405180830381600087803b15801561086e57600080fd5b505af1158015610882573d6000803e3d6000fd5b5050505050505b5050505050565b60006040517f0a85dc2900000000000000000000000000000000000000000000000000000000815260040160405180910390fd5b600060205281600052604060002081815481106108e057600080fd5b90600052602060002001600091509150505481565b60006040517f0a85dc2900000000000000000000000000000000000000000000000000000000815260040160405180910390fd5b60006040517f0a85dc2900000000000000000000000000000000000000000000000000000000815260040160405180910390fd5b610965611fd4565b60405180610100016040528060001515815260200160001515815260200160001515815260200160001515815260200160001515815260200160011515815260200160001515815260200160001515815250905090565b600160205282600052604060002060205281600052604060002081815481106109e457600080fd5b906000526020600020906007020160009250925050508060000160009054906101000a900460ff16908060000160019054906101000a900460ff16908060000160029054906101000a900473ffffffffffffffffffffffffffffffffffffffff16908060010160009054906101000a900473ffffffffffffffffffffffffffffffffffffffff16908060020154908060030154908060040154908060050154908060060160009054906101000a900473ffffffffffffffffffffffffffffffffffffffff16905089565b60007f000000000000000000000000000000000000000000000000000000000000000073ffffffffffffffffffffffffffffffffffffffff163373ffffffffffffffffffffffffffffffffffffffff1614610b35576040517fae18210a00000000000000000000000000000000000000000000000000000000815260040160405180910390fd5b6000806000866000016020810190610b4d91906132fa565b73ffffffffffffffffffffffffffffffffffffffff1673ffffffffffffffffffffffffffffffffffffffff168152602001908152602001600020805480602002602001604051908101604052809291908181526020018280548015610bd157602002820191906000526020600020905b815481526020019060010190808311610bbd575b505050505090506000815103610bf15763a5aa370a60e01b915050610f2b565b6000846040016020810190610c069190613327565b73ffffffffffffffffffffffffffffffffffffffff16856040016020810190610c2f9190613327565b73ffffffffffffffffffffffffffffffffffffffff16610c4f9190613383565b90506000670de0b6b3a764000090506000610c8483837801000000000000000000000000000000000000000000000000611a15565b90506000610c928583611ae1565b905060005b8551811015610f1a576000600160008c6000016020810190610cb991906132fa565b73ffffffffffffffffffffffffffffffffffffffff1673ffffffffffffffffffffffffffffffffffffffff1681526020019081526020016000206000888481518110610d0857610d076133c5565b5b60200260200101518152602001908152602001600020805480602002602001604051908101604052809291908181526020016000905b82821015610ed15783829060005260206000209060070201604051806101200160405290816000820160009054906101000a900460ff161515151581526020016000820160019054906101000a900460ff161515151581526020016000820160029054906101000a900473ffffffffffffffffffffffffffffffffffffffff1673ffffffffffffffffffffffffffffffffffffffff1673ffffffffffffffffffffffffffffffffffffffff1681526020016001820160009054906101000a900473ffffffffffffffffffffffffffffffffffffffff1673ffffffffffffffffffffffffffffffffffffffff1673ffffffffffffffffffffffffffffffffffffffff168152602001600282015481526020016003820154815260200160048201548152602001600582015481526020016006820160009054906101000a900473ffffffffffffffffffffffffffffffffffffffff1673ffffffffffffffffffffffffffffffffffffffff1673ffffffffffffffffffffffffffffffffffffffff168152505081526020019060010190610d3e565b5050505090506000815114610f0657828210610ef857610ef38b8b8387611c00565b610f05565b610f048b8b8387611dfc565b5b5b508080610f12906133f4565b915050610c97565b5063a5aa370a60e01b955050505050505b949350505050565b60006040517f0a85dc2900000000000000000000000000000000000000000000000000000000815260040160405180910390fd5b60607f000000000000000000000000000000000000000000000000000000000000000073ffffffffffffffffffffffffffffffffffffffff163373ffffffffffffffffffffffffffffffffffffffff1614610fee576040517fae18210a00000000000000000000000000000000000000000000000000000000815260040160405180910390fd5b6000803073ffffffffffffffffffffffffffffffffffffffff16858560405161101892919061347b565b6000604051808303816000865af19150503d8060008114611055576040519150601f19603f3d011682016040523d82523d6000602084013e61105a565b606091505b5091509150811561106f5780925050506110b2565b60008151036110aa576040517fa40afa3800000000000000000000000000000000000000000000000000000000815260040160405180910390fd5b805160208201fd5b92915050565b60006040517f0a85dc2900000000000000000000000000000000000000000000000000000000815260040160405180910390fd5b60006040517f0a85dc2900000000000000000000000000000000000000000000000000000000815260040160405180910390fd5b60003073ffffffffffffffffffffffffffffffffffffffff163373ffffffffffffffffffffffffffffffffffffffff1614611187576040517f29c3b7ee00000000000000000000000000000000000000000000000000000000815260040160405180910390fd5b60008260400151905060008173ffffffffffffffffffffffffffffffffffffffff166370a082318561010001516040518263ffffffff1660e01b81526004016111d09190612de2565b602060405180830381865afa1580156111ed573d6000803e3d6000fd5b505050506040513d601f19601f820116820180604052508101906112119190612e12565b90508360e0015181106115ac578173ffffffffffffffffffffffffffffffffffffffff166323b872dd8561010001517f00000000000000000000000000000000000000000000000000000000000000008760e001516040518463ffffffff1660e01b815260040161128493929190612e3f565b6020604051808303816000875af11580156112a3573d6000803e3d6000fd5b505050506040513d601f19601f820116820180604052508101906112c79190612e8b565b507f000000000000000000000000000000000000000000000000000000000000000073ffffffffffffffffffffffffffffffffffffffff16636a256b2985604001516040518263ffffffff1660e01b81526004016113259190612eb8565b6020604051808303816000875af1158015611344573d6000803e3d6000fd5b505050506040513d601f19601f820116820180604052508101906113689190612e12565b5060007f000000000000000000000000000000000000000000000000000000000000000073ffffffffffffffffffffffffffffffffffffffff1663f3cd914c88886040516020016113b890612f0a565b6040516020818303038152906040526040518463ffffffff1660e01b81526004016113e5939291906131c6565b6020604051808303816000875af1158015611404573d6000803e3d6000fd5b505050506040513d601f19601f82011682018060405250810190611428919061321b565b905061143381611fca565b6fffffffffffffffffffffffffffffffff1693507f000000000000000000000000000000000000000000000000000000000000000073ffffffffffffffffffffffffffffffffffffffff1663f242432a307f0000000000000000000000000000000000000000000000000000000000000000886060015173ffffffffffffffffffffffffffffffffffffffff16886040518563ffffffff1660e01b81526004016114e0949392919061326b565b600060405180830381600087803b1580156114fa57600080fd5b505af115801561150e573d6000803e3d6000fd5b505050507f000000000000000000000000000000000000000000000000000000000000000073ffffffffffffffffffffffffffffffffffffffff16630b0d9c098660600151876101000151876040518463ffffffff1660e01b8152600401611578939291906132c3565b600060405180830381600087803b15801561159257600080fd5b505af11580156115a6573d6000803e3d6000fd5b50505050505b50509392505050565b7f000000000000000000000000000000000000000000000000000000000000000081565b60006040517f0a85dc2900000000000000000000000000000000000000000000000000000000815260040160405180910390fd5b611615612029565b8181600001901515908115158152505084816040019073ffffffffffffffffffffffffffffffffffffffff16908173ffffffffffffffffffffffffffffffffffffffff168152505083816080018181525050828160e00181815250503381610100019073ffffffffffffffffffffffffffffffffffffffff16908173ffffffffffffffffffffffffffffffffffffffff168152505060008060008773ffffffffffffffffffffffffffffffffffffffff1673ffffffffffffffffffffffffffffffffffffffff168152602001908152602001600020905060006117478280548060200260200160405190810160405280929190818152602001828054801561173c57602002820191906000526020600020905b815481526020019060010190808311611728575b505050505087611ae1565b905081600090806001815401808255809150506001900390600052602060002001600090919091909150556000600183805490506117859190613494565b90505b818111156117ee578260018261179e9190613494565b815481106117af576117ae6133c5565b5b90600052602060002001548382815481106117cd576117cc6133c5565b5b906000526020600020018190555080806117e6906134c8565b915050611788565b5085828281548110611803576118026133c5565b5b9060005260206000200181905550600160008873ffffffffffffffffffffffffffffffffffffffff1673ffffffffffffffffffffffffffffffffffffffff168152602001908152602001600020600087815260200190815260200160002083908060018154018082558091505060019003906000526020600020906007020160009091909190915060008201518160000160006101000a81548160ff02191690831515021790555060208201518160000160016101000a81548160ff02191690831515021790555060408201518160000160026101000a81548173ffffffffffffffffffffffffffffffffffffffff021916908373ffffffffffffffffffffffffffffffffffffffff16021790555060608201518160010160006101000a81548173ffffffffffffffffffffffffffffffffffffffff021916908373ffffffffffffffffffffffffffffffffffffffff1602179055506080820151816002015560a0820151816003015560c0820151816004015560e082015181600501556101008201518160060160006101000a81548173ffffffffffffffffffffffffffffffffffffffff021916908373ffffffffffffffffffffffffffffffffffffffff160217905550505050505050505050565b60006040517f0a85dc2900000000000000000000000000000000000000000000000000000000815260040160405180910390fd5b60008160801c9050919050565b60008083850290506000801985870982811083820303915050808411611a3a57600080fd5b60008103611a4e5783820492505050611ada565b600084868809905082811182039150808303925060008586600003169050808604955080840493506001818260000304019050808302841793506000600287600302189050808702600203810290508087026002038102905080870260020381029050808702600203810290508087026002038102905080870260020381029050808502955050505050505b9392505050565b600080835190506000811480611b12575083600081518110611b0657611b056133c5565b5b60200260200101518311155b15611b21576000915050611bfa565b83600182611b2f9190613494565b81518110611b4057611b3f6133c5565b5b60200260200101518310611b575780915050611bfa565b600080600183611b679190613494565b90505b808211611bf357600060028284611b8191906134f1565b611b8b9190613554565b90506000878281518110611ba257611ba16133c5565b5b60200260200101519050868103611bc0578195505050505050611bfa565b86811015611bdc57600182611bd591906134f1565b9350611bec565b600182611be99190613494565b92505b5050611b6a565b8193505050505b92915050565b60005b8251811015611df5576000838281518110611c2157611c206133c5565b5b60200260200101519050806020015115611c3b5750611de2565b60007f000000000000000000000000000000000000000000000000000000000000000073ffffffffffffffffffffffffffffffffffffffff1663815483193073ffffffffffffffffffffffffffffffffffffffff1663d5f8cc4d8a8a87604051602401611caa9392919061365a565b604051602081830303815290604052915060e01b6020820180517bffffffffffffffffffffffffffffffffffffffffffffffffffffffff83818316178352505050506040518263ffffffff1660e01b8152600401611d089190612b5a565b6000604051808303816000875af1158015611d27573d6000803e3d6000fd5b505050506040513d6000823e3d601f19601f82011682018060405250810190611d509190613739565b806020019051810190611d639190612e12565b90506001826020019015159081151581525050866020016020810190611d8991906132fa565b826060019073ffffffffffffffffffffffffffffffffffffffff16908173ffffffffffffffffffffffffffffffffffffffff1681525050816000015115611ddf57838260a0018181525050808260c00181815250505b50505b8080611ded906133f4565b915050611c03565b5050505050565b60005b8251811015611fc3576000838281518110611e1d57611e1c6133c5565b5b602002602001015190508060200151611e365750611fb0565b8060a0015183118015611e4a575080600001515b15611f64577f000000000000000000000000000000000000000000000000000000000000000073ffffffffffffffffffffffffffffffffffffffff1663815483193073ffffffffffffffffffffffffffffffffffffffff166327a7cc9a898986604051602401611ebc9392919061365a565b604051602081830303815290604052915060e01b6020820180517bffffffffffffffffffffffffffffffffffffffffffffffffffffffff83818316178352505050506040518263ffffffff1660e01b8152600401611f1a9190612b5a565b6000604051808303816000875af1158015611f39573d6000803e3d6000fd5b505050506040513d6000823e3d601f19601f82011682018060405250810190611f629190613739565b505b60008160200190151590811515815250506000816060019073ffffffffffffffffffffffffffffffffffffffff16908173ffffffffffffffffffffffffffffffffffffffff1681525050505b8080611fbb906133f4565b915050611dff565b5050505050565b6000819050919050565b6040518061010001604052806000151581526020016000151581526020016000151581526020016000151581526020016000151581526020016000151581526020016000151581526020016000151581525090565b604051806101200160405280600015158152602001600015158152602001600073ffffffffffffffffffffffffffffffffffffffff168152602001600073ffffffffffffffffffffffffffffffffffffffff16815260200160008152602001600081526020016000815260200160008152602001600073ffffffffffffffffffffffffffffffffffffffff1681525090565b6000604051905090565b600080fd5b600080fd5b600080fd5b600060a082840312156120ea576120e96120cf565b5b81905092915050565b600060608284031215612109576121086120cf565b5b81905092915050565b600080fd5b6000601f19601f8301169050919050565b7f4e487b7100000000000000000000000000000000000000000000000000000000600052604160045260246000fd5b61216082612117565b810181811067ffffffffffffffff8211171561217f5761217e612128565b5b80604052505050565b60006121926120bb565b905061219e8282612157565b919050565b60008115159050919050565b6121b8816121a3565b81146121c357600080fd5b50565b6000813590506121d5816121af565b92915050565b600073ffffffffffffffffffffffffffffffffffffffff82169050919050565b6000612206826121db565b9050919050565b612216816121fb565b811461222157600080fd5b50565b6000813590506122338161220d565b92915050565b6000819050919050565b61224c81612239565b811461225757600080fd5b50565b60008135905061226981612243565b92915050565b612278816121fb565b811461228357600080fd5b50565b6000813590506122958161226f565b92915050565b600061012082840312156122b2576122b1612112565b5b6122bd610120612188565b905060006122cd848285016121c6565b60008301525060206122e1848285016121c6565b60208301525060406122f584828501612224565b604083015250606061230984828501612224565b606083015250608061231d8482850161225a565b60808301525060a06123318482850161225a565b60a08301525060c06123458482850161225a565b60c08301525060e06123598482850161225a565b60e08301525061010061236e84828501612286565b6101008301525092915050565b60008060006102208486031215612395576123946120c5565b5b60006123a3868287016120d4565b93505060a06123b4868287016120f3565b9250506101006123c68682870161229b565b9150509250925092565b6000606082840312156123e6576123e56120cf565b5b81905092915050565b6000819050919050565b612402816123ef565b811461240d57600080fd5b50565b60008135905061241f816123f9565b92915050565b600080fd5b600080fd5b600080fd5b60008083601f84011261244a57612449612425565b5b8235905067ffffffffffffffff8111156124675761246661242a565b5b6020830191508360018202830111156124835761248261242f565b5b9250929050565b60008060008060008061016087890312156124a8576124a76120c5565b5b60006124b689828a01612286565b96505060206124c789828a016120d4565b95505060c06124d889828a016123d0565b9450506101206124ea89828a01612410565b93505061014087013567ffffffffffffffff81111561250c5761250b6120ca565b5b61251889828a01612434565b92509250509295509295509295565b60007fffffffff0000000000000000000000000000000000000000000000000000000082169050919050565b61255c81612527565b82525050565b60006020820190506125776000830184612553565b92915050565b60008060408385031215612594576125936120c5565b5b60006125a285828601612224565b92505060206125b38582860161225a565b9150509250929050565b6125c681612239565b82525050565b60006020820190506125e160008301846125bd565b92915050565b6125f0816121db565b81146125fb57600080fd5b50565b60008135905061260d816125e7565b92915050565b600080600080600061010086880312156126305761262f6120c5565b5b600061263e88828901612286565b955050602061264f888289016120d4565b94505060c0612660888289016125fe565b93505060e086013567ffffffffffffffff811115612681576126806120ca565b5b61268d88828901612434565b92509250509295509295909350565b600080600080600061014086880312156126b9576126b86120c5565b5b60006126c788828901612286565b95505060206126d8888289016120d4565b94505060c06126e9888289016120f3565b93505061012086013567ffffffffffffffff81111561270b5761270a6120ca565b5b61271788828901612434565b92509250509295509295909350565b61272f816121a3565b82525050565b6101008201600082015161274c6000850182612726565b50602082015161275f6020850182612726565b5060408201516127726040850182612726565b5060608201516127856060850182612726565b5060808201516127986080850182612726565b5060a08201516127ab60a0850182612726565b5060c08201516127be60c0850182612726565b5060e08201516127d160e0850182612726565b50505050565b6000610100820190506127ed6000830184612735565b92915050565b60008060006060848603121561280c5761280b6120c5565b5b600061281a86828701612224565b935050602061282b8682870161225a565b925050604061283c8682870161225a565b9150509250925092565b61284f816121a3565b82525050565b6000819050919050565b600061287a612875612870846121db565b612855565b6121db565b9050919050565b600061288c8261285f565b9050919050565b600061289e82612881565b9050919050565b6128ae81612893565b82525050565b6128bd816121fb565b82525050565b6000610120820190506128d9600083018c612846565b6128e6602083018b612846565b6128f3604083018a6128a5565b61290060608301896128a5565b61290d60808301886125bd565b61291a60a08301876125bd565b61292760c08301866125bd565b61293460e08301856125bd565b6129426101008301846128b4565b9a9950505050505050505050565b600080600080610140858703121561296b5761296a6120c5565b5b600061297987828801612286565b945050602061298a878288016120d4565b93505060c061299b878288016120f3565b9250506101206129ad87828801612410565b91505092959194509250565b60008160020b9050919050565b6129cf816129b9565b81146129da57600080fd5b50565b6000813590506129ec816129c6565b92915050565b6000806000806000806101208789031215612a1057612a0f6120c5565b5b6000612a1e89828a01612286565b9650506020612a2f89828a016120d4565b95505060c0612a4089828a016125fe565b94505060e0612a5189828a016129dd565b93505061010087013567ffffffffffffffff811115612a7357612a726120ca565b5b612a7f89828a01612434565b92509250509295509295509295565b60008060208385031215612aa557612aa46120c5565b5b600083013567ffffffffffffffff811115612ac357612ac26120ca565b5b612acf85828601612434565b92509250509250929050565b600081519050919050565b600082825260208201905092915050565b60005b83811015612b15578082015181840152602081019050612afa565b60008484015250505050565b6000612b2c82612adb565b612b368185612ae6565b9350612b46818560208601612af7565b612b4f81612117565b840191505092915050565b60006020820190508181036000830152612b748184612b21565b905092915050565b6000806000806000806101608789031215612b9a57612b996120c5565b5b6000612ba889828a01612286565b9650506020612bb989828a016120d4565b95505060c0612bca89828a016120f3565b945050610120612bdc89828a01612410565b93505061014087013567ffffffffffffffff811115612bfe57612bfd6120ca565b5b612c0a89828a01612434565b92509250509295509295509295565b6000806000806000806101208789031215612c3757612c366120c5565b5b6000612c4589828a01612286565b9650506020612c5689828a016120d4565b95505060c0612c6789828a0161225a565b94505060e0612c7889828a0161225a565b93505061010087013567ffffffffffffffff811115612c9a57612c996120ca565b5b612ca689828a01612434565b92509250509295509295509295565b6000612cc082612881565b9050919050565b612cd081612cb5565b82525050565b6000602082019050612ceb6000830184612cc7565b92915050565b60008060008060808587031215612d0b57612d0a6120c5565b5b6000612d1987828801612224565b9450506020612d2a8782880161225a565b9350506040612d3b8782880161225a565b9250506060612d4c878288016121c6565b91505092959194509250565b60008060008060006101408688031215612d7557612d746120c5565b5b6000612d8388828901612286565b9550506020612d94888289016120d4565b94505060c0612da5888289016123d0565b93505061012086013567ffffffffffffffff811115612dc757612dc66120ca565b5b612dd388828901612434565b92509250509295509295909350565b6000602082019050612df760008301846128b4565b92915050565b600081519050612e0c81612243565b92915050565b600060208284031215612e2857612e276120c5565b5b6000612e3684828501612dfd565b91505092915050565b6000606082019050612e5460008301866128b4565b612e6160208301856128b4565b612e6e60408301846125bd565b949350505050565b600081519050612e85816121af565b92915050565b600060208284031215612ea157612ea06120c5565b5b6000612eaf84828501612e76565b91505092915050565b6000602082019050612ecd60008301846128a5565b92915050565b600082825260208201905092915050565b50565b6000612ef4600083612ed3565b9150612eff82612ee4565b600082019050919050565b60006020820190508181036000830152612f2381612ee7565b9050919050565b6000612f396020840184612224565b905092915050565b612f4a81612893565b82525050565b600062ffffff82169050919050565b612f6881612f50565b8114612f7357600080fd5b50565b600081359050612f8581612f5f565b92915050565b6000612f9a6020840184612f76565b905092915050565b612fab81612f50565b82525050565b6000612fc060208401846129dd565b905092915050565b612fd1816129b9565b82525050565b6000612fe2826121fb565b9050919050565b612ff281612fd7565b8114612ffd57600080fd5b50565b60008135905061300f81612fe9565b92915050565b60006130246020840184613000565b905092915050565b600061303782612881565b9050919050565b6130478161302c565b82525050565b60a0820161305e6000830183612f2a565b61306b6000850182612f41565b506130796020830183612f2a565b6130866020850182612f41565b506130946040830183612f8b565b6130a16040850182612fa2565b506130af6060830183612fb1565b6130bc6060850182612fc8565b506130ca6080830183613015565b6130d7608085018261303e565b50505050565b60006130ec60208401846121c6565b905092915050565b6130fd816123ef565b811461310857600080fd5b50565b60008135905061311a816130f4565b92915050565b600061312f602084018461310b565b905092915050565b613140816123ef565b82525050565b600061315560208401846125fe565b905092915050565b613166816121db565b82525050565b6060820161317d60008301836130dd565b61318a6000850182612726565b506131986020830183613120565b6131a56020850182613137565b506131b36040830183613146565b6131c0604085018261315d565b50505050565b6000610120820190506131dc600083018661304d565b6131e960a083018561316c565b8181036101008301526131fc8184612b21565b9050949350505050565b600081519050613215816123f9565b92915050565b600060208284031215613231576132306120c5565b5b600061323f84828501613206565b91505092915050565b6000613255600083612ae6565b915061326082612ee4565b600082019050919050565b600060a08201905061328060008301876128b4565b61328d60208301866128b4565b61329a60408301856125bd565b6132a760608301846125bd565b81810360808301526132b881613248565b905095945050505050565b60006060820190506132d860008301866128a5565b6132e560208301856128b4565b6132f260408301846125bd565b949350505050565b6000602082840312156133105761330f6120c5565b5b600061331e84828501612224565b91505092915050565b60006020828403121561333d5761333c6120c5565b5b600061334b848285016125fe565b91505092915050565b7f4e487b7100000000000000000000000000000000000000000000000000000000600052601160045260246000fd5b600061338e82612239565b915061339983612239565b92508282026133a781612239565b915082820484148315176133be576133bd613354565b5b5092915050565b7f4e487b7100000000000000000000000000000000000000000000000000000000600052603260045260246000fd5b60006133ff82612239565b91507fffffffffffffffffffffffffffffffffffffffffffffffffffffffffffffffff820361343157613430613354565b5b600182019050919050565b600081905092915050565b82818337600083830152505050565b6000613462838561343c565b935061346f838584613447565b82840190509392505050565b6000613488828486613456565b91508190509392505050565b600061349f82612239565b91506134aa83612239565b92508282039050818111156134c2576134c1613354565b5b92915050565b60006134d382612239565b9150600082036134e6576134e5613354565b5b600182039050919050565b60006134fc82612239565b915061350783612239565b925082820190508082111561351f5761351e613354565b5b92915050565b7f4e487b7100000000000000000000000000000000000000000000000000000000600052601260045260246000fd5b600061355f82612239565b915061356a83612239565b92508261357a57613579613525565b5b828204905092915050565b61358e81612239565b82525050565b61359d816121fb565b82525050565b610120820160008201516135ba6000850182612726565b5060208201516135cd6020850182612726565b5060408201516135e06040850182612f41565b5060608201516135f36060850182612f41565b5060808201516136066080850182613585565b5060a082015161361960a0850182613585565b5060c082015161362c60c0850182613585565b5060e082015161363f60e0850182613585565b50610100820151613654610100850182613594565b50505050565b600061022082019050613670600083018661304d565b61367d60a083018561316c565b61368b6101008301846135a3565b949350505050565b600080fd5b600067ffffffffffffffff8211156136b3576136b2612128565b5b6136bc82612117565b9050602081019050919050565b60006136dc6136d784613698565b612188565b9050828152602081018484840111156136f8576136f7613693565b5b613703848285612af7565b509392505050565b600082601f8301126137205761371f612425565b5b81516137308482602086016136c9565b91505092915050565b60006020828403121561374f5761374e6120c5565b5b600082015167ffffffffffffffff81111561376d5761376c6120ca565b5b6137798482850161370b565b9150509291505056fea26469706673582212207e5db461f1ab62ef5ca18bc8656107d8c3c42cc951b38759b42c0d7ece194a1264736f6c6343000815003360a06040523480156200001157600080fd5b5060405162001a3f38038062001a3f8339818101604052810190620000379190620000f0565b8073ffffffffffffffffffffffffffffffffffffffff1660808173ffffffffffffffffffffffffffffffffffffffff16815250505062000122565b600080fd5b600073ffffffffffffffffffffffffffffffffffffffff82169050919050565b6000620000a48262000077565b9050919050565b6000620000b88262000097565b9050919050565b620000ca81620000ab565b8114620000d657600080fd5b50565b600081519050620000ea81620000bf565b92915050565b60006020828403121562000109576200010862000072565b5b60006200011984828501620000d9565b91505092915050565b6080516118b6620001896000396000818160d30152818160f901528181610249015281816102b6015281816103a4015281816104920152818161051e01528181610605015281816106f30152818161077f0152818161083a01526108fb01526118b66000f3fe6080604052600436106100345760003560e01c8063481c6a751461003957806361ae449a14610064578063ab6291fe14610094575b600080fd5b34801561004557600080fd5b5061004e6100d1565b60405161005b9190610ba0565b60405180910390f35b61007e60048036038101906100799190610f35565b6100f5565b60405161008b9190610fd7565b60405180910390f35b3480156100a057600080fd5b506100bb60048036038101906100b69190611052565b610245565b6040516100c8919061111e565b60405180910390f35b7f000000000000000000000000000000000000000000000000000000000000000081565b60007f000000000000000000000000000000000000000000000000000000000000000073ffffffffffffffffffffffffffffffffffffffff16638154831960405180608001604052803373ffffffffffffffffffffffffffffffffffffffff1681526020018781526020018681526020018581525060405160200161017a9190611317565b6040516020818303038152906040526040518263ffffffff1660e01b81526004016101a5919061111e565b6000604051808303816000875af11580156101c4573d6000803e3d6000fd5b505050506040513d6000823e3d601f19601f820116820180604052508101906101ed91906113a9565b806020019051810190610200919061141e565b90506000479050600081111561023d5761023c3382600073ffffffffffffffffffffffffffffffffffffffff166109d09092919063ffffffff16565b5b509392505050565b60607f000000000000000000000000000000000000000000000000000000000000000073ffffffffffffffffffffffffffffffffffffffff163373ffffffffffffffffffffffffffffffffffffffff161461029f57600080fd5b600083838101906102b0919061150d565b905060007f000000000000000000000000000000000000000000000000000000000000000073ffffffffffffffffffffffffffffffffffffffff166361ae449a8360200151846040015185606001516040518463ffffffff1660e01b815260040161031d93929190611600565b6020604051808303816000875af115801561033c573d6000803e3d6000fd5b505050506040513d601f19601f82011682018060405250810190610360919061141e565b9050600061036d82610ad2565b600f0b13156105c35761039d82602001516000015173ffffffffffffffffffffffffffffffffffffffff16610adf565b15610467577f000000000000000000000000000000000000000000000000000000000000000073ffffffffffffffffffffffffffffffffffffffff16636a256b296103e783610ad2565b6fffffffffffffffffffffffffffffffff168460200151600001516040518363ffffffff1660e01b815260040161041e919061164f565b60206040518083038185885af115801561043c573d6000803e3d6000fd5b50505050506040513d601f19601f8201168201806040525081019061046191906116a0565b506105c2565b81602001516000015173ffffffffffffffffffffffffffffffffffffffff166323b872dd83600001517f00000000000000000000000000000000000000000000000000000000000000006104ba85610ad2565b6040518463ffffffff1660e01b81526004016104d893929190611729565b6020604051808303816000875af11580156104f7573d6000803e3d6000fd5b505050506040513d601f19601f8201168201806040525081019061051b9190611798565b507f000000000000000000000000000000000000000000000000000000000000000073ffffffffffffffffffffffffffffffffffffffff16636a256b298360200151600001516040518263ffffffff1660e01b815260040161057d919061164f565b6020604051808303816000875af115801561059c573d6000803e3d6000fd5b505050506040513d601f19601f820116820180604052508101906105c091906116a0565b505b5b60006105ce82610b17565b600f0b1315610824576105fe82602001516020015173ffffffffffffffffffffffffffffffffffffffff16610adf565b156106c8577f000000000000000000000000000000000000000000000000000000000000000073ffffffffffffffffffffffffffffffffffffffff16636a256b2961064883610b17565b6fffffffffffffffffffffffffffffffff168460200151602001516040518363ffffffff1660e01b815260040161067f919061164f565b60206040518083038185885af115801561069d573d6000803e3d6000fd5b50505050506040513d601f19601f820116820180604052508101906106c291906116a0565b50610823565b81602001516020015173ffffffffffffffffffffffffffffffffffffffff166323b872dd83600001517f000000000000000000000000000000000000000000000000000000000000000061071b85610b17565b6040518463ffffffff1660e01b815260040161073993929190611729565b6020604051808303816000875af1158015610758573d6000803e3d6000fd5b505050506040513d601f19601f8201168201806040525081019061077c9190611798565b507f000000000000000000000000000000000000000000000000000000000000000073ffffffffffffffffffffffffffffffffffffffff16636a256b298360200151602001516040518263ffffffff1660e01b81526004016107de919061164f565b6020604051808303816000875af11580156107fd573d6000803e3d6000fd5b505050506040513d601f19601f8201168201806040525081019061082191906116a0565b505b5b600061082f82610ad2565b600f0b12156108e5577f000000000000000000000000000000000000000000000000000000000000000073ffffffffffffffffffffffffffffffffffffffff16630b0d9c09836020015160000151846000015161088b85610ad2565b61089490611801565b6040518463ffffffff1660e01b81526004016108b293929190611849565b600060405180830381600087803b1580156108cc57600080fd5b505af11580156108e0573d6000803e3d6000fd5b505050505b60006108f082610b17565b600f0b12156109a6577f000000000000000000000000000000000000000000000000000000000000000073ffffffffffffffffffffffffffffffffffffffff16630b0d9c09836020015160200151846000015161094c85610b17565b61095590611801565b6040518463ffffffff1660e01b815260040161097393929190611849565b600060405180830381600087803b15801561098d57600080fd5b505af11580156109a1573d6000803e3d6000fd5b505050505b806040516020016109b79190610fd7565b6040516020818303038152906040529250505092915050565b60006109f18473ffffffffffffffffffffffffffffffffffffffff16610adf565b15610a3e5760008060008085875af1905080610a39576040517ff4b3b1bc00000000000000000000000000000000000000000000000000000000815260040160405180910390fd5b610acc565b6040517fa9059cbb000000000000000000000000000000000000000000000000000000006000528360045282602452602060006044600080895af13d15601f3d1160016000511416171691506000606052806040525080610acb576040517ff27f64e400000000000000000000000000000000000000000000000000000000815260040160405180910390fd5b5b50505050565b60008160801c9050919050565b60008073ffffffffffffffffffffffffffffffffffffffff168273ffffffffffffffffffffffffffffffffffffffff16149050919050565b6000819050919050565b600073ffffffffffffffffffffffffffffffffffffffff82169050919050565b6000819050919050565b6000610b66610b61610b5c84610b21565b610b41565b610b21565b9050919050565b6000610b7882610b4b565b9050919050565b6000610b8a82610b6d565b9050919050565b610b9a81610b7f565b82525050565b6000602082019050610bb56000830184610b91565b92915050565b6000604051905090565b600080fd5b600080fd5b600080fd5b6000601f19601f8301169050919050565b7f4e487b7100000000000000000000000000000000000000000000000000000000600052604160045260246000fd5b610c1d82610bd4565b810181811067ffffffffffffffff82111715610c3c57610c3b610be5565b5b80604052505050565b6000610c4f610bbb565b9050610c5b8282610c14565b919050565b600080fd5b6000610c7082610b21565b9050919050565b610c8081610c65565b8114610c8b57600080fd5b50565b600081359050610c9d81610c77565b92915050565b600062ffffff82169050919050565b610cbb81610ca3565b8114610cc657600080fd5b50565b600081359050610cd881610cb2565b92915050565b60008160020b9050919050565b610cf481610cde565b8114610cff57600080fd5b50565b600081359050610d1181610ceb565b92915050565b6000610d2282610c65565b9050919050565b610d3281610d17565b8114610d3d57600080fd5b50565b600081359050610d4f81610d29565b92915050565b600060a08284031215610d6b57610d6a610bcf565b5b610d7560a0610c45565b90506000610d8584828501610c8e565b6000830152506020610d9984828501610c8e565b6020830152506040610dad84828501610cc9565b6040830152506060610dc184828501610d02565b6060830152506080610dd584828501610d40565b60808301525092915050565b6000819050919050565b610df481610de1565b8114610dff57600080fd5b50565b600081359050610e1181610deb565b92915050565b600060608284031215610e2d57610e2c610bcf565b5b610e376060610c45565b90506000610e4784828501610d02565b6000830152506020610e5b84828501610d02565b6020830152506040610e6f84828501610e02565b60408301525092915050565b600080fd5b600080fd5b600067ffffffffffffffff821115610ea057610e9f610be5565b5b610ea982610bd4565b9050602081019050919050565b82818337600083830152505050565b6000610ed8610ed384610e85565b610c45565b905082815260208101848484011115610ef457610ef3610e80565b5b610eff848285610eb6565b509392505050565b600082601f830112610f1c57610f1b610e7b565b5b8135610f2c848260208601610ec5565b91505092915050565b60008060006101208486031215610f4f57610f4e610bc5565b5b6000610f5d86828701610d55565b93505060a0610f6e86828701610e17565b92505061010084013567ffffffffffffffff811115610f9057610f8f610bca565b5b610f9c86828701610f07565b9150509250925092565b6000610fc1610fbc610fb784610de1565b610b41565b610de1565b9050919050565b610fd181610fa6565b82525050565b6000602082019050610fec6000830184610fc8565b92915050565b600080fd5b600080fd5b60008083601f84011261101257611011610e7b565b5b8235905067ffffffffffffffff81111561102f5761102e610ff2565b5b60208301915083600182028301111561104b5761104a610ff7565b5b9250929050565b6000806020838503121561106957611068610bc5565b5b600083013567ffffffffffffffff81111561108757611086610bca565b5b61109385828601610ffc565b92509250509250929050565b600081519050919050565b600082825260208201905092915050565b60005b838110156110d95780820151818401526020810190506110be565b60008484015250505050565b60006110f08261109f565b6110fa81856110aa565b935061110a8185602086016110bb565b61111381610bd4565b840191505092915050565b6000602082019050818103600083015261113881846110e5565b905092915050565b61114981610c65565b82525050565b600061115a82610b6d565b9050919050565b61116a8161114f565b82525050565b61117981610ca3565b82525050565b61118881610cde565b82525050565b600061119982610b6d565b9050919050565b6111a98161118e565b82525050565b60a0820160008201516111c56000850182611161565b5060208201516111d86020850182611161565b5060408201516111eb6040850182611170565b5060608201516111fe606085018261117f565b50608082015161121160808501826111a0565b50505050565b61122081610de1565b82525050565b60608201600082015161123c600085018261117f565b50602082015161124f602085018261117f565b5060408201516112626040850182611217565b50505050565b600082825260208201905092915050565b60006112848261109f565b61128e8185611268565b935061129e8185602086016110bb565b6112a781610bd4565b840191505092915050565b6000610140830160008301516112cb6000860182611140565b5060208301516112de60208601826111af565b5060408301516112f160c0860182611226565b50606083015184820361012086015261130a8282611279565b9150508091505092915050565b6000602082019050818103600083015261133181846112b2565b905092915050565b600061134c61134784610e85565b610c45565b90508281526020810184848401111561136857611367610e80565b5b6113738482856110bb565b509392505050565b600082601f8301126113905761138f610e7b565b5b81516113a0848260208601611339565b91505092915050565b6000602082840312156113bf576113be610bc5565b5b600082015167ffffffffffffffff8111156113dd576113dc610bca565b5b6113e98482850161137b565b91505092915050565b6113fb81610de1565b811461140657600080fd5b50565b600081519050611418816113f2565b92915050565b60006020828403121561143457611433610bc5565b5b600061144284828501611409565b91505092915050565b61145481610c65565b811461145f57600080fd5b50565b6000813590506114718161144b565b92915050565b6000610140828403121561148e5761148d610bcf565b5b6114986080610c45565b905060006114a884828501611462565b60008301525060206114bc84828501610d55565b60208301525060c06114d084828501610e17565b60408301525061012082013567ffffffffffffffff8111156114f5576114f4610c60565b5b61150184828501610f07565b60608301525092915050565b60006020828403121561152357611522610bc5565b5b600082013567ffffffffffffffff81111561154157611540610bca565b5b61154d84828501611477565b91505092915050565b60a08201600082015161156c6000850182611161565b50602082015161157f6020850182611161565b5060408201516115926040850182611170565b5060608201516115a5606085018261117f565b5060808201516115b860808501826111a0565b50505050565b6060820160008201516115d4600085018261117f565b5060208201516115e7602085018261117f565b5060408201516115fa6040850182611217565b50505050565b6000610120820190506116166000830186611556565b61162360a08301856115be565b81810361010083015261163681846110e5565b9050949350505050565b6116498161114f565b82525050565b60006020820190506116646000830184611640565b92915050565b6000819050919050565b61167d8161166a565b811461168857600080fd5b50565b60008151905061169a81611674565b92915050565b6000602082840312156116b6576116b5610bc5565b5b60006116c48482850161168b565b91505092915050565b6116d681610c65565b82525050565b60006fffffffffffffffffffffffffffffffff82169050919050565b600061171361170e611709846116dc565b610b41565b61166a565b9050919050565b611723816116f8565b82525050565b600060608201905061173e60008301866116cd565b61174b60208301856116cd565b611758604083018461171a565b949350505050565b60008115159050919050565b61177581611760565b811461178057600080fd5b50565b6000815190506117928161176c565b92915050565b6000602082840312156117ae576117ad610bc5565b5b60006117bc84828501611783565b91505092915050565b600081600f0b9050919050565b7f4e487b7100000000000000000000000000000000000000000000000000000000600052601160045260246000fd5b600061180c826117c5565b91507fffffffffffffffffffffffffffffffff80000000000000000000000000000000820361183e5761183d6117d2565b5b816000039050919050565b600060608201905061185e6000830186611640565b61186b60208301856116cd565b611878604083018461171a565b94935050505056fea26469706673582212204fef2a29fbe2af0a70bdb386e4bf3b0eb9155b108748637e1109fc604fa034dd64736f6c6343000815003360a06040523480156200001157600080fd5b5060405162001f8c38038062001f8c8339818101604052810190620000379190620000f0565b8073ffffffffffffffffffffffffffffffffffffffff1660808173ffffffffffffffffffffffffffffffffffffffff16815250505062000122565b600080fd5b600073ffffffffffffffffffffffffffffffffffffffff82169050919050565b6000620000a48262000077565b9050919050565b6000620000b88262000097565b9050919050565b620000ca81620000ab565b8114620000d657600080fd5b50565b600081519050620000ea81620000bf565b92915050565b60006020828403121562000109576200010862000072565b5b60006200011984828501620000d9565b91505092915050565b608051611dd8620001b46000396000818160d50152818161022a01528181610250015281816102bd015281816103c7015281816104b501528181610541015281816105ec0152818161062d015281816106eb0152818161079c0152818161089d0152818161098b01528181610a1701528181610ac201528181610b0301528181610bc10152610c720152611dd86000f3fe6080604052600436106100345760003560e01c80632229d0b414610039578063481c6a7514610069578063ab6291fe14610094575b600080fd5b610053600480360381019061004e91906112e8565b6100d1565b60405161006091906113a9565b60405180910390f35b34801561007557600080fd5b5061007e610228565b60405161008b9190611419565b60405180910390f35b3480156100a057600080fd5b506100bb60048036038101906100b69190611494565b61024c565b6040516100c89190611560565b60405180910390f35b60007f000000000000000000000000000000000000000000000000000000000000000073ffffffffffffffffffffffffffffffffffffffff1663815483196040518060a001604052803373ffffffffffffffffffffffffffffffffffffffff1681526020018681526020018881526020018781526020018581525060405160200161015c91906117ba565b6040516020818303038152906040526040518263ffffffff1660e01b81526004016101879190611560565b6000604051808303816000875af11580156101a6573d6000803e3d6000fd5b505050506040513d6000823e3d601f19601f820116820180604052508101906101cf919061184c565b8060200190518101906101e291906118c1565b90506000479050600081111561021f5761021e3382600073ffffffffffffffffffffffffffffffffffffffff16610d499092919063ffffffff16565b5b50949350505050565b7f000000000000000000000000000000000000000000000000000000000000000081565b60607f000000000000000000000000000000000000000000000000000000000000000073ffffffffffffffffffffffffffffffffffffffff163373ffffffffffffffffffffffffffffffffffffffff16146102a657600080fd5b600083838101906102b791906119c5565b905060007f000000000000000000000000000000000000000000000000000000000000000073ffffffffffffffffffffffffffffffffffffffff1663f3cd914c8360400151846060015185608001516040518463ffffffff1660e01b815260040161032493929190611ab8565b6020604051808303816000875af1158015610343573d6000803e3d6000fd5b505050506040513d601f19601f8201168201806040525081019061036791906118c1565b90508160600151600001511561084d57600061038282610e4b565b600f0b13156106c757816020015160200151156105ea576103c082604001516000015173ffffffffffffffffffffffffffffffffffffffff16610e58565b1561048a577f000000000000000000000000000000000000000000000000000000000000000073ffffffffffffffffffffffffffffffffffffffff16636a256b2961040a83610e4b565b6fffffffffffffffffffffffffffffffff168460400151600001516040518363ffffffff1660e01b81526004016104419190611b07565b60206040518083038185885af115801561045f573d6000803e3d6000fd5b50505050506040513d601f19601f820116820180604052508101906104849190611b58565b506105e5565b81604001516000015173ffffffffffffffffffffffffffffffffffffffff166323b872dd83600001517f00000000000000000000000000000000000000000000000000000000000000006104dd85610e4b565b6040518463ffffffff1660e01b81526004016104fb93929190611be1565b6020604051808303816000875af115801561051a573d6000803e3d6000fd5b505050506040513d601f19601f8201168201806040525081019061053e9190611c2d565b507f000000000000000000000000000000000000000000000000000000000000000073ffffffffffffffffffffffffffffffffffffffff16636a256b298360400151600001516040518263ffffffff1660e01b81526004016105a09190611b07565b6020604051808303816000875af11580156105bf573d6000803e3d6000fd5b505050506040513d601f19601f820116820180604052508101906105e39190611b58565b505b6106c6565b7f000000000000000000000000000000000000000000000000000000000000000073ffffffffffffffffffffffffffffffffffffffff1663f242432a83600001517f000000000000000000000000000000000000000000000000000000000000000085604001516000015173ffffffffffffffffffffffffffffffffffffffff1661067486610e4b565b6040518563ffffffff1660e01b81526004016106939493929190611c8f565b600060405180830381600087803b1580156106ad57600080fd5b505af11580156106c1573d6000803e3d6000fd5b505050505b5b60006106d282610e90565b600f0b1215610848578160200151600001511561079a577f000000000000000000000000000000000000000000000000000000000000000073ffffffffffffffffffffffffffffffffffffffff16630b0d9c09836040015160200151846000015161073c85610e90565b61074590611d23565b6040518463ffffffff1660e01b815260040161076393929190611d6b565b600060405180830381600087803b15801561077d57600080fd5b505af1158015610791573d6000803e3d6000fd5b50505050610847565b7f000000000000000000000000000000000000000000000000000000000000000073ffffffffffffffffffffffffffffffffffffffff1663c6c3bbe683604001516020015184600001516107ed85610e90565b6107f690611d23565b6040518463ffffffff1660e01b815260040161081493929190611d6b565b600060405180830381600087803b15801561082e57600080fd5b505af1158015610842573d6000803e3d6000fd5b505050505b5b610d1f565b600061085882610e90565b600f0b1315610b9d5781602001516020015115610ac05761089682604001516020015173ffffffffffffffffffffffffffffffffffffffff16610e58565b15610960577f000000000000000000000000000000000000000000000000000000000000000073ffffffffffffffffffffffffffffffffffffffff16636a256b296108e083610e90565b6fffffffffffffffffffffffffffffffff168460400151602001516040518363ffffffff1660e01b81526004016109179190611b07565b60206040518083038185885af1158015610935573d6000803e3d6000fd5b50505050506040513d601f19601f8201168201806040525081019061095a9190611b58565b50610abb565b81604001516020015173ffffffffffffffffffffffffffffffffffffffff166323b872dd83600001517f00000000000000000000000000000000000000000000000000000000000000006109b385610e90565b6040518463ffffffff1660e01b81526004016109d193929190611be1565b6020604051808303816000875af11580156109f0573d6000803e3d6000fd5b505050506040513d601f19601f82011682018060405250810190610a149190611c2d565b507f000000000000000000000000000000000000000000000000000000000000000073ffffffffffffffffffffffffffffffffffffffff16636a256b298360400151602001516040518263ffffffff1660e01b8152600401610a769190611b07565b6020604051808303816000875af1158015610a95573d6000803e3d6000fd5b505050506040513d601f19601f82011682018060405250810190610ab99190611b58565b505b610b9c565b7f000000000000000000000000000000000000000000000000000000000000000073ffffffffffffffffffffffffffffffffffffffff1663f242432a83600001517f000000000000000000000000000000000000000000000000000000000000000085604001516020015173ffffffffffffffffffffffffffffffffffffffff16610b4a86610e90565b6040518563ffffffff1660e01b8152600401610b699493929190611c8f565b600060405180830381600087803b158015610b8357600080fd5b505af1158015610b97573d6000803e3d6000fd5b505050505b5b6000610ba882610e4b565b600f0b1215610d1e5781602001516000015115610c70577f000000000000000000000000000000000000000000000000000000000000000073ffffffffffffffffffffffffffffffffffffffff16630b0d9c098360400151600001518460000151610c1285610e4b565b610c1b90611d23565b6040518463ffffffff1660e01b8152600401610c3993929190611d6b565b600060405180830381600087803b158015610c5357600080fd5b505af1158015610c67573d6000803e3d6000fd5b50505050610d1d565b7f000000000000000000000000000000000000000000000000000000000000000073ffffffffffffffffffffffffffffffffffffffff1663c6c3bbe68360400151600001518460000151610cc385610e4b565b610ccc90611d23565b6040518463ffffffff1660e01b8152600401610cea93929190611d6b565b600060405180830381600087803b158015610d0457600080fd5b505af1158015610d18573d6000803e3d6000fd5b505050505b5b5b80604051602001610d3091906113a9565b6040516020818303038152906040529250505092915050565b6000610d6a8473ffffffffffffffffffffffffffffffffffffffff16610e58565b15610db75760008060008085875af1905080610db2576040517ff4b3b1bc00000000000000000000000000000000000000000000000000000000815260040160405180910390fd5b610e45565b6040517fa9059cbb000000000000000000000000000000000000000000000000000000006000528360045282602452602060006044600080895af13d15601f3d1160016000511416171691506000606052806040525080610e44576040517ff27f64e400000000000000000000000000000000000000000000000000000000815260040160405180910390fd5b5b50505050565b60008160801c9050919050565b60008073ffffffffffffffffffffffffffffffffffffffff168273ffffffffffffffffffffffffffffffffffffffff16149050919050565b6000819050919050565b6000604051905090565b600080fd5b600080fd5b600080fd5b6000601f19601f8301169050919050565b7f4e487b7100000000000000000000000000000000000000000000000000000000600052604160045260246000fd5b610efc82610eb3565b810181811067ffffffffffffffff82111715610f1b57610f1a610ec4565b5b80604052505050565b6000610f2e610e9a565b9050610f3a8282610ef3565b919050565b600080fd5b600073ffffffffffffffffffffffffffffffffffffffff82169050919050565b6000610f6f82610f44565b9050919050565b610f7f81610f64565b8114610f8a57600080fd5b50565b600081359050610f9c81610f76565b92915050565b600062ffffff82169050919050565b610fba81610fa2565b8114610fc557600080fd5b50565b600081359050610fd781610fb1565b92915050565b60008160020b9050919050565b610ff381610fdd565b8114610ffe57600080fd5b50565b60008135905061101081610fea565b92915050565b600061102182610f64565b9050919050565b61103181611016565b811461103c57600080fd5b50565b60008135905061104e81611028565b92915050565b600060a0828403121561106a57611069610eae565b5b61107460a0610f24565b9050600061108484828501610f8d565b600083015250602061109884828501610f8d565b60208301525060406110ac84828501610fc8565b60408301525060606110c084828501611001565b60608301525060806110d48482850161103f565b60808301525092915050565b60008115159050919050565b6110f5816110e0565b811461110057600080fd5b50565b600081359050611112816110ec565b92915050565b6000819050919050565b61112b81611118565b811461113657600080fd5b50565b60008135905061114881611122565b92915050565b61115781610f44565b811461116257600080fd5b50565b6000813590506111748161114e565b92915050565b6000606082840312156111905761118f610eae565b5b61119a6060610f24565b905060006111aa84828501611103565b60008301525060206111be84828501611139565b60208301525060406111d284828501611165565b60408301525092915050565b6000604082840312156111f4576111f3610eae565b5b6111fe6040610f24565b9050600061120e84828501611103565b600083015250602061122284828501611103565b60208301525092915050565b600080fd5b600080fd5b600067ffffffffffffffff82111561125357611252610ec4565b5b61125c82610eb3565b9050602081019050919050565b82818337600083830152505050565b600061128b61128684611238565b610f24565b9050828152602081018484840111156112a7576112a6611233565b5b6112b2848285611269565b509392505050565b600082601f8301126112cf576112ce61122e565b5b81356112df848260208601611278565b91505092915050565b600080600080610160858703121561130357611302610ea4565b5b600061131187828801611054565b94505060a06113228782880161117a565b935050610100611334878288016111de565b92505061014085013567ffffffffffffffff81111561135657611355610ea9565b5b611362878288016112ba565b91505092959194509250565b6000819050919050565b600061139361138e61138984611118565b61136e565b611118565b9050919050565b6113a381611378565b82525050565b60006020820190506113be600083018461139a565b92915050565b60006113df6113da6113d584610f44565b61136e565b610f44565b9050919050565b60006113f1826113c4565b9050919050565b6000611403826113e6565b9050919050565b611413816113f8565b82525050565b600060208201905061142e600083018461140a565b92915050565b600080fd5b600080fd5b60008083601f8401126114545761145361122e565b5b8235905067ffffffffffffffff81111561147157611470611434565b5b60208301915083600182028301111561148d5761148c611439565b5b9250929050565b600080602083850312156114ab576114aa610ea4565b5b600083013567ffffffffffffffff8111156114c9576114c8610ea9565b5b6114d58582860161143e565b92509250509250929050565b600081519050919050565b600082825260208201905092915050565b60005b8381101561151b578082015181840152602081019050611500565b60008484015250505050565b6000611532826114e1565b61153c81856114ec565b935061154c8185602086016114fd565b61155581610eb3565b840191505092915050565b6000602082019050818103600083015261157a8184611527565b905092915050565b61158b81610f64565b82525050565b61159a816110e0565b82525050565b6040820160008201516115b66000850182611591565b5060208201516115c96020850182611591565b50505050565b60006115da826113e6565b9050919050565b6115ea816115cf565b82525050565b6115f981610fa2565b82525050565b61160881610fdd565b82525050565b6000611619826113e6565b9050919050565b6116298161160e565b82525050565b60a08201600082015161164560008501826115e1565b50602082015161165860208501826115e1565b50604082015161166b60408501826115f0565b50606082015161167e60608501826115ff565b5060808201516116916080850182611620565b50505050565b6116a081611118565b82525050565b6116af81610f44565b82525050565b6060820160008201516116cb6000850182611591565b5060208201516116de6020850182611697565b5060408201516116f160408501826116a6565b50505050565b600082825260208201905092915050565b6000611713826114e1565b61171d81856116f7565b935061172d8185602086016114fd565b61173681610eb3565b840191505092915050565b60006101808301600083015161175a6000860182611582565b50602083015161176d60208601826115a0565b506040830151611780606086018261162f565b5060608301516117946101008601826116b5565b5060808301518482036101608601526117ad8282611708565b9150508091505092915050565b600060208201905081810360008301526117d48184611741565b905092915050565b60006117ef6117ea84611238565b610f24565b90508281526020810184848401111561180b5761180a611233565b5b6118168482856114fd565b509392505050565b600082601f8301126118335761183261122e565b5b81516118438482602086016117dc565b91505092915050565b60006020828403121561186257611861610ea4565b5b600082015167ffffffffffffffff8111156118805761187f610ea9565b5b61188c8482850161181e565b91505092915050565b61189e81611118565b81146118a957600080fd5b50565b6000815190506118bb81611895565b92915050565b6000602082840312156118d7576118d6610ea4565b5b60006118e5848285016118ac565b91505092915050565b6118f781610f64565b811461190257600080fd5b50565b600081359050611914816118ee565b92915050565b6000610180828403121561193157611930610eae565b5b61193b60a0610f24565b9050600061194b84828501611905565b600083015250602061195f848285016111de565b602083015250606061197384828501611054565b6040830152506101006119888482850161117a565b60608301525061016082013567ffffffffffffffff8111156119ad576119ac610f3f565b5b6119b9848285016112ba565b60808301525092915050565b6000602082840312156119db576119da610ea4565b5b600082013567ffffffffffffffff8111156119f9576119f8610ea9565b5b611a058482850161191a565b91505092915050565b60a082016000820151611a2460008501826115e1565b506020820151611a3760208501826115e1565b506040820151611a4a60408501826115f0565b506060820151611a5d60608501826115ff565b506080820151611a706080850182611620565b50505050565b606082016000820151611a8c6000850182611591565b506020820151611a9f6020850182611697565b506040820151611ab260408501826116a6565b50505050565b600061012082019050611ace6000830186611a0e565b611adb60a0830185611a76565b818103610100830152611aee8184611527565b9050949350505050565b611b01816115cf565b82525050565b6000602082019050611b1c6000830184611af8565b92915050565b6000819050919050565b611b3581611b22565b8114611b4057600080fd5b50565b600081519050611b5281611b2c565b92915050565b600060208284031215611b6e57611b6d610ea4565b5b6000611b7c84828501611b43565b91505092915050565b611b8e81610f64565b82525050565b60006fffffffffffffffffffffffffffffffff82169050919050565b6000611bcb611bc6611bc184611b94565b61136e565b611b22565b9050919050565b611bdb81611bb0565b82525050565b6000606082019050611bf66000830186611b85565b611c036020830185611b85565b611c106040830184611bd2565b949350505050565b600081519050611c27816110ec565b92915050565b600060208284031215611c4357611c42610ea4565b5b6000611c5184828501611c18565b91505092915050565b611c6381611b22565b82525050565b50565b6000611c796000836114ec565b9150611c8482611c69565b600082019050919050565b600060a082019050611ca46000830187611b85565b611cb16020830186611b85565b611cbe6040830185611c5a565b611ccb6060830184611bd2565b8181036080830152611cdc81611c6c565b905095945050505050565b600081600f0b9050919050565b7f4e487b7100000000000000000000000000000000000000000000000000000000600052601160045260246000fd5b6000611d2e82611ce7565b91507fffffffffffffffffffffffffffffffff800000000000000000000000000000008203611d6057611d5f611cf4565b5b816000039050919050565b6000606082019050611d806000830186611af8565b611d8d6020830185611b85565b611d9a6040830184611bd2565b94935050505056fea26469706673582212200ef6927d69207870b231186081e99973ce64a370df5d1e9284d593b948d94b5464736f6c63430008150033a2646970667358221220d55f63d576bf457341e8214fc1f87f4807f05e4f6d3f6a5f7f0942862e808b6c64736f6c63430008150033",
  "linkReferences": {
    "test/HEDGE/Remix/utils/HookMiner.sol": {
      "HookMiner": [
        {
          "length": 20,
          "start": 1121
        }
      ]
    }
  },
  "deployedLinkReferences": {
    "test/HEDGE/Remix/utils/HookMiner.sol": {
      "HookMiner": [
        {
          "length": 20,
          "start": 822
        }
      ]
    }
  }
}