{
  "_format": "hh-sol-artifact-1",
  "contractName": "VolatilityOracle",
  "sourceName": "src/VOLATILITY_ORACLE/VolatilityOracle.sol",
  "abi": [
    {
      "inputs": [
        {
          "internalType": "contract IPoolManager",
          "name": "_poolManager",
          "type": "address"
        }
      ],
      "stateMutability": "nonpayable",
      "type": "constructor"
    },
    {
      "inputs": [
        {
          "internalType": "address",
          "name": "hooks",
          "type": "address"
        }
      ],
      "name": "HookAddressNotValid",
      "type": "error"
    },
    {
      "inputs": [],
      "name": "HookNotImplemented",
      "type": "error"
    },
    {
      "inputs": [],
      "name": "InvalidPool",
      "type": "error"
    },
    {
      "inputs": [],
      "name": "LockFailure",
      "type": "error"
    },
    {
      "inputs": [],
      "name": "MustUseDynamicFee",
      "type": "error"
    },
    {
      "inputs": [],
      "name": "NotPoolManager",
      "type": "error"
    },
    {
      "inputs": [],
      "name": "NotSelf",
      "type": "error"
    },
    {
      "inputs": [
        {
          "internalType": "address",
          "name": "",
          "type": "address"
        },
        {
          "components": [
            {
              "internalType": "Currency",
              "name": "currency0",
              "type": "address"
            },
            {
              "internalType": "Currency",
              "name": "currency1",
              "type": "address"
            },
            {
              "internalType": "uint24",
              "name": "fee",
              "type": "uint24"
            },
            {
              "internalType": "int24",
              "name": "tickSpacing",
              "type": "int24"
            },
            {
              "internalType": "contract IHooks",
              "name": "hooks",
              "type": "address"
            }
          ],
          "internalType": "struct PoolKey",
          "name": "",
          "type": "tuple"
        },
        {
          "internalType": "uint256",
          "name": "",
          "type": "uint256"
        },
        {
          "internalType": "uint256",
          "name": "",
          "type": "uint256"
        },
        {
          "internalType": "bytes",
          "name": "",
          "type": "bytes"
        }
      ],
      "name": "afterDonate",
      "outputs": [
        {
          "internalType": "bytes4",
          "name": "",
          "type": "bytes4"
        }
      ],
      "stateMutability": "nonpayable",
      "type": "function"
    },
    {
      "inputs": [
        {
          "internalType": "address",
          "name": "",
          "type": "address"
        },
        {
          "components": [
            {
              "internalType": "Currency",
              "name": "currency0",
              "type": "address"
            },
            {
              "internalType": "Currency",
              "name": "currency1",
              "type": "address"
            },
            {
              "internalType": "uint24",
              "name": "fee",
              "type": "uint24"
            },
            {
              "internalType": "int24",
              "name": "tickSpacing",
              "type": "int24"
            },
            {
              "internalType": "contract IHooks",
              "name": "hooks",
              "type": "address"
            }
          ],
          "internalType": "struct PoolKey",
          "name": "",
          "type": "tuple"
        },
        {
          "internalType": "uint160",
          "name": "",
          "type": "uint160"
        },
        {
          "internalType": "int24",
          "name": "",
          "type": "int24"
        },
        {
          "internalType": "bytes",
          "name": "",
          "type": "bytes"
        }
      ],
      "name": "afterInitialize",
      "outputs": [
        {
          "internalType": "bytes4",
          "name": "",
          "type": "bytes4"
        }
      ],
      "stateMutability": "nonpayable",
      "type": "function"
    },
    {
      "inputs": [
        {
          "internalType": "address",
          "name": "",
          "type": "address"
        },
        {
          "components": [
            {
              "internalType": "Currency",
              "name": "currency0",
              "type": "address"
            },
            {
              "internalType": "Currency",
              "name": "currency1",
              "type": "address"
            },
            {
              "internalType": "uint24",
              "name": "fee",
              "type": "uint24"
            },
            {
              "internalType": "int24",
              "name": "tickSpacing",
              "type": "int24"
            },
            {
              "internalType": "contract IHooks",
              "name": "hooks",
              "type": "address"
            }
          ],
          "internalType": "struct PoolKey",
          "name": "",
          "type": "tuple"
        },
        {
          "components": [
            {
              "internalType": "int24",
              "name": "tickLower",
              "type": "int24"
            },
            {
              "internalType": "int24",
              "name": "tickUpper",
              "type": "int24"
            },
            {
              "internalType": "int256",
              "name": "liquidityDelta",
              "type": "int256"
            }
          ],
          "internalType": "struct IPoolManager.ModifyPositionParams",
          "name": "",
          "type": "tuple"
        },
        {
          "internalType": "BalanceDelta",
          "name": "",
          "type": "int256"
        },
        {
          "internalType": "bytes",
          "name": "",
          "type": "bytes"
        }
      ],
      "name": "afterModifyPosition",
      "outputs": [
        {
          "internalType": "bytes4",
          "name": "",
          "type": "bytes4"
        }
      ],
      "stateMutability": "nonpayable",
      "type": "function"
    },
    {
      "inputs": [
        {
          "internalType": "address",
          "name": "",
          "type": "address"
        },
        {
          "components": [
            {
              "internalType": "Currency",
              "name": "currency0",
              "type": "address"
            },
            {
              "internalType": "Currency",
              "name": "currency1",
              "type": "address"
            },
            {
              "internalType": "uint24",
              "name": "fee",
              "type": "uint24"
            },
            {
              "internalType": "int24",
              "name": "tickSpacing",
              "type": "int24"
            },
            {
              "internalType": "contract IHooks",
              "name": "hooks",
              "type": "address"
            }
          ],
          "internalType": "struct PoolKey",
          "name": "",
          "type": "tuple"
        },
        {
          "components": [
            {
              "internalType": "bool",
              "name": "zeroForOne",
              "type": "bool"
            },
            {
              "internalType": "int256",
              "name": "amountSpecified",
              "type": "int256"
            },
            {
              "internalType": "uint160",
              "name": "sqrtPriceLimitX96",
              "type": "uint160"
            }
          ],
          "internalType": "struct IPoolManager.SwapParams",
          "name": "",
          "type": "tuple"
        },
        {
          "internalType": "BalanceDelta",
          "name": "",
          "type": "int256"
        },
        {
          "internalType": "bytes",
          "name": "",
          "type": "bytes"
        }
      ],
      "name": "afterSwap",
      "outputs": [
        {
          "internalType": "bytes4",
          "name": "",
          "type": "bytes4"
        }
      ],
      "stateMutability": "nonpayable",
      "type": "function"
    },
    {
      "inputs": [
        {
          "internalType": "address",
          "name": "",
          "type": "address"
        },
        {
          "components": [
            {
              "internalType": "Currency",
              "name": "currency0",
              "type": "address"
            },
            {
              "internalType": "Currency",
              "name": "currency1",
              "type": "address"
            },
            {
              "internalType": "uint24",
              "name": "fee",
              "type": "uint24"
            },
            {
              "internalType": "int24",
              "name": "tickSpacing",
              "type": "int24"
            },
            {
              "internalType": "contract IHooks",
              "name": "hooks",
              "type": "address"
            }
          ],
          "internalType": "struct PoolKey",
          "name": "",
          "type": "tuple"
        },
        {
          "internalType": "uint256",
          "name": "",
          "type": "uint256"
        },
        {
          "internalType": "uint256",
          "name": "",
          "type": "uint256"
        },
        {
          "internalType": "bytes",
          "name": "",
          "type": "bytes"
        }
      ],
      "name": "beforeDonate",
      "outputs": [
        {
          "internalType": "bytes4",
          "name": "",
          "type": "bytes4"
        }
      ],
      "stateMutability": "nonpayable",
      "type": "function"
    },
    {
      "inputs": [
        {
          "internalType": "address",
          "name": "",
          "type": "address"
        },
        {
          "components": [
            {
              "internalType": "Currency",
              "name": "currency0",
              "type": "address"
            },
            {
              "internalType": "Currency",
              "name": "currency1",
              "type": "address"
            },
            {
              "internalType": "uint24",
              "name": "fee",
              "type": "uint24"
            },
            {
              "internalType": "int24",
              "name": "tickSpacing",
              "type": "int24"
            },
            {
              "internalType": "contract IHooks",
              "name": "hooks",
              "type": "address"
            }
          ],
          "internalType": "struct PoolKey",
          "name": "key",
          "type": "tuple"
        },
        {
          "internalType": "uint160",
          "name": "",
          "type": "uint160"
        },
        {
          "internalType": "bytes",
          "name": "",
          "type": "bytes"
        }
      ],
      "name": "beforeInitialize",
      "outputs": [
        {
          "internalType": "bytes4",
          "name": "",
          "type": "bytes4"
        }
      ],
      "stateMutability": "pure",
      "type": "function"
    },
    {
      "inputs": [
        {
          "internalType": "address",
          "name": "",
          "type": "address"
        },
        {
          "components": [
            {
              "internalType": "Currency",
              "name": "currency0",
              "type": "address"
            },
            {
              "internalType": "Currency",
              "name": "currency1",
              "type": "address"
            },
            {
              "internalType": "uint24",
              "name": "fee",
              "type": "uint24"
            },
            {
              "internalType": "int24",
              "name": "tickSpacing",
              "type": "int24"
            },
            {
              "internalType": "contract IHooks",
              "name": "hooks",
              "type": "address"
            }
          ],
          "internalType": "struct PoolKey",
          "name": "",
          "type": "tuple"
        },
        {
          "components": [
            {
              "internalType": "int24",
              "name": "tickLower",
              "type": "int24"
            },
            {
              "internalType": "int24",
              "name": "tickUpper",
              "type": "int24"
            },
            {
              "internalType": "int256",
              "name": "liquidityDelta",
              "type": "int256"
            }
          ],
          "internalType": "struct IPoolManager.ModifyPositionParams",
          "name": "",
          "type": "tuple"
        },
        {
          "internalType": "bytes",
          "name": "",
          "type": "bytes"
        }
      ],
      "name": "beforeModifyPosition",
      "outputs": [
        {
          "internalType": "bytes4",
          "name": "",
          "type": "bytes4"
        }
      ],
      "stateMutability": "nonpayable",
      "type": "function"
    },
    {
      "inputs": [
        {
          "internalType": "address",
          "name": "",
          "type": "address"
        },
        {
          "components": [
            {
              "internalType": "Currency",
              "name": "currency0",
              "type": "address"
            },
            {
              "internalType": "Currency",
              "name": "currency1",
              "type": "address"
            },
            {
              "internalType": "uint24",
              "name": "fee",
              "type": "uint24"
            },
            {
              "internalType": "int24",
              "name": "tickSpacing",
              "type": "int24"
            },
            {
              "internalType": "contract IHooks",
              "name": "hooks",
              "type": "address"
            }
          ],
          "internalType": "struct PoolKey",
          "name": "",
          "type": "tuple"
        },
        {
          "components": [
            {
              "internalType": "bool",
              "name": "zeroForOne",
              "type": "bool"
            },
            {
              "internalType": "int256",
              "name": "amountSpecified",
              "type": "int256"
            },
            {
              "internalType": "uint160",
              "name": "sqrtPriceLimitX96",
              "type": "uint160"
            }
          ],
          "internalType": "struct IPoolManager.SwapParams",
          "name": "",
          "type": "tuple"
        },
        {
          "internalType": "bytes",
          "name": "",
          "type": "bytes"
        }
      ],
      "name": "beforeSwap",
      "outputs": [
        {
          "internalType": "bytes4",
          "name": "",
          "type": "bytes4"
        }
      ],
      "stateMutability": "nonpayable",
      "type": "function"
    },
    {
      "inputs": [
        {
          "internalType": "address",
          "name": "",
          "type": "address"
        },
        {
          "components": [
            {
              "internalType": "Currency",
              "name": "currency0",
              "type": "address"
            },
            {
              "internalType": "Currency",
              "name": "currency1",
              "type": "address"
            },
            {
              "internalType": "uint24",
              "name": "fee",
              "type": "uint24"
            },
            {
              "internalType": "int24",
              "name": "tickSpacing",
              "type": "int24"
            },
            {
              "internalType": "contract IHooks",
              "name": "hooks",
              "type": "address"
            }
          ],
          "internalType": "struct PoolKey",
          "name": "",
          "type": "tuple"
        },
        {
          "components": [
            {
              "internalType": "bool",
              "name": "zeroForOne",
              "type": "bool"
            },
            {
              "internalType": "int256",
              "name": "amountSpecified",
              "type": "int256"
            },
            {
              "internalType": "uint160",
              "name": "sqrtPriceLimitX96",
              "type": "uint160"
            }
          ],
          "internalType": "struct IPoolManager.SwapParams",
          "name": "",
          "type": "tuple"
        },
        {
          "internalType": "bytes",
          "name": "",
          "type": "bytes"
        }
      ],
      "name": "getFee",
      "outputs": [
        {
          "internalType": "uint24",
          "name": "",
          "type": "uint24"
        }
      ],
      "stateMutability": "view",
      "type": "function"
    },
    {
      "inputs": [],
      "name": "getHooksCalls",
      "outputs": [
        {
          "components": [
            {
              "internalType": "bool",
              "name": "beforeInitialize",
              "type": "bool"
            },
            {
              "internalType": "bool",
              "name": "afterInitialize",
              "type": "bool"
            },
            {
              "internalType": "bool",
              "name": "beforeModifyPosition",
              "type": "bool"
            },
            {
              "internalType": "bool",
              "name": "afterModifyPosition",
              "type": "bool"
            },
            {
              "internalType": "bool",
              "name": "beforeSwap",
              "type": "bool"
            },
            {
              "internalType": "bool",
              "name": "afterSwap",
              "type": "bool"
            },
            {
              "internalType": "bool",
              "name": "beforeDonate",
              "type": "bool"
            },
            {
              "internalType": "bool",
              "name": "afterDonate",
              "type": "bool"
            }
          ],
          "internalType": "struct Hooks.Calls",
          "name": "",
          "type": "tuple"
        }
      ],
      "stateMutability": "pure",
      "type": "function"
    },
    {
      "inputs": [
        {
          "internalType": "bytes",
          "name": "data",
          "type": "bytes"
        }
      ],
      "name": "lockAcquired",
      "outputs": [
        {
          "internalType": "bytes",
          "name": "",
          "type": "bytes"
        }
      ],
      "stateMutability": "nonpayable",
      "type": "function"
    },
    {
      "inputs": [],
      "name": "poolManager",
      "outputs": [
        {
          "internalType": "contract IPoolManager",
          "name": "",
          "type": "address"
        }
      ],
      "stateMutability": "view",
      "type": "function"
    }
  ],
  "bytecode": "0x60a06040523480156200001157600080fd5b50604051620018373803806200183783398181016040528101906200003791906200053d565b808073ffffffffffffffffffffffffffffffffffffffff1660808173ffffffffffffffffffffffffffffffffffffffff16815250506200007d30620000b460201b60201c565b506200008e620000d860201b60201c565b6000806101000a81548163ffffffff021916908363ffffffff160217905550506200059d565b620000d581620000c9620000e060201b60201c565b6200014160201b60201c565b50565b600042905090565b620000ea6200046a565b60405180610100016040528060011515815260200160001515815260200160001515815260200160001515815260200160001515815260200160001515815260200160001515815260200160001515815250905090565b6200015282620002a260201b60201c565b1515816000015115151415806200018157506200017582620002db60201b60201c565b15158160200151151514155b80620001a5575062000199826200031460201b60201c565b15158160400151151514155b80620001c95750620001bd826200034d60201b60201c565b15158160600151151514155b80620001ed5750620001e1826200038660201b60201c565b15158160800151151514155b806200021157506200020582620003bf60201b60201c565b15158160a00151151514155b806200023557506200022982620003f860201b60201c565b15158160c00151151514155b806200025957506200024d826200043160201b60201c565b15158160e00151151514155b156200029e57816040517fe65af6a000000000000000000000000000000000000000000000000000000000815260040162000295919062000580565b60405180910390fd5b5050565b6000807380000000000000000000000000000000000000008373ffffffffffffffffffffffffffffffffffffffff161614159050919050565b6000807340000000000000000000000000000000000000008373ffffffffffffffffffffffffffffffffffffffff161614159050919050565b6000807320000000000000000000000000000000000000008373ffffffffffffffffffffffffffffffffffffffff161614159050919050565b6000807310000000000000000000000000000000000000008373ffffffffffffffffffffffffffffffffffffffff161614159050919050565b6000807308000000000000000000000000000000000000008373ffffffffffffffffffffffffffffffffffffffff161614159050919050565b6000807304000000000000000000000000000000000000008373ffffffffffffffffffffffffffffffffffffffff161614159050919050565b6000807302000000000000000000000000000000000000008373ffffffffffffffffffffffffffffffffffffffff161614159050919050565b6000807301000000000000000000000000000000000000008373ffffffffffffffffffffffffffffffffffffffff161614159050919050565b6040518061010001604052806000151581526020016000151581526020016000151581526020016000151581526020016000151581526020016000151581526020016000151581526020016000151581525090565b600080fd5b600073ffffffffffffffffffffffffffffffffffffffff82169050919050565b6000620004f182620004c4565b9050919050565b60006200050582620004e4565b9050919050565b6200051781620004f8565b81146200052357600080fd5b50565b60008151905062000537816200050c565b92915050565b600060208284031215620005565762000555620004bf565b5b6000620005668482850162000526565b91505092915050565b6200057a81620004e4565b82525050565b60006020820190506200059760008301846200056f565b92915050565b608051611277620005c0600039600081816104a0015261065701526112776000f3fe608060405234801561001057600080fd5b50600436106100b45760003560e01c8063ab6291fe11610071578063ab6291fe146101c7578063b47b2fb1146101f7578063b6a8b0fa14610227578063dc4c90d314610257578063e1b4af6914610275578063fe9a6f45146102a5576100b4565b80632ab7a3e2146100b957806330b7cdef146100e95780633440d82014610119578063575e24b414610149578063612c39b714610179578063a910f80f14610197575b600080fd5b6100d360048036038101906100ce9190610865565b6102d5565b6040516100e0919061090d565b60405180910390f35b61010360048036038101906100fe919061097d565b610336565b6040516101109190610a55565b60405180910390f35b610133600480360381019061012e9190610a9c565b61036a565b6040516101409190610a55565b60405180910390f35b610163600480360381019061015e9190610865565b6103d5565b6040516101709190610a55565b60405180910390f35b610181610409565b60405161018e9190610be2565b60405180910390f35b6101b160048036038101906101ac9190610c37565b610468565b6040516101be9190610a55565b60405180910390f35b6101e160048036038101906101dc9190610cd3565b61049c565b6040516101ee9190610db0565b60405180910390f35b610211600480360381019061020c9190610dd2565b6105ed565b60405161021e9190610a55565b60405180910390f35b610241600480360381019061023c9190610ea5565b610621565b60405161024e9190610a55565b60405180910390f35b61025f610655565b60405161026c9190610fa0565b60405180910390f35b61028f600480360381019061028a9190610ea5565b610679565b60405161029c9190610a55565b60405180910390f35b6102bf60048036038101906102ba9190610fbb565b6106ad565b6040516102cc9190610a55565b60405180910390f35b600080610bb8905060008060009054906101000a900463ffffffff166102f96106e1565b6103039190611084565b9050603c60648261031491906110bc565b61031e9190611128565b826103299190611159565b9250505095945050505050565b60006040517f0a85dc2900000000000000000000000000000000000000000000000000000000815260040160405180910390fd5b600061038c85604001602081019061038291906111bc565b62ffffff166106e9565b6103c2576040517fad9eb4f800000000000000000000000000000000000000000000000000000000815260040160405180910390fd5b633440d82060e01b905095945050505050565b60006040517f0a85dc2900000000000000000000000000000000000000000000000000000000815260040160405180910390fd5b610411610700565b60405180610100016040528060011515815260200160001515815260200160001515815260200160001515815260200160001515815260200160001515815260200160001515815260200160001515815250905090565b60006040517f0a85dc2900000000000000000000000000000000000000000000000000000000815260040160405180910390fd5b60607f000000000000000000000000000000000000000000000000000000000000000073ffffffffffffffffffffffffffffffffffffffff163373ffffffffffffffffffffffffffffffffffffffff1614610523576040517fae18210a00000000000000000000000000000000000000000000000000000000815260040160405180910390fd5b6000803073ffffffffffffffffffffffffffffffffffffffff16858560405161054d929190611228565b6000604051808303816000865af19150503d806000811461058a576040519150601f19603f3d011682016040523d82523d6000602084013e61058f565b606091505b509150915081156105a45780925050506105e7565b60008151036105df576040517fa40afa3800000000000000000000000000000000000000000000000000000000815260040160405180910390fd5b805160208201fd5b92915050565b60006040517f0a85dc2900000000000000000000000000000000000000000000000000000000815260040160405180910390fd5b60006040517f0a85dc2900000000000000000000000000000000000000000000000000000000815260040160405180910390fd5b7f000000000000000000000000000000000000000000000000000000000000000081565b60006040517f0a85dc2900000000000000000000000000000000000000000000000000000000815260040160405180910390fd5b60006040517f0a85dc2900000000000000000000000000000000000000000000000000000000815260040160405180910390fd5b600042905090565b60008062800000831662ffffff1614159050919050565b6040518061010001604052806000151581526020016000151581526020016000151581526020016000151581526020016000151581526020016000151581526020016000151581526020016000151581525090565b600080fd5b600080fd5b600073ffffffffffffffffffffffffffffffffffffffff82169050919050565b600061078a8261075f565b9050919050565b61079a8161077f565b81146107a557600080fd5b50565b6000813590506107b781610791565b92915050565b600080fd5b600060a082840312156107d8576107d76107bd565b5b81905092915050565b6000606082840312156107f7576107f66107bd565b5b81905092915050565b600080fd5b600080fd5b600080fd5b60008083601f84011261082557610824610800565b5b8235905067ffffffffffffffff81111561084257610841610805565b5b60208301915083600182028301111561085e5761085d61080a565b5b9250929050565b6000806000806000610140868803121561088257610881610755565b5b6000610890888289016107a8565b95505060206108a1888289016107c2565b94505060c06108b2888289016107e1565b93505061012086013567ffffffffffffffff8111156108d4576108d361075a565b5b6108e08882890161080f565b92509250509295509295909350565b600062ffffff82169050919050565b610907816108ef565b82525050565b600060208201905061092260008301846108fe565b92915050565b60006060828403121561093e5761093d6107bd565b5b81905092915050565b6000819050919050565b61095a81610947565b811461096557600080fd5b50565b60008135905061097781610951565b92915050565b600080600080600080610160878903121561099b5761099a610755565b5b60006109a989828a016107a8565b96505060206109ba89828a016107c2565b95505060c06109cb89828a01610928565b9450506101206109dd89828a01610968565b93505061014087013567ffffffffffffffff8111156109ff576109fe61075a565b5b610a0b89828a0161080f565b92509250509295509295509295565b60007fffffffff0000000000000000000000000000000000000000000000000000000082169050919050565b610a4f81610a1a565b82525050565b6000602082019050610a6a6000830184610a46565b92915050565b610a798161075f565b8114610a8457600080fd5b50565b600081359050610a9681610a70565b92915050565b60008060008060006101008688031215610ab957610ab8610755565b5b6000610ac7888289016107a8565b9550506020610ad8888289016107c2565b94505060c0610ae988828901610a87565b93505060e086013567ffffffffffffffff811115610b0a57610b0961075a565b5b610b168882890161080f565b92509250509295509295909350565b60008115159050919050565b610b3a81610b25565b82525050565b61010082016000820151610b576000850182610b31565b506020820151610b6a6020850182610b31565b506040820151610b7d6040850182610b31565b506060820151610b906060850182610b31565b506080820151610ba36080850182610b31565b5060a0820151610bb660a0850182610b31565b5060c0820151610bc960c0850182610b31565b5060e0820151610bdc60e0850182610b31565b50505050565b600061010082019050610bf86000830184610b40565b92915050565b60008160020b9050919050565b610c1481610bfe565b8114610c1f57600080fd5b50565b600081359050610c3181610c0b565b92915050565b6000806000806000806101208789031215610c5557610c54610755565b5b6000610c6389828a016107a8565b9650506020610c7489828a016107c2565b95505060c0610c8589828a01610a87565b94505060e0610c9689828a01610c22565b93505061010087013567ffffffffffffffff811115610cb857610cb761075a565b5b610cc489828a0161080f565b92509250509295509295509295565b60008060208385031215610cea57610ce9610755565b5b600083013567ffffffffffffffff811115610d0857610d0761075a565b5b610d148582860161080f565b92509250509250929050565b600081519050919050565b600082825260208201905092915050565b60005b83811015610d5a578082015181840152602081019050610d3f565b60008484015250505050565b6000601f19601f8301169050919050565b6000610d8282610d20565b610d8c8185610d2b565b9350610d9c818560208601610d3c565b610da581610d66565b840191505092915050565b60006020820190508181036000830152610dca8184610d77565b905092915050565b6000806000806000806101608789031215610df057610def610755565b5b6000610dfe89828a016107a8565b9650506020610e0f89828a016107c2565b95505060c0610e2089828a016107e1565b945050610120610e3289828a01610968565b93505061014087013567ffffffffffffffff811115610e5457610e5361075a565b5b610e6089828a0161080f565b92509250509295509295509295565b6000819050919050565b610e8281610e6f565b8114610e8d57600080fd5b50565b600081359050610e9f81610e79565b92915050565b6000806000806000806101208789031215610ec357610ec2610755565b5b6000610ed189828a016107a8565b9650506020610ee289828a016107c2565b95505060c0610ef389828a01610e90565b94505060e0610f0489828a01610e90565b93505061010087013567ffffffffffffffff811115610f2657610f2561075a565b5b610f3289828a0161080f565b92509250509295509295509295565b6000819050919050565b6000610f66610f61610f5c8461075f565b610f41565b61075f565b9050919050565b6000610f7882610f4b565b9050919050565b6000610f8a82610f6d565b9050919050565b610f9a81610f7f565b82525050565b6000602082019050610fb56000830184610f91565b92915050565b60008060008060006101408688031215610fd857610fd7610755565b5b6000610fe6888289016107a8565b9550506020610ff7888289016107c2565b94505060c061100888828901610928565b93505061012086013567ffffffffffffffff81111561102a5761102961075a565b5b6110368882890161080f565b92509250509295509295909350565b600063ffffffff82169050919050565b7f4e487b7100000000000000000000000000000000000000000000000000000000600052601160045260246000fd5b600061108f82611045565b915061109a83611045565b9250828203905063ffffffff8111156110b6576110b5611055565b5b92915050565b60006110c7826108ef565b91506110d2836108ef565b92508282026110e0816108ef565b91508082146110f2576110f1611055565b5b5092915050565b7f4e487b7100000000000000000000000000000000000000000000000000000000600052601260045260246000fd5b6000611133826108ef565b915061113e836108ef565b92508261114e5761114d6110f9565b5b828204905092915050565b6000611164826108ef565b915061116f836108ef565b9250828201905062ffffff81111561118a57611189611055565b5b92915050565b611199816108ef565b81146111a457600080fd5b50565b6000813590506111b681611190565b92915050565b6000602082840312156111d2576111d1610755565b5b60006111e0848285016111a7565b91505092915050565b600081905092915050565b82818337600083830152505050565b600061120f83856111e9565b935061121c8385846111f4565b82840190509392505050565b6000611235828486611203565b9150819050939250505056fea2646970667358221220700b21ec9c9fe5f18b6724a188cafdc6e9de474b99bb932c0688c5d076ae8c4a64736f6c63430008150033",
  "linkReferences": {},
  "deployedLinkReferences": {}
}