{
  "_format": "hh-sol-artifact-1",
  "contractName": "TWAMM",
  "sourceName": "src/TWAMM/TWAMM.sol",
  "abi": [
    {
      "inputs": [
        {
          "internalType": "contract IPoolManager",
          "name": "_poolManager",
          "type": "address"
        },
        {
          "internalType": "uint256",
          "name": "_expirationInterval",
          "type": "uint256"
        }
      ],
      "stateMutability": "nonpayable",
      "type": "constructor"
    },
    {
      "inputs": [
        {
          "components": [
            {
              "internalType": "address",
              "name": "owner",
              "type": "address"
            },
            {
              "internalType": "uint160",
              "name": "expiration",
              "type": "uint160"
            },
            {
              "internalType": "bool",
              "name": "zeroForOne",
              "type": "bool"
            }
          ],
          "internalType": "struct ITWAMM.OrderKey",
          "name": "orderKey",
          "type": "tuple"
        }
      ],
      "name": "CannotModifyCompletedOrder",
      "type": "error"
    },
    {
      "inputs": [],
      "name": "ERC20TransferFailed",
      "type": "error"
    },
    {
      "inputs": [
        {
          "internalType": "uint256",
          "name": "expiration",
          "type": "uint256"
        }
      ],
      "name": "ExpirationLessThanBlocktime",
      "type": "error"
    },
    {
      "inputs": [
        {
          "internalType": "uint256",
          "name": "expiration",
          "type": "uint256"
        }
      ],
      "name": "ExpirationNotOnInterval",
      "type": "error"
    },
    {
      "inputs": [
        {
          "internalType": "address",
          "name": "hooks",
          "type": "address"
        }
      ],
      "name": "HookAddressNotValid",
      "type": "error"
    },
    {
      "inputs": [],
      "name": "HookNotImplemented",
      "type": "error"
    },
    {
      "inputs": [
        {
          "components": [
            {
              "internalType": "address",
              "name": "owner",
              "type": "address"
            },
            {
              "internalType": "uint160",
              "name": "expiration",
              "type": "uint160"
            },
            {
              "internalType": "bool",
              "name": "zeroForOne",
              "type": "bool"
            }
          ],
          "internalType": "struct ITWAMM.OrderKey",
          "name": "orderKey",
          "type": "tuple"
        },
        {
          "internalType": "uint256",
          "name": "unsoldAmount",
          "type": "uint256"
        },
        {
          "internalType": "int256",
          "name": "amountDelta",
          "type": "int256"
        }
      ],
      "name": "InvalidAmountDelta",
      "type": "error"
    },
    {
      "inputs": [],
      "name": "InvalidPool",
      "type": "error"
    },
    {
      "inputs": [],
      "name": "InvalidSqrtRatio",
      "type": "error"
    },
    {
      "inputs": [],
      "name": "InvalidTick",
      "type": "error"
    },
    {
      "inputs": [],
      "name": "LockFailure",
      "type": "error"
    },
    {
      "inputs": [
        {
          "internalType": "address",
          "name": "owner",
          "type": "address"
        },
        {
          "internalType": "address",
          "name": "currentAccount",
          "type": "address"
        }
      ],
      "name": "MustBeOwner",
      "type": "error"
    },
    {
      "inputs": [],
      "name": "NativeTransferFailed",
      "type": "error"
    },
    {
      "inputs": [],
      "name": "NotInitialized",
      "type": "error"
    },
    {
      "inputs": [],
      "name": "NotPoolManager",
      "type": "error"
    },
    {
      "inputs": [],
      "name": "NotSelf",
      "type": "error"
    },
    {
      "inputs": [
        {
          "components": [
            {
              "internalType": "address",
              "name": "owner",
              "type": "address"
            },
            {
              "internalType": "uint160",
              "name": "expiration",
              "type": "uint160"
            },
            {
              "internalType": "bool",
              "name": "zeroForOne",
              "type": "bool"
            }
          ],
          "internalType": "struct ITWAMM.OrderKey",
          "name": "orderKey",
          "type": "tuple"
        }
      ],
      "name": "OrderAlreadyExists",
      "type": "error"
    },
    {
      "inputs": [
        {
          "components": [
            {
              "internalType": "address",
              "name": "owner",
              "type": "address"
            },
            {
              "internalType": "uint160",
              "name": "expiration",
              "type": "uint160"
            },
            {
              "internalType": "bool",
              "name": "zeroForOne",
              "type": "bool"
            }
          ],
          "internalType": "struct ITWAMM.OrderKey",
          "name": "orderKey",
          "type": "tuple"
        }
      ],
      "name": "OrderDoesNotExist",
      "type": "error"
    },
    {
      "inputs": [],
      "name": "SellRateCannotBeZero",
      "type": "error"
    },
    {
      "anonymous": false,
      "inputs": [
        {
          "indexed": true,
          "internalType": "PoolId",
          "name": "poolId",
          "type": "bytes32"
        },
        {
          "indexed": true,
          "internalType": "address",
          "name": "owner",
          "type": "address"
        },
        {
          "indexed": false,
          "internalType": "uint160",
          "name": "expiration",
          "type": "uint160"
        },
        {
          "indexed": false,
          "internalType": "bool",
          "name": "zeroForOne",
          "type": "bool"
        },
        {
          "indexed": false,
          "internalType": "uint256",
          "name": "sellRate",
          "type": "uint256"
        },
        {
          "indexed": false,
          "internalType": "uint256",
          "name": "earningsFactorLast",
          "type": "uint256"
        }
      ],
      "name": "SubmitOrder",
      "type": "event"
    },
    {
      "anonymous": false,
      "inputs": [
        {
          "indexed": true,
          "internalType": "PoolId",
          "name": "poolId",
          "type": "bytes32"
        },
        {
          "indexed": true,
          "internalType": "address",
          "name": "owner",
          "type": "address"
        },
        {
          "indexed": false,
          "internalType": "uint160",
          "name": "expiration",
          "type": "uint160"
        },
        {
          "indexed": false,
          "internalType": "bool",
          "name": "zeroForOne",
          "type": "bool"
        },
        {
          "indexed": false,
          "internalType": "uint256",
          "name": "sellRate",
          "type": "uint256"
        },
        {
          "indexed": false,
          "internalType": "uint256",
          "name": "earningsFactorLast",
          "type": "uint256"
        }
      ],
      "name": "UpdateOrder",
      "type": "event"
    },
    {
      "inputs": [
        {
          "internalType": "address",
          "name": "",
          "type": "address"
        },
        {
          "components": [
            {
              "internalType": "Currency",
              "name": "currency0",
              "type": "address"
            },
            {
              "internalType": "Currency",
              "name": "currency1",
              "type": "address"
            },
            {
              "internalType": "uint24",
              "name": "fee",
              "type": "uint24"
            },
            {
              "internalType": "int24",
              "name": "tickSpacing",
              "type": "int24"
            },
            {
              "internalType": "contract IHooks",
              "name": "hooks",
              "type": "address"
            }
          ],
          "internalType": "struct PoolKey",
          "name": "",
          "type": "tuple"
        },
        {
          "internalType": "uint256",
          "name": "",
          "type": "uint256"
        },
        {
          "internalType": "uint256",
          "name": "",
          "type": "uint256"
        },
        {
          "internalType": "bytes",
          "name": "",
          "type": "bytes"
        }
      ],
      "name": "afterDonate",
      "outputs": [
        {
          "internalType": "bytes4",
          "name": "",
          "type": "bytes4"
        }
      ],
      "stateMutability": "nonpayable",
      "type": "function"
    },
    {
      "inputs": [
        {
          "internalType": "address",
          "name": "",
          "type": "address"
        },
        {
          "components": [
            {
              "internalType": "Currency",
              "name": "currency0",
              "type": "address"
            },
            {
              "internalType": "Currency",
              "name": "currency1",
              "type": "address"
            },
            {
              "internalType": "uint24",
              "name": "fee",
              "type": "uint24"
            },
            {
              "internalType": "int24",
              "name": "tickSpacing",
              "type": "int24"
            },
            {
              "internalType": "contract IHooks",
              "name": "hooks",
              "type": "address"
            }
          ],
          "internalType": "struct PoolKey",
          "name": "",
          "type": "tuple"
        },
        {
          "internalType": "uint160",
          "name": "",
          "type": "uint160"
        },
        {
          "internalType": "int24",
          "name": "",
          "type": "int24"
        },
        {
          "internalType": "bytes",
          "name": "",
          "type": "bytes"
        }
      ],
      "name": "afterInitialize",
      "outputs": [
        {
          "internalType": "bytes4",
          "name": "",
          "type": "bytes4"
        }
      ],
      "stateMutability": "nonpayable",
      "type": "function"
    },
    {
      "inputs": [
        {
          "internalType": "address",
          "name": "",
          "type": "address"
        },
        {
          "components": [
            {
              "internalType": "Currency",
              "name": "currency0",
              "type": "address"
            },
            {
              "internalType": "Currency",
              "name": "currency1",
              "type": "address"
            },
            {
              "internalType": "uint24",
              "name": "fee",
              "type": "uint24"
            },
            {
              "internalType": "int24",
              "name": "tickSpacing",
              "type": "int24"
            },
            {
              "internalType": "contract IHooks",
              "name": "hooks",
              "type": "address"
            }
          ],
          "internalType": "struct PoolKey",
          "name": "",
          "type": "tuple"
        },
        {
          "components": [
            {
              "internalType": "int24",
              "name": "tickLower",
              "type": "int24"
            },
            {
              "internalType": "int24",
              "name": "tickUpper",
              "type": "int24"
            },
            {
              "internalType": "int256",
              "name": "liquidityDelta",
              "type": "int256"
            }
          ],
          "internalType": "struct IPoolManager.ModifyPositionParams",
          "name": "",
          "type": "tuple"
        },
        {
          "internalType": "BalanceDelta",
          "name": "",
          "type": "int256"
        },
        {
          "internalType": "bytes",
          "name": "",
          "type": "bytes"
        }
      ],
      "name": "afterModifyPosition",
      "outputs": [
        {
          "internalType": "bytes4",
          "name": "",
          "type": "bytes4"
        }
      ],
      "stateMutability": "nonpayable",
      "type": "function"
    },
    {
      "inputs": [
        {
          "internalType": "address",
          "name": "",
          "type": "address"
        },
        {
          "components": [
            {
              "internalType": "Currency",
              "name": "currency0",
              "type": "address"
            },
            {
              "internalType": "Currency",
              "name": "currency1",
              "type": "address"
            },
            {
              "internalType": "uint24",
              "name": "fee",
              "type": "uint24"
            },
            {
              "internalType": "int24",
              "name": "tickSpacing",
              "type": "int24"
            },
            {
              "internalType": "contract IHooks",
              "name": "hooks",
              "type": "address"
            }
          ],
          "internalType": "struct PoolKey",
          "name": "",
          "type": "tuple"
        },
        {
          "components": [
            {
              "internalType": "bool",
              "name": "zeroForOne",
              "type": "bool"
            },
            {
              "internalType": "int256",
              "name": "amountSpecified",
              "type": "int256"
            },
            {
              "internalType": "uint160",
              "name": "sqrtPriceLimitX96",
              "type": "uint160"
            }
          ],
          "internalType": "struct IPoolManager.SwapParams",
          "name": "",
          "type": "tuple"
        },
        {
          "internalType": "BalanceDelta",
          "name": "",
          "type": "int256"
        },
        {
          "internalType": "bytes",
          "name": "",
          "type": "bytes"
        }
      ],
      "name": "afterSwap",
      "outputs": [
        {
          "internalType": "bytes4",
          "name": "",
          "type": "bytes4"
        }
      ],
      "stateMutability": "nonpayable",
      "type": "function"
    },
    {
      "inputs": [
        {
          "internalType": "address",
          "name": "",
          "type": "address"
        },
        {
          "components": [
            {
              "internalType": "Currency",
              "name": "currency0",
              "type": "address"
            },
            {
              "internalType": "Currency",
              "name": "currency1",
              "type": "address"
            },
            {
              "internalType": "uint24",
              "name": "fee",
              "type": "uint24"
            },
            {
              "internalType": "int24",
              "name": "tickSpacing",
              "type": "int24"
            },
            {
              "internalType": "contract IHooks",
              "name": "hooks",
              "type": "address"
            }
          ],
          "internalType": "struct PoolKey",
          "name": "",
          "type": "tuple"
        },
        {
          "internalType": "uint256",
          "name": "",
          "type": "uint256"
        },
        {
          "internalType": "uint256",
          "name": "",
          "type": "uint256"
        },
        {
          "internalType": "bytes",
          "name": "",
          "type": "bytes"
        }
      ],
      "name": "beforeDonate",
      "outputs": [
        {
          "internalType": "bytes4",
          "name": "",
          "type": "bytes4"
        }
      ],
      "stateMutability": "nonpayable",
      "type": "function"
    },
    {
      "inputs": [
        {
          "internalType": "address",
          "name": "",
          "type": "address"
        },
        {
          "components": [
            {
              "internalType": "Currency",
              "name": "currency0",
              "type": "address"
            },
            {
              "internalType": "Currency",
              "name": "currency1",
              "type": "address"
            },
            {
              "internalType": "uint24",
              "name": "fee",
              "type": "uint24"
            },
            {
              "internalType": "int24",
              "name": "tickSpacing",
              "type": "int24"
            },
            {
              "internalType": "contract IHooks",
              "name": "hooks",
              "type": "address"
            }
          ],
          "internalType": "struct PoolKey",
          "name": "key",
          "type": "tuple"
        },
        {
          "internalType": "uint160",
          "name": "",
          "type": "uint160"
        },
        {
          "internalType": "bytes",
          "name": "",
          "type": "bytes"
        }
      ],
      "name": "beforeInitialize",
      "outputs": [
        {
          "internalType": "bytes4",
          "name": "",
          "type": "bytes4"
        }
      ],
      "stateMutability": "nonpayable",
      "type": "function"
    },
    {
      "inputs": [
        {
          "internalType": "address",
          "name": "",
          "type": "address"
        },
        {
          "components": [
            {
              "internalType": "Currency",
              "name": "currency0",
              "type": "address"
            },
            {
              "internalType": "Currency",
              "name": "currency1",
              "type": "address"
            },
            {
              "internalType": "uint24",
              "name": "fee",
              "type": "uint24"
            },
            {
              "internalType": "int24",
              "name": "tickSpacing",
              "type": "int24"
            },
            {
              "internalType": "contract IHooks",
              "name": "hooks",
              "type": "address"
            }
          ],
          "internalType": "struct PoolKey",
          "name": "key",
          "type": "tuple"
        },
        {
          "components": [
            {
              "internalType": "int24",
              "name": "tickLower",
              "type": "int24"
            },
            {
              "internalType": "int24",
              "name": "tickUpper",
              "type": "int24"
            },
            {
              "internalType": "int256",
              "name": "liquidityDelta",
              "type": "int256"
            }
          ],
          "internalType": "struct IPoolManager.ModifyPositionParams",
          "name": "",
          "type": "tuple"
        },
        {
          "internalType": "bytes",
          "name": "",
          "type": "bytes"
        }
      ],
      "name": "beforeModifyPosition",
      "outputs": [
        {
          "internalType": "bytes4",
          "name": "",
          "type": "bytes4"
        }
      ],
      "stateMutability": "nonpayable",
      "type": "function"
    },
    {
      "inputs": [
        {
          "internalType": "address",
          "name": "",
          "type": "address"
        },
        {
          "components": [
            {
              "internalType": "Currency",
              "name": "currency0",
              "type": "address"
            },
            {
              "internalType": "Currency",
              "name": "currency1",
              "type": "address"
            },
            {
              "internalType": "uint24",
              "name": "fee",
              "type": "uint24"
            },
            {
              "internalType": "int24",
              "name": "tickSpacing",
              "type": "int24"
            },
            {
              "internalType": "contract IHooks",
              "name": "hooks",
              "type": "address"
            }
          ],
          "internalType": "struct PoolKey",
          "name": "key",
          "type": "tuple"
        },
        {
          "components": [
            {
              "internalType": "bool",
              "name": "zeroForOne",
              "type": "bool"
            },
            {
              "internalType": "int256",
              "name": "amountSpecified",
              "type": "int256"
            },
            {
              "internalType": "uint160",
              "name": "sqrtPriceLimitX96",
              "type": "uint160"
            }
          ],
          "internalType": "struct IPoolManager.SwapParams",
          "name": "",
          "type": "tuple"
        },
        {
          "internalType": "bytes",
          "name": "",
          "type": "bytes"
        }
      ],
      "name": "beforeSwap",
      "outputs": [
        {
          "internalType": "bytes4",
          "name": "",
          "type": "bytes4"
        }
      ],
      "stateMutability": "nonpayable",
      "type": "function"
    },
    {
      "inputs": [
        {
          "internalType": "Currency",
          "name": "token",
          "type": "address"
        },
        {
          "internalType": "address",
          "name": "to",
          "type": "address"
        },
        {
          "internalType": "uint256",
          "name": "amountRequested",
          "type": "uint256"
        }
      ],
      "name": "claimTokens",
      "outputs": [
        {
          "internalType": "uint256",
          "name": "amountTransferred",
          "type": "uint256"
        }
      ],
      "stateMutability": "nonpayable",
      "type": "function"
    },
    {
      "inputs": [
        {
          "components": [
            {
              "internalType": "Currency",
              "name": "currency0",
              "type": "address"
            },
            {
              "internalType": "Currency",
              "name": "currency1",
              "type": "address"
            },
            {
              "internalType": "uint24",
              "name": "fee",
              "type": "uint24"
            },
            {
              "internalType": "int24",
              "name": "tickSpacing",
              "type": "int24"
            },
            {
              "internalType": "contract IHooks",
              "name": "hooks",
              "type": "address"
            }
          ],
          "internalType": "struct PoolKey",
          "name": "key",
          "type": "tuple"
        }
      ],
      "name": "executeTWAMMOrders",
      "outputs": [],
      "stateMutability": "nonpayable",
      "type": "function"
    },
    {
      "inputs": [],
      "name": "expirationInterval",
      "outputs": [
        {
          "internalType": "uint256",
          "name": "",
          "type": "uint256"
        }
      ],
      "stateMutability": "view",
      "type": "function"
    },
    {
      "inputs": [],
      "name": "getHooksCalls",
      "outputs": [
        {
          "components": [
            {
              "internalType": "bool",
              "name": "beforeInitialize",
              "type": "bool"
            },
            {
              "internalType": "bool",
              "name": "afterInitialize",
              "type": "bool"
            },
            {
              "internalType": "bool",
              "name": "beforeModifyPosition",
              "type": "bool"
            },
            {
              "internalType": "bool",
              "name": "afterModifyPosition",
              "type": "bool"
            },
            {
              "internalType": "bool",
              "name": "beforeSwap",
              "type": "bool"
            },
            {
              "internalType": "bool",
              "name": "afterSwap",
              "type": "bool"
            },
            {
              "internalType": "bool",
              "name": "beforeDonate",
              "type": "bool"
            },
            {
              "internalType": "bool",
              "name": "afterDonate",
              "type": "bool"
            }
          ],
          "internalType": "struct Hooks.Calls",
          "name": "",
          "type": "tuple"
        }
      ],
      "stateMutability": "pure",
      "type": "function"
    },
    {
      "inputs": [
        {
          "components": [
            {
              "internalType": "Currency",
              "name": "currency0",
              "type": "address"
            },
            {
              "internalType": "Currency",
              "name": "currency1",
              "type": "address"
            },
            {
              "internalType": "uint24",
              "name": "fee",
              "type": "uint24"
            },
            {
              "internalType": "int24",
              "name": "tickSpacing",
              "type": "int24"
            },
            {
              "internalType": "contract IHooks",
              "name": "hooks",
              "type": "address"
            }
          ],
          "internalType": "struct PoolKey",
          "name": "poolKey",
          "type": "tuple"
        },
        {
          "components": [
            {
              "internalType": "address",
              "name": "owner",
              "type": "address"
            },
            {
              "internalType": "uint160",
              "name": "expiration",
              "type": "uint160"
            },
            {
              "internalType": "bool",
              "name": "zeroForOne",
              "type": "bool"
            }
          ],
          "internalType": "struct ITWAMM.OrderKey",
          "name": "orderKey",
          "type": "tuple"
        }
      ],
      "name": "getOrder",
      "outputs": [
        {
          "components": [
            {
              "internalType": "uint256",
              "name": "sellRate",
              "type": "uint256"
            },
            {
              "internalType": "uint256",
              "name": "earningsFactorLast",
              "type": "uint256"
            }
          ],
          "internalType": "struct ITWAMM.Order",
          "name": "",
          "type": "tuple"
        }
      ],
      "stateMutability": "view",
      "type": "function"
    },
    {
      "inputs": [
        {
          "components": [
            {
              "internalType": "Currency",
              "name": "currency0",
              "type": "address"
            },
            {
              "internalType": "Currency",
              "name": "currency1",
              "type": "address"
            },
            {
              "internalType": "uint24",
              "name": "fee",
              "type": "uint24"
            },
            {
              "internalType": "int24",
              "name": "tickSpacing",
              "type": "int24"
            },
            {
              "internalType": "contract IHooks",
              "name": "hooks",
              "type": "address"
            }
          ],
          "internalType": "struct PoolKey",
          "name": "key",
          "type": "tuple"
        },
        {
          "internalType": "bool",
          "name": "zeroForOne",
          "type": "bool"
        }
      ],
      "name": "getOrderPool",
      "outputs": [
        {
          "internalType": "uint256",
          "name": "sellRateCurrent",
          "type": "uint256"
        },
        {
          "internalType": "uint256",
          "name": "earningsFactorCurrent",
          "type": "uint256"
        }
      ],
      "stateMutability": "view",
      "type": "function"
    },
    {
      "inputs": [
        {
          "internalType": "PoolId",
          "name": "key",
          "type": "bytes32"
        }
      ],
      "name": "lastVirtualOrderTimestamp",
      "outputs": [
        {
          "internalType": "uint256",
          "name": "",
          "type": "uint256"
        }
      ],
      "stateMutability": "view",
      "type": "function"
    },
    {
      "inputs": [
        {
          "internalType": "bytes",
          "name": "rawData",
          "type": "bytes"
        }
      ],
      "name": "lockAcquired",
      "outputs": [
        {
          "internalType": "bytes",
          "name": "",
          "type": "bytes"
        }
      ],
      "stateMutability": "nonpayable",
      "type": "function"
    },
    {
      "inputs": [],
      "name": "poolManager",
      "outputs": [
        {
          "internalType": "contract IPoolManager",
          "name": "",
          "type": "address"
        }
      ],
      "stateMutability": "view",
      "type": "function"
    },
    {
      "inputs": [
        {
          "components": [
            {
              "internalType": "Currency",
              "name": "currency0",
              "type": "address"
            },
            {
              "internalType": "Currency",
              "name": "currency1",
              "type": "address"
            },
            {
              "internalType": "uint24",
              "name": "fee",
              "type": "uint24"
            },
            {
              "internalType": "int24",
              "name": "tickSpacing",
              "type": "int24"
            },
            {
              "internalType": "contract IHooks",
              "name": "hooks",
              "type": "address"
            }
          ],
          "internalType": "struct PoolKey",
          "name": "key",
          "type": "tuple"
        },
        {
          "components": [
            {
              "internalType": "address",
              "name": "owner",
              "type": "address"
            },
            {
              "internalType": "uint160",
              "name": "expiration",
              "type": "uint160"
            },
            {
              "internalType": "bool",
              "name": "zeroForOne",
              "type": "bool"
            }
          ],
          "internalType": "struct ITWAMM.OrderKey",
          "name": "orderKey",
          "type": "tuple"
        },
        {
          "internalType": "uint256",
          "name": "amountIn",
          "type": "uint256"
        }
      ],
      "name": "submitOrder",
      "outputs": [
        {
          "internalType": "bytes32",
          "name": "orderId",
          "type": "bytes32"
        }
      ],
      "stateMutability": "nonpayable",
      "type": "function"
    },
    {
      "inputs": [
        {
          "internalType": "Currency",
          "name": "",
          "type": "address"
        },
        {
          "internalType": "address",
          "name": "",
          "type": "address"
        }
      ],
      "name": "tokensOwed",
      "outputs": [
        {
          "internalType": "uint256",
          "name": "",
          "type": "uint256"
        }
      ],
      "stateMutability": "view",
      "type": "function"
    },
    {
      "inputs": [
        {
          "components": [
            {
              "internalType": "Currency",
              "name": "currency0",
              "type": "address"
            },
            {
              "internalType": "Currency",
              "name": "currency1",
              "type": "address"
            },
            {
              "internalType": "uint24",
              "name": "fee",
              "type": "uint24"
            },
            {
              "internalType": "int24",
              "name": "tickSpacing",
              "type": "int24"
            },
            {
              "internalType": "contract IHooks",
              "name": "hooks",
              "type": "address"
            }
          ],
          "internalType": "struct PoolKey",
          "name": "key",
          "type": "tuple"
        },
        {
          "components": [
            {
              "internalType": "address",
              "name": "owner",
              "type": "address"
            },
            {
              "internalType": "uint160",
              "name": "expiration",
              "type": "uint160"
            },
            {
              "internalType": "bool",
              "name": "zeroForOne",
              "type": "bool"
            }
          ],
          "internalType": "struct ITWAMM.OrderKey",
          "name": "orderKey",
          "type": "tuple"
        },
        {
          "internalType": "int256",
          "name": "amountDelta",
          "type": "int256"
        }
      ],
      "name": "updateOrder",
      "outputs": [
        {
          "internalType": "uint256",
          "name": "tokens0Owed",
          "type": "uint256"
        },
        {
          "internalType": "uint256",
          "name": "tokens1Owed",
          "type": "uint256"
        }
      ],
      "stateMutability": "nonpayable",
      "type": "function"
    }
  ],
  "bytecode": "0x60c06040523480156200001157600080fd5b506040516200abeb3803806200abeb83398181016040528101906200003791906200054a565b818073ffffffffffffffffffffffffffffffffffffffff1660808173ffffffffffffffffffffffffffffffffffffffff16815250506200007d306200008e60201b60201c565b508060a081815250505050620005bf565b620000af81620000a3620000b260201b60201c565b6200011360201b60201c565b50565b620000bc6200043c565b60405180610100016040528060011515815260200160001515815260200160011515815260200160001515815260200160011515815260200160001515815260200160001515815260200160001515815250905090565b62000124826200027460201b60201c565b1515816000015115151415806200015357506200014782620002ad60201b60201c565b15158160200151151514155b806200017757506200016b82620002e660201b60201c565b15158160400151151514155b806200019b57506200018f826200031f60201b60201c565b15158160600151151514155b80620001bf5750620001b3826200035860201b60201c565b15158160800151151514155b80620001e35750620001d7826200039160201b60201c565b15158160a00151151514155b80620002075750620001fb82620003ca60201b60201c565b15158160c00151151514155b806200022b57506200021f826200040360201b60201c565b15158160e00151151514155b156200027057816040517fe65af6a0000000000000000000000000000000000000000000000000000000008152600401620002679190620005a2565b60405180910390fd5b5050565b6000807380000000000000000000000000000000000000008373ffffffffffffffffffffffffffffffffffffffff161614159050919050565b6000807340000000000000000000000000000000000000008373ffffffffffffffffffffffffffffffffffffffff161614159050919050565b6000807320000000000000000000000000000000000000008373ffffffffffffffffffffffffffffffffffffffff161614159050919050565b6000807310000000000000000000000000000000000000008373ffffffffffffffffffffffffffffffffffffffff161614159050919050565b6000807308000000000000000000000000000000000000008373ffffffffffffffffffffffffffffffffffffffff161614159050919050565b6000807304000000000000000000000000000000000000008373ffffffffffffffffffffffffffffffffffffffff161614159050919050565b6000807302000000000000000000000000000000000000008373ffffffffffffffffffffffffffffffffffffffff161614159050919050565b6000807301000000000000000000000000000000000000008373ffffffffffffffffffffffffffffffffffffffff161614159050919050565b6040518061010001604052806000151581526020016000151581526020016000151581526020016000151581526020016000151581526020016000151581526020016000151581526020016000151581525090565b600080fd5b600073ffffffffffffffffffffffffffffffffffffffff82169050919050565b6000620004c38262000496565b9050919050565b6000620004d782620004b6565b9050919050565b620004e981620004ca565b8114620004f557600080fd5b50565b6000815190506200050981620004de565b92915050565b6000819050919050565b62000524816200050f565b81146200053057600080fd5b50565b600081519050620005448162000519565b92915050565b6000806040838503121562000564576200056362000491565b5b60006200057485828601620004f8565b9250506020620005878582860162000533565b9150509250929050565b6200059c81620004b6565b82525050565b6000602082019050620005b9600083018462000591565b92915050565b60805160a05161a565620006866000396000818161161c01528181611db101528181611ddd01528181611e9b01528181611ef001528181611f4401528181611fc001528181612015015261220e0152600081816107a10152818161085c0152818161091c015281816109d801528181610a2101528181610b310152818161106701528181611104015281816111d60152818161123c015281816112f2015281816113c50152818161142b015281816114e1015281816116c0015261171a015261a5656000f3fe608060405234801561001057600080fd5b506004361061012b5760003560e01c80639fc314c8116100ad578063c01f960611610071578063c01f9606146103dc578063ccf4b247146103fa578063dc4c90d31461042a578063e1b4af6914610448578063fe9a6f45146104785761012b565b80639fc314c8146102ec578063a910f80f1461031c578063ab6291fe1461034c578063b47b2fb11461037c578063b6a8b0fa146103ac5761012b565b80635f65a295116100f45780635f65a29514610221578063612c39b71461023d5780636fc389ae1461025b57806386fd4fdc1461028b5780639d544ca8146102bc5761012b565b8062e7b1be1461013057806327ac08811461016157806330b7cdef146101915780633440d820146101c1578063575e24b4146101f1575b600080fd5b61014a60048036038101906101459190618c25565b6104a8565b604051610158929190618c93565b60405180910390f35b61017b60048036038101906101769190618cf2565b61074a565b6040516101889190618d1f565b60405180910390f35b6101ab60048036038101906101a69190618e0e565b610769565b6040516101b89190618ee6565b60405180910390f35b6101db60048036038101906101d69190618f01565b61079d565b6040516101e89190618ee6565b60405180910390f35b61020b60048036038101906102069190618fa9565b610858565b6040516102189190618ee6565b60405180910390f35b61023b60048036038101906102369190619033565b61090b565b005b610245610c4d565b6040516102529190619111565b60405180910390f35b6102756004803603810190610270919061912d565b610cac565b6040516102829190618d1f565b60405180910390f35b6102a560048036038101906102a0919061916d565b610cd1565b6040516102b3929190618c93565b60405180910390f35b6102d660048036038101906102d191906191d9565b610d28565b6040516102e3919061923d565b60405180910390f35b61030660048036038101906103019190619258565b610ea1565b6040516103139190618d1f565b60405180910390f35b610336600480360381019061033191906192ab565b61102f565b6040516103439190618ee6565b60405180910390f35b61036660048036038101906103619190619347565b611063565b6040516103739190619413565b60405180910390f35b61039660048036038101906103919190619435565b6115b2565b6040516103a39190618ee6565b60405180910390f35b6103c660048036038101906103c191906194d2565b6115e6565b6040516103d39190618ee6565b60405180910390f35b6103e461161a565b6040516103f19190618d1f565b60405180910390f35b610414600480360381019061040f919061958d565b61163e565b604051610421919061960c565b60405180910390f35b6104326116be565b60405161043f9190619686565b60405180910390f35b610462600480360381019061045d91906194d2565b6116e2565b60405161046f9190618ee6565b60405180910390f35b610492600480360381019061048d91906196a1565b611716565b60405161049f9190618ee6565b60405180910390f35b6000806000856040516020016104be91906197f3565b604051602081830303815290604052805190602001209050600080600083815260200190815260200160002090506104f58761090b565b600080600080610506858b8b6117c9565b9350935093509350896040015115610539578288610524919061983d565b97508387610532919061983d565b9650610556565b8388610545919061983d565b97508287610553919061983d565b96505b87600160008d6000015173ffffffffffffffffffffffffffffffffffffffff1673ffffffffffffffffffffffffffffffffffffffff16815260200190815260200160002060008c6000015173ffffffffffffffffffffffffffffffffffffffff1673ffffffffffffffffffffffffffffffffffffffff16815260200190815260200160002060008282546105ea919061983d565b9250508190555086600160008d6020015173ffffffffffffffffffffffffffffffffffffffff1673ffffffffffffffffffffffffffffffffffffffff16815260200190815260200160002060008c6000015173ffffffffffffffffffffffffffffffffffffffff1673ffffffffffffffffffffffffffffffffffffffff1681526020019081526020016000206000828254610685919061983d565b9250508190555060008913156106db576106da33308b8d604001516106ae578e602001516106b4565b8e600001515b73ffffffffffffffffffffffffffffffffffffffff16611ba1909392919063ffffffff16565b5b896000015173ffffffffffffffffffffffffffffffffffffffff16867f0419b3b20aa8f170fc09bc80fa2437166bce38232cb28c36a035b65c79742a098c602001518d604001518686604051610734949392919061988f565b60405180910390a3505050505050935093915050565b6000806000838152602001908152602001600020600001549050919050565b60006040517f0a85dc2900000000000000000000000000000000000000000000000000000000815260040160405180910390fd5b60007f000000000000000000000000000000000000000000000000000000000000000073ffffffffffffffffffffffffffffffffffffffff163373ffffffffffffffffffffffffffffffffffffffff1614610824576040517fae18210a00000000000000000000000000000000000000000000000000000000815260040160405180910390fd5b6108456108408680360381019061083b9190619033565b611cf9565b611d3a565b633440d82060e01b905095945050505050565b60007f000000000000000000000000000000000000000000000000000000000000000073ffffffffffffffffffffffffffffffffffffffff163373ffffffffffffffffffffffffffffffffffffffff16146108df576040517fae18210a00000000000000000000000000000000000000000000000000000000815260040160405180910390fd5b6108f8858036038101906108f39190619033565b61090b565b63575e24b460e01b905095945050505050565b600061091682611d46565b905060007f000000000000000000000000000000000000000000000000000000000000000073ffffffffffffffffffffffffffffffffffffffff1663c815641c836040518263ffffffff1660e01b815260040161097391906198f5565b608060405180830381865afa158015610990573d6000803e3d6000fd5b505050506040513d601f19601f820116820180604052508101906109b4919061994f565b505050905060008060008481526020019081526020016000209050600080610ad3837f00000000000000000000000000000000000000000000000000000000000000008860405180604001604052808973ffffffffffffffffffffffffffffffffffffffff1681526020017f000000000000000000000000000000000000000000000000000000000000000073ffffffffffffffffffffffffffffffffffffffff1663fa6793d58c6040518263ffffffff1660e01b8152600401610a7891906198f5565b602060405180830381865afa158015610a95573d6000803e3d6000fd5b505050506040513d601f19601f82011682018060405250810190610ab991906199fe565b6fffffffffffffffffffffffffffffffff16815250611d76565b9150915060008173ffffffffffffffffffffffffffffffffffffffff1614158015610b2a57508373ffffffffffffffffffffffffffffffffffffffff168173ffffffffffffffffffffffffffffffffffffffff1614155b15610c45577f000000000000000000000000000000000000000000000000000000000000000073ffffffffffffffffffffffffffffffffffffffff16638154831987604051806060016040528086151581526020017f7fffffffffffffffffffffffffffffffffffffffffffffffffffffffffffffff81526020018573ffffffffffffffffffffffffffffffffffffffff16815250604051602001610bd0929190619a8b565b6040516020818303038152906040526040518263ffffffff1660e01b8152600401610bfb9190619413565b6000604051808303816000875af1158015610c1a573d6000803e3d6000fd5b505050506040513d6000823e3d601f19601f82011682018060405250810190610c439190619b5b565b505b505050505050565b610c55618809565b60405180610100016040528060011515815260200160001515815260200160011515815260200160001515815260200160011515815260200160001515815260200160001515815260200160001515815250905090565b6001602052816000526040600020602052806000526040600020600091509150505481565b6000806000610cef85803603810190610cea9190619033565b611cf9565b905083610d0b5780600501600001548160050160020154610d1c565b806001016000015481600101600201545b92509250509250929050565b60008084604051602001610d3c9190619c90565b60405160208183030381529060405280519060200120905060008060008381526020019081526020016000209050610d8386803603810190610d7e9190619033565b61090b565b60008042876020015173ffffffffffffffffffffffffffffffffffffffff16039050808681610db557610db4619cab565b5b049150610dc38388846120b4565b9450610e2833308385028a60400151610dee578b6020016020810190610de99190619cda565b610e02565b8b6000016020810190610e019190619cda565b5b73ffffffffffffffffffffffffffffffffffffffff16611ba1909392919063ffffffff16565b50856000015173ffffffffffffffffffffffffffffffffffffffff16837ffaaa07ce082dc5fd8da3b5871f3bea299c149b02540be2d1c9169e94a8be84848860200151896040015185610e7b888d6123b7565b60010154604051610e8f949392919061988f565b60405180910390a35050509392505050565b600080610ec38573ffffffffffffffffffffffffffffffffffffffff166123de565b9050600160008673ffffffffffffffffffffffffffffffffffffffff1673ffffffffffffffffffffffffffffffffffffffff16815260200190815260200160002060003373ffffffffffffffffffffffffffffffffffffffff1673ffffffffffffffffffffffffffffffffffffffff16815260200190815260200160002054915060008314158015610f5457508183105b15610f5d578291505b81811015610f69578091505b81600160008773ffffffffffffffffffffffffffffffffffffffff1673ffffffffffffffffffffffffffffffffffffffff16815260200190815260200160002060003373ffffffffffffffffffffffffffffffffffffffff1673ffffffffffffffffffffffffffffffffffffffff1681526020019081526020016000206000828254610ff59190619d07565b9250508190555061102784838773ffffffffffffffffffffffffffffffffffffffff1661248e9092919063ffffffff16565b509392505050565b60006040517f0a85dc2900000000000000000000000000000000000000000000000000000000815260040160405180910390fd5b60607f000000000000000000000000000000000000000000000000000000000000000073ffffffffffffffffffffffffffffffffffffffff163373ffffffffffffffffffffffffffffffffffffffff16146110ea576040517fae18210a00000000000000000000000000000000000000000000000000000000815260040160405180910390fd5b60008084848101906110fc9190619d9f565b9150915060007f000000000000000000000000000000000000000000000000000000000000000073ffffffffffffffffffffffffffffffffffffffff1663f3cd914c8484604051806020016040528060008152506040518463ffffffff1660e01b815260040161116e93929190619de0565b6020604051808303816000875af115801561118d573d6000803e3d6000fd5b505050506040513d601f19601f820116820180604052508101906111b19190619e35565b90508160000151156113ac5760006111c882612526565b600f0b13156112dc5761123a7f00000000000000000000000000000000000000000000000000000000000000006111fe83612526565b6fffffffffffffffffffffffffffffffff16856000015173ffffffffffffffffffffffffffffffffffffffff166125339092919063ffffffff16565b7f000000000000000000000000000000000000000000000000000000000000000073ffffffffffffffffffffffffffffffffffffffff16636a256b2984600001516040518263ffffffff1660e01b81526004016112979190619e71565b6020604051808303816000875af11580156112b6573d6000803e3d6000fd5b505050506040513d601f19601f820116820180604052508101906112da9190619ea1565b505b60006112e782612635565b600f0b12156113a7577f000000000000000000000000000000000000000000000000000000000000000073ffffffffffffffffffffffffffffffffffffffff16630b0d9c0984602001513061133b85612635565b61134490619edb565b6fffffffffffffffffffffffffffffffff166040518463ffffffff1660e01b815260040161137493929190619f32565b600060405180830381600087803b15801561138e57600080fd5b505af11580156113a2573d6000803e3d6000fd5b505050505b611597565b60006113b782612635565b600f0b13156114cb576114297f00000000000000000000000000000000000000000000000000000000000000006113ed83612635565b6fffffffffffffffffffffffffffffffff16856020015173ffffffffffffffffffffffffffffffffffffffff166125339092919063ffffffff16565b7f000000000000000000000000000000000000000000000000000000000000000073ffffffffffffffffffffffffffffffffffffffff16636a256b2984602001516040518263ffffffff1660e01b81526004016114869190619e71565b6020604051808303816000875af11580156114a5573d6000803e3d6000fd5b505050506040513d601f19601f820116820180604052508101906114c99190619ea1565b505b60006114d682612526565b600f0b1215611596577f000000000000000000000000000000000000000000000000000000000000000073ffffffffffffffffffffffffffffffffffffffff16630b0d9c0984600001513061152a85612526565b61153390619edb565b6fffffffffffffffffffffffffffffffff166040518463ffffffff1660e01b815260040161156393929190619f32565b600060405180830381600087803b15801561157d57600080fd5b505af1158015611591573d6000803e3d6000fd5b505050505b5b60405180602001604052806000815250935050505092915050565b60006040517f0a85dc2900000000000000000000000000000000000000000000000000000000815260040160405180910390fd5b60006040517f0a85dc2900000000000000000000000000000000000000000000000000000000815260040160405180910390fd5b7f000000000000000000000000000000000000000000000000000000000000000081565b61164661885e565b6116976000808560405160200161165d9190619c90565b604051602081830303815290604052805190602001208152602001908152602001600020838036038101906116929190619f69565b6123b7565b60405180604001604052908160008201548152602001600182015481525050905092915050565b7f000000000000000000000000000000000000000000000000000000000000000081565b60006040517f0a85dc2900000000000000000000000000000000000000000000000000000000815260040160405180910390fd5b60007f000000000000000000000000000000000000000000000000000000000000000073ffffffffffffffffffffffffffffffffffffffff163373ffffffffffffffffffffffffffffffffffffffff161461179d576040517fae18210a00000000000000000000000000000000000000000000000000000000815260040160405180910390fd5b6117b6858036038101906117b19190619033565b61090b565b63fe9a6f4560e01b905095945050505050565b60008060008060006117db88886123b7565b9050600087604001516117f157886005016117f6565b886001015b90503373ffffffffffffffffffffffffffffffffffffffff16886000015173ffffffffffffffffffffffffffffffffffffffff1614611872578760000151336040517fe2aaff73000000000000000000000000000000000000000000000000000000008152600401611869929190619f96565b60405180910390fd5b60008260000154036118bb57876040517f9044eb270000000000000000000000000000000000000000000000000000000081526004016118b2919061a010565b60405180910390fd5b600087141580156118e6575042886020015173ffffffffffffffffffffffffffffffffffffffff1611155b1561192857876040517f0918b28900000000000000000000000000000000000000000000000000000000815260040161191f919061a010565b60405180910390fd5b600082600101548260020154039050606060ff1683600001548202901c96508160020154935083836001018190555042896020015173ffffffffffffffffffffffffffffffffffffffff16116119a9578960090160006119878b61263f565b8152602001908152602001600020600080820160009055600182016000905550505b60008814611b95576000428a6020015173ffffffffffffffffffffffffffffffffffffffff1603905060008185600001540290507fffffffffffffffffffffffffffffffffffffffffffffffffffffffffffffffff8a03611a1357611a0d8161266f565b60000399505b60008a611a1f8361266f565b0190506000811215611a6c578b828c6040517fa26087fe000000000000000000000000000000000000000000000000000000008152600401611a639392919061a03a565b60405180910390fd5b828181611a7c57611a7b619cab565b5b04975060008b1215611aee576000888760000154039050808660000160008282540392505081905550808660010160008f6020015173ffffffffffffffffffffffffffffffffffffffff168152602001908152602001600020600082825403925050819055508b600003995050611b4a565b6000866000015489039050808660000160008282540192505081905550808660010160008f6020015173ffffffffffffffffffffffffffffffffffffffff16815260200190815260200160002060008282540192505081905550505b60008803611b87578c6009016000611b618e61263f565b815260200190815260200160002060008082016000905560018201600090555050611b91565b8786600001819055505b5050505b50505093509350935093565b6000808573ffffffffffffffffffffffffffffffffffffffff166323b872dd60e01b868686604051602401611bd89392919061a071565b604051602081830303815290604052907bffffffffffffffffffffffffffffffffffffffffffffffffffffffff19166020820180517bffffffffffffffffffffffffffffffffffffffffffffffffffffffff8381831617835250505050604051611c42919061a0e4565b6000604051808303816000865af19150503d8060008114611c7f576040519150601f19603f3d011682016040523d82523d6000602084013e611c84565b606091505b5091509150818015611cb25750600081511480611cb1575080806020019051810190611cb0919061a110565b5b5b611cf1576040517f08c379a0000000000000000000000000000000000000000000000000000000008152600401611ce89061a19a565b60405180910390fd5b505050505050565b600080600083604051602001611d0f91906197f3565b6040516020818303038152906040528051906020012081526020019081526020016000209050919050565b42816000018190555050565b600081604051602001611d5991906197f3565b604051602081830303815290604052805190602001209050919050565b600080611d82866126a6565b611d9b57428660000181905550600080915091506120ab565b60008360000151905060008760000154905060007f000000000000000000000000000000000000000000000000000000000000000082611ddb919061a1ba565b7f0000000000000000000000000000000000000000000000000000000000000000611e069190619d07565b82611e11919061983d565b9050600089600101905060008a60050190505b428311611f75576000826001016000858152602001908152602001600020541180611e645750600081600101600085815260200190815260200160002054115b15611f42576000826000015414158015611e8357506000816000015414155b15611edd57611ed68b8b8b60405180608001604052807f0000000000000000000000000000000000000000000000000000000000000000815260200188815260200189890381526020018d8152506126cd565b9750611f3e565b611f3b8b8b8b6040518060a001604052807f0000000000000000000000000000000000000000000000000000000000000000815260200188815260200189890381526020018d815260200160008860000154141515158152506128e2565b97505b8293505b7f000000000000000000000000000000000000000000000000000000000000000083019250611f708b6126a6565b611e24575b4284108015611f895750611f888b6126a6565b5b15612064576000826000015414158015611fa857506000816000015414155b1561200257611ffb8b8b8b60405180608001604052807f0000000000000000000000000000000000000000000000000000000000000000815260200142815260200189420381526020018d8152506126cd565b9750612063565b6120608b8b8b6040518060a001604052807f0000000000000000000000000000000000000000000000000000000000000000815260200142815260200189420381526020018d815260200160008860000154141515158152506128e2565b97505b5b428b60000181905550876000015195508573ffffffffffffffffffffffffffffffffffffffff168573ffffffffffffffffffffffffffffffffffffffff1611965050505050505b94509492505050565b60003373ffffffffffffffffffffffffffffffffffffffff16836000015173ffffffffffffffffffffffffffffffffffffffff1614612130578260000151336040517fe2aaff73000000000000000000000000000000000000000000000000000000008152600401612127929190619f96565b60405180910390fd5b600084600001540361216e576040517f87138d5c00000000000000000000000000000000000000000000000000000000815260040160405180910390fd5b42836020015173ffffffffffffffffffffffffffffffffffffffff16116121d05782602001516040517fcd87c18d0000000000000000000000000000000000000000000000000000000081526004016121c7919061a21c565b60405180910390fd5b6000820361220a576040517f7832636900000000000000000000000000000000000000000000000000000000815260040160405180910390fd5b60007f0000000000000000000000000000000000000000000000000000000000000000846020015173ffffffffffffffffffffffffffffffffffffffff16612252919061a1ba565b146122985782602001516040517fa643559c00000000000000000000000000000000000000000000000000000000815260040161228f919061a21c565b60405180910390fd5b6122a18361263f565b90506000846009016000838152602001908152602001600020600001541461230057826040517f04a9e54d0000000000000000000000000000000000000000000000000000000081526004016122f7919061a010565b60405180910390fd5b600083604001516123145784600501612319565b846001015b905082816000016000828254019250508190555082816001016000866020015173ffffffffffffffffffffffffffffffffffffffff16815260200190815260200160002060008282540192505081905550604051806040016040528084815260200182600201548152508560090160008481526020019081526020016000206000820151816000015560208201518160010155905050509392505050565b60008260090160006123c88461263f565b8152602001908152602001600020905092915050565b60006123ff8273ffffffffffffffffffffffffffffffffffffffff16612c0e565b1561240c57479050612489565b8173ffffffffffffffffffffffffffffffffffffffff166370a08231306040518263ffffffff1660e01b8152600401612445919061a237565b602060405180830381865afa158015612462573d6000803e3d6000fd5b505050506040513d601f19601f820116820180604052508101906124869190619ea1565b90505b919050565b60006040517fa9059cbb000000000000000000000000000000000000000000000000000000008152836004820152826024820152602060006044836000895af13d15601f3d1160016000511416171691505080612520576040517f08c379a00000000000000000000000000000000000000000000000000000000081526004016125179061a29e565b60405180910390fd5b50505050565b60008160801c9050919050565b60006125548473ffffffffffffffffffffffffffffffffffffffff16612c0e565b156125a15760008060008085875af190508061259c576040517ff4b3b1bc00000000000000000000000000000000000000000000000000000000815260040160405180910390fd5b61262f565b6040517fa9059cbb000000000000000000000000000000000000000000000000000000006000528360045282602452602060006044600080895af13d15601f3d116001600051141617169150600060605280604052508061262e576040517ff27f64e400000000000000000000000000000000000000000000000000000000815260040160405180910390fd5b5b50505050565b6000819050919050565b600081604051602001612652919061a010565b604051602081830303815290604052805190602001209050919050565b60007f7fffffffffffffffffffffffffffffffffffffffffffffffffffffffffffffff82111561269e57600080fd5b819050919050565b60008082600101600001541415806126c657506000826005016000015414155b9050919050565b6126d5618878565b6000806c0100000000000000000000000084604001516126f5919061a2be565b9050600087600101905060008860050190505b6001156128cf5760006040518060a0016040528085815260200188606001516000015173ffffffffffffffffffffffffffffffffffffffff1681526020018860600151602001516fffffffffffffffffffffffffffffffff168152602001846000015481526020018360000154815250905061278381612c46565b945060008061279889606001518c8c8a612f88565b9150915081156127f25760006127db8d8d8d60405180608001604052808760020b81526020018f6020015181526020018c81526020018f606001518152506130a6565b8b60600181935082905250508087039650506128c7565b6000806127ff858a6132dc565b9150915060008b600001518c602001518161281d5761281c619cab565b5b060361285a5761283c8b6020015183896135ed9092919063ffffffff16565b6128558b6020015182886135ed9092919063ffffffff16565b612881565b61286d828861364990919063ffffffff16565b612880818761364990919063ffffffff16565b5b888b606001516000019073ffffffffffffffffffffffffffffffffffffffff16908173ffffffffffffffffffffffffffffffffffffffff168152505050505050506128cf565b505050612708565b8560600151945050505050949350505050565b6128ea618878565b600082608001516128fe5785600501612903565b856001015b90506000816000015490506000846040015182612920919061a2be565b905060005b600115612bfb57600061294e876060015160000151886060015160200151858a6080015161365f565b905060008061296389606001518c8c86612f88565b915091508115612ad55760006129a261297b8c611d46565b838e73ffffffffffffffffffffffffffffffffffffffff166136d19092919063ffffffff16565b905060006129af836137c9565b905060006129d08c6060015160000151838e60600151602001516001613bd5565b905060006129f18d6060015160000151848f60600151602001516001613d12565b90508c60800151612a1e5783612a0690619edb565b8d6060015160200151612a19919061a300565b612a33565b838d6060015160200151612a32919061a344565b5b8d60600151602001906fffffffffffffffffffffffffffffffff1690816fffffffffffffffffffffffffffffffff1681525050828d606001516000019073ffffffffffffffffffffffffffffffffffffffff16908173ffffffffffffffffffffffffffffffffffffffff16815250508c60800151612ab15781612ab3565b805b880197508c60800151612ac65780612ac8565b815b8903985050505050612bf3565b886080015115612b0e57612afc896060015160000151848b60600151602001516001613d12565b84612b07919061983d565b9350612b39565b612b2b896060015160000151848b60600151602001516001613bd5565b84612b36919061983d565b93505b6000866c0100000000000000000000000086612b55919061a2be565b612b5f919061a388565b905060008a600001518b60200151612b77919061a1ba565b03612b9a57612b958a60200151828a6135ed9092919063ffffffff16565b612bae565b612bad818961364990919063ffffffff16565b5b838a606001516000019073ffffffffffffffffffffffffffffffffffffffff16908173ffffffffffffffffffffffffffffffffffffffff168152505050505050612bfb565b505050612925565b8560600151945050505050949350505050565b60008073ffffffffffffffffffffffffffffffffffffffff168273ffffffffffffffffffffffffffffffffffffffff16149050919050565b600080612c568360600151613dfe565b90506000612c678460800151613dfe565b90506000612cac612c9483856fffffffffffffffffffffffffffffffff1916613e7b90919063ffffffff16565b6fffffffffffffffffffffffffffffffff1916614306565b90506000612d296f405f000000000000000000000000000060801b612d08612cf087876fffffffffffffffffffffffffffffffff19166145c690919063ffffffff16565b6fffffffffffffffffffffffffffffffff1916614306565b6fffffffffffffffffffffffffffffffff1916613e7b90919063ffffffff16565b905060006040518060a00160405280612d716f405f000000000000000000000000000060801b856fffffffffffffffffffffffffffffffff19166145c690919063ffffffff16565b6fffffffffffffffffffffffffffffffff19168152602001846fffffffffffffffffffffffffffffffff19168152602001612de76f405f000000000000000000000000000060801b612dc68b60000151613dfe565b6fffffffffffffffffffffffffffffffff19166145c690919063ffffffff16565b6fffffffffffffffffffffffffffffffff19168152602001612e5a6f405f000000000000000000000000000060801b612e398b6020015173ffffffffffffffffffffffffffffffffffffffff16613dfe565b6fffffffffffffffffffffffffffffffff19166145c690919063ffffffff16565b6fffffffffffffffffffffffffffffffff19168152602001612e9189604001516fffffffffffffffffffffffffffffffff16613dfe565b6fffffffffffffffffffffffffffffffff191681525090506000612eec6f405f000000000000000000000000000060801b612ecb84614a87565b6fffffffffffffffffffffffffffffffff1916613e7b90919063ffffffff16565b90506000612f0c826fffffffffffffffffffffffffffffffff1916614c6d565b80612f2f5750612f2e826fffffffffffffffffffffffffffffffff1916614cb0565b5b9050600081612f3e5782612f40565b845b9050612f79612f74612f5c8c608001518d606001511184614cf3565b6fffffffffffffffffffffffffffffffff1916614dc7565b614ec5565b98505050505050505050919050565b600080612fae866000015173ffffffffffffffffffffffffffffffffffffffff16614ef1565b90506000612fd18473ffffffffffffffffffffffffffffffffffffffff16614ef1565b90506000876000015173ffffffffffffffffffffffffffffffffffffffff168573ffffffffffffffffffffffffffffffffffffffff1610905060005b8061308f57811561301f576001840393505b61305a61302b88611d46565b858960600151858c73ffffffffffffffffffffffffffffffffffffffff166152b190949392919063ffffffff16565b809650819550505081613075578260020b8460020b13613080565b8260020b8460020b13155b9050600115158515150361300d575b801561309a57600094505b50505094509492505050565b6130ae618878565b6000806130c1846000015160020b6137c9565b905060006131028560600151602001516fffffffffffffffffffffffffffffffff16866060015160000151848b600101600001548c600501600001546153fc565b905060008061317d6040518060a0016040528085815260200189606001516000015173ffffffffffffffffffffffffffffffffffffffff1681526020018960600151602001516fffffffffffffffffffffffffffffffff1681526020018c6001016000015481526020018c60050160000154815250856132dc565b91509150613197828b60010161364990919063ffffffff16565b6131ad818b60050161364990919063ffffffff16565b60006131e66131bb8a611d46565b89600001518c73ffffffffffffffffffffffffffffffffffffffff166136d19092919063ffffffff16565b905087606001516000015173ffffffffffffffffffffffffffffffffffffffff168573ffffffffffffffffffffffffffffffffffffffff16101561322b578060000390505b600081600f0b12613246578088606001516020015101613255565b80600003886060015160200151035b8860600151602001906fffffffffffffffffffffffffffffffff1690816fffffffffffffffffffffffffffffffff16815250508488606001516000019073ffffffffffffffffffffffffffffffffffffffff16908173ffffffffffffffffffffffffffffffffffffffff168152505050866060015183955095505050505094509492505050565b60008060006132ee8560600151613dfe565b905060006132ff8660800151613dfe565b9050600061332983836fffffffffffffffffffffffffffffffff19166145c690919063ffffffff16565b9050600061336e61335684866fffffffffffffffffffffffffffffffff1916613e7b90919063ffffffff16565b6fffffffffffffffffffffffffffffffff1916614306565b905060006040518060c001604052806133c26f405f000000000000000000000000000060801b6133a18d60000151613dfe565b6fffffffffffffffffffffffffffffffff19166145c690919063ffffffff16565b6fffffffffffffffffffffffffffffffff19168152602001846fffffffffffffffffffffffffffffffff19168152602001836fffffffffffffffffffffffffffffffff191681526020016134676f405f000000000000000000000000000060801b6134468d6020015173ffffffffffffffffffffffffffffffffffffffff16613dfe565b6fffffffffffffffffffffffffffffffff19166145c690919063ffffffff16565b6fffffffffffffffffffffffffffffffff191681526020016134d66f405f000000000000000000000000000060801b6134b58c73ffffffffffffffffffffffffffffffffffffffff16613dfe565b6fffffffffffffffffffffffffffffffff19166145c690919063ffffffff16565b6fffffffffffffffffffffffffffffffff1916815260200161350d8b604001516fffffffffffffffffffffffffffffffff16613dfe565b6fffffffffffffffffffffffffffffffff191681525090506135816135696f405f000000000000000000000000000060801b61354884615620565b6fffffffffffffffffffffffffffffffff1916613e7b90919063ffffffff16565b6fffffffffffffffffffffffffffffffff1916614dc7565b96506135df6135c76f405f000000000000000000000000000060801b6135a68461574a565b6fffffffffffffffffffffffffffffffff1916613e7b90919063ffffffff16565b6fffffffffffffffffffffffffffffffff1916614dc7565b955050505050509250929050565b808360020160008282540192505081905550826002015483600301600084815260200190815260200160002081905550826001016000838152602001908152602001600020548360000160008282540392505081905550505050565b8082600201600082825401925050819055505050565b6000808573ffffffffffffffffffffffffffffffffffffffff161161368357600080fd5b6000846fffffffffffffffffffffffffffffffff16116136a257600080fd5b816136b9576136b4858585600161588c565b6136c7565b6136c68585856001615a02565b5b9050949350505050565b6000808473ffffffffffffffffffffffffffffffffffffffff16631e2eaeaf84600487600a60405160200161370792919061a3b9565b6040516020818303038152906040528051906020012060001c61372a919061983d565b60405160200161373b92919061a3f1565b604051602081830303815290604052805190602001206040518263ffffffff1660e01b815260040161376d919061923d565b602060405180830381865afa15801561378a573d6000803e3d6000fd5b505050506040513d601f19601f820116820180604052508101906137ae919061a446565b905060018060801b0360801b811660801c9150509392505050565b60008060008360020b126137e0578260020b6137e8565b8260020b6000035b90507ffffffffffffffffffffffffffffffffffffffffffffffffffffffffffff2761860000360020b81111561384a576040517fce8ef7fc00000000000000000000000000000000000000000000000000000000815260040160405180910390fd5b600080600183160361386d5770010000000000000000000000000000000061387f565b6ffffcb933bd6fad37aa2d162d1a5940015b70ffffffffffffffffffffffffffffffffff169050600060028316146138b95760806ffff97272373d413259a46990580e213a8202901c90505b600060048316146138de5760806ffff2e50f5f656932ef12357cf3c7fdcc8202901c90505b600060088316146139035760806fffe5caca7e10e4e61c3624eaa0941cd08202901c90505b600060108316146139285760806fffcb9843d60f6159c9db58835c9266448202901c90505b6000602083161461394d5760806fff973b41fa98c081472e6896dfb254c08202901c90505b600060408316146139725760806fff2ea16466c96a3843ec78b326b528618202901c90505b600060808316146139975760806ffe5dee046a99a2a811c461f1969c30538202901c90505b60006101008316146139bd5760806ffcbe86c7900a88aedcffc83b479aa3a48202901c90505b60006102008316146139e35760806ff987a7253ac413176f2b074cf7815e548202901c90505b6000610400831614613a095760806ff3392b0822b70005940c7a398e4b70f38202901c90505b6000610800831614613a2f5760806fe7159475a2c29b7443b29c7fa6e889d98202901c90505b6000611000831614613a555760806fd097f3bdfd2022b8845ad8f792aa58258202901c90505b6000612000831614613a7b5760806fa9f746462d870fdf8a65dc1f90e061e58202901c90505b6000614000831614613aa15760806f70d869a156d2a1b890bb3df62baf32f78202901c90505b6000618000831614613ac75760806f31be135f97d08fd981231505542fcfa68202901c90505b600062010000831614613aee5760806f09aa508b5b7a84e1c677de54f3e99bc98202901c90505b600062020000831614613b145760806e5d6af8dedb81196699c329225ee6048202901c90505b600062040000831614613b395760806d2216e584f5fa1ea926041bedfe988202901c90505b600062080000831614613b5c5760806b048a170391f7dc42444e8fa28202901c90505b60008460020b1315613b9c57807fffffffffffffffffffffffffffffffffffffffffffffffffffffffffffffffff81613b9857613b97619cab565b5b0490505b60006401000000008281613bb357613bb2619cab565b5b0614613bc0576001613bc3565b60005b60ff16602082901c0192505050919050565b60008373ffffffffffffffffffffffffffffffffffffffff168573ffffffffffffffffffffffffffffffffffffffff161115613c1657838580955081965050505b6000606060ff16846fffffffffffffffffffffffffffffffff16901b9050600086860373ffffffffffffffffffffffffffffffffffffffff16905060008773ffffffffffffffffffffffffffffffffffffffff1611613c7457600080fd5b83613cc5578673ffffffffffffffffffffffffffffffffffffffff16613cb183838973ffffffffffffffffffffffffffffffffffffffff16615b93565b81613cbf57613cbe619cab565b5b04613d06565b613d05613ce983838973ffffffffffffffffffffffffffffffffffffffff16615c5f565b8873ffffffffffffffffffffffffffffffffffffffff16615cc4565b5b92505050949350505050565b60008373ffffffffffffffffffffffffffffffffffffffff168573ffffffffffffffffffffffffffffffffffffffff161115613d5357838580955081965050505b81613da857613da3836fffffffffffffffffffffffffffffffff168686613d7a919061a473565b73ffffffffffffffffffffffffffffffffffffffff166c01000000000000000000000000615b93565b613df4565b613df3836fffffffffffffffffffffffffffffffff168686613dca919061a473565b73ffffffffffffffffffffffffffffffffffffffff166c01000000000000000000000000615c5f565b5b9050949350505050565b6000808203613e1357600060801b9050613e76565b60008290506000613e2382615cd7565b90506070811015613e3c578060700382901b9150613e50565b6070811115613e4f576070810382901c91505b5b607081613fff01901b6dffffffffffffffffffffffffffff83161791508160801b925050505b919050565b600080617fff60708560801c6fffffffffffffffffffffffffffffffff16901c166fffffffffffffffffffffffffffffffff1690506000617fff60708560801c6fffffffffffffffffffffffffffffffff16901c166fffffffffffffffffffffffffffffffff169050617fff820361400d57617fff8103613f9c57836fffffffffffffffffffffffffffffffff1916856fffffffffffffffffffffffffffffffff191603613f44576f8000000000000000000000000000000060801b8416851892505050614300565b6f8000000000000000000000000000000060801b8486186fffffffffffffffffffffffffffffffff191603613f7f5783851792505050614300565b6f7fff800000000000000000000000000060801b92505050614300565b600060801b6f7fffffffffffffffffffffffffffffff60801b85166fffffffffffffffffffffffffffffffff191603613fec576f7fff800000000000000000000000000060801b92505050614300565b6f8000000000000000000000000000000060801b8416851892505050614300565b617fff810361408757600060801b6f7fffffffffffffffffffffffffffffff60801b86166fffffffffffffffffffffffffffffffff191603614066576f7fff800000000000000000000000000060801b92505050614300565b6f8000000000000000000000000000000060801b8516841892505050614300565b60006dffffffffffffffffffffffffffff8660801c166fffffffffffffffffffffffffffffffff169050600083036140c257600192506140d7565b6e010000000000000000000000000000811790505b60006dffffffffffffffffffffffffffff8660801c166fffffffffffffffffffffffffffffffff169050600083036141125760019250614127565b6e010000000000000000000000000000811790505b80820291506000820361419357600060801b6f8000000000000000000000000000000060801b878918166fffffffffffffffffffffffffffffffff19161161417357600060801b614188565b6f8000000000000000000000000000000060801b5b945050505050614300565b828401935060007c02000000000000000000000000000000000000000000000000000000008310156141fa577c01000000000000000000000000000000000000000000000000000000008310156141f2576141ed83615cd7565b6141f5565b60e05b6141fd565b60e15b905061407081860110156142185760009450600092506142c0565b6140e0818601101561425c5761407085101561423d57846140700383901c9250614253565b61407085111561425257614070850383901b92505b5b600094506142bf565b61c0dd818601111561427657617fff9450600092506142be565b607081111561428d576070810383901c92506142a1565b60708110156142a0578060700383901b92505b5b6dffffffffffffffffffffffffffff831692506140df8186010394505b5b5b82607086901b6f8000000000000000000000000000000060801b898b181660801c6fffffffffffffffffffffffffffffffff16171760801b955050505050505b92915050565b60006f800000000000000000000000000000008260801c6fffffffffffffffffffffffffffffffff161115614350576f7fff800000000000000000000000000060801b90506145c1565b6000617fff60708460801c6fffffffffffffffffffffffffffffffff16901c166fffffffffffffffffffffffffffffffff169050617fff810361439657829150506145c1565b60006dffffffffffffffffffffffffffff8460801c166fffffffffffffffffffffffffffffffff169050600082036143d157600191506143e6565b6e010000000000000000000000000000811790505b600081036143fc57600060801b925050506145c1565b600080600184161490506001613fff8401901c9250801561446b576e010000000000000000000000000000821061443957607182901b9150614466565b600061444483615cd7565b9050600060fe8260e2031690508084901b9350600160708203901c8503945050505b6144bb565b6e010000000000000000000000000000821061448d57607082901b91506144ba565b600061449883615cd7565b9050600060fe8260e1031690508084901b9350600160708203901c8503945050505b5b60006e010000000000000000000000000000905060018184816144e1576144e0619cab565b5b048201901c905060018184816144fa576144f9619cab565b5b048201901c9050600181848161451357614512619cab565b5b048201901c9050600181848161452c5761452b619cab565b5b048201901c9050600181848161454557614544619cab565b5b048201901c9050600181848161455e5761455d619cab565b5b048201901c9050600181848161457757614576619cab565b5b048201901c905060008184816145905761458f619cab565b5b0490508181101561459f578091505b6dffffffffffffffffffffffffffff8216607086901b1760801b955050505050505b919050565b600080617fff60708560801c6fffffffffffffffffffffffffffffffff16901c166fffffffffffffffffffffffffffffffff1690506000617fff60708560801c6fffffffffffffffffffffffffffffffff16901c166fffffffffffffffffffffffffffffffff169050617fff820361467f57617fff810361465e576f7fff800000000000000000000000000060801b92505050614a81565b6f8000000000000000000000000000000060801b8416851892505050614a81565b617fff81036146fd57600060801b6dffffffffffffffffffffffffffff60801b85166fffffffffffffffffffffffffffffffff1916146146d6576f7fff800000000000000000000000000060801b92505050614a81565b6f8000000000000000000000000000000060801b84861816600060801b1792505050614a81565b600060801b6f7fffffffffffffffffffffffffffffff60801b85166fffffffffffffffffffffffffffffffff1916036147b657600060801b6f7fffffffffffffffffffffffffffffff60801b86166fffffffffffffffffffffffffffffffff191603614780576f7fff800000000000000000000000000060801b92505050614a81565b6f8000000000000000000000000000000060801b848618166f7fff000000000000000000000000000060801b1792505050614a81565b60006dffffffffffffffffffffffffffff8560801c166fffffffffffffffffffffffffffffffff169050600082036147f15760019150614806565b6e010000000000000000000000000000811790505b60006dffffffffffffffffffffffffffff8760801c166fffffffffffffffffffffffffffffffff16905060008403614869576000811461486457600061484b82615cd7565b60e20390508082901b9150600194506072810384019350505b614882565b60726e0100000000000000000000000000008217901b90505b81818161489257614891619cab565b5b049050600081036148fc57600060801b6f8000000000000000000000000000000060801b878918166fffffffffffffffffffffffffffffffff1916116148dc57600060801b6148f1565b6f8000000000000000000000000000000060801b5b945050505050614a81565b6d100000000000000000000000000081101561491b5761491a61a4bb565b5b60006e08000000000000000000000000000082101561497c576e040000000000000000000000000000821015614971576e02000000000000000000000000000082101561496957607061496c565b60715b614974565b60725b60ff16614986565b61498582615cd7565b5b9050614071840181860111156149a457617fff945060009150614a41565b83613ffc8287010110156149bf576000945060009150614a40565b83613f8c828701011015614a0d5783613ffc860111156149ea5783613ffc86010382901b9150614a04565b83613ffc86011015614a0357613ffc8585030382901c91505b5b60009450614a3f565b6070811115614a20576070810382901c91505b6dffffffffffffffffffffffffffff8216915083613f8d828701010394505b5b5b81607086901b6f8000000000000000000000000000000060801b898b181660801c6fffffffffffffffffffffffffffffffff16171760801b955050505050505b92915050565b600080614b0f8360800151614aee8560400151614acd8760200151614aac6002613dfe565b6fffffffffffffffffffffffffffffffff1916613e7b90919063ffffffff16565b6fffffffffffffffffffffffffffffffff1916613e7b90919063ffffffff16565b6fffffffffffffffffffffffffffffffff19166145c690919063ffffffff16565b90506000614b93614b44856060015186600001516fffffffffffffffffffffffffffffffff1916615db890919063ffffffff16565b614b72866060015187600001516fffffffffffffffffffffffffffffffff191661641090919063ffffffff16565b6fffffffffffffffffffffffffffffffff19166145c690919063ffffffff16565b9050614c64614bd982614bb8856fffffffffffffffffffffffffffffffff1916616439565b6fffffffffffffffffffffffffffffffff1916615db890919063ffffffff16565b614c43614c1d84614bfc876fffffffffffffffffffffffffffffffff1916616439565b6fffffffffffffffffffffffffffffffff191661641090919063ffffffff16565b87600001516fffffffffffffffffffffffffffffffff1916613e7b90919063ffffffff16565b6fffffffffffffffffffffffffffffffff19166145c690919063ffffffff16565b92505050919050565b60006f7fff00000000000000000000000000006f7fffffffffffffffffffffffffffffff8360801c166fffffffffffffffffffffffffffffffff16149050919050565b60006f7fff00000000000000000000000000006f7fffffffffffffffffffffffffffffff8360801c166fffffffffffffffffffffffffffffffff16119050919050565b60008215614d60576001614d36836f401f000276a40000000000000000000060801b6fffffffffffffffffffffffffffffffff191661646790919063ffffffff16565b60000b14614d445781614d59565b6f401f000276a40000000000000000000060801b5b9050614dc1565b6001614d9b6f409efffb12c7dfa3f8d4a0c91092bb2a60801b846fffffffffffffffffffffffffffffffff191661646790919063ffffffff16565b60000b14614da95781614dbe565b6f409efffb12c7dfa3f8d4a0c91092bb2a60801b5b90505b92915050565b600080617fff60708460801c6fffffffffffffffffffffffffffffffff16901c166fffffffffffffffffffffffffffffffff169050613fff811015614e10576000915050614ec0565b6f800000000000000000000000000000008360801c6fffffffffffffffffffffffffffffffff1610614e4157600080fd5b6140fe811115614e5057600080fd5b60006e0100000000000000000000000000006dffffffffffffffffffffffffffff8560801c6fffffffffffffffffffffffffffffffff161617905061406f821015614ea4578161406f0381901c9050614eba565b61406f821115614eb95761406f820381901b90505b5b80925050505b919050565b6000818291508173ffffffffffffffffffffffffffffffffffffffff1614614eec57600080fd5b919050565b60006401000276a373ffffffffffffffffffffffffffffffffffffffff168273ffffffffffffffffffffffffffffffffffffffff161080614f72575073fffd8963efd1fc6a506488495d951d5263988d2673ffffffffffffffffffffffffffffffffffffffff168273ffffffffffffffffffffffffffffffffffffffff1610155b15614fa9576040517f02ad01b600000000000000000000000000000000000000000000000000000000815260040160405180910390fd5b600060208373ffffffffffffffffffffffffffffffffffffffff16901b9050600081905060006fffffffffffffffffffffffffffffffff821160071b808217915082811c92505067ffffffffffffffff821160061b808217915082811c92505063ffffffff821160051b808217915082811c92505061ffff821160041b808217915082811c92505060ff821160031b808217915082811c925050600f821160021b808217915082811c9250506003821160011b808217915082811c925050600182118082179150506080811061508757607f810383901c9150615091565b80607f0383901b91505b6000604060808303901b9050828302607f1c92508260801c80603f1b8217915083811c935050828302607f1c92508260801c80603e1b8217915083811c935050828302607f1c92508260801c80603d1b8217915083811c935050828302607f1c92508260801c80603c1b8217915083811c935050828302607f1c92508260801c80603b1b8217915083811c935050828302607f1c92508260801c80603a1b8217915083811c935050828302607f1c92508260801c8060391b8217915083811c935050828302607f1c92508260801c8060381b8217915083811c935050828302607f1c92508260801c8060371b8217915083811c935050828302607f1c92508260801c8060361b8217915083811c935050828302607f1c92508260801c8060351b8217915083811c935050828302607f1c92508260801c8060341b8217915083811c935050828302607f1c92508260801c8060331b8217915083811c935050828302607f1c92508260801c8060321b82179150506000693627a301d71055774c8582029050600060806f028f6481ab7f045a5af012a19d003aaa8303901d9050600060806fdb2df09e81959a81455e260799a0632f8401901d90508060020b8260020b146152a1578873ffffffffffffffffffffffffffffffffffffffff16615278826137c9565b73ffffffffffffffffffffffffffffffffffffffff16111561529a578161529c565b805b6152a3565b815b975050505050505050919050565b60008060008460020b8660020b816152cc576152cb619cab565b5b05905060008660020b1280156152fc575060008560020b8760020b816152f5576152f4619cab565b5b0760020b14155b1561530b578080600190039150505b83156153815760008061531d836166f6565b9150915060008160ff166001901b60018360ff166001901b030190506000816153478d8d87616720565b169050600081141595508561536357888360ff16860302615376565b8861536d82616808565b840360ff168603025b9650505050506153f1565b600080615390600184016166f6565b91509150600060018260ff166001901b031990506000816153b28d8d87616720565b16905060008114159550856153d457888360ff0360ff166001870101026153ea565b88836153df836168e3565b0360ff166001870101025b9650505050505b509550959350505050565b60008061540884613dfe565b9050600061541584613dfe565b905060006154388873ffffffffffffffffffffffffffffffffffffffff16613dfe565b9050600061545b8873ffffffffffffffffffffffffffffffffffffffff16613dfe565b905060006154d86f405f000000000000000000000000000060801b6154b761549f88886fffffffffffffffffffffffffffffffff19166145c690919063ffffffff16565b6fffffffffffffffffffffffffffffffff1916614306565b6fffffffffffffffffffffffffffffffff1916613e7b90919063ffffffff16565b9050600061551d61550586886fffffffffffffffffffffffffffffffff1916613e7b90919063ffffffff16565b6fffffffffffffffffffffffffffffffff1916614306565b9050600061552c838686616a0a565b9050600061555e61553c8f613dfe565b836fffffffffffffffffffffffffffffffff1916613e7b90919063ffffffff16565b90506000615591846155706002613dfe565b6fffffffffffffffffffffffffffffffff1916613e7b90919063ffffffff16565b905061560c6155f4826155d36f405f000000000000000000000000000060801b866fffffffffffffffffffffffffffffffff1916613e7b90919063ffffffff16565b6fffffffffffffffffffffffffffffffff19166145c690919063ffffffff16565b6fffffffffffffffffffffffffffffffff1916614dc7565b995050505050505050505095945050505050565b600080615651836000015184602001516fffffffffffffffffffffffffffffffff1916613e7b90919063ffffffff16565b9050600061571984604001516156f861568e876060015188608001516fffffffffffffffffffffffffffffffff191661641090919063ffffffff16565b6156d76156b189602001516fffffffffffffffffffffffffffffffff1916614306565b8960a001516fffffffffffffffffffffffffffffffff1916613e7b90919063ffffffff16565b6fffffffffffffffffffffffffffffffff1916613e7b90919063ffffffff16565b6fffffffffffffffffffffffffffffffff19166145c690919063ffffffff16565b905061574181836fffffffffffffffffffffffffffffffff191661641090919063ffffffff16565b92505050919050565b60008061577b836020015184600001516fffffffffffffffffffffffffffffffff19166145c690919063ffffffff16565b9050600061585b846040015161583a6157c861579a8860600151616b3f565b6157a78960800151616b3f565b6fffffffffffffffffffffffffffffffff191661641090919063ffffffff16565b6158196157f36157ee8a602001516fffffffffffffffffffffffffffffffff1916614306565b616b3f565b8960a001516fffffffffffffffffffffffffffffffff1916613e7b90919063ffffffff16565b6fffffffffffffffffffffffffffffffff1916613e7b90919063ffffffff16565b6fffffffffffffffffffffffffffffffff19166145c690919063ffffffff16565b905061588381836fffffffffffffffffffffffffffffffff191661641090919063ffffffff16565b92505050919050565b6000811561593d57600073ffffffffffffffffffffffffffffffffffffffff80168411156158e3576158de846c01000000000000000000000000876fffffffffffffffffffffffffffffffff16615b93565b615909565b846fffffffffffffffffffffffffffffffff16606060ff1685901b615908919061a388565b5b9050615935818773ffffffffffffffffffffffffffffffffffffffff16615930919061983d565b614ec5565b9150506159fa565b600073ffffffffffffffffffffffffffffffffffffffff801684111561598c57615987846c01000000000000000000000000876fffffffffffffffffffffffffffffffff16615c5f565b6159b0565b6159af606060ff1685901b866fffffffffffffffffffffffffffffffff16615cc4565b5b9050808673ffffffffffffffffffffffffffffffffffffffff16116159d457600080fd5b808673ffffffffffffffffffffffffffffffffffffffff166159f69190619d07565b9150505b949350505050565b6000808303615a1357849050615b8b565b6000606060ff16856fffffffffffffffffffffffffffffffff16901b90508215615afb5760008673ffffffffffffffffffffffffffffffffffffffff16858873ffffffffffffffffffffffffffffffffffffffff16870292508281615a7b57615a7a619cab565b5b0403615abc5760008183019050828110615aba57615ab0838973ffffffffffffffffffffffffffffffffffffffff1683615c5f565b9350505050615b8b565b505b50615af381858873ffffffffffffffffffffffffffffffffffffffff1684615ae4919061a388565b615aee919061983d565b615cc4565b915050615b8b565b60008673ffffffffffffffffffffffffffffffffffffffff16858873ffffffffffffffffffffffffffffffffffffffff16870292508281615b3f57615b3e619cab565b5b04148015615b4c57508082115b615b5557600080fd5b60008183039050615b85615b80848a73ffffffffffffffffffffffffffffffffffffffff1684615c5f565b614ec5565b93505050505b949350505050565b60008083850290506000801985870982811083820303915050808411615bb857600080fd5b60008103615bcc5783820492505050615c58565b600084868809905082811182039150808303925060008586600003169050808604955080840493506001818260000304019050808302841793506000600287600302189050808702600203810290508087026002038102905080870260020381029050808702600203810290508087026002038102905080870260020381029050808502955050505050505b9392505050565b6000615c6c848484615b93565b905060008280615c7f57615c7e619cab565b5b8486091115615cbd577fffffffffffffffffffffffffffffffffffffffffffffffffffffffffffffffff8110615cb457600080fd5b80806001019150505b9392505050565b6000808284061182840401905092915050565b6000808211615ce557600080fd5b60007001000000000000000000000000000000008310615d0d57608083901c92506080810190505b680100000000000000008310615d2b57604083901c92506040810190505b6401000000008310615d4557602083901c92506020810190505b620100008310615d5d57601083901c92506010810190505b6101008310615d7457600883901c92506008810190505b60108310615d8a57600483901c92506004810190505b60048310615da057600283901c92506002810190505b60028310615daf576001810190505b80915050919050565b600080617fff60708560801c6fffffffffffffffffffffffffffffffff16901c166fffffffffffffffffffffffffffffffff1690506000617fff60708560801c6fffffffffffffffffffffffffffffffff16901c166fffffffffffffffffffffffffffffffff169050617fff8203615e9157617fff8103615e8757836fffffffffffffffffffffffffffffffff1916856fffffffffffffffffffffffffffffffff191603615e6a57849250505061640a565b6f7fff800000000000000000000000000060801b9250505061640a565b849250505061640a565b617fff8103615ea457839250505061640a565b60006f800000000000000000000000000000008660801c6fffffffffffffffffffffffffffffffff161015905060006dffffffffffffffffffffffffffff8760801c166fffffffffffffffffffffffffffffffff16905060008403615f0c5760019350615f21565b6e010000000000000000000000000000811790505b60006f800000000000000000000000000000008760801c6fffffffffffffffffffffffffffffffff161015905060006dffffffffffffffffffffffffffff8860801c166fffffffffffffffffffffffffffffffff16905060008503615f895760019450615f9e565b6e010000000000000000000000000000811790505b60008303615fff576f8000000000000000000000000000000060801b6fffffffffffffffffffffffffffffffff1916886fffffffffffffffffffffffffffffffff191614615fec5787615ff2565b600060801b5b965050505050505061640a565b60008103616060576f8000000000000000000000000000000060801b6fffffffffffffffffffffffffffffffff1916896fffffffffffffffffffffffffffffffff19161461604d5788616053565b600060801b5b965050505050505061640a565b60008587039050821515851515036161dc57607081131561608a578997505050505050505061640a565b600081131561609e578082901c91506160ec565b7fffffffffffffffffffffffffffffffffffffffffffffffffffffffffffffff908112156160d5578897505050505050505061640a565b60008112156160eb578060000384901c93508596505b5b81840193506e020000000000000000000000000000841061611557600184901c93506001870196505b617fff870361615f578461613c576f7fff000000000000000000000000000060801b616151565b6fffff000000000000000000000000000060801b5b97505050505050505061640a565b6e01000000000000000000000000000084101561617f5760009650616193565b6dffffffffffffffffffffffffffff841693505b83607088901b866161a55760006161b7565b6f800000000000000000000000000000005b6fffffffffffffffffffffffffffffffff16171760801b97505050505050505061640a565b60008113156161f757600184901b935060018703965061620f565b600081121561620e57600182901b91506001860396505b5b607081131561622157600191506162ab565b600181131561623d57600180820360018403901c0191506162aa565b7fffffffffffffffffffffffffffffffffffffffffffffffffffffffffffffff9081121561626e57600193506162a9565b7fffffffffffffffffffffffffffffffffffffffffffffffffffffffffffffffff8112156162a857600180826000030360018603901c0193505b5b5b5b8184106162bc5781840393506162c5565b83820393508294505b600084036162e057600060801b97505050505050505061640a565b60006162eb85615cd7565b905060718103616317576dffffffffffffffffffffffffffff600186901c169450600188019750616379565b607081101561636457600081607003905080891115616350576dffffffffffffffffffffffffffff8187901b169550808903985061635e565b6001890386901b9550600098505b50616378565b6dffffffffffffffffffffffffffff851694505b5b617fff88036163c457856163a0576f7fff000000000000000000000000000060801b6163b5565b6fffff000000000000000000000000000060801b5b9850505050505050505061640a565b84607089901b876163d65760006163e8565b6f800000000000000000000000000000005b6fffffffffffffffffffffffffffffffff16171760801b985050505050505050505b92915050565b6000616431836f8000000000000000000000000000000060801b8418615db8565b905092915050565b600061646061645b836f3fff71547652b82fe1777d0ffda0d23a60801b613e7b565b616b81565b9050919050565b6000806f7fffffffffffffffffffffffffffffff8460801c1690506f7fff0000000000000000000000000000816fffffffffffffffffffffffffffffffff1611156164b157600080fd5b60006f7fffffffffffffffffffffffffffffff8460801c1690506f7fff0000000000000000000000000000816fffffffffffffffffffffffffffffffff1611156164fa57600080fd5b836fffffffffffffffffffffffffffffffff1916856fffffffffffffffffffffffffffffffff191614158061655057506f7fff0000000000000000000000000000826fffffffffffffffffffffffffffffffff16105b61655957600080fd5b836fffffffffffffffffffffffffffffffff1916856fffffffffffffffffffffffffffffffff191603616591576000925050506166f0565b60006f800000000000000000000000000000008660801c6fffffffffffffffffffffffffffffffff161015905060006f800000000000000000000000000000008660801c6fffffffffffffffffffffffffffffffff1610159050811561668257801561665657826fffffffffffffffffffffffffffffffff16846fffffffffffffffffffffffffffffffff161161662957600161664b565b7fffffffffffffffffffffffffffffffffffffffffffffffffffffffffffffffff5b9450505050506166f0565b7fffffffffffffffffffffffffffffffffffffffffffffffffffffffffffffffff9450505050506166f0565b80156166955760019450505050506166f0565b826fffffffffffffffffffffffffffffffff16846fffffffffffffffffffffffffffffffff16116166e6577fffffffffffffffffffffffffffffffffffffffffffffffffffffffffffffffff6166e9565b60015b9450505050505b92915050565b60008060088360020b901d91506101008360020b8161671857616717619cab565b5b079050915091565b60008373ffffffffffffffffffffffffffffffffffffffff16631e2eaeaf83600586600a60405160200161675592919061a3b9565b6040516020818303038152906040528051906020012060001c616778919061983d565b60405160200161678992919061a506565b604051602081830303815290604052805190602001206040518263ffffffff1660e01b81526004016167bb919061923d565b602060405180830381865afa1580156167d8573d6000803e3d6000fd5b505050506040513d601f19601f820116820180604052508101906167fc919061a446565b60001c90509392505050565b600080821161681657600080fd5b700100000000000000000000000000000000821061683c57608082901c91506080810190505b68010000000000000000821061685a57604082901c91506040810190505b640100000000821061687457602082901c91506020810190505b62010000821061688c57601082901c91506010810190505b61010082106168a357600882901c91506008810190505b601082106168b957600482901c91506004810190505b600482106168cf57600282901c91506002810190505b600282106168de576001810190505b919050565b60008082116168f157600080fd5b60ff905060006fffffffffffffffffffffffffffffffff80168316111561691d57608081039050616925565b608082901c91505b600067ffffffffffffffff8016831611156169455760408103905061694d565b604082901c91505b600063ffffffff80168316111561696957602081039050616971565b602082901c91505b600061ffff80168316111561698b57601081039050616993565b601082901c91505b600060ff8016831611156169ac576008810390506169b4565b600882901c91505b6000600f831611156169cb576004810390506169d3565b600482901c91505b60006003831611156169ea576002810390506169f2565b600282901c91505b6000600183161115616a05576001810390505b919050565b600080616a7d616a3684876fffffffffffffffffffffffffffffffff191661641090919063ffffffff16565b616a5c85886fffffffffffffffffffffffffffffffff1916615db890919063ffffffff16565b6fffffffffffffffffffffffffffffffff19166145c690919063ffffffff16565b90506000616af1616aaa86886fffffffffffffffffffffffffffffffff1916615db890919063ffffffff16565b616ad087896fffffffffffffffffffffffffffffffff191661641090919063ffffffff16565b6fffffffffffffffffffffffffffffffff19166145c690919063ffffffff16565b9050616b34616b1c82846fffffffffffffffffffffffffffffffff1916613e7b90919063ffffffff16565b6fffffffffffffffffffffffffffffffff1916618528565b925050509392505050565b6000616b7a826f3fff000000000000000000000000000060801b6fffffffffffffffffffffffffffffffff19166145c690919063ffffffff16565b9050919050565b6000806f800000000000000000000000000000008360801c6fffffffffffffffffffffffffffffffff161190506000617fff60708560801c6fffffffffffffffffffffffffffffffff16901c166fffffffffffffffffffffffffffffffff16905060006dffffffffffffffffffffffffffff8560801c166fffffffffffffffffffffffffffffffff169050617fff82148015616c1e575060008114155b15616c41576f7fff800000000000000000000000000060801b9350505050618523565b61400d821115616c795782616c69576f7fff000000000000000000000000000060801b616c6f565b600060801b5b9350505050618523565b613f7f821015616ca1576f3fff000000000000000000000000000060801b9350505050618523565b60008203616cb25760019150616cc7565b6e010000000000000000000000000000811790505b613fef821115616ce057613fef820381901b9050616cf6565b613fef821015616cf55781613fef0381901c90505b5b828015616d14575071406e0000000000000000000000000000000081115b15616d2857600060801b9350505050618523565b82158015616d475750713fffffffffffffffffffffffffffffffffff81115b15616d6a576f7fff000000000000000000000000000060801b9350505050618523565b6000608082901c90506fffffffffffffffffffffffffffffffff82169150838015616d96575060008214155b15616da657811991506001810190505b60006f80000000000000000000000000000000905060006f8000000000000000000000000000000084161115616df157608070016a09e667f3bcc908b2fb1366ea957d3e8202901c90505b60006f4000000000000000000000000000000084161115616e275760807001306fe0a31b7152de8d5a46305c85edec8202901c90505b60006f2000000000000000000000000000000084161115616e5d5760807001172b83c7d517adcdf7c8c50eb14a791f8202901c90505b60006f1000000000000000000000000000000084161115616e9357608070010b5586cf9890f6298b92b71842a983638202901c90505b60006f0800000000000000000000000000000084161115616ec95760807001059b0d31585743ae7c548eb68ca417fd8202901c90505b60006f0400000000000000000000000000000084161115616eff576080700102c9a3e778060ee6f7caca4f7a29bde88202901c90505b60006f0200000000000000000000000000000084161115616f3557608070010163da9fb33356d84a66ae336dcdfa3f8202901c90505b60006f0100000000000000000000000000000084161115616f6b576080700100b1afa5abcbed6129ab13ec11dc95438202901c90505b60006e80000000000000000000000000000084161115616fa057608070010058c86da1c09ea1ff19d294cf2f679b8202901c90505b60006e40000000000000000000000000000084161115616fd55760807001002c605e2e8cec506d21bfc89a23a00f8202901c90505b60006e2000000000000000000000000000008416111561700a576080700100162f3904051fa128bca9c55c31e5df8202901c90505b60006e1000000000000000000000000000008416111561703f5760807001000b175effdc76ba38e31671ca9397258202901c90505b60006e08000000000000000000000000000084161115617074576080700100058ba01fb9f96d6cacd4b180917c3d8202901c90505b60006e040000000000000000000000000000841611156170a957608070010002c5cc37da9491d0985c348c68e7b38202901c90505b60006e020000000000000000000000000000841611156170de5760807001000162e525ee054754457d59952920268202901c90505b60006e0100000000000000000000000000008416111561711357608070010000b17255775c040618bf4a4ade83fc8202901c90505b60006d8000000000000000000000000000841611156171475760807001000058b91b5bc9ae2eed81e9b7d4cfab8202901c90505b60006d40000000000000000000000000008416111561717b576080700100002c5c89d5ec6ca4d7c8acc017b7c98202901c90505b60006d2000000000000000000000000000841611156171af57608070010000162e43f4f831060e02d839a9d16d8202901c90505b60006d1000000000000000000000000000841611156171e3576080700100000b1721bcfc99d9f890ea069117638202901c90505b60006d08000000000000000000000000008416111561721757608070010000058b90cf1e6d97f9ca14dbcc16288202901c90505b60006d04000000000000000000000000008416111561724b5760807001000002c5c863b73f016468f6bac5ca2b8202901c90505b60006d02000000000000000000000000008416111561727f576080700100000162e430e5a18f6119e3c02282a58202901c90505b60006d0100000000000000000000000000841611156172b35760807001000000b1721835514b86e6d96efd1bfe8202901c90505b60006c80000000000000000000000000841611156172e6576080700100000058b90c0b48c6be5df846c5b2ef8202901c90505b60006c400000000000000000000000008416111561731957608070010000002c5c8601cc6b9e94213c72737a8202901c90505b60006c200000000000000000000000008416111561734c5760807001000000162e42fff037df38aa2b219f068202901c90505b60006c100000000000000000000000008416111561737f57608070010000000b17217fba9c739aa5819f44f98202901c90505b60006c08000000000000000000000000841611156173b25760807001000000058b90bfcdee5acd3c1cedc8238202901c90505b60006c04000000000000000000000000841611156173e5576080700100000002c5c85fe31f35a6a30da1be508202901c90505b60006c020000000000000000000000008416111561741857608070010000000162e42ff0999ce3541b9fffcf8202901c90505b60006c010000000000000000000000008416111561744b576080700100000000b17217f80f4ef5aadda455548202901c90505b60006b8000000000000000000000008416111561747d57608070010000000058b90bfbf8479bd5a81b51ad8202901c90505b60006b400000000000000000000000841611156174af5760807001000000002c5c85fdf84bd62ae30a74cc8202901c90505b60006b200000000000000000000000841611156174e1576080700100000000162e42fefb2fed257559bdaa8202901c90505b60006b100000000000000000000000841611156175135760807001000000000b17217f7d5a7716bba4a9ae8202901c90505b60006b08000000000000000000000084161115617545576080700100000000058b90bfbe9ddbac5e109cce8202901c90505b60006b0400000000000000000000008416111561757757608070010000000002c5c85fdf4b15de6f17eb0d8202901c90505b60006b020000000000000000000000841611156175a95760807001000000000162e42fefa494f1478fde058202901c90505b60006b010000000000000000000000841611156175db57608070010000000000b17217f7d20cf927c8e94c8202901c90505b60006a80000000000000000000008416111561760c5760807001000000000058b90bfbe8f71cb4e4b33d8202901c90505b60006a40000000000000000000008416111561763d576080700100000000002c5c85fdf477b662b269458202901c90505b60006a20000000000000000000008416111561766e57608070010000000000162e42fefa3ae53369388c8202901c90505b60006a10000000000000000000008416111561769f576080700100000000000b17217f7d1d351a389d408202901c90505b60006a0800000000000000000000841611156176d057608070010000000000058b90bfbe8e8b2d3d4ede8202901c90505b60006a0400000000000000000000841611156177015760807001000000000002c5c85fdf4741bea6e77e8202901c90505b60006a020000000000000000000084161115617732576080700100000000000162e42fefa39fe95583c28202901c90505b60006a0100000000000000000000841611156177635760807001000000000000b17217f7d1cfb72b45e18202901c90505b6000698000000000000000000084161115617793576080700100000000000058b90bfbe8e7cc35c3f08202901c90505b60006940000000000000000000841611156177c357608070010000000000002c5c85fdf473e242ea388202901c90505b60006920000000000000000000841611156177f35760807001000000000000162e42fefa39f02b772c8202901c90505b600069100000000000000000008416111561782357608070010000000000000b17217f7d1cf7d83c1a8202901c90505b60006908000000000000000000841611156178535760807001000000000000058b90bfbe8e7bdcbe2e8202901c90505b6000690400000000000000000084161115617883576080700100000000000002c5c85fdf473dea871f8202901c90505b60006902000000000000000000841611156178b357608070010000000000000162e42fefa39ef44d918202901c90505b60006901000000000000000000841611156178e3576080700100000000000000b17217f7d1cf79e9498202901c90505b6000688000000000000000008416111561791257608070010000000000000058b90bfbe8e7bce5448202901c90505b600068400000000000000000841611156179415760807001000000000000002c5c85fdf473de6eca8202901c90505b60006820000000000000000084161115617970576080700100000000000000162e42fefa39ef366f8202901c90505b6000681000000000000000008416111561799f5760807001000000000000000b17217f7d1cf79afa8202901c90505b600068080000000000000000841611156179ce576080700100000000000000058b90bfbe8e7bcd6d8202901c90505b600068040000000000000000841611156179fd57608070010000000000000002c5c85fdf473de6b28202901c90505b60006802000000000000000084161115617a2c5760807001000000000000000162e42fefa39ef3588202901c90505b60006801000000000000000084161115617a5b57608070010000000000000000b17217f7d1cf79ab8202901c90505b600067800000000000000084161115617a895760807001000000000000000058b90bfbe8e7bcd58202901c90505b600067400000000000000084161115617ab7576080700100000000000000002c5c85fdf473de6a8202901c90505b600067200000000000000084161115617ae557608070010000000000000000162e42fefa39ef348202901c90505b600067100000000000000084161115617b13576080700100000000000000000b17217f7d1cf7998202901c90505b600067080000000000000084161115617b4157608070010000000000000000058b90bfbe8e7bcc8202901c90505b600067040000000000000084161115617b6f5760807001000000000000000002c5c85fdf473de58202901c90505b600067020000000000000084161115617b9d576080700100000000000000000162e42fefa39ef28202901c90505b600067010000000000000084161115617bcb5760807001000000000000000000b17217f7d1cf788202901c90505b6000668000000000000084161115617bf8576080700100000000000000000058b90bfbe8e7bb8202901c90505b6000664000000000000084161115617c2557608070010000000000000000002c5c85fdf473dd8202901c90505b6000662000000000000084161115617c525760807001000000000000000000162e42fefa39ee8202901c90505b6000661000000000000084161115617c7f57608070010000000000000000000b17217f7d1cf68202901c90505b6000660800000000000084161115617cac5760807001000000000000000000058b90bfbe8e7a8202901c90505b6000660400000000000084161115617cd9576080700100000000000000000002c5c85fdf473c8202901c90505b6000660200000000000084161115617d0657608070010000000000000000000162e42fefa39d8202901c90505b6000660100000000000084161115617d33576080700100000000000000000000b17217f7d1ce8202901c90505b60006580000000000084161115617d5f57608070010000000000000000000058b90bfbe8e68202901c90505b60006540000000000084161115617d8b5760807001000000000000000000002c5c85fdf4728202901c90505b60006520000000000084161115617db7576080700100000000000000000000162e42fefa388202901c90505b60006510000000000084161115617de35760807001000000000000000000000b17217f7d1b8202901c90505b60006508000000000084161115617e0f576080700100000000000000000000058b90bfbe8d8202901c90505b60006504000000000084161115617e3b57608070010000000000000000000002c5c85fdf468202901c90505b60006502000000000084161115617e675760807001000000000000000000000162e42fefa28202901c90505b60006501000000000084161115617e9357608070010000000000000000000000b17217f7d08202901c90505b600064800000000084161115617ebe5760807001000000000000000000000058b90bfbe78202901c90505b600064400000000084161115617ee9576080700100000000000000000000002c5c85fdf38202901c90505b600064200000000084161115617f1457608070010000000000000000000000162e42fef98202901c90505b600064100000000084161115617f3f576080700100000000000000000000000b17217f7c8202901c90505b600064080000000084161115617f6a57608070010000000000000000000000058b90bfbd8202901c90505b600064040000000084161115617f955760807001000000000000000000000002c5c85fde8202901c90505b600064020000000084161115617fc0576080700100000000000000000000000162e42fee8202901c90505b600064010000000084161115617feb5760807001000000000000000000000000b17217f68202901c90505b6000638000000084161115618015576080700100000000000000000000000058b90bfa8202901c90505b600063400000008416111561803f57608070010000000000000000000000002c5c85fc8202901c90505b60006320000000841611156180695760807001000000000000000000000000162e42fd8202901c90505b600063100000008416111561809357608070010000000000000000000000000b17217e8202901c90505b60006308000000841611156180bd5760807001000000000000000000000000058b90be8202901c90505b60006304000000841611156180e7576080700100000000000000000000000002c5c85e8202901c90505b600063020000008416111561811157608070010000000000000000000000000162e42e8202901c90505b600063010000008416111561813b576080700100000000000000000000000000b172168202901c90505b6000628000008416111561816457608070010000000000000000000000000058b90a8202901c90505b6000624000008416111561818d5760807001000000000000000000000000002c5c848202901c90505b600062200000841611156181b6576080700100000000000000000000000000162e418202901c90505b600062100000841611156181df5760807001000000000000000000000000000b17208202901c90505b60006208000084161115618208576080700100000000000000000000000000058b8f8202901c90505b6000620400008416111561823157608070010000000000000000000000000002c5c78202901c90505b6000620200008416111561825a5760807001000000000000000000000000000162e38202901c90505b6000620100008416111561828357608070010000000000000000000000000000b1718202901c90505b6000618000841611156182ab5760807001000000000000000000000000000058b88202901c90505b6000614000841611156182d3576080700100000000000000000000000000002c5b8202901c90505b6000612000841611156182fb57608070010000000000000000000000000000162d8202901c90505b600061100084161115618323576080700100000000000000000000000000000b168202901c90505b60006108008416111561834b57608070010000000000000000000000000000058a8202901c90505b6000610400841611156183735760807001000000000000000000000000000002c48202901c90505b60006102008416111561839b5760807001000000000000000000000000000001618202901c90505b6000610100841611156183c35760807001000000000000000000000000000000b08202901c90505b60006080841611156183ea5760807001000000000000000000000000000000578202901c90505b600060408416111561841157608070010000000000000000000000000000002b8202901c90505b60006020841611156184385760807001000000000000000000000000000000158202901c90505b600060108416111561845f57608070010000000000000000000000000000000a8202901c90505b60006008841611156184865760807001000000000000000000000000000000048202901c90505b60006004841611156184ad5760807001000000000000000000000000000000018202901c90505b846184d5576dffffffffffffffffffffffffffff600f82901c169050613fff82019150618511565b613ffe8211618501576dffffffffffffffffffffffffffff600f82901c16905081613fff039150618510565b613fef820381901c9050600091505b5b80607083901b1760801b955050505050505b919050565b600061854f61853683618556565b6f3ffe62e42fefa39ef35793c7673007e560801b613e7b565b9050919050565b60006f800000000000000000000000000000008260801c6fffffffffffffffffffffffffffffffff1611156185a0576f7fff800000000000000000000000000060801b9050618804565b6f3fff000000000000000000000000000060801b826fffffffffffffffffffffffffffffffff1916036185d957600060801b9050618804565b6000617fff60708460801c6fffffffffffffffffffffffffffffffff16901c166fffffffffffffffffffffffffffffffff169050617fff810361861f5782915050618804565b60006dffffffffffffffffffffffffffff8460801c166fffffffffffffffffffffffffffffffff1690506000820361865a576001915061866f565b6e010000000000000000000000000000811790505b60008103618694576fffff000000000000000000000000000060801b92505050618804565b60008061406f90506000613fff85106186be5760009250613fff85039050600f84901b935061870b565b600192506e01000000000000000000000000000084106186eb5784613ffe039050600f84901b935061870a565b60006186f685615cd7565b90508061406d03915080607f0385901b9450505b5b6f80000000000000000000000000000000840361875057821561872f576001810190505b600061873a82615cd7565b60700390508082901b91508083039250506187b1565b60008361875e576000618761565b60015b60ff1690505b6e0100000000000000000000000000008210156187af57600182901b91506001830392508485029450600060ff86901c90508181188301925080607f0186901c955050618767565b505b6dffffffffffffffffffffffffffff8116607083901b846187d35760006187e5565b6f800000000000000000000000000000005b6fffffffffffffffffffffffffffffffff16171760801b955050505050505b919050565b6040518061010001604052806000151581526020016000151581526020016000151581526020016000151581526020016000151581526020016000151581526020016000151581526020016000151581525090565b604051806040016040528060008152602001600081525090565b6040518060400160405280600073ffffffffffffffffffffffffffffffffffffffff16815260200160006fffffffffffffffffffffffffffffffff1681525090565b6000604051905090565b600080fd5b600080fd5b600080fd5b6000601f19601f8301169050919050565b7f4e487b7100000000000000000000000000000000000000000000000000000000600052604160045260246000fd5b61891c826188d3565b810181811067ffffffffffffffff8211171561893b5761893a6188e4565b5b80604052505050565b600061894e6188ba565b905061895a8282618913565b919050565b600073ffffffffffffffffffffffffffffffffffffffff82169050919050565b600061898a8261895f565b9050919050565b61899a8161897f565b81146189a557600080fd5b50565b6000813590506189b781618991565b92915050565b600062ffffff82169050919050565b6189d5816189bd565b81146189e057600080fd5b50565b6000813590506189f2816189cc565b92915050565b60008160020b9050919050565b618a0e816189f8565b8114618a1957600080fd5b50565b600081359050618a2b81618a05565b92915050565b6000618a3c8261897f565b9050919050565b618a4c81618a31565b8114618a5757600080fd5b50565b600081359050618a6981618a43565b92915050565b600060a08284031215618a8557618a846188ce565b5b618a8f60a0618944565b90506000618a9f848285016189a8565b6000830152506020618ab3848285016189a8565b6020830152506040618ac7848285016189e3565b6040830152506060618adb84828501618a1c565b6060830152506080618aef84828501618a5a565b60808301525092915050565b618b048161897f565b8114618b0f57600080fd5b50565b600081359050618b2181618afb565b92915050565b618b308161895f565b8114618b3b57600080fd5b50565b600081359050618b4d81618b27565b92915050565b60008115159050919050565b618b6881618b53565b8114618b7357600080fd5b50565b600081359050618b8581618b5f565b92915050565b600060608284031215618ba157618ba06188ce565b5b618bab6060618944565b90506000618bbb84828501618b12565b6000830152506020618bcf84828501618b3e565b6020830152506040618be384828501618b76565b60408301525092915050565b6000819050919050565b618c0281618bef565b8114618c0d57600080fd5b50565b600081359050618c1f81618bf9565b92915050565b60008060006101208486031215618c3f57618c3e6188c4565b5b6000618c4d86828701618a6f565b93505060a0618c5e86828701618b8b565b925050610100618c7086828701618c10565b9150509250925092565b6000819050919050565b618c8d81618c7a565b82525050565b6000604082019050618ca86000830185618c84565b618cb56020830184618c84565b9392505050565b6000819050919050565b618ccf81618cbc565b8114618cda57600080fd5b50565b600081359050618cec81618cc6565b92915050565b600060208284031215618d0857618d076188c4565b5b6000618d1684828501618cdd565b91505092915050565b6000602082019050618d346000830184618c84565b92915050565b600080fd5b600060a08284031215618d5557618d54618d3a565b5b81905092915050565b600060608284031215618d7457618d73618d3a565b5b81905092915050565b618d8681618bef565b8114618d9157600080fd5b50565b600081359050618da381618d7d565b92915050565b600080fd5b600080fd5b600080fd5b60008083601f840112618dce57618dcd618da9565b5b8235905067ffffffffffffffff811115618deb57618dea618dae565b5b602083019150836001820283011115618e0757618e06618db3565b5b9250929050565b6000806000806000806101608789031215618e2c57618e2b6188c4565b5b6000618e3a89828a01618b12565b9650506020618e4b89828a01618d3f565b95505060c0618e5c89828a01618d5e565b945050610120618e6e89828a01618d94565b93505061014087013567ffffffffffffffff811115618e9057618e8f6188c9565b5b618e9c89828a01618db8565b92509250509295509295509295565b60007fffffffff0000000000000000000000000000000000000000000000000000000082169050919050565b618ee081618eab565b82525050565b6000602082019050618efb6000830184618ed7565b92915050565b60008060008060006101008688031215618f1e57618f1d6188c4565b5b6000618f2c88828901618b12565b9550506020618f3d88828901618d3f565b94505060c0618f4e88828901618b3e565b93505060e086013567ffffffffffffffff811115618f6f57618f6e6188c9565b5b618f7b88828901618db8565b92509250509295509295909350565b600060608284031215618fa057618f9f618d3a565b5b81905092915050565b60008060008060006101408688031215618fc657618fc56188c4565b5b6000618fd488828901618b12565b9550506020618fe588828901618d3f565b94505060c0618ff688828901618f8a565b93505061012086013567ffffffffffffffff811115619018576190176188c9565b5b61902488828901618db8565b92509250509295509295909350565b600060a08284031215619049576190486188c4565b5b600061905784828501618a6f565b91505092915050565b61906981618b53565b82525050565b610100820160008201516190866000850182619060565b5060208201516190996020850182619060565b5060408201516190ac6040850182619060565b5060608201516190bf6060850182619060565b5060808201516190d26080850182619060565b5060a08201516190e560a0850182619060565b5060c08201516190f860c0850182619060565b5060e082015161910b60e0850182619060565b50505050565b600061010082019050619127600083018461906f565b92915050565b60008060408385031215619144576191436188c4565b5b6000619152858286016189a8565b925050602061916385828601618b12565b9150509250929050565b60008060c08385031215619184576191836188c4565b5b600061919285828601618d3f565b92505060a06191a385828601618b76565b9150509250929050565b6191b681618c7a565b81146191c157600080fd5b50565b6000813590506191d3816191ad565b92915050565b600080600061012084860312156191f3576191f26188c4565b5b600061920186828701618d3f565b93505060a061921286828701618b8b565b925050610100619224868287016191c4565b9150509250925092565b61923781618cbc565b82525050565b6000602082019050619252600083018461922e565b92915050565b600080600060608486031215619271576192706188c4565b5b600061927f868287016189a8565b935050602061929086828701618b12565b92505060406192a1868287016191c4565b9150509250925092565b60008060008060008061012087890312156192c9576192c86188c4565b5b60006192d789828a01618b12565b96505060206192e889828a01618d3f565b95505060c06192f989828a01618b3e565b94505060e061930a89828a01618a1c565b93505061010087013567ffffffffffffffff81111561932c5761932b6188c9565b5b61933889828a01618db8565b92509250509295509295509295565b6000806020838503121561935e5761935d6188c4565b5b600083013567ffffffffffffffff81111561937c5761937b6188c9565b5b61938885828601618db8565b92509250509250929050565b600081519050919050565b600082825260208201905092915050565b60005b838110156193ce5780820151818401526020810190506193b3565b60008484015250505050565b60006193e582619394565b6193ef818561939f565b93506193ff8185602086016193b0565b619408816188d3565b840191505092915050565b6000602082019050818103600083015261942d81846193da565b905092915050565b6000806000806000806101608789031215619453576194526188c4565b5b600061946189828a01618b12565b965050602061947289828a01618d3f565b95505060c061948389828a01618f8a565b94505061012061949589828a01618d94565b93505061014087013567ffffffffffffffff8111156194b7576194b66188c9565b5b6194c389828a01618db8565b92509250509295509295509295565b60008060008060008061012087890312156194f0576194ef6188c4565b5b60006194fe89828a01618b12565b965050602061950f89828a01618d3f565b95505060c061952089828a016191c4565b94505060e061953189828a016191c4565b93505061010087013567ffffffffffffffff811115619553576195526188c9565b5b61955f89828a01618db8565b92509250509295509295509295565b60006060828403121561958457619583618d3a565b5b81905092915050565b60008061010083850312156195a5576195a46188c4565b5b60006195b385828601618d3f565b92505060a06195c48582860161956e565b9150509250929050565b6195d781618c7a565b82525050565b6040820160008201516195f360008501826195ce565b50602082015161960660208501826195ce565b50505050565b600060408201905061962160008301846195dd565b92915050565b6000819050919050565b600061964c6196476196428461895f565b619627565b61895f565b9050919050565b600061965e82619631565b9050919050565b600061967082619653565b9050919050565b61968081619665565b82525050565b600060208201905061969b6000830184619677565b92915050565b600080600080600061014086880312156196be576196bd6188c4565b5b60006196cc88828901618b12565b95505060206196dd88828901618d3f565b94505060c06196ee88828901618d5e565b93505061012086013567ffffffffffffffff8111156197105761970f6188c9565b5b61971c88828901618db8565b92509250509295509295909350565b600061973682619653565b9050919050565b6197468161972b565b82525050565b619755816189bd565b82525050565b619764816189f8565b82525050565b600061977582619653565b9050919050565b6197858161976a565b82525050565b60a0820160008201516197a1600085018261973d565b5060208201516197b4602085018261973d565b5060408201516197c7604085018261974c565b5060608201516197da606085018261975b565b5060808201516197ed608085018261977c565b50505050565b600060a082019050619808600083018461978b565b92915050565b7f4e487b7100000000000000000000000000000000000000000000000000000000600052601160045260246000fd5b600061984882618c7a565b915061985383618c7a565b925082820190508082111561986b5761986a61980e565b5b92915050565b61987a8161895f565b82525050565b61988981618b53565b82525050565b60006080820190506198a46000830187619871565b6198b16020830186619880565b6198be6040830185618c84565b6198cb6060830184618c84565b95945050505050565b60006198df82618cbc565b9050919050565b6198ef816198d4565b82525050565b600060208201905061990a60008301846198e6565b92915050565b60008151905061991f81618b27565b92915050565b60008151905061993481618a05565b92915050565b600081519050619949816189cc565b92915050565b60008060008060808587031215619969576199686188c4565b5b600061997787828801619910565b945050602061998887828801619925565b93505060406199998782880161993a565b92505060606199aa8782880161993a565b91505092959194509250565b60006fffffffffffffffffffffffffffffffff82169050919050565b6199db816199b6565b81146199e657600080fd5b50565b6000815190506199f8816199d2565b92915050565b600060208284031215619a1457619a136188c4565b5b6000619a22848285016199e9565b91505092915050565b619a3481618bef565b82525050565b619a438161895f565b82525050565b606082016000820151619a5f6000850182619060565b506020820151619a726020850182619a2b565b506040820151619a856040850182619a3a565b50505050565b600061010082019050619aa1600083018561978b565b619aae60a0830184619a49565b9392505050565b600080fd5b600067ffffffffffffffff821115619ad557619ad46188e4565b5b619ade826188d3565b9050602081019050919050565b6000619afe619af984619aba565b618944565b905082815260208101848484011115619b1a57619b19619ab5565b5b619b258482856193b0565b509392505050565b600082601f830112619b4257619b41618da9565b5b8151619b52848260208601619aeb565b91505092915050565b600060208284031215619b7157619b706188c4565b5b600082015167ffffffffffffffff811115619b8f57619b8e6188c9565b5b619b9b84828501619b2d565b91505092915050565b6000619bb360208401846189a8565b905092915050565b6000619bca60208401846189e3565b905092915050565b6000619be16020840184618a1c565b905092915050565b6000619bf86020840184618a5a565b905092915050565b60a08201619c116000830183619ba4565b619c1e600085018261973d565b50619c2c6020830183619ba4565b619c39602085018261973d565b50619c476040830183619bbb565b619c54604085018261974c565b50619c626060830183619bd2565b619c6f606085018261975b565b50619c7d6080830183619be9565b619c8a608085018261977c565b50505050565b600060a082019050619ca56000830184619c00565b92915050565b7f4e487b7100000000000000000000000000000000000000000000000000000000600052601260045260246000fd5b600060208284031215619cf057619cef6188c4565b5b6000619cfe848285016189a8565b91505092915050565b6000619d1282618c7a565b9150619d1d83618c7a565b9250828203905081811115619d3557619d3461980e565b5b92915050565b600060608284031215619d5157619d506188ce565b5b619d5b6060618944565b90506000619d6b84828501618b76565b6000830152506020619d7f84828501618c10565b6020830152506040619d9384828501618b3e565b60408301525092915050565b6000806101008385031215619db757619db66188c4565b5b6000619dc585828601618a6f565b92505060a0619dd685828601619d3b565b9150509250929050565b600061012082019050619df6600083018661978b565b619e0360a0830185619a49565b818103610100830152619e1681846193da565b9050949350505050565b600081519050619e2f81618d7d565b92915050565b600060208284031215619e4b57619e4a6188c4565b5b6000619e5984828501619e20565b91505092915050565b619e6b8161972b565b82525050565b6000602082019050619e866000830184619e62565b92915050565b600081519050619e9b816191ad565b92915050565b600060208284031215619eb757619eb66188c4565b5b6000619ec584828501619e8c565b91505092915050565b600081600f0b9050919050565b6000619ee682619ece565b91507fffffffffffffffffffffffffffffffff800000000000000000000000000000008203619f1857619f1761980e565b5b816000039050919050565b619f2c8161897f565b82525050565b6000606082019050619f476000830186619e62565b619f546020830185619f23565b619f616040830184618c84565b949350505050565b600060608284031215619f7f57619f7e6188c4565b5b6000619f8d84828501618b8b565b91505092915050565b6000604082019050619fab6000830185619f23565b619fb86020830184619f23565b9392505050565b619fc88161897f565b82525050565b606082016000820151619fe46000850182619fbf565b506020820151619ff76020850182619a3a565b50604082015161a00a6040850182619060565b50505050565b600060608201905061a0256000830184619fce565b92915050565b61a03481618bef565b82525050565b600060a08201905061a04f6000830186619fce565b61a05c6060830185618c84565b61a069608083018461a02b565b949350505050565b600060608201905061a0866000830186619f23565b61a0936020830185619f23565b61a0a06040830184618c84565b949350505050565b600081905092915050565b600061a0be82619394565b61a0c8818561a0a8565b935061a0d88185602086016193b0565b80840191505092915050565b600061a0f0828461a0b3565b915081905092915050565b60008151905061a10a81618b5f565b92915050565b60006020828403121561a1265761a1256188c4565b5b600061a1348482850161a0fb565b91505092915050565b600082825260208201905092915050565b7f5354460000000000000000000000000000000000000000000000000000000000600082015250565b600061a18460038361a13d565b915061a18f8261a14e565b602082019050919050565b6000602082019050818103600083015261a1b38161a177565b9050919050565b600061a1c582618c7a565b915061a1d083618c7a565b92508261a1e05761a1df619cab565b5b828206905092915050565b600061a20661a20161a1fc8461895f565b619627565b618c7a565b9050919050565b61a2168161a1eb565b82525050565b600060208201905061a231600083018461a20d565b92915050565b600060208201905061a24c6000830184619f23565b92915050565b7f5452414e534645525f4641494c45440000000000000000000000000000000000600082015250565b600061a288600f8361a13d565b915061a2938261a252565b602082019050919050565b6000602082019050818103600083015261a2b78161a27b565b9050919050565b600061a2c982618c7a565b915061a2d483618c7a565b925082820261a2e281618c7a565b9150828204841483151761a2f95761a2f861980e565b5b5092915050565b600061a30b826199b6565b915061a316836199b6565b925082820190506fffffffffffffffffffffffffffffffff81111561a33e5761a33d61980e565b5b92915050565b600061a34f826199b6565b915061a35a836199b6565b925082820390506fffffffffffffffffffffffffffffffff81111561a3825761a38161980e565b5b92915050565b600061a39382618c7a565b915061a39e83618c7a565b92508261a3ae5761a3ad619cab565b5b828204905092915050565b600060408201905061a3ce60008301856198e6565b61a3db6020830184618c84565b9392505050565b61a3eb816189f8565b82525050565b600060408201905061a406600083018561a3e2565b61a4136020830184618c84565b9392505050565b61a42381618cbc565b811461a42e57600080fd5b50565b60008151905061a4408161a41a565b92915050565b60006020828403121561a45c5761a45b6188c4565b5b600061a46a8482850161a431565b91505092915050565b600061a47e8261895f565b915061a4898361895f565b9250828203905073ffffffffffffffffffffffffffffffffffffffff81111561a4b55761a4b461980e565b5b92915050565b7f4e487b7100000000000000000000000000000000000000000000000000000000600052600160045260246000fd5b60008160010b9050919050565b61a5008161a4ea565b82525050565b600060408201905061a51b600083018561a4f7565b61a5286020830184618c84565b939250505056fea2646970667358221220f5674db7d11b922075512c3a6b68008263634b16069f2df9fdfc923c10f251ed64736f6c63430008150033",
  "linkReferences": {},
  "deployedLinkReferences": {}
}