{
  "_format": "hh-sol-artifact-1",
  "contractName": "GeomeanOracleTest",
  "sourceName": "test/GEOMEAN_ORACLE/Remix/unit/RemixGeomeanOracle.sol",
  "abi": [
    {
      "inputs": [
        {
          "internalType": "address",
          "name": "_manager",
          "type": "address"
        }
      ],
      "stateMutability": "nonpayable",
      "type": "constructor"
    },
    {
      "inputs": [],
      "name": "MAX_TICK_SPACING",
      "outputs": [
        {
          "internalType": "int24",
          "name": "",
          "type": "int24"
        }
      ],
      "stateMutability": "view",
      "type": "function"
    },
    {
      "inputs": [],
      "name": "SQRT_RATIO_1_1",
      "outputs": [
        {
          "internalType": "uint160",
          "name": "",
          "type": "uint160"
        }
      ],
      "stateMutability": "view",
      "type": "function"
    },
    {
      "inputs": [],
      "name": "hook",
      "outputs": [
        {
          "internalType": "contract GeomeanOracle",
          "name": "",
          "type": "address"
        }
      ],
      "stateMutability": "view",
      "type": "function"
    },
    {
      "inputs": [],
      "name": "setUp",
      "outputs": [],
      "stateMutability": "nonpayable",
      "type": "function"
    },
    {
      "inputs": [],
      "name": "testBeforeInitializeAllowsPoolCreation",
      "outputs": [],
      "stateMutability": "nonpayable",
      "type": "function"
    },
    {
      "inputs": [],
      "name": "time",
      "outputs": [
        {
          "internalType": "uint32",
          "name": "",
          "type": "uint32"
        }
      ],
      "stateMutability": "view",
      "type": "function"
    },
    {
      "stateMutability": "payable",
      "type": "receive"
    }
  ],
  "bytecode": "0x60806040523480156200001157600080fd5b5060405162009944380380620099448339818101604052810190620000379190620000e9565b80600560006101000a81548173ffffffffffffffffffffffffffffffffffffffff021916908373ffffffffffffffffffffffffffffffffffffffff160217905550506200011b565b600080fd5b600073ffffffffffffffffffffffffffffffffffffffff82169050919050565b6000620000b18262000084565b9050919050565b620000c381620000a4565b8114620000cf57600080fd5b50565b600081519050620000e381620000b8565b92915050565b6000602082840312156200010257620001016200007f565b5b60006200011284828501620000d2565b91505092915050565b619819806200012b6000396000f3fe608060405260043610620000615760003560e01c80630a9254e4146200006e57806316ada547146200008857806317ad5fcb14620000b857806360460f0614620000d257806377267b1e14620001025780637f5a7c7b14620001325762000069565b366200006957005b600080fd5b3480156200007b57600080fd5b506200008662000162565b005b3480156200009557600080fd5b50620000a062000d7c565b604051620000af919062000f92565b60405180910390f35b348015620000c557600080fd5b50620000d062000d92565b005b348015620000df57600080fd5b50620000ea62000e59565b604051620000f9919062000fcd565b60405180910390f35b3480156200010f57600080fd5b506200011a62000e62565b6040516200012991906200101b565b60405180910390f35b3480156200013f57600080fd5b506200014a62000e73565b604051620001599190620010a3565b60405180910390f35b6012700100000000000000000000000000000000604051620001849062000f47565b620001919291906200120e565b604051809103906000f080158015620001ae573d6000803e3d6000fd5b50600660006101000a81548173ffffffffffffffffffffffffffffffffffffffff021916908373ffffffffffffffffffffffffffffffffffffffff1602179055506012700100000000000000000000000000000000604051620002119062000f47565b6200021e92919062001305565b604051809103906000f0801580156200023b573d6000803e3d6000fd5b50600760006101000a81548173ffffffffffffffffffffffffffffffffffffffff021916908373ffffffffffffffffffffffffffffffffffffffff160217905550620002cc600660009054906101000a900473ffffffffffffffffffffffffffffffffffffffff16600760009054906101000a900473ffffffffffffffffffffffffffffffffffffffff1662000e97565b600a6000600b60008491906101000a81548173ffffffffffffffffffffffffffffffffffffffff021916908373ffffffffffffffffffffffffffffffffffffffff1602179055508391906101000a81548173ffffffffffffffffffffffffffffffffffffffff021916908373ffffffffffffffffffffffffffffffffffffffff16021790555050506000730800000000000000000000000000000000000000732000000000000000000000000000000000000000734000000000000000000000000000000000000000738000000000000000000000000000000000000000171717905060008073__$94c0cfe9528947457e6b95e005fbcd3c0e$__63ab8651183085600060405180602001620003e29062000f55565b6020820181038252601f19601f82011660405250600560009054906101000a900473ffffffffffffffffffffffffffffffffffffffff166040516020016200042b919062001381565b6040516020818303038152906040526040518663ffffffff1660e01b81526004016200045c9594939291906200149d565b6040805180830381865af415801562000479573d6000803e3d6000fd5b505050506040513d601f19601f820116820180604052508101906200049f919062001579565b9150915080600560009054906101000a900473ffffffffffffffffffffffffffffffffffffffff16604051620004d59062000f55565b620004e19190620015e5565b8190604051809103906000f590508015801562000502573d6000803e3d6000fd5b506000806101000a81548173ffffffffffffffffffffffffffffffffffffffff021916908373ffffffffffffffffffffffffffffffffffffffff1602179055508173ffffffffffffffffffffffffffffffffffffffff1660008054906101000a900473ffffffffffffffffffffffffffffffffffffffff1673ffffffffffffffffffffffffffffffffffffffff1614620005d3576040517f08c379a0000000000000000000000000000000000000000000000000000000008152600401620005ca9062001678565b60405180910390fd5b620005df600162000ef1565b6040518060a00160405280600a60009054906101000a900473ffffffffffffffffffffffffffffffffffffffff1673ffffffffffffffffffffffffffffffffffffffff168152602001600b60009054906101000a900473ffffffffffffffffffffffffffffffffffffffff1673ffffffffffffffffffffffffffffffffffffffff168152602001600062ffffff168152602001617fff60010b60020b815260200160008054906101000a900473ffffffffffffffffffffffffffffffffffffffff1673ffffffffffffffffffffffffffffffffffffffff16815250600160008201518160000160006101000a81548173ffffffffffffffffffffffffffffffffffffffff021916908373ffffffffffffffffffffffffffffffffffffffff16021790555060208201518160010160006101000a81548173ffffffffffffffffffffffffffffffffffffffff021916908373ffffffffffffffffffffffffffffffffffffffff16021790555060408201518160010160146101000a81548162ffffff021916908362ffffff16021790555060608201518160010160176101000a81548162ffffff021916908360020b62ffffff16021790555060808201518160020160006101000a81548173ffffffffffffffffffffffffffffffffffffffff021916908373ffffffffffffffffffffffffffffffffffffffff1602179055509050506200093a60016040518060a00160405290816000820160009054906101000a900473ffffffffffffffffffffffffffffffffffffffff1673ffffffffffffffffffffffffffffffffffffffff1673ffffffffffffffffffffffffffffffffffffffff1681526020016001820160009054906101000a900473ffffffffffffffffffffffffffffffffffffffff1673ffffffffffffffffffffffffffffffffffffffff1673ffffffffffffffffffffffffffffffffffffffff1681526020016001820160149054906101000a900462ffffff1662ffffff1662ffffff1681526020016001820160179054906101000a900460020b60020b60020b81526020016002820160009054906101000a900473ffffffffffffffffffffffffffffffffffffffff1673ffffffffffffffffffffffffffffffffffffffff1673ffffffffffffffffffffffffffffffffffffffff168152505062000f15565b600481905550600560009054906101000a900473ffffffffffffffffffffffffffffffffffffffff16604051620009719062000f63565b6200097d9190620015e5565b604051809103906000f0801580156200099a573d6000803e3d6000fd5b50600860006101000a81548173ffffffffffffffffffffffffffffffffffffffff021916908373ffffffffffffffffffffffffffffffffffffffff160217905550600660009054906101000a900473ffffffffffffffffffffffffffffffffffffffff1673ffffffffffffffffffffffffffffffffffffffff1663095ea7b360008054906101000a900473ffffffffffffffffffffffffffffffffffffffff167fffffffffffffffffffffffffffffffffffffffffffffffffffffffffffffffff6040518363ffffffff1660e01b815260040162000a7a929190620016ab565b6020604051808303816000875af115801562000a9a573d6000803e3d6000fd5b505050506040513d601f19601f8201168201806040525081019062000ac0919062001715565b50600760009054906101000a900473ffffffffffffffffffffffffffffffffffffffff1673ffffffffffffffffffffffffffffffffffffffff1663095ea7b360008054906101000a900473ffffffffffffffffffffffffffffffffffffffff167fffffffffffffffffffffffffffffffffffffffffffffffffffffffffffffffff6040518363ffffffff1660e01b815260040162000b60929190620016ab565b6020604051808303816000875af115801562000b80573d6000803e3d6000fd5b505050506040513d601f19601f8201168201806040525081019062000ba6919062001715565b50600660009054906101000a900473ffffffffffffffffffffffffffffffffffffffff1673ffffffffffffffffffffffffffffffffffffffff1663095ea7b3600860009054906101000a900473ffffffffffffffffffffffffffffffffffffffff167fffffffffffffffffffffffffffffffffffffffffffffffffffffffffffffffff6040518363ffffffff1660e01b815260040162000c48929190620016ab565b6020604051808303816000875af115801562000c68573d6000803e3d6000fd5b505050506040513d601f19601f8201168201806040525081019062000c8e919062001715565b50600760009054906101000a900473ffffffffffffffffffffffffffffffffffffffff1673ffffffffffffffffffffffffffffffffffffffff1663095ea7b3600860009054906101000a900473ffffffffffffffffffffffffffffffffffffffff167fffffffffffffffffffffffffffffffffffffffffffffffffffffffffffffffff6040518363ffffffff1660e01b815260040162000d30929190620016ab565b6020604051808303816000875af115801562000d50573d6000803e3d6000fd5b505050506040513d601f19601f8201168201806040525081019062000d76919062001715565b50505050565b600b60149054906101000a900463ffffffff1681565b600560009054906101000a900473ffffffffffffffffffffffffffffffffffffffff1673ffffffffffffffffffffffffffffffffffffffff1663695c5bf560016c01000000000000000000000000604051806020016040528060008152506040518463ffffffff1660e01b815260040162000e1093929190620019b6565b6020604051808303816000875af115801562000e30573d6000803e3d6000fd5b505050506040513d601f19601f8201168201806040525081019062000e56919062001a2b565b50565b617fff60010b81565b6c0100000000000000000000000081565b60008054906101000a900473ffffffffffffffffffffffffffffffffffffffff1681565b6000808273ffffffffffffffffffffffffffffffffffffffff168473ffffffffffffffffffffffffffffffffffffffff16101562000edf578383809250819350505062000eea565b828480925081935050505b9250929050565b80600b60146101000a81548163ffffffff021916908363ffffffff16021790555050565b60008160405160200162000f2a919062001acf565b604051602081830303815290604052805190602001209050919050565b6121868062001aed83390190565b6141328062003c7383390190565b611a3f8062007da583390190565b600063ffffffff82169050919050565b62000f8c8162000f71565b82525050565b600060208201905062000fa9600083018462000f81565b92915050565b60008160020b9050919050565b62000fc78162000faf565b82525050565b600060208201905062000fe4600083018462000fbc565b92915050565b600073ffffffffffffffffffffffffffffffffffffffff82169050919050565b620010158162000fea565b82525050565b60006020820190506200103260008301846200100a565b92915050565b6000819050919050565b6000620010636200105d620010578462000fea565b62001038565b62000fea565b9050919050565b6000620010778262001042565b9050919050565b60006200108b826200106a565b9050919050565b6200109d816200107e565b82525050565b6000602082019050620010ba600083018462001092565b92915050565b600082825260208201905092915050565b7f5465737441000000000000000000000000000000000000000000000000000000600082015250565b600062001109600583620010c0565b91506200111682620010d1565b602082019050919050565b7f4100000000000000000000000000000000000000000000000000000000000000600082015250565b600062001159600183620010c0565b9150620011668262001121565b602082019050919050565b6000819050919050565b600060ff82169050919050565b6000620011a9620011a36200119d8462001171565b62001038565b6200117b565b9050919050565b620011bb8162001188565b82525050565b6000819050919050565b6000819050919050565b6000620011f6620011f0620011ea84620011c1565b62001038565b620011cb565b9050919050565b6200120881620011d5565b82525050565b600060808201905081810360008301526200122981620010fa565b905081810360208301526200123e816200114a565b90506200124f6040830185620011b0565b6200125e6060830184620011fd565b9392505050565b7f5465737442000000000000000000000000000000000000000000000000000000600082015250565b60006200129d600583620010c0565b9150620012aa8262001265565b602082019050919050565b7f4200000000000000000000000000000000000000000000000000000000000000600082015250565b6000620012ed600183620010c0565b9150620012fa82620012b5565b602082019050919050565b6000608082019050818103600083015262001320816200128e565b905081810360208301526200133581620012de565b9050620013466040830185620011b0565b620013556060830184620011fd565b9392505050565b6000620013698262000fea565b9050919050565b6200137b816200135c565b82525050565b600060208201905062001398600083018462001370565b92915050565b620013a9816200135c565b82525050565b620013ba8162000fea565b82525050565b6000819050919050565b6000620013eb620013e5620013df84620013c0565b62001038565b620011cb565b9050919050565b620013fd81620013ca565b82525050565b600081519050919050565b600082825260208201905092915050565b60005b838110156200143f57808201518184015260208101905062001422565b60008484015250505050565b6000601f19601f8301169050919050565b6000620014698262001403565b6200147581856200140e565b9350620014878185602086016200141f565b62001492816200144b565b840191505092915050565b600060a082019050620014b460008301886200139e565b620014c36020830187620013af565b620014d26040830186620013f2565b8181036060830152620014e681856200145c565b90508181036080830152620014fc81846200145c565b90509695505050505050565b600080fd5b62001518816200135c565b81146200152457600080fd5b50565b60008151905062001538816200150d565b92915050565b6000819050919050565b62001553816200153e565b81146200155f57600080fd5b50565b600081519050620015738162001548565b92915050565b6000806040838503121562001593576200159262001508565b5b6000620015a38582860162001527565b9250506020620015b68582860162001562565b9150509250929050565b6000620015cd826200106a565b9050919050565b620015df81620015c0565b82525050565b6000602082019050620015fc6000830184620015d4565b92915050565b7f466169725472616465546573743a20486f6f6b2061646472657373206d69736d60008201527f6174636800000000000000000000000000000000000000000000000000000000602082015250565b600062001660602483620010c0565b91506200166d8262001602565b604082019050919050565b60006020820190508181036000830152620016938162001651565b9050919050565b620016a581620011cb565b82525050565b6000604082019050620016c2600083018562001370565b620016d160208301846200169a565b9392505050565b60008115159050919050565b620016ef81620016d8565b8114620016fb57600080fd5b50565b6000815190506200170f81620016e4565b92915050565b6000602082840312156200172e576200172d62001508565b5b60006200173e84828501620016fe565b91505092915050565b60008160001c9050919050565b600073ffffffffffffffffffffffffffffffffffffffff82169050919050565b60006200178b620017858362001747565b62001754565b9050919050565b60006200179f826200106a565b9050919050565b620017b18162001792565b82525050565b60008160a01c9050919050565b600062ffffff82169050919050565b6000620017ea620017e483620017b7565b620017c4565b9050919050565b600062ffffff82169050919050565b6200180b81620017f1565b82525050565b60008160b81c9050919050565b60008160020b9050919050565b6000620018426200183c8362001811565b6200181e565b9050919050565b620018548162000faf565b82525050565b600073ffffffffffffffffffffffffffffffffffffffff82169050919050565b6000620018916200188b8362001747565b6200185a565b9050919050565b6000620018a5826200106a565b9050919050565b620018b78162001898565b82525050565b60a082016000808301549050620018d48162001774565b620018e36000860182620017a6565b5060018301549050620018f68162001774565b620019056020860182620017a6565b506200191181620017d3565b62001920604086018262001800565b506200192c816200182b565b6200193b606086018262001849565b50600283015490506200194e816200187a565b6200195d6080860182620018ac565b5050505050565b600082825260208201905092915050565b6000620019828262001403565b6200198e818562001964565b9350620019a08185602086016200141f565b620019ab816200144b565b840191505092915050565b600060e082019050620019cd6000830186620018bd565b620019dc60a08301856200100a565b81810360c0830152620019f0818462001975565b9050949350505050565b62001a058162000faf565b811462001a1157600080fd5b50565b60008151905062001a2581620019fa565b92915050565b60006020828403121562001a445762001a4362001508565b5b600062001a548482850162001a14565b91505092915050565b60a08201600082015162001a756000850182620017a6565b50602082015162001a8a6020850182620017a6565b50604082015162001a9f604085018262001800565b50606082015162001ab4606085018262001849565b50608082015162001ac96080850182620018ac565b50505050565b600060a08201905062001ae6600083018462001a5d565b9291505056fe60e06040523480156200001157600080fd5b506040516200218638038062002186833981810160405281019062000037919062000430565b83838382600090816200004b919062000721565b5081600190816200005d919062000721565b508060ff1660808160ff16815250504660a0818152505062000084620000aa60201b60201c565b60c08181525050505050620000a033826200013a60201b60201c565b5050505062000a25565b60007f8b73c3c69bb8fe3d512ecc4cf759cc79239f7b179b0ffacaa9a75d522b39400f6000604051620000de9190620008b7565b60405180910390207fc89efdaa54c0f20c7adf612882df0950f5a951637e0307cdcb4c672f298b8bc646306040516020016200011f95949392919062000941565b60405160208183030381529060405280519060200120905090565b6200014c82826200015060201b60201c565b5050565b8060026000828254620001649190620009cd565b9250508190555080600360008473ffffffffffffffffffffffffffffffffffffffff1673ffffffffffffffffffffffffffffffffffffffff168152602001908152602001600020600082825401925050819055508173ffffffffffffffffffffffffffffffffffffffff16600073ffffffffffffffffffffffffffffffffffffffff167fddf252ad1be2c89b69c2b068fc378daa952ba7f163c4a11628f55a4df523b3ef8360405162000218919062000a08565b60405180910390a35050565b6000604051905090565b600080fd5b600080fd5b600080fd5b600080fd5b6000601f19601f8301169050919050565b7f4e487b7100000000000000000000000000000000000000000000000000000000600052604160045260246000fd5b6200028d8262000242565b810181811067ffffffffffffffff82111715620002af57620002ae62000253565b5b80604052505050565b6000620002c462000224565b9050620002d2828262000282565b919050565b600067ffffffffffffffff821115620002f557620002f462000253565b5b620003008262000242565b9050602081019050919050565b60005b838110156200032d57808201518184015260208101905062000310565b60008484015250505050565b6000620003506200034a84620002d7565b620002b8565b9050828152602081018484840111156200036f576200036e6200023d565b5b6200037c8482856200030d565b509392505050565b600082601f8301126200039c576200039b62000238565b5b8151620003ae84826020860162000339565b91505092915050565b600060ff82169050919050565b620003cf81620003b7565b8114620003db57600080fd5b50565b600081519050620003ef81620003c4565b92915050565b6000819050919050565b6200040a81620003f5565b81146200041657600080fd5b50565b6000815190506200042a81620003ff565b92915050565b600080600080608085870312156200044d576200044c6200022e565b5b600085015167ffffffffffffffff8111156200046e576200046d62000233565b5b6200047c8782880162000384565b945050602085015167ffffffffffffffff811115620004a0576200049f62000233565b5b620004ae8782880162000384565b9350506040620004c187828801620003de565b9250506060620004d48782880162000419565b91505092959194509250565b600081519050919050565b7f4e487b7100000000000000000000000000000000000000000000000000000000600052602260045260246000fd5b600060028204905060018216806200053357607f821691505b602082108103620005495762000548620004eb565b5b50919050565b60008190508160005260206000209050919050565b60006020601f8301049050919050565b600082821b905092915050565b600060088302620005b37fffffffffffffffffffffffffffffffffffffffffffffffffffffffffffffffff8262000574565b620005bf868362000574565b95508019841693508086168417925050509392505050565b6000819050919050565b600062000602620005fc620005f684620003f5565b620005d7565b620003f5565b9050919050565b6000819050919050565b6200061e83620005e1565b620006366200062d8262000609565b84845462000581565b825550505050565b600090565b6200064d6200063e565b6200065a81848462000613565b505050565b5b8181101562000682576200067660008262000643565b60018101905062000660565b5050565b601f821115620006d1576200069b816200054f565b620006a68462000564565b81016020851015620006b6578190505b620006ce620006c58562000564565b8301826200065f565b50505b505050565b600082821c905092915050565b6000620006f660001984600802620006d6565b1980831691505092915050565b6000620007118383620006e3565b9150826002028217905092915050565b6200072c82620004e0565b67ffffffffffffffff81111562000748576200074762000253565b5b6200075482546200051a565b6200076182828562000686565b600060209050601f83116001811462000799576000841562000784578287015190505b62000790858262000703565b86555062000800565b601f198416620007a9866200054f565b60005b82811015620007d357848901518255600182019150602085019450602081019050620007ac565b86831015620007f35784890151620007ef601f891682620006e3565b8355505b6001600288020188555050505b505050505050565b600081905092915050565b60008190508160005260206000209050919050565b6000815462000837816200051a565b62000843818662000808565b945060018216600081146200086157600181146200087757620008ae565b60ff1983168652811515820286019350620008ae565b620008828562000813565b60005b83811015620008a65781548189015260018201915060208101905062000885565b838801955050505b50505092915050565b6000620008c5828462000828565b915081905092915050565b6000819050919050565b620008e581620008d0565b82525050565b620008f681620003f5565b82525050565b600073ffffffffffffffffffffffffffffffffffffffff82169050919050565b60006200092982620008fc565b9050919050565b6200093b816200091c565b82525050565b600060a082019050620009586000830188620008da565b620009676020830187620008da565b620009766040830186620008da565b620009856060830185620008eb565b62000994608083018462000930565b9695505050505050565b7f4e487b7100000000000000000000000000000000000000000000000000000000600052601160045260246000fd5b6000620009da82620003f5565b9150620009e783620003f5565b925082820190508082111562000a025762000a016200099e565b5b92915050565b600060208201905062000a1f6000830184620008eb565b92915050565b60805160a05160c05161173162000a55600039600061073901526000610705015260006106df01526117316000f3fe608060405234801561001057600080fd5b50600436106100ea5760003560e01c806361f49ed61161008c57806395d89b411161006657806395d89b4114610273578063a9059cbb14610291578063d505accf146102c1578063dd62ed3e146102dd576100ea565b806361f49ed6146101e357806370a08231146102135780637ecebe0014610243576100ea565b806323b872dd116100c857806323b872dd1461015b578063313ce5671461018b5780633644e515146101a957806340c10f19146101c7576100ea565b806306fdde03146100ef578063095ea7b31461010d57806318160ddd1461013d575b600080fd5b6100f761030d565b6040516101049190610f3b565b60405180910390f35b61012760048036038101906101229190610ff6565b61039b565b6040516101349190611051565b60405180910390f35b61014561048d565b604051610152919061107b565b60405180910390f35b61017560048036038101906101709190611096565b610493565b6040516101829190611051565b60405180910390f35b6101936106dd565b6040516101a09190611105565b60405180910390f35b6101b1610701565b6040516101be9190611139565b60405180910390f35b6101e160048036038101906101dc9190610ff6565b61075e565b005b6101fd60048036038101906101f89190611096565b61076c565b60405161020a9190611051565b60405180910390f35b61022d60048036038101906102289190611154565b61085f565b60405161023a919061107b565b60405180910390f35b61025d60048036038101906102589190611154565b610877565b60405161026a919061107b565b60405180910390f35b61027b61088f565b6040516102889190610f3b565b60405180910390f35b6102ab60048036038101906102a69190610ff6565b61091d565b6040516102b89190611051565b60405180910390f35b6102db60048036038101906102d691906111d9565b610a31565b005b6102f760048036038101906102f2919061127b565b610d2a565b604051610304919061107b565b60405180910390f35b6000805461031a906112ea565b80601f0160208091040260200160405190810160405280929190818152602001828054610346906112ea565b80156103935780601f1061036857610100808354040283529160200191610393565b820191906000526020600020905b81548152906001019060200180831161037657829003601f168201915b505050505081565b600081600460003373ffffffffffffffffffffffffffffffffffffffff1673ffffffffffffffffffffffffffffffffffffffff16815260200190815260200160002060008573ffffffffffffffffffffffffffffffffffffffff1673ffffffffffffffffffffffffffffffffffffffff168152602001908152602001600020819055508273ffffffffffffffffffffffffffffffffffffffff163373ffffffffffffffffffffffffffffffffffffffff167f8c5be1e5ebec7d5bd14f71427d1e84f3dd0314c0f7b2291e5b200ac8c7c3b9258460405161047b919061107b565b60405180910390a36001905092915050565b60025481565b600080600460008673ffffffffffffffffffffffffffffffffffffffff1673ffffffffffffffffffffffffffffffffffffffff16815260200190815260200160002060003373ffffffffffffffffffffffffffffffffffffffff1673ffffffffffffffffffffffffffffffffffffffff1681526020019081526020016000205490507fffffffffffffffffffffffffffffffffffffffffffffffffffffffffffffffff81146105c9578281610548919061134a565b600460008773ffffffffffffffffffffffffffffffffffffffff1673ffffffffffffffffffffffffffffffffffffffff16815260200190815260200160002060003373ffffffffffffffffffffffffffffffffffffffff1673ffffffffffffffffffffffffffffffffffffffff168152602001908152602001600020819055505b82600360008773ffffffffffffffffffffffffffffffffffffffff1673ffffffffffffffffffffffffffffffffffffffff1681526020019081526020016000206000828254610618919061134a565b9250508190555082600360008673ffffffffffffffffffffffffffffffffffffffff1673ffffffffffffffffffffffffffffffffffffffff168152602001908152602001600020600082825401925050819055508373ffffffffffffffffffffffffffffffffffffffff168573ffffffffffffffffffffffffffffffffffffffff167fddf252ad1be2c89b69c2b068fc378daa952ba7f163c4a11628f55a4df523b3ef856040516106c9919061107b565b60405180910390a360019150509392505050565b7f000000000000000000000000000000000000000000000000000000000000000081565b60007f0000000000000000000000000000000000000000000000000000000000000000461461073757610732610d4f565b610759565b7f00000000000000000000000000000000000000000000000000000000000000005b905090565b6107688282610ddb565b5050565b600081600460008673ffffffffffffffffffffffffffffffffffffffff1673ffffffffffffffffffffffffffffffffffffffff16815260200190815260200160002060008573ffffffffffffffffffffffffffffffffffffffff1673ffffffffffffffffffffffffffffffffffffffff168152602001908152602001600020819055508273ffffffffffffffffffffffffffffffffffffffff168473ffffffffffffffffffffffffffffffffffffffff167f8c5be1e5ebec7d5bd14f71427d1e84f3dd0314c0f7b2291e5b200ac8c7c3b9258460405161084c919061107b565b60405180910390a3600190509392505050565b60036020528060005260406000206000915090505481565b60056020528060005260406000206000915090505481565b6001805461089c906112ea565b80601f01602080910402602001604051908101604052809291908181526020018280546108c8906112ea565b80156109155780601f106108ea57610100808354040283529160200191610915565b820191906000526020600020905b8154815290600101906020018083116108f857829003601f168201915b505050505081565b600081600360003373ffffffffffffffffffffffffffffffffffffffff1673ffffffffffffffffffffffffffffffffffffffff168152602001908152602001600020600082825461096e919061134a565b9250508190555081600360008573ffffffffffffffffffffffffffffffffffffffff1673ffffffffffffffffffffffffffffffffffffffff168152602001908152602001600020600082825401925050819055508273ffffffffffffffffffffffffffffffffffffffff163373ffffffffffffffffffffffffffffffffffffffff167fddf252ad1be2c89b69c2b068fc378daa952ba7f163c4a11628f55a4df523b3ef84604051610a1f919061107b565b60405180910390a36001905092915050565b42841015610a74576040517f08c379a0000000000000000000000000000000000000000000000000000000008152600401610a6b906113ca565b60405180910390fd5b60006001610a80610701565b7f6e71edae12b1b97f4d1f60370fef10105fa2faae0126114a169c64845d6126c98a8a8a600560008f73ffffffffffffffffffffffffffffffffffffffff1673ffffffffffffffffffffffffffffffffffffffff1681526020019081526020016000206000815480929190600101919050558b604051602001610b08969594939291906113f9565b60405160208183030381529060405280519060200120604051602001610b2f9291906114d2565b6040516020818303038152906040528051906020012085858560405160008152602001604052604051610b659493929190611509565b6020604051602081039080840390855afa158015610b87573d6000803e3d6000fd5b505050602060405103519050600073ffffffffffffffffffffffffffffffffffffffff168173ffffffffffffffffffffffffffffffffffffffff1614158015610bfb57508773ffffffffffffffffffffffffffffffffffffffff168173ffffffffffffffffffffffffffffffffffffffff16145b610c3a576040517f08c379a0000000000000000000000000000000000000000000000000000000008152600401610c319061159a565b60405180910390fd5b85600460008373ffffffffffffffffffffffffffffffffffffffff1673ffffffffffffffffffffffffffffffffffffffff16815260200190815260200160002060008973ffffffffffffffffffffffffffffffffffffffff1673ffffffffffffffffffffffffffffffffffffffff16815260200190815260200160002081905550508573ffffffffffffffffffffffffffffffffffffffff168773ffffffffffffffffffffffffffffffffffffffff167f8c5be1e5ebec7d5bd14f71427d1e84f3dd0314c0f7b2291e5b200ac8c7c3b92587604051610d19919061107b565b60405180910390a350505050505050565b6004602052816000526040600020602052806000526040600020600091509150505481565b60007f8b73c3c69bb8fe3d512ecc4cf759cc79239f7b179b0ffacaa9a75d522b39400f6000604051610d81919061165d565b60405180910390207fc89efdaa54c0f20c7adf612882df0950f5a951637e0307cdcb4c672f298b8bc64630604051602001610dc0959493929190611674565b60405160208183030381529060405280519060200120905090565b8060026000828254610ded91906116c7565b9250508190555080600360008473ffffffffffffffffffffffffffffffffffffffff1673ffffffffffffffffffffffffffffffffffffffff168152602001908152602001600020600082825401925050819055508173ffffffffffffffffffffffffffffffffffffffff16600073ffffffffffffffffffffffffffffffffffffffff167fddf252ad1be2c89b69c2b068fc378daa952ba7f163c4a11628f55a4df523b3ef83604051610e9f919061107b565b60405180910390a35050565b600081519050919050565b600082825260208201905092915050565b60005b83811015610ee5578082015181840152602081019050610eca565b60008484015250505050565b6000601f19601f8301169050919050565b6000610f0d82610eab565b610f178185610eb6565b9350610f27818560208601610ec7565b610f3081610ef1565b840191505092915050565b60006020820190508181036000830152610f558184610f02565b905092915050565b600080fd5b600073ffffffffffffffffffffffffffffffffffffffff82169050919050565b6000610f8d82610f62565b9050919050565b610f9d81610f82565b8114610fa857600080fd5b50565b600081359050610fba81610f94565b92915050565b6000819050919050565b610fd381610fc0565b8114610fde57600080fd5b50565b600081359050610ff081610fca565b92915050565b6000806040838503121561100d5761100c610f5d565b5b600061101b85828601610fab565b925050602061102c85828601610fe1565b9150509250929050565b60008115159050919050565b61104b81611036565b82525050565b60006020820190506110666000830184611042565b92915050565b61107581610fc0565b82525050565b6000602082019050611090600083018461106c565b92915050565b6000806000606084860312156110af576110ae610f5d565b5b60006110bd86828701610fab565b93505060206110ce86828701610fab565b92505060406110df86828701610fe1565b9150509250925092565b600060ff82169050919050565b6110ff816110e9565b82525050565b600060208201905061111a60008301846110f6565b92915050565b6000819050919050565b61113381611120565b82525050565b600060208201905061114e600083018461112a565b92915050565b60006020828403121561116a57611169610f5d565b5b600061117884828501610fab565b91505092915050565b61118a816110e9565b811461119557600080fd5b50565b6000813590506111a781611181565b92915050565b6111b681611120565b81146111c157600080fd5b50565b6000813590506111d3816111ad565b92915050565b600080600080600080600060e0888a0312156111f8576111f7610f5d565b5b60006112068a828b01610fab565b97505060206112178a828b01610fab565b96505060406112288a828b01610fe1565b95505060606112398a828b01610fe1565b945050608061124a8a828b01611198565b93505060a061125b8a828b016111c4565b92505060c061126c8a828b016111c4565b91505092959891949750929550565b6000806040838503121561129257611291610f5d565b5b60006112a085828601610fab565b92505060206112b185828601610fab565b9150509250929050565b7f4e487b7100000000000000000000000000000000000000000000000000000000600052602260045260246000fd5b6000600282049050600182168061130257607f821691505b602082108103611315576113146112bb565b5b50919050565b7f4e487b7100000000000000000000000000000000000000000000000000000000600052601160045260246000fd5b600061135582610fc0565b915061136083610fc0565b92508282039050818111156113785761137761131b565b5b92915050565b7f5045524d49545f444541444c494e455f45585049524544000000000000000000600082015250565b60006113b4601783610eb6565b91506113bf8261137e565b602082019050919050565b600060208201905081810360008301526113e3816113a7565b9050919050565b6113f381610f82565b82525050565b600060c08201905061140e600083018961112a565b61141b60208301886113ea565b61142860408301876113ea565b611435606083018661106c565b611442608083018561106c565b61144f60a083018461106c565b979650505050505050565b600081905092915050565b7f1901000000000000000000000000000000000000000000000000000000000000600082015250565b600061149b60028361145a565b91506114a682611465565b600282019050919050565b6000819050919050565b6114cc6114c782611120565b6114b1565b82525050565b60006114dd8261148e565b91506114e982856114bb565b6020820191506114f982846114bb565b6020820191508190509392505050565b600060808201905061151e600083018761112a565b61152b60208301866110f6565b611538604083018561112a565b611545606083018461112a565b95945050505050565b7f494e56414c49445f5349474e4552000000000000000000000000000000000000600082015250565b6000611584600e83610eb6565b915061158f8261154e565b602082019050919050565b600060208201905081810360008301526115b381611577565b9050919050565b600081905092915050565b60008190508160005260206000209050919050565b600081546115e7816112ea565b6115f181866115ba565b9450600182166000811461160c576001811461162157611654565b60ff1983168652811515820286019350611654565b61162a856115c5565b60005b8381101561164c5781548189015260018201915060208101905061162d565b838801955050505b50505092915050565b600061166982846115da565b915081905092915050565b600060a082019050611689600083018861112a565b611696602083018761112a565b6116a3604083018661112a565b6116b0606083018561106c565b6116bd60808301846113ea565b9695505050505050565b60006116d282610fc0565b91506116dd83610fc0565b92508282019050808211156116f5576116f461131b565b5b9291505056fea2646970667358221220d31e47fd1accc7a22040a33b1819ef70519b11925aa65adeb7bdfcd7a72d4d9264736f6c6343000815003360a06040523480156200001157600080fd5b506040516200413238038062004132833981810160405281019062000037919062000506565b808073ffffffffffffffffffffffffffffffffffffffff1660808173ffffffffffffffffffffffffffffffffffffffff16815250506200007d306200008560201b60201c565b505062000566565b620000a6816200009a620000a960201b60201c565b6200010a60201b60201c565b50565b620000b362000433565b60405180610100016040528060011515815260200160011515815260200160011515815260200160001515815260200160011515815260200160001515815260200160001515815260200160001515815250905090565b6200011b826200026b60201b60201c565b1515816000015115151415806200014a57506200013e82620002a460201b60201c565b15158160200151151514155b806200016e57506200016282620002dd60201b60201c565b15158160400151151514155b8062000192575062000186826200031660201b60201c565b15158160600151151514155b80620001b65750620001aa826200034f60201b60201c565b15158160800151151514155b80620001da5750620001ce826200038860201b60201c565b15158160a00151151514155b80620001fe5750620001f282620003c160201b60201c565b15158160c00151151514155b806200022257506200021682620003fa60201b60201c565b15158160e00151151514155b156200026757816040517fe65af6a00000000000000000000000000000000000000000000000000000000081526004016200025e919062000549565b60405180910390fd5b5050565b6000807380000000000000000000000000000000000000008373ffffffffffffffffffffffffffffffffffffffff161614159050919050565b6000807340000000000000000000000000000000000000008373ffffffffffffffffffffffffffffffffffffffff161614159050919050565b6000807320000000000000000000000000000000000000008373ffffffffffffffffffffffffffffffffffffffff161614159050919050565b6000807310000000000000000000000000000000000000008373ffffffffffffffffffffffffffffffffffffffff161614159050919050565b6000807308000000000000000000000000000000000000008373ffffffffffffffffffffffffffffffffffffffff161614159050919050565b6000807304000000000000000000000000000000000000008373ffffffffffffffffffffffffffffffffffffffff161614159050919050565b6000807302000000000000000000000000000000000000008373ffffffffffffffffffffffffffffffffffffffff161614159050919050565b6000807301000000000000000000000000000000000000008373ffffffffffffffffffffffffffffffffffffffff161614159050919050565b6040518061010001604052806000151581526020016000151581526020016000151581526020016000151581526020016000151581526020016000151581526020016000151581526020016000151581525090565b600080fd5b600073ffffffffffffffffffffffffffffffffffffffff82169050919050565b6000620004ba826200048d565b9050919050565b6000620004ce82620004ad565b9050919050565b620004e081620004c1565b8114620004ec57600080fd5b50565b6000815190506200050081620004d5565b92915050565b6000602082840312156200051f576200051e62000488565b5b60006200052f84828501620004ef565b91505092915050565b6200054381620004ad565b82525050565b600060208201905062000560600083018462000538565b92915050565b608051613b63620005cf6000396000818161045b01528181610502015281816105f9015281816107a5015281816108f101528181610aa801528181610dfd01528181610e9e0152818161101e015281816110e40152818161123701526112d80152613b636000f3fe608060405234801561001057600080fd5b506004361061010b5760003560e01c8063b6a8b0fa116100a2578063e3b077a111610071578063e3b077a114610330578063efb40e5714610360578063f96f97f214610390578063fbdc1ef1146103c1578063fe9a6f45146103f35761010b565b8063b6a8b0fa1461027f578063dc4c90d3146102af578063dd71cea8146102cd578063e1b4af69146103005761010b565b80638f1c9217116100de5780638f1c9217146101be578063a910f80f146101ef578063ab6291fe1461021f578063b47b2fb11461024f5761010b565b806330b7cdef146101105780633440d82014610140578063575e24b414610170578063612c39b7146101a0575b600080fd5b61012a6004803603810190610125919061274c565b610423565b6040516101379190612824565b60405180910390f35b61015a6004803603810190610155919061286b565b610457565b6040516101679190612824565b60405180910390f35b61018a60048036038101906101859190612913565b6105f5565b6040516101979190612824565b60405180910390f35b6101a8610698565b6040516101b59190612a5a565b60405180910390f35b6101d860048036038101906101d39190612ab0565b6106f7565b6040516101e6929190612aff565b60405180910390f35b61020960048036038101906102049190612b61565b6107a1565b6040516102169190612824565b60405180910390f35b61023960048036038101906102349190612bfd565b6108ed565b6040516102469190612cda565b60405180910390f35b61026960048036038101906102649190612cfc565b610a3e565b6040516102769190612824565b60405180910390f35b61029960048036038101906102949190612dcf565b610a72565b6040516102a69190612824565b60405180910390f35b6102b7610aa6565b6040516102c49190612eca565b60405180910390f35b6102e760048036038101906102e29190612f1b565b610aca565b6040516102f79493929190612fb4565b60405180910390f35b61031a60048036038101906103159190612dcf565b610b55565b6040516103279190612824565b60405180910390f35b61034a60048036038101906103459190612ff9565b610b89565b6040516103579190613077565b60405180910390f35b61037a60048036038101906103759190613092565b610c3c565b6040516103879190613154565b60405180910390f35b6103aa60048036038101906103a591906131c5565b610d57565b6040516103b8929190613383565b60405180910390f35b6103db60048036038101906103d691906133ba565b610fc6565b6040516103ea939291906133e7565b60405180910390f35b61040d6004803603810190610408919061341e565b61101a565b60405161041a9190612824565b60405180910390f35b60006040517f0a85dc2900000000000000000000000000000000000000000000000000000000815260040160405180910390fd5b60007f000000000000000000000000000000000000000000000000000000000000000073ffffffffffffffffffffffffffffffffffffffff163373ffffffffffffffffffffffffffffffffffffffff16146104de576040517fae18210a00000000000000000000000000000000000000000000000000000000815260040160405180910390fd5b60008560400160208101906104f391906134e3565b62ffffff161415806105ab57507f000000000000000000000000000000000000000000000000000000000000000073ffffffffffffffffffffffffffffffffffffffff166360460f066040518163ffffffff1660e01b8152600401602060405180830381865afa15801561056b573d6000803e3d6000fd5b505050506040513d601f19601f8201168201806040525081019061058f9190613525565b60020b8560600160208101906105a59190613552565b60020b14155b156105e2576040517fc424964a00000000000000000000000000000000000000000000000000000000815260040160405180910390fd5b633440d82060e01b905095945050505050565b60007f000000000000000000000000000000000000000000000000000000000000000073ffffffffffffffffffffffffffffffffffffffff163373ffffffffffffffffffffffffffffffffffffffff161461067c576040517fae18210a00000000000000000000000000000000000000000000000000000000815260040160405180910390fd5b61068585611216565b63575e24b460e01b905095945050505050565b6106a0612531565b60405180610100016040528060011515815260200160011515815260200160011515815260200160001515815260200160011515815260200160001515815260200160001515815260200160001515815250905090565b60008060008460405160200161070d9190613735565b60405160208183030381529060405280519060200120905060006001600083815260200190815260200160002090508060000160049054906101000a900461ffff16935061077784866000808681526020019081526020016000206114819092919063ffffffff16565b9250828160000160046101000a81548161ffff021916908361ffff16021790555050509250929050565b60007f000000000000000000000000000000000000000000000000000000000000000073ffffffffffffffffffffffffffffffffffffffff163373ffffffffffffffffffffffffffffffffffffffff1614610828576040517fae18210a00000000000000000000000000000000000000000000000000000000815260040160405180910390fd5b60006108438780360381019061083e919061385c565b611542565b9050610870610850611572565b60008084815260200190815260200160002061157a90919063ffffffff16565b6001600084815260200190815260200160002060000160026001600086815260200190815260200160002060000160048491906101000a81548161ffff021916908361ffff1602179055508391906101000a81548161ffff021916908361ffff160217905550505063a910f80f60e01b9150509695505050505050565b60607f000000000000000000000000000000000000000000000000000000000000000073ffffffffffffffffffffffffffffffffffffffff163373ffffffffffffffffffffffffffffffffffffffff1614610974576040517fae18210a00000000000000000000000000000000000000000000000000000000815260040160405180910390fd5b6000803073ffffffffffffffffffffffffffffffffffffffff16858560405161099e9291906138c8565b6000604051808303816000865af19150503d80600081146109db576040519150601f19603f3d011682016040523d82523d6000602084013e6109e0565b606091505b509150915081156109f5578092505050610a38565b6000815103610a30576040517fa40afa3800000000000000000000000000000000000000000000000000000000815260040160405180910390fd5b805160208201fd5b92915050565b60006040517f0a85dc2900000000000000000000000000000000000000000000000000000000815260040160405180910390fd5b60006040517f0a85dc2900000000000000000000000000000000000000000000000000000000815260040160405180910390fd5b7f000000000000000000000000000000000000000000000000000000000000000081565b60006020528160005260406000208161ffff8110610ae757600080fd5b01600091509150508060000160009054906101000a900463ffffffff16908060000160049054906101000a900460060b9080600001600b9054906101000a900473ffffffffffffffffffffffffffffffffffffffff169080600001601f9054906101000a900460ff16905084565b60006040517f0a85dc2900000000000000000000000000000000000000000000000000000000815260040160405180910390fd5b610b91612586565b6001600083604051602001610ba69190613735565b6040516020818303038152906040528051906020012081526020019081526020016000206040518060600160405290816000820160009054906101000a900461ffff1661ffff1661ffff1681526020016000820160029054906101000a900461ffff1661ffff1661ffff1681526020016000820160049054906101000a900461ffff1661ffff1661ffff16815250509050919050565b610c446125b3565b60008084604051602001610c589190613735565b6040516020818303038152906040528051906020012081526020019081526020016000208261ffff8110610c8f57610c8e6138e1565b5b016040518060800160405290816000820160009054906101000a900463ffffffff1663ffffffff1663ffffffff1681526020016000820160049054906101000a900460060b60060b60060b815260200160008201600b9054906101000a900473ffffffffffffffffffffffffffffffffffffffff1673ffffffffffffffffffffffffffffffffffffffff1673ffffffffffffffffffffffffffffffffffffffff16815260200160008201601f9054906101000a900460ff161515151581525050905092915050565b6060806000610d7586803603810190610d70919061385c565b611542565b90506000600160008381526020019081526020016000206040518060600160405290816000820160009054906101000a900461ffff1661ffff1661ffff1681526020016000820160029054906101000a900461ffff1661ffff1661ffff1681526020016000820160049054906101000a900461ffff1661ffff1661ffff1681525050905060007f000000000000000000000000000000000000000000000000000000000000000073ffffffffffffffffffffffffffffffffffffffff1663c815641c846040518263ffffffff1660e01b8152600401610e549190613931565b608060405180830381865afa158015610e71573d6000803e3d6000fd5b505050506040513d601f19601f82011682018060405250810190610e959190613976565b505091505060007f000000000000000000000000000000000000000000000000000000000000000073ffffffffffffffffffffffffffffffffffffffff1663fa6793d5856040518263ffffffff1660e01b8152600401610ef59190613931565b602060405180830381865afa158015610f12573d6000803e3d6000fd5b505050506040513d601f19601f82011682018060405250810190610f369190613a25565b9050610fb6610f43611572565b898980806020026020016040519081016040528093929190818152602001838360200280828437600081840152601f19601f820116905080830192505050505050508486600001518588602001516000808c81526020019081526020016000206116a7909695949392919063ffffffff16565b9550955050505050935093915050565b60016020528060005260406000206000915090508060000160009054906101000a900461ffff16908060000160029054906101000a900461ffff16908060000160049054906101000a900461ffff16905083565b60007f000000000000000000000000000000000000000000000000000000000000000073ffffffffffffffffffffffffffffffffffffffff163373ffffffffffffffffffffffffffffffffffffffff16146110a1576040517fae18210a00000000000000000000000000000000000000000000000000000000815260040160405180910390fd5b6000846040013512156110e0576040517fc7e87ced00000000000000000000000000000000000000000000000000000000815260040160405180910390fd5b60007f000000000000000000000000000000000000000000000000000000000000000073ffffffffffffffffffffffffffffffffffffffff166360460f066040518163ffffffff1660e01b8152600401602060405180830381865afa15801561114d573d6000803e3d6000fd5b505050506040513d601f19601f820116820180604052508101906111719190613525565b905061117c8161183f565b60020b8560000160208101906111929190613552565b60020b1415806111c257506111a681611881565b60020b8560200160208101906111bc9190613552565b60020b14155b156111f9576040517fd07a010d00000000000000000000000000000000000000000000000000000000815260040160405180910390fd5b61120286611216565b63fe9a6f4560e01b91505095945050505050565b60006112318280360381019061122c919061385c565b611542565b905060007f000000000000000000000000000000000000000000000000000000000000000073ffffffffffffffffffffffffffffffffffffffff1663c815641c836040518263ffffffff1660e01b815260040161128e9190613931565b608060405180830381865afa1580156112ab573d6000803e3d6000fd5b505050506040513d601f19601f820116820180604052508101906112cf9190613976565b505091505060007f000000000000000000000000000000000000000000000000000000000000000073ffffffffffffffffffffffffffffffffffffffff1663fa6793d5846040518263ffffffff1660e01b815260040161132f9190613931565b602060405180830381865afa15801561134c573d6000803e3d6000fd5b505050506040513d601f19601f820116820180604052508101906113709190613a25565b90506114136001600085815260200190815260200160002060000160009054906101000a900461ffff166113a2611572565b84846001600089815260200190815260200160002060000160029054906101000a900461ffff16600160008a815260200190815260200160002060000160049054906101000a900461ffff166000808b81526020019081526020016000206118c6909695949392919063ffffffff16565b6001600086815260200190815260200160002060000160006001600088815260200190815260200160002060000160028491906101000a81548161ffff021916908361ffff1602179055508391906101000a81548161ffff021916908361ffff160217905550505050505050565b6000808361ffff16036114c0576040517fab7760cc00000000000000000000000000000000000000000000000000000000815260040160405180910390fd5b8261ffff168261ffff16116114d75782905061153b565b60008390505b8261ffff168161ffff161015611536576001858261ffff1661ffff8110611507576115066138e1565b5b0160000160006101000a81548163ffffffff021916908363ffffffff16021790555080806001019150506114dd565b508190505b9392505050565b6000816040516020016115559190613aba565b604051602081830303815290604052805190602001209050919050565b600042905090565b60008060405180608001604052808463ffffffff168152602001600060060b8152602001600073ffffffffffffffffffffffffffffffffffffffff1681526020016001151581525084600061ffff81106115d7576115d66138e1565b5b0160008201518160000160006101000a81548163ffffffff021916908363ffffffff16021790555060208201518160000160046101000a81548166ffffffffffffff021916908360060b66ffffffffffffff160217905550604082015181600001600b6101000a81548173ffffffffffffffffffffffffffffffffffffffff021916908373ffffffffffffffffffffffffffffffffffffffff160217905550606082015181600001601f6101000a81548160ff021916908315150217905550905050600180915091509250929050565b60608060008361ffff16036116e8576040517fab7760cc00000000000000000000000000000000000000000000000000000000815260040160405180910390fd5b865167ffffffffffffffff81111561170357611702613755565b5b6040519080825280602002602001820160405280156117315781602001602082028036833780820191505090505b509150865167ffffffffffffffff81111561174f5761174e613755565b5b60405190808252806020026020018201604052801561177d5781602001602082028036833780820191505090505b50905060005b8751811015611832576117b58a8a8a84815181106117a4576117a36138e1565b5b60200260200101518a8a8a8a611b0c565b8483815181106117c8576117c76138e1565b5b602002602001018484815181106117e2576117e16138e1565b5b602002602001018273ffffffffffffffffffffffffffffffffffffffff1673ffffffffffffffffffffffffffffffffffffffff168152508260060b60060b81525050508080600101915050611783565b5097509795505050505050565b6000818260020b7ffffffffffffffffffffffffffffffffffffffffffffffffffffffffffff2761860020b8161187857611877613ad5565b5b05029050919050565b6000818260020b7ffffffffffffffffffffffffffffffffffffffffffffffffffffffffffff2761860000360020b816118bd576118bc613ad5565b5b05029050919050565b6000806000898961ffff1661ffff81106118e3576118e26138e1565b5b016040518060800160405290816000820160009054906101000a900463ffffffff1663ffffffff1663ffffffff1681526020016000820160049054906101000a900460060b60060b60060b815260200160008201600b9054906101000a900473ffffffffffffffffffffffffffffffffffffffff1673ffffffffffffffffffffffffffffffffffffffff1673ffffffffffffffffffffffffffffffffffffffff16815260200160008201601f9054906101000a900460ff16151515158152505090508763ffffffff16816000015163ffffffff16036119c85788859250925050611b00565b8461ffff168461ffff161180156119e957506001850361ffff168961ffff16145b156119f6578391506119fa565b8491505b8161ffff1660018a0161ffff1681611a1557611a14613ad5565b5b069250611a2481898989611d54565b8a8461ffff1661ffff8110611a3c57611a3b6138e1565b5b0160008201518160000160006101000a81548163ffffffff021916908363ffffffff16021790555060208201518160000160046101000a81548166ffffffffffffff021916908360060b66ffffffffffffff160217905550604082015181600001600b6101000a81548173ffffffffffffffffffffffffffffffffffffffff021916908373ffffffffffffffffffffffffffffffffffffffff160217905550606082015181600001601f6101000a81548160ff021916908315150217905550905050505b97509795505050505050565b60008060008763ffffffff1603611c33576000898661ffff1661ffff8110611b3757611b366138e1565b5b016040518060800160405290816000820160009054906101000a900463ffffffff1663ffffffff1663ffffffff1681526020016000820160049054906101000a900460060b60060b60060b815260200160008201600b9054906101000a900473ffffffffffffffffffffffffffffffffffffffff1673ffffffffffffffffffffffffffffffffffffffff1673ffffffffffffffffffffffffffffffffffffffff16815260200160008201601f9054906101000a900460ff16151515158152505090508863ffffffff16816000015163ffffffff1614611c1f57611c1c818a8988611d54565b90505b806020015181604001519250925050611d48565b60008789039050600080611c4c8c8c858c8c8c8c611e46565b91509150816000015163ffffffff168363ffffffff1603611c7d578160200151826040015194509450505050611d48565b806000015163ffffffff168363ffffffff1603611caa578060200151816040015194509450505050611d48565b60008260000151826000015103905060008360000151850390508063ffffffff168263ffffffff1660060b856020015185602001510360060b81611cf157611cf0613ad5565b5b05028460200151018263ffffffff168263ffffffff16866040015186604001510373ffffffffffffffffffffffffffffffffffffffff160281611d3757611d36613ad5565b5b048560400151019650965050505050505b97509795505050505050565b611d5c6125b3565b600085600001518503905060405180608001604052808663ffffffff1681526020018263ffffffff168660020b0288602001510160060b81526020016000856fffffffffffffffffffffffffffffffff1611611db9576001611dbb565b845b6fffffffffffffffffffffffffffffffff1660808463ffffffff1673ffffffffffffffffffffffffffffffffffffffff16901b73ffffffffffffffffffffffffffffffffffffffff1681611e1257611e11613ad5565b5b0488604001510173ffffffffffffffffffffffffffffffffffffffff16815260200160011515815250915050949350505050565b611e4e6125b3565b611e566125b3565b888561ffff1661ffff8110611e6e57611e6d6138e1565b5b016040518060800160405290816000820160009054906101000a900463ffffffff1663ffffffff1663ffffffff1681526020016000820160049054906101000a900460060b60060b60060b815260200160008201600b9054906101000a900473ffffffffffffffffffffffffffffffffffffffff1673ffffffffffffffffffffffffffffffffffffffff1673ffffffffffffffffffffffffffffffffffffffff16815260200160008201601f9054906101000a900460ff1615151515815250509150611f3f888360000151896121bc565b15611f72578663ffffffff16826000015163ffffffff1603156121b05781611f6983898988611d54565b915091506121b0565b888361ffff166001870161ffff1681611f8e57611f8d613ad5565b5b0661ffff1661ffff8110611fa557611fa46138e1565b5b016040518060800160405290816000820160009054906101000a900463ffffffff1663ffffffff1663ffffffff1681526020016000820160049054906101000a900460060b60060b60060b815260200160008201600b9054906101000a900473ffffffffffffffffffffffffffffffffffffffff1673ffffffffffffffffffffffffffffffffffffffff1673ffffffffffffffffffffffffffffffffffffffff16815260200160008201601f9054906101000a900460ff161515151581525050915081606001516121485788600061ffff8110612085576120846138e1565b5b016040518060800160405290816000820160009054906101000a900463ffffffff1663ffffffff1663ffffffff1681526020016000820160049054906101000a900460060b60060b60060b815260200160008201600b9054906101000a900473ffffffffffffffffffffffffffffffffffffffff1673ffffffffffffffffffffffffffffffffffffffff1673ffffffffffffffffffffffffffffffffffffffff16815260200160008201601f9054906101000a900460ff16151515158152505091505b612157888360000151896121bc565b61219e578160000151876040517f28e44dc0000000000000000000000000000000000000000000000000000000008152600401612195929190613b04565b60405180910390fd5b6121ab8989898887612284565b915091505b97509795505050505050565b60008363ffffffff168363ffffffff16111580156121e657508363ffffffff168263ffffffff1611155b15612202578163ffffffff168363ffffffff161115905061227d565b60008463ffffffff168463ffffffff161161222a576401000000008463ffffffff1601612232565b8363ffffffff165b64ffffffffff16905060008563ffffffff168463ffffffff1611612263576401000000008463ffffffff160161226b565b8363ffffffff165b64ffffffffff16905080821115925050505b9392505050565b61228c6125b3565b6122946125b3565b60008361ffff166001860161ffff16816122b1576122b0613ad5565b5b0661ffff169050600060018561ffff16830103905060005b600115612524576002828401816122e3576122e2613ad5565b5b049050898661ffff1682816122fb576122fa613ad5565b5b0661ffff811061230e5761230d6138e1565b5b016040518060800160405290816000820160009054906101000a900463ffffffff1663ffffffff1663ffffffff1681526020016000820160049054906101000a900460060b60060b60060b815260200160008201600b9054906101000a900473ffffffffffffffffffffffffffffffffffffffff1673ffffffffffffffffffffffffffffffffffffffff1673ffffffffffffffffffffffffffffffffffffffff16815260200160008201601f9054906101000a900460ff161515151581525050945084606001516123e4576001810192506122c9565b898661ffff1660018301816123fc576123fb613ad5565b5b0661ffff811061240f5761240e6138e1565b5b016040518060800160405290816000820160009054906101000a900463ffffffff1663ffffffff1663ffffffff1681526020016000820160049054906101000a900460060b60060b60060b815260200160008201600b9054906101000a900473ffffffffffffffffffffffffffffffffffffffff1673ffffffffffffffffffffffffffffffffffffffff1673ffffffffffffffffffffffffffffffffffffffff16815260200160008201601f9054906101000a900460ff161515151581525050935060006124e28a87600001518b6121bc565b90508080156124fc57506124fb8a8a87600001516121bc565b5b156125075750612524565b806125175760018203925061251e565b6001820193505b506122c9565b5050509550959350505050565b6040518061010001604052806000151581526020016000151581526020016000151581526020016000151581526020016000151581526020016000151581526020016000151581526020016000151581525090565b6040518060600160405280600061ffff168152602001600061ffff168152602001600061ffff1681525090565b6040518060800160405280600063ffffffff168152602001600060060b8152602001600073ffffffffffffffffffffffffffffffffffffffff1681526020016000151581525090565b6000604051905090565b600080fd5b600080fd5b600073ffffffffffffffffffffffffffffffffffffffff82169050919050565b600061263b82612610565b9050919050565b61264b81612630565b811461265657600080fd5b50565b60008135905061266881612642565b92915050565b600080fd5b600060a082840312156126895761268861266e565b5b81905092915050565b6000606082840312156126a8576126a761266e565b5b81905092915050565b6000819050919050565b6126c4816126b1565b81146126cf57600080fd5b50565b6000813590506126e1816126bb565b92915050565b600080fd5b600080fd5b600080fd5b60008083601f84011261270c5761270b6126e7565b5b8235905067ffffffffffffffff811115612729576127286126ec565b5b602083019150836001820283011115612745576127446126f1565b5b9250929050565b600080600080600080610160878903121561276a57612769612606565b5b600061277889828a01612659565b965050602061278989828a01612673565b95505060c061279a89828a01612692565b9450506101206127ac89828a016126d2565b93505061014087013567ffffffffffffffff8111156127ce576127cd61260b565b5b6127da89828a016126f6565b92509250509295509295509295565b60007fffffffff0000000000000000000000000000000000000000000000000000000082169050919050565b61281e816127e9565b82525050565b60006020820190506128396000830184612815565b92915050565b61284881612610565b811461285357600080fd5b50565b6000813590506128658161283f565b92915050565b6000806000806000610100868803121561288857612887612606565b5b600061289688828901612659565b95505060206128a788828901612673565b94505060c06128b888828901612856565b93505060e086013567ffffffffffffffff8111156128d9576128d861260b565b5b6128e5888289016126f6565b92509250509295509295909350565b60006060828403121561290a5761290961266e565b5b81905092915050565b600080600080600061014086880312156129305761292f612606565b5b600061293e88828901612659565b955050602061294f88828901612673565b94505060c0612960888289016128f4565b93505061012086013567ffffffffffffffff8111156129825761298161260b565b5b61298e888289016126f6565b92509250509295509295909350565b60008115159050919050565b6129b28161299d565b82525050565b610100820160008201516129cf60008501826129a9565b5060208201516129e260208501826129a9565b5060408201516129f560408501826129a9565b506060820151612a0860608501826129a9565b506080820151612a1b60808501826129a9565b5060a0820151612a2e60a08501826129a9565b5060c0820151612a4160c08501826129a9565b5060e0820151612a5460e08501826129a9565b50505050565b600061010082019050612a7060008301846129b8565b92915050565b600061ffff82169050919050565b612a8d81612a76565b8114612a9857600080fd5b50565b600081359050612aaa81612a84565b92915050565b60008060c08385031215612ac757612ac6612606565b5b6000612ad585828601612673565b92505060a0612ae685828601612a9b565b9150509250929050565b612af981612a76565b82525050565b6000604082019050612b146000830185612af0565b612b216020830184612af0565b9392505050565b60008160020b9050919050565b612b3e81612b28565b8114612b4957600080fd5b50565b600081359050612b5b81612b35565b92915050565b6000806000806000806101208789031215612b7f57612b7e612606565b5b6000612b8d89828a01612659565b9650506020612b9e89828a01612673565b95505060c0612baf89828a01612856565b94505060e0612bc089828a01612b4c565b93505061010087013567ffffffffffffffff811115612be257612be161260b565b5b612bee89828a016126f6565b92509250509295509295509295565b60008060208385031215612c1457612c13612606565b5b600083013567ffffffffffffffff811115612c3257612c3161260b565b5b612c3e858286016126f6565b92509250509250929050565b600081519050919050565b600082825260208201905092915050565b60005b83811015612c84578082015181840152602081019050612c69565b60008484015250505050565b6000601f19601f8301169050919050565b6000612cac82612c4a565b612cb68185612c55565b9350612cc6818560208601612c66565b612ccf81612c90565b840191505092915050565b60006020820190508181036000830152612cf48184612ca1565b905092915050565b6000806000806000806101608789031215612d1a57612d19612606565b5b6000612d2889828a01612659565b9650506020612d3989828a01612673565b95505060c0612d4a89828a016128f4565b945050610120612d5c89828a016126d2565b93505061014087013567ffffffffffffffff811115612d7e57612d7d61260b565b5b612d8a89828a016126f6565b92509250509295509295509295565b6000819050919050565b612dac81612d99565b8114612db757600080fd5b50565b600081359050612dc981612da3565b92915050565b6000806000806000806101208789031215612ded57612dec612606565b5b6000612dfb89828a01612659565b9650506020612e0c89828a01612673565b95505060c0612e1d89828a01612dba565b94505060e0612e2e89828a01612dba565b93505061010087013567ffffffffffffffff811115612e5057612e4f61260b565b5b612e5c89828a016126f6565b92509250509295509295509295565b6000819050919050565b6000612e90612e8b612e8684612610565b612e6b565b612610565b9050919050565b6000612ea282612e75565b9050919050565b6000612eb482612e97565b9050919050565b612ec481612ea9565b82525050565b6000602082019050612edf6000830184612ebb565b92915050565b6000819050919050565b612ef881612ee5565b8114612f0357600080fd5b50565b600081359050612f1581612eef565b92915050565b60008060408385031215612f3257612f31612606565b5b6000612f4085828601612f06565b9250506020612f5185828601612dba565b9150509250929050565b600063ffffffff82169050919050565b612f7481612f5b565b82525050565b60008160060b9050919050565b612f9081612f7a565b82525050565b612f9f81612610565b82525050565b612fae8161299d565b82525050565b6000608082019050612fc96000830187612f6b565b612fd66020830186612f87565b612fe36040830185612f96565b612ff06060830184612fa5565b95945050505050565b600060a0828403121561300f5761300e612606565b5b600061301d84828501612673565b91505092915050565b61302f81612a76565b82525050565b60608201600082015161304b6000850182613026565b50602082015161305e6020850182613026565b5060408201516130716040850182613026565b50505050565b600060608201905061308c6000830184613035565b92915050565b60008060c083850312156130a9576130a8612606565b5b60006130b785828601612673565b92505060a06130c885828601612dba565b9150509250929050565b6130db81612f5b565b82525050565b6130ea81612f7a565b82525050565b6130f981612610565b82525050565b60808201600082015161311560008501826130d2565b50602082015161312860208501826130e1565b50604082015161313b60408501826130f0565b50606082015161314e60608501826129a9565b50505050565b600060808201905061316960008301846130ff565b92915050565b60008083601f840112613185576131846126e7565b5b8235905067ffffffffffffffff8111156131a2576131a16126ec565b5b6020830191508360208202830111156131be576131bd6126f1565b5b9250929050565b600080600060c084860312156131de576131dd612606565b5b60006131ec86828701612673565b93505060a084013567ffffffffffffffff81111561320d5761320c61260b565b5b6132198682870161316f565b92509250509250925092565b600081519050919050565b600082825260208201905092915050565b6000819050602082019050919050565b600061325d83836130e1565b60208301905092915050565b6000602082019050919050565b600061328182613225565b61328b8185613230565b935061329683613241565b8060005b838110156132c75781516132ae8882613251565b97506132b983613269565b92505060018101905061329a565b5085935050505092915050565b600081519050919050565b600082825260208201905092915050565b6000819050602082019050919050565b600061330c83836130f0565b60208301905092915050565b6000602082019050919050565b6000613330826132d4565b61333a81856132df565b9350613345836132f0565b8060005b8381101561337657815161335d8882613300565b975061336883613318565b925050600181019050613349565b5085935050505092915050565b6000604082019050818103600083015261339d8185613276565b905081810360208301526133b18184613325565b90509392505050565b6000602082840312156133d0576133cf612606565b5b60006133de84828501612f06565b91505092915050565b60006060820190506133fc6000830186612af0565b6134096020830185612af0565b6134166040830184612af0565b949350505050565b6000806000806000610140868803121561343b5761343a612606565b5b600061344988828901612659565b955050602061345a88828901612673565b94505060c061346b88828901612692565b93505061012086013567ffffffffffffffff81111561348d5761348c61260b565b5b613499888289016126f6565b92509250509295509295909350565b600062ffffff82169050919050565b6134c0816134a8565b81146134cb57600080fd5b50565b6000813590506134dd816134b7565b92915050565b6000602082840312156134f9576134f8612606565b5b6000613507848285016134ce565b91505092915050565b60008151905061351f81612b35565b92915050565b60006020828403121561353b5761353a612606565b5b600061354984828501613510565b91505092915050565b60006020828403121561356857613567612606565b5b600061357684828501612b4c565b91505092915050565b61358881612630565b811461359357600080fd5b50565b6000813590506135a58161357f565b92915050565b60006135ba6020840184613596565b905092915050565b60006135cd82612e97565b9050919050565b6135dd816135c2565b82525050565b60006135f260208401846134ce565b905092915050565b613603816134a8565b82525050565b60006136186020840184612b4c565b905092915050565b61362981612b28565b82525050565b600061363a82612630565b9050919050565b61364a8161362f565b811461365557600080fd5b50565b60008135905061366781613641565b92915050565b600061367c6020840184613658565b905092915050565b600061368f82612e97565b9050919050565b61369f81613684565b82525050565b60a082016136b660008301836135ab565b6136c360008501826135d4565b506136d160208301836135ab565b6136de60208501826135d4565b506136ec60408301836135e3565b6136f960408501826135fa565b506137076060830183613609565b6137146060850182613620565b50613722608083018361366d565b61372f6080850182613696565b50505050565b600060a08201905061374a60008301846136a5565b92915050565b600080fd5b7f4e487b7100000000000000000000000000000000000000000000000000000000600052604160045260246000fd5b61378d82612c90565b810181811067ffffffffffffffff821117156137ac576137ab613755565b5b80604052505050565b60006137bf6125fc565b90506137cb8282613784565b919050565b600060a082840312156137e6576137e5613750565b5b6137f060a06137b5565b9050600061380084828501613596565b600083015250602061381484828501613596565b6020830152506040613828848285016134ce565b604083015250606061383c84828501612b4c565b606083015250608061385084828501613658565b60808301525092915050565b600060a0828403121561387257613871612606565b5b6000613880848285016137d0565b91505092915050565b600081905092915050565b82818337600083830152505050565b60006138af8385613889565b93506138bc838584613894565b82840190509392505050565b60006138d58284866138a3565b91508190509392505050565b7f4e487b7100000000000000000000000000000000000000000000000000000000600052603260045260246000fd5b600061391b82612ee5565b9050919050565b61392b81613910565b82525050565b60006020820190506139466000830184613922565b92915050565b60008151905061395b8161283f565b92915050565b600081519050613970816134b7565b92915050565b600080600080608085870312156139905761398f612606565b5b600061399e8782880161394c565b94505060206139af87828801613510565b93505060406139c087828801613961565b92505060606139d187828801613961565b91505092959194509250565b60006fffffffffffffffffffffffffffffffff82169050919050565b613a02816139dd565b8114613a0d57600080fd5b50565b600081519050613a1f816139f9565b92915050565b600060208284031215613a3b57613a3a612606565b5b6000613a4984828501613a10565b91505092915050565b60a082016000820151613a6860008501826135d4565b506020820151613a7b60208501826135d4565b506040820151613a8e60408501826135fa565b506060820151613aa16060850182613620565b506080820151613ab46080850182613696565b50505050565b600060a082019050613acf6000830184613a52565b92915050565b7f4e487b7100000000000000000000000000000000000000000000000000000000600052601260045260246000fd5b6000604082019050613b196000830185612f6b565b613b266020830184612f6b565b939250505056fea26469706673582212202d8901391ac550cb8be585acb428309c69df0276a0f96ecb683d28a398c73b7764736f6c6343000815003360a06040523480156200001157600080fd5b5060405162001a3f38038062001a3f8339818101604052810190620000379190620000f0565b8073ffffffffffffffffffffffffffffffffffffffff1660808173ffffffffffffffffffffffffffffffffffffffff16815250505062000122565b600080fd5b600073ffffffffffffffffffffffffffffffffffffffff82169050919050565b6000620000a48262000077565b9050919050565b6000620000b88262000097565b9050919050565b620000ca81620000ab565b8114620000d657600080fd5b50565b600081519050620000ea81620000bf565b92915050565b60006020828403121562000109576200010862000072565b5b60006200011984828501620000d9565b91505092915050565b6080516118b6620001896000396000818160d30152818160f901528181610249015281816102b6015281816103a4015281816104920152818161051e01528181610605015281816106f30152818161077f0152818161083a01526108fb01526118b66000f3fe6080604052600436106100345760003560e01c8063481c6a751461003957806361ae449a14610064578063ab6291fe14610094575b600080fd5b34801561004557600080fd5b5061004e6100d1565b60405161005b9190610ba0565b60405180910390f35b61007e60048036038101906100799190610f35565b6100f5565b60405161008b9190610fd7565b60405180910390f35b3480156100a057600080fd5b506100bb60048036038101906100b69190611052565b610245565b6040516100c8919061111e565b60405180910390f35b7f000000000000000000000000000000000000000000000000000000000000000081565b60007f000000000000000000000000000000000000000000000000000000000000000073ffffffffffffffffffffffffffffffffffffffff16638154831960405180608001604052803373ffffffffffffffffffffffffffffffffffffffff1681526020018781526020018681526020018581525060405160200161017a9190611317565b6040516020818303038152906040526040518263ffffffff1660e01b81526004016101a5919061111e565b6000604051808303816000875af11580156101c4573d6000803e3d6000fd5b505050506040513d6000823e3d601f19601f820116820180604052508101906101ed91906113a9565b806020019051810190610200919061141e565b90506000479050600081111561023d5761023c3382600073ffffffffffffffffffffffffffffffffffffffff166109d09092919063ffffffff16565b5b509392505050565b60607f000000000000000000000000000000000000000000000000000000000000000073ffffffffffffffffffffffffffffffffffffffff163373ffffffffffffffffffffffffffffffffffffffff161461029f57600080fd5b600083838101906102b0919061150d565b905060007f000000000000000000000000000000000000000000000000000000000000000073ffffffffffffffffffffffffffffffffffffffff166361ae449a8360200151846040015185606001516040518463ffffffff1660e01b815260040161031d93929190611600565b6020604051808303816000875af115801561033c573d6000803e3d6000fd5b505050506040513d601f19601f82011682018060405250810190610360919061141e565b9050600061036d82610ad2565b600f0b13156105c35761039d82602001516000015173ffffffffffffffffffffffffffffffffffffffff16610adf565b15610467577f000000000000000000000000000000000000000000000000000000000000000073ffffffffffffffffffffffffffffffffffffffff16636a256b296103e783610ad2565b6fffffffffffffffffffffffffffffffff168460200151600001516040518363ffffffff1660e01b815260040161041e919061164f565b60206040518083038185885af115801561043c573d6000803e3d6000fd5b50505050506040513d601f19601f8201168201806040525081019061046191906116a0565b506105c2565b81602001516000015173ffffffffffffffffffffffffffffffffffffffff166323b872dd83600001517f00000000000000000000000000000000000000000000000000000000000000006104ba85610ad2565b6040518463ffffffff1660e01b81526004016104d893929190611729565b6020604051808303816000875af11580156104f7573d6000803e3d6000fd5b505050506040513d601f19601f8201168201806040525081019061051b9190611798565b507f000000000000000000000000000000000000000000000000000000000000000073ffffffffffffffffffffffffffffffffffffffff16636a256b298360200151600001516040518263ffffffff1660e01b815260040161057d919061164f565b6020604051808303816000875af115801561059c573d6000803e3d6000fd5b505050506040513d601f19601f820116820180604052508101906105c091906116a0565b505b5b60006105ce82610b17565b600f0b1315610824576105fe82602001516020015173ffffffffffffffffffffffffffffffffffffffff16610adf565b156106c8577f000000000000000000000000000000000000000000000000000000000000000073ffffffffffffffffffffffffffffffffffffffff16636a256b2961064883610b17565b6fffffffffffffffffffffffffffffffff168460200151602001516040518363ffffffff1660e01b815260040161067f919061164f565b60206040518083038185885af115801561069d573d6000803e3d6000fd5b50505050506040513d601f19601f820116820180604052508101906106c291906116a0565b50610823565b81602001516020015173ffffffffffffffffffffffffffffffffffffffff166323b872dd83600001517f000000000000000000000000000000000000000000000000000000000000000061071b85610b17565b6040518463ffffffff1660e01b815260040161073993929190611729565b6020604051808303816000875af1158015610758573d6000803e3d6000fd5b505050506040513d601f19601f8201168201806040525081019061077c9190611798565b507f000000000000000000000000000000000000000000000000000000000000000073ffffffffffffffffffffffffffffffffffffffff16636a256b298360200151602001516040518263ffffffff1660e01b81526004016107de919061164f565b6020604051808303816000875af11580156107fd573d6000803e3d6000fd5b505050506040513d601f19601f8201168201806040525081019061082191906116a0565b505b5b600061082f82610ad2565b600f0b12156108e5577f000000000000000000000000000000000000000000000000000000000000000073ffffffffffffffffffffffffffffffffffffffff16630b0d9c09836020015160000151846000015161088b85610ad2565b61089490611801565b6040518463ffffffff1660e01b81526004016108b293929190611849565b600060405180830381600087803b1580156108cc57600080fd5b505af11580156108e0573d6000803e3d6000fd5b505050505b60006108f082610b17565b600f0b12156109a6577f000000000000000000000000000000000000000000000000000000000000000073ffffffffffffffffffffffffffffffffffffffff16630b0d9c09836020015160200151846000015161094c85610b17565b61095590611801565b6040518463ffffffff1660e01b815260040161097393929190611849565b600060405180830381600087803b15801561098d57600080fd5b505af11580156109a1573d6000803e3d6000fd5b505050505b806040516020016109b79190610fd7565b6040516020818303038152906040529250505092915050565b60006109f18473ffffffffffffffffffffffffffffffffffffffff16610adf565b15610a3e5760008060008085875af1905080610a39576040517ff4b3b1bc00000000000000000000000000000000000000000000000000000000815260040160405180910390fd5b610acc565b6040517fa9059cbb000000000000000000000000000000000000000000000000000000006000528360045282602452602060006044600080895af13d15601f3d1160016000511416171691506000606052806040525080610acb576040517ff27f64e400000000000000000000000000000000000000000000000000000000815260040160405180910390fd5b5b50505050565b60008160801c9050919050565b60008073ffffffffffffffffffffffffffffffffffffffff168273ffffffffffffffffffffffffffffffffffffffff16149050919050565b6000819050919050565b600073ffffffffffffffffffffffffffffffffffffffff82169050919050565b6000819050919050565b6000610b66610b61610b5c84610b21565b610b41565b610b21565b9050919050565b6000610b7882610b4b565b9050919050565b6000610b8a82610b6d565b9050919050565b610b9a81610b7f565b82525050565b6000602082019050610bb56000830184610b91565b92915050565b6000604051905090565b600080fd5b600080fd5b600080fd5b6000601f19601f8301169050919050565b7f4e487b7100000000000000000000000000000000000000000000000000000000600052604160045260246000fd5b610c1d82610bd4565b810181811067ffffffffffffffff82111715610c3c57610c3b610be5565b5b80604052505050565b6000610c4f610bbb565b9050610c5b8282610c14565b919050565b600080fd5b6000610c7082610b21565b9050919050565b610c8081610c65565b8114610c8b57600080fd5b50565b600081359050610c9d81610c77565b92915050565b600062ffffff82169050919050565b610cbb81610ca3565b8114610cc657600080fd5b50565b600081359050610cd881610cb2565b92915050565b60008160020b9050919050565b610cf481610cde565b8114610cff57600080fd5b50565b600081359050610d1181610ceb565b92915050565b6000610d2282610c65565b9050919050565b610d3281610d17565b8114610d3d57600080fd5b50565b600081359050610d4f81610d29565b92915050565b600060a08284031215610d6b57610d6a610bcf565b5b610d7560a0610c45565b90506000610d8584828501610c8e565b6000830152506020610d9984828501610c8e565b6020830152506040610dad84828501610cc9565b6040830152506060610dc184828501610d02565b6060830152506080610dd584828501610d40565b60808301525092915050565b6000819050919050565b610df481610de1565b8114610dff57600080fd5b50565b600081359050610e1181610deb565b92915050565b600060608284031215610e2d57610e2c610bcf565b5b610e376060610c45565b90506000610e4784828501610d02565b6000830152506020610e5b84828501610d02565b6020830152506040610e6f84828501610e02565b60408301525092915050565b600080fd5b600080fd5b600067ffffffffffffffff821115610ea057610e9f610be5565b5b610ea982610bd4565b9050602081019050919050565b82818337600083830152505050565b6000610ed8610ed384610e85565b610c45565b905082815260208101848484011115610ef457610ef3610e80565b5b610eff848285610eb6565b509392505050565b600082601f830112610f1c57610f1b610e7b565b5b8135610f2c848260208601610ec5565b91505092915050565b60008060006101208486031215610f4f57610f4e610bc5565b5b6000610f5d86828701610d55565b93505060a0610f6e86828701610e17565b92505061010084013567ffffffffffffffff811115610f9057610f8f610bca565b5b610f9c86828701610f07565b9150509250925092565b6000610fc1610fbc610fb784610de1565b610b41565b610de1565b9050919050565b610fd181610fa6565b82525050565b6000602082019050610fec6000830184610fc8565b92915050565b600080fd5b600080fd5b60008083601f84011261101257611011610e7b565b5b8235905067ffffffffffffffff81111561102f5761102e610ff2565b5b60208301915083600182028301111561104b5761104a610ff7565b5b9250929050565b6000806020838503121561106957611068610bc5565b5b600083013567ffffffffffffffff81111561108757611086610bca565b5b61109385828601610ffc565b92509250509250929050565b600081519050919050565b600082825260208201905092915050565b60005b838110156110d95780820151818401526020810190506110be565b60008484015250505050565b60006110f08261109f565b6110fa81856110aa565b935061110a8185602086016110bb565b61111381610bd4565b840191505092915050565b6000602082019050818103600083015261113881846110e5565b905092915050565b61114981610c65565b82525050565b600061115a82610b6d565b9050919050565b61116a8161114f565b82525050565b61117981610ca3565b82525050565b61118881610cde565b82525050565b600061119982610b6d565b9050919050565b6111a98161118e565b82525050565b60a0820160008201516111c56000850182611161565b5060208201516111d86020850182611161565b5060408201516111eb6040850182611170565b5060608201516111fe606085018261117f565b50608082015161121160808501826111a0565b50505050565b61122081610de1565b82525050565b60608201600082015161123c600085018261117f565b50602082015161124f602085018261117f565b5060408201516112626040850182611217565b50505050565b600082825260208201905092915050565b60006112848261109f565b61128e8185611268565b935061129e8185602086016110bb565b6112a781610bd4565b840191505092915050565b6000610140830160008301516112cb6000860182611140565b5060208301516112de60208601826111af565b5060408301516112f160c0860182611226565b50606083015184820361012086015261130a8282611279565b9150508091505092915050565b6000602082019050818103600083015261133181846112b2565b905092915050565b600061134c61134784610e85565b610c45565b90508281526020810184848401111561136857611367610e80565b5b6113738482856110bb565b509392505050565b600082601f8301126113905761138f610e7b565b5b81516113a0848260208601611339565b91505092915050565b6000602082840312156113bf576113be610bc5565b5b600082015167ffffffffffffffff8111156113dd576113dc610bca565b5b6113e98482850161137b565b91505092915050565b6113fb81610de1565b811461140657600080fd5b50565b600081519050611418816113f2565b92915050565b60006020828403121561143457611433610bc5565b5b600061144284828501611409565b91505092915050565b61145481610c65565b811461145f57600080fd5b50565b6000813590506114718161144b565b92915050565b6000610140828403121561148e5761148d610bcf565b5b6114986080610c45565b905060006114a884828501611462565b60008301525060206114bc84828501610d55565b60208301525060c06114d084828501610e17565b60408301525061012082013567ffffffffffffffff8111156114f5576114f4610c60565b5b61150184828501610f07565b60608301525092915050565b60006020828403121561152357611522610bc5565b5b600082013567ffffffffffffffff81111561154157611540610bca565b5b61154d84828501611477565b91505092915050565b60a08201600082015161156c6000850182611161565b50602082015161157f6020850182611161565b5060408201516115926040850182611170565b5060608201516115a5606085018261117f565b5060808201516115b860808501826111a0565b50505050565b6060820160008201516115d4600085018261117f565b5060208201516115e7602085018261117f565b5060408201516115fa6040850182611217565b50505050565b6000610120820190506116166000830186611556565b61162360a08301856115be565b81810361010083015261163681846110e5565b9050949350505050565b6116498161114f565b82525050565b60006020820190506116646000830184611640565b92915050565b6000819050919050565b61167d8161166a565b811461168857600080fd5b50565b60008151905061169a81611674565b92915050565b6000602082840312156116b6576116b5610bc5565b5b60006116c48482850161168b565b91505092915050565b6116d681610c65565b82525050565b60006fffffffffffffffffffffffffffffffff82169050919050565b600061171361170e611709846116dc565b610b41565b61166a565b9050919050565b611723816116f8565b82525050565b600060608201905061173e60008301866116cd565b61174b60208301856116cd565b611758604083018461171a565b949350505050565b60008115159050919050565b61177581611760565b811461178057600080fd5b50565b6000815190506117928161176c565b92915050565b6000602082840312156117ae576117ad610bc5565b5b60006117bc84828501611783565b91505092915050565b600081600f0b9050919050565b7f4e487b7100000000000000000000000000000000000000000000000000000000600052601160045260246000fd5b600061180c826117c5565b91507fffffffffffffffffffffffffffffffff80000000000000000000000000000000820361183e5761183d6117d2565b5b816000039050919050565b600060608201905061185e6000830186611640565b61186b60208301856116cd565b611878604083018461171a565b94935050505056fea26469706673582212204fef2a29fbe2af0a70bdb386e4bf3b0eb9155b108748637e1109fc604fa034dd64736f6c63430008150033a2646970667358221220eaa6af7ca2f0309f82f5b6c3341b6ffcd6a12c318b80900af1c6e6c36125e7d564736f6c63430008150033",
  "linkReferences": {
    "test/GEOMEAN_ORACLE/Remix/utils/HookMiner.sol": {
      "HookMiner": [
        {
          "length": 20,
          "start": 1247
        }
      ]
    }
  },
  "deployedLinkReferences": {
    "test/GEOMEAN_ORACLE/Remix/utils/HookMiner.sol": {
      "HookMiner": [
        {
          "length": 20,
          "start": 948
        }
      ]
    }
  }
}