{
  "_format": "hh-sol-artifact-1",
  "contractName": "HookMiner",
  "sourceName": "test/VOTING_ESCROW/Remix/utils/HookMiner.sol",
  "abi": [
    {
      "inputs": [
        {
          "internalType": "address",
          "name": "deployer",
          "type": "address"
        },
        {
          "internalType": "uint256",
          "name": "salt",
          "type": "uint256"
        },
        {
          "internalType": "bytes",
          "name": "creationCode",
          "type": "bytes"
        }
      ],
      "name": "computeAddress",
      "outputs": [
        {
          "internalType": "address",
          "name": "",
          "type": "address"
        }
      ],
      "stateMutability": "pure",
      "type": "function"
    },
    {
      "inputs": [
        {
          "internalType": "address",
          "name": "deployer",
          "type": "address"
        },
        {
          "internalType": "uint160",
          "name": "flags",
          "type": "uint160"
        },
        {
          "internalType": "uint256",
          "name": "seed",
          "type": "uint256"
        },
        {
          "internalType": "bytes",
          "name": "creationCode",
          "type": "bytes"
        },
        {
          "internalType": "bytes",
          "name": "constructorArgs",
          "type": "bytes"
        }
      ],
      "name": "find",
      "outputs": [
        {
          "internalType": "address",
          "name": "",
          "type": "address"
        },
        {
          "internalType": "bytes32",
          "name": "",
          "type": "bytes32"
        }
      ],
      "stateMutability": "pure",
      "type": "function"
    }
  ],
  "bytecode": "0x6107f2610053600b82828239805160001a607314610046577f4e487b7100000000000000000000000000000000000000000000000000000000600052600060045260246000fd5b30600052607381538281f3fe73000000000000000000000000000000000000000030146080604052600436106100405760003560e01c8063013a236e14610045578063ab86511814610075575b600080fd5b61005f600480360381019061005a91906103cb565b6100a6565b60405161006c9190610449565b60405180910390f35b61008f600480360381019061008a9190610490565b6100ec565b60405161009d92919061055c565b60405180910390f35b600060ff60f81b848484805190602001206040516020016100ca949392919061065c565b6040516020818303038152906040528051906020012060001c90509392505050565b600080600080858560405160200161010592919061071b565b604051602081830303815290604052905060008790505b612710811015610198576101318a82846100a6565b92508873ffffffffffffffffffffffffffffffffffffffff1673ff00000000000000000000000000000000000000841673ffffffffffffffffffffffffffffffffffffffff160361018d57828160001b945094505050506101d3565b80600101905061011c565b6040517f08c379a00000000000000000000000000000000000000000000000000000000081526004016101ca9061079c565b60405180910390fd5b9550959350505050565b6000604051905090565b600080fd5b600080fd5b600073ffffffffffffffffffffffffffffffffffffffff82169050919050565b600061021c826101f1565b9050919050565b61022c81610211565b811461023757600080fd5b50565b60008135905061024981610223565b92915050565b6000819050919050565b6102628161024f565b811461026d57600080fd5b50565b60008135905061027f81610259565b92915050565b600080fd5b600080fd5b6000601f19601f8301169050919050565b7f4e487b7100000000000000000000000000000000000000000000000000000000600052604160045260246000fd5b6102d88261028f565b810181811067ffffffffffffffff821117156102f7576102f66102a0565b5b80604052505050565b600061030a6101dd565b905061031682826102cf565b919050565b600067ffffffffffffffff821115610336576103356102a0565b5b61033f8261028f565b9050602081019050919050565b82818337600083830152505050565b600061036e6103698461031b565b610300565b90508281526020810184848401111561038a5761038961028a565b5b61039584828561034c565b509392505050565b600082601f8301126103b2576103b1610285565b5b81356103c284826020860161035b565b91505092915050565b6000806000606084860312156103e4576103e36101e7565b5b60006103f28682870161023a565b935050602061040386828701610270565b925050604084013567ffffffffffffffff811115610424576104236101ec565b5b6104308682870161039d565b9150509250925092565b61044381610211565b82525050565b600060208201905061045e600083018461043a565b92915050565b61046d816101f1565b811461047857600080fd5b50565b60008135905061048a81610464565b92915050565b600080600080600060a086880312156104ac576104ab6101e7565b5b60006104ba8882890161023a565b95505060206104cb8882890161047b565b94505060406104dc88828901610270565b935050606086013567ffffffffffffffff8111156104fd576104fc6101ec565b5b6105098882890161039d565b925050608086013567ffffffffffffffff81111561052a576105296101ec565b5b6105368882890161039d565b9150509295509295909350565b6000819050919050565b61055681610543565b82525050565b6000604082019050610571600083018561043a565b61057e602083018461054d565b9392505050565b60007fff0000000000000000000000000000000000000000000000000000000000000082169050919050565b6000819050919050565b6105cc6105c782610585565b6105b1565b82525050565b60008160601b9050919050565b60006105ea826105d2565b9050919050565b60006105fc826105df565b9050919050565b61061461060f82610211565b6105f1565b82525050565b6000819050919050565b6106356106308261024f565b61061a565b82525050565b6000819050919050565b61065661065182610543565b61063b565b82525050565b600061066882876105bb565b6001820191506106788286610603565b6014820191506106888285610624565b6020820191506106988284610645565b60208201915081905095945050505050565b600081519050919050565b600081905092915050565b60005b838110156106de5780820151818401526020810190506106c3565b60008484015250505050565b60006106f5826106aa565b6106ff81856106b5565b935061070f8185602086016106c0565b80840191505092915050565b600061072782856106ea565b915061073382846106ea565b91508190509392505050565b600082825260208201905092915050565b7f486f6f6b4d696e65723a20636f756c64206e6f742066696e642073616c740000600082015250565b6000610786601e8361073f565b915061079182610750565b602082019050919050565b600060208201905081810360008301526107b581610779565b905091905056fea2646970667358221220542b129f0c3ceea604ed7072b82a32b3b9133a944ea1ea616413afdaa13b3c0b64736f6c63430008150033",
  "linkReferences": {},
  "deployedLinkReferences": {}
}