{
  "_format": "hh-sol-artifact-1",
  "contractName": "FullRange",
  "sourceName": "src/FULL_RANGE/FullRange.sol",
  "abi": [
    {
      "inputs": [
        {
          "internalType": "contract IPoolManager",
          "name": "_poolManager",
          "type": "address"
        }
      ],
      "stateMutability": "nonpayable",
      "type": "constructor"
    },
    {
      "inputs": [],
      "name": "ERC20TransferFailed",
      "type": "error"
    },
    {
      "inputs": [],
      "name": "ExpiredPastDeadline",
      "type": "error"
    },
    {
      "inputs": [
        {
          "internalType": "address",
          "name": "hooks",
          "type": "address"
        }
      ],
      "name": "HookAddressNotValid",
      "type": "error"
    },
    {
      "inputs": [],
      "name": "HookNotImplemented",
      "type": "error"
    },
    {
      "inputs": [],
      "name": "InvalidPool",
      "type": "error"
    },
    {
      "inputs": [],
      "name": "InvalidTick",
      "type": "error"
    },
    {
      "inputs": [],
      "name": "LiquidityDoesntMeetMinimum",
      "type": "error"
    },
    {
      "inputs": [],
      "name": "LockFailure",
      "type": "error"
    },
    {
      "inputs": [],
      "name": "NativeTransferFailed",
      "type": "error"
    },
    {
      "inputs": [],
      "name": "NotPoolManager",
      "type": "error"
    },
    {
      "inputs": [],
      "name": "NotSelf",
      "type": "error"
    },
    {
      "inputs": [],
      "name": "PoolNotInitialized",
      "type": "error"
    },
    {
      "inputs": [],
      "name": "SenderMustBeHook",
      "type": "error"
    },
    {
      "inputs": [],
      "name": "TickSpacingNotDefault",
      "type": "error"
    },
    {
      "inputs": [],
      "name": "TooMuchSlippage",
      "type": "error"
    },
    {
      "inputs": [
        {
          "components": [
            {
              "internalType": "Currency",
              "name": "currency0",
              "type": "address"
            },
            {
              "internalType": "Currency",
              "name": "currency1",
              "type": "address"
            },
            {
              "internalType": "uint24",
              "name": "fee",
              "type": "uint24"
            },
            {
              "internalType": "int24",
              "name": "tickSpacing",
              "type": "int24"
            },
            {
              "internalType": "contract IHooks",
              "name": "hooks",
              "type": "address"
            }
          ],
          "internalType": "struct PoolKey",
          "name": "key",
          "type": "tuple"
        }
      ],
      "name": "_rebalance",
      "outputs": [],
      "stateMutability": "nonpayable",
      "type": "function"
    },
    {
      "inputs": [
        {
          "components": [
            {
              "internalType": "Currency",
              "name": "currency0",
              "type": "address"
            },
            {
              "internalType": "Currency",
              "name": "currency1",
              "type": "address"
            },
            {
              "internalType": "uint24",
              "name": "fee",
              "type": "uint24"
            },
            {
              "internalType": "uint256",
              "name": "amount0Desired",
              "type": "uint256"
            },
            {
              "internalType": "uint256",
              "name": "amount1Desired",
              "type": "uint256"
            },
            {
              "internalType": "uint256",
              "name": "amount0Min",
              "type": "uint256"
            },
            {
              "internalType": "uint256",
              "name": "amount1Min",
              "type": "uint256"
            },
            {
              "internalType": "address",
              "name": "to",
              "type": "address"
            },
            {
              "internalType": "uint256",
              "name": "deadline",
              "type": "uint256"
            }
          ],
          "internalType": "struct FullRange.AddLiquidityParams",
          "name": "params",
          "type": "tuple"
        }
      ],
      "name": "addLiquidity",
      "outputs": [
        {
          "internalType": "uint128",
          "name": "liquidity",
          "type": "uint128"
        }
      ],
      "stateMutability": "nonpayable",
      "type": "function"
    },
    {
      "inputs": [
        {
          "internalType": "address",
          "name": "",
          "type": "address"
        },
        {
          "components": [
            {
              "internalType": "Currency",
              "name": "currency0",
              "type": "address"
            },
            {
              "internalType": "Currency",
              "name": "currency1",
              "type": "address"
            },
            {
              "internalType": "uint24",
              "name": "fee",
              "type": "uint24"
            },
            {
              "internalType": "int24",
              "name": "tickSpacing",
              "type": "int24"
            },
            {
              "internalType": "contract IHooks",
              "name": "hooks",
              "type": "address"
            }
          ],
          "internalType": "struct PoolKey",
          "name": "",
          "type": "tuple"
        },
        {
          "internalType": "uint256",
          "name": "",
          "type": "uint256"
        },
        {
          "internalType": "uint256",
          "name": "",
          "type": "uint256"
        },
        {
          "internalType": "bytes",
          "name": "",
          "type": "bytes"
        }
      ],
      "name": "afterDonate",
      "outputs": [
        {
          "internalType": "bytes4",
          "name": "",
          "type": "bytes4"
        }
      ],
      "stateMutability": "nonpayable",
      "type": "function"
    },
    {
      "inputs": [
        {
          "internalType": "address",
          "name": "",
          "type": "address"
        },
        {
          "components": [
            {
              "internalType": "Currency",
              "name": "currency0",
              "type": "address"
            },
            {
              "internalType": "Currency",
              "name": "currency1",
              "type": "address"
            },
            {
              "internalType": "uint24",
              "name": "fee",
              "type": "uint24"
            },
            {
              "internalType": "int24",
              "name": "tickSpacing",
              "type": "int24"
            },
            {
              "internalType": "contract IHooks",
              "name": "hooks",
              "type": "address"
            }
          ],
          "internalType": "struct PoolKey",
          "name": "",
          "type": "tuple"
        },
        {
          "internalType": "uint160",
          "name": "",
          "type": "uint160"
        },
        {
          "internalType": "int24",
          "name": "",
          "type": "int24"
        },
        {
          "internalType": "bytes",
          "name": "",
          "type": "bytes"
        }
      ],
      "name": "afterInitialize",
      "outputs": [
        {
          "internalType": "bytes4",
          "name": "",
          "type": "bytes4"
        }
      ],
      "stateMutability": "nonpayable",
      "type": "function"
    },
    {
      "inputs": [
        {
          "internalType": "address",
          "name": "",
          "type": "address"
        },
        {
          "components": [
            {
              "internalType": "Currency",
              "name": "currency0",
              "type": "address"
            },
            {
              "internalType": "Currency",
              "name": "currency1",
              "type": "address"
            },
            {
              "internalType": "uint24",
              "name": "fee",
              "type": "uint24"
            },
            {
              "internalType": "int24",
              "name": "tickSpacing",
              "type": "int24"
            },
            {
              "internalType": "contract IHooks",
              "name": "hooks",
              "type": "address"
            }
          ],
          "internalType": "struct PoolKey",
          "name": "",
          "type": "tuple"
        },
        {
          "components": [
            {
              "internalType": "int24",
              "name": "tickLower",
              "type": "int24"
            },
            {
              "internalType": "int24",
              "name": "tickUpper",
              "type": "int24"
            },
            {
              "internalType": "int256",
              "name": "liquidityDelta",
              "type": "int256"
            }
          ],
          "internalType": "struct IPoolManager.ModifyPositionParams",
          "name": "",
          "type": "tuple"
        },
        {
          "internalType": "BalanceDelta",
          "name": "",
          "type": "int256"
        },
        {
          "internalType": "bytes",
          "name": "",
          "type": "bytes"
        }
      ],
      "name": "afterModifyPosition",
      "outputs": [
        {
          "internalType": "bytes4",
          "name": "",
          "type": "bytes4"
        }
      ],
      "stateMutability": "nonpayable",
      "type": "function"
    },
    {
      "inputs": [
        {
          "internalType": "address",
          "name": "",
          "type": "address"
        },
        {
          "components": [
            {
              "internalType": "Currency",
              "name": "currency0",
              "type": "address"
            },
            {
              "internalType": "Currency",
              "name": "currency1",
              "type": "address"
            },
            {
              "internalType": "uint24",
              "name": "fee",
              "type": "uint24"
            },
            {
              "internalType": "int24",
              "name": "tickSpacing",
              "type": "int24"
            },
            {
              "internalType": "contract IHooks",
              "name": "hooks",
              "type": "address"
            }
          ],
          "internalType": "struct PoolKey",
          "name": "",
          "type": "tuple"
        },
        {
          "components": [
            {
              "internalType": "bool",
              "name": "zeroForOne",
              "type": "bool"
            },
            {
              "internalType": "int256",
              "name": "amountSpecified",
              "type": "int256"
            },
            {
              "internalType": "uint160",
              "name": "sqrtPriceLimitX96",
              "type": "uint160"
            }
          ],
          "internalType": "struct IPoolManager.SwapParams",
          "name": "",
          "type": "tuple"
        },
        {
          "internalType": "BalanceDelta",
          "name": "",
          "type": "int256"
        },
        {
          "internalType": "bytes",
          "name": "",
          "type": "bytes"
        }
      ],
      "name": "afterSwap",
      "outputs": [
        {
          "internalType": "bytes4",
          "name": "",
          "type": "bytes4"
        }
      ],
      "stateMutability": "nonpayable",
      "type": "function"
    },
    {
      "inputs": [
        {
          "internalType": "address",
          "name": "",
          "type": "address"
        },
        {
          "components": [
            {
              "internalType": "Currency",
              "name": "currency0",
              "type": "address"
            },
            {
              "internalType": "Currency",
              "name": "currency1",
              "type": "address"
            },
            {
              "internalType": "uint24",
              "name": "fee",
              "type": "uint24"
            },
            {
              "internalType": "int24",
              "name": "tickSpacing",
              "type": "int24"
            },
            {
              "internalType": "contract IHooks",
              "name": "hooks",
              "type": "address"
            }
          ],
          "internalType": "struct PoolKey",
          "name": "",
          "type": "tuple"
        },
        {
          "internalType": "uint256",
          "name": "",
          "type": "uint256"
        },
        {
          "internalType": "uint256",
          "name": "",
          "type": "uint256"
        },
        {
          "internalType": "bytes",
          "name": "",
          "type": "bytes"
        }
      ],
      "name": "beforeDonate",
      "outputs": [
        {
          "internalType": "bytes4",
          "name": "",
          "type": "bytes4"
        }
      ],
      "stateMutability": "nonpayable",
      "type": "function"
    },
    {
      "inputs": [
        {
          "internalType": "address",
          "name": "",
          "type": "address"
        },
        {
          "components": [
            {
              "internalType": "Currency",
              "name": "currency0",
              "type": "address"
            },
            {
              "internalType": "Currency",
              "name": "currency1",
              "type": "address"
            },
            {
              "internalType": "uint24",
              "name": "fee",
              "type": "uint24"
            },
            {
              "internalType": "int24",
              "name": "tickSpacing",
              "type": "int24"
            },
            {
              "internalType": "contract IHooks",
              "name": "hooks",
              "type": "address"
            }
          ],
          "internalType": "struct PoolKey",
          "name": "key",
          "type": "tuple"
        },
        {
          "internalType": "uint160",
          "name": "",
          "type": "uint160"
        },
        {
          "internalType": "bytes",
          "name": "",
          "type": "bytes"
        }
      ],
      "name": "beforeInitialize",
      "outputs": [
        {
          "internalType": "bytes4",
          "name": "",
          "type": "bytes4"
        }
      ],
      "stateMutability": "nonpayable",
      "type": "function"
    },
    {
      "inputs": [
        {
          "internalType": "address",
          "name": "sender",
          "type": "address"
        },
        {
          "components": [
            {
              "internalType": "Currency",
              "name": "currency0",
              "type": "address"
            },
            {
              "internalType": "Currency",
              "name": "currency1",
              "type": "address"
            },
            {
              "internalType": "uint24",
              "name": "fee",
              "type": "uint24"
            },
            {
              "internalType": "int24",
              "name": "tickSpacing",
              "type": "int24"
            },
            {
              "internalType": "contract IHooks",
              "name": "hooks",
              "type": "address"
            }
          ],
          "internalType": "struct PoolKey",
          "name": "",
          "type": "tuple"
        },
        {
          "components": [
            {
              "internalType": "int24",
              "name": "tickLower",
              "type": "int24"
            },
            {
              "internalType": "int24",
              "name": "tickUpper",
              "type": "int24"
            },
            {
              "internalType": "int256",
              "name": "liquidityDelta",
              "type": "int256"
            }
          ],
          "internalType": "struct IPoolManager.ModifyPositionParams",
          "name": "",
          "type": "tuple"
        },
        {
          "internalType": "bytes",
          "name": "",
          "type": "bytes"
        }
      ],
      "name": "beforeModifyPosition",
      "outputs": [
        {
          "internalType": "bytes4",
          "name": "",
          "type": "bytes4"
        }
      ],
      "stateMutability": "view",
      "type": "function"
    },
    {
      "inputs": [
        {
          "internalType": "address",
          "name": "",
          "type": "address"
        },
        {
          "components": [
            {
              "internalType": "Currency",
              "name": "currency0",
              "type": "address"
            },
            {
              "internalType": "Currency",
              "name": "currency1",
              "type": "address"
            },
            {
              "internalType": "uint24",
              "name": "fee",
              "type": "uint24"
            },
            {
              "internalType": "int24",
              "name": "tickSpacing",
              "type": "int24"
            },
            {
              "internalType": "contract IHooks",
              "name": "hooks",
              "type": "address"
            }
          ],
          "internalType": "struct PoolKey",
          "name": "key",
          "type": "tuple"
        },
        {
          "components": [
            {
              "internalType": "bool",
              "name": "zeroForOne",
              "type": "bool"
            },
            {
              "internalType": "int256",
              "name": "amountSpecified",
              "type": "int256"
            },
            {
              "internalType": "uint160",
              "name": "sqrtPriceLimitX96",
              "type": "uint160"
            }
          ],
          "internalType": "struct IPoolManager.SwapParams",
          "name": "",
          "type": "tuple"
        },
        {
          "internalType": "bytes",
          "name": "",
          "type": "bytes"
        }
      ],
      "name": "beforeSwap",
      "outputs": [
        {
          "internalType": "bytes4",
          "name": "",
          "type": "bytes4"
        }
      ],
      "stateMutability": "nonpayable",
      "type": "function"
    },
    {
      "inputs": [],
      "name": "getHooksCalls",
      "outputs": [
        {
          "components": [
            {
              "internalType": "bool",
              "name": "beforeInitialize",
              "type": "bool"
            },
            {
              "internalType": "bool",
              "name": "afterInitialize",
              "type": "bool"
            },
            {
              "internalType": "bool",
              "name": "beforeModifyPosition",
              "type": "bool"
            },
            {
              "internalType": "bool",
              "name": "afterModifyPosition",
              "type": "bool"
            },
            {
              "internalType": "bool",
              "name": "beforeSwap",
              "type": "bool"
            },
            {
              "internalType": "bool",
              "name": "afterSwap",
              "type": "bool"
            },
            {
              "internalType": "bool",
              "name": "beforeDonate",
              "type": "bool"
            },
            {
              "internalType": "bool",
              "name": "afterDonate",
              "type": "bool"
            }
          ],
          "internalType": "struct Hooks.Calls",
          "name": "",
          "type": "tuple"
        }
      ],
      "stateMutability": "pure",
      "type": "function"
    },
    {
      "inputs": [
        {
          "internalType": "bytes",
          "name": "rawData",
          "type": "bytes"
        }
      ],
      "name": "lockAcquired",
      "outputs": [
        {
          "internalType": "bytes",
          "name": "",
          "type": "bytes"
        }
      ],
      "stateMutability": "nonpayable",
      "type": "function"
    },
    {
      "inputs": [
        {
          "internalType": "PoolId",
          "name": "",
          "type": "bytes32"
        }
      ],
      "name": "poolInfo",
      "outputs": [
        {
          "internalType": "bool",
          "name": "hasAccruedFees",
          "type": "bool"
        },
        {
          "internalType": "address",
          "name": "liquidityToken",
          "type": "address"
        }
      ],
      "stateMutability": "view",
      "type": "function"
    },
    {
      "inputs": [],
      "name": "poolManager",
      "outputs": [
        {
          "internalType": "contract IPoolManager",
          "name": "",
          "type": "address"
        }
      ],
      "stateMutability": "view",
      "type": "function"
    },
    {
      "inputs": [
        {
          "components": [
            {
              "internalType": "Currency",
              "name": "currency0",
              "type": "address"
            },
            {
              "internalType": "Currency",
              "name": "currency1",
              "type": "address"
            },
            {
              "internalType": "uint24",
              "name": "fee",
              "type": "uint24"
            },
            {
              "internalType": "uint256",
              "name": "liquidity",
              "type": "uint256"
            },
            {
              "internalType": "uint256",
              "name": "deadline",
              "type": "uint256"
            }
          ],
          "internalType": "struct FullRange.RemoveLiquidityParams",
          "name": "params",
          "type": "tuple"
        }
      ],
      "name": "removeLiquidity",
      "outputs": [
        {
          "internalType": "BalanceDelta",
          "name": "delta",
          "type": "int256"
        }
      ],
      "stateMutability": "nonpayable",
      "type": "function"
    }
  ],
  "bytecode": "0x60a06040523480156200001157600080fd5b50604051620079bc380380620079bc833981810160405281019062000037919062000506565b808073ffffffffffffffffffffffffffffffffffffffff1660808173ffffffffffffffffffffffffffffffffffffffff16815250506200007d306200008560201b60201c565b505062000566565b620000a6816200009a620000a960201b60201c565b6200010a60201b60201c565b50565b620000b362000433565b60405180610100016040528060011515815260200160001515815260200160011515815260200160001515815260200160011515815260200160001515815260200160001515815260200160001515815250905090565b6200011b826200026b60201b60201c565b1515816000015115151415806200014a57506200013e82620002a460201b60201c565b15158160200151151514155b806200016e57506200016282620002dd60201b60201c565b15158160400151151514155b8062000192575062000186826200031660201b60201c565b15158160600151151514155b80620001b65750620001aa826200034f60201b60201c565b15158160800151151514155b80620001da5750620001ce826200038860201b60201c565b15158160a00151151514155b80620001fe5750620001f282620003c160201b60201c565b15158160c00151151514155b806200022257506200021682620003fa60201b60201c565b15158160e00151151514155b156200026757816040517fe65af6a00000000000000000000000000000000000000000000000000000000081526004016200025e919062000549565b60405180910390fd5b5050565b6000807380000000000000000000000000000000000000008373ffffffffffffffffffffffffffffffffffffffff161614159050919050565b6000807340000000000000000000000000000000000000008373ffffffffffffffffffffffffffffffffffffffff161614159050919050565b6000807320000000000000000000000000000000000000008373ffffffffffffffffffffffffffffffffffffffff161614159050919050565b6000807310000000000000000000000000000000000000008373ffffffffffffffffffffffffffffffffffffffff161614159050919050565b6000807308000000000000000000000000000000000000008373ffffffffffffffffffffffffffffffffffffffff161614159050919050565b6000807304000000000000000000000000000000000000008373ffffffffffffffffffffffffffffffffffffffff161614159050919050565b6000807302000000000000000000000000000000000000008373ffffffffffffffffffffffffffffffffffffffff161614159050919050565b6000807301000000000000000000000000000000000000008373ffffffffffffffffffffffffffffffffffffffff161614159050919050565b6040518061010001604052806000151581526020016000151581526020016000151581526020016000151581526020016000151581526020016000151581526020016000151581526020016000151581525090565b600080fd5b600073ffffffffffffffffffffffffffffffffffffffff82169050919050565b6000620004ba826200048d565b9050919050565b6000620004ce82620004ad565b9050919050565b620004e081620004c1565b8114620004ec57600080fd5b50565b6000815190506200050081620004d5565b92915050565b6000602082840312156200051f576200051e62000488565b5b60006200052f84828501620004ef565b91505092915050565b6200054381620004ad565b82525050565b600060208201905062000560600083018462000538565b92915050565b6080516173ae6200060e600039600081816108a2015281816109af01528181610ebf01528181610f9e01528181611117015281816111c0015281816113a3015281816114470152818161163e015281816117dd0152818161189f015281816119fc01528181612364015281816124ef0152818161265d01528181612739015281816127f701528181612dc901528181612ebc01528181612f3a0152612fc401526173ae6000f3fe60806040523480156200001157600080fd5b50600436106200010c5760003560e01c8063ab6291fe11620000a5578063dc4c90d3116200006f578063dc4c90d3146200033a578063e1b4af69146200035c578063ea4026531462000392578063fe9a6f4514620003c8576200010c565b8063ab6291fe1462000278578063b47b2fb114620002ae578063b6a8b0fa14620002e4578063c0e02678146200031a576200010c565b8063610fc66c11620000e7578063610fc66c14620001b3578063612c39b714620001e95780638cebd942146200020b578063a910f80f1462000242576200010c565b806330b7cdef14620001115780633440d8201462000147578063575e24b4146200017d575b600080fd5b6200012f6004803603810190620001299190620033a1565b620003fe565b6040516200013e91906200348b565b60405180910390f35b6200016560048036038101906200015f9190620034d9565b62000432565b6040516200017491906200348b565b60405180910390f35b6200019b600480360381019062000195919062003592565b62000707565b604051620001aa91906200348b565b60405180910390f35b620001d16004803603810190620001cb91906200364d565b6200079a565b604051620001e09190620036ad565b60405180910390f35b620001f362000dd5565b60405162000202919062003799565b60405180910390f35b620002296004803603810190620002239190620037f2565b62000e36565b6040516200023992919062003846565b60405180910390f35b6200026060048036038101906200025a9190620038b1565b62000e87565b6040516200026f91906200348b565b60405180910390f35b6200029660048036038101906200029091906200395d565b62000ebb565b604051620002a5919062003a4c565b60405180910390f35b620002cc6004803603810190620002c6919062003a70565b6200109c565b604051620002db91906200348b565b60405180910390f35b620003026004803603810190620002fc919062003b58565b620010d0565b6040516200031191906200348b565b60405180910390f35b62000338600480360381019062000332919062003dde565b62001104565b005b620003446200189d565b60405162000353919062003e7b565b60405180910390f35b6200037a600480360381019062000374919062003b58565b620018c1565b6040516200038991906200348b565b60405180910390f35b620003b06004803603810190620003aa919062003eba565b620018f5565b604051620003bf919062003f25565b60405180910390f35b620003e66004803603810190620003e0919062003f42565b62001c3a565b604051620003f591906200348b565b60405180910390f35b60006040517f0a85dc2900000000000000000000000000000000000000000000000000000000815260040160405180910390fd5b6000603c8560600160208101906200044b919062003fda565b60020b1462000486576040517ff59f227600000000000000000000000000000000000000000000000000000000815260040160405180910390fd5b6000620004a5868036038101906200049f919062003dde565b62001cb5565b90506000866000016020810190620004be91906200400c565b73ffffffffffffffffffffffffffffffffffffffff166395d89b416040518163ffffffff1660e01b8152600401600060405180830381865afa15801562000509573d6000803e3d6000fd5b505050506040513d6000823e3d601f19601f82011682018060405250810190620005349190620040f7565b8760200160208101906200054991906200400c565b73ffffffffffffffffffffffffffffffffffffffff166395d89b416040518163ffffffff1660e01b8152600401600060405180830381865afa15801562000594573d6000803e3d6000fd5b505050506040513d6000823e3d601f19601f82011682018060405250810190620005bf9190620040f7565b620005e3896040016020810190620005d8919062004148565b62ffffff1662001ce7565b604051602001620005f79392919062004267565b6040516020818303038152906040529050600081826040516200061a90620031d3565b6200062792919062004324565b604051809103906000f08015801562000644573d6000803e3d6000fd5b50905060405180604001604052806000151581526020018273ffffffffffffffffffffffffffffffffffffffff1681525060008085815260200190815260200160002060008201518160000160006101000a81548160ff02191690831515021790555060208201518160000160016101000a81548173ffffffffffffffffffffffffffffffffffffffff021916908373ffffffffffffffffffffffffffffffffffffffff160217905550905050633440d82060e01b935050505095945050505050565b600080620007278680360381019062000721919062003dde565b62001cb5565b905060008082815260200190815260200160002060000160009054906101000a900460ff1662000786576000806000838152602001908152602001600020905060018160000160006101000a81548160ff021916908315150217905550505b63575e24b460e01b91505095945050505050565b600081610100013542811015620007dd576040517f82fb116800000000000000000000000000000000000000000000000000000000815260040160405180910390fd5b60006040518060a00160405280856000016020810190620007ff91906200400c565b73ffffffffffffffffffffffffffffffffffffffff1681526020018560200160208101906200082f91906200400c565b73ffffffffffffffffffffffffffffffffffffffff1681526020018560400160208101906200085f919062004148565b62ffffff168152602001603c60020b81526020013073ffffffffffffffffffffffffffffffffffffffff16815250905060006200089c8262001cb5565b905060007f000000000000000000000000000000000000000000000000000000000000000073ffffffffffffffffffffffffffffffffffffffff1663c815641c836040518263ffffffff1660e01b8152600401620008fb919062004384565b608060405180830381865afa15801562000919573d6000803e3d6000fd5b505050506040513d601f19601f820116820180604052508101906200093f9190620043e6565b505050905060008173ffffffffffffffffffffffffffffffffffffffff160362000995576040517f486aa30700000000000000000000000000000000000000000000000000000000815260040160405180910390fd5b6000806000848152602001908152602001600020905060007f000000000000000000000000000000000000000000000000000000000000000073ffffffffffffffffffffffffffffffffffffffff1663fa6793d5856040518263ffffffff1660e01b815260040162000a08919062004384565b602060405180830381865afa15801562000a26573d6000803e3d6000fd5b505050506040513d601f19601f8201168201806040525081019062000a4c919062004489565b905062000ac48362000a7e7ffffffffffffffffffffffffffffffffffffffffffffffffffffffffffff2764c62001dc0565b62000ab47ffffffffffffffffffffffffffffffffffffffffffffffffffffffffffff2764c62000aae90620044ea565b62001dc0565b8b606001358c60800135620021ed565b96506000816fffffffffffffffffffffffffffffffff1614801562000b0157506103e861ffff16876fffffffffffffffffffffffffffffffff1611155b1562000b39576040517f38b7e8cc00000000000000000000000000000000000000000000000000000000815260040160405180910390fd5b600062000bce8660405180606001604052807ffffffffffffffffffffffffffffffffffffffffffffffffffffffffffff2764c60020b81526020017ffffffffffffffffffffffffffffffffffffffffffffffffffffffffffff2764c62000ba090620044ea565b60020b815260200162000bc58c6fffffffffffffffffffffffffffffffff1662002328565b81525062002360565b90506000826fffffffffffffffffffffffffffffffff160362000c9a576103e861ffff168862000bff919062004537565b97508260000160019054906101000a900473ffffffffffffffffffffffffffffffffffffffff1673ffffffffffffffffffffffffffffffffffffffff166340c10f1960006103e86040518363ffffffff1660e01b815260040162000c65929190620045c9565b600060405180830381600087803b15801562000c8057600080fd5b505af115801562000c95573d6000803e3d6000fd5b505050505b8260000160019054906101000a900473ffffffffffffffffffffffffffffffffffffffff1673ffffffffffffffffffffffffffffffffffffffff166340c10f198a60e001602081019062000cef9190620045f6565b8a6040518363ffffffff1660e01b815260040162000d0f92919062004661565b600060405180830381600087803b15801562000d2a57600080fd5b505af115801562000d3f573d6000803e3d6000fd5b505050508860a0013562000d538262002476565b6fffffffffffffffffffffffffffffffff16108062000d9157508860c0013562000d7d8262002483565b6fffffffffffffffffffffffffffffffff16105b1562000dc9576040517ffa6ad35500000000000000000000000000000000000000000000000000000000815260040160405180910390fd5b50505050505050919050565b62000ddf620031e1565b60405180610100016040528060011515815260200160001515815260200160011515815260200160001515815260200160011515815260200160001515815260200160001515815260200160001515815250905090565b60006020528060005260406000206000915090508060000160009054906101000a900460ff16908060000160019054906101000a900473ffffffffffffffffffffffffffffffffffffffff16905082565b60006040517f0a85dc2900000000000000000000000000000000000000000000000000000000815260040160405180910390fd5b60607f000000000000000000000000000000000000000000000000000000000000000073ffffffffffffffffffffffffffffffffffffffff163373ffffffffffffffffffffffffffffffffffffffff161462000f43576040517fae18210a00000000000000000000000000000000000000000000000000000000815260040160405180910390fd5b6000838381019062000f5691906200479e565b9050600080826040015160400151121562000f9c5762000f7f826020015183604001516200248d565b905062000f96826000015183602001518362002737565b62001070565b7f000000000000000000000000000000000000000000000000000000000000000073ffffffffffffffffffffffffffffffffffffffff166361ae449a83602001518460400151604051806020016040528060008152506040518463ffffffff1660e01b8152600401620010129392919062004908565b6020604051808303816000875af115801562001032573d6000803e3d6000fd5b505050506040513d601f19601f8201168201806040525081019062001058919062004965565b90506200106f8260000151836020015183620028b8565b5b8060405160200162001083919062003f25565b6040516020818303038152906040529250505092915050565b60006040517f0a85dc2900000000000000000000000000000000000000000000000000000000815260040160405180910390fd5b60006040517f0a85dc2900000000000000000000000000000000000000000000000000000000815260040160405180910390fd5b6000620011118262001cb5565b905060007f000000000000000000000000000000000000000000000000000000000000000073ffffffffffffffffffffffffffffffffffffffff166361ae449a8460405180606001604052807ffffffffffffffffffffffffffffffffffffffffffffffffffffffffffff2764c60020b81526020017ffffffffffffffffffffffffffffffffffffffffffffffffffffffffffff2764c620011b290620044ea565b60020b8152602001620012757f000000000000000000000000000000000000000000000000000000000000000073ffffffffffffffffffffffffffffffffffffffff1663fa6793d5896040518263ffffffff1660e01b815260040162001219919062004384565b602060405180830381865afa15801562001237573d6000803e3d6000fd5b505050506040513d601f19601f820116820180604052508101906200125d919062004489565b6fffffffffffffffffffffffffffffffff1662002328565b620012809062004997565b815250604051806020016040528060008152506040518463ffffffff1660e01b8152600401620012b39392919062004908565b6020604051808303816000875af1158015620012d3573d6000803e3d6000fd5b505050506040513d601f19601f82011682018060405250810190620012f9919062004965565b905060006200139d620013196c01000000000000000000000000620028f3565b6200138b620013856200132c8662002483565b6200133790620049f1565b6fffffffffffffffffffffffffffffffff166c01000000000000000000000000620013628862002476565b6200136d90620049f1565b6fffffffffffffffffffffffffffffffff16620029d6565b620028f3565b62001397919062004a3e565b62002aa5565b905060007f000000000000000000000000000000000000000000000000000000000000000073ffffffffffffffffffffffffffffffffffffffff1663c815641c856040518263ffffffff1660e01b8152600401620013fc919062004384565b608060405180830381865afa1580156200141a573d6000803e3d6000fd5b505050506040513d601f19601f82011682018060405250810190620014409190620043e6565b50505090507f000000000000000000000000000000000000000000000000000000000000000073ffffffffffffffffffffffffffffffffffffffff1663f3cd914c8660405180606001604052808573ffffffffffffffffffffffffffffffffffffffff168773ffffffffffffffffffffffffffffffffffffffff1610151581526020017f7fffffffffffffffffffffffffffffffffffffffffffffffffffffffffffffff81526020018673ffffffffffffffffffffffffffffffffffffffff16815250604051806020016040528060008152506040518463ffffffff1660e01b8152600401620015339392919062004ae2565b6020604051808303816000875af115801562001553573d6000803e3d6000fd5b505050506040513d601f19601f8201168201806040525081019062001579919062004965565b5060006200163883620015ac7ffffffffffffffffffffffffffffffffffffffffffffffffffffffffffff2764c62001dc0565b620015e27ffffffffffffffffffffffffffffffffffffffffffffffffffffffffffff2764c620015dc90620044ea565b62001dc0565b620015ed8862002476565b620015f890620049f1565b6fffffffffffffffffffffffffffffffff16620016158962002483565b6200162090620049f1565b6fffffffffffffffffffffffffffffffff16620021ed565b905060007f000000000000000000000000000000000000000000000000000000000000000073ffffffffffffffffffffffffffffffffffffffff166361ae449a8860405180606001604052807ffffffffffffffffffffffffffffffffffffffffffffffffffffffffffff2764c60020b81526020017ffffffffffffffffffffffffffffffffffffffffffffffffffffffffffff2764c620016d990620044ea565b60020b8152602001620016fe876fffffffffffffffffffffffffffffffff1662002328565b815250604051806020016040528060008152506040518463ffffffff1660e01b8152600401620017319392919062004908565b6020604051808303816000875af115801562001751573d6000803e3d6000fd5b505050506040513d601f19601f8201168201806040525081019062001777919062004965565b90506000620017868262002476565b620017918762002476565b6200179c90620049f1565b620017a8919062004b28565b90506000620017b78362002483565b620017c28862002483565b620017cd90620049f1565b620017d9919062004b28565b90507f000000000000000000000000000000000000000000000000000000000000000073ffffffffffffffffffffffffffffffffffffffff1663234266d78a8484604051806020016040528060008152506040518563ffffffff1660e01b81526004016200184b949392919062004b97565b6020604051808303816000875af11580156200186b573d6000803e3d6000fd5b505050506040513d601f19601f8201168201806040525081019062001891919062004965565b50505050505050505050565b7f000000000000000000000000000000000000000000000000000000000000000081565b60006040517f0a85dc2900000000000000000000000000000000000000000000000000000000815260040160405180910390fd5b600081608001354281101562001937576040517f82fb116800000000000000000000000000000000000000000000000000000000815260040160405180910390fd5b60006040518060a001604052808560000160208101906200195991906200400c565b73ffffffffffffffffffffffffffffffffffffffff1681526020018560200160208101906200198991906200400c565b73ffffffffffffffffffffffffffffffffffffffff168152602001856040016020810190620019b9919062004148565b62ffffff168152602001603c60020b81526020013073ffffffffffffffffffffffffffffffffffffffff1681525090506000620019f68262001cb5565b905060007f000000000000000000000000000000000000000000000000000000000000000073ffffffffffffffffffffffffffffffffffffffff1663c815641c836040518263ffffffff1660e01b815260040162001a55919062004384565b608060405180830381865afa15801562001a73573d6000803e3d6000fd5b505050506040513d601f19601f8201168201806040525081019062001a999190620043e6565b505050905060008173ffffffffffffffffffffffffffffffffffffffff160362001aef576040517f486aa30700000000000000000000000000000000000000000000000000000000815260040160405180910390fd5b600080600084815260200190815260200160002060000160019054906101000a900473ffffffffffffffffffffffffffffffffffffffff16905062001bb98460405180606001604052807ffffffffffffffffffffffffffffffffffffffffffffffffffffffffffff2764c60020b81526020017ffffffffffffffffffffffffffffffffffffffffffffffffffffffffffff2764c62001b8e90620044ea565b60020b815260200162001ba58b6060013562002328565b62001bb09062004997565b81525062002360565b95508073ffffffffffffffffffffffffffffffffffffffff16639dc29fac3389606001356040518363ffffffff1660e01b815260040162001bfc92919062004bfd565b600060405180830381600087803b15801562001c1757600080fd5b505af115801562001c2c573d6000803e3d6000fd5b505050505050505050919050565b60003073ffffffffffffffffffffffffffffffffffffffff168673ffffffffffffffffffffffffffffffffffffffff161462001ca2576040517f97d95e4000000000000000000000000000000000000000000000000000000000815260040160405180910390fd5b63fe9a6f4560e01b905095945050505050565b60008160405160200162001cca919062004c2a565b604051602081830303815290604052805190602001209050919050565b60606000600162001cf88462002ad2565b01905060008167ffffffffffffffff81111562001d1a5762001d1962003c09565b5b6040519080825280601f01601f19166020018201604052801562001d4d5781602001600182028036833780820191505090505b509050600082602001820190505b60011562001db5578080600190039150507f3031323334353637383961626364656600000000000000000000000000000000600a86061a8153600a858162001da85762001da762004c47565b5b0494506000850362001d5b575b819350505050919050565b60008060008360020b1262001dd9578260020b62001de1565b8260020b6000035b90507ffffffffffffffffffffffffffffffffffffffffffffffffffffffffffff2761860000360020b81111562001e44576040517fce8ef7fc00000000000000000000000000000000000000000000000000000000815260040160405180910390fd5b600080600183160362001e695770010000000000000000000000000000000062001e7b565b6ffffcb933bd6fad37aa2d162d1a5940015b70ffffffffffffffffffffffffffffffffff1690506000600283161462001eb65760806ffff97272373d413259a46990580e213a8202901c90505b6000600483161462001edc5760806ffff2e50f5f656932ef12357cf3c7fdcc8202901c90505b6000600883161462001f025760806fffe5caca7e10e4e61c3624eaa0941cd08202901c90505b6000601083161462001f285760806fffcb9843d60f6159c9db58835c9266448202901c90505b6000602083161462001f4e5760806fff973b41fa98c081472e6896dfb254c08202901c90505b6000604083161462001f745760806fff2ea16466c96a3843ec78b326b528618202901c90505b6000608083161462001f9a5760806ffe5dee046a99a2a811c461f1969c30538202901c90505b600061010083161462001fc15760806ffcbe86c7900a88aedcffc83b479aa3a48202901c90505b600061020083161462001fe85760806ff987a7253ac413176f2b074cf7815e548202901c90505b60006104008316146200200f5760806ff3392b0822b70005940c7a398e4b70f38202901c90505b6000610800831614620020365760806fe7159475a2c29b7443b29c7fa6e889d98202901c90505b60006110008316146200205d5760806fd097f3bdfd2022b8845ad8f792aa58258202901c90505b6000612000831614620020845760806fa9f746462d870fdf8a65dc1f90e061e58202901c90505b6000614000831614620020ab5760806f70d869a156d2a1b890bb3df62baf32f78202901c90505b6000618000831614620020d25760806f31be135f97d08fd981231505542fcfa68202901c90505b600062010000831614620020fa5760806f09aa508b5b7a84e1c677de54f3e99bc98202901c90505b600062020000831614620021215760806e5d6af8dedb81196699c329225ee6048202901c90505b600062040000831614620021475760806d2216e584f5fa1ea926041bedfe988202901c90505b6000620800008316146200216b5760806b048a170391f7dc42444e8fa28202901c90505b60008460020b1315620021af57807fffffffffffffffffffffffffffffffffffffffffffffffffffffffffffffffff81620021ab57620021aa62004c47565b5b0490505b60006401000000008281620021c957620021c862004c47565b5b0614620021d8576001620021db565b60005b60ff16602082901c0192505050919050565b60008373ffffffffffffffffffffffffffffffffffffffff168573ffffffffffffffffffffffffffffffffffffffff1611156200222f57838580955081965050505b8473ffffffffffffffffffffffffffffffffffffffff168673ffffffffffffffffffffffffffffffffffffffff161162002278576200227085858562002c3e565b90506200231f565b8373ffffffffffffffffffffffffffffffffffffffff168673ffffffffffffffffffffffffffffffffffffffff1610156200230e576000620022bc87868662002c3e565b90506000620022cd87898662002d0e565b9050806fffffffffffffffffffffffffffffffff16826fffffffffffffffffffffffffffffffff161062002302578062002304565b815b925050506200231e565b6200231b85858462002d0e565b90505b5b95945050505050565b60007f7fffffffffffffffffffffffffffffffffffffffffffffffffffffffffffffff8211156200235857600080fd5b819050919050565b60007f000000000000000000000000000000000000000000000000000000000000000073ffffffffffffffffffffffffffffffffffffffff16638154831960405180606001604052803373ffffffffffffffffffffffffffffffffffffffff16815260200186815260200185815250604051602001620023e1919062004d8a565b6040516020818303038152906040526040518263ffffffff1660e01b81526004016200240e919062003a4c565b6000604051808303816000875af11580156200242e573d6000803e3d6000fd5b505050506040513d6000823e3d601f19601f8201168201806040525081019062002459919062004e5c565b8060200190518101906200246e919062004965565b905092915050565b60008160801c9050919050565b6000819050919050565b6000806200249b8462001cb5565b9050600080600083815260200190815260200160002090508060000160009054906101000a900460ff1615620024d757620024d68562001104565b5b60006200263a8560400151620024ed9062004997565b7f000000000000000000000000000000000000000000000000000000000000000073ffffffffffffffffffffffffffffffffffffffff1663fa6793d5866040518263ffffffff1660e01b815260040162002548919062004384565b602060405180830381865afa15801562002566573d6000803e3d6000fd5b505050506040513d601f19601f820116820180604052508101906200258c919062004489565b6fffffffffffffffffffffffffffffffff168460000160019054906101000a900473ffffffffffffffffffffffffffffffffffffffff1673ffffffffffffffffffffffffffffffffffffffff166318160ddd6040518163ffffffff1660e01b8152600401602060405180830381865afa1580156200260e573d6000803e3d6000fd5b505050506040513d601f19601f8201168201806040525081019062002634919062004ec4565b620029d6565b9050620026478162002328565b620026529062004997565b8560400181815250507f000000000000000000000000000000000000000000000000000000000000000073ffffffffffffffffffffffffffffffffffffffff166361ae449a8787604051806020016040528060008152506040518463ffffffff1660e01b8152600401620026c99392919062004908565b6020604051808303816000875af1158015620026e9573d6000803e3d6000fd5b505050506040513d601f19601f820116820180604052508101906200270f919062004965565b935060008260000160006101000a81548160ff02191690831515021790555050505092915050565b7f000000000000000000000000000000000000000000000000000000000000000073ffffffffffffffffffffffffffffffffffffffff16630b0d9c09836000015185620027848562002476565b6200278f90620049f1565b6fffffffffffffffffffffffffffffffff166040518463ffffffff1660e01b8152600401620027c19392919062004f07565b600060405180830381600087803b158015620027dc57600080fd5b505af1158015620027f1573d6000803e3d6000fd5b505050507f000000000000000000000000000000000000000000000000000000000000000073ffffffffffffffffffffffffffffffffffffffff16630b0d9c09836020015185620028428562002483565b6200284d90620049f1565b6fffffffffffffffffffffffffffffffff166040518463ffffffff1660e01b81526004016200287f9392919062004f07565b600060405180830381600087803b1580156200289a57600080fd5b505af1158015620028af573d6000803e3d6000fd5b50505050505050565b620028d3838360000151620028cd8462002476565b62002da0565b620028ee838360200151620028e88462002483565b62002da0565b505050565b60008160b5915071010000000000000000000000000000000000811062002921578060801c90508160401b91505b6901000000000000000000811062002940578060401c90508160201b91505b6501000000000081106200295b578060201c90508160101b91505b6301000000811062002974578060101c90508160081b91505b620100008101820260121c9150818304820160011c9150818304820160011c9150818304820160011c9150818304820160011c9150818304820160011c9150818304820160011c9150818304820160011c915081828404108203915050919050565b60008083850290506000801985870982811083820303915050808411620029fc57600080fd5b6000810362002a12578382049250505062002a9e565b600084868809905082811182039150808303925060008586600003169050808604955080840493506001818260000304019050808302841793506000600287600302189050808702600203810290508087026002038102905080870260020381029050808702600203810290508087026002038102905080870260020381029050808502955050505050505b9392505050565b6000818291508173ffffffffffffffffffffffffffffffffffffffff161462002acd57600080fd5b919050565b600080600090507a184f03e93ff9f4daa797ed6e38ed64bf6a1f010000000000000000831062002b34577a184f03e93ff9f4daa797ed6e38ed64bf6a1f010000000000000000838162002b2a5762002b2962004c47565b5b0492506040810190505b6d04ee2d6d415b85acef8100000000831062002b75576d04ee2d6d415b85acef8100000000838162002b6b5762002b6a62004c47565b5b0492506020810190505b662386f26fc10000831062002ba857662386f26fc10000838162002b9e5762002b9d62004c47565b5b0492506010810190505b6305f5e100831062002bd5576305f5e100838162002bcb5762002bca62004c47565b5b0492506008810190505b612710831062002bfe57612710838162002bf45762002bf362004c47565b5b0492506004810190505b6064831062002c25576064838162002c1b5762002c1a62004c47565b5b0492506002810190505b600a831062002c35576001810190505b80915050919050565b60008273ffffffffffffffffffffffffffffffffffffffff168473ffffffffffffffffffffffffffffffffffffffff16111562002c8057828480945081955050505b600062002cc88573ffffffffffffffffffffffffffffffffffffffff168573ffffffffffffffffffffffffffffffffffffffff166c01000000000000000000000000620029d6565b905062002d0462002cfe8483888862002ce2919062004f44565b73ffffffffffffffffffffffffffffffffffffffff16620029d6565b6200306a565b9150509392505050565b60008273ffffffffffffffffffffffffffffffffffffffff168473ffffffffffffffffffffffffffffffffffffffff16111562002d5057828480945081955050505b62002d9762002d91836c01000000000000000000000000878762002d75919062004f44565b73ffffffffffffffffffffffffffffffffffffffff16620029d6565b6200306a565b90509392505050565b62002dc18273ffffffffffffffffffffffffffffffffffffffff1662003093565b1562002e82577f000000000000000000000000000000000000000000000000000000000000000073ffffffffffffffffffffffffffffffffffffffff16636a256b29826fffffffffffffffffffffffffffffffff16846040518363ffffffff1660e01b815260040162002e35919062004f93565b60206040518083038185885af115801562002e54573d6000803e3d6000fd5b50505050506040513d601f19601f8201168201806040525081019062002e7b919062004ec4565b5062003065565b3073ffffffffffffffffffffffffffffffffffffffff168373ffffffffffffffffffffffffffffffffffffffff160362002f1b5762002f157f0000000000000000000000000000000000000000000000000000000000000000826fffffffffffffffffffffffffffffffff168473ffffffffffffffffffffffffffffffffffffffff16620030cb9092919063ffffffff16565b62002fc2565b8173ffffffffffffffffffffffffffffffffffffffff166323b872dd847f0000000000000000000000000000000000000000000000000000000000000000846040518463ffffffff1660e01b815260040162002f7a9392919062004fb0565b6020604051808303816000875af115801562002f9a573d6000803e3d6000fd5b505050506040513d601f19601f8201168201806040525081019062002fc091906200501e565b505b7f000000000000000000000000000000000000000000000000000000000000000073ffffffffffffffffffffffffffffffffffffffff16636a256b29836040518263ffffffff1660e01b81526004016200301d919062004f93565b6020604051808303816000875af11580156200303d573d6000803e3d6000fd5b505050506040513d601f19601f8201168201806040525081019062003063919062004ec4565b505b505050565b600081829150816fffffffffffffffffffffffffffffffff16146200308e57600080fd5b919050565b60008073ffffffffffffffffffffffffffffffffffffffff168273ffffffffffffffffffffffffffffffffffffffff16149050919050565b6000620030ee8473ffffffffffffffffffffffffffffffffffffffff1662003093565b156200313e5760008060008085875af190508062003138576040517ff4b3b1bc00000000000000000000000000000000000000000000000000000000815260040160405180910390fd5b620031cd565b6040517fa9059cbb000000000000000000000000000000000000000000000000000000006000528360045282602452602060006044600080895af13d15601f3d1160016000511416171691506000606052806040525080620031cc576040517ff27f64e400000000000000000000000000000000000000000000000000000000815260040160405180910390fd5b5b50505050565b612328806200505183390190565b6040518061010001604052806000151581526020016000151581526020016000151581526020016000151581526020016000151581526020016000151581526020016000151581526020016000151581525090565b6000604051905090565b600080fd5b600080fd5b600073ffffffffffffffffffffffffffffffffffffffff82169050919050565b600062003277826200324a565b9050919050565b62003289816200326a565b81146200329557600080fd5b50565b600081359050620032a9816200327e565b92915050565b600080fd5b600060a08284031215620032cd57620032cc620032af565b5b81905092915050565b600060608284031215620032ef57620032ee620032af565b5b81905092915050565b6000819050919050565b6200330d81620032f8565b81146200331957600080fd5b50565b6000813590506200332d8162003302565b92915050565b600080fd5b600080fd5b600080fd5b60008083601f8401126200335b576200335a62003333565b5b8235905067ffffffffffffffff8111156200337b576200337a62003338565b5b6020830191508360018202830111156200339a57620033996200333d565b5b9250929050565b6000806000806000806101608789031215620033c257620033c162003240565b5b6000620033d289828a0162003298565b9650506020620033e589828a01620032b4565b95505060c0620033f889828a01620032d6565b9450506101206200340c89828a016200331c565b93505061014087013567ffffffffffffffff81111562003431576200343062003245565b5b6200343f89828a0162003342565b92509250509295509295509295565b60007fffffffff0000000000000000000000000000000000000000000000000000000082169050919050565b62003485816200344e565b82525050565b6000602082019050620034a260008301846200347a565b92915050565b620034b3816200324a565b8114620034bf57600080fd5b50565b600081359050620034d381620034a8565b92915050565b60008060008060006101008688031215620034f957620034f862003240565b5b6000620035098882890162003298565b95505060206200351c88828901620032b4565b94505060c06200352f88828901620034c2565b93505060e086013567ffffffffffffffff81111562003553576200355262003245565b5b620035618882890162003342565b92509250509295509295909350565b600060608284031215620035895762003588620032af565b5b81905092915050565b60008060008060006101408688031215620035b257620035b162003240565b5b6000620035c28882890162003298565b9550506020620035d588828901620032b4565b94505060c0620035e88882890162003570565b93505061012086013567ffffffffffffffff8111156200360d576200360c62003245565b5b6200361b8882890162003342565b92509250509295509295909350565b60006101208284031215620036445762003643620032af565b5b81905092915050565b6000610120828403121562003667576200366662003240565b5b600062003677848285016200362a565b91505092915050565b60006fffffffffffffffffffffffffffffffff82169050919050565b620036a78162003680565b82525050565b6000602082019050620036c460008301846200369c565b92915050565b60008115159050919050565b620036e181620036ca565b82525050565b61010082016000820151620037006000850182620036d6565b506020820151620037156020850182620036d6565b5060408201516200372a6040850182620036d6565b5060608201516200373f6060850182620036d6565b506080820151620037546080850182620036d6565b5060a08201516200376960a0850182620036d6565b5060c08201516200377e60c0850182620036d6565b5060e08201516200379360e0850182620036d6565b50505050565b600061010082019050620037b16000830184620036e7565b92915050565b6000819050919050565b620037cc81620037b7565b8114620037d857600080fd5b50565b600081359050620037ec81620037c1565b92915050565b6000602082840312156200380b576200380a62003240565b5b60006200381b84828501620037db565b91505092915050565b6200382f81620036ca565b82525050565b62003840816200326a565b82525050565b60006040820190506200385d600083018562003824565b6200386c602083018462003835565b9392505050565b60008160020b9050919050565b6200388b8162003873565b81146200389757600080fd5b50565b600081359050620038ab8162003880565b92915050565b6000806000806000806101208789031215620038d257620038d162003240565b5b6000620038e289828a0162003298565b9650506020620038f589828a01620032b4565b95505060c06200390889828a01620034c2565b94505060e06200391b89828a016200389a565b93505061010087013567ffffffffffffffff81111562003940576200393f62003245565b5b6200394e89828a0162003342565b92509250509295509295509295565b6000806020838503121562003977576200397662003240565b5b600083013567ffffffffffffffff81111562003998576200399762003245565b5b620039a68582860162003342565b92509250509250929050565b600081519050919050565b600082825260208201905092915050565b60005b83811015620039ee578082015181840152602081019050620039d1565b60008484015250505050565b6000601f19601f8301169050919050565b600062003a1882620039b2565b62003a248185620039bd565b935062003a36818560208601620039ce565b62003a4181620039fa565b840191505092915050565b6000602082019050818103600083015262003a68818462003a0b565b905092915050565b600080600080600080610160878903121562003a915762003a9062003240565b5b600062003aa189828a0162003298565b965050602062003ab489828a01620032b4565b95505060c062003ac789828a0162003570565b94505061012062003adb89828a016200331c565b93505061014087013567ffffffffffffffff81111562003b005762003aff62003245565b5b62003b0e89828a0162003342565b92509250509295509295509295565b6000819050919050565b62003b328162003b1d565b811462003b3e57600080fd5b50565b60008135905062003b528162003b27565b92915050565b600080600080600080610120878903121562003b795762003b7862003240565b5b600062003b8989828a0162003298565b965050602062003b9c89828a01620032b4565b95505060c062003baf89828a0162003b41565b94505060e062003bc289828a0162003b41565b93505061010087013567ffffffffffffffff81111562003be75762003be662003245565b5b62003bf589828a0162003342565b92509250509295509295509295565b600080fd5b7f4e487b7100000000000000000000000000000000000000000000000000000000600052604160045260246000fd5b62003c4382620039fa565b810181811067ffffffffffffffff8211171562003c655762003c6462003c09565b5b80604052505050565b600062003c7a62003236565b905062003c88828262003c38565b919050565b62003c98816200326a565b811462003ca457600080fd5b50565b60008135905062003cb88162003c8d565b92915050565b600062ffffff82169050919050565b62003cd88162003cbe565b811462003ce457600080fd5b50565b60008135905062003cf88162003ccd565b92915050565b600062003d0b826200326a565b9050919050565b62003d1d8162003cfe565b811462003d2957600080fd5b50565b60008135905062003d3d8162003d12565b92915050565b600060a0828403121562003d5c5762003d5b62003c04565b5b62003d6860a062003c6e565b9050600062003d7a8482850162003ca7565b600083015250602062003d908482850162003ca7565b602083015250604062003da68482850162003ce7565b604083015250606062003dbc848285016200389a565b606083015250608062003dd28482850162003d2c565b60808301525092915050565b600060a0828403121562003df75762003df662003240565b5b600062003e078482850162003d43565b91505092915050565b6000819050919050565b600062003e3b62003e3562003e2f846200324a565b62003e10565b6200324a565b9050919050565b600062003e4f8262003e1a565b9050919050565b600062003e638262003e42565b9050919050565b62003e758162003e56565b82525050565b600060208201905062003e92600083018462003e6a565b92915050565b600060a0828403121562003eb15762003eb0620032af565b5b81905092915050565b600060a0828403121562003ed35762003ed262003240565b5b600062003ee38482850162003e98565b91505092915050565b600062003f0d62003f0762003f0184620032f8565b62003e10565b620032f8565b9050919050565b62003f1f8162003eec565b82525050565b600060208201905062003f3c600083018462003f14565b92915050565b6000806000806000610140868803121562003f625762003f6162003240565b5b600062003f728882890162003298565b955050602062003f8588828901620032b4565b94505060c062003f9888828901620032d6565b93505061012086013567ffffffffffffffff81111562003fbd5762003fbc62003245565b5b62003fcb8882890162003342565b92509250509295509295909350565b60006020828403121562003ff35762003ff262003240565b5b600062004003848285016200389a565b91505092915050565b60006020828403121562004025576200402462003240565b5b6000620040358482850162003ca7565b91505092915050565b600080fd5b600067ffffffffffffffff82111562004061576200406062003c09565b5b6200406c82620039fa565b9050602081019050919050565b6000620040906200408a8462004043565b62003c6e565b905082815260208101848484011115620040af57620040ae6200403e565b5b620040bc848285620039ce565b509392505050565b600082601f830112620040dc57620040db62003333565b5b8151620040ee84826020860162004079565b91505092915050565b60006020828403121562004110576200410f62003240565b5b600082015167ffffffffffffffff81111562004131576200413062003245565b5b6200413f84828501620040c4565b91505092915050565b60006020828403121562004161576200416062003240565b5b6000620041718482850162003ce7565b91505092915050565b600081905092915050565b7f556e695634000000000000000000000000000000000000000000000000000000600082015250565b6000620041bd6005836200417a565b9150620041ca8262004185565b600582019050919050565b7f2d00000000000000000000000000000000000000000000000000000000000000600082015250565b60006200420d6001836200417a565b91506200421a82620041d5565b600182019050919050565b600081519050919050565b60006200423d8262004225565b6200424981856200417a565b93506200425b818560208601620039ce565b80840191505092915050565b60006200427482620041ae565b91506200428182620041fe565b91506200428f828662004230565b91506200429c82620041fe565b9150620042aa828562004230565b9150620042b782620041fe565b9150620042c5828462004230565b9150819050949350505050565b600082825260208201905092915050565b6000620042f08262004225565b620042fc8185620042d2565b93506200430e818560208601620039ce565b6200431981620039fa565b840191505092915050565b60006040820190508181036000830152620043408185620042e3565b90508181036020830152620043568184620042e3565b90509392505050565b60006200436c82620037b7565b9050919050565b6200437e816200435f565b82525050565b60006020820190506200439b600083018462004373565b92915050565b600081519050620043b281620034a8565b92915050565b600081519050620043c98162003880565b92915050565b600081519050620043e08162003ccd565b92915050565b6000806000806080858703121562004403576200440262003240565b5b60006200441387828801620043a1565b94505060206200442687828801620043b8565b93505060406200443987828801620043cf565b92505060606200444c87828801620043cf565b91505092959194509250565b620044638162003680565b81146200446f57600080fd5b50565b600081519050620044838162004458565b92915050565b600060208284031215620044a257620044a162003240565b5b6000620044b28482850162004472565b91505092915050565b7f4e487b7100000000000000000000000000000000000000000000000000000000600052601160045260246000fd5b6000620044f78262003873565b91507fffffffffffffffffffffffffffffffffffffffffffffffffffffffffff80000082036200452c576200452b620044bb565b5b816000039050919050565b6000620045448262003680565b9150620045518362003680565b925082820390506fffffffffffffffffffffffffffffffff8111156200457c576200457b620044bb565b5b92915050565b600061ffff82169050919050565b6000620045b1620045ab620045a58462004582565b62003e10565b62003b1d565b9050919050565b620045c38162004590565b82525050565b6000604082019050620045e0600083018562003835565b620045ef6020830184620045b8565b9392505050565b6000602082840312156200460f576200460e62003240565b5b60006200461f8482850162003298565b91505092915050565b600062004649620046436200463d8462003680565b62003e10565b62003b1d565b9050919050565b6200465b8162004628565b82525050565b600060408201905062004678600083018562003835565b62004687602083018462004650565b9392505050565b6200469981620032f8565b8114620046a557600080fd5b50565b600081359050620046b9816200468e565b92915050565b600060608284031215620046d857620046d762003c04565b5b620046e4606062003c6e565b90506000620046f6848285016200389a565b60008301525060206200470c848285016200389a565b60208301525060406200472284828501620046a8565b60408301525092915050565b6000610120828403121562004748576200474762003c04565b5b62004754606062003c6e565b90506000620047668482850162003298565b60008301525060206200477c8482850162003d43565b60208301525060c06200479284828501620046bf565b60408301525092915050565b60006101208284031215620047b857620047b762003240565b5b6000620047c8848285016200472e565b91505092915050565b6000620047de8262003e42565b9050919050565b620047f081620047d1565b82525050565b620048018162003cbe565b82525050565b620048128162003873565b82525050565b6000620048258262003e42565b9050919050565b620048378162004818565b82525050565b60a082016000820151620048556000850182620047e5565b5060208201516200486a6020850182620047e5565b5060408201516200487f6040850182620047f6565b50606082015162004894606085018262004807565b506080820151620048a960808501826200482c565b50505050565b620048ba81620032f8565b82525050565b606082016000820151620048d8600085018262004807565b506020820151620048ed602085018262004807565b506040820151620049026040850182620048af565b50505050565b6000610120820190506200492060008301866200483d565b6200492f60a0830185620048c0565b81810361010083015262004944818462003a0b565b9050949350505050565b6000815190506200495f8162003302565b92915050565b6000602082840312156200497e576200497d62003240565b5b60006200498e848285016200494e565b91505092915050565b6000620049a482620032f8565b91507f80000000000000000000000000000000000000000000000000000000000000008203620049d957620049d8620044bb565b5b816000039050919050565b600081600f0b9050919050565b6000620049fe82620049e4565b91507fffffffffffffffffffffffffffffffff80000000000000000000000000000000820362004a335762004a32620044bb565b5b816000039050919050565b600062004a4b8262003b1d565b915062004a588362003b1d565b925082820262004a688162003b1d565b9150828204841483151762004a825762004a81620044bb565b5b5092915050565b62004a94816200324a565b82525050565b60608201600082015162004ab26000850182620036d6565b50602082015162004ac76020850182620048af565b50604082015162004adc604085018262004a89565b50505050565b60006101208201905062004afa60008301866200483d565b62004b0960a083018562004a9a565b81810361010083015262004b1e818462003a0b565b9050949350505050565b600062004b3582620049e4565b915062004b4283620049e4565b925082820390506f7fffffffffffffffffffffffffffffff81137fffffffffffffffffffffffffffffffff800000000000000000000000000000008212171562004b915762004b90620044bb565b5b92915050565b60006101008201905062004baf60008301876200483d565b62004bbe60a083018662004650565b62004bcd60c083018562004650565b81810360e083015262004be1818462003a0b565b905095945050505050565b62004bf78162003b1d565b82525050565b600060408201905062004c14600083018562003835565b62004c23602083018462004bec565b9392505050565b600060a08201905062004c4160008301846200483d565b92915050565b7f4e487b7100000000000000000000000000000000000000000000000000000000600052601260045260246000fd5b62004c81816200326a565b82525050565b60a08201600082015162004c9f6000850182620047e5565b50602082015162004cb46020850182620047e5565b50604082015162004cc96040850182620047f6565b50606082015162004cde606085018262004807565b50608082015162004cf360808501826200482c565b50505050565b60608201600082015162004d11600085018262004807565b50602082015162004d26602085018262004807565b50604082015162004d3b6040850182620048af565b50505050565b6101208201600082015162004d5a600085018262004c76565b50602082015162004d6f602085018262004c87565b50604082015162004d8460c085018262004cf9565b50505050565b60006101208201905062004da2600083018462004d41565b92915050565b600067ffffffffffffffff82111562004dc65762004dc562003c09565b5b62004dd182620039fa565b9050602081019050919050565b600062004df562004def8462004da8565b62003c6e565b90508281526020810184848401111562004e145762004e136200403e565b5b62004e21848285620039ce565b509392505050565b600082601f83011262004e415762004e4062003333565b5b815162004e5384826020860162004dde565b91505092915050565b60006020828403121562004e755762004e7462003240565b5b600082015167ffffffffffffffff81111562004e965762004e9562003245565b5b62004ea48482850162004e29565b91505092915050565b60008151905062004ebe8162003b27565b92915050565b60006020828403121562004edd5762004edc62003240565b5b600062004eed8482850162004ead565b91505092915050565b62004f0181620047d1565b82525050565b600060608201905062004f1e600083018662004ef6565b62004f2d602083018562003835565b62004f3c604083018462004bec565b949350505050565b600062004f51826200324a565b915062004f5e836200324a565b9250828203905073ffffffffffffffffffffffffffffffffffffffff81111562004f8d5762004f8c620044bb565b5b92915050565b600060208201905062004faa600083018462004ef6565b92915050565b600060608201905062004fc7600083018662003835565b62004fd6602083018562003835565b62004fe5604083018462004650565b949350505050565b62004ff881620036ca565b81146200500457600080fd5b50565b600081519050620050188162004fed565b92915050565b60006020828403121562005037576200503662003240565b5b6000620050478482850162005007565b9150509291505056fe60e06040523480156200001157600080fd5b506040516200232838038062002328833981810160405281019062000037919062000358565b338282601282600090816200004d919062000628565b5081600190816200005f919062000628565b508060ff1660808160ff16815250504660a08181525050620000866200013560201b60201c565b60c0818152505050505080600660006101000a81548173ffffffffffffffffffffffffffffffffffffffff021916908373ffffffffffffffffffffffffffffffffffffffff1602179055508073ffffffffffffffffffffffffffffffffffffffff16600073ffffffffffffffffffffffffffffffffffffffff167f8be0079c531659141344cd1fd0a4f28419497f9722a3daafe3b4186f6b6457e060405160405180910390a3505050620008a5565b60007f8b73c3c69bb8fe3d512ecc4cf759cc79239f7b179b0ffacaa9a75d522b39400f6000604051620001699190620007be565b60405180910390207fc89efdaa54c0f20c7adf612882df0950f5a951637e0307cdcb4c672f298b8bc64630604051602001620001aa95949392919062000848565b60405160208183030381529060405280519060200120905090565b6000604051905090565b600080fd5b600080fd5b600080fd5b600080fd5b6000601f19601f8301169050919050565b7f4e487b7100000000000000000000000000000000000000000000000000000000600052604160045260246000fd5b6200022e82620001e3565b810181811067ffffffffffffffff8211171562000250576200024f620001f4565b5b80604052505050565b600062000265620001c5565b905062000273828262000223565b919050565b600067ffffffffffffffff821115620002965762000295620001f4565b5b620002a182620001e3565b9050602081019050919050565b60005b83811015620002ce578082015181840152602081019050620002b1565b60008484015250505050565b6000620002f1620002eb8462000278565b62000259565b90508281526020810184848401111562000310576200030f620001de565b5b6200031d848285620002ae565b509392505050565b600082601f8301126200033d576200033c620001d9565b5b81516200034f848260208601620002da565b91505092915050565b60008060408385031215620003725762000371620001cf565b5b600083015167ffffffffffffffff811115620003935762000392620001d4565b5b620003a18582860162000325565b925050602083015167ffffffffffffffff811115620003c557620003c4620001d4565b5b620003d38582860162000325565b9150509250929050565b600081519050919050565b7f4e487b7100000000000000000000000000000000000000000000000000000000600052602260045260246000fd5b600060028204905060018216806200043057607f821691505b602082108103620004465762000445620003e8565b5b50919050565b60008190508160005260206000209050919050565b60006020601f8301049050919050565b600082821b905092915050565b600060088302620004b07fffffffffffffffffffffffffffffffffffffffffffffffffffffffffffffffff8262000471565b620004bc868362000471565b95508019841693508086168417925050509392505050565b6000819050919050565b6000819050919050565b60006200050962000503620004fd84620004d4565b620004de565b620004d4565b9050919050565b6000819050919050565b6200052583620004e8565b6200053d620005348262000510565b8484546200047e565b825550505050565b600090565b6200055462000545565b620005618184846200051a565b505050565b5b8181101562000589576200057d6000826200054a565b60018101905062000567565b5050565b601f821115620005d857620005a2816200044c565b620005ad8462000461565b81016020851015620005bd578190505b620005d5620005cc8562000461565b83018262000566565b50505b505050565b600082821c905092915050565b6000620005fd60001984600802620005dd565b1980831691505092915050565b6000620006188383620005ea565b9150826002028217905092915050565b6200063382620003dd565b67ffffffffffffffff8111156200064f576200064e620001f4565b5b6200065b825462000417565b620006688282856200058d565b600060209050601f831160018114620006a057600084156200068b578287015190505b6200069785826200060a565b86555062000707565b601f198416620006b0866200044c565b60005b82811015620006da57848901518255600182019150602085019450602081019050620006b3565b86831015620006fa5784890151620006f6601f891682620005ea565b8355505b6001600288020188555050505b505050505050565b600081905092915050565b60008190508160005260206000209050919050565b600081546200073e8162000417565b6200074a81866200070f565b945060018216600081146200076857600181146200077e57620007b5565b60ff1983168652811515820286019350620007b5565b62000789856200071a565b60005b83811015620007ad578154818901526001820191506020810190506200078c565b838801955050505b50505092915050565b6000620007cc82846200072f565b915081905092915050565b6000819050919050565b620007ec81620007d7565b82525050565b620007fd81620004d4565b82525050565b600073ffffffffffffffffffffffffffffffffffffffff82169050919050565b6000620008308262000803565b9050919050565b620008428162000823565b82525050565b600060a0820190506200085f6000830188620007e1565b6200086e6020830187620007e1565b6200087d6040830186620007e1565b6200088c6060830185620007f2565b6200089b608083018462000837565b9695505050505050565b60805160a05160c051611a53620008d56000396000610775015260006107410152600061071b0152611a536000f3fe608060405234801561001057600080fd5b50600436106101005760003560e01c80637ecebe0011610097578063a9059cbb11610066578063a9059cbb146102b1578063d505accf146102e1578063dd62ed3e146102fd578063f2fde38b1461032d57610100565b80637ecebe00146102295780638da5cb5b1461025957806395d89b41146102775780639dc29fac1461029557610100565b8063313ce567116100d3578063313ce567146101a15780633644e515146101bf57806340c10f19146101dd57806370a08231146101f957610100565b806306fdde0314610105578063095ea7b31461012357806318160ddd1461015357806323b872dd14610171575b600080fd5b61010d610349565b60405161011a91906111d6565b60405180910390f35b61013d60048036038101906101389190611291565b6103d7565b60405161014a91906112ec565b60405180910390f35b61015b6104c9565b6040516101689190611316565b60405180910390f35b61018b60048036038101906101869190611331565b6104cf565b60405161019891906112ec565b60405180910390f35b6101a9610719565b6040516101b691906113a0565b60405180910390f35b6101c761073d565b6040516101d491906113d4565b60405180910390f35b6101f760048036038101906101f29190611291565b61079a565b005b610213600480360381019061020e91906113ef565b610838565b6040516102209190611316565b60405180910390f35b610243600480360381019061023e91906113ef565b610850565b6040516102509190611316565b60405180910390f35b610261610868565b60405161026e919061142b565b60405180910390f35b61027f61088e565b60405161028c91906111d6565b60405180910390f35b6102af60048036038101906102aa9190611291565b61091c565b005b6102cb60048036038101906102c69190611291565b6109ba565b6040516102d891906112ec565b60405180910390f35b6102fb60048036038101906102f6919061149e565b610ace565b005b61031760048036038101906103129190611540565b610dc7565b6040516103249190611316565b60405180910390f35b610347600480360381019061034291906113ef565b610dec565b005b60008054610356906115af565b80601f0160208091040260200160405190810160405280929190818152602001828054610382906115af565b80156103cf5780601f106103a4576101008083540402835291602001916103cf565b820191906000526020600020905b8154815290600101906020018083116103b257829003601f168201915b505050505081565b600081600460003373ffffffffffffffffffffffffffffffffffffffff1673ffffffffffffffffffffffffffffffffffffffff16815260200190815260200160002060008573ffffffffffffffffffffffffffffffffffffffff1673ffffffffffffffffffffffffffffffffffffffff168152602001908152602001600020819055508273ffffffffffffffffffffffffffffffffffffffff163373ffffffffffffffffffffffffffffffffffffffff167f8c5be1e5ebec7d5bd14f71427d1e84f3dd0314c0f7b2291e5b200ac8c7c3b925846040516104b79190611316565b60405180910390a36001905092915050565b60025481565b600080600460008673ffffffffffffffffffffffffffffffffffffffff1673ffffffffffffffffffffffffffffffffffffffff16815260200190815260200160002060003373ffffffffffffffffffffffffffffffffffffffff1673ffffffffffffffffffffffffffffffffffffffff1681526020019081526020016000205490507fffffffffffffffffffffffffffffffffffffffffffffffffffffffffffffffff8114610605578281610584919061160f565b600460008773ffffffffffffffffffffffffffffffffffffffff1673ffffffffffffffffffffffffffffffffffffffff16815260200190815260200160002060003373ffffffffffffffffffffffffffffffffffffffff1673ffffffffffffffffffffffffffffffffffffffff168152602001908152602001600020819055505b82600360008773ffffffffffffffffffffffffffffffffffffffff1673ffffffffffffffffffffffffffffffffffffffff1681526020019081526020016000206000828254610654919061160f565b9250508190555082600360008673ffffffffffffffffffffffffffffffffffffffff1673ffffffffffffffffffffffffffffffffffffffff168152602001908152602001600020600082825401925050819055508373ffffffffffffffffffffffffffffffffffffffff168573ffffffffffffffffffffffffffffffffffffffff167fddf252ad1be2c89b69c2b068fc378daa952ba7f163c4a11628f55a4df523b3ef856040516107059190611316565b60405180910390a360019150509392505050565b7f000000000000000000000000000000000000000000000000000000000000000081565b60007f000000000000000000000000000000000000000000000000000000000000000046146107735761076e610f1a565b610795565b7f00000000000000000000000000000000000000000000000000000000000000005b905090565b600660009054906101000a900473ffffffffffffffffffffffffffffffffffffffff1673ffffffffffffffffffffffffffffffffffffffff163373ffffffffffffffffffffffffffffffffffffffff161461082a576040517f08c379a00000000000000000000000000000000000000000000000000000000081526004016108219061168f565b60405180910390fd5b6108348282610fa6565b5050565b60036020528060005260406000206000915090505481565b60056020528060005260406000206000915090505481565b600660009054906101000a900473ffffffffffffffffffffffffffffffffffffffff1681565b6001805461089b906115af565b80601f01602080910402602001604051908101604052809291908181526020018280546108c7906115af565b80156109145780601f106108e957610100808354040283529160200191610914565b820191906000526020600020905b8154815290600101906020018083116108f757829003601f168201915b505050505081565b600660009054906101000a900473ffffffffffffffffffffffffffffffffffffffff1673ffffffffffffffffffffffffffffffffffffffff163373ffffffffffffffffffffffffffffffffffffffff16146109ac576040517f08c379a00000000000000000000000000000000000000000000000000000000081526004016109a39061168f565b60405180910390fd5b6109b68282611076565b5050565b600081600360003373ffffffffffffffffffffffffffffffffffffffff1673ffffffffffffffffffffffffffffffffffffffff1681526020019081526020016000206000828254610a0b919061160f565b9250508190555081600360008573ffffffffffffffffffffffffffffffffffffffff1673ffffffffffffffffffffffffffffffffffffffff168152602001908152602001600020600082825401925050819055508273ffffffffffffffffffffffffffffffffffffffff163373ffffffffffffffffffffffffffffffffffffffff167fddf252ad1be2c89b69c2b068fc378daa952ba7f163c4a11628f55a4df523b3ef84604051610abc9190611316565b60405180910390a36001905092915050565b42841015610b11576040517f08c379a0000000000000000000000000000000000000000000000000000000008152600401610b08906116fb565b60405180910390fd5b60006001610b1d61073d565b7f6e71edae12b1b97f4d1f60370fef10105fa2faae0126114a169c64845d6126c98a8a8a600560008f73ffffffffffffffffffffffffffffffffffffffff1673ffffffffffffffffffffffffffffffffffffffff1681526020019081526020016000206000815480929190600101919050558b604051602001610ba59695949392919061171b565b60405160208183030381529060405280519060200120604051602001610bcc9291906117f4565b6040516020818303038152906040528051906020012085858560405160008152602001604052604051610c02949392919061182b565b6020604051602081039080840390855afa158015610c24573d6000803e3d6000fd5b505050602060405103519050600073ffffffffffffffffffffffffffffffffffffffff168173ffffffffffffffffffffffffffffffffffffffff1614158015610c9857508773ffffffffffffffffffffffffffffffffffffffff168173ffffffffffffffffffffffffffffffffffffffff16145b610cd7576040517f08c379a0000000000000000000000000000000000000000000000000000000008152600401610cce906118bc565b60405180910390fd5b85600460008373ffffffffffffffffffffffffffffffffffffffff1673ffffffffffffffffffffffffffffffffffffffff16815260200190815260200160002060008973ffffffffffffffffffffffffffffffffffffffff1673ffffffffffffffffffffffffffffffffffffffff16815260200190815260200160002081905550508573ffffffffffffffffffffffffffffffffffffffff168773ffffffffffffffffffffffffffffffffffffffff167f8c5be1e5ebec7d5bd14f71427d1e84f3dd0314c0f7b2291e5b200ac8c7c3b92587604051610db69190611316565b60405180910390a350505050505050565b6004602052816000526040600020602052806000526040600020600091509150505481565b600660009054906101000a900473ffffffffffffffffffffffffffffffffffffffff1673ffffffffffffffffffffffffffffffffffffffff163373ffffffffffffffffffffffffffffffffffffffff1614610e7c576040517f08c379a0000000000000000000000000000000000000000000000000000000008152600401610e739061168f565b60405180910390fd5b80600660006101000a81548173ffffffffffffffffffffffffffffffffffffffff021916908373ffffffffffffffffffffffffffffffffffffffff1602179055508073ffffffffffffffffffffffffffffffffffffffff163373ffffffffffffffffffffffffffffffffffffffff167f8be0079c531659141344cd1fd0a4f28419497f9722a3daafe3b4186f6b6457e060405160405180910390a350565b60007f8b73c3c69bb8fe3d512ecc4cf759cc79239f7b179b0ffacaa9a75d522b39400f6000604051610f4c919061197f565b60405180910390207fc89efdaa54c0f20c7adf612882df0950f5a951637e0307cdcb4c672f298b8bc64630604051602001610f8b959493929190611996565b60405160208183030381529060405280519060200120905090565b8060026000828254610fb891906119e9565b9250508190555080600360008473ffffffffffffffffffffffffffffffffffffffff1673ffffffffffffffffffffffffffffffffffffffff168152602001908152602001600020600082825401925050819055508173ffffffffffffffffffffffffffffffffffffffff16600073ffffffffffffffffffffffffffffffffffffffff167fddf252ad1be2c89b69c2b068fc378daa952ba7f163c4a11628f55a4df523b3ef8360405161106a9190611316565b60405180910390a35050565b80600360008473ffffffffffffffffffffffffffffffffffffffff1673ffffffffffffffffffffffffffffffffffffffff16815260200190815260200160002060008282546110c5919061160f565b9250508190555080600260008282540392505081905550600073ffffffffffffffffffffffffffffffffffffffff168273ffffffffffffffffffffffffffffffffffffffff167fddf252ad1be2c89b69c2b068fc378daa952ba7f163c4a11628f55a4df523b3ef8360405161113a9190611316565b60405180910390a35050565b600081519050919050565b600082825260208201905092915050565b60005b83811015611180578082015181840152602081019050611165565b60008484015250505050565b6000601f19601f8301169050919050565b60006111a882611146565b6111b28185611151565b93506111c2818560208601611162565b6111cb8161118c565b840191505092915050565b600060208201905081810360008301526111f0818461119d565b905092915050565b600080fd5b600073ffffffffffffffffffffffffffffffffffffffff82169050919050565b6000611228826111fd565b9050919050565b6112388161121d565b811461124357600080fd5b50565b6000813590506112558161122f565b92915050565b6000819050919050565b61126e8161125b565b811461127957600080fd5b50565b60008135905061128b81611265565b92915050565b600080604083850312156112a8576112a76111f8565b5b60006112b685828601611246565b92505060206112c78582860161127c565b9150509250929050565b60008115159050919050565b6112e6816112d1565b82525050565b600060208201905061130160008301846112dd565b92915050565b6113108161125b565b82525050565b600060208201905061132b6000830184611307565b92915050565b60008060006060848603121561134a576113496111f8565b5b600061135886828701611246565b935050602061136986828701611246565b925050604061137a8682870161127c565b9150509250925092565b600060ff82169050919050565b61139a81611384565b82525050565b60006020820190506113b56000830184611391565b92915050565b6000819050919050565b6113ce816113bb565b82525050565b60006020820190506113e960008301846113c5565b92915050565b600060208284031215611405576114046111f8565b5b600061141384828501611246565b91505092915050565b6114258161121d565b82525050565b6000602082019050611440600083018461141c565b92915050565b61144f81611384565b811461145a57600080fd5b50565b60008135905061146c81611446565b92915050565b61147b816113bb565b811461148657600080fd5b50565b60008135905061149881611472565b92915050565b600080600080600080600060e0888a0312156114bd576114bc6111f8565b5b60006114cb8a828b01611246565b97505060206114dc8a828b01611246565b96505060406114ed8a828b0161127c565b95505060606114fe8a828b0161127c565b945050608061150f8a828b0161145d565b93505060a06115208a828b01611489565b92505060c06115318a828b01611489565b91505092959891949750929550565b60008060408385031215611557576115566111f8565b5b600061156585828601611246565b925050602061157685828601611246565b9150509250929050565b7f4e487b7100000000000000000000000000000000000000000000000000000000600052602260045260246000fd5b600060028204905060018216806115c757607f821691505b6020821081036115da576115d9611580565b5b50919050565b7f4e487b7100000000000000000000000000000000000000000000000000000000600052601160045260246000fd5b600061161a8261125b565b91506116258361125b565b925082820390508181111561163d5761163c6115e0565b5b92915050565b7f554e415554484f52495a45440000000000000000000000000000000000000000600082015250565b6000611679600c83611151565b915061168482611643565b602082019050919050565b600060208201905081810360008301526116a88161166c565b9050919050565b7f5045524d49545f444541444c494e455f45585049524544000000000000000000600082015250565b60006116e5601783611151565b91506116f0826116af565b602082019050919050565b60006020820190508181036000830152611714816116d8565b9050919050565b600060c08201905061173060008301896113c5565b61173d602083018861141c565b61174a604083018761141c565b6117576060830186611307565b6117646080830185611307565b61177160a0830184611307565b979650505050505050565b600081905092915050565b7f1901000000000000000000000000000000000000000000000000000000000000600082015250565b60006117bd60028361177c565b91506117c882611787565b600282019050919050565b6000819050919050565b6117ee6117e9826113bb565b6117d3565b82525050565b60006117ff826117b0565b915061180b82856117dd565b60208201915061181b82846117dd565b6020820191508190509392505050565b600060808201905061184060008301876113c5565b61184d6020830186611391565b61185a60408301856113c5565b61186760608301846113c5565b95945050505050565b7f494e56414c49445f5349474e4552000000000000000000000000000000000000600082015250565b60006118a6600e83611151565b91506118b182611870565b602082019050919050565b600060208201905081810360008301526118d581611899565b9050919050565b600081905092915050565b60008190508160005260206000209050919050565b60008154611909816115af565b61191381866118dc565b9450600182166000811461192e576001811461194357611976565b60ff1983168652811515820286019350611976565b61194c856118e7565b60005b8381101561196e5781548189015260018201915060208101905061194f565b838801955050505b50505092915050565b600061198b82846118fc565b915081905092915050565b600060a0820190506119ab60008301886113c5565b6119b860208301876113c5565b6119c560408301866113c5565b6119d26060830185611307565b6119df608083018461141c565b9695505050505050565b60006119f48261125b565b91506119ff8361125b565b9250828201905080821115611a1757611a166115e0565b5b9291505056fea26469706673582212200dc84417425013bc935af995e45d749187dc51077507ae87142191b4ea0ef55964736f6c63430008150033a2646970667358221220765464556438c9b69613202568d943ed096e372eaa7b8613822bfdacf50ec76264736f6c63430008150033",
  "linkReferences": {},
  "deployedLinkReferences": {}
}