{
  "_format": "hh-sol-artifact-1",
  "contractName": "PoolSwapTest",
  "sourceName": "lib/periphery-next/lib/v4-core/contracts/test/PoolSwapTest.sol",
  "abi": [
    {
      "inputs": [
        {
          "internalType": "contract IPoolManager",
          "name": "_manager",
          "type": "address"
        }
      ],
      "stateMutability": "nonpayable",
      "type": "constructor"
    },
    {
      "inputs": [],
      "name": "ERC20TransferFailed",
      "type": "error"
    },
    {
      "inputs": [],
      "name": "NativeTransferFailed",
      "type": "error"
    },
    {
      "inputs": [
        {
          "internalType": "bytes",
          "name": "rawData",
          "type": "bytes"
        }
      ],
      "name": "lockAcquired",
      "outputs": [
        {
          "internalType": "bytes",
          "name": "",
          "type": "bytes"
        }
      ],
      "stateMutability": "nonpayable",
      "type": "function"
    },
    {
      "inputs": [],
      "name": "manager",
      "outputs": [
        {
          "internalType": "contract IPoolManager",
          "name": "",
          "type": "address"
        }
      ],
      "stateMutability": "view",
      "type": "function"
    },
    {
      "inputs": [
        {
          "components": [
            {
              "internalType": "Currency",
              "name": "currency0",
              "type": "address"
            },
            {
              "internalType": "Currency",
              "name": "currency1",
              "type": "address"
            },
            {
              "internalType": "uint24",
              "name": "fee",
              "type": "uint24"
            },
            {
              "internalType": "int24",
              "name": "tickSpacing",
              "type": "int24"
            },
            {
              "internalType": "contract IHooks",
              "name": "hooks",
              "type": "address"
            }
          ],
          "internalType": "struct PoolKey",
          "name": "key",
          "type": "tuple"
        },
        {
          "components": [
            {
              "internalType": "bool",
              "name": "zeroForOne",
              "type": "bool"
            },
            {
              "internalType": "int256",
              "name": "amountSpecified",
              "type": "int256"
            },
            {
              "internalType": "uint160",
              "name": "sqrtPriceLimitX96",
              "type": "uint160"
            }
          ],
          "internalType": "struct IPoolManager.SwapParams",
          "name": "params",
          "type": "tuple"
        },
        {
          "components": [
            {
              "internalType": "bool",
              "name": "withdrawTokens",
              "type": "bool"
            },
            {
              "internalType": "bool",
              "name": "settleUsingTransfer",
              "type": "bool"
            }
          ],
          "internalType": "struct PoolSwapTest.TestSettings",
          "name": "testSettings",
          "type": "tuple"
        },
        {
          "internalType": "bytes",
          "name": "hookData",
          "type": "bytes"
        }
      ],
      "name": "swap",
      "outputs": [
        {
          "internalType": "BalanceDelta",
          "name": "delta",
          "type": "int256"
        }
      ],
      "stateMutability": "payable",
      "type": "function"
    }
  ],
  "bytecode": "0x60a06040523480156200001157600080fd5b5060405162001f8c38038062001f8c8339818101604052810190620000379190620000f0565b8073ffffffffffffffffffffffffffffffffffffffff1660808173ffffffffffffffffffffffffffffffffffffffff16815250505062000122565b600080fd5b600073ffffffffffffffffffffffffffffffffffffffff82169050919050565b6000620000a48262000077565b9050919050565b6000620000b88262000097565b9050919050565b620000ca81620000ab565b8114620000d657600080fd5b50565b600081519050620000ea81620000bf565b92915050565b60006020828403121562000109576200010862000072565b5b60006200011984828501620000d9565b91505092915050565b608051611dd8620001b46000396000818160d50152818161022a01528181610250015281816102bd015281816103c7015281816104b501528181610541015281816105ec0152818161062d015281816106eb0152818161079c0152818161089d0152818161098b01528181610a1701528181610ac201528181610b0301528181610bc10152610c720152611dd86000f3fe6080604052600436106100345760003560e01c80632229d0b414610039578063481c6a7514610069578063ab6291fe14610094575b600080fd5b610053600480360381019061004e91906112e8565b6100d1565b60405161006091906113a9565b60405180910390f35b34801561007557600080fd5b5061007e610228565b60405161008b9190611419565b60405180910390f35b3480156100a057600080fd5b506100bb60048036038101906100b69190611494565b61024c565b6040516100c89190611560565b60405180910390f35b60007f000000000000000000000000000000000000000000000000000000000000000073ffffffffffffffffffffffffffffffffffffffff1663815483196040518060a001604052803373ffffffffffffffffffffffffffffffffffffffff1681526020018681526020018881526020018781526020018581525060405160200161015c91906117ba565b6040516020818303038152906040526040518263ffffffff1660e01b81526004016101879190611560565b6000604051808303816000875af11580156101a6573d6000803e3d6000fd5b505050506040513d6000823e3d601f19601f820116820180604052508101906101cf919061184c565b8060200190518101906101e291906118c1565b90506000479050600081111561021f5761021e3382600073ffffffffffffffffffffffffffffffffffffffff16610d499092919063ffffffff16565b5b50949350505050565b7f000000000000000000000000000000000000000000000000000000000000000081565b60607f000000000000000000000000000000000000000000000000000000000000000073ffffffffffffffffffffffffffffffffffffffff163373ffffffffffffffffffffffffffffffffffffffff16146102a657600080fd5b600083838101906102b791906119c5565b905060007f000000000000000000000000000000000000000000000000000000000000000073ffffffffffffffffffffffffffffffffffffffff1663f3cd914c8360400151846060015185608001516040518463ffffffff1660e01b815260040161032493929190611ab8565b6020604051808303816000875af1158015610343573d6000803e3d6000fd5b505050506040513d601f19601f8201168201806040525081019061036791906118c1565b90508160600151600001511561084d57600061038282610e4b565b600f0b13156106c757816020015160200151156105ea576103c082604001516000015173ffffffffffffffffffffffffffffffffffffffff16610e58565b1561048a577f000000000000000000000000000000000000000000000000000000000000000073ffffffffffffffffffffffffffffffffffffffff16636a256b2961040a83610e4b565b6fffffffffffffffffffffffffffffffff168460400151600001516040518363ffffffff1660e01b81526004016104419190611b07565b60206040518083038185885af115801561045f573d6000803e3d6000fd5b50505050506040513d601f19601f820116820180604052508101906104849190611b58565b506105e5565b81604001516000015173ffffffffffffffffffffffffffffffffffffffff166323b872dd83600001517f00000000000000000000000000000000000000000000000000000000000000006104dd85610e4b565b6040518463ffffffff1660e01b81526004016104fb93929190611be1565b6020604051808303816000875af115801561051a573d6000803e3d6000fd5b505050506040513d601f19601f8201168201806040525081019061053e9190611c2d565b507f000000000000000000000000000000000000000000000000000000000000000073ffffffffffffffffffffffffffffffffffffffff16636a256b298360400151600001516040518263ffffffff1660e01b81526004016105a09190611b07565b6020604051808303816000875af11580156105bf573d6000803e3d6000fd5b505050506040513d601f19601f820116820180604052508101906105e39190611b58565b505b6106c6565b7f000000000000000000000000000000000000000000000000000000000000000073ffffffffffffffffffffffffffffffffffffffff1663f242432a83600001517f000000000000000000000000000000000000000000000000000000000000000085604001516000015173ffffffffffffffffffffffffffffffffffffffff1661067486610e4b565b6040518563ffffffff1660e01b81526004016106939493929190611c8f565b600060405180830381600087803b1580156106ad57600080fd5b505af11580156106c1573d6000803e3d6000fd5b505050505b5b60006106d282610e90565b600f0b1215610848578160200151600001511561079a577f000000000000000000000000000000000000000000000000000000000000000073ffffffffffffffffffffffffffffffffffffffff16630b0d9c09836040015160200151846000015161073c85610e90565b61074590611d23565b6040518463ffffffff1660e01b815260040161076393929190611d6b565b600060405180830381600087803b15801561077d57600080fd5b505af1158015610791573d6000803e3d6000fd5b50505050610847565b7f000000000000000000000000000000000000000000000000000000000000000073ffffffffffffffffffffffffffffffffffffffff1663c6c3bbe683604001516020015184600001516107ed85610e90565b6107f690611d23565b6040518463ffffffff1660e01b815260040161081493929190611d6b565b600060405180830381600087803b15801561082e57600080fd5b505af1158015610842573d6000803e3d6000fd5b505050505b5b610d1f565b600061085882610e90565b600f0b1315610b9d5781602001516020015115610ac05761089682604001516020015173ffffffffffffffffffffffffffffffffffffffff16610e58565b15610960577f000000000000000000000000000000000000000000000000000000000000000073ffffffffffffffffffffffffffffffffffffffff16636a256b296108e083610e90565b6fffffffffffffffffffffffffffffffff168460400151602001516040518363ffffffff1660e01b81526004016109179190611b07565b60206040518083038185885af1158015610935573d6000803e3d6000fd5b50505050506040513d601f19601f8201168201806040525081019061095a9190611b58565b50610abb565b81604001516020015173ffffffffffffffffffffffffffffffffffffffff166323b872dd83600001517f00000000000000000000000000000000000000000000000000000000000000006109b385610e90565b6040518463ffffffff1660e01b81526004016109d193929190611be1565b6020604051808303816000875af11580156109f0573d6000803e3d6000fd5b505050506040513d601f19601f82011682018060405250810190610a149190611c2d565b507f000000000000000000000000000000000000000000000000000000000000000073ffffffffffffffffffffffffffffffffffffffff16636a256b298360400151602001516040518263ffffffff1660e01b8152600401610a769190611b07565b6020604051808303816000875af1158015610a95573d6000803e3d6000fd5b505050506040513d601f19601f82011682018060405250810190610ab99190611b58565b505b610b9c565b7f000000000000000000000000000000000000000000000000000000000000000073ffffffffffffffffffffffffffffffffffffffff1663f242432a83600001517f000000000000000000000000000000000000000000000000000000000000000085604001516020015173ffffffffffffffffffffffffffffffffffffffff16610b4a86610e90565b6040518563ffffffff1660e01b8152600401610b699493929190611c8f565b600060405180830381600087803b158015610b8357600080fd5b505af1158015610b97573d6000803e3d6000fd5b505050505b5b6000610ba882610e4b565b600f0b1215610d1e5781602001516000015115610c70577f000000000000000000000000000000000000000000000000000000000000000073ffffffffffffffffffffffffffffffffffffffff16630b0d9c098360400151600001518460000151610c1285610e4b565b610c1b90611d23565b6040518463ffffffff1660e01b8152600401610c3993929190611d6b565b600060405180830381600087803b158015610c5357600080fd5b505af1158015610c67573d6000803e3d6000fd5b50505050610d1d565b7f000000000000000000000000000000000000000000000000000000000000000073ffffffffffffffffffffffffffffffffffffffff1663c6c3bbe68360400151600001518460000151610cc385610e4b565b610ccc90611d23565b6040518463ffffffff1660e01b8152600401610cea93929190611d6b565b600060405180830381600087803b158015610d0457600080fd5b505af1158015610d18573d6000803e3d6000fd5b505050505b5b5b80604051602001610d3091906113a9565b6040516020818303038152906040529250505092915050565b6000610d6a8473ffffffffffffffffffffffffffffffffffffffff16610e58565b15610db75760008060008085875af1905080610db2576040517ff4b3b1bc00000000000000000000000000000000000000000000000000000000815260040160405180910390fd5b610e45565b6040517fa9059cbb000000000000000000000000000000000000000000000000000000006000528360045282602452602060006044600080895af13d15601f3d1160016000511416171691506000606052806040525080610e44576040517ff27f64e400000000000000000000000000000000000000000000000000000000815260040160405180910390fd5b5b50505050565b60008160801c9050919050565b60008073ffffffffffffffffffffffffffffffffffffffff168273ffffffffffffffffffffffffffffffffffffffff16149050919050565b6000819050919050565b6000604051905090565b600080fd5b600080fd5b600080fd5b6000601f19601f8301169050919050565b7f4e487b7100000000000000000000000000000000000000000000000000000000600052604160045260246000fd5b610efc82610eb3565b810181811067ffffffffffffffff82111715610f1b57610f1a610ec4565b5b80604052505050565b6000610f2e610e9a565b9050610f3a8282610ef3565b919050565b600080fd5b600073ffffffffffffffffffffffffffffffffffffffff82169050919050565b6000610f6f82610f44565b9050919050565b610f7f81610f64565b8114610f8a57600080fd5b50565b600081359050610f9c81610f76565b92915050565b600062ffffff82169050919050565b610fba81610fa2565b8114610fc557600080fd5b50565b600081359050610fd781610fb1565b92915050565b60008160020b9050919050565b610ff381610fdd565b8114610ffe57600080fd5b50565b60008135905061101081610fea565b92915050565b600061102182610f64565b9050919050565b61103181611016565b811461103c57600080fd5b50565b60008135905061104e81611028565b92915050565b600060a0828403121561106a57611069610eae565b5b61107460a0610f24565b9050600061108484828501610f8d565b600083015250602061109884828501610f8d565b60208301525060406110ac84828501610fc8565b60408301525060606110c084828501611001565b60608301525060806110d48482850161103f565b60808301525092915050565b60008115159050919050565b6110f5816110e0565b811461110057600080fd5b50565b600081359050611112816110ec565b92915050565b6000819050919050565b61112b81611118565b811461113657600080fd5b50565b60008135905061114881611122565b92915050565b61115781610f44565b811461116257600080fd5b50565b6000813590506111748161114e565b92915050565b6000606082840312156111905761118f610eae565b5b61119a6060610f24565b905060006111aa84828501611103565b60008301525060206111be84828501611139565b60208301525060406111d284828501611165565b60408301525092915050565b6000604082840312156111f4576111f3610eae565b5b6111fe6040610f24565b9050600061120e84828501611103565b600083015250602061122284828501611103565b60208301525092915050565b600080fd5b600080fd5b600067ffffffffffffffff82111561125357611252610ec4565b5b61125c82610eb3565b9050602081019050919050565b82818337600083830152505050565b600061128b61128684611238565b610f24565b9050828152602081018484840111156112a7576112a6611233565b5b6112b2848285611269565b509392505050565b600082601f8301126112cf576112ce61122e565b5b81356112df848260208601611278565b91505092915050565b600080600080610160858703121561130357611302610ea4565b5b600061131187828801611054565b94505060a06113228782880161117a565b935050610100611334878288016111de565b92505061014085013567ffffffffffffffff81111561135657611355610ea9565b5b611362878288016112ba565b91505092959194509250565b6000819050919050565b600061139361138e61138984611118565b61136e565b611118565b9050919050565b6113a381611378565b82525050565b60006020820190506113be600083018461139a565b92915050565b60006113df6113da6113d584610f44565b61136e565b610f44565b9050919050565b60006113f1826113c4565b9050919050565b6000611403826113e6565b9050919050565b611413816113f8565b82525050565b600060208201905061142e600083018461140a565b92915050565b600080fd5b600080fd5b60008083601f8401126114545761145361122e565b5b8235905067ffffffffffffffff81111561147157611470611434565b5b60208301915083600182028301111561148d5761148c611439565b5b9250929050565b600080602083850312156114ab576114aa610ea4565b5b600083013567ffffffffffffffff8111156114c9576114c8610ea9565b5b6114d58582860161143e565b92509250509250929050565b600081519050919050565b600082825260208201905092915050565b60005b8381101561151b578082015181840152602081019050611500565b60008484015250505050565b6000611532826114e1565b61153c81856114ec565b935061154c8185602086016114fd565b61155581610eb3565b840191505092915050565b6000602082019050818103600083015261157a8184611527565b905092915050565b61158b81610f64565b82525050565b61159a816110e0565b82525050565b6040820160008201516115b66000850182611591565b5060208201516115c96020850182611591565b50505050565b60006115da826113e6565b9050919050565b6115ea816115cf565b82525050565b6115f981610fa2565b82525050565b61160881610fdd565b82525050565b6000611619826113e6565b9050919050565b6116298161160e565b82525050565b60a08201600082015161164560008501826115e1565b50602082015161165860208501826115e1565b50604082015161166b60408501826115f0565b50606082015161167e60608501826115ff565b5060808201516116916080850182611620565b50505050565b6116a081611118565b82525050565b6116af81610f44565b82525050565b6060820160008201516116cb6000850182611591565b5060208201516116de6020850182611697565b5060408201516116f160408501826116a6565b50505050565b600082825260208201905092915050565b6000611713826114e1565b61171d81856116f7565b935061172d8185602086016114fd565b61173681610eb3565b840191505092915050565b60006101808301600083015161175a6000860182611582565b50602083015161176d60208601826115a0565b506040830151611780606086018261162f565b5060608301516117946101008601826116b5565b5060808301518482036101608601526117ad8282611708565b9150508091505092915050565b600060208201905081810360008301526117d48184611741565b905092915050565b60006117ef6117ea84611238565b610f24565b90508281526020810184848401111561180b5761180a611233565b5b6118168482856114fd565b509392505050565b600082601f8301126118335761183261122e565b5b81516118438482602086016117dc565b91505092915050565b60006020828403121561186257611861610ea4565b5b600082015167ffffffffffffffff8111156118805761187f610ea9565b5b61188c8482850161181e565b91505092915050565b61189e81611118565b81146118a957600080fd5b50565b6000815190506118bb81611895565b92915050565b6000602082840312156118d7576118d6610ea4565b5b60006118e5848285016118ac565b91505092915050565b6118f781610f64565b811461190257600080fd5b50565b600081359050611914816118ee565b92915050565b6000610180828403121561193157611930610eae565b5b61193b60a0610f24565b9050600061194b84828501611905565b600083015250602061195f848285016111de565b602083015250606061197384828501611054565b6040830152506101006119888482850161117a565b60608301525061016082013567ffffffffffffffff8111156119ad576119ac610f3f565b5b6119b9848285016112ba565b60808301525092915050565b6000602082840312156119db576119da610ea4565b5b600082013567ffffffffffffffff8111156119f9576119f8610ea9565b5b611a058482850161191a565b91505092915050565b60a082016000820151611a2460008501826115e1565b506020820151611a3760208501826115e1565b506040820151611a4a60408501826115f0565b506060820151611a5d60608501826115ff565b506080820151611a706080850182611620565b50505050565b606082016000820151611a8c6000850182611591565b506020820151611a9f6020850182611697565b506040820151611ab260408501826116a6565b50505050565b600061012082019050611ace6000830186611a0e565b611adb60a0830185611a76565b818103610100830152611aee8184611527565b9050949350505050565b611b01816115cf565b82525050565b6000602082019050611b1c6000830184611af8565b92915050565b6000819050919050565b611b3581611b22565b8114611b4057600080fd5b50565b600081519050611b5281611b2c565b92915050565b600060208284031215611b6e57611b6d610ea4565b5b6000611b7c84828501611b43565b91505092915050565b611b8e81610f64565b82525050565b60006fffffffffffffffffffffffffffffffff82169050919050565b6000611bcb611bc6611bc184611b94565b61136e565b611b22565b9050919050565b611bdb81611bb0565b82525050565b6000606082019050611bf66000830186611b85565b611c036020830185611b85565b611c106040830184611bd2565b949350505050565b600081519050611c27816110ec565b92915050565b600060208284031215611c4357611c42610ea4565b5b6000611c5184828501611c18565b91505092915050565b611c6381611b22565b82525050565b50565b6000611c796000836114ec565b9150611c8482611c69565b600082019050919050565b600060a082019050611ca46000830187611b85565b611cb16020830186611b85565b611cbe6040830185611c5a565b611ccb6060830184611bd2565b8181036080830152611cdc81611c6c565b905095945050505050565b600081600f0b9050919050565b7f4e487b7100000000000000000000000000000000000000000000000000000000600052601160045260246000fd5b6000611d2e82611ce7565b91507fffffffffffffffffffffffffffffffff800000000000000000000000000000008203611d6057611d5f611cf4565b5b816000039050919050565b6000606082019050611d806000830186611af8565b611d8d6020830185611b85565b611d9a6040830184611bd2565b94935050505056fea264697066735822122085fe61d34154f16890ee79561b71b7038357e0b2bc50ca7c25d069cbe04ed88a64736f6c63430008150033",
  "linkReferences": {},
  "deployedLinkReferences": {}
}