{
  "_format": "hh-sol-artifact-1",
  "contractName": "GeomeanOracle",
  "sourceName": "src/GEOMEAN_ORACLE/GeomeanOracle.sol",
  "abi": [
    {
      "inputs": [
        {
          "internalType": "contract IPoolManager",
          "name": "_poolManager",
          "type": "address"
        }
      ],
      "stateMutability": "nonpayable",
      "type": "constructor"
    },
    {
      "inputs": [
        {
          "internalType": "address",
          "name": "hooks",
          "type": "address"
        }
      ],
      "name": "HookAddressNotValid",
      "type": "error"
    },
    {
      "inputs": [],
      "name": "HookNotImplemented",
      "type": "error"
    },
    {
      "inputs": [],
      "name": "InvalidPool",
      "type": "error"
    },
    {
      "inputs": [],
      "name": "LockFailure",
      "type": "error"
    },
    {
      "inputs": [],
      "name": "NotPoolManager",
      "type": "error"
    },
    {
      "inputs": [],
      "name": "NotSelf",
      "type": "error"
    },
    {
      "inputs": [],
      "name": "OnlyOneOraclePoolAllowed",
      "type": "error"
    },
    {
      "inputs": [],
      "name": "OracleCardinalityCannotBeZero",
      "type": "error"
    },
    {
      "inputs": [],
      "name": "OraclePoolMustLockLiquidity",
      "type": "error"
    },
    {
      "inputs": [],
      "name": "OraclePositionsMustBeFullRange",
      "type": "error"
    },
    {
      "inputs": [
        {
          "internalType": "uint32",
          "name": "oldestTimestamp",
          "type": "uint32"
        },
        {
          "internalType": "uint32",
          "name": "targetTimestamp",
          "type": "uint32"
        }
      ],
      "name": "TargetPredatesOldestObservation",
      "type": "error"
    },
    {
      "inputs": [
        {
          "internalType": "address",
          "name": "",
          "type": "address"
        },
        {
          "components": [
            {
              "internalType": "Currency",
              "name": "currency0",
              "type": "address"
            },
            {
              "internalType": "Currency",
              "name": "currency1",
              "type": "address"
            },
            {
              "internalType": "uint24",
              "name": "fee",
              "type": "uint24"
            },
            {
              "internalType": "int24",
              "name": "tickSpacing",
              "type": "int24"
            },
            {
              "internalType": "contract IHooks",
              "name": "hooks",
              "type": "address"
            }
          ],
          "internalType": "struct PoolKey",
          "name": "",
          "type": "tuple"
        },
        {
          "internalType": "uint256",
          "name": "",
          "type": "uint256"
        },
        {
          "internalType": "uint256",
          "name": "",
          "type": "uint256"
        },
        {
          "internalType": "bytes",
          "name": "",
          "type": "bytes"
        }
      ],
      "name": "afterDonate",
      "outputs": [
        {
          "internalType": "bytes4",
          "name": "",
          "type": "bytes4"
        }
      ],
      "stateMutability": "nonpayable",
      "type": "function"
    },
    {
      "inputs": [
        {
          "internalType": "address",
          "name": "",
          "type": "address"
        },
        {
          "components": [
            {
              "internalType": "Currency",
              "name": "currency0",
              "type": "address"
            },
            {
              "internalType": "Currency",
              "name": "currency1",
              "type": "address"
            },
            {
              "internalType": "uint24",
              "name": "fee",
              "type": "uint24"
            },
            {
              "internalType": "int24",
              "name": "tickSpacing",
              "type": "int24"
            },
            {
              "internalType": "contract IHooks",
              "name": "hooks",
              "type": "address"
            }
          ],
          "internalType": "struct PoolKey",
          "name": "key",
          "type": "tuple"
        },
        {
          "internalType": "uint160",
          "name": "",
          "type": "uint160"
        },
        {
          "internalType": "int24",
          "name": "",
          "type": "int24"
        },
        {
          "internalType": "bytes",
          "name": "",
          "type": "bytes"
        }
      ],
      "name": "afterInitialize",
      "outputs": [
        {
          "internalType": "bytes4",
          "name": "",
          "type": "bytes4"
        }
      ],
      "stateMutability": "nonpayable",
      "type": "function"
    },
    {
      "inputs": [
        {
          "internalType": "address",
          "name": "",
          "type": "address"
        },
        {
          "components": [
            {
              "internalType": "Currency",
              "name": "currency0",
              "type": "address"
            },
            {
              "internalType": "Currency",
              "name": "currency1",
              "type": "address"
            },
            {
              "internalType": "uint24",
              "name": "fee",
              "type": "uint24"
            },
            {
              "internalType": "int24",
              "name": "tickSpacing",
              "type": "int24"
            },
            {
              "internalType": "contract IHooks",
              "name": "hooks",
              "type": "address"
            }
          ],
          "internalType": "struct PoolKey",
          "name": "",
          "type": "tuple"
        },
        {
          "components": [
            {
              "internalType": "int24",
              "name": "tickLower",
              "type": "int24"
            },
            {
              "internalType": "int24",
              "name": "tickUpper",
              "type": "int24"
            },
            {
              "internalType": "int256",
              "name": "liquidityDelta",
              "type": "int256"
            }
          ],
          "internalType": "struct IPoolManager.ModifyPositionParams",
          "name": "",
          "type": "tuple"
        },
        {
          "internalType": "BalanceDelta",
          "name": "",
          "type": "int256"
        },
        {
          "internalType": "bytes",
          "name": "",
          "type": "bytes"
        }
      ],
      "name": "afterModifyPosition",
      "outputs": [
        {
          "internalType": "bytes4",
          "name": "",
          "type": "bytes4"
        }
      ],
      "stateMutability": "nonpayable",
      "type": "function"
    },
    {
      "inputs": [
        {
          "internalType": "address",
          "name": "",
          "type": "address"
        },
        {
          "components": [
            {
              "internalType": "Currency",
              "name": "currency0",
              "type": "address"
            },
            {
              "internalType": "Currency",
              "name": "currency1",
              "type": "address"
            },
            {
              "internalType": "uint24",
              "name": "fee",
              "type": "uint24"
            },
            {
              "internalType": "int24",
              "name": "tickSpacing",
              "type": "int24"
            },
            {
              "internalType": "contract IHooks",
              "name": "hooks",
              "type": "address"
            }
          ],
          "internalType": "struct PoolKey",
          "name": "",
          "type": "tuple"
        },
        {
          "components": [
            {
              "internalType": "bool",
              "name": "zeroForOne",
              "type": "bool"
            },
            {
              "internalType": "int256",
              "name": "amountSpecified",
              "type": "int256"
            },
            {
              "internalType": "uint160",
              "name": "sqrtPriceLimitX96",
              "type": "uint160"
            }
          ],
          "internalType": "struct IPoolManager.SwapParams",
          "name": "",
          "type": "tuple"
        },
        {
          "internalType": "BalanceDelta",
          "name": "",
          "type": "int256"
        },
        {
          "internalType": "bytes",
          "name": "",
          "type": "bytes"
        }
      ],
      "name": "afterSwap",
      "outputs": [
        {
          "internalType": "bytes4",
          "name": "",
          "type": "bytes4"
        }
      ],
      "stateMutability": "nonpayable",
      "type": "function"
    },
    {
      "inputs": [
        {
          "internalType": "address",
          "name": "",
          "type": "address"
        },
        {
          "components": [
            {
              "internalType": "Currency",
              "name": "currency0",
              "type": "address"
            },
            {
              "internalType": "Currency",
              "name": "currency1",
              "type": "address"
            },
            {
              "internalType": "uint24",
              "name": "fee",
              "type": "uint24"
            },
            {
              "internalType": "int24",
              "name": "tickSpacing",
              "type": "int24"
            },
            {
              "internalType": "contract IHooks",
              "name": "hooks",
              "type": "address"
            }
          ],
          "internalType": "struct PoolKey",
          "name": "",
          "type": "tuple"
        },
        {
          "internalType": "uint256",
          "name": "",
          "type": "uint256"
        },
        {
          "internalType": "uint256",
          "name": "",
          "type": "uint256"
        },
        {
          "internalType": "bytes",
          "name": "",
          "type": "bytes"
        }
      ],
      "name": "beforeDonate",
      "outputs": [
        {
          "internalType": "bytes4",
          "name": "",
          "type": "bytes4"
        }
      ],
      "stateMutability": "nonpayable",
      "type": "function"
    },
    {
      "inputs": [
        {
          "internalType": "address",
          "name": "",
          "type": "address"
        },
        {
          "components": [
            {
              "internalType": "Currency",
              "name": "currency0",
              "type": "address"
            },
            {
              "internalType": "Currency",
              "name": "currency1",
              "type": "address"
            },
            {
              "internalType": "uint24",
              "name": "fee",
              "type": "uint24"
            },
            {
              "internalType": "int24",
              "name": "tickSpacing",
              "type": "int24"
            },
            {
              "internalType": "contract IHooks",
              "name": "hooks",
              "type": "address"
            }
          ],
          "internalType": "struct PoolKey",
          "name": "key",
          "type": "tuple"
        },
        {
          "internalType": "uint160",
          "name": "",
          "type": "uint160"
        },
        {
          "internalType": "bytes",
          "name": "",
          "type": "bytes"
        }
      ],
      "name": "beforeInitialize",
      "outputs": [
        {
          "internalType": "bytes4",
          "name": "",
          "type": "bytes4"
        }
      ],
      "stateMutability": "view",
      "type": "function"
    },
    {
      "inputs": [
        {
          "internalType": "address",
          "name": "",
          "type": "address"
        },
        {
          "components": [
            {
              "internalType": "Currency",
              "name": "currency0",
              "type": "address"
            },
            {
              "internalType": "Currency",
              "name": "currency1",
              "type": "address"
            },
            {
              "internalType": "uint24",
              "name": "fee",
              "type": "uint24"
            },
            {
              "internalType": "int24",
              "name": "tickSpacing",
              "type": "int24"
            },
            {
              "internalType": "contract IHooks",
              "name": "hooks",
              "type": "address"
            }
          ],
          "internalType": "struct PoolKey",
          "name": "key",
          "type": "tuple"
        },
        {
          "components": [
            {
              "internalType": "int24",
              "name": "tickLower",
              "type": "int24"
            },
            {
              "internalType": "int24",
              "name": "tickUpper",
              "type": "int24"
            },
            {
              "internalType": "int256",
              "name": "liquidityDelta",
              "type": "int256"
            }
          ],
          "internalType": "struct IPoolManager.ModifyPositionParams",
          "name": "params",
          "type": "tuple"
        },
        {
          "internalType": "bytes",
          "name": "",
          "type": "bytes"
        }
      ],
      "name": "beforeModifyPosition",
      "outputs": [
        {
          "internalType": "bytes4",
          "name": "",
          "type": "bytes4"
        }
      ],
      "stateMutability": "nonpayable",
      "type": "function"
    },
    {
      "inputs": [
        {
          "internalType": "address",
          "name": "",
          "type": "address"
        },
        {
          "components": [
            {
              "internalType": "Currency",
              "name": "currency0",
              "type": "address"
            },
            {
              "internalType": "Currency",
              "name": "currency1",
              "type": "address"
            },
            {
              "internalType": "uint24",
              "name": "fee",
              "type": "uint24"
            },
            {
              "internalType": "int24",
              "name": "tickSpacing",
              "type": "int24"
            },
            {
              "internalType": "contract IHooks",
              "name": "hooks",
              "type": "address"
            }
          ],
          "internalType": "struct PoolKey",
          "name": "key",
          "type": "tuple"
        },
        {
          "components": [
            {
              "internalType": "bool",
              "name": "zeroForOne",
              "type": "bool"
            },
            {
              "internalType": "int256",
              "name": "amountSpecified",
              "type": "int256"
            },
            {
              "internalType": "uint160",
              "name": "sqrtPriceLimitX96",
              "type": "uint160"
            }
          ],
          "internalType": "struct IPoolManager.SwapParams",
          "name": "",
          "type": "tuple"
        },
        {
          "internalType": "bytes",
          "name": "",
          "type": "bytes"
        }
      ],
      "name": "beforeSwap",
      "outputs": [
        {
          "internalType": "bytes4",
          "name": "",
          "type": "bytes4"
        }
      ],
      "stateMutability": "nonpayable",
      "type": "function"
    },
    {
      "inputs": [],
      "name": "getHooksCalls",
      "outputs": [
        {
          "components": [
            {
              "internalType": "bool",
              "name": "beforeInitialize",
              "type": "bool"
            },
            {
              "internalType": "bool",
              "name": "afterInitialize",
              "type": "bool"
            },
            {
              "internalType": "bool",
              "name": "beforeModifyPosition",
              "type": "bool"
            },
            {
              "internalType": "bool",
              "name": "afterModifyPosition",
              "type": "bool"
            },
            {
              "internalType": "bool",
              "name": "beforeSwap",
              "type": "bool"
            },
            {
              "internalType": "bool",
              "name": "afterSwap",
              "type": "bool"
            },
            {
              "internalType": "bool",
              "name": "beforeDonate",
              "type": "bool"
            },
            {
              "internalType": "bool",
              "name": "afterDonate",
              "type": "bool"
            }
          ],
          "internalType": "struct Hooks.Calls",
          "name": "",
          "type": "tuple"
        }
      ],
      "stateMutability": "pure",
      "type": "function"
    },
    {
      "inputs": [
        {
          "components": [
            {
              "internalType": "Currency",
              "name": "currency0",
              "type": "address"
            },
            {
              "internalType": "Currency",
              "name": "currency1",
              "type": "address"
            },
            {
              "internalType": "uint24",
              "name": "fee",
              "type": "uint24"
            },
            {
              "internalType": "int24",
              "name": "tickSpacing",
              "type": "int24"
            },
            {
              "internalType": "contract IHooks",
              "name": "hooks",
              "type": "address"
            }
          ],
          "internalType": "struct PoolKey",
          "name": "key",
          "type": "tuple"
        },
        {
          "internalType": "uint256",
          "name": "index",
          "type": "uint256"
        }
      ],
      "name": "getObservation",
      "outputs": [
        {
          "components": [
            {
              "internalType": "uint32",
              "name": "blockTimestamp",
              "type": "uint32"
            },
            {
              "internalType": "int56",
              "name": "tickCumulative",
              "type": "int56"
            },
            {
              "internalType": "uint160",
              "name": "secondsPerLiquidityCumulativeX128",
              "type": "uint160"
            },
            {
              "internalType": "bool",
              "name": "initialized",
              "type": "bool"
            }
          ],
          "internalType": "struct Oracle.Observation",
          "name": "observation",
          "type": "tuple"
        }
      ],
      "stateMutability": "view",
      "type": "function"
    },
    {
      "inputs": [
        {
          "components": [
            {
              "internalType": "Currency",
              "name": "currency0",
              "type": "address"
            },
            {
              "internalType": "Currency",
              "name": "currency1",
              "type": "address"
            },
            {
              "internalType": "uint24",
              "name": "fee",
              "type": "uint24"
            },
            {
              "internalType": "int24",
              "name": "tickSpacing",
              "type": "int24"
            },
            {
              "internalType": "contract IHooks",
              "name": "hooks",
              "type": "address"
            }
          ],
          "internalType": "struct PoolKey",
          "name": "key",
          "type": "tuple"
        }
      ],
      "name": "getState",
      "outputs": [
        {
          "components": [
            {
              "internalType": "uint16",
              "name": "index",
              "type": "uint16"
            },
            {
              "internalType": "uint16",
              "name": "cardinality",
              "type": "uint16"
            },
            {
              "internalType": "uint16",
              "name": "cardinalityNext",
              "type": "uint16"
            }
          ],
          "internalType": "struct GeomeanOracle.ObservationState",
          "name": "state",
          "type": "tuple"
        }
      ],
      "stateMutability": "view",
      "type": "function"
    },
    {
      "inputs": [
        {
          "components": [
            {
              "internalType": "Currency",
              "name": "currency0",
              "type": "address"
            },
            {
              "internalType": "Currency",
              "name": "currency1",
              "type": "address"
            },
            {
              "internalType": "uint24",
              "name": "fee",
              "type": "uint24"
            },
            {
              "internalType": "int24",
              "name": "tickSpacing",
              "type": "int24"
            },
            {
              "internalType": "contract IHooks",
              "name": "hooks",
              "type": "address"
            }
          ],
          "internalType": "struct PoolKey",
          "name": "key",
          "type": "tuple"
        },
        {
          "internalType": "uint16",
          "name": "cardinalityNext",
          "type": "uint16"
        }
      ],
      "name": "increaseCardinalityNext",
      "outputs": [
        {
          "internalType": "uint16",
          "name": "cardinalityNextOld",
          "type": "uint16"
        },
        {
          "internalType": "uint16",
          "name": "cardinalityNextNew",
          "type": "uint16"
        }
      ],
      "stateMutability": "nonpayable",
      "type": "function"
    },
    {
      "inputs": [
        {
          "internalType": "bytes",
          "name": "data",
          "type": "bytes"
        }
      ],
      "name": "lockAcquired",
      "outputs": [
        {
          "internalType": "bytes",
          "name": "",
          "type": "bytes"
        }
      ],
      "stateMutability": "nonpayable",
      "type": "function"
    },
    {
      "inputs": [
        {
          "internalType": "PoolId",
          "name": "",
          "type": "bytes32"
        },
        {
          "internalType": "uint256",
          "name": "",
          "type": "uint256"
        }
      ],
      "name": "observations",
      "outputs": [
        {
          "internalType": "uint32",
          "name": "blockTimestamp",
          "type": "uint32"
        },
        {
          "internalType": "int56",
          "name": "tickCumulative",
          "type": "int56"
        },
        {
          "internalType": "uint160",
          "name": "secondsPerLiquidityCumulativeX128",
          "type": "uint160"
        },
        {
          "internalType": "bool",
          "name": "initialized",
          "type": "bool"
        }
      ],
      "stateMutability": "view",
      "type": "function"
    },
    {
      "inputs": [
        {
          "components": [
            {
              "internalType": "Currency",
              "name": "currency0",
              "type": "address"
            },
            {
              "internalType": "Currency",
              "name": "currency1",
              "type": "address"
            },
            {
              "internalType": "uint24",
              "name": "fee",
              "type": "uint24"
            },
            {
              "internalType": "int24",
              "name": "tickSpacing",
              "type": "int24"
            },
            {
              "internalType": "contract IHooks",
              "name": "hooks",
              "type": "address"
            }
          ],
          "internalType": "struct PoolKey",
          "name": "key",
          "type": "tuple"
        },
        {
          "internalType": "uint32[]",
          "name": "secondsAgos",
          "type": "uint32[]"
        }
      ],
      "name": "observe",
      "outputs": [
        {
          "internalType": "int56[]",
          "name": "tickCumulatives",
          "type": "int56[]"
        },
        {
          "internalType": "uint160[]",
          "name": "secondsPerLiquidityCumulativeX128s",
          "type": "uint160[]"
        }
      ],
      "stateMutability": "view",
      "type": "function"
    },
    {
      "inputs": [],
      "name": "poolManager",
      "outputs": [
        {
          "internalType": "contract IPoolManager",
          "name": "",
          "type": "address"
        }
      ],
      "stateMutability": "view",
      "type": "function"
    },
    {
      "inputs": [
        {
          "internalType": "PoolId",
          "name": "",
          "type": "bytes32"
        }
      ],
      "name": "states",
      "outputs": [
        {
          "internalType": "uint16",
          "name": "index",
          "type": "uint16"
        },
        {
          "internalType": "uint16",
          "name": "cardinality",
          "type": "uint16"
        },
        {
          "internalType": "uint16",
          "name": "cardinalityNext",
          "type": "uint16"
        }
      ],
      "stateMutability": "view",
      "type": "function"
    }
  ],
  "bytecode": "0x60a06040523480156200001157600080fd5b506040516200413238038062004132833981810160405281019062000037919062000506565b808073ffffffffffffffffffffffffffffffffffffffff1660808173ffffffffffffffffffffffffffffffffffffffff16815250506200007d306200008560201b60201c565b505062000566565b620000a6816200009a620000a960201b60201c565b6200010a60201b60201c565b50565b620000b362000433565b60405180610100016040528060011515815260200160011515815260200160011515815260200160001515815260200160011515815260200160001515815260200160001515815260200160001515815250905090565b6200011b826200026b60201b60201c565b1515816000015115151415806200014a57506200013e82620002a460201b60201c565b15158160200151151514155b806200016e57506200016282620002dd60201b60201c565b15158160400151151514155b8062000192575062000186826200031660201b60201c565b15158160600151151514155b80620001b65750620001aa826200034f60201b60201c565b15158160800151151514155b80620001da5750620001ce826200038860201b60201c565b15158160a00151151514155b80620001fe5750620001f282620003c160201b60201c565b15158160c00151151514155b806200022257506200021682620003fa60201b60201c565b15158160e00151151514155b156200026757816040517fe65af6a00000000000000000000000000000000000000000000000000000000081526004016200025e919062000549565b60405180910390fd5b5050565b6000807380000000000000000000000000000000000000008373ffffffffffffffffffffffffffffffffffffffff161614159050919050565b6000807340000000000000000000000000000000000000008373ffffffffffffffffffffffffffffffffffffffff161614159050919050565b6000807320000000000000000000000000000000000000008373ffffffffffffffffffffffffffffffffffffffff161614159050919050565b6000807310000000000000000000000000000000000000008373ffffffffffffffffffffffffffffffffffffffff161614159050919050565b6000807308000000000000000000000000000000000000008373ffffffffffffffffffffffffffffffffffffffff161614159050919050565b6000807304000000000000000000000000000000000000008373ffffffffffffffffffffffffffffffffffffffff161614159050919050565b6000807302000000000000000000000000000000000000008373ffffffffffffffffffffffffffffffffffffffff161614159050919050565b6000807301000000000000000000000000000000000000008373ffffffffffffffffffffffffffffffffffffffff161614159050919050565b6040518061010001604052806000151581526020016000151581526020016000151581526020016000151581526020016000151581526020016000151581526020016000151581526020016000151581525090565b600080fd5b600073ffffffffffffffffffffffffffffffffffffffff82169050919050565b6000620004ba826200048d565b9050919050565b6000620004ce82620004ad565b9050919050565b620004e081620004c1565b8114620004ec57600080fd5b50565b6000815190506200050081620004d5565b92915050565b6000602082840312156200051f576200051e62000488565b5b60006200052f84828501620004ef565b91505092915050565b6200054381620004ad565b82525050565b600060208201905062000560600083018462000538565b92915050565b608051613b63620005cf6000396000818161045b01528181610502015281816105f9015281816107a5015281816108f101528181610aa801528181610dfd01528181610e9e0152818161101e015281816110e40152818161123701526112d80152613b636000f3fe608060405234801561001057600080fd5b506004361061010b5760003560e01c8063b6a8b0fa116100a2578063e3b077a111610071578063e3b077a114610330578063efb40e5714610360578063f96f97f214610390578063fbdc1ef1146103c1578063fe9a6f45146103f35761010b565b8063b6a8b0fa1461027f578063dc4c90d3146102af578063dd71cea8146102cd578063e1b4af69146103005761010b565b80638f1c9217116100de5780638f1c9217146101be578063a910f80f146101ef578063ab6291fe1461021f578063b47b2fb11461024f5761010b565b806330b7cdef146101105780633440d82014610140578063575e24b414610170578063612c39b7146101a0575b600080fd5b61012a6004803603810190610125919061274c565b610423565b6040516101379190612824565b60405180910390f35b61015a6004803603810190610155919061286b565b610457565b6040516101679190612824565b60405180910390f35b61018a60048036038101906101859190612913565b6105f5565b6040516101979190612824565b60405180910390f35b6101a8610698565b6040516101b59190612a5a565b60405180910390f35b6101d860048036038101906101d39190612ab0565b6106f7565b6040516101e6929190612aff565b60405180910390f35b61020960048036038101906102049190612b61565b6107a1565b6040516102169190612824565b60405180910390f35b61023960048036038101906102349190612bfd565b6108ed565b6040516102469190612cda565b60405180910390f35b61026960048036038101906102649190612cfc565b610a3e565b6040516102769190612824565b60405180910390f35b61029960048036038101906102949190612dcf565b610a72565b6040516102a69190612824565b60405180910390f35b6102b7610aa6565b6040516102c49190612eca565b60405180910390f35b6102e760048036038101906102e29190612f1b565b610aca565b6040516102f79493929190612fb4565b60405180910390f35b61031a60048036038101906103159190612dcf565b610b55565b6040516103279190612824565b60405180910390f35b61034a60048036038101906103459190612ff9565b610b89565b6040516103579190613077565b60405180910390f35b61037a60048036038101906103759190613092565b610c3c565b6040516103879190613154565b60405180910390f35b6103aa60048036038101906103a591906131c5565b610d57565b6040516103b8929190613383565b60405180910390f35b6103db60048036038101906103d691906133ba565b610fc6565b6040516103ea939291906133e7565b60405180910390f35b61040d6004803603810190610408919061341e565b61101a565b60405161041a9190612824565b60405180910390f35b60006040517f0a85dc2900000000000000000000000000000000000000000000000000000000815260040160405180910390fd5b60007f000000000000000000000000000000000000000000000000000000000000000073ffffffffffffffffffffffffffffffffffffffff163373ffffffffffffffffffffffffffffffffffffffff16146104de576040517fae18210a00000000000000000000000000000000000000000000000000000000815260040160405180910390fd5b60008560400160208101906104f391906134e3565b62ffffff161415806105ab57507f000000000000000000000000000000000000000000000000000000000000000073ffffffffffffffffffffffffffffffffffffffff166360460f066040518163ffffffff1660e01b8152600401602060405180830381865afa15801561056b573d6000803e3d6000fd5b505050506040513d601f19601f8201168201806040525081019061058f9190613525565b60020b8560600160208101906105a59190613552565b60020b14155b156105e2576040517fc424964a00000000000000000000000000000000000000000000000000000000815260040160405180910390fd5b633440d82060e01b905095945050505050565b60007f000000000000000000000000000000000000000000000000000000000000000073ffffffffffffffffffffffffffffffffffffffff163373ffffffffffffffffffffffffffffffffffffffff161461067c576040517fae18210a00000000000000000000000000000000000000000000000000000000815260040160405180910390fd5b61068585611216565b63575e24b460e01b905095945050505050565b6106a0612531565b60405180610100016040528060011515815260200160011515815260200160011515815260200160001515815260200160011515815260200160001515815260200160001515815260200160001515815250905090565b60008060008460405160200161070d9190613735565b60405160208183030381529060405280519060200120905060006001600083815260200190815260200160002090508060000160049054906101000a900461ffff16935061077784866000808681526020019081526020016000206114819092919063ffffffff16565b9250828160000160046101000a81548161ffff021916908361ffff16021790555050509250929050565b60007f000000000000000000000000000000000000000000000000000000000000000073ffffffffffffffffffffffffffffffffffffffff163373ffffffffffffffffffffffffffffffffffffffff1614610828576040517fae18210a00000000000000000000000000000000000000000000000000000000815260040160405180910390fd5b60006108438780360381019061083e919061385c565b611542565b9050610870610850611572565b60008084815260200190815260200160002061157a90919063ffffffff16565b6001600084815260200190815260200160002060000160026001600086815260200190815260200160002060000160048491906101000a81548161ffff021916908361ffff1602179055508391906101000a81548161ffff021916908361ffff160217905550505063a910f80f60e01b9150509695505050505050565b60607f000000000000000000000000000000000000000000000000000000000000000073ffffffffffffffffffffffffffffffffffffffff163373ffffffffffffffffffffffffffffffffffffffff1614610974576040517fae18210a00000000000000000000000000000000000000000000000000000000815260040160405180910390fd5b6000803073ffffffffffffffffffffffffffffffffffffffff16858560405161099e9291906138c8565b6000604051808303816000865af19150503d80600081146109db576040519150601f19603f3d011682016040523d82523d6000602084013e6109e0565b606091505b509150915081156109f5578092505050610a38565b6000815103610a30576040517fa40afa3800000000000000000000000000000000000000000000000000000000815260040160405180910390fd5b805160208201fd5b92915050565b60006040517f0a85dc2900000000000000000000000000000000000000000000000000000000815260040160405180910390fd5b60006040517f0a85dc2900000000000000000000000000000000000000000000000000000000815260040160405180910390fd5b7f000000000000000000000000000000000000000000000000000000000000000081565b60006020528160005260406000208161ffff8110610ae757600080fd5b01600091509150508060000160009054906101000a900463ffffffff16908060000160049054906101000a900460060b9080600001600b9054906101000a900473ffffffffffffffffffffffffffffffffffffffff169080600001601f9054906101000a900460ff16905084565b60006040517f0a85dc2900000000000000000000000000000000000000000000000000000000815260040160405180910390fd5b610b91612586565b6001600083604051602001610ba69190613735565b6040516020818303038152906040528051906020012081526020019081526020016000206040518060600160405290816000820160009054906101000a900461ffff1661ffff1661ffff1681526020016000820160029054906101000a900461ffff1661ffff1661ffff1681526020016000820160049054906101000a900461ffff1661ffff1661ffff16815250509050919050565b610c446125b3565b60008084604051602001610c589190613735565b6040516020818303038152906040528051906020012081526020019081526020016000208261ffff8110610c8f57610c8e6138e1565b5b016040518060800160405290816000820160009054906101000a900463ffffffff1663ffffffff1663ffffffff1681526020016000820160049054906101000a900460060b60060b60060b815260200160008201600b9054906101000a900473ffffffffffffffffffffffffffffffffffffffff1673ffffffffffffffffffffffffffffffffffffffff1673ffffffffffffffffffffffffffffffffffffffff16815260200160008201601f9054906101000a900460ff161515151581525050905092915050565b6060806000610d7586803603810190610d70919061385c565b611542565b90506000600160008381526020019081526020016000206040518060600160405290816000820160009054906101000a900461ffff1661ffff1661ffff1681526020016000820160029054906101000a900461ffff1661ffff1661ffff1681526020016000820160049054906101000a900461ffff1661ffff1661ffff1681525050905060007f000000000000000000000000000000000000000000000000000000000000000073ffffffffffffffffffffffffffffffffffffffff1663c815641c846040518263ffffffff1660e01b8152600401610e549190613931565b608060405180830381865afa158015610e71573d6000803e3d6000fd5b505050506040513d601f19601f82011682018060405250810190610e959190613976565b505091505060007f000000000000000000000000000000000000000000000000000000000000000073ffffffffffffffffffffffffffffffffffffffff1663fa6793d5856040518263ffffffff1660e01b8152600401610ef59190613931565b602060405180830381865afa158015610f12573d6000803e3d6000fd5b505050506040513d601f19601f82011682018060405250810190610f369190613a25565b9050610fb6610f43611572565b898980806020026020016040519081016040528093929190818152602001838360200280828437600081840152601f19601f820116905080830192505050505050508486600001518588602001516000808c81526020019081526020016000206116a7909695949392919063ffffffff16565b9550955050505050935093915050565b60016020528060005260406000206000915090508060000160009054906101000a900461ffff16908060000160029054906101000a900461ffff16908060000160049054906101000a900461ffff16905083565b60007f000000000000000000000000000000000000000000000000000000000000000073ffffffffffffffffffffffffffffffffffffffff163373ffffffffffffffffffffffffffffffffffffffff16146110a1576040517fae18210a00000000000000000000000000000000000000000000000000000000815260040160405180910390fd5b6000846040013512156110e0576040517fc7e87ced00000000000000000000000000000000000000000000000000000000815260040160405180910390fd5b60007f000000000000000000000000000000000000000000000000000000000000000073ffffffffffffffffffffffffffffffffffffffff166360460f066040518163ffffffff1660e01b8152600401602060405180830381865afa15801561114d573d6000803e3d6000fd5b505050506040513d601f19601f820116820180604052508101906111719190613525565b905061117c8161183f565b60020b8560000160208101906111929190613552565b60020b1415806111c257506111a681611881565b60020b8560200160208101906111bc9190613552565b60020b14155b156111f9576040517fd07a010d00000000000000000000000000000000000000000000000000000000815260040160405180910390fd5b61120286611216565b63fe9a6f4560e01b91505095945050505050565b60006112318280360381019061122c919061385c565b611542565b905060007f000000000000000000000000000000000000000000000000000000000000000073ffffffffffffffffffffffffffffffffffffffff1663c815641c836040518263ffffffff1660e01b815260040161128e9190613931565b608060405180830381865afa1580156112ab573d6000803e3d6000fd5b505050506040513d601f19601f820116820180604052508101906112cf9190613976565b505091505060007f000000000000000000000000000000000000000000000000000000000000000073ffffffffffffffffffffffffffffffffffffffff1663fa6793d5846040518263ffffffff1660e01b815260040161132f9190613931565b602060405180830381865afa15801561134c573d6000803e3d6000fd5b505050506040513d601f19601f820116820180604052508101906113709190613a25565b90506114136001600085815260200190815260200160002060000160009054906101000a900461ffff166113a2611572565b84846001600089815260200190815260200160002060000160029054906101000a900461ffff16600160008a815260200190815260200160002060000160049054906101000a900461ffff166000808b81526020019081526020016000206118c6909695949392919063ffffffff16565b6001600086815260200190815260200160002060000160006001600088815260200190815260200160002060000160028491906101000a81548161ffff021916908361ffff1602179055508391906101000a81548161ffff021916908361ffff160217905550505050505050565b6000808361ffff16036114c0576040517fab7760cc00000000000000000000000000000000000000000000000000000000815260040160405180910390fd5b8261ffff168261ffff16116114d75782905061153b565b60008390505b8261ffff168161ffff161015611536576001858261ffff1661ffff8110611507576115066138e1565b5b0160000160006101000a81548163ffffffff021916908363ffffffff16021790555080806001019150506114dd565b508190505b9392505050565b6000816040516020016115559190613aba565b604051602081830303815290604052805190602001209050919050565b600042905090565b60008060405180608001604052808463ffffffff168152602001600060060b8152602001600073ffffffffffffffffffffffffffffffffffffffff1681526020016001151581525084600061ffff81106115d7576115d66138e1565b5b0160008201518160000160006101000a81548163ffffffff021916908363ffffffff16021790555060208201518160000160046101000a81548166ffffffffffffff021916908360060b66ffffffffffffff160217905550604082015181600001600b6101000a81548173ffffffffffffffffffffffffffffffffffffffff021916908373ffffffffffffffffffffffffffffffffffffffff160217905550606082015181600001601f6101000a81548160ff021916908315150217905550905050600180915091509250929050565b60608060008361ffff16036116e8576040517fab7760cc00000000000000000000000000000000000000000000000000000000815260040160405180910390fd5b865167ffffffffffffffff81111561170357611702613755565b5b6040519080825280602002602001820160405280156117315781602001602082028036833780820191505090505b509150865167ffffffffffffffff81111561174f5761174e613755565b5b60405190808252806020026020018201604052801561177d5781602001602082028036833780820191505090505b50905060005b8751811015611832576117b58a8a8a84815181106117a4576117a36138e1565b5b60200260200101518a8a8a8a611b0c565b8483815181106117c8576117c76138e1565b5b602002602001018484815181106117e2576117e16138e1565b5b602002602001018273ffffffffffffffffffffffffffffffffffffffff1673ffffffffffffffffffffffffffffffffffffffff168152508260060b60060b81525050508080600101915050611783565b5097509795505050505050565b6000818260020b7ffffffffffffffffffffffffffffffffffffffffffffffffffffffffffff2761860020b8161187857611877613ad5565b5b05029050919050565b6000818260020b7ffffffffffffffffffffffffffffffffffffffffffffffffffffffffffff2761860000360020b816118bd576118bc613ad5565b5b05029050919050565b6000806000898961ffff1661ffff81106118e3576118e26138e1565b5b016040518060800160405290816000820160009054906101000a900463ffffffff1663ffffffff1663ffffffff1681526020016000820160049054906101000a900460060b60060b60060b815260200160008201600b9054906101000a900473ffffffffffffffffffffffffffffffffffffffff1673ffffffffffffffffffffffffffffffffffffffff1673ffffffffffffffffffffffffffffffffffffffff16815260200160008201601f9054906101000a900460ff16151515158152505090508763ffffffff16816000015163ffffffff16036119c85788859250925050611b00565b8461ffff168461ffff161180156119e957506001850361ffff168961ffff16145b156119f6578391506119fa565b8491505b8161ffff1660018a0161ffff1681611a1557611a14613ad5565b5b069250611a2481898989611d54565b8a8461ffff1661ffff8110611a3c57611a3b6138e1565b5b0160008201518160000160006101000a81548163ffffffff021916908363ffffffff16021790555060208201518160000160046101000a81548166ffffffffffffff021916908360060b66ffffffffffffff160217905550604082015181600001600b6101000a81548173ffffffffffffffffffffffffffffffffffffffff021916908373ffffffffffffffffffffffffffffffffffffffff160217905550606082015181600001601f6101000a81548160ff021916908315150217905550905050505b97509795505050505050565b60008060008763ffffffff1603611c33576000898661ffff1661ffff8110611b3757611b366138e1565b5b016040518060800160405290816000820160009054906101000a900463ffffffff1663ffffffff1663ffffffff1681526020016000820160049054906101000a900460060b60060b60060b815260200160008201600b9054906101000a900473ffffffffffffffffffffffffffffffffffffffff1673ffffffffffffffffffffffffffffffffffffffff1673ffffffffffffffffffffffffffffffffffffffff16815260200160008201601f9054906101000a900460ff16151515158152505090508863ffffffff16816000015163ffffffff1614611c1f57611c1c818a8988611d54565b90505b806020015181604001519250925050611d48565b60008789039050600080611c4c8c8c858c8c8c8c611e46565b91509150816000015163ffffffff168363ffffffff1603611c7d578160200151826040015194509450505050611d48565b806000015163ffffffff168363ffffffff1603611caa578060200151816040015194509450505050611d48565b60008260000151826000015103905060008360000151850390508063ffffffff168263ffffffff1660060b856020015185602001510360060b81611cf157611cf0613ad5565b5b05028460200151018263ffffffff168263ffffffff16866040015186604001510373ffffffffffffffffffffffffffffffffffffffff160281611d3757611d36613ad5565b5b048560400151019650965050505050505b97509795505050505050565b611d5c6125b3565b600085600001518503905060405180608001604052808663ffffffff1681526020018263ffffffff168660020b0288602001510160060b81526020016000856fffffffffffffffffffffffffffffffff1611611db9576001611dbb565b845b6fffffffffffffffffffffffffffffffff1660808463ffffffff1673ffffffffffffffffffffffffffffffffffffffff16901b73ffffffffffffffffffffffffffffffffffffffff1681611e1257611e11613ad5565b5b0488604001510173ffffffffffffffffffffffffffffffffffffffff16815260200160011515815250915050949350505050565b611e4e6125b3565b611e566125b3565b888561ffff1661ffff8110611e6e57611e6d6138e1565b5b016040518060800160405290816000820160009054906101000a900463ffffffff1663ffffffff1663ffffffff1681526020016000820160049054906101000a900460060b60060b60060b815260200160008201600b9054906101000a900473ffffffffffffffffffffffffffffffffffffffff1673ffffffffffffffffffffffffffffffffffffffff1673ffffffffffffffffffffffffffffffffffffffff16815260200160008201601f9054906101000a900460ff1615151515815250509150611f3f888360000151896121bc565b15611f72578663ffffffff16826000015163ffffffff1603156121b05781611f6983898988611d54565b915091506121b0565b888361ffff166001870161ffff1681611f8e57611f8d613ad5565b5b0661ffff1661ffff8110611fa557611fa46138e1565b5b016040518060800160405290816000820160009054906101000a900463ffffffff1663ffffffff1663ffffffff1681526020016000820160049054906101000a900460060b60060b60060b815260200160008201600b9054906101000a900473ffffffffffffffffffffffffffffffffffffffff1673ffffffffffffffffffffffffffffffffffffffff1673ffffffffffffffffffffffffffffffffffffffff16815260200160008201601f9054906101000a900460ff161515151581525050915081606001516121485788600061ffff8110612085576120846138e1565b5b016040518060800160405290816000820160009054906101000a900463ffffffff1663ffffffff1663ffffffff1681526020016000820160049054906101000a900460060b60060b60060b815260200160008201600b9054906101000a900473ffffffffffffffffffffffffffffffffffffffff1673ffffffffffffffffffffffffffffffffffffffff1673ffffffffffffffffffffffffffffffffffffffff16815260200160008201601f9054906101000a900460ff16151515158152505091505b612157888360000151896121bc565b61219e578160000151876040517f28e44dc0000000000000000000000000000000000000000000000000000000008152600401612195929190613b04565b60405180910390fd5b6121ab8989898887612284565b915091505b97509795505050505050565b60008363ffffffff168363ffffffff16111580156121e657508363ffffffff168263ffffffff1611155b15612202578163ffffffff168363ffffffff161115905061227d565b60008463ffffffff168463ffffffff161161222a576401000000008463ffffffff1601612232565b8363ffffffff165b64ffffffffff16905060008563ffffffff168463ffffffff1611612263576401000000008463ffffffff160161226b565b8363ffffffff165b64ffffffffff16905080821115925050505b9392505050565b61228c6125b3565b6122946125b3565b60008361ffff166001860161ffff16816122b1576122b0613ad5565b5b0661ffff169050600060018561ffff16830103905060005b600115612524576002828401816122e3576122e2613ad5565b5b049050898661ffff1682816122fb576122fa613ad5565b5b0661ffff811061230e5761230d6138e1565b5b016040518060800160405290816000820160009054906101000a900463ffffffff1663ffffffff1663ffffffff1681526020016000820160049054906101000a900460060b60060b60060b815260200160008201600b9054906101000a900473ffffffffffffffffffffffffffffffffffffffff1673ffffffffffffffffffffffffffffffffffffffff1673ffffffffffffffffffffffffffffffffffffffff16815260200160008201601f9054906101000a900460ff161515151581525050945084606001516123e4576001810192506122c9565b898661ffff1660018301816123fc576123fb613ad5565b5b0661ffff811061240f5761240e6138e1565b5b016040518060800160405290816000820160009054906101000a900463ffffffff1663ffffffff1663ffffffff1681526020016000820160049054906101000a900460060b60060b60060b815260200160008201600b9054906101000a900473ffffffffffffffffffffffffffffffffffffffff1673ffffffffffffffffffffffffffffffffffffffff1673ffffffffffffffffffffffffffffffffffffffff16815260200160008201601f9054906101000a900460ff161515151581525050935060006124e28a87600001518b6121bc565b90508080156124fc57506124fb8a8a87600001516121bc565b5b156125075750612524565b806125175760018203925061251e565b6001820193505b506122c9565b5050509550959350505050565b6040518061010001604052806000151581526020016000151581526020016000151581526020016000151581526020016000151581526020016000151581526020016000151581526020016000151581525090565b6040518060600160405280600061ffff168152602001600061ffff168152602001600061ffff1681525090565b6040518060800160405280600063ffffffff168152602001600060060b8152602001600073ffffffffffffffffffffffffffffffffffffffff1681526020016000151581525090565b6000604051905090565b600080fd5b600080fd5b600073ffffffffffffffffffffffffffffffffffffffff82169050919050565b600061263b82612610565b9050919050565b61264b81612630565b811461265657600080fd5b50565b60008135905061266881612642565b92915050565b600080fd5b600060a082840312156126895761268861266e565b5b81905092915050565b6000606082840312156126a8576126a761266e565b5b81905092915050565b6000819050919050565b6126c4816126b1565b81146126cf57600080fd5b50565b6000813590506126e1816126bb565b92915050565b600080fd5b600080fd5b600080fd5b60008083601f84011261270c5761270b6126e7565b5b8235905067ffffffffffffffff811115612729576127286126ec565b5b602083019150836001820283011115612745576127446126f1565b5b9250929050565b600080600080600080610160878903121561276a57612769612606565b5b600061277889828a01612659565b965050602061278989828a01612673565b95505060c061279a89828a01612692565b9450506101206127ac89828a016126d2565b93505061014087013567ffffffffffffffff8111156127ce576127cd61260b565b5b6127da89828a016126f6565b92509250509295509295509295565b60007fffffffff0000000000000000000000000000000000000000000000000000000082169050919050565b61281e816127e9565b82525050565b60006020820190506128396000830184612815565b92915050565b61284881612610565b811461285357600080fd5b50565b6000813590506128658161283f565b92915050565b6000806000806000610100868803121561288857612887612606565b5b600061289688828901612659565b95505060206128a788828901612673565b94505060c06128b888828901612856565b93505060e086013567ffffffffffffffff8111156128d9576128d861260b565b5b6128e5888289016126f6565b92509250509295509295909350565b60006060828403121561290a5761290961266e565b5b81905092915050565b600080600080600061014086880312156129305761292f612606565b5b600061293e88828901612659565b955050602061294f88828901612673565b94505060c0612960888289016128f4565b93505061012086013567ffffffffffffffff8111156129825761298161260b565b5b61298e888289016126f6565b92509250509295509295909350565b60008115159050919050565b6129b28161299d565b82525050565b610100820160008201516129cf60008501826129a9565b5060208201516129e260208501826129a9565b5060408201516129f560408501826129a9565b506060820151612a0860608501826129a9565b506080820151612a1b60808501826129a9565b5060a0820151612a2e60a08501826129a9565b5060c0820151612a4160c08501826129a9565b5060e0820151612a5460e08501826129a9565b50505050565b600061010082019050612a7060008301846129b8565b92915050565b600061ffff82169050919050565b612a8d81612a76565b8114612a9857600080fd5b50565b600081359050612aaa81612a84565b92915050565b60008060c08385031215612ac757612ac6612606565b5b6000612ad585828601612673565b92505060a0612ae685828601612a9b565b9150509250929050565b612af981612a76565b82525050565b6000604082019050612b146000830185612af0565b612b216020830184612af0565b9392505050565b60008160020b9050919050565b612b3e81612b28565b8114612b4957600080fd5b50565b600081359050612b5b81612b35565b92915050565b6000806000806000806101208789031215612b7f57612b7e612606565b5b6000612b8d89828a01612659565b9650506020612b9e89828a01612673565b95505060c0612baf89828a01612856565b94505060e0612bc089828a01612b4c565b93505061010087013567ffffffffffffffff811115612be257612be161260b565b5b612bee89828a016126f6565b92509250509295509295509295565b60008060208385031215612c1457612c13612606565b5b600083013567ffffffffffffffff811115612c3257612c3161260b565b5b612c3e858286016126f6565b92509250509250929050565b600081519050919050565b600082825260208201905092915050565b60005b83811015612c84578082015181840152602081019050612c69565b60008484015250505050565b6000601f19601f8301169050919050565b6000612cac82612c4a565b612cb68185612c55565b9350612cc6818560208601612c66565b612ccf81612c90565b840191505092915050565b60006020820190508181036000830152612cf48184612ca1565b905092915050565b6000806000806000806101608789031215612d1a57612d19612606565b5b6000612d2889828a01612659565b9650506020612d3989828a01612673565b95505060c0612d4a89828a016128f4565b945050610120612d5c89828a016126d2565b93505061014087013567ffffffffffffffff811115612d7e57612d7d61260b565b5b612d8a89828a016126f6565b92509250509295509295509295565b6000819050919050565b612dac81612d99565b8114612db757600080fd5b50565b600081359050612dc981612da3565b92915050565b6000806000806000806101208789031215612ded57612dec612606565b5b6000612dfb89828a01612659565b9650506020612e0c89828a01612673565b95505060c0612e1d89828a01612dba565b94505060e0612e2e89828a01612dba565b93505061010087013567ffffffffffffffff811115612e5057612e4f61260b565b5b612e5c89828a016126f6565b92509250509295509295509295565b6000819050919050565b6000612e90612e8b612e8684612610565b612e6b565b612610565b9050919050565b6000612ea282612e75565b9050919050565b6000612eb482612e97565b9050919050565b612ec481612ea9565b82525050565b6000602082019050612edf6000830184612ebb565b92915050565b6000819050919050565b612ef881612ee5565b8114612f0357600080fd5b50565b600081359050612f1581612eef565b92915050565b60008060408385031215612f3257612f31612606565b5b6000612f4085828601612f06565b9250506020612f5185828601612dba565b9150509250929050565b600063ffffffff82169050919050565b612f7481612f5b565b82525050565b60008160060b9050919050565b612f9081612f7a565b82525050565b612f9f81612610565b82525050565b612fae8161299d565b82525050565b6000608082019050612fc96000830187612f6b565b612fd66020830186612f87565b612fe36040830185612f96565b612ff06060830184612fa5565b95945050505050565b600060a0828403121561300f5761300e612606565b5b600061301d84828501612673565b91505092915050565b61302f81612a76565b82525050565b60608201600082015161304b6000850182613026565b50602082015161305e6020850182613026565b5060408201516130716040850182613026565b50505050565b600060608201905061308c6000830184613035565b92915050565b60008060c083850312156130a9576130a8612606565b5b60006130b785828601612673565b92505060a06130c885828601612dba565b9150509250929050565b6130db81612f5b565b82525050565b6130ea81612f7a565b82525050565b6130f981612610565b82525050565b60808201600082015161311560008501826130d2565b50602082015161312860208501826130e1565b50604082015161313b60408501826130f0565b50606082015161314e60608501826129a9565b50505050565b600060808201905061316960008301846130ff565b92915050565b60008083601f840112613185576131846126e7565b5b8235905067ffffffffffffffff8111156131a2576131a16126ec565b5b6020830191508360208202830111156131be576131bd6126f1565b5b9250929050565b600080600060c084860312156131de576131dd612606565b5b60006131ec86828701612673565b93505060a084013567ffffffffffffffff81111561320d5761320c61260b565b5b6132198682870161316f565b92509250509250925092565b600081519050919050565b600082825260208201905092915050565b6000819050602082019050919050565b600061325d83836130e1565b60208301905092915050565b6000602082019050919050565b600061328182613225565b61328b8185613230565b935061329683613241565b8060005b838110156132c75781516132ae8882613251565b97506132b983613269565b92505060018101905061329a565b5085935050505092915050565b600081519050919050565b600082825260208201905092915050565b6000819050602082019050919050565b600061330c83836130f0565b60208301905092915050565b6000602082019050919050565b6000613330826132d4565b61333a81856132df565b9350613345836132f0565b8060005b8381101561337657815161335d8882613300565b975061336883613318565b925050600181019050613349565b5085935050505092915050565b6000604082019050818103600083015261339d8185613276565b905081810360208301526133b18184613325565b90509392505050565b6000602082840312156133d0576133cf612606565b5b60006133de84828501612f06565b91505092915050565b60006060820190506133fc6000830186612af0565b6134096020830185612af0565b6134166040830184612af0565b949350505050565b6000806000806000610140868803121561343b5761343a612606565b5b600061344988828901612659565b955050602061345a88828901612673565b94505060c061346b88828901612692565b93505061012086013567ffffffffffffffff81111561348d5761348c61260b565b5b613499888289016126f6565b92509250509295509295909350565b600062ffffff82169050919050565b6134c0816134a8565b81146134cb57600080fd5b50565b6000813590506134dd816134b7565b92915050565b6000602082840312156134f9576134f8612606565b5b6000613507848285016134ce565b91505092915050565b60008151905061351f81612b35565b92915050565b60006020828403121561353b5761353a612606565b5b600061354984828501613510565b91505092915050565b60006020828403121561356857613567612606565b5b600061357684828501612b4c565b91505092915050565b61358881612630565b811461359357600080fd5b50565b6000813590506135a58161357f565b92915050565b60006135ba6020840184613596565b905092915050565b60006135cd82612e97565b9050919050565b6135dd816135c2565b82525050565b60006135f260208401846134ce565b905092915050565b613603816134a8565b82525050565b60006136186020840184612b4c565b905092915050565b61362981612b28565b82525050565b600061363a82612630565b9050919050565b61364a8161362f565b811461365557600080fd5b50565b60008135905061366781613641565b92915050565b600061367c6020840184613658565b905092915050565b600061368f82612e97565b9050919050565b61369f81613684565b82525050565b60a082016136b660008301836135ab565b6136c360008501826135d4565b506136d160208301836135ab565b6136de60208501826135d4565b506136ec60408301836135e3565b6136f960408501826135fa565b506137076060830183613609565b6137146060850182613620565b50613722608083018361366d565b61372f6080850182613696565b50505050565b600060a08201905061374a60008301846136a5565b92915050565b600080fd5b7f4e487b7100000000000000000000000000000000000000000000000000000000600052604160045260246000fd5b61378d82612c90565b810181811067ffffffffffffffff821117156137ac576137ab613755565b5b80604052505050565b60006137bf6125fc565b90506137cb8282613784565b919050565b600060a082840312156137e6576137e5613750565b5b6137f060a06137b5565b9050600061380084828501613596565b600083015250602061381484828501613596565b6020830152506040613828848285016134ce565b604083015250606061383c84828501612b4c565b606083015250608061385084828501613658565b60808301525092915050565b600060a0828403121561387257613871612606565b5b6000613880848285016137d0565b91505092915050565b600081905092915050565b82818337600083830152505050565b60006138af8385613889565b93506138bc838584613894565b82840190509392505050565b60006138d58284866138a3565b91508190509392505050565b7f4e487b7100000000000000000000000000000000000000000000000000000000600052603260045260246000fd5b600061391b82612ee5565b9050919050565b61392b81613910565b82525050565b60006020820190506139466000830184613922565b92915050565b60008151905061395b8161283f565b92915050565b600081519050613970816134b7565b92915050565b600080600080608085870312156139905761398f612606565b5b600061399e8782880161394c565b94505060206139af87828801613510565b93505060406139c087828801613961565b92505060606139d187828801613961565b91505092959194509250565b60006fffffffffffffffffffffffffffffffff82169050919050565b613a02816139dd565b8114613a0d57600080fd5b50565b600081519050613a1f816139f9565b92915050565b600060208284031215613a3b57613a3a612606565b5b6000613a4984828501613a10565b91505092915050565b60a082016000820151613a6860008501826135d4565b506020820151613a7b60208501826135d4565b506040820151613a8e60408501826135fa565b506060820151613aa16060850182613620565b506080820151613ab46080850182613696565b50505050565b600060a082019050613acf6000830184613a52565b92915050565b7f4e487b7100000000000000000000000000000000000000000000000000000000600052601260045260246000fd5b6000604082019050613b196000830185612f6b565b613b266020830184612f6b565b939250505056fea26469706673582212202d8901391ac550cb8be585acb428309c69df0276a0f96ecb683d28a398c73b7764736f6c63430008150033",
  "linkReferences": {},
  "deployedLinkReferences": {}
}