{
  "_format": "hh-sol-artifact-1",
  "contractName": "TWAMMTest",
  "sourceName": "test/TWAMM/Remix/unit/RemixTWAMM.sol",
  "abi": [
    {
      "inputs": [
        {
          "internalType": "address",
          "name": "_manager",
          "type": "address"
        }
      ],
      "stateMutability": "nonpayable",
      "type": "constructor"
    },
    {
      "anonymous": false,
      "inputs": [
        {
          "indexed": false,
          "internalType": "string",
          "name": "message",
          "type": "string"
        }
      ],
      "name": "Failure",
      "type": "event"
    },
    {
      "anonymous": false,
      "inputs": [
        {
          "indexed": true,
          "internalType": "PoolId",
          "name": "poolId",
          "type": "bytes32"
        },
        {
          "indexed": true,
          "internalType": "address",
          "name": "owner",
          "type": "address"
        },
        {
          "indexed": false,
          "internalType": "uint160",
          "name": "expiration",
          "type": "uint160"
        },
        {
          "indexed": false,
          "internalType": "bool",
          "name": "zeroForOne",
          "type": "bool"
        },
        {
          "indexed": false,
          "internalType": "uint256",
          "name": "sellRate",
          "type": "uint256"
        },
        {
          "indexed": false,
          "internalType": "uint256",
          "name": "earningsFactorLast",
          "type": "uint256"
        }
      ],
      "name": "SubmitOrder",
      "type": "event"
    },
    {
      "anonymous": false,
      "inputs": [
        {
          "indexed": false,
          "internalType": "string",
          "name": "testName",
          "type": "string"
        },
        {
          "indexed": false,
          "internalType": "string",
          "name": "message",
          "type": "string"
        }
      ],
      "name": "TestLog",
      "type": "event"
    },
    {
      "anonymous": false,
      "inputs": [
        {
          "indexed": true,
          "internalType": "PoolId",
          "name": "poolId",
          "type": "bytes32"
        },
        {
          "indexed": true,
          "internalType": "address",
          "name": "owner",
          "type": "address"
        },
        {
          "indexed": false,
          "internalType": "uint160",
          "name": "expiration",
          "type": "uint160"
        },
        {
          "indexed": false,
          "internalType": "bool",
          "name": "zeroForOne",
          "type": "bool"
        },
        {
          "indexed": false,
          "internalType": "uint256",
          "name": "sellRate",
          "type": "uint256"
        },
        {
          "indexed": false,
          "internalType": "uint256",
          "name": "earningsFactorLast",
          "type": "uint256"
        }
      ],
      "name": "UpdateOrder",
      "type": "event"
    },
    {
      "inputs": [],
      "name": "MAX_TICK_SPACING",
      "outputs": [
        {
          "internalType": "int24",
          "name": "",
          "type": "int24"
        }
      ],
      "stateMutability": "view",
      "type": "function"
    },
    {
      "inputs": [],
      "name": "SQRT_RATIO_1_1",
      "outputs": [
        {
          "internalType": "uint160",
          "name": "",
          "type": "uint160"
        }
      ],
      "stateMutability": "view",
      "type": "function"
    },
    {
      "inputs": [],
      "name": "hook",
      "outputs": [
        {
          "internalType": "contract TWAMM",
          "name": "",
          "type": "address"
        }
      ],
      "stateMutability": "view",
      "type": "function"
    },
    {
      "inputs": [
        {
          "internalType": "contract IHooks",
          "name": "hooks",
          "type": "address"
        }
      ],
      "name": "newPoolKeyWithTWAMM",
      "outputs": [
        {
          "components": [
            {
              "internalType": "Currency",
              "name": "currency0",
              "type": "address"
            },
            {
              "internalType": "Currency",
              "name": "currency1",
              "type": "address"
            },
            {
              "internalType": "uint24",
              "name": "fee",
              "type": "uint24"
            },
            {
              "internalType": "int24",
              "name": "tickSpacing",
              "type": "int24"
            },
            {
              "internalType": "contract IHooks",
              "name": "hooks",
              "type": "address"
            }
          ],
          "internalType": "struct PoolKey",
          "name": "",
          "type": "tuple"
        },
        {
          "internalType": "PoolId",
          "name": "",
          "type": "bytes32"
        }
      ],
      "stateMutability": "nonpayable",
      "type": "function"
    },
    {
      "inputs": [],
      "name": "setUp",
      "outputs": [],
      "stateMutability": "nonpayable",
      "type": "function"
    },
    {
      "inputs": [],
      "name": "testTWAMM_beforeInitialize_SetsLastVirtualOrderTimestamp",
      "outputs": [],
      "stateMutability": "nonpayable",
      "type": "function"
    },
    {
      "stateMutability": "payable",
      "type": "receive"
    }
  ],
  "bytecode": "0x60806040523480156200001157600080fd5b50604051620131da380380620131da8339818101604052810190620000379190620000e9565b80600560006101000a81548173ffffffffffffffffffffffffffffffffffffffff021916908373ffffffffffffffffffffffffffffffffffffffff160217905550506200011b565b600080fd5b600073ffffffffffffffffffffffffffffffffffffffff82169050919050565b6000620000b18262000084565b9050919050565b620000c381620000a4565b8114620000cf57600080fd5b50565b600081519050620000e381620000b8565b92915050565b6000602082840312156200010257620001016200007f565b5b60006200011284828501620000d2565b91505092915050565b620130ae806200012c6000396000f3fe608060405260043610620000615760003560e01c80630a9254e4146200006e57806352dac873146200008857806360460f0614620000a257806377267b1e14620000d25780637f5a7c7b1462000102578063c387813214620001325762000069565b366200006957005b600080fd5b3480156200007b57600080fd5b506200008662000177565b005b3480156200009557600080fd5b50620000a062001207565b005b348015620000af57600080fd5b50620000ba6200135a565b604051620000c9919062001798565b60405180910390f35b348015620000df57600080fd5b50620000ea62001363565b604051620000f99190620017e6565b60405180910390f35b3480156200010f57600080fd5b506200011a62001374565b6040516200012991906200186e565b60405180910390f35b3480156200013f57600080fd5b506200015e6004803603810190620001589190620018e9565b62001398565b6040516200016e92919062001a37565b60405180910390f35b60127001000000000000000000000000000000006040516200019990620016c9565b620001a692919062001bb2565b604051809103906000f080158015620001c3573d6000803e3d6000fd5b50600660006101000a81548173ffffffffffffffffffffffffffffffffffffffff021916908373ffffffffffffffffffffffffffffffffffffffff16021790555060127001000000000000000000000000000000006040516200022690620016c9565b6200023392919062001ca9565b604051809103906000f08015801562000250573d6000803e3d6000fd5b50600760006101000a81548173ffffffffffffffffffffffffffffffffffffffff021916908373ffffffffffffffffffffffffffffffffffffffff160217905550620002e1600660009054906101000a900473ffffffffffffffffffffffffffffffffffffffff16600760009054906101000a900473ffffffffffffffffffffffffffffffffffffffff166200149e565b600b6000600c60008491906101000a81548173ffffffffffffffffffffffffffffffffffffffff021916908373ffffffffffffffffffffffffffffffffffffffff1602179055508391906101000a81548173ffffffffffffffffffffffffffffffffffffffff021916908373ffffffffffffffffffffffffffffffffffffffff16021790555050506000600267ffffffffffffffff81111562000389576200038862001d00565b5b604051908082528060200260200182016040528015620003b85781602001602082028036833780820191505090505b5090503081600081518110620003d357620003d262001d2f565b5b602002602001019073ffffffffffffffffffffffffffffffffffffffff16908173ffffffffffffffffffffffffffffffffffffffff16815250506112348160018151811062000427576200042662001d2f565b5b602002602001019073ffffffffffffffffffffffffffffffffffffffff16908173ffffffffffffffffffffffffffffffffffffffff168152505060007320000000000000000000000000000000000000007308000000000000000000000000000000000000007380000000000000000000000000000000000000001717905060008073__$ca466a50fd5f0e1f92d6397f87dac4f441$__63ab8651183085600060405180602001620004d990620016d7565b6020820181038252601f19601f82011660405250600560009054906101000a900473ffffffffffffffffffffffffffffffffffffffff166127106040516020016200052692919062001dc0565b6040516020818303038152906040526040518663ffffffff1660e01b81526004016200055795949392919062001eec565b6040805180830381865af415801562000574573d6000803e3d6000fd5b505050506040513d601f19601f820116820180604052508101906200059a919062001fb9565b9150915080600560009054906101000a900473ffffffffffffffffffffffffffffffffffffffff16612710604051620005d390620016d7565b620005e09291906200205e565b8190604051809103906000f590508015801562000601573d6000803e3d6000fd5b506000806101000a81548173ffffffffffffffffffffffffffffffffffffffff021916908373ffffffffffffffffffffffffffffffffffffffff1602179055508173ffffffffffffffffffffffffffffffffffffffff1660008054906101000a900473ffffffffffffffffffffffffffffffffffffffff1673ffffffffffffffffffffffffffffffffffffffff1614620006d2576040517f08c379a0000000000000000000000000000000000000000000000000000000008152600401620006c99062002101565b60405180910390fd5b6040518060a00160405280600b60009054906101000a900473ffffffffffffffffffffffffffffffffffffffff1673ffffffffffffffffffffffffffffffffffffffff168152602001600c60009054906101000a900473ffffffffffffffffffffffffffffffffffffffff1673ffffffffffffffffffffffffffffffffffffffff168152602001610bb862ffffff168152602001617fff60010b60020b815260200160008054906101000a900473ffffffffffffffffffffffffffffffffffffffff1673ffffffffffffffffffffffffffffffffffffffff16815250600160008201518160000160006101000a81548173ffffffffffffffffffffffffffffffffffffffff021916908373ffffffffffffffffffffffffffffffffffffffff16021790555060208201518160010160006101000a81548173ffffffffffffffffffffffffffffffffffffffff021916908373ffffffffffffffffffffffffffffffffffffffff16021790555060408201518160010160146101000a81548162ffffff021916908362ffffff16021790555060608201518160010160176101000a81548162ffffff021916908360020b62ffffff16021790555060808201518160020160006101000a81548173ffffffffffffffffffffffffffffffffffffffff021916908373ffffffffffffffffffffffffffffffffffffffff16021790555090505062000a2e60016040518060a00160405290816000820160009054906101000a900473ffffffffffffffffffffffffffffffffffffffff1673ffffffffffffffffffffffffffffffffffffffff1673ffffffffffffffffffffffffffffffffffffffff1681526020016001820160009054906101000a900473ffffffffffffffffffffffffffffffffffffffff1673ffffffffffffffffffffffffffffffffffffffff1673ffffffffffffffffffffffffffffffffffffffff1681526020016001820160149054906101000a900462ffffff1662ffffff1662ffffff1681526020016001820160179054906101000a900460020b60020b60020b81526020016002820160009054906101000a900473ffffffffffffffffffffffffffffffffffffffff1673ffffffffffffffffffffffffffffffffffffffff1673ffffffffffffffffffffffffffffffffffffffff1681525050620014f8565b600481905550600560009054906101000a900473ffffffffffffffffffffffffffffffffffffffff1673ffffffffffffffffffffffffffffffffffffffff1663695c5bf560016c01000000000000000000000000604051806020016040528060008152506040518463ffffffff1660e01b815260040162000ab29392919062002317565b6020604051808303816000875af115801562000ad2573d6000803e3d6000fd5b505050506040513d601f19601f8201168201806040525081019062000af891906200238c565b50600560009054906101000a900473ffffffffffffffffffffffffffffffffffffffff1660405162000b2a90620016e5565b62000b369190620023be565b604051809103906000f08015801562000b53573d6000803e3d6000fd5b50600860006101000a81548173ffffffffffffffffffffffffffffffffffffffff021916908373ffffffffffffffffffffffffffffffffffffffff160217905550600560009054906101000a900473ffffffffffffffffffffffffffffffffffffffff1660405162000bc590620016f3565b62000bd19190620023be565b604051809103906000f08015801562000bee573d6000803e3d6000fd5b50600960006101000a81548173ffffffffffffffffffffffffffffffffffffffff021916908373ffffffffffffffffffffffffffffffffffffffff160217905550600660009054906101000a900473ffffffffffffffffffffffffffffffffffffffff1673ffffffffffffffffffffffffffffffffffffffff1663095ea7b3600860009054906101000a900473ffffffffffffffffffffffffffffffffffffffff1668056bc75e2d631000006040518363ffffffff1660e01b815260040162000cb99291906200241e565b6020604051808303816000875af115801562000cd9573d6000803e3d6000fd5b505050506040513d601f19601f8201168201806040525081019062000cff919062002488565b50600760009054906101000a900473ffffffffffffffffffffffffffffffffffffffff1673ffffffffffffffffffffffffffffffffffffffff1663095ea7b3600860009054906101000a900473ffffffffffffffffffffffffffffffffffffffff1668056bc75e2d631000006040518363ffffffff1660e01b815260040162000d8a9291906200241e565b6020604051808303816000875af115801562000daa573d6000803e3d6000fd5b505050506040513d601f19601f8201168201806040525081019062000dd0919062002488565b50600660009054906101000a900473ffffffffffffffffffffffffffffffffffffffff1673ffffffffffffffffffffffffffffffffffffffff166340c10f193068056bc75e2d631000006040518363ffffffff1660e01b815260040162000e399291906200241e565b600060405180830381600087803b15801562000e5457600080fd5b505af115801562000e69573d6000803e3d6000fd5b50505050600760009054906101000a900473ffffffffffffffffffffffffffffffffffffffff1673ffffffffffffffffffffffffffffffffffffffff166340c10f193068056bc75e2d631000006040518363ffffffff1660e01b815260040162000ed59291906200241e565b600060405180830381600087803b15801562000ef057600080fd5b505af115801562000f05573d6000803e3d6000fd5b50505050600860009054906101000a900473ffffffffffffffffffffffffffffffffffffffff1673ffffffffffffffffffffffffffffffffffffffff166361ae449a600160405180606001604052807fffffffffffffffffffffffffffffffffffffffffffffffffffffffffffffffc460020b8152602001603c60020b8152602001678ac7230489e80000815250604051806020016040528060008152506040518463ffffffff1660e01b815260040162000fc3939291906200251d565b6020604051808303816000875af115801562000fe3573d6000803e3d6000fd5b505050506040513d601f19601f8201168201806040525081019062001009919062002594565b50600860009054906101000a900473ffffffffffffffffffffffffffffffffffffffff1673ffffffffffffffffffffffffffffffffffffffff166361ae449a600160405180606001604052807fffffffffffffffffffffffffffffffffffffffffffffffffffffffffffffff8860020b8152602001607860020b8152602001678ac7230489e80000815250604051806020016040528060008152506040518463ffffffff1660e01b8152600401620010c4939291906200251d565b6020604051808303816000875af1158015620010e4573d6000803e3d6000fd5b505050506040513d601f19601f820116820180604052508101906200110a919062002594565b50600860009054906101000a900473ffffffffffffffffffffffffffffffffffffffff1673ffffffffffffffffffffffffffffffffffffffff166361ae449a6001604051806060016040528062001162603c6200152a565b60020b815260200162001176603c6200156f565b60020b8152602001678ac7230489e80000815250604051806020016040528060008152506040518463ffffffff1660e01b8152600401620011ba939291906200251d565b6020604051808303816000875af1158015620011da573d6000803e3d6000fd5b505050506040513d601f19601f8201168201806040525081019062001200919062002594565b5050505050565b6000806200123560008054906101000a900473ffffffffffffffffffffffffffffffffffffffff1662001398565b9150915060008060009054906101000a900473ffffffffffffffffffffffffffffffffffffffff1673ffffffffffffffffffffffffffffffffffffffff166327ac0881836040518263ffffffff1660e01b8152600401620012979190620025c6565b602060405180830381865afa158015620012b5573d6000803e3d6000fd5b505050506040513d601f19601f82011682018060405250810190620012db919062002614565b036200131e577f81169a5d04af4a3bb9a1cdebce8d9c090ab67042281e2e90cd51935e1beb565f60405162001310906200270c565b60405180910390a162001356565b7ffd5de27667e5407df5be0b6efb7f86ae8c40433040399a5e4d36a46ccc50638d6040516200134d90620027b9565b60405180910390a15b5050565b617fff60010b81565b6c0100000000000000000000000081565b60008054906101000a900473ffffffffffffffffffffffffffffffffffffffff1681565b620013a262001701565b600080620013d260027f8000000000000000000000000000000000000000000000000000000000000000620015b7565b905060006040518060a0016040528083600081518110620013f857620013f762001d2f565b5b602002602001015173ffffffffffffffffffffffffffffffffffffffff1681526020018360018151811062001432576200143162001d2f565b5b602002602001015173ffffffffffffffffffffffffffffffffffffffff168152602001600062ffffff168152602001603c60020b81526020018673ffffffffffffffffffffffffffffffffffffffff168152509050806200149382620014f8565b935093505050915091565b6000808273ffffffffffffffffffffffffffffffffffffffff168473ffffffffffffffffffffffffffffffffffffffff161015620014e65783838092508193505050620014f1565b828480925081935050505b9250929050565b6000816040516020016200150d9190620027db565b604051602081830303815290604052805190602001209050919050565b6000818260020b7ffffffffffffffffffffffffffffffffffffffffffffffffffffffffffff2761860020b81620015665762001565620027f8565b5b05029050919050565b6000818260020b7ffffffffffffffffffffffffffffffffffffffffffffffffffffffffffff2761860000360020b81620015ae57620015ad620027f8565b5b05029050919050565b60608260ff1667ffffffffffffffff811115620015d957620015d862001d00565b5b604051908082528060200260200182016040528015620016085781602001602082028036833780820191505090505b50905060005b8360ff168160ff161015620016c2576012836040516200162e90620016c9565b6200163b92919062002888565b604051809103906000f08015801562001658573d6000803e3d6000fd5b50828260ff168151811062001672576200167162001d2f565b5b602002602001019073ffffffffffffffffffffffffffffffffffffffff16908173ffffffffffffffffffffffffffffffffffffffff16815250508080620016b9906200290e565b9150506200160e565b5092915050565b612186806200293d83390190565b61abeb8062004ac383390190565b611a3f806200f6ae83390190565b611f8c80620110ed83390190565b6040518060a00160405280600073ffffffffffffffffffffffffffffffffffffffff168152602001600073ffffffffffffffffffffffffffffffffffffffff168152602001600062ffffff168152602001600060020b8152602001600073ffffffffffffffffffffffffffffffffffffffff1681525090565b60008160020b9050919050565b62001792816200177a565b82525050565b6000602082019050620017af600083018462001787565b92915050565b600073ffffffffffffffffffffffffffffffffffffffff82169050919050565b620017e081620017b5565b82525050565b6000602082019050620017fd6000830184620017d5565b92915050565b6000819050919050565b60006200182e620018286200182284620017b5565b62001803565b620017b5565b9050919050565b600062001842826200180d565b9050919050565b6000620018568262001835565b9050919050565b620018688162001849565b82525050565b60006020820190506200188560008301846200185d565b92915050565b600080fd5b60006200189d82620017b5565b9050919050565b6000620018b18262001890565b9050919050565b620018c381620018a4565b8114620018cf57600080fd5b50565b600081359050620018e381620018b8565b92915050565b6000602082840312156200190257620019016200188b565b5b60006200191284828501620018d2565b91505092915050565b6000620019288262001835565b9050919050565b6200193a816200191b565b82525050565b600062ffffff82169050919050565b6200195a8162001940565b82525050565b6200196b816200177a565b82525050565b60006200197e8262001835565b9050919050565b620019908162001971565b82525050565b60a082016000820151620019ae60008501826200192f565b506020820151620019c360208501826200192f565b506040820151620019d860408501826200194f565b506060820151620019ed606085018262001960565b50608082015162001a02608085018262001985565b50505050565b6000819050919050565b600062001a1f8262001a08565b9050919050565b62001a318162001a12565b82525050565b600060c08201905062001a4e600083018562001996565b62001a5d60a083018462001a26565b9392505050565b600082825260208201905092915050565b7f5465737441000000000000000000000000000000000000000000000000000000600082015250565b600062001aad60058362001a64565b915062001aba8262001a75565b602082019050919050565b7f4100000000000000000000000000000000000000000000000000000000000000600082015250565b600062001afd60018362001a64565b915062001b0a8262001ac5565b602082019050919050565b6000819050919050565b600060ff82169050919050565b600062001b4d62001b4762001b418462001b15565b62001803565b62001b1f565b9050919050565b62001b5f8162001b2c565b82525050565b6000819050919050565b6000819050919050565b600062001b9a62001b9462001b8e8462001b65565b62001803565b62001b6f565b9050919050565b62001bac8162001b79565b82525050565b6000608082019050818103600083015262001bcd8162001a9e565b9050818103602083015262001be28162001aee565b905062001bf3604083018562001b54565b62001c02606083018462001ba1565b9392505050565b7f5465737442000000000000000000000000000000000000000000000000000000600082015250565b600062001c4160058362001a64565b915062001c4e8262001c09565b602082019050919050565b7f4200000000000000000000000000000000000000000000000000000000000000600082015250565b600062001c9160018362001a64565b915062001c9e8262001c59565b602082019050919050565b6000608082019050818103600083015262001cc48162001c32565b9050818103602083015262001cd98162001c82565b905062001cea604083018562001b54565b62001cf9606083018462001ba1565b9392505050565b7f4e487b7100000000000000000000000000000000000000000000000000000000600052604160045260246000fd5b7f4e487b7100000000000000000000000000000000000000000000000000000000600052603260045260246000fd5b62001d698162001890565b82525050565b6000819050919050565b600061ffff82169050919050565b600062001da862001da262001d9c8462001d6f565b62001803565b62001d79565b9050919050565b62001dba8162001d87565b82525050565b600060408201905062001dd7600083018562001d5e565b62001de6602083018462001daf565b9392505050565b62001df88162001890565b82525050565b62001e0981620017b5565b82525050565b6000819050919050565b600062001e3a62001e3462001e2e8462001e0f565b62001803565b62001b6f565b9050919050565b62001e4c8162001e19565b82525050565b600081519050919050565b600082825260208201905092915050565b60005b8381101562001e8e57808201518184015260208101905062001e71565b60008484015250505050565b6000601f19601f8301169050919050565b600062001eb88262001e52565b62001ec4818562001e5d565b935062001ed681856020860162001e6e565b62001ee18162001e9a565b840191505092915050565b600060a08201905062001f03600083018862001ded565b62001f12602083018762001dfe565b62001f21604083018662001e41565b818103606083015262001f35818562001eab565b9050818103608083015262001f4b818462001eab565b90509695505050505050565b62001f628162001890565b811462001f6e57600080fd5b50565b60008151905062001f828162001f57565b92915050565b62001f938162001a08565b811462001f9f57600080fd5b50565b60008151905062001fb38162001f88565b92915050565b6000806040838503121562001fd35762001fd26200188b565b5b600062001fe38582860162001f71565b925050602062001ff68582860162001fa2565b9150509250929050565b60006200200d8262001835565b9050919050565b6200201f8162002000565b82525050565b600062002046620020406200203a8462001d6f565b62001803565b62001b6f565b9050919050565b620020588162002025565b82525050565b600060408201905062002075600083018562002014565b6200208460208301846200204d565b9392505050565b7f466169725472616465546573743a20486f6f6b2061646472657373206d69736d60008201527f6174636800000000000000000000000000000000000000000000000000000000602082015250565b6000620020e960248362001a64565b9150620020f6826200208b565b604082019050919050565b600060208201905081810360008301526200211c81620020da565b9050919050565b60008160001c9050919050565b600073ffffffffffffffffffffffffffffffffffffffff82169050919050565b600062002167620021618362002123565b62002130565b9050919050565b60008160a01c9050919050565b600062ffffff82169050919050565b6000620021a16200219b836200216e565b6200217b565b9050919050565b60008160b81c9050919050565b60008160020b9050919050565b6000620021d9620021d383620021a8565b620021b5565b9050919050565b600073ffffffffffffffffffffffffffffffffffffffff82169050919050565b600062002217620022118362002123565b620021e0565b9050919050565b60a082016000808301549050620022358162002150565b6200224460008601826200192f565b5060018301549050620022578162002150565b6200226660208601826200192f565b5062002272816200218a565b6200228160408601826200194f565b506200228d81620021c2565b6200229c606086018262001960565b5060028301549050620022af8162002200565b620022be608086018262001985565b5050505050565b600082825260208201905092915050565b6000620022e38262001e52565b620022ef8185620022c5565b93506200230181856020860162001e6e565b6200230c8162001e9a565b840191505092915050565b600060e0820190506200232e60008301866200221e565b6200233d60a0830185620017d5565b81810360c0830152620023518184620022d6565b9050949350505050565b62002366816200177a565b81146200237257600080fd5b50565b60008151905062002386816200235b565b92915050565b600060208284031215620023a557620023a46200188b565b5b6000620023b58482850162002375565b91505092915050565b6000602082019050620023d5600083018462002014565b92915050565b6000819050919050565b60006200240662002400620023fa84620023db565b62001803565b62001b6f565b9050919050565b6200241881620023e5565b82525050565b600060408201905062002435600083018562001d5e565b6200244460208301846200240d565b9392505050565b60008115159050919050565b62002462816200244b565b81146200246e57600080fd5b50565b600081519050620024828162002457565b92915050565b600060208284031215620024a157620024a06200188b565b5b6000620024b18482850162002471565b91505092915050565b6000819050919050565b620024cf81620024ba565b82525050565b606082016000820151620024ed600085018262001960565b50602082015162002502602085018262001960565b506040820151620025176040850182620024c4565b50505050565b6000610120820190506200253560008301866200221e565b6200254460a0830185620024d5565b818103610100830152620025598184620022d6565b9050949350505050565b6200256e81620024ba565b81146200257a57600080fd5b50565b6000815190506200258e8162002563565b92915050565b600060208284031215620025ad57620025ac6200188b565b5b6000620025bd848285016200257d565b91505092915050565b6000602082019050620025dd600083018462001a26565b92915050565b620025ee8162001b6f565b8114620025fa57600080fd5b50565b6000815190506200260e81620025e3565b92915050565b6000602082840312156200262d576200262c6200188b565b5b60006200263d84828501620025fd565b91505092915050565b7f6c6173745669727475616c4f7264657254696d657374616d7020746573740000600082015250565b60006200267e601e8362001a64565b91506200268b8262002646565b602082019050919050565b7f5041535345443a206c6173745669727475616c4f7264657254696d657374616d60008201527f7020697320300000000000000000000000000000000000000000000000000000602082015250565b6000620026f460268362001a64565b9150620027018262002696565b604082019050919050565b6000604082019050818103600083015262002727816200266f565b905081810360208301526200273c81620026e5565b9050919050565b7f4641494c45443a206c6173745669727475616c4f7264657254696d657374616d60008201527f70206973206e6f74203000000000000000000000000000000000000000000000602082015250565b6000620027a1602a8362001a64565b9150620027ae8262002743565b604082019050919050565b60006020820190508181036000830152620027d48162002792565b9050919050565b600060a082019050620027f2600083018462001996565b92915050565b7f4e487b7100000000000000000000000000000000000000000000000000000000600052601260045260246000fd5b7f5445535400000000000000000000000000000000000000000000000000000000600082015250565b60006200285f60048362001a64565b91506200286c8262002827565b602082019050919050565b620028828162001b6f565b82525050565b60006080820190508181036000830152620028a38162002850565b90508181036020830152620028b88162002850565b9050620028c9604083018562001b54565b620028d8606083018462002877565b9392505050565b7f4e487b7100000000000000000000000000000000000000000000000000000000600052601160045260246000fd5b60006200291b8262001b1f565b915060ff8203620029315762002930620028df565b5b60018201905091905056fe60e06040523480156200001157600080fd5b506040516200218638038062002186833981810160405281019062000037919062000430565b83838382600090816200004b919062000721565b5081600190816200005d919062000721565b508060ff1660808160ff16815250504660a0818152505062000084620000aa60201b60201c565b60c08181525050505050620000a033826200013a60201b60201c565b5050505062000a25565b60007f8b73c3c69bb8fe3d512ecc4cf759cc79239f7b179b0ffacaa9a75d522b39400f6000604051620000de9190620008b7565b60405180910390207fc89efdaa54c0f20c7adf612882df0950f5a951637e0307cdcb4c672f298b8bc646306040516020016200011f95949392919062000941565b60405160208183030381529060405280519060200120905090565b6200014c82826200015060201b60201c565b5050565b8060026000828254620001649190620009cd565b9250508190555080600360008473ffffffffffffffffffffffffffffffffffffffff1673ffffffffffffffffffffffffffffffffffffffff168152602001908152602001600020600082825401925050819055508173ffffffffffffffffffffffffffffffffffffffff16600073ffffffffffffffffffffffffffffffffffffffff167fddf252ad1be2c89b69c2b068fc378daa952ba7f163c4a11628f55a4df523b3ef8360405162000218919062000a08565b60405180910390a35050565b6000604051905090565b600080fd5b600080fd5b600080fd5b600080fd5b6000601f19601f8301169050919050565b7f4e487b7100000000000000000000000000000000000000000000000000000000600052604160045260246000fd5b6200028d8262000242565b810181811067ffffffffffffffff82111715620002af57620002ae62000253565b5b80604052505050565b6000620002c462000224565b9050620002d2828262000282565b919050565b600067ffffffffffffffff821115620002f557620002f462000253565b5b620003008262000242565b9050602081019050919050565b60005b838110156200032d57808201518184015260208101905062000310565b60008484015250505050565b6000620003506200034a84620002d7565b620002b8565b9050828152602081018484840111156200036f576200036e6200023d565b5b6200037c8482856200030d565b509392505050565b600082601f8301126200039c576200039b62000238565b5b8151620003ae84826020860162000339565b91505092915050565b600060ff82169050919050565b620003cf81620003b7565b8114620003db57600080fd5b50565b600081519050620003ef81620003c4565b92915050565b6000819050919050565b6200040a81620003f5565b81146200041657600080fd5b50565b6000815190506200042a81620003ff565b92915050565b600080600080608085870312156200044d576200044c6200022e565b5b600085015167ffffffffffffffff8111156200046e576200046d62000233565b5b6200047c8782880162000384565b945050602085015167ffffffffffffffff811115620004a0576200049f62000233565b5b620004ae8782880162000384565b9350506040620004c187828801620003de565b9250506060620004d48782880162000419565b91505092959194509250565b600081519050919050565b7f4e487b7100000000000000000000000000000000000000000000000000000000600052602260045260246000fd5b600060028204905060018216806200053357607f821691505b602082108103620005495762000548620004eb565b5b50919050565b60008190508160005260206000209050919050565b60006020601f8301049050919050565b600082821b905092915050565b600060088302620005b37fffffffffffffffffffffffffffffffffffffffffffffffffffffffffffffffff8262000574565b620005bf868362000574565b95508019841693508086168417925050509392505050565b6000819050919050565b600062000602620005fc620005f684620003f5565b620005d7565b620003f5565b9050919050565b6000819050919050565b6200061e83620005e1565b620006366200062d8262000609565b84845462000581565b825550505050565b600090565b6200064d6200063e565b6200065a81848462000613565b505050565b5b8181101562000682576200067660008262000643565b60018101905062000660565b5050565b601f821115620006d1576200069b816200054f565b620006a68462000564565b81016020851015620006b6578190505b620006ce620006c58562000564565b8301826200065f565b50505b505050565b600082821c905092915050565b6000620006f660001984600802620006d6565b1980831691505092915050565b6000620007118383620006e3565b9150826002028217905092915050565b6200072c82620004e0565b67ffffffffffffffff81111562000748576200074762000253565b5b6200075482546200051a565b6200076182828562000686565b600060209050601f83116001811462000799576000841562000784578287015190505b62000790858262000703565b86555062000800565b601f198416620007a9866200054f565b60005b82811015620007d357848901518255600182019150602085019450602081019050620007ac565b86831015620007f35784890151620007ef601f891682620006e3565b8355505b6001600288020188555050505b505050505050565b600081905092915050565b60008190508160005260206000209050919050565b6000815462000837816200051a565b62000843818662000808565b945060018216600081146200086157600181146200087757620008ae565b60ff1983168652811515820286019350620008ae565b620008828562000813565b60005b83811015620008a65781548189015260018201915060208101905062000885565b838801955050505b50505092915050565b6000620008c5828462000828565b915081905092915050565b6000819050919050565b620008e581620008d0565b82525050565b620008f681620003f5565b82525050565b600073ffffffffffffffffffffffffffffffffffffffff82169050919050565b60006200092982620008fc565b9050919050565b6200093b816200091c565b82525050565b600060a082019050620009586000830188620008da565b620009676020830187620008da565b620009766040830186620008da565b620009856060830185620008eb565b62000994608083018462000930565b9695505050505050565b7f4e487b7100000000000000000000000000000000000000000000000000000000600052601160045260246000fd5b6000620009da82620003f5565b9150620009e783620003f5565b925082820190508082111562000a025762000a016200099e565b5b92915050565b600060208201905062000a1f6000830184620008eb565b92915050565b60805160a05160c05161173162000a55600039600061073901526000610705015260006106df01526117316000f3fe608060405234801561001057600080fd5b50600436106100ea5760003560e01c806361f49ed61161008c57806395d89b411161006657806395d89b4114610273578063a9059cbb14610291578063d505accf146102c1578063dd62ed3e146102dd576100ea565b806361f49ed6146101e357806370a08231146102135780637ecebe0014610243576100ea565b806323b872dd116100c857806323b872dd1461015b578063313ce5671461018b5780633644e515146101a957806340c10f19146101c7576100ea565b806306fdde03146100ef578063095ea7b31461010d57806318160ddd1461013d575b600080fd5b6100f761030d565b6040516101049190610f3b565b60405180910390f35b61012760048036038101906101229190610ff6565b61039b565b6040516101349190611051565b60405180910390f35b61014561048d565b604051610152919061107b565b60405180910390f35b61017560048036038101906101709190611096565b610493565b6040516101829190611051565b60405180910390f35b6101936106dd565b6040516101a09190611105565b60405180910390f35b6101b1610701565b6040516101be9190611139565b60405180910390f35b6101e160048036038101906101dc9190610ff6565b61075e565b005b6101fd60048036038101906101f89190611096565b61076c565b60405161020a9190611051565b60405180910390f35b61022d60048036038101906102289190611154565b61085f565b60405161023a919061107b565b60405180910390f35b61025d60048036038101906102589190611154565b610877565b60405161026a919061107b565b60405180910390f35b61027b61088f565b6040516102889190610f3b565b60405180910390f35b6102ab60048036038101906102a69190610ff6565b61091d565b6040516102b89190611051565b60405180910390f35b6102db60048036038101906102d691906111d9565b610a31565b005b6102f760048036038101906102f2919061127b565b610d2a565b604051610304919061107b565b60405180910390f35b6000805461031a906112ea565b80601f0160208091040260200160405190810160405280929190818152602001828054610346906112ea565b80156103935780601f1061036857610100808354040283529160200191610393565b820191906000526020600020905b81548152906001019060200180831161037657829003601f168201915b505050505081565b600081600460003373ffffffffffffffffffffffffffffffffffffffff1673ffffffffffffffffffffffffffffffffffffffff16815260200190815260200160002060008573ffffffffffffffffffffffffffffffffffffffff1673ffffffffffffffffffffffffffffffffffffffff168152602001908152602001600020819055508273ffffffffffffffffffffffffffffffffffffffff163373ffffffffffffffffffffffffffffffffffffffff167f8c5be1e5ebec7d5bd14f71427d1e84f3dd0314c0f7b2291e5b200ac8c7c3b9258460405161047b919061107b565b60405180910390a36001905092915050565b60025481565b600080600460008673ffffffffffffffffffffffffffffffffffffffff1673ffffffffffffffffffffffffffffffffffffffff16815260200190815260200160002060003373ffffffffffffffffffffffffffffffffffffffff1673ffffffffffffffffffffffffffffffffffffffff1681526020019081526020016000205490507fffffffffffffffffffffffffffffffffffffffffffffffffffffffffffffffff81146105c9578281610548919061134a565b600460008773ffffffffffffffffffffffffffffffffffffffff1673ffffffffffffffffffffffffffffffffffffffff16815260200190815260200160002060003373ffffffffffffffffffffffffffffffffffffffff1673ffffffffffffffffffffffffffffffffffffffff168152602001908152602001600020819055505b82600360008773ffffffffffffffffffffffffffffffffffffffff1673ffffffffffffffffffffffffffffffffffffffff1681526020019081526020016000206000828254610618919061134a565b9250508190555082600360008673ffffffffffffffffffffffffffffffffffffffff1673ffffffffffffffffffffffffffffffffffffffff168152602001908152602001600020600082825401925050819055508373ffffffffffffffffffffffffffffffffffffffff168573ffffffffffffffffffffffffffffffffffffffff167fddf252ad1be2c89b69c2b068fc378daa952ba7f163c4a11628f55a4df523b3ef856040516106c9919061107b565b60405180910390a360019150509392505050565b7f000000000000000000000000000000000000000000000000000000000000000081565b60007f0000000000000000000000000000000000000000000000000000000000000000461461073757610732610d4f565b610759565b7f00000000000000000000000000000000000000000000000000000000000000005b905090565b6107688282610ddb565b5050565b600081600460008673ffffffffffffffffffffffffffffffffffffffff1673ffffffffffffffffffffffffffffffffffffffff16815260200190815260200160002060008573ffffffffffffffffffffffffffffffffffffffff1673ffffffffffffffffffffffffffffffffffffffff168152602001908152602001600020819055508273ffffffffffffffffffffffffffffffffffffffff168473ffffffffffffffffffffffffffffffffffffffff167f8c5be1e5ebec7d5bd14f71427d1e84f3dd0314c0f7b2291e5b200ac8c7c3b9258460405161084c919061107b565b60405180910390a3600190509392505050565b60036020528060005260406000206000915090505481565b60056020528060005260406000206000915090505481565b6001805461089c906112ea565b80601f01602080910402602001604051908101604052809291908181526020018280546108c8906112ea565b80156109155780601f106108ea57610100808354040283529160200191610915565b820191906000526020600020905b8154815290600101906020018083116108f857829003601f168201915b505050505081565b600081600360003373ffffffffffffffffffffffffffffffffffffffff1673ffffffffffffffffffffffffffffffffffffffff168152602001908152602001600020600082825461096e919061134a565b9250508190555081600360008573ffffffffffffffffffffffffffffffffffffffff1673ffffffffffffffffffffffffffffffffffffffff168152602001908152602001600020600082825401925050819055508273ffffffffffffffffffffffffffffffffffffffff163373ffffffffffffffffffffffffffffffffffffffff167fddf252ad1be2c89b69c2b068fc378daa952ba7f163c4a11628f55a4df523b3ef84604051610a1f919061107b565b60405180910390a36001905092915050565b42841015610a74576040517f08c379a0000000000000000000000000000000000000000000000000000000008152600401610a6b906113ca565b60405180910390fd5b60006001610a80610701565b7f6e71edae12b1b97f4d1f60370fef10105fa2faae0126114a169c64845d6126c98a8a8a600560008f73ffffffffffffffffffffffffffffffffffffffff1673ffffffffffffffffffffffffffffffffffffffff1681526020019081526020016000206000815480929190600101919050558b604051602001610b08969594939291906113f9565b60405160208183030381529060405280519060200120604051602001610b2f9291906114d2565b6040516020818303038152906040528051906020012085858560405160008152602001604052604051610b659493929190611509565b6020604051602081039080840390855afa158015610b87573d6000803e3d6000fd5b505050602060405103519050600073ffffffffffffffffffffffffffffffffffffffff168173ffffffffffffffffffffffffffffffffffffffff1614158015610bfb57508773ffffffffffffffffffffffffffffffffffffffff168173ffffffffffffffffffffffffffffffffffffffff16145b610c3a576040517f08c379a0000000000000000000000000000000000000000000000000000000008152600401610c319061159a565b60405180910390fd5b85600460008373ffffffffffffffffffffffffffffffffffffffff1673ffffffffffffffffffffffffffffffffffffffff16815260200190815260200160002060008973ffffffffffffffffffffffffffffffffffffffff1673ffffffffffffffffffffffffffffffffffffffff16815260200190815260200160002081905550508573ffffffffffffffffffffffffffffffffffffffff168773ffffffffffffffffffffffffffffffffffffffff167f8c5be1e5ebec7d5bd14f71427d1e84f3dd0314c0f7b2291e5b200ac8c7c3b92587604051610d19919061107b565b60405180910390a350505050505050565b6004602052816000526040600020602052806000526040600020600091509150505481565b60007f8b73c3c69bb8fe3d512ecc4cf759cc79239f7b179b0ffacaa9a75d522b39400f6000604051610d81919061165d565b60405180910390207fc89efdaa54c0f20c7adf612882df0950f5a951637e0307cdcb4c672f298b8bc64630604051602001610dc0959493929190611674565b60405160208183030381529060405280519060200120905090565b8060026000828254610ded91906116c7565b9250508190555080600360008473ffffffffffffffffffffffffffffffffffffffff1673ffffffffffffffffffffffffffffffffffffffff168152602001908152602001600020600082825401925050819055508173ffffffffffffffffffffffffffffffffffffffff16600073ffffffffffffffffffffffffffffffffffffffff167fddf252ad1be2c89b69c2b068fc378daa952ba7f163c4a11628f55a4df523b3ef83604051610e9f919061107b565b60405180910390a35050565b600081519050919050565b600082825260208201905092915050565b60005b83811015610ee5578082015181840152602081019050610eca565b60008484015250505050565b6000601f19601f8301169050919050565b6000610f0d82610eab565b610f178185610eb6565b9350610f27818560208601610ec7565b610f3081610ef1565b840191505092915050565b60006020820190508181036000830152610f558184610f02565b905092915050565b600080fd5b600073ffffffffffffffffffffffffffffffffffffffff82169050919050565b6000610f8d82610f62565b9050919050565b610f9d81610f82565b8114610fa857600080fd5b50565b600081359050610fba81610f94565b92915050565b6000819050919050565b610fd381610fc0565b8114610fde57600080fd5b50565b600081359050610ff081610fca565b92915050565b6000806040838503121561100d5761100c610f5d565b5b600061101b85828601610fab565b925050602061102c85828601610fe1565b9150509250929050565b60008115159050919050565b61104b81611036565b82525050565b60006020820190506110666000830184611042565b92915050565b61107581610fc0565b82525050565b6000602082019050611090600083018461106c565b92915050565b6000806000606084860312156110af576110ae610f5d565b5b60006110bd86828701610fab565b93505060206110ce86828701610fab565b92505060406110df86828701610fe1565b9150509250925092565b600060ff82169050919050565b6110ff816110e9565b82525050565b600060208201905061111a60008301846110f6565b92915050565b6000819050919050565b61113381611120565b82525050565b600060208201905061114e600083018461112a565b92915050565b60006020828403121561116a57611169610f5d565b5b600061117884828501610fab565b91505092915050565b61118a816110e9565b811461119557600080fd5b50565b6000813590506111a781611181565b92915050565b6111b681611120565b81146111c157600080fd5b50565b6000813590506111d3816111ad565b92915050565b600080600080600080600060e0888a0312156111f8576111f7610f5d565b5b60006112068a828b01610fab565b97505060206112178a828b01610fab565b96505060406112288a828b01610fe1565b95505060606112398a828b01610fe1565b945050608061124a8a828b01611198565b93505060a061125b8a828b016111c4565b92505060c061126c8a828b016111c4565b91505092959891949750929550565b6000806040838503121561129257611291610f5d565b5b60006112a085828601610fab565b92505060206112b185828601610fab565b9150509250929050565b7f4e487b7100000000000000000000000000000000000000000000000000000000600052602260045260246000fd5b6000600282049050600182168061130257607f821691505b602082108103611315576113146112bb565b5b50919050565b7f4e487b7100000000000000000000000000000000000000000000000000000000600052601160045260246000fd5b600061135582610fc0565b915061136083610fc0565b92508282039050818111156113785761137761131b565b5b92915050565b7f5045524d49545f444541444c494e455f45585049524544000000000000000000600082015250565b60006113b4601783610eb6565b91506113bf8261137e565b602082019050919050565b600060208201905081810360008301526113e3816113a7565b9050919050565b6113f381610f82565b82525050565b600060c08201905061140e600083018961112a565b61141b60208301886113ea565b61142860408301876113ea565b611435606083018661106c565b611442608083018561106c565b61144f60a083018461106c565b979650505050505050565b600081905092915050565b7f1901000000000000000000000000000000000000000000000000000000000000600082015250565b600061149b60028361145a565b91506114a682611465565b600282019050919050565b6000819050919050565b6114cc6114c782611120565b6114b1565b82525050565b60006114dd8261148e565b91506114e982856114bb565b6020820191506114f982846114bb565b6020820191508190509392505050565b600060808201905061151e600083018761112a565b61152b60208301866110f6565b611538604083018561112a565b611545606083018461112a565b95945050505050565b7f494e56414c49445f5349474e4552000000000000000000000000000000000000600082015250565b6000611584600e83610eb6565b915061158f8261154e565b602082019050919050565b600060208201905081810360008301526115b381611577565b9050919050565b600081905092915050565b60008190508160005260206000209050919050565b600081546115e7816112ea565b6115f181866115ba565b9450600182166000811461160c576001811461162157611654565b60ff1983168652811515820286019350611654565b61162a856115c5565b60005b8381101561164c5781548189015260018201915060208101905061162d565b838801955050505b50505092915050565b600061166982846115da565b915081905092915050565b600060a082019050611689600083018861112a565b611696602083018761112a565b6116a3604083018661112a565b6116b0606083018561106c565b6116bd60808301846113ea565b9695505050505050565b60006116d282610fc0565b91506116dd83610fc0565b92508282019050808211156116f5576116f461131b565b5b9291505056fea2646970667358221220d31e47fd1accc7a22040a33b1819ef70519b11925aa65adeb7bdfcd7a72d4d9264736f6c6343000815003360c06040523480156200001157600080fd5b506040516200abeb3803806200abeb83398181016040528101906200003791906200054a565b818073ffffffffffffffffffffffffffffffffffffffff1660808173ffffffffffffffffffffffffffffffffffffffff16815250506200007d306200008e60201b60201c565b508060a081815250505050620005bf565b620000af81620000a3620000b260201b60201c565b6200011360201b60201c565b50565b620000bc6200043c565b60405180610100016040528060011515815260200160001515815260200160011515815260200160001515815260200160011515815260200160001515815260200160001515815260200160001515815250905090565b62000124826200027460201b60201c565b1515816000015115151415806200015357506200014782620002ad60201b60201c565b15158160200151151514155b806200017757506200016b82620002e660201b60201c565b15158160400151151514155b806200019b57506200018f826200031f60201b60201c565b15158160600151151514155b80620001bf5750620001b3826200035860201b60201c565b15158160800151151514155b80620001e35750620001d7826200039160201b60201c565b15158160a00151151514155b80620002075750620001fb82620003ca60201b60201c565b15158160c00151151514155b806200022b57506200021f826200040360201b60201c565b15158160e00151151514155b156200027057816040517fe65af6a0000000000000000000000000000000000000000000000000000000008152600401620002679190620005a2565b60405180910390fd5b5050565b6000807380000000000000000000000000000000000000008373ffffffffffffffffffffffffffffffffffffffff161614159050919050565b6000807340000000000000000000000000000000000000008373ffffffffffffffffffffffffffffffffffffffff161614159050919050565b6000807320000000000000000000000000000000000000008373ffffffffffffffffffffffffffffffffffffffff161614159050919050565b6000807310000000000000000000000000000000000000008373ffffffffffffffffffffffffffffffffffffffff161614159050919050565b6000807308000000000000000000000000000000000000008373ffffffffffffffffffffffffffffffffffffffff161614159050919050565b6000807304000000000000000000000000000000000000008373ffffffffffffffffffffffffffffffffffffffff161614159050919050565b6000807302000000000000000000000000000000000000008373ffffffffffffffffffffffffffffffffffffffff161614159050919050565b6000807301000000000000000000000000000000000000008373ffffffffffffffffffffffffffffffffffffffff161614159050919050565b6040518061010001604052806000151581526020016000151581526020016000151581526020016000151581526020016000151581526020016000151581526020016000151581526020016000151581525090565b600080fd5b600073ffffffffffffffffffffffffffffffffffffffff82169050919050565b6000620004c38262000496565b9050919050565b6000620004d782620004b6565b9050919050565b620004e981620004ca565b8114620004f557600080fd5b50565b6000815190506200050981620004de565b92915050565b6000819050919050565b62000524816200050f565b81146200053057600080fd5b50565b600081519050620005448162000519565b92915050565b6000806040838503121562000564576200056362000491565b5b60006200057485828601620004f8565b9250506020620005878582860162000533565b9150509250929050565b6200059c81620004b6565b82525050565b6000602082019050620005b9600083018462000591565b92915050565b60805160a05161a565620006866000396000818161161c01528181611db101528181611ddd01528181611e9b01528181611ef001528181611f4401528181611fc001528181612015015261220e0152600081816107a10152818161085c0152818161091c015281816109d801528181610a2101528181610b310152818161106701528181611104015281816111d60152818161123c015281816112f2015281816113c50152818161142b015281816114e1015281816116c0015261171a015261a5656000f3fe608060405234801561001057600080fd5b506004361061012b5760003560e01c80639fc314c8116100ad578063c01f960611610071578063c01f9606146103dc578063ccf4b247146103fa578063dc4c90d31461042a578063e1b4af6914610448578063fe9a6f45146104785761012b565b80639fc314c8146102ec578063a910f80f1461031c578063ab6291fe1461034c578063b47b2fb11461037c578063b6a8b0fa146103ac5761012b565b80635f65a295116100f45780635f65a29514610221578063612c39b71461023d5780636fc389ae1461025b57806386fd4fdc1461028b5780639d544ca8146102bc5761012b565b8062e7b1be1461013057806327ac08811461016157806330b7cdef146101915780633440d820146101c1578063575e24b4146101f1575b600080fd5b61014a60048036038101906101459190618c25565b6104a8565b604051610158929190618c93565b60405180910390f35b61017b60048036038101906101769190618cf2565b61074a565b6040516101889190618d1f565b60405180910390f35b6101ab60048036038101906101a69190618e0e565b610769565b6040516101b89190618ee6565b60405180910390f35b6101db60048036038101906101d69190618f01565b61079d565b6040516101e89190618ee6565b60405180910390f35b61020b60048036038101906102069190618fa9565b610858565b6040516102189190618ee6565b60405180910390f35b61023b60048036038101906102369190619033565b61090b565b005b610245610c4d565b6040516102529190619111565b60405180910390f35b6102756004803603810190610270919061912d565b610cac565b6040516102829190618d1f565b60405180910390f35b6102a560048036038101906102a0919061916d565b610cd1565b6040516102b3929190618c93565b60405180910390f35b6102d660048036038101906102d191906191d9565b610d28565b6040516102e3919061923d565b60405180910390f35b61030660048036038101906103019190619258565b610ea1565b6040516103139190618d1f565b60405180910390f35b610336600480360381019061033191906192ab565b61102f565b6040516103439190618ee6565b60405180910390f35b61036660048036038101906103619190619347565b611063565b6040516103739190619413565b60405180910390f35b61039660048036038101906103919190619435565b6115b2565b6040516103a39190618ee6565b60405180910390f35b6103c660048036038101906103c191906194d2565b6115e6565b6040516103d39190618ee6565b60405180910390f35b6103e461161a565b6040516103f19190618d1f565b60405180910390f35b610414600480360381019061040f919061958d565b61163e565b604051610421919061960c565b60405180910390f35b6104326116be565b60405161043f9190619686565b60405180910390f35b610462600480360381019061045d91906194d2565b6116e2565b60405161046f9190618ee6565b60405180910390f35b610492600480360381019061048d91906196a1565b611716565b60405161049f9190618ee6565b60405180910390f35b6000806000856040516020016104be91906197f3565b604051602081830303815290604052805190602001209050600080600083815260200190815260200160002090506104f58761090b565b600080600080610506858b8b6117c9565b9350935093509350896040015115610539578288610524919061983d565b97508387610532919061983d565b9650610556565b8388610545919061983d565b97508287610553919061983d565b96505b87600160008d6000015173ffffffffffffffffffffffffffffffffffffffff1673ffffffffffffffffffffffffffffffffffffffff16815260200190815260200160002060008c6000015173ffffffffffffffffffffffffffffffffffffffff1673ffffffffffffffffffffffffffffffffffffffff16815260200190815260200160002060008282546105ea919061983d565b9250508190555086600160008d6020015173ffffffffffffffffffffffffffffffffffffffff1673ffffffffffffffffffffffffffffffffffffffff16815260200190815260200160002060008c6000015173ffffffffffffffffffffffffffffffffffffffff1673ffffffffffffffffffffffffffffffffffffffff1681526020019081526020016000206000828254610685919061983d565b9250508190555060008913156106db576106da33308b8d604001516106ae578e602001516106b4565b8e600001515b73ffffffffffffffffffffffffffffffffffffffff16611ba1909392919063ffffffff16565b5b896000015173ffffffffffffffffffffffffffffffffffffffff16867f0419b3b20aa8f170fc09bc80fa2437166bce38232cb28c36a035b65c79742a098c602001518d604001518686604051610734949392919061988f565b60405180910390a3505050505050935093915050565b6000806000838152602001908152602001600020600001549050919050565b60006040517f0a85dc2900000000000000000000000000000000000000000000000000000000815260040160405180910390fd5b60007f000000000000000000000000000000000000000000000000000000000000000073ffffffffffffffffffffffffffffffffffffffff163373ffffffffffffffffffffffffffffffffffffffff1614610824576040517fae18210a00000000000000000000000000000000000000000000000000000000815260040160405180910390fd5b6108456108408680360381019061083b9190619033565b611cf9565b611d3a565b633440d82060e01b905095945050505050565b60007f000000000000000000000000000000000000000000000000000000000000000073ffffffffffffffffffffffffffffffffffffffff163373ffffffffffffffffffffffffffffffffffffffff16146108df576040517fae18210a00000000000000000000000000000000000000000000000000000000815260040160405180910390fd5b6108f8858036038101906108f39190619033565b61090b565b63575e24b460e01b905095945050505050565b600061091682611d46565b905060007f000000000000000000000000000000000000000000000000000000000000000073ffffffffffffffffffffffffffffffffffffffff1663c815641c836040518263ffffffff1660e01b815260040161097391906198f5565b608060405180830381865afa158015610990573d6000803e3d6000fd5b505050506040513d601f19601f820116820180604052508101906109b4919061994f565b505050905060008060008481526020019081526020016000209050600080610ad3837f00000000000000000000000000000000000000000000000000000000000000008860405180604001604052808973ffffffffffffffffffffffffffffffffffffffff1681526020017f000000000000000000000000000000000000000000000000000000000000000073ffffffffffffffffffffffffffffffffffffffff1663fa6793d58c6040518263ffffffff1660e01b8152600401610a7891906198f5565b602060405180830381865afa158015610a95573d6000803e3d6000fd5b505050506040513d601f19601f82011682018060405250810190610ab991906199fe565b6fffffffffffffffffffffffffffffffff16815250611d76565b9150915060008173ffffffffffffffffffffffffffffffffffffffff1614158015610b2a57508373ffffffffffffffffffffffffffffffffffffffff168173ffffffffffffffffffffffffffffffffffffffff1614155b15610c45577f000000000000000000000000000000000000000000000000000000000000000073ffffffffffffffffffffffffffffffffffffffff16638154831987604051806060016040528086151581526020017f7fffffffffffffffffffffffffffffffffffffffffffffffffffffffffffffff81526020018573ffffffffffffffffffffffffffffffffffffffff16815250604051602001610bd0929190619a8b565b6040516020818303038152906040526040518263ffffffff1660e01b8152600401610bfb9190619413565b6000604051808303816000875af1158015610c1a573d6000803e3d6000fd5b505050506040513d6000823e3d601f19601f82011682018060405250810190610c439190619b5b565b505b505050505050565b610c55618809565b60405180610100016040528060011515815260200160001515815260200160011515815260200160001515815260200160011515815260200160001515815260200160001515815260200160001515815250905090565b6001602052816000526040600020602052806000526040600020600091509150505481565b6000806000610cef85803603810190610cea9190619033565b611cf9565b905083610d0b5780600501600001548160050160020154610d1c565b806001016000015481600101600201545b92509250509250929050565b60008084604051602001610d3c9190619c90565b60405160208183030381529060405280519060200120905060008060008381526020019081526020016000209050610d8386803603810190610d7e9190619033565b61090b565b60008042876020015173ffffffffffffffffffffffffffffffffffffffff16039050808681610db557610db4619cab565b5b049150610dc38388846120b4565b9450610e2833308385028a60400151610dee578b6020016020810190610de99190619cda565b610e02565b8b6000016020810190610e019190619cda565b5b73ffffffffffffffffffffffffffffffffffffffff16611ba1909392919063ffffffff16565b50856000015173ffffffffffffffffffffffffffffffffffffffff16837ffaaa07ce082dc5fd8da3b5871f3bea299c149b02540be2d1c9169e94a8be84848860200151896040015185610e7b888d6123b7565b60010154604051610e8f949392919061988f565b60405180910390a35050509392505050565b600080610ec38573ffffffffffffffffffffffffffffffffffffffff166123de565b9050600160008673ffffffffffffffffffffffffffffffffffffffff1673ffffffffffffffffffffffffffffffffffffffff16815260200190815260200160002060003373ffffffffffffffffffffffffffffffffffffffff1673ffffffffffffffffffffffffffffffffffffffff16815260200190815260200160002054915060008314158015610f5457508183105b15610f5d578291505b81811015610f69578091505b81600160008773ffffffffffffffffffffffffffffffffffffffff1673ffffffffffffffffffffffffffffffffffffffff16815260200190815260200160002060003373ffffffffffffffffffffffffffffffffffffffff1673ffffffffffffffffffffffffffffffffffffffff1681526020019081526020016000206000828254610ff59190619d07565b9250508190555061102784838773ffffffffffffffffffffffffffffffffffffffff1661248e9092919063ffffffff16565b509392505050565b60006040517f0a85dc2900000000000000000000000000000000000000000000000000000000815260040160405180910390fd5b60607f000000000000000000000000000000000000000000000000000000000000000073ffffffffffffffffffffffffffffffffffffffff163373ffffffffffffffffffffffffffffffffffffffff16146110ea576040517fae18210a00000000000000000000000000000000000000000000000000000000815260040160405180910390fd5b60008084848101906110fc9190619d9f565b9150915060007f000000000000000000000000000000000000000000000000000000000000000073ffffffffffffffffffffffffffffffffffffffff1663f3cd914c8484604051806020016040528060008152506040518463ffffffff1660e01b815260040161116e93929190619de0565b6020604051808303816000875af115801561118d573d6000803e3d6000fd5b505050506040513d601f19601f820116820180604052508101906111b19190619e35565b90508160000151156113ac5760006111c882612526565b600f0b13156112dc5761123a7f00000000000000000000000000000000000000000000000000000000000000006111fe83612526565b6fffffffffffffffffffffffffffffffff16856000015173ffffffffffffffffffffffffffffffffffffffff166125339092919063ffffffff16565b7f000000000000000000000000000000000000000000000000000000000000000073ffffffffffffffffffffffffffffffffffffffff16636a256b2984600001516040518263ffffffff1660e01b81526004016112979190619e71565b6020604051808303816000875af11580156112b6573d6000803e3d6000fd5b505050506040513d601f19601f820116820180604052508101906112da9190619ea1565b505b60006112e782612635565b600f0b12156113a7577f000000000000000000000000000000000000000000000000000000000000000073ffffffffffffffffffffffffffffffffffffffff16630b0d9c0984602001513061133b85612635565b61134490619edb565b6fffffffffffffffffffffffffffffffff166040518463ffffffff1660e01b815260040161137493929190619f32565b600060405180830381600087803b15801561138e57600080fd5b505af11580156113a2573d6000803e3d6000fd5b505050505b611597565b60006113b782612635565b600f0b13156114cb576114297f00000000000000000000000000000000000000000000000000000000000000006113ed83612635565b6fffffffffffffffffffffffffffffffff16856020015173ffffffffffffffffffffffffffffffffffffffff166125339092919063ffffffff16565b7f000000000000000000000000000000000000000000000000000000000000000073ffffffffffffffffffffffffffffffffffffffff16636a256b2984602001516040518263ffffffff1660e01b81526004016114869190619e71565b6020604051808303816000875af11580156114a5573d6000803e3d6000fd5b505050506040513d601f19601f820116820180604052508101906114c99190619ea1565b505b60006114d682612526565b600f0b1215611596577f000000000000000000000000000000000000000000000000000000000000000073ffffffffffffffffffffffffffffffffffffffff16630b0d9c0984600001513061152a85612526565b61153390619edb565b6fffffffffffffffffffffffffffffffff166040518463ffffffff1660e01b815260040161156393929190619f32565b600060405180830381600087803b15801561157d57600080fd5b505af1158015611591573d6000803e3d6000fd5b505050505b5b60405180602001604052806000815250935050505092915050565b60006040517f0a85dc2900000000000000000000000000000000000000000000000000000000815260040160405180910390fd5b60006040517f0a85dc2900000000000000000000000000000000000000000000000000000000815260040160405180910390fd5b7f000000000000000000000000000000000000000000000000000000000000000081565b61164661885e565b6116976000808560405160200161165d9190619c90565b604051602081830303815290604052805190602001208152602001908152602001600020838036038101906116929190619f69565b6123b7565b60405180604001604052908160008201548152602001600182015481525050905092915050565b7f000000000000000000000000000000000000000000000000000000000000000081565b60006040517f0a85dc2900000000000000000000000000000000000000000000000000000000815260040160405180910390fd5b60007f000000000000000000000000000000000000000000000000000000000000000073ffffffffffffffffffffffffffffffffffffffff163373ffffffffffffffffffffffffffffffffffffffff161461179d576040517fae18210a00000000000000000000000000000000000000000000000000000000815260040160405180910390fd5b6117b6858036038101906117b19190619033565b61090b565b63fe9a6f4560e01b905095945050505050565b60008060008060006117db88886123b7565b9050600087604001516117f157886005016117f6565b886001015b90503373ffffffffffffffffffffffffffffffffffffffff16886000015173ffffffffffffffffffffffffffffffffffffffff1614611872578760000151336040517fe2aaff73000000000000000000000000000000000000000000000000000000008152600401611869929190619f96565b60405180910390fd5b60008260000154036118bb57876040517f9044eb270000000000000000000000000000000000000000000000000000000081526004016118b2919061a010565b60405180910390fd5b600087141580156118e6575042886020015173ffffffffffffffffffffffffffffffffffffffff1611155b1561192857876040517f0918b28900000000000000000000000000000000000000000000000000000000815260040161191f919061a010565b60405180910390fd5b600082600101548260020154039050606060ff1683600001548202901c96508160020154935083836001018190555042896020015173ffffffffffffffffffffffffffffffffffffffff16116119a9578960090160006119878b61263f565b8152602001908152602001600020600080820160009055600182016000905550505b60008814611b95576000428a6020015173ffffffffffffffffffffffffffffffffffffffff1603905060008185600001540290507fffffffffffffffffffffffffffffffffffffffffffffffffffffffffffffffff8a03611a1357611a0d8161266f565b60000399505b60008a611a1f8361266f565b0190506000811215611a6c578b828c6040517fa26087fe000000000000000000000000000000000000000000000000000000008152600401611a639392919061a03a565b60405180910390fd5b828181611a7c57611a7b619cab565b5b04975060008b1215611aee576000888760000154039050808660000160008282540392505081905550808660010160008f6020015173ffffffffffffffffffffffffffffffffffffffff168152602001908152602001600020600082825403925050819055508b600003995050611b4a565b6000866000015489039050808660000160008282540192505081905550808660010160008f6020015173ffffffffffffffffffffffffffffffffffffffff16815260200190815260200160002060008282540192505081905550505b60008803611b87578c6009016000611b618e61263f565b815260200190815260200160002060008082016000905560018201600090555050611b91565b8786600001819055505b5050505b50505093509350935093565b6000808573ffffffffffffffffffffffffffffffffffffffff166323b872dd60e01b868686604051602401611bd89392919061a071565b604051602081830303815290604052907bffffffffffffffffffffffffffffffffffffffffffffffffffffffff19166020820180517bffffffffffffffffffffffffffffffffffffffffffffffffffffffff8381831617835250505050604051611c42919061a0e4565b6000604051808303816000865af19150503d8060008114611c7f576040519150601f19603f3d011682016040523d82523d6000602084013e611c84565b606091505b5091509150818015611cb25750600081511480611cb1575080806020019051810190611cb0919061a110565b5b5b611cf1576040517f08c379a0000000000000000000000000000000000000000000000000000000008152600401611ce89061a19a565b60405180910390fd5b505050505050565b600080600083604051602001611d0f91906197f3565b6040516020818303038152906040528051906020012081526020019081526020016000209050919050565b42816000018190555050565b600081604051602001611d5991906197f3565b604051602081830303815290604052805190602001209050919050565b600080611d82866126a6565b611d9b57428660000181905550600080915091506120ab565b60008360000151905060008760000154905060007f000000000000000000000000000000000000000000000000000000000000000082611ddb919061a1ba565b7f0000000000000000000000000000000000000000000000000000000000000000611e069190619d07565b82611e11919061983d565b9050600089600101905060008a60050190505b428311611f75576000826001016000858152602001908152602001600020541180611e645750600081600101600085815260200190815260200160002054115b15611f42576000826000015414158015611e8357506000816000015414155b15611edd57611ed68b8b8b60405180608001604052807f0000000000000000000000000000000000000000000000000000000000000000815260200188815260200189890381526020018d8152506126cd565b9750611f3e565b611f3b8b8b8b6040518060a001604052807f0000000000000000000000000000000000000000000000000000000000000000815260200188815260200189890381526020018d815260200160008860000154141515158152506128e2565b97505b8293505b7f000000000000000000000000000000000000000000000000000000000000000083019250611f708b6126a6565b611e24575b4284108015611f895750611f888b6126a6565b5b15612064576000826000015414158015611fa857506000816000015414155b1561200257611ffb8b8b8b60405180608001604052807f0000000000000000000000000000000000000000000000000000000000000000815260200142815260200189420381526020018d8152506126cd565b9750612063565b6120608b8b8b6040518060a001604052807f0000000000000000000000000000000000000000000000000000000000000000815260200142815260200189420381526020018d815260200160008860000154141515158152506128e2565b97505b5b428b60000181905550876000015195508573ffffffffffffffffffffffffffffffffffffffff168573ffffffffffffffffffffffffffffffffffffffff1611965050505050505b94509492505050565b60003373ffffffffffffffffffffffffffffffffffffffff16836000015173ffffffffffffffffffffffffffffffffffffffff1614612130578260000151336040517fe2aaff73000000000000000000000000000000000000000000000000000000008152600401612127929190619f96565b60405180910390fd5b600084600001540361216e576040517f87138d5c00000000000000000000000000000000000000000000000000000000815260040160405180910390fd5b42836020015173ffffffffffffffffffffffffffffffffffffffff16116121d05782602001516040517fcd87c18d0000000000000000000000000000000000000000000000000000000081526004016121c7919061a21c565b60405180910390fd5b6000820361220a576040517f7832636900000000000000000000000000000000000000000000000000000000815260040160405180910390fd5b60007f0000000000000000000000000000000000000000000000000000000000000000846020015173ffffffffffffffffffffffffffffffffffffffff16612252919061a1ba565b146122985782602001516040517fa643559c00000000000000000000000000000000000000000000000000000000815260040161228f919061a21c565b60405180910390fd5b6122a18361263f565b90506000846009016000838152602001908152602001600020600001541461230057826040517f04a9e54d0000000000000000000000000000000000000000000000000000000081526004016122f7919061a010565b60405180910390fd5b600083604001516123145784600501612319565b846001015b905082816000016000828254019250508190555082816001016000866020015173ffffffffffffffffffffffffffffffffffffffff16815260200190815260200160002060008282540192505081905550604051806040016040528084815260200182600201548152508560090160008481526020019081526020016000206000820151816000015560208201518160010155905050509392505050565b60008260090160006123c88461263f565b8152602001908152602001600020905092915050565b60006123ff8273ffffffffffffffffffffffffffffffffffffffff16612c0e565b1561240c57479050612489565b8173ffffffffffffffffffffffffffffffffffffffff166370a08231306040518263ffffffff1660e01b8152600401612445919061a237565b602060405180830381865afa158015612462573d6000803e3d6000fd5b505050506040513d601f19601f820116820180604052508101906124869190619ea1565b90505b919050565b60006040517fa9059cbb000000000000000000000000000000000000000000000000000000008152836004820152826024820152602060006044836000895af13d15601f3d1160016000511416171691505080612520576040517f08c379a00000000000000000000000000000000000000000000000000000000081526004016125179061a29e565b60405180910390fd5b50505050565b60008160801c9050919050565b60006125548473ffffffffffffffffffffffffffffffffffffffff16612c0e565b156125a15760008060008085875af190508061259c576040517ff4b3b1bc00000000000000000000000000000000000000000000000000000000815260040160405180910390fd5b61262f565b6040517fa9059cbb000000000000000000000000000000000000000000000000000000006000528360045282602452602060006044600080895af13d15601f3d116001600051141617169150600060605280604052508061262e576040517ff27f64e400000000000000000000000000000000000000000000000000000000815260040160405180910390fd5b5b50505050565b6000819050919050565b600081604051602001612652919061a010565b604051602081830303815290604052805190602001209050919050565b60007f7fffffffffffffffffffffffffffffffffffffffffffffffffffffffffffffff82111561269e57600080fd5b819050919050565b60008082600101600001541415806126c657506000826005016000015414155b9050919050565b6126d5618878565b6000806c0100000000000000000000000084604001516126f5919061a2be565b9050600087600101905060008860050190505b6001156128cf5760006040518060a0016040528085815260200188606001516000015173ffffffffffffffffffffffffffffffffffffffff1681526020018860600151602001516fffffffffffffffffffffffffffffffff168152602001846000015481526020018360000154815250905061278381612c46565b945060008061279889606001518c8c8a612f88565b9150915081156127f25760006127db8d8d8d60405180608001604052808760020b81526020018f6020015181526020018c81526020018f606001518152506130a6565b8b60600181935082905250508087039650506128c7565b6000806127ff858a6132dc565b9150915060008b600001518c602001518161281d5761281c619cab565b5b060361285a5761283c8b6020015183896135ed9092919063ffffffff16565b6128558b6020015182886135ed9092919063ffffffff16565b612881565b61286d828861364990919063ffffffff16565b612880818761364990919063ffffffff16565b5b888b606001516000019073ffffffffffffffffffffffffffffffffffffffff16908173ffffffffffffffffffffffffffffffffffffffff168152505050505050506128cf565b505050612708565b8560600151945050505050949350505050565b6128ea618878565b600082608001516128fe5785600501612903565b856001015b90506000816000015490506000846040015182612920919061a2be565b905060005b600115612bfb57600061294e876060015160000151886060015160200151858a6080015161365f565b905060008061296389606001518c8c86612f88565b915091508115612ad55760006129a261297b8c611d46565b838e73ffffffffffffffffffffffffffffffffffffffff166136d19092919063ffffffff16565b905060006129af836137c9565b905060006129d08c6060015160000151838e60600151602001516001613bd5565b905060006129f18d6060015160000151848f60600151602001516001613d12565b90508c60800151612a1e5783612a0690619edb565b8d6060015160200151612a19919061a300565b612a33565b838d6060015160200151612a32919061a344565b5b8d60600151602001906fffffffffffffffffffffffffffffffff1690816fffffffffffffffffffffffffffffffff1681525050828d606001516000019073ffffffffffffffffffffffffffffffffffffffff16908173ffffffffffffffffffffffffffffffffffffffff16815250508c60800151612ab15781612ab3565b805b880197508c60800151612ac65780612ac8565b815b8903985050505050612bf3565b886080015115612b0e57612afc896060015160000151848b60600151602001516001613d12565b84612b07919061983d565b9350612b39565b612b2b896060015160000151848b60600151602001516001613bd5565b84612b36919061983d565b93505b6000866c0100000000000000000000000086612b55919061a2be565b612b5f919061a388565b905060008a600001518b60200151612b77919061a1ba565b03612b9a57612b958a60200151828a6135ed9092919063ffffffff16565b612bae565b612bad818961364990919063ffffffff16565b5b838a606001516000019073ffffffffffffffffffffffffffffffffffffffff16908173ffffffffffffffffffffffffffffffffffffffff168152505050505050612bfb565b505050612925565b8560600151945050505050949350505050565b60008073ffffffffffffffffffffffffffffffffffffffff168273ffffffffffffffffffffffffffffffffffffffff16149050919050565b600080612c568360600151613dfe565b90506000612c678460800151613dfe565b90506000612cac612c9483856fffffffffffffffffffffffffffffffff1916613e7b90919063ffffffff16565b6fffffffffffffffffffffffffffffffff1916614306565b90506000612d296f405f000000000000000000000000000060801b612d08612cf087876fffffffffffffffffffffffffffffffff19166145c690919063ffffffff16565b6fffffffffffffffffffffffffffffffff1916614306565b6fffffffffffffffffffffffffffffffff1916613e7b90919063ffffffff16565b905060006040518060a00160405280612d716f405f000000000000000000000000000060801b856fffffffffffffffffffffffffffffffff19166145c690919063ffffffff16565b6fffffffffffffffffffffffffffffffff19168152602001846fffffffffffffffffffffffffffffffff19168152602001612de76f405f000000000000000000000000000060801b612dc68b60000151613dfe565b6fffffffffffffffffffffffffffffffff19166145c690919063ffffffff16565b6fffffffffffffffffffffffffffffffff19168152602001612e5a6f405f000000000000000000000000000060801b612e398b6020015173ffffffffffffffffffffffffffffffffffffffff16613dfe565b6fffffffffffffffffffffffffffffffff19166145c690919063ffffffff16565b6fffffffffffffffffffffffffffffffff19168152602001612e9189604001516fffffffffffffffffffffffffffffffff16613dfe565b6fffffffffffffffffffffffffffffffff191681525090506000612eec6f405f000000000000000000000000000060801b612ecb84614a87565b6fffffffffffffffffffffffffffffffff1916613e7b90919063ffffffff16565b90506000612f0c826fffffffffffffffffffffffffffffffff1916614c6d565b80612f2f5750612f2e826fffffffffffffffffffffffffffffffff1916614cb0565b5b9050600081612f3e5782612f40565b845b9050612f79612f74612f5c8c608001518d606001511184614cf3565b6fffffffffffffffffffffffffffffffff1916614dc7565b614ec5565b98505050505050505050919050565b600080612fae866000015173ffffffffffffffffffffffffffffffffffffffff16614ef1565b90506000612fd18473ffffffffffffffffffffffffffffffffffffffff16614ef1565b90506000876000015173ffffffffffffffffffffffffffffffffffffffff168573ffffffffffffffffffffffffffffffffffffffff1610905060005b8061308f57811561301f576001840393505b61305a61302b88611d46565b858960600151858c73ffffffffffffffffffffffffffffffffffffffff166152b190949392919063ffffffff16565b809650819550505081613075578260020b8460020b13613080565b8260020b8460020b13155b9050600115158515150361300d575b801561309a57600094505b50505094509492505050565b6130ae618878565b6000806130c1846000015160020b6137c9565b905060006131028560600151602001516fffffffffffffffffffffffffffffffff16866060015160000151848b600101600001548c600501600001546153fc565b905060008061317d6040518060a0016040528085815260200189606001516000015173ffffffffffffffffffffffffffffffffffffffff1681526020018960600151602001516fffffffffffffffffffffffffffffffff1681526020018c6001016000015481526020018c60050160000154815250856132dc565b91509150613197828b60010161364990919063ffffffff16565b6131ad818b60050161364990919063ffffffff16565b60006131e66131bb8a611d46565b89600001518c73ffffffffffffffffffffffffffffffffffffffff166136d19092919063ffffffff16565b905087606001516000015173ffffffffffffffffffffffffffffffffffffffff168573ffffffffffffffffffffffffffffffffffffffff16101561322b578060000390505b600081600f0b12613246578088606001516020015101613255565b80600003886060015160200151035b8860600151602001906fffffffffffffffffffffffffffffffff1690816fffffffffffffffffffffffffffffffff16815250508488606001516000019073ffffffffffffffffffffffffffffffffffffffff16908173ffffffffffffffffffffffffffffffffffffffff168152505050866060015183955095505050505094509492505050565b60008060006132ee8560600151613dfe565b905060006132ff8660800151613dfe565b9050600061332983836fffffffffffffffffffffffffffffffff19166145c690919063ffffffff16565b9050600061336e61335684866fffffffffffffffffffffffffffffffff1916613e7b90919063ffffffff16565b6fffffffffffffffffffffffffffffffff1916614306565b905060006040518060c001604052806133c26f405f000000000000000000000000000060801b6133a18d60000151613dfe565b6fffffffffffffffffffffffffffffffff19166145c690919063ffffffff16565b6fffffffffffffffffffffffffffffffff19168152602001846fffffffffffffffffffffffffffffffff19168152602001836fffffffffffffffffffffffffffffffff191681526020016134676f405f000000000000000000000000000060801b6134468d6020015173ffffffffffffffffffffffffffffffffffffffff16613dfe565b6fffffffffffffffffffffffffffffffff19166145c690919063ffffffff16565b6fffffffffffffffffffffffffffffffff191681526020016134d66f405f000000000000000000000000000060801b6134b58c73ffffffffffffffffffffffffffffffffffffffff16613dfe565b6fffffffffffffffffffffffffffffffff19166145c690919063ffffffff16565b6fffffffffffffffffffffffffffffffff1916815260200161350d8b604001516fffffffffffffffffffffffffffffffff16613dfe565b6fffffffffffffffffffffffffffffffff191681525090506135816135696f405f000000000000000000000000000060801b61354884615620565b6fffffffffffffffffffffffffffffffff1916613e7b90919063ffffffff16565b6fffffffffffffffffffffffffffffffff1916614dc7565b96506135df6135c76f405f000000000000000000000000000060801b6135a68461574a565b6fffffffffffffffffffffffffffffffff1916613e7b90919063ffffffff16565b6fffffffffffffffffffffffffffffffff1916614dc7565b955050505050509250929050565b808360020160008282540192505081905550826002015483600301600084815260200190815260200160002081905550826001016000838152602001908152602001600020548360000160008282540392505081905550505050565b8082600201600082825401925050819055505050565b6000808573ffffffffffffffffffffffffffffffffffffffff161161368357600080fd5b6000846fffffffffffffffffffffffffffffffff16116136a257600080fd5b816136b9576136b4858585600161588c565b6136c7565b6136c68585856001615a02565b5b9050949350505050565b6000808473ffffffffffffffffffffffffffffffffffffffff16631e2eaeaf84600487600a60405160200161370792919061a3b9565b6040516020818303038152906040528051906020012060001c61372a919061983d565b60405160200161373b92919061a3f1565b604051602081830303815290604052805190602001206040518263ffffffff1660e01b815260040161376d919061923d565b602060405180830381865afa15801561378a573d6000803e3d6000fd5b505050506040513d601f19601f820116820180604052508101906137ae919061a446565b905060018060801b0360801b811660801c9150509392505050565b60008060008360020b126137e0578260020b6137e8565b8260020b6000035b90507ffffffffffffffffffffffffffffffffffffffffffffffffffffffffffff2761860000360020b81111561384a576040517fce8ef7fc00000000000000000000000000000000000000000000000000000000815260040160405180910390fd5b600080600183160361386d5770010000000000000000000000000000000061387f565b6ffffcb933bd6fad37aa2d162d1a5940015b70ffffffffffffffffffffffffffffffffff169050600060028316146138b95760806ffff97272373d413259a46990580e213a8202901c90505b600060048316146138de5760806ffff2e50f5f656932ef12357cf3c7fdcc8202901c90505b600060088316146139035760806fffe5caca7e10e4e61c3624eaa0941cd08202901c90505b600060108316146139285760806fffcb9843d60f6159c9db58835c9266448202901c90505b6000602083161461394d5760806fff973b41fa98c081472e6896dfb254c08202901c90505b600060408316146139725760806fff2ea16466c96a3843ec78b326b528618202901c90505b600060808316146139975760806ffe5dee046a99a2a811c461f1969c30538202901c90505b60006101008316146139bd5760806ffcbe86c7900a88aedcffc83b479aa3a48202901c90505b60006102008316146139e35760806ff987a7253ac413176f2b074cf7815e548202901c90505b6000610400831614613a095760806ff3392b0822b70005940c7a398e4b70f38202901c90505b6000610800831614613a2f5760806fe7159475a2c29b7443b29c7fa6e889d98202901c90505b6000611000831614613a555760806fd097f3bdfd2022b8845ad8f792aa58258202901c90505b6000612000831614613a7b5760806fa9f746462d870fdf8a65dc1f90e061e58202901c90505b6000614000831614613aa15760806f70d869a156d2a1b890bb3df62baf32f78202901c90505b6000618000831614613ac75760806f31be135f97d08fd981231505542fcfa68202901c90505b600062010000831614613aee5760806f09aa508b5b7a84e1c677de54f3e99bc98202901c90505b600062020000831614613b145760806e5d6af8dedb81196699c329225ee6048202901c90505b600062040000831614613b395760806d2216e584f5fa1ea926041bedfe988202901c90505b600062080000831614613b5c5760806b048a170391f7dc42444e8fa28202901c90505b60008460020b1315613b9c57807fffffffffffffffffffffffffffffffffffffffffffffffffffffffffffffffff81613b9857613b97619cab565b5b0490505b60006401000000008281613bb357613bb2619cab565b5b0614613bc0576001613bc3565b60005b60ff16602082901c0192505050919050565b60008373ffffffffffffffffffffffffffffffffffffffff168573ffffffffffffffffffffffffffffffffffffffff161115613c1657838580955081965050505b6000606060ff16846fffffffffffffffffffffffffffffffff16901b9050600086860373ffffffffffffffffffffffffffffffffffffffff16905060008773ffffffffffffffffffffffffffffffffffffffff1611613c7457600080fd5b83613cc5578673ffffffffffffffffffffffffffffffffffffffff16613cb183838973ffffffffffffffffffffffffffffffffffffffff16615b93565b81613cbf57613cbe619cab565b5b04613d06565b613d05613ce983838973ffffffffffffffffffffffffffffffffffffffff16615c5f565b8873ffffffffffffffffffffffffffffffffffffffff16615cc4565b5b92505050949350505050565b60008373ffffffffffffffffffffffffffffffffffffffff168573ffffffffffffffffffffffffffffffffffffffff161115613d5357838580955081965050505b81613da857613da3836fffffffffffffffffffffffffffffffff168686613d7a919061a473565b73ffffffffffffffffffffffffffffffffffffffff166c01000000000000000000000000615b93565b613df4565b613df3836fffffffffffffffffffffffffffffffff168686613dca919061a473565b73ffffffffffffffffffffffffffffffffffffffff166c01000000000000000000000000615c5f565b5b9050949350505050565b6000808203613e1357600060801b9050613e76565b60008290506000613e2382615cd7565b90506070811015613e3c578060700382901b9150613e50565b6070811115613e4f576070810382901c91505b5b607081613fff01901b6dffffffffffffffffffffffffffff83161791508160801b925050505b919050565b600080617fff60708560801c6fffffffffffffffffffffffffffffffff16901c166fffffffffffffffffffffffffffffffff1690506000617fff60708560801c6fffffffffffffffffffffffffffffffff16901c166fffffffffffffffffffffffffffffffff169050617fff820361400d57617fff8103613f9c57836fffffffffffffffffffffffffffffffff1916856fffffffffffffffffffffffffffffffff191603613f44576f8000000000000000000000000000000060801b8416851892505050614300565b6f8000000000000000000000000000000060801b8486186fffffffffffffffffffffffffffffffff191603613f7f5783851792505050614300565b6f7fff800000000000000000000000000060801b92505050614300565b600060801b6f7fffffffffffffffffffffffffffffff60801b85166fffffffffffffffffffffffffffffffff191603613fec576f7fff800000000000000000000000000060801b92505050614300565b6f8000000000000000000000000000000060801b8416851892505050614300565b617fff810361408757600060801b6f7fffffffffffffffffffffffffffffff60801b86166fffffffffffffffffffffffffffffffff191603614066576f7fff800000000000000000000000000060801b92505050614300565b6f8000000000000000000000000000000060801b8516841892505050614300565b60006dffffffffffffffffffffffffffff8660801c166fffffffffffffffffffffffffffffffff169050600083036140c257600192506140d7565b6e010000000000000000000000000000811790505b60006dffffffffffffffffffffffffffff8660801c166fffffffffffffffffffffffffffffffff169050600083036141125760019250614127565b6e010000000000000000000000000000811790505b80820291506000820361419357600060801b6f8000000000000000000000000000000060801b878918166fffffffffffffffffffffffffffffffff19161161417357600060801b614188565b6f8000000000000000000000000000000060801b5b945050505050614300565b828401935060007c02000000000000000000000000000000000000000000000000000000008310156141fa577c01000000000000000000000000000000000000000000000000000000008310156141f2576141ed83615cd7565b6141f5565b60e05b6141fd565b60e15b905061407081860110156142185760009450600092506142c0565b6140e0818601101561425c5761407085101561423d57846140700383901c9250614253565b61407085111561425257614070850383901b92505b5b600094506142bf565b61c0dd818601111561427657617fff9450600092506142be565b607081111561428d576070810383901c92506142a1565b60708110156142a0578060700383901b92505b5b6dffffffffffffffffffffffffffff831692506140df8186010394505b5b5b82607086901b6f8000000000000000000000000000000060801b898b181660801c6fffffffffffffffffffffffffffffffff16171760801b955050505050505b92915050565b60006f800000000000000000000000000000008260801c6fffffffffffffffffffffffffffffffff161115614350576f7fff800000000000000000000000000060801b90506145c1565b6000617fff60708460801c6fffffffffffffffffffffffffffffffff16901c166fffffffffffffffffffffffffffffffff169050617fff810361439657829150506145c1565b60006dffffffffffffffffffffffffffff8460801c166fffffffffffffffffffffffffffffffff169050600082036143d157600191506143e6565b6e010000000000000000000000000000811790505b600081036143fc57600060801b925050506145c1565b600080600184161490506001613fff8401901c9250801561446b576e010000000000000000000000000000821061443957607182901b9150614466565b600061444483615cd7565b9050600060fe8260e2031690508084901b9350600160708203901c8503945050505b6144bb565b6e010000000000000000000000000000821061448d57607082901b91506144ba565b600061449883615cd7565b9050600060fe8260e1031690508084901b9350600160708203901c8503945050505b5b60006e010000000000000000000000000000905060018184816144e1576144e0619cab565b5b048201901c905060018184816144fa576144f9619cab565b5b048201901c9050600181848161451357614512619cab565b5b048201901c9050600181848161452c5761452b619cab565b5b048201901c9050600181848161454557614544619cab565b5b048201901c9050600181848161455e5761455d619cab565b5b048201901c9050600181848161457757614576619cab565b5b048201901c905060008184816145905761458f619cab565b5b0490508181101561459f578091505b6dffffffffffffffffffffffffffff8216607086901b1760801b955050505050505b919050565b600080617fff60708560801c6fffffffffffffffffffffffffffffffff16901c166fffffffffffffffffffffffffffffffff1690506000617fff60708560801c6fffffffffffffffffffffffffffffffff16901c166fffffffffffffffffffffffffffffffff169050617fff820361467f57617fff810361465e576f7fff800000000000000000000000000060801b92505050614a81565b6f8000000000000000000000000000000060801b8416851892505050614a81565b617fff81036146fd57600060801b6dffffffffffffffffffffffffffff60801b85166fffffffffffffffffffffffffffffffff1916146146d6576f7fff800000000000000000000000000060801b92505050614a81565b6f8000000000000000000000000000000060801b84861816600060801b1792505050614a81565b600060801b6f7fffffffffffffffffffffffffffffff60801b85166fffffffffffffffffffffffffffffffff1916036147b657600060801b6f7fffffffffffffffffffffffffffffff60801b86166fffffffffffffffffffffffffffffffff191603614780576f7fff800000000000000000000000000060801b92505050614a81565b6f8000000000000000000000000000000060801b848618166f7fff000000000000000000000000000060801b1792505050614a81565b60006dffffffffffffffffffffffffffff8560801c166fffffffffffffffffffffffffffffffff169050600082036147f15760019150614806565b6e010000000000000000000000000000811790505b60006dffffffffffffffffffffffffffff8760801c166fffffffffffffffffffffffffffffffff16905060008403614869576000811461486457600061484b82615cd7565b60e20390508082901b9150600194506072810384019350505b614882565b60726e0100000000000000000000000000008217901b90505b81818161489257614891619cab565b5b049050600081036148fc57600060801b6f8000000000000000000000000000000060801b878918166fffffffffffffffffffffffffffffffff1916116148dc57600060801b6148f1565b6f8000000000000000000000000000000060801b5b945050505050614a81565b6d100000000000000000000000000081101561491b5761491a61a4bb565b5b60006e08000000000000000000000000000082101561497c576e040000000000000000000000000000821015614971576e02000000000000000000000000000082101561496957607061496c565b60715b614974565b60725b60ff16614986565b61498582615cd7565b5b9050614071840181860111156149a457617fff945060009150614a41565b83613ffc8287010110156149bf576000945060009150614a40565b83613f8c828701011015614a0d5783613ffc860111156149ea5783613ffc86010382901b9150614a04565b83613ffc86011015614a0357613ffc8585030382901c91505b5b60009450614a3f565b6070811115614a20576070810382901c91505b6dffffffffffffffffffffffffffff8216915083613f8d828701010394505b5b5b81607086901b6f8000000000000000000000000000000060801b898b181660801c6fffffffffffffffffffffffffffffffff16171760801b955050505050505b92915050565b600080614b0f8360800151614aee8560400151614acd8760200151614aac6002613dfe565b6fffffffffffffffffffffffffffffffff1916613e7b90919063ffffffff16565b6fffffffffffffffffffffffffffffffff1916613e7b90919063ffffffff16565b6fffffffffffffffffffffffffffffffff19166145c690919063ffffffff16565b90506000614b93614b44856060015186600001516fffffffffffffffffffffffffffffffff1916615db890919063ffffffff16565b614b72866060015187600001516fffffffffffffffffffffffffffffffff191661641090919063ffffffff16565b6fffffffffffffffffffffffffffffffff19166145c690919063ffffffff16565b9050614c64614bd982614bb8856fffffffffffffffffffffffffffffffff1916616439565b6fffffffffffffffffffffffffffffffff1916615db890919063ffffffff16565b614c43614c1d84614bfc876fffffffffffffffffffffffffffffffff1916616439565b6fffffffffffffffffffffffffffffffff191661641090919063ffffffff16565b87600001516fffffffffffffffffffffffffffffffff1916613e7b90919063ffffffff16565b6fffffffffffffffffffffffffffffffff19166145c690919063ffffffff16565b92505050919050565b60006f7fff00000000000000000000000000006f7fffffffffffffffffffffffffffffff8360801c166fffffffffffffffffffffffffffffffff16149050919050565b60006f7fff00000000000000000000000000006f7fffffffffffffffffffffffffffffff8360801c166fffffffffffffffffffffffffffffffff16119050919050565b60008215614d60576001614d36836f401f000276a40000000000000000000060801b6fffffffffffffffffffffffffffffffff191661646790919063ffffffff16565b60000b14614d445781614d59565b6f401f000276a40000000000000000000060801b5b9050614dc1565b6001614d9b6f409efffb12c7dfa3f8d4a0c91092bb2a60801b846fffffffffffffffffffffffffffffffff191661646790919063ffffffff16565b60000b14614da95781614dbe565b6f409efffb12c7dfa3f8d4a0c91092bb2a60801b5b90505b92915050565b600080617fff60708460801c6fffffffffffffffffffffffffffffffff16901c166fffffffffffffffffffffffffffffffff169050613fff811015614e10576000915050614ec0565b6f800000000000000000000000000000008360801c6fffffffffffffffffffffffffffffffff1610614e4157600080fd5b6140fe811115614e5057600080fd5b60006e0100000000000000000000000000006dffffffffffffffffffffffffffff8560801c6fffffffffffffffffffffffffffffffff161617905061406f821015614ea4578161406f0381901c9050614eba565b61406f821115614eb95761406f820381901b90505b5b80925050505b919050565b6000818291508173ffffffffffffffffffffffffffffffffffffffff1614614eec57600080fd5b919050565b60006401000276a373ffffffffffffffffffffffffffffffffffffffff168273ffffffffffffffffffffffffffffffffffffffff161080614f72575073fffd8963efd1fc6a506488495d951d5263988d2673ffffffffffffffffffffffffffffffffffffffff168273ffffffffffffffffffffffffffffffffffffffff1610155b15614fa9576040517f02ad01b600000000000000000000000000000000000000000000000000000000815260040160405180910390fd5b600060208373ffffffffffffffffffffffffffffffffffffffff16901b9050600081905060006fffffffffffffffffffffffffffffffff821160071b808217915082811c92505067ffffffffffffffff821160061b808217915082811c92505063ffffffff821160051b808217915082811c92505061ffff821160041b808217915082811c92505060ff821160031b808217915082811c925050600f821160021b808217915082811c9250506003821160011b808217915082811c925050600182118082179150506080811061508757607f810383901c9150615091565b80607f0383901b91505b6000604060808303901b9050828302607f1c92508260801c80603f1b8217915083811c935050828302607f1c92508260801c80603e1b8217915083811c935050828302607f1c92508260801c80603d1b8217915083811c935050828302607f1c92508260801c80603c1b8217915083811c935050828302607f1c92508260801c80603b1b8217915083811c935050828302607f1c92508260801c80603a1b8217915083811c935050828302607f1c92508260801c8060391b8217915083811c935050828302607f1c92508260801c8060381b8217915083811c935050828302607f1c92508260801c8060371b8217915083811c935050828302607f1c92508260801c8060361b8217915083811c935050828302607f1c92508260801c8060351b8217915083811c935050828302607f1c92508260801c8060341b8217915083811c935050828302607f1c92508260801c8060331b8217915083811c935050828302607f1c92508260801c8060321b82179150506000693627a301d71055774c8582029050600060806f028f6481ab7f045a5af012a19d003aaa8303901d9050600060806fdb2df09e81959a81455e260799a0632f8401901d90508060020b8260020b146152a1578873ffffffffffffffffffffffffffffffffffffffff16615278826137c9565b73ffffffffffffffffffffffffffffffffffffffff16111561529a578161529c565b805b6152a3565b815b975050505050505050919050565b60008060008460020b8660020b816152cc576152cb619cab565b5b05905060008660020b1280156152fc575060008560020b8760020b816152f5576152f4619cab565b5b0760020b14155b1561530b578080600190039150505b83156153815760008061531d836166f6565b9150915060008160ff166001901b60018360ff166001901b030190506000816153478d8d87616720565b169050600081141595508561536357888360ff16860302615376565b8861536d82616808565b840360ff168603025b9650505050506153f1565b600080615390600184016166f6565b91509150600060018260ff166001901b031990506000816153b28d8d87616720565b16905060008114159550856153d457888360ff0360ff166001870101026153ea565b88836153df836168e3565b0360ff166001870101025b9650505050505b509550959350505050565b60008061540884613dfe565b9050600061541584613dfe565b905060006154388873ffffffffffffffffffffffffffffffffffffffff16613dfe565b9050600061545b8873ffffffffffffffffffffffffffffffffffffffff16613dfe565b905060006154d86f405f000000000000000000000000000060801b6154b761549f88886fffffffffffffffffffffffffffffffff19166145c690919063ffffffff16565b6fffffffffffffffffffffffffffffffff1916614306565b6fffffffffffffffffffffffffffffffff1916613e7b90919063ffffffff16565b9050600061551d61550586886fffffffffffffffffffffffffffffffff1916613e7b90919063ffffffff16565b6fffffffffffffffffffffffffffffffff1916614306565b9050600061552c838686616a0a565b9050600061555e61553c8f613dfe565b836fffffffffffffffffffffffffffffffff1916613e7b90919063ffffffff16565b90506000615591846155706002613dfe565b6fffffffffffffffffffffffffffffffff1916613e7b90919063ffffffff16565b905061560c6155f4826155d36f405f000000000000000000000000000060801b866fffffffffffffffffffffffffffffffff1916613e7b90919063ffffffff16565b6fffffffffffffffffffffffffffffffff19166145c690919063ffffffff16565b6fffffffffffffffffffffffffffffffff1916614dc7565b995050505050505050505095945050505050565b600080615651836000015184602001516fffffffffffffffffffffffffffffffff1916613e7b90919063ffffffff16565b9050600061571984604001516156f861568e876060015188608001516fffffffffffffffffffffffffffffffff191661641090919063ffffffff16565b6156d76156b189602001516fffffffffffffffffffffffffffffffff1916614306565b8960a001516fffffffffffffffffffffffffffffffff1916613e7b90919063ffffffff16565b6fffffffffffffffffffffffffffffffff1916613e7b90919063ffffffff16565b6fffffffffffffffffffffffffffffffff19166145c690919063ffffffff16565b905061574181836fffffffffffffffffffffffffffffffff191661641090919063ffffffff16565b92505050919050565b60008061577b836020015184600001516fffffffffffffffffffffffffffffffff19166145c690919063ffffffff16565b9050600061585b846040015161583a6157c861579a8860600151616b3f565b6157a78960800151616b3f565b6fffffffffffffffffffffffffffffffff191661641090919063ffffffff16565b6158196157f36157ee8a602001516fffffffffffffffffffffffffffffffff1916614306565b616b3f565b8960a001516fffffffffffffffffffffffffffffffff1916613e7b90919063ffffffff16565b6fffffffffffffffffffffffffffffffff1916613e7b90919063ffffffff16565b6fffffffffffffffffffffffffffffffff19166145c690919063ffffffff16565b905061588381836fffffffffffffffffffffffffffffffff191661641090919063ffffffff16565b92505050919050565b6000811561593d57600073ffffffffffffffffffffffffffffffffffffffff80168411156158e3576158de846c01000000000000000000000000876fffffffffffffffffffffffffffffffff16615b93565b615909565b846fffffffffffffffffffffffffffffffff16606060ff1685901b615908919061a388565b5b9050615935818773ffffffffffffffffffffffffffffffffffffffff16615930919061983d565b614ec5565b9150506159fa565b600073ffffffffffffffffffffffffffffffffffffffff801684111561598c57615987846c01000000000000000000000000876fffffffffffffffffffffffffffffffff16615c5f565b6159b0565b6159af606060ff1685901b866fffffffffffffffffffffffffffffffff16615cc4565b5b9050808673ffffffffffffffffffffffffffffffffffffffff16116159d457600080fd5b808673ffffffffffffffffffffffffffffffffffffffff166159f69190619d07565b9150505b949350505050565b6000808303615a1357849050615b8b565b6000606060ff16856fffffffffffffffffffffffffffffffff16901b90508215615afb5760008673ffffffffffffffffffffffffffffffffffffffff16858873ffffffffffffffffffffffffffffffffffffffff16870292508281615a7b57615a7a619cab565b5b0403615abc5760008183019050828110615aba57615ab0838973ffffffffffffffffffffffffffffffffffffffff1683615c5f565b9350505050615b8b565b505b50615af381858873ffffffffffffffffffffffffffffffffffffffff1684615ae4919061a388565b615aee919061983d565b615cc4565b915050615b8b565b60008673ffffffffffffffffffffffffffffffffffffffff16858873ffffffffffffffffffffffffffffffffffffffff16870292508281615b3f57615b3e619cab565b5b04148015615b4c57508082115b615b5557600080fd5b60008183039050615b85615b80848a73ffffffffffffffffffffffffffffffffffffffff1684615c5f565b614ec5565b93505050505b949350505050565b60008083850290506000801985870982811083820303915050808411615bb857600080fd5b60008103615bcc5783820492505050615c58565b600084868809905082811182039150808303925060008586600003169050808604955080840493506001818260000304019050808302841793506000600287600302189050808702600203810290508087026002038102905080870260020381029050808702600203810290508087026002038102905080870260020381029050808502955050505050505b9392505050565b6000615c6c848484615b93565b905060008280615c7f57615c7e619cab565b5b8486091115615cbd577fffffffffffffffffffffffffffffffffffffffffffffffffffffffffffffffff8110615cb457600080fd5b80806001019150505b9392505050565b6000808284061182840401905092915050565b6000808211615ce557600080fd5b60007001000000000000000000000000000000008310615d0d57608083901c92506080810190505b680100000000000000008310615d2b57604083901c92506040810190505b6401000000008310615d4557602083901c92506020810190505b620100008310615d5d57601083901c92506010810190505b6101008310615d7457600883901c92506008810190505b60108310615d8a57600483901c92506004810190505b60048310615da057600283901c92506002810190505b60028310615daf576001810190505b80915050919050565b600080617fff60708560801c6fffffffffffffffffffffffffffffffff16901c166fffffffffffffffffffffffffffffffff1690506000617fff60708560801c6fffffffffffffffffffffffffffffffff16901c166fffffffffffffffffffffffffffffffff169050617fff8203615e9157617fff8103615e8757836fffffffffffffffffffffffffffffffff1916856fffffffffffffffffffffffffffffffff191603615e6a57849250505061640a565b6f7fff800000000000000000000000000060801b9250505061640a565b849250505061640a565b617fff8103615ea457839250505061640a565b60006f800000000000000000000000000000008660801c6fffffffffffffffffffffffffffffffff161015905060006dffffffffffffffffffffffffffff8760801c166fffffffffffffffffffffffffffffffff16905060008403615f0c5760019350615f21565b6e010000000000000000000000000000811790505b60006f800000000000000000000000000000008760801c6fffffffffffffffffffffffffffffffff161015905060006dffffffffffffffffffffffffffff8860801c166fffffffffffffffffffffffffffffffff16905060008503615f895760019450615f9e565b6e010000000000000000000000000000811790505b60008303615fff576f8000000000000000000000000000000060801b6fffffffffffffffffffffffffffffffff1916886fffffffffffffffffffffffffffffffff191614615fec5787615ff2565b600060801b5b965050505050505061640a565b60008103616060576f8000000000000000000000000000000060801b6fffffffffffffffffffffffffffffffff1916896fffffffffffffffffffffffffffffffff19161461604d5788616053565b600060801b5b965050505050505061640a565b60008587039050821515851515036161dc57607081131561608a578997505050505050505061640a565b600081131561609e578082901c91506160ec565b7fffffffffffffffffffffffffffffffffffffffffffffffffffffffffffffff908112156160d5578897505050505050505061640a565b60008112156160eb578060000384901c93508596505b5b81840193506e020000000000000000000000000000841061611557600184901c93506001870196505b617fff870361615f578461613c576f7fff000000000000000000000000000060801b616151565b6fffff000000000000000000000000000060801b5b97505050505050505061640a565b6e01000000000000000000000000000084101561617f5760009650616193565b6dffffffffffffffffffffffffffff841693505b83607088901b866161a55760006161b7565b6f800000000000000000000000000000005b6fffffffffffffffffffffffffffffffff16171760801b97505050505050505061640a565b60008113156161f757600184901b935060018703965061620f565b600081121561620e57600182901b91506001860396505b5b607081131561622157600191506162ab565b600181131561623d57600180820360018403901c0191506162aa565b7fffffffffffffffffffffffffffffffffffffffffffffffffffffffffffffff9081121561626e57600193506162a9565b7fffffffffffffffffffffffffffffffffffffffffffffffffffffffffffffffff8112156162a857600180826000030360018603901c0193505b5b5b5b8184106162bc5781840393506162c5565b83820393508294505b600084036162e057600060801b97505050505050505061640a565b60006162eb85615cd7565b905060718103616317576dffffffffffffffffffffffffffff600186901c169450600188019750616379565b607081101561636457600081607003905080891115616350576dffffffffffffffffffffffffffff8187901b169550808903985061635e565b6001890386901b9550600098505b50616378565b6dffffffffffffffffffffffffffff851694505b5b617fff88036163c457856163a0576f7fff000000000000000000000000000060801b6163b5565b6fffff000000000000000000000000000060801b5b9850505050505050505061640a565b84607089901b876163d65760006163e8565b6f800000000000000000000000000000005b6fffffffffffffffffffffffffffffffff16171760801b985050505050505050505b92915050565b6000616431836f8000000000000000000000000000000060801b8418615db8565b905092915050565b600061646061645b836f3fff71547652b82fe1777d0ffda0d23a60801b613e7b565b616b81565b9050919050565b6000806f7fffffffffffffffffffffffffffffff8460801c1690506f7fff0000000000000000000000000000816fffffffffffffffffffffffffffffffff1611156164b157600080fd5b60006f7fffffffffffffffffffffffffffffff8460801c1690506f7fff0000000000000000000000000000816fffffffffffffffffffffffffffffffff1611156164fa57600080fd5b836fffffffffffffffffffffffffffffffff1916856fffffffffffffffffffffffffffffffff191614158061655057506f7fff0000000000000000000000000000826fffffffffffffffffffffffffffffffff16105b61655957600080fd5b836fffffffffffffffffffffffffffffffff1916856fffffffffffffffffffffffffffffffff191603616591576000925050506166f0565b60006f800000000000000000000000000000008660801c6fffffffffffffffffffffffffffffffff161015905060006f800000000000000000000000000000008660801c6fffffffffffffffffffffffffffffffff1610159050811561668257801561665657826fffffffffffffffffffffffffffffffff16846fffffffffffffffffffffffffffffffff161161662957600161664b565b7fffffffffffffffffffffffffffffffffffffffffffffffffffffffffffffffff5b9450505050506166f0565b7fffffffffffffffffffffffffffffffffffffffffffffffffffffffffffffffff9450505050506166f0565b80156166955760019450505050506166f0565b826fffffffffffffffffffffffffffffffff16846fffffffffffffffffffffffffffffffff16116166e6577fffffffffffffffffffffffffffffffffffffffffffffffffffffffffffffffff6166e9565b60015b9450505050505b92915050565b60008060088360020b901d91506101008360020b8161671857616717619cab565b5b079050915091565b60008373ffffffffffffffffffffffffffffffffffffffff16631e2eaeaf83600586600a60405160200161675592919061a3b9565b6040516020818303038152906040528051906020012060001c616778919061983d565b60405160200161678992919061a506565b604051602081830303815290604052805190602001206040518263ffffffff1660e01b81526004016167bb919061923d565b602060405180830381865afa1580156167d8573d6000803e3d6000fd5b505050506040513d601f19601f820116820180604052508101906167fc919061a446565b60001c90509392505050565b600080821161681657600080fd5b700100000000000000000000000000000000821061683c57608082901c91506080810190505b68010000000000000000821061685a57604082901c91506040810190505b640100000000821061687457602082901c91506020810190505b62010000821061688c57601082901c91506010810190505b61010082106168a357600882901c91506008810190505b601082106168b957600482901c91506004810190505b600482106168cf57600282901c91506002810190505b600282106168de576001810190505b919050565b60008082116168f157600080fd5b60ff905060006fffffffffffffffffffffffffffffffff80168316111561691d57608081039050616925565b608082901c91505b600067ffffffffffffffff8016831611156169455760408103905061694d565b604082901c91505b600063ffffffff80168316111561696957602081039050616971565b602082901c91505b600061ffff80168316111561698b57601081039050616993565b601082901c91505b600060ff8016831611156169ac576008810390506169b4565b600882901c91505b6000600f831611156169cb576004810390506169d3565b600482901c91505b60006003831611156169ea576002810390506169f2565b600282901c91505b6000600183161115616a05576001810390505b919050565b600080616a7d616a3684876fffffffffffffffffffffffffffffffff191661641090919063ffffffff16565b616a5c85886fffffffffffffffffffffffffffffffff1916615db890919063ffffffff16565b6fffffffffffffffffffffffffffffffff19166145c690919063ffffffff16565b90506000616af1616aaa86886fffffffffffffffffffffffffffffffff1916615db890919063ffffffff16565b616ad087896fffffffffffffffffffffffffffffffff191661641090919063ffffffff16565b6fffffffffffffffffffffffffffffffff19166145c690919063ffffffff16565b9050616b34616b1c82846fffffffffffffffffffffffffffffffff1916613e7b90919063ffffffff16565b6fffffffffffffffffffffffffffffffff1916618528565b925050509392505050565b6000616b7a826f3fff000000000000000000000000000060801b6fffffffffffffffffffffffffffffffff19166145c690919063ffffffff16565b9050919050565b6000806f800000000000000000000000000000008360801c6fffffffffffffffffffffffffffffffff161190506000617fff60708560801c6fffffffffffffffffffffffffffffffff16901c166fffffffffffffffffffffffffffffffff16905060006dffffffffffffffffffffffffffff8560801c166fffffffffffffffffffffffffffffffff169050617fff82148015616c1e575060008114155b15616c41576f7fff800000000000000000000000000060801b9350505050618523565b61400d821115616c795782616c69576f7fff000000000000000000000000000060801b616c6f565b600060801b5b9350505050618523565b613f7f821015616ca1576f3fff000000000000000000000000000060801b9350505050618523565b60008203616cb25760019150616cc7565b6e010000000000000000000000000000811790505b613fef821115616ce057613fef820381901b9050616cf6565b613fef821015616cf55781613fef0381901c90505b5b828015616d14575071406e0000000000000000000000000000000081115b15616d2857600060801b9350505050618523565b82158015616d475750713fffffffffffffffffffffffffffffffffff81115b15616d6a576f7fff000000000000000000000000000060801b9350505050618523565b6000608082901c90506fffffffffffffffffffffffffffffffff82169150838015616d96575060008214155b15616da657811991506001810190505b60006f80000000000000000000000000000000905060006f8000000000000000000000000000000084161115616df157608070016a09e667f3bcc908b2fb1366ea957d3e8202901c90505b60006f4000000000000000000000000000000084161115616e275760807001306fe0a31b7152de8d5a46305c85edec8202901c90505b60006f2000000000000000000000000000000084161115616e5d5760807001172b83c7d517adcdf7c8c50eb14a791f8202901c90505b60006f1000000000000000000000000000000084161115616e9357608070010b5586cf9890f6298b92b71842a983638202901c90505b60006f0800000000000000000000000000000084161115616ec95760807001059b0d31585743ae7c548eb68ca417fd8202901c90505b60006f0400000000000000000000000000000084161115616eff576080700102c9a3e778060ee6f7caca4f7a29bde88202901c90505b60006f0200000000000000000000000000000084161115616f3557608070010163da9fb33356d84a66ae336dcdfa3f8202901c90505b60006f0100000000000000000000000000000084161115616f6b576080700100b1afa5abcbed6129ab13ec11dc95438202901c90505b60006e80000000000000000000000000000084161115616fa057608070010058c86da1c09ea1ff19d294cf2f679b8202901c90505b60006e40000000000000000000000000000084161115616fd55760807001002c605e2e8cec506d21bfc89a23a00f8202901c90505b60006e2000000000000000000000000000008416111561700a576080700100162f3904051fa128bca9c55c31e5df8202901c90505b60006e1000000000000000000000000000008416111561703f5760807001000b175effdc76ba38e31671ca9397258202901c90505b60006e08000000000000000000000000000084161115617074576080700100058ba01fb9f96d6cacd4b180917c3d8202901c90505b60006e040000000000000000000000000000841611156170a957608070010002c5cc37da9491d0985c348c68e7b38202901c90505b60006e020000000000000000000000000000841611156170de5760807001000162e525ee054754457d59952920268202901c90505b60006e0100000000000000000000000000008416111561711357608070010000b17255775c040618bf4a4ade83fc8202901c90505b60006d8000000000000000000000000000841611156171475760807001000058b91b5bc9ae2eed81e9b7d4cfab8202901c90505b60006d40000000000000000000000000008416111561717b576080700100002c5c89d5ec6ca4d7c8acc017b7c98202901c90505b60006d2000000000000000000000000000841611156171af57608070010000162e43f4f831060e02d839a9d16d8202901c90505b60006d1000000000000000000000000000841611156171e3576080700100000b1721bcfc99d9f890ea069117638202901c90505b60006d08000000000000000000000000008416111561721757608070010000058b90cf1e6d97f9ca14dbcc16288202901c90505b60006d04000000000000000000000000008416111561724b5760807001000002c5c863b73f016468f6bac5ca2b8202901c90505b60006d02000000000000000000000000008416111561727f576080700100000162e430e5a18f6119e3c02282a58202901c90505b60006d0100000000000000000000000000841611156172b35760807001000000b1721835514b86e6d96efd1bfe8202901c90505b60006c80000000000000000000000000841611156172e6576080700100000058b90c0b48c6be5df846c5b2ef8202901c90505b60006c400000000000000000000000008416111561731957608070010000002c5c8601cc6b9e94213c72737a8202901c90505b60006c200000000000000000000000008416111561734c5760807001000000162e42fff037df38aa2b219f068202901c90505b60006c100000000000000000000000008416111561737f57608070010000000b17217fba9c739aa5819f44f98202901c90505b60006c08000000000000000000000000841611156173b25760807001000000058b90bfcdee5acd3c1cedc8238202901c90505b60006c04000000000000000000000000841611156173e5576080700100000002c5c85fe31f35a6a30da1be508202901c90505b60006c020000000000000000000000008416111561741857608070010000000162e42ff0999ce3541b9fffcf8202901c90505b60006c010000000000000000000000008416111561744b576080700100000000b17217f80f4ef5aadda455548202901c90505b60006b8000000000000000000000008416111561747d57608070010000000058b90bfbf8479bd5a81b51ad8202901c90505b60006b400000000000000000000000841611156174af5760807001000000002c5c85fdf84bd62ae30a74cc8202901c90505b60006b200000000000000000000000841611156174e1576080700100000000162e42fefb2fed257559bdaa8202901c90505b60006b100000000000000000000000841611156175135760807001000000000b17217f7d5a7716bba4a9ae8202901c90505b60006b08000000000000000000000084161115617545576080700100000000058b90bfbe9ddbac5e109cce8202901c90505b60006b0400000000000000000000008416111561757757608070010000000002c5c85fdf4b15de6f17eb0d8202901c90505b60006b020000000000000000000000841611156175a95760807001000000000162e42fefa494f1478fde058202901c90505b60006b010000000000000000000000841611156175db57608070010000000000b17217f7d20cf927c8e94c8202901c90505b60006a80000000000000000000008416111561760c5760807001000000000058b90bfbe8f71cb4e4b33d8202901c90505b60006a40000000000000000000008416111561763d576080700100000000002c5c85fdf477b662b269458202901c90505b60006a20000000000000000000008416111561766e57608070010000000000162e42fefa3ae53369388c8202901c90505b60006a10000000000000000000008416111561769f576080700100000000000b17217f7d1d351a389d408202901c90505b60006a0800000000000000000000841611156176d057608070010000000000058b90bfbe8e8b2d3d4ede8202901c90505b60006a0400000000000000000000841611156177015760807001000000000002c5c85fdf4741bea6e77e8202901c90505b60006a020000000000000000000084161115617732576080700100000000000162e42fefa39fe95583c28202901c90505b60006a0100000000000000000000841611156177635760807001000000000000b17217f7d1cfb72b45e18202901c90505b6000698000000000000000000084161115617793576080700100000000000058b90bfbe8e7cc35c3f08202901c90505b60006940000000000000000000841611156177c357608070010000000000002c5c85fdf473e242ea388202901c90505b60006920000000000000000000841611156177f35760807001000000000000162e42fefa39f02b772c8202901c90505b600069100000000000000000008416111561782357608070010000000000000b17217f7d1cf7d83c1a8202901c90505b60006908000000000000000000841611156178535760807001000000000000058b90bfbe8e7bdcbe2e8202901c90505b6000690400000000000000000084161115617883576080700100000000000002c5c85fdf473dea871f8202901c90505b60006902000000000000000000841611156178b357608070010000000000000162e42fefa39ef44d918202901c90505b60006901000000000000000000841611156178e3576080700100000000000000b17217f7d1cf79e9498202901c90505b6000688000000000000000008416111561791257608070010000000000000058b90bfbe8e7bce5448202901c90505b600068400000000000000000841611156179415760807001000000000000002c5c85fdf473de6eca8202901c90505b60006820000000000000000084161115617970576080700100000000000000162e42fefa39ef366f8202901c90505b6000681000000000000000008416111561799f5760807001000000000000000b17217f7d1cf79afa8202901c90505b600068080000000000000000841611156179ce576080700100000000000000058b90bfbe8e7bcd6d8202901c90505b600068040000000000000000841611156179fd57608070010000000000000002c5c85fdf473de6b28202901c90505b60006802000000000000000084161115617a2c5760807001000000000000000162e42fefa39ef3588202901c90505b60006801000000000000000084161115617a5b57608070010000000000000000b17217f7d1cf79ab8202901c90505b600067800000000000000084161115617a895760807001000000000000000058b90bfbe8e7bcd58202901c90505b600067400000000000000084161115617ab7576080700100000000000000002c5c85fdf473de6a8202901c90505b600067200000000000000084161115617ae557608070010000000000000000162e42fefa39ef348202901c90505b600067100000000000000084161115617b13576080700100000000000000000b17217f7d1cf7998202901c90505b600067080000000000000084161115617b4157608070010000000000000000058b90bfbe8e7bcc8202901c90505b600067040000000000000084161115617b6f5760807001000000000000000002c5c85fdf473de58202901c90505b600067020000000000000084161115617b9d576080700100000000000000000162e42fefa39ef28202901c90505b600067010000000000000084161115617bcb5760807001000000000000000000b17217f7d1cf788202901c90505b6000668000000000000084161115617bf8576080700100000000000000000058b90bfbe8e7bb8202901c90505b6000664000000000000084161115617c2557608070010000000000000000002c5c85fdf473dd8202901c90505b6000662000000000000084161115617c525760807001000000000000000000162e42fefa39ee8202901c90505b6000661000000000000084161115617c7f57608070010000000000000000000b17217f7d1cf68202901c90505b6000660800000000000084161115617cac5760807001000000000000000000058b90bfbe8e7a8202901c90505b6000660400000000000084161115617cd9576080700100000000000000000002c5c85fdf473c8202901c90505b6000660200000000000084161115617d0657608070010000000000000000000162e42fefa39d8202901c90505b6000660100000000000084161115617d33576080700100000000000000000000b17217f7d1ce8202901c90505b60006580000000000084161115617d5f57608070010000000000000000000058b90bfbe8e68202901c90505b60006540000000000084161115617d8b5760807001000000000000000000002c5c85fdf4728202901c90505b60006520000000000084161115617db7576080700100000000000000000000162e42fefa388202901c90505b60006510000000000084161115617de35760807001000000000000000000000b17217f7d1b8202901c90505b60006508000000000084161115617e0f576080700100000000000000000000058b90bfbe8d8202901c90505b60006504000000000084161115617e3b57608070010000000000000000000002c5c85fdf468202901c90505b60006502000000000084161115617e675760807001000000000000000000000162e42fefa28202901c90505b60006501000000000084161115617e9357608070010000000000000000000000b17217f7d08202901c90505b600064800000000084161115617ebe5760807001000000000000000000000058b90bfbe78202901c90505b600064400000000084161115617ee9576080700100000000000000000000002c5c85fdf38202901c90505b600064200000000084161115617f1457608070010000000000000000000000162e42fef98202901c90505b600064100000000084161115617f3f576080700100000000000000000000000b17217f7c8202901c90505b600064080000000084161115617f6a57608070010000000000000000000000058b90bfbd8202901c90505b600064040000000084161115617f955760807001000000000000000000000002c5c85fde8202901c90505b600064020000000084161115617fc0576080700100000000000000000000000162e42fee8202901c90505b600064010000000084161115617feb5760807001000000000000000000000000b17217f68202901c90505b6000638000000084161115618015576080700100000000000000000000000058b90bfa8202901c90505b600063400000008416111561803f57608070010000000000000000000000002c5c85fc8202901c90505b60006320000000841611156180695760807001000000000000000000000000162e42fd8202901c90505b600063100000008416111561809357608070010000000000000000000000000b17217e8202901c90505b60006308000000841611156180bd5760807001000000000000000000000000058b90be8202901c90505b60006304000000841611156180e7576080700100000000000000000000000002c5c85e8202901c90505b600063020000008416111561811157608070010000000000000000000000000162e42e8202901c90505b600063010000008416111561813b576080700100000000000000000000000000b172168202901c90505b6000628000008416111561816457608070010000000000000000000000000058b90a8202901c90505b6000624000008416111561818d5760807001000000000000000000000000002c5c848202901c90505b600062200000841611156181b6576080700100000000000000000000000000162e418202901c90505b600062100000841611156181df5760807001000000000000000000000000000b17208202901c90505b60006208000084161115618208576080700100000000000000000000000000058b8f8202901c90505b6000620400008416111561823157608070010000000000000000000000000002c5c78202901c90505b6000620200008416111561825a5760807001000000000000000000000000000162e38202901c90505b6000620100008416111561828357608070010000000000000000000000000000b1718202901c90505b6000618000841611156182ab5760807001000000000000000000000000000058b88202901c90505b6000614000841611156182d3576080700100000000000000000000000000002c5b8202901c90505b6000612000841611156182fb57608070010000000000000000000000000000162d8202901c90505b600061100084161115618323576080700100000000000000000000000000000b168202901c90505b60006108008416111561834b57608070010000000000000000000000000000058a8202901c90505b6000610400841611156183735760807001000000000000000000000000000002c48202901c90505b60006102008416111561839b5760807001000000000000000000000000000001618202901c90505b6000610100841611156183c35760807001000000000000000000000000000000b08202901c90505b60006080841611156183ea5760807001000000000000000000000000000000578202901c90505b600060408416111561841157608070010000000000000000000000000000002b8202901c90505b60006020841611156184385760807001000000000000000000000000000000158202901c90505b600060108416111561845f57608070010000000000000000000000000000000a8202901c90505b60006008841611156184865760807001000000000000000000000000000000048202901c90505b60006004841611156184ad5760807001000000000000000000000000000000018202901c90505b846184d5576dffffffffffffffffffffffffffff600f82901c169050613fff82019150618511565b613ffe8211618501576dffffffffffffffffffffffffffff600f82901c16905081613fff039150618510565b613fef820381901c9050600091505b5b80607083901b1760801b955050505050505b919050565b600061854f61853683618556565b6f3ffe62e42fefa39ef35793c7673007e560801b613e7b565b9050919050565b60006f800000000000000000000000000000008260801c6fffffffffffffffffffffffffffffffff1611156185a0576f7fff800000000000000000000000000060801b9050618804565b6f3fff000000000000000000000000000060801b826fffffffffffffffffffffffffffffffff1916036185d957600060801b9050618804565b6000617fff60708460801c6fffffffffffffffffffffffffffffffff16901c166fffffffffffffffffffffffffffffffff169050617fff810361861f5782915050618804565b60006dffffffffffffffffffffffffffff8460801c166fffffffffffffffffffffffffffffffff1690506000820361865a576001915061866f565b6e010000000000000000000000000000811790505b60008103618694576fffff000000000000000000000000000060801b92505050618804565b60008061406f90506000613fff85106186be5760009250613fff85039050600f84901b935061870b565b600192506e01000000000000000000000000000084106186eb5784613ffe039050600f84901b935061870a565b60006186f685615cd7565b90508061406d03915080607f0385901b9450505b5b6f80000000000000000000000000000000840361875057821561872f576001810190505b600061873a82615cd7565b60700390508082901b91508083039250506187b1565b60008361875e576000618761565b60015b60ff1690505b6e0100000000000000000000000000008210156187af57600182901b91506001830392508485029450600060ff86901c90508181188301925080607f0186901c955050618767565b505b6dffffffffffffffffffffffffffff8116607083901b846187d35760006187e5565b6f800000000000000000000000000000005b6fffffffffffffffffffffffffffffffff16171760801b955050505050505b919050565b6040518061010001604052806000151581526020016000151581526020016000151581526020016000151581526020016000151581526020016000151581526020016000151581526020016000151581525090565b604051806040016040528060008152602001600081525090565b6040518060400160405280600073ffffffffffffffffffffffffffffffffffffffff16815260200160006fffffffffffffffffffffffffffffffff1681525090565b6000604051905090565b600080fd5b600080fd5b600080fd5b6000601f19601f8301169050919050565b7f4e487b7100000000000000000000000000000000000000000000000000000000600052604160045260246000fd5b61891c826188d3565b810181811067ffffffffffffffff8211171561893b5761893a6188e4565b5b80604052505050565b600061894e6188ba565b905061895a8282618913565b919050565b600073ffffffffffffffffffffffffffffffffffffffff82169050919050565b600061898a8261895f565b9050919050565b61899a8161897f565b81146189a557600080fd5b50565b6000813590506189b781618991565b92915050565b600062ffffff82169050919050565b6189d5816189bd565b81146189e057600080fd5b50565b6000813590506189f2816189cc565b92915050565b60008160020b9050919050565b618a0e816189f8565b8114618a1957600080fd5b50565b600081359050618a2b81618a05565b92915050565b6000618a3c8261897f565b9050919050565b618a4c81618a31565b8114618a5757600080fd5b50565b600081359050618a6981618a43565b92915050565b600060a08284031215618a8557618a846188ce565b5b618a8f60a0618944565b90506000618a9f848285016189a8565b6000830152506020618ab3848285016189a8565b6020830152506040618ac7848285016189e3565b6040830152506060618adb84828501618a1c565b6060830152506080618aef84828501618a5a565b60808301525092915050565b618b048161897f565b8114618b0f57600080fd5b50565b600081359050618b2181618afb565b92915050565b618b308161895f565b8114618b3b57600080fd5b50565b600081359050618b4d81618b27565b92915050565b60008115159050919050565b618b6881618b53565b8114618b7357600080fd5b50565b600081359050618b8581618b5f565b92915050565b600060608284031215618ba157618ba06188ce565b5b618bab6060618944565b90506000618bbb84828501618b12565b6000830152506020618bcf84828501618b3e565b6020830152506040618be384828501618b76565b60408301525092915050565b6000819050919050565b618c0281618bef565b8114618c0d57600080fd5b50565b600081359050618c1f81618bf9565b92915050565b60008060006101208486031215618c3f57618c3e6188c4565b5b6000618c4d86828701618a6f565b93505060a0618c5e86828701618b8b565b925050610100618c7086828701618c10565b9150509250925092565b6000819050919050565b618c8d81618c7a565b82525050565b6000604082019050618ca86000830185618c84565b618cb56020830184618c84565b9392505050565b6000819050919050565b618ccf81618cbc565b8114618cda57600080fd5b50565b600081359050618cec81618cc6565b92915050565b600060208284031215618d0857618d076188c4565b5b6000618d1684828501618cdd565b91505092915050565b6000602082019050618d346000830184618c84565b92915050565b600080fd5b600060a08284031215618d5557618d54618d3a565b5b81905092915050565b600060608284031215618d7457618d73618d3a565b5b81905092915050565b618d8681618bef565b8114618d9157600080fd5b50565b600081359050618da381618d7d565b92915050565b600080fd5b600080fd5b600080fd5b60008083601f840112618dce57618dcd618da9565b5b8235905067ffffffffffffffff811115618deb57618dea618dae565b5b602083019150836001820283011115618e0757618e06618db3565b5b9250929050565b6000806000806000806101608789031215618e2c57618e2b6188c4565b5b6000618e3a89828a01618b12565b9650506020618e4b89828a01618d3f565b95505060c0618e5c89828a01618d5e565b945050610120618e6e89828a01618d94565b93505061014087013567ffffffffffffffff811115618e9057618e8f6188c9565b5b618e9c89828a01618db8565b92509250509295509295509295565b60007fffffffff0000000000000000000000000000000000000000000000000000000082169050919050565b618ee081618eab565b82525050565b6000602082019050618efb6000830184618ed7565b92915050565b60008060008060006101008688031215618f1e57618f1d6188c4565b5b6000618f2c88828901618b12565b9550506020618f3d88828901618d3f565b94505060c0618f4e88828901618b3e565b93505060e086013567ffffffffffffffff811115618f6f57618f6e6188c9565b5b618f7b88828901618db8565b92509250509295509295909350565b600060608284031215618fa057618f9f618d3a565b5b81905092915050565b60008060008060006101408688031215618fc657618fc56188c4565b5b6000618fd488828901618b12565b9550506020618fe588828901618d3f565b94505060c0618ff688828901618f8a565b93505061012086013567ffffffffffffffff811115619018576190176188c9565b5b61902488828901618db8565b92509250509295509295909350565b600060a08284031215619049576190486188c4565b5b600061905784828501618a6f565b91505092915050565b61906981618b53565b82525050565b610100820160008201516190866000850182619060565b5060208201516190996020850182619060565b5060408201516190ac6040850182619060565b5060608201516190bf6060850182619060565b5060808201516190d26080850182619060565b5060a08201516190e560a0850182619060565b5060c08201516190f860c0850182619060565b5060e082015161910b60e0850182619060565b50505050565b600061010082019050619127600083018461906f565b92915050565b60008060408385031215619144576191436188c4565b5b6000619152858286016189a8565b925050602061916385828601618b12565b9150509250929050565b60008060c08385031215619184576191836188c4565b5b600061919285828601618d3f565b92505060a06191a385828601618b76565b9150509250929050565b6191b681618c7a565b81146191c157600080fd5b50565b6000813590506191d3816191ad565b92915050565b600080600061012084860312156191f3576191f26188c4565b5b600061920186828701618d3f565b93505060a061921286828701618b8b565b925050610100619224868287016191c4565b9150509250925092565b61923781618cbc565b82525050565b6000602082019050619252600083018461922e565b92915050565b600080600060608486031215619271576192706188c4565b5b600061927f868287016189a8565b935050602061929086828701618b12565b92505060406192a1868287016191c4565b9150509250925092565b60008060008060008061012087890312156192c9576192c86188c4565b5b60006192d789828a01618b12565b96505060206192e889828a01618d3f565b95505060c06192f989828a01618b3e565b94505060e061930a89828a01618a1c565b93505061010087013567ffffffffffffffff81111561932c5761932b6188c9565b5b61933889828a01618db8565b92509250509295509295509295565b6000806020838503121561935e5761935d6188c4565b5b600083013567ffffffffffffffff81111561937c5761937b6188c9565b5b61938885828601618db8565b92509250509250929050565b600081519050919050565b600082825260208201905092915050565b60005b838110156193ce5780820151818401526020810190506193b3565b60008484015250505050565b60006193e582619394565b6193ef818561939f565b93506193ff8185602086016193b0565b619408816188d3565b840191505092915050565b6000602082019050818103600083015261942d81846193da565b905092915050565b6000806000806000806101608789031215619453576194526188c4565b5b600061946189828a01618b12565b965050602061947289828a01618d3f565b95505060c061948389828a01618f8a565b94505061012061949589828a01618d94565b93505061014087013567ffffffffffffffff8111156194b7576194b66188c9565b5b6194c389828a01618db8565b92509250509295509295509295565b60008060008060008061012087890312156194f0576194ef6188c4565b5b60006194fe89828a01618b12565b965050602061950f89828a01618d3f565b95505060c061952089828a016191c4565b94505060e061953189828a016191c4565b93505061010087013567ffffffffffffffff811115619553576195526188c9565b5b61955f89828a01618db8565b92509250509295509295509295565b60006060828403121561958457619583618d3a565b5b81905092915050565b60008061010083850312156195a5576195a46188c4565b5b60006195b385828601618d3f565b92505060a06195c48582860161956e565b9150509250929050565b6195d781618c7a565b82525050565b6040820160008201516195f360008501826195ce565b50602082015161960660208501826195ce565b50505050565b600060408201905061962160008301846195dd565b92915050565b6000819050919050565b600061964c6196476196428461895f565b619627565b61895f565b9050919050565b600061965e82619631565b9050919050565b600061967082619653565b9050919050565b61968081619665565b82525050565b600060208201905061969b6000830184619677565b92915050565b600080600080600061014086880312156196be576196bd6188c4565b5b60006196cc88828901618b12565b95505060206196dd88828901618d3f565b94505060c06196ee88828901618d5e565b93505061012086013567ffffffffffffffff8111156197105761970f6188c9565b5b61971c88828901618db8565b92509250509295509295909350565b600061973682619653565b9050919050565b6197468161972b565b82525050565b619755816189bd565b82525050565b619764816189f8565b82525050565b600061977582619653565b9050919050565b6197858161976a565b82525050565b60a0820160008201516197a1600085018261973d565b5060208201516197b4602085018261973d565b5060408201516197c7604085018261974c565b5060608201516197da606085018261975b565b5060808201516197ed608085018261977c565b50505050565b600060a082019050619808600083018461978b565b92915050565b7f4e487b7100000000000000000000000000000000000000000000000000000000600052601160045260246000fd5b600061984882618c7a565b915061985383618c7a565b925082820190508082111561986b5761986a61980e565b5b92915050565b61987a8161895f565b82525050565b61988981618b53565b82525050565b60006080820190506198a46000830187619871565b6198b16020830186619880565b6198be6040830185618c84565b6198cb6060830184618c84565b95945050505050565b60006198df82618cbc565b9050919050565b6198ef816198d4565b82525050565b600060208201905061990a60008301846198e6565b92915050565b60008151905061991f81618b27565b92915050565b60008151905061993481618a05565b92915050565b600081519050619949816189cc565b92915050565b60008060008060808587031215619969576199686188c4565b5b600061997787828801619910565b945050602061998887828801619925565b93505060406199998782880161993a565b92505060606199aa8782880161993a565b91505092959194509250565b60006fffffffffffffffffffffffffffffffff82169050919050565b6199db816199b6565b81146199e657600080fd5b50565b6000815190506199f8816199d2565b92915050565b600060208284031215619a1457619a136188c4565b5b6000619a22848285016199e9565b91505092915050565b619a3481618bef565b82525050565b619a438161895f565b82525050565b606082016000820151619a5f6000850182619060565b506020820151619a726020850182619a2b565b506040820151619a856040850182619a3a565b50505050565b600061010082019050619aa1600083018561978b565b619aae60a0830184619a49565b9392505050565b600080fd5b600067ffffffffffffffff821115619ad557619ad46188e4565b5b619ade826188d3565b9050602081019050919050565b6000619afe619af984619aba565b618944565b905082815260208101848484011115619b1a57619b19619ab5565b5b619b258482856193b0565b509392505050565b600082601f830112619b4257619b41618da9565b5b8151619b52848260208601619aeb565b91505092915050565b600060208284031215619b7157619b706188c4565b5b600082015167ffffffffffffffff811115619b8f57619b8e6188c9565b5b619b9b84828501619b2d565b91505092915050565b6000619bb360208401846189a8565b905092915050565b6000619bca60208401846189e3565b905092915050565b6000619be16020840184618a1c565b905092915050565b6000619bf86020840184618a5a565b905092915050565b60a08201619c116000830183619ba4565b619c1e600085018261973d565b50619c2c6020830183619ba4565b619c39602085018261973d565b50619c476040830183619bbb565b619c54604085018261974c565b50619c626060830183619bd2565b619c6f606085018261975b565b50619c7d6080830183619be9565b619c8a608085018261977c565b50505050565b600060a082019050619ca56000830184619c00565b92915050565b7f4e487b7100000000000000000000000000000000000000000000000000000000600052601260045260246000fd5b600060208284031215619cf057619cef6188c4565b5b6000619cfe848285016189a8565b91505092915050565b6000619d1282618c7a565b9150619d1d83618c7a565b9250828203905081811115619d3557619d3461980e565b5b92915050565b600060608284031215619d5157619d506188ce565b5b619d5b6060618944565b90506000619d6b84828501618b76565b6000830152506020619d7f84828501618c10565b6020830152506040619d9384828501618b3e565b60408301525092915050565b6000806101008385031215619db757619db66188c4565b5b6000619dc585828601618a6f565b92505060a0619dd685828601619d3b565b9150509250929050565b600061012082019050619df6600083018661978b565b619e0360a0830185619a49565b818103610100830152619e1681846193da565b9050949350505050565b600081519050619e2f81618d7d565b92915050565b600060208284031215619e4b57619e4a6188c4565b5b6000619e5984828501619e20565b91505092915050565b619e6b8161972b565b82525050565b6000602082019050619e866000830184619e62565b92915050565b600081519050619e9b816191ad565b92915050565b600060208284031215619eb757619eb66188c4565b5b6000619ec584828501619e8c565b91505092915050565b600081600f0b9050919050565b6000619ee682619ece565b91507fffffffffffffffffffffffffffffffff800000000000000000000000000000008203619f1857619f1761980e565b5b816000039050919050565b619f2c8161897f565b82525050565b6000606082019050619f476000830186619e62565b619f546020830185619f23565b619f616040830184618c84565b949350505050565b600060608284031215619f7f57619f7e6188c4565b5b6000619f8d84828501618b8b565b91505092915050565b6000604082019050619fab6000830185619f23565b619fb86020830184619f23565b9392505050565b619fc88161897f565b82525050565b606082016000820151619fe46000850182619fbf565b506020820151619ff76020850182619a3a565b50604082015161a00a6040850182619060565b50505050565b600060608201905061a0256000830184619fce565b92915050565b61a03481618bef565b82525050565b600060a08201905061a04f6000830186619fce565b61a05c6060830185618c84565b61a069608083018461a02b565b949350505050565b600060608201905061a0866000830186619f23565b61a0936020830185619f23565b61a0a06040830184618c84565b949350505050565b600081905092915050565b600061a0be82619394565b61a0c8818561a0a8565b935061a0d88185602086016193b0565b80840191505092915050565b600061a0f0828461a0b3565b915081905092915050565b60008151905061a10a81618b5f565b92915050565b60006020828403121561a1265761a1256188c4565b5b600061a1348482850161a0fb565b91505092915050565b600082825260208201905092915050565b7f5354460000000000000000000000000000000000000000000000000000000000600082015250565b600061a18460038361a13d565b915061a18f8261a14e565b602082019050919050565b6000602082019050818103600083015261a1b38161a177565b9050919050565b600061a1c582618c7a565b915061a1d083618c7a565b92508261a1e05761a1df619cab565b5b828206905092915050565b600061a20661a20161a1fc8461895f565b619627565b618c7a565b9050919050565b61a2168161a1eb565b82525050565b600060208201905061a231600083018461a20d565b92915050565b600060208201905061a24c6000830184619f23565b92915050565b7f5452414e534645525f4641494c45440000000000000000000000000000000000600082015250565b600061a288600f8361a13d565b915061a2938261a252565b602082019050919050565b6000602082019050818103600083015261a2b78161a27b565b9050919050565b600061a2c982618c7a565b915061a2d483618c7a565b925082820261a2e281618c7a565b9150828204841483151761a2f95761a2f861980e565b5b5092915050565b600061a30b826199b6565b915061a316836199b6565b925082820190506fffffffffffffffffffffffffffffffff81111561a33e5761a33d61980e565b5b92915050565b600061a34f826199b6565b915061a35a836199b6565b925082820390506fffffffffffffffffffffffffffffffff81111561a3825761a38161980e565b5b92915050565b600061a39382618c7a565b915061a39e83618c7a565b92508261a3ae5761a3ad619cab565b5b828204905092915050565b600060408201905061a3ce60008301856198e6565b61a3db6020830184618c84565b9392505050565b61a3eb816189f8565b82525050565b600060408201905061a406600083018561a3e2565b61a4136020830184618c84565b9392505050565b61a42381618cbc565b811461a42e57600080fd5b50565b60008151905061a4408161a41a565b92915050565b60006020828403121561a45c5761a45b6188c4565b5b600061a46a8482850161a431565b91505092915050565b600061a47e8261895f565b915061a4898361895f565b9250828203905073ffffffffffffffffffffffffffffffffffffffff81111561a4b55761a4b461980e565b5b92915050565b7f4e487b7100000000000000000000000000000000000000000000000000000000600052600160045260246000fd5b60008160010b9050919050565b61a5008161a4ea565b82525050565b600060408201905061a51b600083018561a4f7565b61a5286020830184618c84565b939250505056fea2646970667358221220f45f4c96dfc1fd71c4c7135e8779fa6be918e192368c9965667f8cbc2212b88a64736f6c6343000815003360a06040523480156200001157600080fd5b5060405162001a3f38038062001a3f8339818101604052810190620000379190620000f0565b8073ffffffffffffffffffffffffffffffffffffffff1660808173ffffffffffffffffffffffffffffffffffffffff16815250505062000122565b600080fd5b600073ffffffffffffffffffffffffffffffffffffffff82169050919050565b6000620000a48262000077565b9050919050565b6000620000b88262000097565b9050919050565b620000ca81620000ab565b8114620000d657600080fd5b50565b600081519050620000ea81620000bf565b92915050565b60006020828403121562000109576200010862000072565b5b60006200011984828501620000d9565b91505092915050565b6080516118b6620001896000396000818160d30152818160f901528181610249015281816102b6015281816103a4015281816104920152818161051e01528181610605015281816106f30152818161077f0152818161083a01526108fb01526118b66000f3fe6080604052600436106100345760003560e01c8063481c6a751461003957806361ae449a14610064578063ab6291fe14610094575b600080fd5b34801561004557600080fd5b5061004e6100d1565b60405161005b9190610ba0565b60405180910390f35b61007e60048036038101906100799190610f35565b6100f5565b60405161008b9190610fd7565b60405180910390f35b3480156100a057600080fd5b506100bb60048036038101906100b69190611052565b610245565b6040516100c8919061111e565b60405180910390f35b7f000000000000000000000000000000000000000000000000000000000000000081565b60007f000000000000000000000000000000000000000000000000000000000000000073ffffffffffffffffffffffffffffffffffffffff16638154831960405180608001604052803373ffffffffffffffffffffffffffffffffffffffff1681526020018781526020018681526020018581525060405160200161017a9190611317565b6040516020818303038152906040526040518263ffffffff1660e01b81526004016101a5919061111e565b6000604051808303816000875af11580156101c4573d6000803e3d6000fd5b505050506040513d6000823e3d601f19601f820116820180604052508101906101ed91906113a9565b806020019051810190610200919061141e565b90506000479050600081111561023d5761023c3382600073ffffffffffffffffffffffffffffffffffffffff166109d09092919063ffffffff16565b5b509392505050565b60607f000000000000000000000000000000000000000000000000000000000000000073ffffffffffffffffffffffffffffffffffffffff163373ffffffffffffffffffffffffffffffffffffffff161461029f57600080fd5b600083838101906102b0919061150d565b905060007f000000000000000000000000000000000000000000000000000000000000000073ffffffffffffffffffffffffffffffffffffffff166361ae449a8360200151846040015185606001516040518463ffffffff1660e01b815260040161031d93929190611600565b6020604051808303816000875af115801561033c573d6000803e3d6000fd5b505050506040513d601f19601f82011682018060405250810190610360919061141e565b9050600061036d82610ad2565b600f0b13156105c35761039d82602001516000015173ffffffffffffffffffffffffffffffffffffffff16610adf565b15610467577f000000000000000000000000000000000000000000000000000000000000000073ffffffffffffffffffffffffffffffffffffffff16636a256b296103e783610ad2565b6fffffffffffffffffffffffffffffffff168460200151600001516040518363ffffffff1660e01b815260040161041e919061164f565b60206040518083038185885af115801561043c573d6000803e3d6000fd5b50505050506040513d601f19601f8201168201806040525081019061046191906116a0565b506105c2565b81602001516000015173ffffffffffffffffffffffffffffffffffffffff166323b872dd83600001517f00000000000000000000000000000000000000000000000000000000000000006104ba85610ad2565b6040518463ffffffff1660e01b81526004016104d893929190611729565b6020604051808303816000875af11580156104f7573d6000803e3d6000fd5b505050506040513d601f19601f8201168201806040525081019061051b9190611798565b507f000000000000000000000000000000000000000000000000000000000000000073ffffffffffffffffffffffffffffffffffffffff16636a256b298360200151600001516040518263ffffffff1660e01b815260040161057d919061164f565b6020604051808303816000875af115801561059c573d6000803e3d6000fd5b505050506040513d601f19601f820116820180604052508101906105c091906116a0565b505b5b60006105ce82610b17565b600f0b1315610824576105fe82602001516020015173ffffffffffffffffffffffffffffffffffffffff16610adf565b156106c8577f000000000000000000000000000000000000000000000000000000000000000073ffffffffffffffffffffffffffffffffffffffff16636a256b2961064883610b17565b6fffffffffffffffffffffffffffffffff168460200151602001516040518363ffffffff1660e01b815260040161067f919061164f565b60206040518083038185885af115801561069d573d6000803e3d6000fd5b50505050506040513d601f19601f820116820180604052508101906106c291906116a0565b50610823565b81602001516020015173ffffffffffffffffffffffffffffffffffffffff166323b872dd83600001517f000000000000000000000000000000000000000000000000000000000000000061071b85610b17565b6040518463ffffffff1660e01b815260040161073993929190611729565b6020604051808303816000875af1158015610758573d6000803e3d6000fd5b505050506040513d601f19601f8201168201806040525081019061077c9190611798565b507f000000000000000000000000000000000000000000000000000000000000000073ffffffffffffffffffffffffffffffffffffffff16636a256b298360200151602001516040518263ffffffff1660e01b81526004016107de919061164f565b6020604051808303816000875af11580156107fd573d6000803e3d6000fd5b505050506040513d601f19601f8201168201806040525081019061082191906116a0565b505b5b600061082f82610ad2565b600f0b12156108e5577f000000000000000000000000000000000000000000000000000000000000000073ffffffffffffffffffffffffffffffffffffffff16630b0d9c09836020015160000151846000015161088b85610ad2565b61089490611801565b6040518463ffffffff1660e01b81526004016108b293929190611849565b600060405180830381600087803b1580156108cc57600080fd5b505af11580156108e0573d6000803e3d6000fd5b505050505b60006108f082610b17565b600f0b12156109a6577f000000000000000000000000000000000000000000000000000000000000000073ffffffffffffffffffffffffffffffffffffffff16630b0d9c09836020015160200151846000015161094c85610b17565b61095590611801565b6040518463ffffffff1660e01b815260040161097393929190611849565b600060405180830381600087803b15801561098d57600080fd5b505af11580156109a1573d6000803e3d6000fd5b505050505b806040516020016109b79190610fd7565b6040516020818303038152906040529250505092915050565b60006109f18473ffffffffffffffffffffffffffffffffffffffff16610adf565b15610a3e5760008060008085875af1905080610a39576040517ff4b3b1bc00000000000000000000000000000000000000000000000000000000815260040160405180910390fd5b610acc565b6040517fa9059cbb000000000000000000000000000000000000000000000000000000006000528360045282602452602060006044600080895af13d15601f3d1160016000511416171691506000606052806040525080610acb576040517ff27f64e400000000000000000000000000000000000000000000000000000000815260040160405180910390fd5b5b50505050565b60008160801c9050919050565b60008073ffffffffffffffffffffffffffffffffffffffff168273ffffffffffffffffffffffffffffffffffffffff16149050919050565b6000819050919050565b600073ffffffffffffffffffffffffffffffffffffffff82169050919050565b6000819050919050565b6000610b66610b61610b5c84610b21565b610b41565b610b21565b9050919050565b6000610b7882610b4b565b9050919050565b6000610b8a82610b6d565b9050919050565b610b9a81610b7f565b82525050565b6000602082019050610bb56000830184610b91565b92915050565b6000604051905090565b600080fd5b600080fd5b600080fd5b6000601f19601f8301169050919050565b7f4e487b7100000000000000000000000000000000000000000000000000000000600052604160045260246000fd5b610c1d82610bd4565b810181811067ffffffffffffffff82111715610c3c57610c3b610be5565b5b80604052505050565b6000610c4f610bbb565b9050610c5b8282610c14565b919050565b600080fd5b6000610c7082610b21565b9050919050565b610c8081610c65565b8114610c8b57600080fd5b50565b600081359050610c9d81610c77565b92915050565b600062ffffff82169050919050565b610cbb81610ca3565b8114610cc657600080fd5b50565b600081359050610cd881610cb2565b92915050565b60008160020b9050919050565b610cf481610cde565b8114610cff57600080fd5b50565b600081359050610d1181610ceb565b92915050565b6000610d2282610c65565b9050919050565b610d3281610d17565b8114610d3d57600080fd5b50565b600081359050610d4f81610d29565b92915050565b600060a08284031215610d6b57610d6a610bcf565b5b610d7560a0610c45565b90506000610d8584828501610c8e565b6000830152506020610d9984828501610c8e565b6020830152506040610dad84828501610cc9565b6040830152506060610dc184828501610d02565b6060830152506080610dd584828501610d40565b60808301525092915050565b6000819050919050565b610df481610de1565b8114610dff57600080fd5b50565b600081359050610e1181610deb565b92915050565b600060608284031215610e2d57610e2c610bcf565b5b610e376060610c45565b90506000610e4784828501610d02565b6000830152506020610e5b84828501610d02565b6020830152506040610e6f84828501610e02565b60408301525092915050565b600080fd5b600080fd5b600067ffffffffffffffff821115610ea057610e9f610be5565b5b610ea982610bd4565b9050602081019050919050565b82818337600083830152505050565b6000610ed8610ed384610e85565b610c45565b905082815260208101848484011115610ef457610ef3610e80565b5b610eff848285610eb6565b509392505050565b600082601f830112610f1c57610f1b610e7b565b5b8135610f2c848260208601610ec5565b91505092915050565b60008060006101208486031215610f4f57610f4e610bc5565b5b6000610f5d86828701610d55565b93505060a0610f6e86828701610e17565b92505061010084013567ffffffffffffffff811115610f9057610f8f610bca565b5b610f9c86828701610f07565b9150509250925092565b6000610fc1610fbc610fb784610de1565b610b41565b610de1565b9050919050565b610fd181610fa6565b82525050565b6000602082019050610fec6000830184610fc8565b92915050565b600080fd5b600080fd5b60008083601f84011261101257611011610e7b565b5b8235905067ffffffffffffffff81111561102f5761102e610ff2565b5b60208301915083600182028301111561104b5761104a610ff7565b5b9250929050565b6000806020838503121561106957611068610bc5565b5b600083013567ffffffffffffffff81111561108757611086610bca565b5b61109385828601610ffc565b92509250509250929050565b600081519050919050565b600082825260208201905092915050565b60005b838110156110d95780820151818401526020810190506110be565b60008484015250505050565b60006110f08261109f565b6110fa81856110aa565b935061110a8185602086016110bb565b61111381610bd4565b840191505092915050565b6000602082019050818103600083015261113881846110e5565b905092915050565b61114981610c65565b82525050565b600061115a82610b6d565b9050919050565b61116a8161114f565b82525050565b61117981610ca3565b82525050565b61118881610cde565b82525050565b600061119982610b6d565b9050919050565b6111a98161118e565b82525050565b60a0820160008201516111c56000850182611161565b5060208201516111d86020850182611161565b5060408201516111eb6040850182611170565b5060608201516111fe606085018261117f565b50608082015161121160808501826111a0565b50505050565b61122081610de1565b82525050565b60608201600082015161123c600085018261117f565b50602082015161124f602085018261117f565b5060408201516112626040850182611217565b50505050565b600082825260208201905092915050565b60006112848261109f565b61128e8185611268565b935061129e8185602086016110bb565b6112a781610bd4565b840191505092915050565b6000610140830160008301516112cb6000860182611140565b5060208301516112de60208601826111af565b5060408301516112f160c0860182611226565b50606083015184820361012086015261130a8282611279565b9150508091505092915050565b6000602082019050818103600083015261133181846112b2565b905092915050565b600061134c61134784610e85565b610c45565b90508281526020810184848401111561136857611367610e80565b5b6113738482856110bb565b509392505050565b600082601f8301126113905761138f610e7b565b5b81516113a0848260208601611339565b91505092915050565b6000602082840312156113bf576113be610bc5565b5b600082015167ffffffffffffffff8111156113dd576113dc610bca565b5b6113e98482850161137b565b91505092915050565b6113fb81610de1565b811461140657600080fd5b50565b600081519050611418816113f2565b92915050565b60006020828403121561143457611433610bc5565b5b600061144284828501611409565b91505092915050565b61145481610c65565b811461145f57600080fd5b50565b6000813590506114718161144b565b92915050565b6000610140828403121561148e5761148d610bcf565b5b6114986080610c45565b905060006114a884828501611462565b60008301525060206114bc84828501610d55565b60208301525060c06114d084828501610e17565b60408301525061012082013567ffffffffffffffff8111156114f5576114f4610c60565b5b61150184828501610f07565b60608301525092915050565b60006020828403121561152357611522610bc5565b5b600082013567ffffffffffffffff81111561154157611540610bca565b5b61154d84828501611477565b91505092915050565b60a08201600082015161156c6000850182611161565b50602082015161157f6020850182611161565b5060408201516115926040850182611170565b5060608201516115a5606085018261117f565b5060808201516115b860808501826111a0565b50505050565b6060820160008201516115d4600085018261117f565b5060208201516115e7602085018261117f565b5060408201516115fa6040850182611217565b50505050565b6000610120820190506116166000830186611556565b61162360a08301856115be565b81810361010083015261163681846110e5565b9050949350505050565b6116498161114f565b82525050565b60006020820190506116646000830184611640565b92915050565b6000819050919050565b61167d8161166a565b811461168857600080fd5b50565b60008151905061169a81611674565b92915050565b6000602082840312156116b6576116b5610bc5565b5b60006116c48482850161168b565b91505092915050565b6116d681610c65565b82525050565b60006fffffffffffffffffffffffffffffffff82169050919050565b600061171361170e611709846116dc565b610b41565b61166a565b9050919050565b611723816116f8565b82525050565b600060608201905061173e60008301866116cd565b61174b60208301856116cd565b611758604083018461171a565b949350505050565b60008115159050919050565b61177581611760565b811461178057600080fd5b50565b6000815190506117928161176c565b92915050565b6000602082840312156117ae576117ad610bc5565b5b60006117bc84828501611783565b91505092915050565b600081600f0b9050919050565b7f4e487b7100000000000000000000000000000000000000000000000000000000600052601160045260246000fd5b600061180c826117c5565b91507fffffffffffffffffffffffffffffffff80000000000000000000000000000000820361183e5761183d6117d2565b5b816000039050919050565b600060608201905061185e6000830186611640565b61186b60208301856116cd565b611878604083018461171a565b94935050505056fea26469706673582212204fef2a29fbe2af0a70bdb386e4bf3b0eb9155b108748637e1109fc604fa034dd64736f6c6343000815003360a06040523480156200001157600080fd5b5060405162001f8c38038062001f8c8339818101604052810190620000379190620000f0565b8073ffffffffffffffffffffffffffffffffffffffff1660808173ffffffffffffffffffffffffffffffffffffffff16815250505062000122565b600080fd5b600073ffffffffffffffffffffffffffffffffffffffff82169050919050565b6000620000a48262000077565b9050919050565b6000620000b88262000097565b9050919050565b620000ca81620000ab565b8114620000d657600080fd5b50565b600081519050620000ea81620000bf565b92915050565b60006020828403121562000109576200010862000072565b5b60006200011984828501620000d9565b91505092915050565b608051611dd8620001b46000396000818160d50152818161022a01528181610250015281816102bd015281816103c7015281816104b501528181610541015281816105ec0152818161062d015281816106eb0152818161079c0152818161089d0152818161098b01528181610a1701528181610ac201528181610b0301528181610bc10152610c720152611dd86000f3fe6080604052600436106100345760003560e01c80632229d0b414610039578063481c6a7514610069578063ab6291fe14610094575b600080fd5b610053600480360381019061004e91906112e8565b6100d1565b60405161006091906113a9565b60405180910390f35b34801561007557600080fd5b5061007e610228565b60405161008b9190611419565b60405180910390f35b3480156100a057600080fd5b506100bb60048036038101906100b69190611494565b61024c565b6040516100c89190611560565b60405180910390f35b60007f000000000000000000000000000000000000000000000000000000000000000073ffffffffffffffffffffffffffffffffffffffff1663815483196040518060a001604052803373ffffffffffffffffffffffffffffffffffffffff1681526020018681526020018881526020018781526020018581525060405160200161015c91906117ba565b6040516020818303038152906040526040518263ffffffff1660e01b81526004016101879190611560565b6000604051808303816000875af11580156101a6573d6000803e3d6000fd5b505050506040513d6000823e3d601f19601f820116820180604052508101906101cf919061184c565b8060200190518101906101e291906118c1565b90506000479050600081111561021f5761021e3382600073ffffffffffffffffffffffffffffffffffffffff16610d499092919063ffffffff16565b5b50949350505050565b7f000000000000000000000000000000000000000000000000000000000000000081565b60607f000000000000000000000000000000000000000000000000000000000000000073ffffffffffffffffffffffffffffffffffffffff163373ffffffffffffffffffffffffffffffffffffffff16146102a657600080fd5b600083838101906102b791906119c5565b905060007f000000000000000000000000000000000000000000000000000000000000000073ffffffffffffffffffffffffffffffffffffffff1663f3cd914c8360400151846060015185608001516040518463ffffffff1660e01b815260040161032493929190611ab8565b6020604051808303816000875af1158015610343573d6000803e3d6000fd5b505050506040513d601f19601f8201168201806040525081019061036791906118c1565b90508160600151600001511561084d57600061038282610e4b565b600f0b13156106c757816020015160200151156105ea576103c082604001516000015173ffffffffffffffffffffffffffffffffffffffff16610e58565b1561048a577f000000000000000000000000000000000000000000000000000000000000000073ffffffffffffffffffffffffffffffffffffffff16636a256b2961040a83610e4b565b6fffffffffffffffffffffffffffffffff168460400151600001516040518363ffffffff1660e01b81526004016104419190611b07565b60206040518083038185885af115801561045f573d6000803e3d6000fd5b50505050506040513d601f19601f820116820180604052508101906104849190611b58565b506105e5565b81604001516000015173ffffffffffffffffffffffffffffffffffffffff166323b872dd83600001517f00000000000000000000000000000000000000000000000000000000000000006104dd85610e4b565b6040518463ffffffff1660e01b81526004016104fb93929190611be1565b6020604051808303816000875af115801561051a573d6000803e3d6000fd5b505050506040513d601f19601f8201168201806040525081019061053e9190611c2d565b507f000000000000000000000000000000000000000000000000000000000000000073ffffffffffffffffffffffffffffffffffffffff16636a256b298360400151600001516040518263ffffffff1660e01b81526004016105a09190611b07565b6020604051808303816000875af11580156105bf573d6000803e3d6000fd5b505050506040513d601f19601f820116820180604052508101906105e39190611b58565b505b6106c6565b7f000000000000000000000000000000000000000000000000000000000000000073ffffffffffffffffffffffffffffffffffffffff1663f242432a83600001517f000000000000000000000000000000000000000000000000000000000000000085604001516000015173ffffffffffffffffffffffffffffffffffffffff1661067486610e4b565b6040518563ffffffff1660e01b81526004016106939493929190611c8f565b600060405180830381600087803b1580156106ad57600080fd5b505af11580156106c1573d6000803e3d6000fd5b505050505b5b60006106d282610e90565b600f0b1215610848578160200151600001511561079a577f000000000000000000000000000000000000000000000000000000000000000073ffffffffffffffffffffffffffffffffffffffff16630b0d9c09836040015160200151846000015161073c85610e90565b61074590611d23565b6040518463ffffffff1660e01b815260040161076393929190611d6b565b600060405180830381600087803b15801561077d57600080fd5b505af1158015610791573d6000803e3d6000fd5b50505050610847565b7f000000000000000000000000000000000000000000000000000000000000000073ffffffffffffffffffffffffffffffffffffffff1663c6c3bbe683604001516020015184600001516107ed85610e90565b6107f690611d23565b6040518463ffffffff1660e01b815260040161081493929190611d6b565b600060405180830381600087803b15801561082e57600080fd5b505af1158015610842573d6000803e3d6000fd5b505050505b5b610d1f565b600061085882610e90565b600f0b1315610b9d5781602001516020015115610ac05761089682604001516020015173ffffffffffffffffffffffffffffffffffffffff16610e58565b15610960577f000000000000000000000000000000000000000000000000000000000000000073ffffffffffffffffffffffffffffffffffffffff16636a256b296108e083610e90565b6fffffffffffffffffffffffffffffffff168460400151602001516040518363ffffffff1660e01b81526004016109179190611b07565b60206040518083038185885af1158015610935573d6000803e3d6000fd5b50505050506040513d601f19601f8201168201806040525081019061095a9190611b58565b50610abb565b81604001516020015173ffffffffffffffffffffffffffffffffffffffff166323b872dd83600001517f00000000000000000000000000000000000000000000000000000000000000006109b385610e90565b6040518463ffffffff1660e01b81526004016109d193929190611be1565b6020604051808303816000875af11580156109f0573d6000803e3d6000fd5b505050506040513d601f19601f82011682018060405250810190610a149190611c2d565b507f000000000000000000000000000000000000000000000000000000000000000073ffffffffffffffffffffffffffffffffffffffff16636a256b298360400151602001516040518263ffffffff1660e01b8152600401610a769190611b07565b6020604051808303816000875af1158015610a95573d6000803e3d6000fd5b505050506040513d601f19601f82011682018060405250810190610ab99190611b58565b505b610b9c565b7f000000000000000000000000000000000000000000000000000000000000000073ffffffffffffffffffffffffffffffffffffffff1663f242432a83600001517f000000000000000000000000000000000000000000000000000000000000000085604001516020015173ffffffffffffffffffffffffffffffffffffffff16610b4a86610e90565b6040518563ffffffff1660e01b8152600401610b699493929190611c8f565b600060405180830381600087803b158015610b8357600080fd5b505af1158015610b97573d6000803e3d6000fd5b505050505b5b6000610ba882610e4b565b600f0b1215610d1e5781602001516000015115610c70577f000000000000000000000000000000000000000000000000000000000000000073ffffffffffffffffffffffffffffffffffffffff16630b0d9c098360400151600001518460000151610c1285610e4b565b610c1b90611d23565b6040518463ffffffff1660e01b8152600401610c3993929190611d6b565b600060405180830381600087803b158015610c5357600080fd5b505af1158015610c67573d6000803e3d6000fd5b50505050610d1d565b7f000000000000000000000000000000000000000000000000000000000000000073ffffffffffffffffffffffffffffffffffffffff1663c6c3bbe68360400151600001518460000151610cc385610e4b565b610ccc90611d23565b6040518463ffffffff1660e01b8152600401610cea93929190611d6b565b600060405180830381600087803b158015610d0457600080fd5b505af1158015610d18573d6000803e3d6000fd5b505050505b5b5b80604051602001610d3091906113a9565b6040516020818303038152906040529250505092915050565b6000610d6a8473ffffffffffffffffffffffffffffffffffffffff16610e58565b15610db75760008060008085875af1905080610db2576040517ff4b3b1bc00000000000000000000000000000000000000000000000000000000815260040160405180910390fd5b610e45565b6040517fa9059cbb000000000000000000000000000000000000000000000000000000006000528360045282602452602060006044600080895af13d15601f3d1160016000511416171691506000606052806040525080610e44576040517ff27f64e400000000000000000000000000000000000000000000000000000000815260040160405180910390fd5b5b50505050565b60008160801c9050919050565b60008073ffffffffffffffffffffffffffffffffffffffff168273ffffffffffffffffffffffffffffffffffffffff16149050919050565b6000819050919050565b6000604051905090565b600080fd5b600080fd5b600080fd5b6000601f19601f8301169050919050565b7f4e487b7100000000000000000000000000000000000000000000000000000000600052604160045260246000fd5b610efc82610eb3565b810181811067ffffffffffffffff82111715610f1b57610f1a610ec4565b5b80604052505050565b6000610f2e610e9a565b9050610f3a8282610ef3565b919050565b600080fd5b600073ffffffffffffffffffffffffffffffffffffffff82169050919050565b6000610f6f82610f44565b9050919050565b610f7f81610f64565b8114610f8a57600080fd5b50565b600081359050610f9c81610f76565b92915050565b600062ffffff82169050919050565b610fba81610fa2565b8114610fc557600080fd5b50565b600081359050610fd781610fb1565b92915050565b60008160020b9050919050565b610ff381610fdd565b8114610ffe57600080fd5b50565b60008135905061101081610fea565b92915050565b600061102182610f64565b9050919050565b61103181611016565b811461103c57600080fd5b50565b60008135905061104e81611028565b92915050565b600060a0828403121561106a57611069610eae565b5b61107460a0610f24565b9050600061108484828501610f8d565b600083015250602061109884828501610f8d565b60208301525060406110ac84828501610fc8565b60408301525060606110c084828501611001565b60608301525060806110d48482850161103f565b60808301525092915050565b60008115159050919050565b6110f5816110e0565b811461110057600080fd5b50565b600081359050611112816110ec565b92915050565b6000819050919050565b61112b81611118565b811461113657600080fd5b50565b60008135905061114881611122565b92915050565b61115781610f44565b811461116257600080fd5b50565b6000813590506111748161114e565b92915050565b6000606082840312156111905761118f610eae565b5b61119a6060610f24565b905060006111aa84828501611103565b60008301525060206111be84828501611139565b60208301525060406111d284828501611165565b60408301525092915050565b6000604082840312156111f4576111f3610eae565b5b6111fe6040610f24565b9050600061120e84828501611103565b600083015250602061122284828501611103565b60208301525092915050565b600080fd5b600080fd5b600067ffffffffffffffff82111561125357611252610ec4565b5b61125c82610eb3565b9050602081019050919050565b82818337600083830152505050565b600061128b61128684611238565b610f24565b9050828152602081018484840111156112a7576112a6611233565b5b6112b2848285611269565b509392505050565b600082601f8301126112cf576112ce61122e565b5b81356112df848260208601611278565b91505092915050565b600080600080610160858703121561130357611302610ea4565b5b600061131187828801611054565b94505060a06113228782880161117a565b935050610100611334878288016111de565b92505061014085013567ffffffffffffffff81111561135657611355610ea9565b5b611362878288016112ba565b91505092959194509250565b6000819050919050565b600061139361138e61138984611118565b61136e565b611118565b9050919050565b6113a381611378565b82525050565b60006020820190506113be600083018461139a565b92915050565b60006113df6113da6113d584610f44565b61136e565b610f44565b9050919050565b60006113f1826113c4565b9050919050565b6000611403826113e6565b9050919050565b611413816113f8565b82525050565b600060208201905061142e600083018461140a565b92915050565b600080fd5b600080fd5b60008083601f8401126114545761145361122e565b5b8235905067ffffffffffffffff81111561147157611470611434565b5b60208301915083600182028301111561148d5761148c611439565b5b9250929050565b600080602083850312156114ab576114aa610ea4565b5b600083013567ffffffffffffffff8111156114c9576114c8610ea9565b5b6114d58582860161143e565b92509250509250929050565b600081519050919050565b600082825260208201905092915050565b60005b8381101561151b578082015181840152602081019050611500565b60008484015250505050565b6000611532826114e1565b61153c81856114ec565b935061154c8185602086016114fd565b61155581610eb3565b840191505092915050565b6000602082019050818103600083015261157a8184611527565b905092915050565b61158b81610f64565b82525050565b61159a816110e0565b82525050565b6040820160008201516115b66000850182611591565b5060208201516115c96020850182611591565b50505050565b60006115da826113e6565b9050919050565b6115ea816115cf565b82525050565b6115f981610fa2565b82525050565b61160881610fdd565b82525050565b6000611619826113e6565b9050919050565b6116298161160e565b82525050565b60a08201600082015161164560008501826115e1565b50602082015161165860208501826115e1565b50604082015161166b60408501826115f0565b50606082015161167e60608501826115ff565b5060808201516116916080850182611620565b50505050565b6116a081611118565b82525050565b6116af81610f44565b82525050565b6060820160008201516116cb6000850182611591565b5060208201516116de6020850182611697565b5060408201516116f160408501826116a6565b50505050565b600082825260208201905092915050565b6000611713826114e1565b61171d81856116f7565b935061172d8185602086016114fd565b61173681610eb3565b840191505092915050565b60006101808301600083015161175a6000860182611582565b50602083015161176d60208601826115a0565b506040830151611780606086018261162f565b5060608301516117946101008601826116b5565b5060808301518482036101608601526117ad8282611708565b9150508091505092915050565b600060208201905081810360008301526117d48184611741565b905092915050565b60006117ef6117ea84611238565b610f24565b90508281526020810184848401111561180b5761180a611233565b5b6118168482856114fd565b509392505050565b600082601f8301126118335761183261122e565b5b81516118438482602086016117dc565b91505092915050565b60006020828403121561186257611861610ea4565b5b600082015167ffffffffffffffff8111156118805761187f610ea9565b5b61188c8482850161181e565b91505092915050565b61189e81611118565b81146118a957600080fd5b50565b6000815190506118bb81611895565b92915050565b6000602082840312156118d7576118d6610ea4565b5b60006118e5848285016118ac565b91505092915050565b6118f781610f64565b811461190257600080fd5b50565b600081359050611914816118ee565b92915050565b6000610180828403121561193157611930610eae565b5b61193b60a0610f24565b9050600061194b84828501611905565b600083015250602061195f848285016111de565b602083015250606061197384828501611054565b6040830152506101006119888482850161117a565b60608301525061016082013567ffffffffffffffff8111156119ad576119ac610f3f565b5b6119b9848285016112ba565b60808301525092915050565b6000602082840312156119db576119da610ea4565b5b600082013567ffffffffffffffff8111156119f9576119f8610ea9565b5b611a058482850161191a565b91505092915050565b60a082016000820151611a2460008501826115e1565b506020820151611a3760208501826115e1565b506040820151611a4a60408501826115f0565b506060820151611a5d60608501826115ff565b506080820151611a706080850182611620565b50505050565b606082016000820151611a8c6000850182611591565b506020820151611a9f6020850182611697565b506040820151611ab260408501826116a6565b50505050565b600061012082019050611ace6000830186611a0e565b611adb60a0830185611a76565b818103610100830152611aee8184611527565b9050949350505050565b611b01816115cf565b82525050565b6000602082019050611b1c6000830184611af8565b92915050565b6000819050919050565b611b3581611b22565b8114611b4057600080fd5b50565b600081519050611b5281611b2c565b92915050565b600060208284031215611b6e57611b6d610ea4565b5b6000611b7c84828501611b43565b91505092915050565b611b8e81610f64565b82525050565b60006fffffffffffffffffffffffffffffffff82169050919050565b6000611bcb611bc6611bc184611b94565b61136e565b611b22565b9050919050565b611bdb81611bb0565b82525050565b6000606082019050611bf66000830186611b85565b611c036020830185611b85565b611c106040830184611bd2565b949350505050565b600081519050611c27816110ec565b92915050565b600060208284031215611c4357611c42610ea4565b5b6000611c5184828501611c18565b91505092915050565b611c6381611b22565b82525050565b50565b6000611c796000836114ec565b9150611c8482611c69565b600082019050919050565b600060a082019050611ca46000830187611b85565b611cb16020830186611b85565b611cbe6040830185611c5a565b611ccb6060830184611bd2565b8181036080830152611cdc81611c6c565b905095945050505050565b600081600f0b9050919050565b7f4e487b7100000000000000000000000000000000000000000000000000000000600052601160045260246000fd5b6000611d2e82611ce7565b91507fffffffffffffffffffffffffffffffff800000000000000000000000000000008203611d6057611d5f611cf4565b5b816000039050919050565b6000606082019050611d806000830186611af8565b611d8d6020830185611b85565b611d9a6040830184611bd2565b94935050505056fea26469706673582212200ef6927d69207870b231186081e99973ce64a370df5d1e9284d593b948d94b5464736f6c63430008150033a2646970667358221220e76b6ad5324da53d67dd459937454883862b0067a24b1a0ce6bf1c8fe9c16f6a64736f6c63430008150033",
  "linkReferences": {
    "test/TWAMM/Remix/utils/HookMiner.sol": {
      "HookMiner": [
        {
          "length": 20,
          "start": 1495
        }
      ]
    }
  },
  "deployedLinkReferences": {
    "test/TWAMM/Remix/utils/HookMiner.sol": {
      "HookMiner": [
        {
          "length": 20,
          "start": 1195
        }
      ]
    }
  }
}