{
  "_format": "hh-sol-artifact-1",
  "contractName": "PoolDonateTest",
  "sourceName": "lib/v4-periphery/lib/v4-core/contracts/test/PoolDonateTest.sol",
  "abi": [
    {
      "inputs": [
        {
          "internalType": "contract IPoolManager",
          "name": "_manager",
          "type": "address"
        }
      ],
      "stateMutability": "nonpayable",
      "type": "constructor"
    },
    {
      "inputs": [],
      "name": "ERC20TransferFailed",
      "type": "error"
    },
    {
      "inputs": [],
      "name": "NativeTransferFailed",
      "type": "error"
    },
    {
      "inputs": [
        {
          "components": [
            {
              "internalType": "Currency",
              "name": "currency0",
              "type": "address"
            },
            {
              "internalType": "Currency",
              "name": "currency1",
              "type": "address"
            },
            {
              "internalType": "uint24",
              "name": "fee",
              "type": "uint24"
            },
            {
              "internalType": "int24",
              "name": "tickSpacing",
              "type": "int24"
            },
            {
              "internalType": "contract IHooks",
              "name": "hooks",
              "type": "address"
            }
          ],
          "internalType": "struct PoolKey",
          "name": "key",
          "type": "tuple"
        },
        {
          "internalType": "uint256",
          "name": "amount0",
          "type": "uint256"
        },
        {
          "internalType": "uint256",
          "name": "amount1",
          "type": "uint256"
        },
        {
          "internalType": "bytes",
          "name": "hookData",
          "type": "bytes"
        }
      ],
      "name": "donate",
      "outputs": [
        {
          "internalType": "BalanceDelta",
          "name": "delta",
          "type": "int256"
        }
      ],
      "stateMutability": "payable",
      "type": "function"
    },
    {
      "inputs": [
        {
          "internalType": "bytes",
          "name": "rawData",
          "type": "bytes"
        }
      ],
      "name": "lockAcquired",
      "outputs": [
        {
          "internalType": "bytes",
          "name": "",
          "type": "bytes"
        }
      ],
      "stateMutability": "nonpayable",
      "type": "function"
    },
    {
      "inputs": [],
      "name": "manager",
      "outputs": [
        {
          "internalType": "contract IPoolManager",
          "name": "",
          "type": "address"
        }
      ],
      "stateMutability": "view",
      "type": "function"
    }
  ],
  "bytecode": "0x60a06040523480156200001157600080fd5b5060405162001759380380620017598339818101604052810190620000379190620000f0565b8073ffffffffffffffffffffffffffffffffffffffff1660808173ffffffffffffffffffffffffffffffffffffffff16815250505062000122565b600080fd5b600073ffffffffffffffffffffffffffffffffffffffff82169050919050565b6000620000a48262000077565b9050919050565b6000620000b88262000097565b9050919050565b620000ca81620000ab565b8114620000d657600080fd5b50565b600081519050620000ea81620000bf565b92915050565b60006020828403121562000109576200010862000072565b5b60006200011984828501620000d9565b91505092915050565b6080516115dd6200017c6000396000818160d50152818161022a01528181610250015281816102bd015281816103b10152818161049f0152818161052b0152818161061201528181610700015261078c01526115dd6000f3fe6080604052600436106100345760003560e01c8063234266d714610039578063481c6a7514610069578063ab6291fe14610094575b600080fd5b610053600480360381019061004e9190610ce2565b6100d1565b6040516100609190610dab565b60405180910390f35b34801561007557600080fd5b5061007e610228565b60405161008b9190610e1b565b60405180910390f35b3480156100a057600080fd5b506100bb60048036038101906100b69190610e96565b61024c565b6040516100c89190610f62565b60405180910390f35b60007f000000000000000000000000000000000000000000000000000000000000000073ffffffffffffffffffffffffffffffffffffffff1663815483196040518060a001604052803373ffffffffffffffffffffffffffffffffffffffff1681526020018881526020018781526020018681526020018581525060405160200161015c919061112c565b6040516020818303038152906040526040518263ffffffff1660e01b81526004016101879190610f62565b6000604051808303816000875af11580156101a6573d6000803e3d6000fd5b505050506040513d6000823e3d601f19601f820116820180604052508101906101cf91906111be565b8060200190518101906101e29190611233565b90506000479050600081111561021f5761021e3382600073ffffffffffffffffffffffffffffffffffffffff1661085b9092919063ffffffff16565b5b50949350505050565b7f000000000000000000000000000000000000000000000000000000000000000081565b60607f000000000000000000000000000000000000000000000000000000000000000073ffffffffffffffffffffffffffffffffffffffff163373ffffffffffffffffffffffffffffffffffffffff16146102a657600080fd5b600083838101906102b79190611336565b905060007f000000000000000000000000000000000000000000000000000000000000000073ffffffffffffffffffffffffffffffffffffffff1663234266d783602001518460400151856060015186608001516040518563ffffffff1660e01b815260040161032a94939291906113f6565b6020604051808303816000875af1158015610349573d6000803e3d6000fd5b505050506040513d601f19601f8201168201806040525081019061036d9190611233565b9050600061037a8261095d565b600f0b13156105d0576103aa82602001516000015173ffffffffffffffffffffffffffffffffffffffff1661096a565b15610474577f000000000000000000000000000000000000000000000000000000000000000073ffffffffffffffffffffffffffffffffffffffff16636a256b296103f48361095d565b6fffffffffffffffffffffffffffffffff168460200151600001516040518363ffffffff1660e01b815260040161042b9190611452565b60206040518083038185885af1158015610449573d6000803e3d6000fd5b50505050506040513d601f19601f8201168201806040525081019061046e9190611482565b506105cf565b81602001516000015173ffffffffffffffffffffffffffffffffffffffff166323b872dd83600001517f00000000000000000000000000000000000000000000000000000000000000006104c78561095d565b6040518463ffffffff1660e01b81526004016104e59392919061150b565b6020604051808303816000875af1158015610504573d6000803e3d6000fd5b505050506040513d601f19601f82011682018060405250810190610528919061157a565b507f000000000000000000000000000000000000000000000000000000000000000073ffffffffffffffffffffffffffffffffffffffff16636a256b298360200151600001516040518263ffffffff1660e01b815260040161058a9190611452565b6020604051808303816000875af11580156105a9573d6000803e3d6000fd5b505050506040513d601f19601f820116820180604052508101906105cd9190611482565b505b5b60006105db826109a2565b600f0b13156108315761060b82602001516020015173ffffffffffffffffffffffffffffffffffffffff1661096a565b156106d5577f000000000000000000000000000000000000000000000000000000000000000073ffffffffffffffffffffffffffffffffffffffff16636a256b29610655836109a2565b6fffffffffffffffffffffffffffffffff168460200151602001516040518363ffffffff1660e01b815260040161068c9190611452565b60206040518083038185885af11580156106aa573d6000803e3d6000fd5b50505050506040513d601f19601f820116820180604052508101906106cf9190611482565b50610830565b81602001516020015173ffffffffffffffffffffffffffffffffffffffff166323b872dd83600001517f0000000000000000000000000000000000000000000000000000000000000000610728856109a2565b6040518463ffffffff1660e01b81526004016107469392919061150b565b6020604051808303816000875af1158015610765573d6000803e3d6000fd5b505050506040513d601f19601f82011682018060405250810190610789919061157a565b507f000000000000000000000000000000000000000000000000000000000000000073ffffffffffffffffffffffffffffffffffffffff16636a256b298360200151602001516040518263ffffffff1660e01b81526004016107eb9190611452565b6020604051808303816000875af115801561080a573d6000803e3d6000fd5b505050506040513d601f19601f8201168201806040525081019061082e9190611482565b505b5b806040516020016108429190610dab565b6040516020818303038152906040529250505092915050565b600061087c8473ffffffffffffffffffffffffffffffffffffffff1661096a565b156108c95760008060008085875af19050806108c4576040517ff4b3b1bc00000000000000000000000000000000000000000000000000000000815260040160405180910390fd5b610957565b6040517fa9059cbb000000000000000000000000000000000000000000000000000000006000528360045282602452602060006044600080895af13d15601f3d1160016000511416171691506000606052806040525080610956576040517ff27f64e400000000000000000000000000000000000000000000000000000000815260040160405180910390fd5b5b50505050565b60008160801c9050919050565b60008073ffffffffffffffffffffffffffffffffffffffff168273ffffffffffffffffffffffffffffffffffffffff16149050919050565b6000819050919050565b6000604051905090565b600080fd5b600080fd5b600080fd5b6000601f19601f8301169050919050565b7f4e487b7100000000000000000000000000000000000000000000000000000000600052604160045260246000fd5b610a0e826109c5565b810181811067ffffffffffffffff82111715610a2d57610a2c6109d6565b5b80604052505050565b6000610a406109ac565b9050610a4c8282610a05565b919050565b600080fd5b600073ffffffffffffffffffffffffffffffffffffffff82169050919050565b6000610a8182610a56565b9050919050565b610a9181610a76565b8114610a9c57600080fd5b50565b600081359050610aae81610a88565b92915050565b600062ffffff82169050919050565b610acc81610ab4565b8114610ad757600080fd5b50565b600081359050610ae981610ac3565b92915050565b60008160020b9050919050565b610b0581610aef565b8114610b1057600080fd5b50565b600081359050610b2281610afc565b92915050565b6000610b3382610a76565b9050919050565b610b4381610b28565b8114610b4e57600080fd5b50565b600081359050610b6081610b3a565b92915050565b600060a08284031215610b7c57610b7b6109c0565b5b610b8660a0610a36565b90506000610b9684828501610a9f565b6000830152506020610baa84828501610a9f565b6020830152506040610bbe84828501610ada565b6040830152506060610bd284828501610b13565b6060830152506080610be684828501610b51565b60808301525092915050565b6000819050919050565b610c0581610bf2565b8114610c1057600080fd5b50565b600081359050610c2281610bfc565b92915050565b600080fd5b600080fd5b600067ffffffffffffffff821115610c4d57610c4c6109d6565b5b610c56826109c5565b9050602081019050919050565b82818337600083830152505050565b6000610c85610c8084610c32565b610a36565b905082815260208101848484011115610ca157610ca0610c2d565b5b610cac848285610c63565b509392505050565b600082601f830112610cc957610cc8610c28565b5b8135610cd9848260208601610c72565b91505092915050565b6000806000806101008587031215610cfd57610cfc6109b6565b5b6000610d0b87828801610b66565b94505060a0610d1c87828801610c13565b93505060c0610d2d87828801610c13565b92505060e085013567ffffffffffffffff811115610d4e57610d4d6109bb565b5b610d5a87828801610cb4565b91505092959194509250565b6000819050919050565b6000819050919050565b6000610d95610d90610d8b84610d66565b610d70565b610d66565b9050919050565b610da581610d7a565b82525050565b6000602082019050610dc06000830184610d9c565b92915050565b6000610de1610ddc610dd784610a56565b610d70565b610a56565b9050919050565b6000610df382610dc6565b9050919050565b6000610e0582610de8565b9050919050565b610e1581610dfa565b82525050565b6000602082019050610e306000830184610e0c565b92915050565b600080fd5b600080fd5b60008083601f840112610e5657610e55610c28565b5b8235905067ffffffffffffffff811115610e7357610e72610e36565b5b602083019150836001820283011115610e8f57610e8e610e3b565b5b9250929050565b60008060208385031215610ead57610eac6109b6565b5b600083013567ffffffffffffffff811115610ecb57610eca6109bb565b5b610ed785828601610e40565b92509250509250929050565b600081519050919050565b600082825260208201905092915050565b60005b83811015610f1d578082015181840152602081019050610f02565b60008484015250505050565b6000610f3482610ee3565b610f3e8185610eee565b9350610f4e818560208601610eff565b610f57816109c5565b840191505092915050565b60006020820190508181036000830152610f7c8184610f29565b905092915050565b610f8d81610a76565b82525050565b6000610f9e82610de8565b9050919050565b610fae81610f93565b82525050565b610fbd81610ab4565b82525050565b610fcc81610aef565b82525050565b6000610fdd82610de8565b9050919050565b610fed81610fd2565b82525050565b60a0820160008201516110096000850182610fa5565b50602082015161101c6020850182610fa5565b50604082015161102f6040850182610fb4565b5060608201516110426060850182610fc3565b5060808201516110556080850182610fe4565b50505050565b61106481610bf2565b82525050565b600082825260208201905092915050565b600061108682610ee3565b611090818561106a565b93506110a0818560208601610eff565b6110a9816109c5565b840191505092915050565b6000610120830160008301516110cd6000860182610f84565b5060208301516110e06020860182610ff3565b5060408301516110f360c086018261105b565b50606083015161110660e086018261105b565b50608083015184820361010086015261111f828261107b565b9150508091505092915050565b6000602082019050818103600083015261114681846110b4565b905092915050565b600061116161115c84610c32565b610a36565b90508281526020810184848401111561117d5761117c610c2d565b5b611188848285610eff565b509392505050565b600082601f8301126111a5576111a4610c28565b5b81516111b584826020860161114e565b91505092915050565b6000602082840312156111d4576111d36109b6565b5b600082015167ffffffffffffffff8111156111f2576111f16109bb565b5b6111fe84828501611190565b91505092915050565b61121081610d66565b811461121b57600080fd5b50565b60008151905061122d81611207565b92915050565b600060208284031215611249576112486109b6565b5b60006112578482850161121e565b91505092915050565b61126981610a76565b811461127457600080fd5b50565b60008135905061128681611260565b92915050565b600061012082840312156112a3576112a26109c0565b5b6112ad60a0610a36565b905060006112bd84828501611277565b60008301525060206112d184828501610b66565b60208301525060c06112e584828501610c13565b60408301525060e06112f984828501610c13565b60608301525061010082013567ffffffffffffffff81111561131e5761131d610a51565b5b61132a84828501610cb4565b60808301525092915050565b60006020828403121561134c5761134b6109b6565b5b600082013567ffffffffffffffff81111561136a576113696109bb565b5b6113768482850161128c565b91505092915050565b60a0820160008201516113956000850182610fa5565b5060208201516113a86020850182610fa5565b5060408201516113bb6040850182610fb4565b5060608201516113ce6060850182610fc3565b5060808201516113e16080850182610fe4565b50505050565b6113f081610bf2565b82525050565b60006101008201905061140c600083018761137f565b61141960a08301866113e7565b61142660c08301856113e7565b81810360e08301526114388184610f29565b905095945050505050565b61144c81610f93565b82525050565b60006020820190506114676000830184611443565b92915050565b60008151905061147c81610bfc565b92915050565b600060208284031215611498576114976109b6565b5b60006114a68482850161146d565b91505092915050565b6114b881610a76565b82525050565b60006fffffffffffffffffffffffffffffffff82169050919050565b60006114f56114f06114eb846114be565b610d70565b610bf2565b9050919050565b611505816114da565b82525050565b600060608201905061152060008301866114af565b61152d60208301856114af565b61153a60408301846114fc565b949350505050565b60008115159050919050565b61155781611542565b811461156257600080fd5b50565b6000815190506115748161154e565b92915050565b6000602082840312156115905761158f6109b6565b5b600061159e84828501611565565b9150509291505056fea26469706673582212203550dd6f8fa3417e95c5f4dbf70f331de3412d45464e5baa7fba7e45af72313464736f6c63430008150033",
  "linkReferences": {},
  "deployedLinkReferences": {}
}