{
  "_format": "hh-sol-artifact-1",
  "contractName": "MultiSigTest",
  "sourceName": "test/MULTI_SIG/Remix/unit/RemixMultiSig.sol",
  "abi": [
    {
      "inputs": [
        {
          "internalType": "address",
          "name": "_manager",
          "type": "address"
        }
      ],
      "stateMutability": "nonpayable",
      "type": "constructor"
    },
    {
      "anonymous": false,
      "inputs": [
        {
          "indexed": false,
          "internalType": "string",
          "name": "message",
          "type": "string"
        }
      ],
      "name": "Failure",
      "type": "event"
    },
    {
      "anonymous": false,
      "inputs": [
        {
          "indexed": false,
          "internalType": "string",
          "name": "testName",
          "type": "string"
        },
        {
          "indexed": false,
          "internalType": "string",
          "name": "message",
          "type": "string"
        }
      ],
      "name": "TestLog",
      "type": "event"
    },
    {
      "inputs": [],
      "name": "MAX_TICK_SPACING",
      "outputs": [
        {
          "internalType": "int24",
          "name": "",
          "type": "int24"
        }
      ],
      "stateMutability": "view",
      "type": "function"
    },
    {
      "inputs": [],
      "name": "SQRT_RATIO_1_1",
      "outputs": [
        {
          "internalType": "uint160",
          "name": "",
          "type": "uint160"
        }
      ],
      "stateMutability": "view",
      "type": "function"
    },
    {
      "inputs": [],
      "name": "hook",
      "outputs": [
        {
          "internalType": "contract MultiSigSwapHook",
          "name": "",
          "type": "address"
        }
      ],
      "stateMutability": "view",
      "type": "function"
    },
    {
      "inputs": [],
      "name": "setUp",
      "outputs": [],
      "stateMutability": "nonpayable",
      "type": "function"
    },
    {
      "inputs": [],
      "name": "testApproveSwap",
      "outputs": [],
      "stateMutability": "nonpayable",
      "type": "function"
    },
    {
      "stateMutability": "payable",
      "type": "receive"
    }
  ],
  "bytecode": "0x60806040523480156200001157600080fd5b506040516200ad993803806200ad998339818101604052810190620000379190620000e9565b80600560006101000a81548173ffffffffffffffffffffffffffffffffffffffff021916908373ffffffffffffffffffffffffffffffffffffffff160217905550506200011b565b600080fd5b600073ffffffffffffffffffffffffffffffffffffffff82169050919050565b6000620000b18262000084565b9050919050565b620000c381620000a4565b8114620000cf57600080fd5b50565b600081519050620000e381620000b8565b92915050565b6000602082840312156200010257620001016200007f565b5b60006200011284828501620000d2565b91505092915050565b61ac6e806200012b6000396000f3fe608060405260043610620000555760003560e01c80630a9254e414620000625780631063a53c146200007c57806360460f06146200009657806377267b1e14620000c65780637f5a7c7b14620000f6576200005d565b366200005d57005b600080fd5b3480156200006f57600080fd5b506200007a62000126565b005b3480156200008957600080fd5b50620000946200113b565b005b348015620000a357600080fd5b50620000ae620013bb565b604051620000bd9190620014db565b60405180910390f35b348015620000d357600080fd5b50620000de620013c4565b604051620000ed919062001529565b60405180910390f35b3480156200010357600080fd5b506200010e620013d5565b6040516200011d9190620015b1565b60405180910390f35b6012700100000000000000000000000000000000604051620001489062001485565b620001559291906200171c565b604051809103906000f08015801562000172573d6000803e3d6000fd5b50600660006101000a81548173ffffffffffffffffffffffffffffffffffffffff021916908373ffffffffffffffffffffffffffffffffffffffff1602179055506012700100000000000000000000000000000000604051620001d59062001485565b620001e292919062001813565b604051809103906000f080158015620001ff573d6000803e3d6000fd5b50600760006101000a81548173ffffffffffffffffffffffffffffffffffffffff021916908373ffffffffffffffffffffffffffffffffffffffff16021790555062000290600660009054906101000a900473ffffffffffffffffffffffffffffffffffffffff16600760009054906101000a900473ffffffffffffffffffffffffffffffffffffffff16620013f9565b600b6000600c60008491906101000a81548173ffffffffffffffffffffffffffffffffffffffff021916908373ffffffffffffffffffffffffffffffffffffffff1602179055508391906101000a81548173ffffffffffffffffffffffffffffffffffffffff021916908373ffffffffffffffffffffffffffffffffffffffff16021790555050506000600267ffffffffffffffff8111156200033857620003376200186a565b5b604051908082528060200260200182016040528015620003675781602001602082028036833780820191505090505b509050308160008151811062000382576200038162001899565b5b602002602001019073ffffffffffffffffffffffffffffffffffffffff16908173ffffffffffffffffffffffffffffffffffffffff168152505061123481600181518110620003d657620003d562001899565b5b602002602001019073ffffffffffffffffffffffffffffffffffffffff16908173ffffffffffffffffffffffffffffffffffffffff1681525050600073080000000000000000000000000000000000000073040000000000000000000000000000000000000017905060008073__$cf59fe774ef5bbe22bc982cb6926ba3c4d$__63ab8651183085600060405180602001620004729062001493565b6020820181038252601f19601f82011660405250600560009054906101000a900473ffffffffffffffffffffffffffffffffffffffff168a6002604051602001620004c093929190620019fe565b6040516020818303038152906040526040518663ffffffff1660e01b8152600401620004f195949392919062001b41565b6040805180830381865af41580156200050e573d6000803e3d6000fd5b505050506040513d601f19601f8201168201806040525081019062000534919062001c1d565b9150915080600560009054906101000a900473ffffffffffffffffffffffffffffffffffffffff168560026040516200056d9062001493565b6200057b9392919062001cc2565b8190604051809103906000f59050801580156200059c573d6000803e3d6000fd5b506000806101000a81548173ffffffffffffffffffffffffffffffffffffffff021916908373ffffffffffffffffffffffffffffffffffffffff1602179055508173ffffffffffffffffffffffffffffffffffffffff1660008054906101000a900473ffffffffffffffffffffffffffffffffffffffff1673ffffffffffffffffffffffffffffffffffffffff16146200066d576040517f08c379a0000000000000000000000000000000000000000000000000000000008152600401620006649062001d7c565b60405180910390fd5b6040518060a00160405280600b60009054906101000a900473ffffffffffffffffffffffffffffffffffffffff1673ffffffffffffffffffffffffffffffffffffffff168152602001600c60009054906101000a900473ffffffffffffffffffffffffffffffffffffffff1673ffffffffffffffffffffffffffffffffffffffff168152602001600062ffffff168152602001617fff60010b60020b815260200160008054906101000a900473ffffffffffffffffffffffffffffffffffffffff1673ffffffffffffffffffffffffffffffffffffffff16815250600160008201518160000160006101000a81548173ffffffffffffffffffffffffffffffffffffffff021916908373ffffffffffffffffffffffffffffffffffffffff16021790555060208201518160010160006101000a81548173ffffffffffffffffffffffffffffffffffffffff021916908373ffffffffffffffffffffffffffffffffffffffff16021790555060408201518160010160146101000a81548162ffffff021916908362ffffff16021790555060608201518160010160176101000a81548162ffffff021916908360020b62ffffff16021790555060808201518160020160006101000a81548173ffffffffffffffffffffffffffffffffffffffff021916908373ffffffffffffffffffffffffffffffffffffffff160217905550905050620009c860016040518060a00160405290816000820160009054906101000a900473ffffffffffffffffffffffffffffffffffffffff1673ffffffffffffffffffffffffffffffffffffffff1673ffffffffffffffffffffffffffffffffffffffff1681526020016001820160009054906101000a900473ffffffffffffffffffffffffffffffffffffffff1673ffffffffffffffffffffffffffffffffffffffff1673ffffffffffffffffffffffffffffffffffffffff1681526020016001820160149054906101000a900462ffffff1662ffffff1662ffffff1681526020016001820160179054906101000a900460020b60020b60020b81526020016002820160009054906101000a900473ffffffffffffffffffffffffffffffffffffffff1673ffffffffffffffffffffffffffffffffffffffff1673ffffffffffffffffffffffffffffffffffffffff168152505062001453565b600481905550600560009054906101000a900473ffffffffffffffffffffffffffffffffffffffff1673ffffffffffffffffffffffffffffffffffffffff1663695c5bf560016c01000000000000000000000000604051806020016040528060008152506040518463ffffffff1660e01b815260040162000a4c939291906200200d565b6020604051808303816000875af115801562000a6c573d6000803e3d6000fd5b505050506040513d601f19601f8201168201806040525081019062000a92919062002082565b50600560009054906101000a900473ffffffffffffffffffffffffffffffffffffffff1660405162000ac490620014a1565b62000ad09190620020b4565b604051809103906000f08015801562000aed573d6000803e3d6000fd5b50600860006101000a81548173ffffffffffffffffffffffffffffffffffffffff021916908373ffffffffffffffffffffffffffffffffffffffff160217905550600560009054906101000a900473ffffffffffffffffffffffffffffffffffffffff1660405162000b5f90620014af565b62000b6b9190620020b4565b604051809103906000f08015801562000b88573d6000803e3d6000fd5b50600960006101000a81548173ffffffffffffffffffffffffffffffffffffffff021916908373ffffffffffffffffffffffffffffffffffffffff160217905550600660009054906101000a900473ffffffffffffffffffffffffffffffffffffffff1673ffffffffffffffffffffffffffffffffffffffff1663095ea7b360008054906101000a900473ffffffffffffffffffffffffffffffffffffffff167fffffffffffffffffffffffffffffffffffffffffffffffffffffffffffffffff6040518363ffffffff1660e01b815260040162000c68929190620020e2565b6020604051808303816000875af115801562000c88573d6000803e3d6000fd5b505050506040513d601f19601f8201168201806040525081019062000cae91906200214c565b50600760009054906101000a900473ffffffffffffffffffffffffffffffffffffffff1673ffffffffffffffffffffffffffffffffffffffff1663095ea7b360008054906101000a900473ffffffffffffffffffffffffffffffffffffffff167fffffffffffffffffffffffffffffffffffffffffffffffffffffffffffffffff6040518363ffffffff1660e01b815260040162000d4e929190620020e2565b6020604051808303816000875af115801562000d6e573d6000803e3d6000fd5b505050506040513d601f19601f8201168201806040525081019062000d9491906200214c565b50600660009054906101000a900473ffffffffffffffffffffffffffffffffffffffff1673ffffffffffffffffffffffffffffffffffffffff1663095ea7b3600860009054906101000a900473ffffffffffffffffffffffffffffffffffffffff167fffffffffffffffffffffffffffffffffffffffffffffffffffffffffffffffff6040518363ffffffff1660e01b815260040162000e36929190620020e2565b6020604051808303816000875af115801562000e56573d6000803e3d6000fd5b505050506040513d601f19601f8201168201806040525081019062000e7c91906200214c565b50600760009054906101000a900473ffffffffffffffffffffffffffffffffffffffff1673ffffffffffffffffffffffffffffffffffffffff1663095ea7b3600860009054906101000a900473ffffffffffffffffffffffffffffffffffffffff167fffffffffffffffffffffffffffffffffffffffffffffffffffffffffffffffff6040518363ffffffff1660e01b815260040162000f1e929190620020e2565b6020604051808303816000875af115801562000f3e573d6000803e3d6000fd5b505050506040513d601f19601f8201168201806040525081019062000f6491906200214c565b50600660009054906101000a900473ffffffffffffffffffffffffffffffffffffffff1673ffffffffffffffffffffffffffffffffffffffff1663095ea7b3600960009054906101000a900473ffffffffffffffffffffffffffffffffffffffff167fffffffffffffffffffffffffffffffffffffffffffffffffffffffffffffffff6040518363ffffffff1660e01b815260040162001006929190620020e2565b6020604051808303816000875af115801562001026573d6000803e3d6000fd5b505050506040513d601f19601f820116820180604052508101906200104c91906200214c565b50600760009054906101000a900473ffffffffffffffffffffffffffffffffffffffff1673ffffffffffffffffffffffffffffffffffffffff1663095ea7b3600960009054906101000a900473ffffffffffffffffffffffffffffffffffffffff167fffffffffffffffffffffffffffffffffffffffffffffffffffffffffffffffff6040518363ffffffff1660e01b8152600401620010ee929190620020e2565b6020604051808303816000875af11580156200110e573d6000803e3d6000fd5b505050506040513d601f19601f820116820180604052508101906200113491906200214c565b5050505050565b60007fbc58edeeebb6affa7d47f92166aac083ba4b1130ffed0809c5b41d851cce90286040516020016200117091906200218f565b60405160208183030381529060405280519060200120905060008054906101000a900473ffffffffffffffffffffffffffffffffffffffff1673ffffffffffffffffffffffffffffffffffffffff1663e35468cb826040518263ffffffff1660e01b8152600401620011e391906200218f565b600060405180830381600087803b158015620011fe57600080fd5b505af115801562001213573d6000803e3d6000fd5b5050505060008060008054906101000a900473ffffffffffffffffffffffffffffffffffffffff1673ffffffffffffffffffffffffffffffffffffffff1663f9eb456b846040518263ffffffff1660e01b81526004016200127591906200218f565b6040805180830381865afa15801562001292573d6000803e3d6000fd5b505050506040513d601f19601f82011682018060405250810190620012b89190620021dd565b915091506001820362001302577f81169a5d04af4a3bb9a1cdebce8d9c090ab67042281e2e90cd51935e1beb565f604051620012f490620022c4565b60405180910390a16200133a565b7ffd5de27667e5407df5be0b6efb7f86ae8c40433040399a5e4d36a46ccc50638d60405162001331906200234b565b60405180910390a15b80156200137e577f81169a5d04af4a3bb9a1cdebce8d9c090ab67042281e2e90cd51935e1beb565f60405162001370906200240d565b60405180910390a1620013b6565b7ffd5de27667e5407df5be0b6efb7f86ae8c40433040399a5e4d36a46ccc50638d604051620013ad9062002494565b60405180910390a15b505050565b617fff60010b81565b6c0100000000000000000000000081565b60008054906101000a900473ffffffffffffffffffffffffffffffffffffffff1681565b6000808273ffffffffffffffffffffffffffffffffffffffff168473ffffffffffffffffffffffffffffffffffffffff1610156200144157838380925081935050506200144c565b828480925081935050505b9250929050565b60008160405160200162001468919062002528565b604051602081830303815290604052805190602001209050919050565b612186806200254683390190565b612ba280620046cc83390190565b611a3f806200726e83390190565b611f8c8062008cad83390190565b60008160020b9050919050565b620014d581620014bd565b82525050565b6000602082019050620014f26000830184620014ca565b92915050565b600073ffffffffffffffffffffffffffffffffffffffff82169050919050565b6200152381620014f8565b82525050565b600060208201905062001540600083018462001518565b92915050565b6000819050919050565b6000620015716200156b6200156584620014f8565b62001546565b620014f8565b9050919050565b6000620015858262001550565b9050919050565b6000620015998262001578565b9050919050565b620015ab816200158c565b82525050565b6000602082019050620015c86000830184620015a0565b92915050565b600082825260208201905092915050565b7f5465737441000000000000000000000000000000000000000000000000000000600082015250565b600062001617600583620015ce565b91506200162482620015df565b602082019050919050565b7f4100000000000000000000000000000000000000000000000000000000000000600082015250565b600062001667600183620015ce565b915062001674826200162f565b602082019050919050565b6000819050919050565b600060ff82169050919050565b6000620016b7620016b1620016ab846200167f565b62001546565b62001689565b9050919050565b620016c98162001696565b82525050565b6000819050919050565b6000819050919050565b600062001704620016fe620016f884620016cf565b62001546565b620016d9565b9050919050565b6200171681620016e3565b82525050565b60006080820190508181036000830152620017378162001608565b905081810360208301526200174c8162001658565b90506200175d6040830185620016be565b6200176c60608301846200170b565b9392505050565b7f5465737442000000000000000000000000000000000000000000000000000000600082015250565b6000620017ab600583620015ce565b9150620017b88262001773565b602082019050919050565b7f4200000000000000000000000000000000000000000000000000000000000000600082015250565b6000620017fb600183620015ce565b91506200180882620017c3565b602082019050919050565b600060808201905081810360008301526200182e816200179c565b905081810360208301526200184381620017ec565b9050620018546040830185620016be565b6200186360608301846200170b565b9392505050565b7f4e487b7100000000000000000000000000000000000000000000000000000000600052604160045260246000fd5b7f4e487b7100000000000000000000000000000000000000000000000000000000600052603260045260246000fd5b6000620018d582620014f8565b9050919050565b620018e781620018c8565b82525050565b600081519050919050565b600082825260208201905092915050565b6000819050602082019050919050565b6200192481620018c8565b82525050565b600062001938838362001919565b60208301905092915050565b6000602082019050919050565b60006200195e82620018ed565b6200196a8185620018f8565b9350620019778362001909565b8060005b83811015620019ae5781516200199288826200192a565b97506200199f8362001944565b9250506001810190506200197b565b5085935050505092915050565b6000819050919050565b6000620019e6620019e0620019da84620019bb565b62001546565b62001689565b9050919050565b620019f881620019c5565b82525050565b600060608201905062001a156000830186620018dc565b818103602083015262001a29818562001951565b905062001a3a6040830184620019ed565b949350505050565b62001a4d81620018c8565b82525050565b62001a5e81620014f8565b82525050565b6000819050919050565b600062001a8f62001a8962001a838462001a64565b62001546565b620016d9565b9050919050565b62001aa18162001a6e565b82525050565b600081519050919050565b600082825260208201905092915050565b60005b8381101562001ae357808201518184015260208101905062001ac6565b60008484015250505050565b6000601f19601f8301169050919050565b600062001b0d8262001aa7565b62001b19818562001ab2565b935062001b2b81856020860162001ac3565b62001b368162001aef565b840191505092915050565b600060a08201905062001b58600083018862001a42565b62001b67602083018762001a53565b62001b76604083018662001a96565b818103606083015262001b8a818562001b00565b9050818103608083015262001ba0818462001b00565b90509695505050505050565b600080fd5b62001bbc81620018c8565b811462001bc857600080fd5b50565b60008151905062001bdc8162001bb1565b92915050565b6000819050919050565b62001bf78162001be2565b811462001c0357600080fd5b50565b60008151905062001c178162001bec565b92915050565b6000806040838503121562001c375762001c3662001bac565b5b600062001c478582860162001bcb565b925050602062001c5a8582860162001c06565b9150509250929050565b600062001c718262001578565b9050919050565b62001c838162001c64565b82525050565b600062001caa62001ca462001c9e84620019bb565b62001546565b620016d9565b9050919050565b62001cbc8162001c89565b82525050565b600060608201905062001cd9600083018662001c78565b818103602083015262001ced818562001951565b905062001cfe604083018462001cb1565b949350505050565b7f466169725472616465546573743a20486f6f6b2061646472657373206d69736d60008201527f6174636800000000000000000000000000000000000000000000000000000000602082015250565b600062001d64602483620015ce565b915062001d718262001d06565b604082019050919050565b6000602082019050818103600083015262001d978162001d55565b9050919050565b60008160001c9050919050565b600073ffffffffffffffffffffffffffffffffffffffff82169050919050565b600062001de262001ddc8362001d9e565b62001dab565b9050919050565b600062001df68262001578565b9050919050565b62001e088162001de9565b82525050565b60008160a01c9050919050565b600062ffffff82169050919050565b600062001e4162001e3b8362001e0e565b62001e1b565b9050919050565b600062ffffff82169050919050565b62001e628162001e48565b82525050565b60008160b81c9050919050565b60008160020b9050919050565b600062001e9962001e938362001e68565b62001e75565b9050919050565b62001eab81620014bd565b82525050565b600073ffffffffffffffffffffffffffffffffffffffff82169050919050565b600062001ee862001ee28362001d9e565b62001eb1565b9050919050565b600062001efc8262001578565b9050919050565b62001f0e8162001eef565b82525050565b60a08201600080830154905062001f2b8162001dcb565b62001f3a600086018262001dfd565b506001830154905062001f4d8162001dcb565b62001f5c602086018262001dfd565b5062001f688162001e2a565b62001f77604086018262001e57565b5062001f838162001e82565b62001f92606086018262001ea0565b506002830154905062001fa58162001ed1565b62001fb4608086018262001f03565b5050505050565b600082825260208201905092915050565b600062001fd98262001aa7565b62001fe5818562001fbb565b935062001ff781856020860162001ac3565b620020028162001aef565b840191505092915050565b600060e08201905062002024600083018662001f14565b6200203360a083018562001518565b81810360c083015262002047818462001fcc565b9050949350505050565b6200205c81620014bd565b81146200206857600080fd5b50565b6000815190506200207c8162002051565b92915050565b6000602082840312156200209b576200209a62001bac565b5b6000620020ab848285016200206b565b91505092915050565b6000602082019050620020cb600083018462001c78565b92915050565b620020dc81620016d9565b82525050565b6000604082019050620020f96000830185620018dc565b620021086020830184620020d1565b9392505050565b60008115159050919050565b62002126816200210f565b81146200213257600080fd5b50565b60008151905062002146816200211b565b92915050565b60006020828403121562002165576200216462001bac565b5b6000620021758482850162002135565b91505092915050565b620021898162001be2565b82525050565b6000602082019050620021a660008301846200217e565b92915050565b620021b781620016d9565b8114620021c357600080fd5b50565b600081519050620021d781620021ac565b92915050565b60008060408385031215620021f757620021f662001bac565b5b60006200220785828601620021c6565b92505060206200221a8582860162002135565b9150509250929050565b7f436f756e74207465737400000000000000000000000000000000000000000000600082015250565b60006200225c600a83620015ce565b9150620022698262002224565b602082019050919050565b7f5041535345443a20436f756e7420697320310000000000000000000000000000600082015250565b6000620022ac601283620015ce565b9150620022b98262002274565b602082019050919050565b60006040820190508181036000830152620022df816200224d565b90508181036020830152620022f4816200229d565b9050919050565b7f4641494c45443a20436f756e74206973206e6f74203100000000000000000000600082015250565b600062002333601683620015ce565b91506200234082620022fb565b602082019050919050565b60006020820190508181036000830152620023668162002324565b9050919050565b7f6861735369676e65642074657374000000000000000000000000000000000000600082015250565b6000620023a5600e83620015ce565b9150620023b2826200236d565b602082019050919050565b7f5041535345443a206861735369676e6564206973207472756500000000000000600082015250565b6000620023f5601983620015ce565b91506200240282620023bd565b602082019050919050565b60006040820190508181036000830152620024288162002396565b905081810360208301526200243d81620023e6565b9050919050565b7f4641494c45443a206861735369676e6564206973206e6f742074727565000000600082015250565b60006200247c601d83620015ce565b9150620024898262002444565b602082019050919050565b60006020820190508181036000830152620024af816200246d565b9050919050565b60a082016000820151620024ce600085018262001dfd565b506020820151620024e3602085018262001dfd565b506040820151620024f8604085018262001e57565b5060608201516200250d606085018262001ea0565b50608082015162002522608085018262001f03565b50505050565b600060a0820190506200253f6000830184620024b6565b9291505056fe60e06040523480156200001157600080fd5b506040516200218638038062002186833981810160405281019062000037919062000430565b83838382600090816200004b919062000721565b5081600190816200005d919062000721565b508060ff1660808160ff16815250504660a0818152505062000084620000aa60201b60201c565b60c08181525050505050620000a033826200013a60201b60201c565b5050505062000a25565b60007f8b73c3c69bb8fe3d512ecc4cf759cc79239f7b179b0ffacaa9a75d522b39400f6000604051620000de9190620008b7565b60405180910390207fc89efdaa54c0f20c7adf612882df0950f5a951637e0307cdcb4c672f298b8bc646306040516020016200011f95949392919062000941565b60405160208183030381529060405280519060200120905090565b6200014c82826200015060201b60201c565b5050565b8060026000828254620001649190620009cd565b9250508190555080600360008473ffffffffffffffffffffffffffffffffffffffff1673ffffffffffffffffffffffffffffffffffffffff168152602001908152602001600020600082825401925050819055508173ffffffffffffffffffffffffffffffffffffffff16600073ffffffffffffffffffffffffffffffffffffffff167fddf252ad1be2c89b69c2b068fc378daa952ba7f163c4a11628f55a4df523b3ef8360405162000218919062000a08565b60405180910390a35050565b6000604051905090565b600080fd5b600080fd5b600080fd5b600080fd5b6000601f19601f8301169050919050565b7f4e487b7100000000000000000000000000000000000000000000000000000000600052604160045260246000fd5b6200028d8262000242565b810181811067ffffffffffffffff82111715620002af57620002ae62000253565b5b80604052505050565b6000620002c462000224565b9050620002d2828262000282565b919050565b600067ffffffffffffffff821115620002f557620002f462000253565b5b620003008262000242565b9050602081019050919050565b60005b838110156200032d57808201518184015260208101905062000310565b60008484015250505050565b6000620003506200034a84620002d7565b620002b8565b9050828152602081018484840111156200036f576200036e6200023d565b5b6200037c8482856200030d565b509392505050565b600082601f8301126200039c576200039b62000238565b5b8151620003ae84826020860162000339565b91505092915050565b600060ff82169050919050565b620003cf81620003b7565b8114620003db57600080fd5b50565b600081519050620003ef81620003c4565b92915050565b6000819050919050565b6200040a81620003f5565b81146200041657600080fd5b50565b6000815190506200042a81620003ff565b92915050565b600080600080608085870312156200044d576200044c6200022e565b5b600085015167ffffffffffffffff8111156200046e576200046d62000233565b5b6200047c8782880162000384565b945050602085015167ffffffffffffffff811115620004a0576200049f62000233565b5b620004ae8782880162000384565b9350506040620004c187828801620003de565b9250506060620004d48782880162000419565b91505092959194509250565b600081519050919050565b7f4e487b7100000000000000000000000000000000000000000000000000000000600052602260045260246000fd5b600060028204905060018216806200053357607f821691505b602082108103620005495762000548620004eb565b5b50919050565b60008190508160005260206000209050919050565b60006020601f8301049050919050565b600082821b905092915050565b600060088302620005b37fffffffffffffffffffffffffffffffffffffffffffffffffffffffffffffffff8262000574565b620005bf868362000574565b95508019841693508086168417925050509392505050565b6000819050919050565b600062000602620005fc620005f684620003f5565b620005d7565b620003f5565b9050919050565b6000819050919050565b6200061e83620005e1565b620006366200062d8262000609565b84845462000581565b825550505050565b600090565b6200064d6200063e565b6200065a81848462000613565b505050565b5b8181101562000682576200067660008262000643565b60018101905062000660565b5050565b601f821115620006d1576200069b816200054f565b620006a68462000564565b81016020851015620006b6578190505b620006ce620006c58562000564565b8301826200065f565b50505b505050565b600082821c905092915050565b6000620006f660001984600802620006d6565b1980831691505092915050565b6000620007118383620006e3565b9150826002028217905092915050565b6200072c82620004e0565b67ffffffffffffffff81111562000748576200074762000253565b5b6200075482546200051a565b6200076182828562000686565b600060209050601f83116001811462000799576000841562000784578287015190505b62000790858262000703565b86555062000800565b601f198416620007a9866200054f565b60005b82811015620007d357848901518255600182019150602085019450602081019050620007ac565b86831015620007f35784890151620007ef601f891682620006e3565b8355505b6001600288020188555050505b505050505050565b600081905092915050565b60008190508160005260206000209050919050565b6000815462000837816200051a565b62000843818662000808565b945060018216600081146200086157600181146200087757620008ae565b60ff1983168652811515820286019350620008ae565b620008828562000813565b60005b83811015620008a65781548189015260018201915060208101905062000885565b838801955050505b50505092915050565b6000620008c5828462000828565b915081905092915050565b6000819050919050565b620008e581620008d0565b82525050565b620008f681620003f5565b82525050565b600073ffffffffffffffffffffffffffffffffffffffff82169050919050565b60006200092982620008fc565b9050919050565b6200093b816200091c565b82525050565b600060a082019050620009586000830188620008da565b620009676020830187620008da565b620009766040830186620008da565b620009856060830185620008eb565b62000994608083018462000930565b9695505050505050565b7f4e487b7100000000000000000000000000000000000000000000000000000000600052601160045260246000fd5b6000620009da82620003f5565b9150620009e783620003f5565b925082820190508082111562000a025762000a016200099e565b5b92915050565b600060208201905062000a1f6000830184620008eb565b92915050565b60805160a05160c05161173162000a55600039600061073901526000610705015260006106df01526117316000f3fe608060405234801561001057600080fd5b50600436106100ea5760003560e01c806361f49ed61161008c57806395d89b411161006657806395d89b4114610273578063a9059cbb14610291578063d505accf146102c1578063dd62ed3e146102dd576100ea565b806361f49ed6146101e357806370a08231146102135780637ecebe0014610243576100ea565b806323b872dd116100c857806323b872dd1461015b578063313ce5671461018b5780633644e515146101a957806340c10f19146101c7576100ea565b806306fdde03146100ef578063095ea7b31461010d57806318160ddd1461013d575b600080fd5b6100f761030d565b6040516101049190610f3b565b60405180910390f35b61012760048036038101906101229190610ff6565b61039b565b6040516101349190611051565b60405180910390f35b61014561048d565b604051610152919061107b565b60405180910390f35b61017560048036038101906101709190611096565b610493565b6040516101829190611051565b60405180910390f35b6101936106dd565b6040516101a09190611105565b60405180910390f35b6101b1610701565b6040516101be9190611139565b60405180910390f35b6101e160048036038101906101dc9190610ff6565b61075e565b005b6101fd60048036038101906101f89190611096565b61076c565b60405161020a9190611051565b60405180910390f35b61022d60048036038101906102289190611154565b61085f565b60405161023a919061107b565b60405180910390f35b61025d60048036038101906102589190611154565b610877565b60405161026a919061107b565b60405180910390f35b61027b61088f565b6040516102889190610f3b565b60405180910390f35b6102ab60048036038101906102a69190610ff6565b61091d565b6040516102b89190611051565b60405180910390f35b6102db60048036038101906102d691906111d9565b610a31565b005b6102f760048036038101906102f2919061127b565b610d2a565b604051610304919061107b565b60405180910390f35b6000805461031a906112ea565b80601f0160208091040260200160405190810160405280929190818152602001828054610346906112ea565b80156103935780601f1061036857610100808354040283529160200191610393565b820191906000526020600020905b81548152906001019060200180831161037657829003601f168201915b505050505081565b600081600460003373ffffffffffffffffffffffffffffffffffffffff1673ffffffffffffffffffffffffffffffffffffffff16815260200190815260200160002060008573ffffffffffffffffffffffffffffffffffffffff1673ffffffffffffffffffffffffffffffffffffffff168152602001908152602001600020819055508273ffffffffffffffffffffffffffffffffffffffff163373ffffffffffffffffffffffffffffffffffffffff167f8c5be1e5ebec7d5bd14f71427d1e84f3dd0314c0f7b2291e5b200ac8c7c3b9258460405161047b919061107b565b60405180910390a36001905092915050565b60025481565b600080600460008673ffffffffffffffffffffffffffffffffffffffff1673ffffffffffffffffffffffffffffffffffffffff16815260200190815260200160002060003373ffffffffffffffffffffffffffffffffffffffff1673ffffffffffffffffffffffffffffffffffffffff1681526020019081526020016000205490507fffffffffffffffffffffffffffffffffffffffffffffffffffffffffffffffff81146105c9578281610548919061134a565b600460008773ffffffffffffffffffffffffffffffffffffffff1673ffffffffffffffffffffffffffffffffffffffff16815260200190815260200160002060003373ffffffffffffffffffffffffffffffffffffffff1673ffffffffffffffffffffffffffffffffffffffff168152602001908152602001600020819055505b82600360008773ffffffffffffffffffffffffffffffffffffffff1673ffffffffffffffffffffffffffffffffffffffff1681526020019081526020016000206000828254610618919061134a565b9250508190555082600360008673ffffffffffffffffffffffffffffffffffffffff1673ffffffffffffffffffffffffffffffffffffffff168152602001908152602001600020600082825401925050819055508373ffffffffffffffffffffffffffffffffffffffff168573ffffffffffffffffffffffffffffffffffffffff167fddf252ad1be2c89b69c2b068fc378daa952ba7f163c4a11628f55a4df523b3ef856040516106c9919061107b565b60405180910390a360019150509392505050565b7f000000000000000000000000000000000000000000000000000000000000000081565b60007f0000000000000000000000000000000000000000000000000000000000000000461461073757610732610d4f565b610759565b7f00000000000000000000000000000000000000000000000000000000000000005b905090565b6107688282610ddb565b5050565b600081600460008673ffffffffffffffffffffffffffffffffffffffff1673ffffffffffffffffffffffffffffffffffffffff16815260200190815260200160002060008573ffffffffffffffffffffffffffffffffffffffff1673ffffffffffffffffffffffffffffffffffffffff168152602001908152602001600020819055508273ffffffffffffffffffffffffffffffffffffffff168473ffffffffffffffffffffffffffffffffffffffff167f8c5be1e5ebec7d5bd14f71427d1e84f3dd0314c0f7b2291e5b200ac8c7c3b9258460405161084c919061107b565b60405180910390a3600190509392505050565b60036020528060005260406000206000915090505481565b60056020528060005260406000206000915090505481565b6001805461089c906112ea565b80601f01602080910402602001604051908101604052809291908181526020018280546108c8906112ea565b80156109155780601f106108ea57610100808354040283529160200191610915565b820191906000526020600020905b8154815290600101906020018083116108f857829003601f168201915b505050505081565b600081600360003373ffffffffffffffffffffffffffffffffffffffff1673ffffffffffffffffffffffffffffffffffffffff168152602001908152602001600020600082825461096e919061134a565b9250508190555081600360008573ffffffffffffffffffffffffffffffffffffffff1673ffffffffffffffffffffffffffffffffffffffff168152602001908152602001600020600082825401925050819055508273ffffffffffffffffffffffffffffffffffffffff163373ffffffffffffffffffffffffffffffffffffffff167fddf252ad1be2c89b69c2b068fc378daa952ba7f163c4a11628f55a4df523b3ef84604051610a1f919061107b565b60405180910390a36001905092915050565b42841015610a74576040517f08c379a0000000000000000000000000000000000000000000000000000000008152600401610a6b906113ca565b60405180910390fd5b60006001610a80610701565b7f6e71edae12b1b97f4d1f60370fef10105fa2faae0126114a169c64845d6126c98a8a8a600560008f73ffffffffffffffffffffffffffffffffffffffff1673ffffffffffffffffffffffffffffffffffffffff1681526020019081526020016000206000815480929190600101919050558b604051602001610b08969594939291906113f9565b60405160208183030381529060405280519060200120604051602001610b2f9291906114d2565b6040516020818303038152906040528051906020012085858560405160008152602001604052604051610b659493929190611509565b6020604051602081039080840390855afa158015610b87573d6000803e3d6000fd5b505050602060405103519050600073ffffffffffffffffffffffffffffffffffffffff168173ffffffffffffffffffffffffffffffffffffffff1614158015610bfb57508773ffffffffffffffffffffffffffffffffffffffff168173ffffffffffffffffffffffffffffffffffffffff16145b610c3a576040517f08c379a0000000000000000000000000000000000000000000000000000000008152600401610c319061159a565b60405180910390fd5b85600460008373ffffffffffffffffffffffffffffffffffffffff1673ffffffffffffffffffffffffffffffffffffffff16815260200190815260200160002060008973ffffffffffffffffffffffffffffffffffffffff1673ffffffffffffffffffffffffffffffffffffffff16815260200190815260200160002081905550508573ffffffffffffffffffffffffffffffffffffffff168773ffffffffffffffffffffffffffffffffffffffff167f8c5be1e5ebec7d5bd14f71427d1e84f3dd0314c0f7b2291e5b200ac8c7c3b92587604051610d19919061107b565b60405180910390a350505050505050565b6004602052816000526040600020602052806000526040600020600091509150505481565b60007f8b73c3c69bb8fe3d512ecc4cf759cc79239f7b179b0ffacaa9a75d522b39400f6000604051610d81919061165d565b60405180910390207fc89efdaa54c0f20c7adf612882df0950f5a951637e0307cdcb4c672f298b8bc64630604051602001610dc0959493929190611674565b60405160208183030381529060405280519060200120905090565b8060026000828254610ded91906116c7565b9250508190555080600360008473ffffffffffffffffffffffffffffffffffffffff1673ffffffffffffffffffffffffffffffffffffffff168152602001908152602001600020600082825401925050819055508173ffffffffffffffffffffffffffffffffffffffff16600073ffffffffffffffffffffffffffffffffffffffff167fddf252ad1be2c89b69c2b068fc378daa952ba7f163c4a11628f55a4df523b3ef83604051610e9f919061107b565b60405180910390a35050565b600081519050919050565b600082825260208201905092915050565b60005b83811015610ee5578082015181840152602081019050610eca565b60008484015250505050565b6000601f19601f8301169050919050565b6000610f0d82610eab565b610f178185610eb6565b9350610f27818560208601610ec7565b610f3081610ef1565b840191505092915050565b60006020820190508181036000830152610f558184610f02565b905092915050565b600080fd5b600073ffffffffffffffffffffffffffffffffffffffff82169050919050565b6000610f8d82610f62565b9050919050565b610f9d81610f82565b8114610fa857600080fd5b50565b600081359050610fba81610f94565b92915050565b6000819050919050565b610fd381610fc0565b8114610fde57600080fd5b50565b600081359050610ff081610fca565b92915050565b6000806040838503121561100d5761100c610f5d565b5b600061101b85828601610fab565b925050602061102c85828601610fe1565b9150509250929050565b60008115159050919050565b61104b81611036565b82525050565b60006020820190506110666000830184611042565b92915050565b61107581610fc0565b82525050565b6000602082019050611090600083018461106c565b92915050565b6000806000606084860312156110af576110ae610f5d565b5b60006110bd86828701610fab565b93505060206110ce86828701610fab565b92505060406110df86828701610fe1565b9150509250925092565b600060ff82169050919050565b6110ff816110e9565b82525050565b600060208201905061111a60008301846110f6565b92915050565b6000819050919050565b61113381611120565b82525050565b600060208201905061114e600083018461112a565b92915050565b60006020828403121561116a57611169610f5d565b5b600061117884828501610fab565b91505092915050565b61118a816110e9565b811461119557600080fd5b50565b6000813590506111a781611181565b92915050565b6111b681611120565b81146111c157600080fd5b50565b6000813590506111d3816111ad565b92915050565b600080600080600080600060e0888a0312156111f8576111f7610f5d565b5b60006112068a828b01610fab565b97505060206112178a828b01610fab565b96505060406112288a828b01610fe1565b95505060606112398a828b01610fe1565b945050608061124a8a828b01611198565b93505060a061125b8a828b016111c4565b92505060c061126c8a828b016111c4565b91505092959891949750929550565b6000806040838503121561129257611291610f5d565b5b60006112a085828601610fab565b92505060206112b185828601610fab565b9150509250929050565b7f4e487b7100000000000000000000000000000000000000000000000000000000600052602260045260246000fd5b6000600282049050600182168061130257607f821691505b602082108103611315576113146112bb565b5b50919050565b7f4e487b7100000000000000000000000000000000000000000000000000000000600052601160045260246000fd5b600061135582610fc0565b915061136083610fc0565b92508282039050818111156113785761137761131b565b5b92915050565b7f5045524d49545f444541444c494e455f45585049524544000000000000000000600082015250565b60006113b4601783610eb6565b91506113bf8261137e565b602082019050919050565b600060208201905081810360008301526113e3816113a7565b9050919050565b6113f381610f82565b82525050565b600060c08201905061140e600083018961112a565b61141b60208301886113ea565b61142860408301876113ea565b611435606083018661106c565b611442608083018561106c565b61144f60a083018461106c565b979650505050505050565b600081905092915050565b7f1901000000000000000000000000000000000000000000000000000000000000600082015250565b600061149b60028361145a565b91506114a682611465565b600282019050919050565b6000819050919050565b6114cc6114c782611120565b6114b1565b82525050565b60006114dd8261148e565b91506114e982856114bb565b6020820191506114f982846114bb565b6020820191508190509392505050565b600060808201905061151e600083018761112a565b61152b60208301866110f6565b611538604083018561112a565b611545606083018461112a565b95945050505050565b7f494e56414c49445f5349474e4552000000000000000000000000000000000000600082015250565b6000611584600e83610eb6565b915061158f8261154e565b602082019050919050565b600060208201905081810360008301526115b381611577565b9050919050565b600081905092915050565b60008190508160005260206000209050919050565b600081546115e7816112ea565b6115f181866115ba565b9450600182166000811461160c576001811461162157611654565b60ff1983168652811515820286019350611654565b61162a856115c5565b60005b8381101561164c5781548189015260018201915060208101905061162d565b838801955050505b50505092915050565b600061166982846115da565b915081905092915050565b600060a082019050611689600083018861112a565b611696602083018761112a565b6116a3604083018661112a565b6116b0606083018561106c565b6116bd60808301846113ea565b9695505050505050565b60006116d282610fc0565b91506116dd83610fc0565b92508282019050808211156116f5576116f461131b565b5b9291505056fea2646970667358221220d31e47fd1accc7a22040a33b1819ef70519b11925aa65adeb7bdfcd7a72d4d9264736f6c6343000815003360a06040523480156200001157600080fd5b5060405162002ba238038062002ba2833981810160405281019062000037919062000912565b828073ffffffffffffffffffffffffffffffffffffffff1660808173ffffffffffffffffffffffffffffffffffffffff16815250506200007d30620002a160201b60201c565b508082511015620000c5576040517f08c379a0000000000000000000000000000000000000000000000000000000008152600401620000bc9062000a14565b60405180910390fd5b600081116200010b576040517f08c379a0000000000000000000000000000000000000000000000000000000008152600401620001029062000aac565b60405180910390fd5b60005b825181101562000250576002600084838151811062000132576200013162000ace565b5b602002602001015173ffffffffffffffffffffffffffffffffffffffff1673ffffffffffffffffffffffffffffffffffffffff16815260200190815260200160002060009054906101000a900460ff1615620001c5576040517f08c379a0000000000000000000000000000000000000000000000000000000008152600401620001bc9062000b73565b60405180910390fd5b600160026000858481518110620001e157620001e062000ace565b5b602002602001015173ffffffffffffffffffffffffffffffffffffffff1673ffffffffffffffffffffffffffffffffffffffff16815260200190815260200160002060006101000a81548160ff0219169083151502179055508080620002479062000bc4565b9150506200010e565b5080600381905550336000806101000a81548173ffffffffffffffffffffffffffffffffffffffff021916908373ffffffffffffffffffffffffffffffffffffffff16021790555050505062000c3f565b620002c281620002b6620002c560201b60201c565b6200032660201b60201c565b50565b620002cf6200064f565b60405180610100016040528060001515815260200160001515815260200160001515815260200160001515815260200160011515815260200160011515815260200160001515815260200160001515815250905090565b62000337826200048760201b60201c565b1515816000015115151415806200036657506200035a82620004c060201b60201c565b15158160200151151514155b806200038a57506200037e82620004f960201b60201c565b15158160400151151514155b80620003ae5750620003a2826200053260201b60201c565b15158160600151151514155b80620003d25750620003c6826200056b60201b60201c565b15158160800151151514155b80620003f65750620003ea82620005a460201b60201c565b15158160a00151151514155b806200041a57506200040e82620005dd60201b60201c565b15158160c00151151514155b806200043e575062000432826200061660201b60201c565b15158160e00151151514155b156200048357816040517fe65af6a00000000000000000000000000000000000000000000000000000000081526004016200047a919062000c22565b60405180910390fd5b5050565b6000807380000000000000000000000000000000000000008373ffffffffffffffffffffffffffffffffffffffff161614159050919050565b6000807340000000000000000000000000000000000000008373ffffffffffffffffffffffffffffffffffffffff161614159050919050565b6000807320000000000000000000000000000000000000008373ffffffffffffffffffffffffffffffffffffffff161614159050919050565b6000807310000000000000000000000000000000000000008373ffffffffffffffffffffffffffffffffffffffff161614159050919050565b6000807308000000000000000000000000000000000000008373ffffffffffffffffffffffffffffffffffffffff161614159050919050565b6000807304000000000000000000000000000000000000008373ffffffffffffffffffffffffffffffffffffffff161614159050919050565b6000807302000000000000000000000000000000000000008373ffffffffffffffffffffffffffffffffffffffff161614159050919050565b6000807301000000000000000000000000000000000000008373ffffffffffffffffffffffffffffffffffffffff161614159050919050565b6040518061010001604052806000151581526020016000151581526020016000151581526020016000151581526020016000151581526020016000151581526020016000151581526020016000151581525090565b6000604051905090565b600080fd5b600080fd5b600073ffffffffffffffffffffffffffffffffffffffff82169050919050565b6000620006e582620006b8565b9050919050565b6000620006f982620006d8565b9050919050565b6200070b81620006ec565b81146200071757600080fd5b50565b6000815190506200072b8162000700565b92915050565b600080fd5b6000601f19601f8301169050919050565b7f4e487b7100000000000000000000000000000000000000000000000000000000600052604160045260246000fd5b620007818262000736565b810181811067ffffffffffffffff82111715620007a357620007a262000747565b5b80604052505050565b6000620007b8620006a4565b9050620007c6828262000776565b919050565b600067ffffffffffffffff821115620007e957620007e862000747565b5b602082029050602081019050919050565b600080fd5b6200080a81620006d8565b81146200081657600080fd5b50565b6000815190506200082a81620007ff565b92915050565b6000620008476200084184620007cb565b620007ac565b905080838252602082019050602084028301858111156200086d576200086c620007fa565b5b835b818110156200089a578062000885888262000819565b8452602084019350506020810190506200086f565b5050509392505050565b600082601f830112620008bc57620008bb62000731565b5b8151620008ce84826020860162000830565b91505092915050565b6000819050919050565b620008ec81620008d7565b8114620008f857600080fd5b50565b6000815190506200090c81620008e1565b92915050565b6000806000606084860312156200092e576200092d620006ae565b5b60006200093e868287016200071a565b935050602084015167ffffffffffffffff811115620009625762000961620006b3565b5b6200097086828701620008a4565b92505060406200098386828701620008fb565b9150509250925092565b600082825260208201905092915050565b7f496e76616c6964207369676e657273206f72207265717569726564207369676e60008201527f6174757265730000000000000000000000000000000000000000000000000000602082015250565b6000620009fc6026836200098d565b915062000a09826200099e565b604082019050919050565b6000602082019050818103600083015262000a2f81620009ed565b9050919050565b7f4174206c65617374206f6e65207369676e61747572652069732072657175697260008201527f6564000000000000000000000000000000000000000000000000000000000000602082015250565b600062000a946022836200098d565b915062000aa18262000a36565b604082019050919050565b6000602082019050818103600083015262000ac78162000a85565b9050919050565b7f4e487b7100000000000000000000000000000000000000000000000000000000600052603260045260246000fd5b7f4475706c6963617465207369676e65727320617265206e6f7420616c6c6f776560008201527f6400000000000000000000000000000000000000000000000000000000000000602082015250565b600062000b5b6021836200098d565b915062000b688262000afd565b604082019050919050565b6000602082019050818103600083015262000b8e8162000b4c565b9050919050565b7f4e487b7100000000000000000000000000000000000000000000000000000000600052601160045260246000fd5b600062000bd182620008d7565b91507fffffffffffffffffffffffffffffffffffffffffffffffffffffffffffffffff820362000c065762000c0562000b95565b5b600182019050919050565b62000c1c81620006d8565b82525050565b600060208201905062000c39600083018462000c11565b92915050565b608051611f4062000c626000396000818161088e0152610abb0152611f406000f3fe608060405234801561001057600080fd5b506004361061012c5760003560e01c8063ab6291fe116100ad578063e1b4af6911610071578063e1b4af6914610391578063e35468cb146103c1578063eb12d61e146103dd578063f9eb456b146103f9578063fe9a6f451461042a5761012c565b8063ab6291fe146102b3578063b47b2fb1146102e3578063b6a8b0fa14610313578063d3f5dedd14610343578063dc4c90d3146103735761012c565b8063612c39b7116100f4578063612c39b71461020d5780637d2b9cc01461022b5780638d068043146102475780638da5cb5b14610265578063a910f80f146102835761012c565b80630e316ab71461013157806330b7cdef1461014d5780633440d8201461017d578063575e24b4146101ad5780635d2b6a4e146101dd575b600080fd5b61014b60048036038101906101469190611007565b61045a565b005b61016760048036038101906101629190611112565b6105cf565b60405161017491906111ea565b60405180910390f35b61019760048036038101906101929190611231565b610603565b6040516101a491906111ea565b60405180910390f35b6101c760048036038101906101c291906112d9565b610637565b6040516101d491906111ea565b60405180910390f35b6101f760048036038101906101f29190611007565b6106d2565b604051610204919061137e565b60405180910390f35b6102156106f2565b604051610222919061144a565b60405180910390f35b6102456004803603810190610240919061149c565b610751565b005b61024f61082c565b60405161025c91906114d8565b60405180910390f35b61026d610832565b60405161027a9190611502565b60405180910390f35b61029d60048036038101906102989190611556565b610856565b6040516102aa91906111ea565b60405180910390f35b6102cd60048036038101906102c891906115f2565b61088a565b6040516102da91906116cf565b60405180910390f35b6102fd60048036038101906102f891906116f1565b6109db565b60405161030a91906111ea565b60405180910390f35b61032d6004803603810190610328919061178e565b610a67565b60405161033a91906111ea565b60405180910390f35b61035d60048036038101906103589190611860565b610a9b565b60405161036a91906114d8565b60405180910390f35b61037b610ab9565b60405161038891906118ec565b60405180910390f35b6103ab60048036038101906103a6919061178e565b610add565b6040516103b891906111ea565b60405180910390f35b6103db60048036038101906103d69190611860565b610b11565b005b6103f760048036038101906103f29190611007565b610d1c565b005b610413600480360381019061040e9190611860565b610e92565b604051610421929190611907565b60405180910390f35b610444600480360381019061043f9190611930565b610f16565b60405161045191906111ea565b60405180910390f35b60008054906101000a900473ffffffffffffffffffffffffffffffffffffffff1673ffffffffffffffffffffffffffffffffffffffff163373ffffffffffffffffffffffffffffffffffffffff16146104e8576040517f08c379a00000000000000000000000000000000000000000000000000000000081526004016104df90611a17565b60405180910390fd5b600260008273ffffffffffffffffffffffffffffffffffffffff1673ffffffffffffffffffffffffffffffffffffffff16815260200190815260200160002060009054906101000a900460ff16610574576040517f08c379a000000000000000000000000000000000000000000000000000000000815260040161056b90611a83565b60405180910390fd5b6000600260008373ffffffffffffffffffffffffffffffffffffffff1673ffffffffffffffffffffffffffffffffffffffff16815260200190815260200160002060006101000a81548160ff02191690831515021790555050565b60006040517f0a85dc2900000000000000000000000000000000000000000000000000000000815260040160405180910390fd5b60006040517f0a85dc2900000000000000000000000000000000000000000000000000000000815260040160405180910390fd5b6000808460405160200161064b9190611bb8565b604051602081830303815290604052805190602001209050600354600160008381526020019081526020016000206000015410156106be576040517f08c379a00000000000000000000000000000000000000000000000000000000081526004016106b590611c1f565b60405180910390fd5b63575e24b460e01b91505095945050505050565b60026020528060005260406000206000915054906101000a900460ff1681565b6106fa610f4a565b60405180610100016040528060001515815260200160001515815260200160001515815260200160001515815260200160011515815260200160011515815260200160001515815260200160001515815250905090565b60008054906101000a900473ffffffffffffffffffffffffffffffffffffffff1673ffffffffffffffffffffffffffffffffffffffff163373ffffffffffffffffffffffffffffffffffffffff16146107df576040517f08c379a00000000000000000000000000000000000000000000000000000000081526004016107d690611a17565b60405180910390fd5b60008111610822576040517f08c379a000000000000000000000000000000000000000000000000000000000815260040161081990611cb1565b60405180910390fd5b8060038190555050565b60035481565b60008054906101000a900473ffffffffffffffffffffffffffffffffffffffff1681565b60006040517f0a85dc2900000000000000000000000000000000000000000000000000000000815260040160405180910390fd5b60607f000000000000000000000000000000000000000000000000000000000000000073ffffffffffffffffffffffffffffffffffffffff163373ffffffffffffffffffffffffffffffffffffffff1614610911576040517fae18210a00000000000000000000000000000000000000000000000000000000815260040160405180910390fd5b6000803073ffffffffffffffffffffffffffffffffffffffff16858560405161093b929190611d10565b6000604051808303816000865af19150503d8060008114610978576040519150601f19603f3d011682016040523d82523d6000602084013e61097d565b606091505b509150915081156109925780925050506109d5565b60008151036109cd576040517fa40afa3800000000000000000000000000000000000000000000000000000000815260040160405180910390fd5b805160208201fd5b92915050565b600080856040516020016109ef9190611bb8565b604051602081830303815290604052805190602001209050600160008281526020019081526020016000206000808201600090555050807fcbd087f9a8a65f06ed193f7147c5f9da5d4c1b09a2de92b7f4196854a3e0e71060405160405180910390a263b47b2fb160e01b9150509695505050505050565b60006040517f0a85dc2900000000000000000000000000000000000000000000000000000000815260040160405180910390fd5b60016020528060005260406000206000915090508060000154905081565b7f000000000000000000000000000000000000000000000000000000000000000081565b60006040517f0a85dc2900000000000000000000000000000000000000000000000000000000815260040160405180910390fd5b600260003373ffffffffffffffffffffffffffffffffffffffff1673ffffffffffffffffffffffffffffffffffffffff16815260200190815260200160002060009054906101000a900460ff16610b9d576040517f08c379a0000000000000000000000000000000000000000000000000000000008152600401610b9490611d75565b60405180910390fd5b6001600082815260200190815260200160002060010160003373ffffffffffffffffffffffffffffffffffffffff1673ffffffffffffffffffffffffffffffffffffffff16815260200190815260200160002060009054906101000a900460ff1615610c3e576040517f08c379a0000000000000000000000000000000000000000000000000000000008152600401610c3590611e07565b60405180910390fd5b600160008281526020019081526020016000206000016000815480929190610c6590611e56565b9190505550600180600083815260200190815260200160002060010160003373ffffffffffffffffffffffffffffffffffffffff1673ffffffffffffffffffffffffffffffffffffffff16815260200190815260200160002060006101000a81548160ff021916908315150217905550803373ffffffffffffffffffffffffffffffffffffffff167feabc5269cb96e08081c3c66c435aaeef18ae0cdce6e785be60151096e3b37e0a60405160405180910390a350565b60008054906101000a900473ffffffffffffffffffffffffffffffffffffffff1673ffffffffffffffffffffffffffffffffffffffff163373ffffffffffffffffffffffffffffffffffffffff1614610daa576040517f08c379a0000000000000000000000000000000000000000000000000000000008152600401610da190611a17565b60405180910390fd5b600260008273ffffffffffffffffffffffffffffffffffffffff1673ffffffffffffffffffffffffffffffffffffffff16815260200190815260200160002060009054906101000a900460ff1615610e37576040517f08c379a0000000000000000000000000000000000000000000000000000000008152600401610e2e90611eea565b60405180910390fd5b6001600260008373ffffffffffffffffffffffffffffffffffffffff1673ffffffffffffffffffffffffffffffffffffffff16815260200190815260200160002060006101000a81548160ff02191690831515021790555050565b60008060016000848152602001908152602001600020600001546001600085815260200190815260200160002060010160003373ffffffffffffffffffffffffffffffffffffffff1673ffffffffffffffffffffffffffffffffffffffff16815260200190815260200160002060009054906101000a900460ff1691509150915091565b60006040517f0a85dc2900000000000000000000000000000000000000000000000000000000815260040160405180910390fd5b6040518061010001604052806000151581526020016000151581526020016000151581526020016000151581526020016000151581526020016000151581526020016000151581526020016000151581525090565b600080fd5b600080fd5b600073ffffffffffffffffffffffffffffffffffffffff82169050919050565b6000610fd482610fa9565b9050919050565b610fe481610fc9565b8114610fef57600080fd5b50565b60008135905061100181610fdb565b92915050565b60006020828403121561101d5761101c610f9f565b5b600061102b84828501610ff2565b91505092915050565b600080fd5b600060a0828403121561104f5761104e611034565b5b81905092915050565b60006060828403121561106e5761106d611034565b5b81905092915050565b6000819050919050565b61108a81611077565b811461109557600080fd5b50565b6000813590506110a781611081565b92915050565b600080fd5b600080fd5b600080fd5b60008083601f8401126110d2576110d16110ad565b5b8235905067ffffffffffffffff8111156110ef576110ee6110b2565b5b60208301915083600182028301111561110b5761110a6110b7565b5b9250929050565b60008060008060008061016087890312156111305761112f610f9f565b5b600061113e89828a01610ff2565b965050602061114f89828a01611039565b95505060c061116089828a01611058565b94505061012061117289828a01611098565b93505061014087013567ffffffffffffffff81111561119457611193610fa4565b5b6111a089828a016110bc565b92509250509295509295509295565b60007fffffffff0000000000000000000000000000000000000000000000000000000082169050919050565b6111e4816111af565b82525050565b60006020820190506111ff60008301846111db565b92915050565b61120e81610fa9565b811461121957600080fd5b50565b60008135905061122b81611205565b92915050565b6000806000806000610100868803121561124e5761124d610f9f565b5b600061125c88828901610ff2565b955050602061126d88828901611039565b94505060c061127e8882890161121c565b93505060e086013567ffffffffffffffff81111561129f5761129e610fa4565b5b6112ab888289016110bc565b92509250509295509295909350565b6000606082840312156112d0576112cf611034565b5b81905092915050565b600080600080600061014086880312156112f6576112f5610f9f565b5b600061130488828901610ff2565b955050602061131588828901611039565b94505060c0611326888289016112ba565b93505061012086013567ffffffffffffffff81111561134857611347610fa4565b5b611354888289016110bc565b92509250509295509295909350565b60008115159050919050565b61137881611363565b82525050565b6000602082019050611393600083018461136f565b92915050565b6113a281611363565b82525050565b610100820160008201516113bf6000850182611399565b5060208201516113d26020850182611399565b5060408201516113e56040850182611399565b5060608201516113f86060850182611399565b50608082015161140b6080850182611399565b5060a082015161141e60a0850182611399565b5060c082015161143160c0850182611399565b5060e082015161144460e0850182611399565b50505050565b60006101008201905061146060008301846113a8565b92915050565b6000819050919050565b61147981611466565b811461148457600080fd5b50565b60008135905061149681611470565b92915050565b6000602082840312156114b2576114b1610f9f565b5b60006114c084828501611487565b91505092915050565b6114d281611466565b82525050565b60006020820190506114ed60008301846114c9565b92915050565b6114fc81610fc9565b82525050565b600060208201905061151760008301846114f3565b92915050565b60008160020b9050919050565b6115338161151d565b811461153e57600080fd5b50565b6000813590506115508161152a565b92915050565b600080600080600080610120878903121561157457611573610f9f565b5b600061158289828a01610ff2565b965050602061159389828a01611039565b95505060c06115a489828a0161121c565b94505060e06115b589828a01611541565b93505061010087013567ffffffffffffffff8111156115d7576115d6610fa4565b5b6115e389828a016110bc565b92509250509295509295509295565b6000806020838503121561160957611608610f9f565b5b600083013567ffffffffffffffff81111561162757611626610fa4565b5b611633858286016110bc565b92509250509250929050565b600081519050919050565b600082825260208201905092915050565b60005b8381101561167957808201518184015260208101905061165e565b60008484015250505050565b6000601f19601f8301169050919050565b60006116a18261163f565b6116ab818561164a565b93506116bb81856020860161165b565b6116c481611685565b840191505092915050565b600060208201905081810360008301526116e98184611696565b905092915050565b600080600080600080610160878903121561170f5761170e610f9f565b5b600061171d89828a01610ff2565b965050602061172e89828a01611039565b95505060c061173f89828a016112ba565b94505061012061175189828a01611098565b93505061014087013567ffffffffffffffff81111561177357611772610fa4565b5b61177f89828a016110bc565b92509250509295509295509295565b60008060008060008061012087890312156117ac576117ab610f9f565b5b60006117ba89828a01610ff2565b96505060206117cb89828a01611039565b95505060c06117dc89828a01611487565b94505060e06117ed89828a01611487565b93505061010087013567ffffffffffffffff81111561180f5761180e610fa4565b5b61181b89828a016110bc565b92509250509295509295509295565b6000819050919050565b61183d8161182a565b811461184857600080fd5b50565b60008135905061185a81611834565b92915050565b60006020828403121561187657611875610f9f565b5b60006118848482850161184b565b91505092915050565b6000819050919050565b60006118b26118ad6118a884610fa9565b61188d565b610fa9565b9050919050565b60006118c482611897565b9050919050565b60006118d6826118b9565b9050919050565b6118e6816118cb565b82525050565b600060208201905061190160008301846118dd565b92915050565b600060408201905061191c60008301856114c9565b611929602083018461136f565b9392505050565b6000806000806000610140868803121561194d5761194c610f9f565b5b600061195b88828901610ff2565b955050602061196c88828901611039565b94505060c061197d88828901611058565b93505061012086013567ffffffffffffffff81111561199f5761199e610fa4565b5b6119ab888289016110bc565b92509250509295509295909350565b600082825260208201905092915050565b7f43616c6c6572206973206e6f7420746865206f776e6572000000000000000000600082015250565b6000611a016017836119ba565b9150611a0c826119cb565b602082019050919050565b60006020820190508181036000830152611a30816119f4565b9050919050565b7f5369676e6572206973206e6f7420617574686f72697a65640000000000000000600082015250565b6000611a6d6018836119ba565b9150611a7882611a37565b602082019050919050565b60006020820190508181036000830152611a9c81611a60565b9050919050565b611aac81611363565b8114611ab757600080fd5b50565b600081359050611ac981611aa3565b92915050565b6000611ade6020840184611aba565b905092915050565b611aef81611077565b8114611afa57600080fd5b50565b600081359050611b0c81611ae6565b92915050565b6000611b216020840184611afd565b905092915050565b611b3281611077565b82525050565b6000611b47602084018461121c565b905092915050565b611b5881610fa9565b82525050565b60608201611b6f6000830183611acf565b611b7c6000850182611399565b50611b8a6020830183611b12565b611b976020850182611b29565b50611ba56040830183611b38565b611bb26040850182611b4f565b50505050565b6000606082019050611bcd6000830184611b5e565b92915050565b7f496e73756666696369656e7420617070726f76616c7320666f72207377617000600082015250565b6000611c09601f836119ba565b9150611c1482611bd3565b602082019050919050565b60006020820190508181036000830152611c3881611bfc565b9050919050565b7f4174206c65617374206f6e65207369676e61747572652069732072657175697260008201527f6564000000000000000000000000000000000000000000000000000000000000602082015250565b6000611c9b6022836119ba565b9150611ca682611c3f565b604082019050919050565b60006020820190508181036000830152611cca81611c8e565b9050919050565b600081905092915050565b82818337600083830152505050565b6000611cf78385611cd1565b9350611d04838584611cdc565b82840190509392505050565b6000611d1d828486611ceb565b91508190509392505050565b7f4e6f7420616e20617070726f766564207369676e657200000000000000000000600082015250565b6000611d5f6016836119ba565b9150611d6a82611d29565b602082019050919050565b60006020820190508181036000830152611d8e81611d52565b9050919050565b7f5369676e65722068617320616c726561647920617070726f766564207468697360008201527f2073776170000000000000000000000000000000000000000000000000000000602082015250565b6000611df16025836119ba565b9150611dfc82611d95565b604082019050919050565b60006020820190508181036000830152611e2081611de4565b9050919050565b7f4e487b7100000000000000000000000000000000000000000000000000000000600052601160045260246000fd5b6000611e6182611466565b91507fffffffffffffffffffffffffffffffffffffffffffffffffffffffffffffffff8203611e9357611e92611e27565b5b600182019050919050565b7f5369676e657220697320616c726561647920617574686f72697a656400000000600082015250565b6000611ed4601c836119ba565b9150611edf82611e9e565b602082019050919050565b60006020820190508181036000830152611f0381611ec7565b905091905056fea2646970667358221220ae79b7d11a2ff93ef3d41c0634a6001cbadf6644f96dff1bd73f79c0f3d6415964736f6c6343000815003360a06040523480156200001157600080fd5b5060405162001a3f38038062001a3f8339818101604052810190620000379190620000f0565b8073ffffffffffffffffffffffffffffffffffffffff1660808173ffffffffffffffffffffffffffffffffffffffff16815250505062000122565b600080fd5b600073ffffffffffffffffffffffffffffffffffffffff82169050919050565b6000620000a48262000077565b9050919050565b6000620000b88262000097565b9050919050565b620000ca81620000ab565b8114620000d657600080fd5b50565b600081519050620000ea81620000bf565b92915050565b60006020828403121562000109576200010862000072565b5b60006200011984828501620000d9565b91505092915050565b6080516118b6620001896000396000818160d30152818160f901528181610249015281816102b6015281816103a4015281816104920152818161051e01528181610605015281816106f30152818161077f0152818161083a01526108fb01526118b66000f3fe6080604052600436106100345760003560e01c8063481c6a751461003957806361ae449a14610064578063ab6291fe14610094575b600080fd5b34801561004557600080fd5b5061004e6100d1565b60405161005b9190610ba0565b60405180910390f35b61007e60048036038101906100799190610f35565b6100f5565b60405161008b9190610fd7565b60405180910390f35b3480156100a057600080fd5b506100bb60048036038101906100b69190611052565b610245565b6040516100c8919061111e565b60405180910390f35b7f000000000000000000000000000000000000000000000000000000000000000081565b60007f000000000000000000000000000000000000000000000000000000000000000073ffffffffffffffffffffffffffffffffffffffff16638154831960405180608001604052803373ffffffffffffffffffffffffffffffffffffffff1681526020018781526020018681526020018581525060405160200161017a9190611317565b6040516020818303038152906040526040518263ffffffff1660e01b81526004016101a5919061111e565b6000604051808303816000875af11580156101c4573d6000803e3d6000fd5b505050506040513d6000823e3d601f19601f820116820180604052508101906101ed91906113a9565b806020019051810190610200919061141e565b90506000479050600081111561023d5761023c3382600073ffffffffffffffffffffffffffffffffffffffff166109d09092919063ffffffff16565b5b509392505050565b60607f000000000000000000000000000000000000000000000000000000000000000073ffffffffffffffffffffffffffffffffffffffff163373ffffffffffffffffffffffffffffffffffffffff161461029f57600080fd5b600083838101906102b0919061150d565b905060007f000000000000000000000000000000000000000000000000000000000000000073ffffffffffffffffffffffffffffffffffffffff166361ae449a8360200151846040015185606001516040518463ffffffff1660e01b815260040161031d93929190611600565b6020604051808303816000875af115801561033c573d6000803e3d6000fd5b505050506040513d601f19601f82011682018060405250810190610360919061141e565b9050600061036d82610ad2565b600f0b13156105c35761039d82602001516000015173ffffffffffffffffffffffffffffffffffffffff16610adf565b15610467577f000000000000000000000000000000000000000000000000000000000000000073ffffffffffffffffffffffffffffffffffffffff16636a256b296103e783610ad2565b6fffffffffffffffffffffffffffffffff168460200151600001516040518363ffffffff1660e01b815260040161041e919061164f565b60206040518083038185885af115801561043c573d6000803e3d6000fd5b50505050506040513d601f19601f8201168201806040525081019061046191906116a0565b506105c2565b81602001516000015173ffffffffffffffffffffffffffffffffffffffff166323b872dd83600001517f00000000000000000000000000000000000000000000000000000000000000006104ba85610ad2565b6040518463ffffffff1660e01b81526004016104d893929190611729565b6020604051808303816000875af11580156104f7573d6000803e3d6000fd5b505050506040513d601f19601f8201168201806040525081019061051b9190611798565b507f000000000000000000000000000000000000000000000000000000000000000073ffffffffffffffffffffffffffffffffffffffff16636a256b298360200151600001516040518263ffffffff1660e01b815260040161057d919061164f565b6020604051808303816000875af115801561059c573d6000803e3d6000fd5b505050506040513d601f19601f820116820180604052508101906105c091906116a0565b505b5b60006105ce82610b17565b600f0b1315610824576105fe82602001516020015173ffffffffffffffffffffffffffffffffffffffff16610adf565b156106c8577f000000000000000000000000000000000000000000000000000000000000000073ffffffffffffffffffffffffffffffffffffffff16636a256b2961064883610b17565b6fffffffffffffffffffffffffffffffff168460200151602001516040518363ffffffff1660e01b815260040161067f919061164f565b60206040518083038185885af115801561069d573d6000803e3d6000fd5b50505050506040513d601f19601f820116820180604052508101906106c291906116a0565b50610823565b81602001516020015173ffffffffffffffffffffffffffffffffffffffff166323b872dd83600001517f000000000000000000000000000000000000000000000000000000000000000061071b85610b17565b6040518463ffffffff1660e01b815260040161073993929190611729565b6020604051808303816000875af1158015610758573d6000803e3d6000fd5b505050506040513d601f19601f8201168201806040525081019061077c9190611798565b507f000000000000000000000000000000000000000000000000000000000000000073ffffffffffffffffffffffffffffffffffffffff16636a256b298360200151602001516040518263ffffffff1660e01b81526004016107de919061164f565b6020604051808303816000875af11580156107fd573d6000803e3d6000fd5b505050506040513d601f19601f8201168201806040525081019061082191906116a0565b505b5b600061082f82610ad2565b600f0b12156108e5577f000000000000000000000000000000000000000000000000000000000000000073ffffffffffffffffffffffffffffffffffffffff16630b0d9c09836020015160000151846000015161088b85610ad2565b61089490611801565b6040518463ffffffff1660e01b81526004016108b293929190611849565b600060405180830381600087803b1580156108cc57600080fd5b505af11580156108e0573d6000803e3d6000fd5b505050505b60006108f082610b17565b600f0b12156109a6577f000000000000000000000000000000000000000000000000000000000000000073ffffffffffffffffffffffffffffffffffffffff16630b0d9c09836020015160200151846000015161094c85610b17565b61095590611801565b6040518463ffffffff1660e01b815260040161097393929190611849565b600060405180830381600087803b15801561098d57600080fd5b505af11580156109a1573d6000803e3d6000fd5b505050505b806040516020016109b79190610fd7565b6040516020818303038152906040529250505092915050565b60006109f18473ffffffffffffffffffffffffffffffffffffffff16610adf565b15610a3e5760008060008085875af1905080610a39576040517ff4b3b1bc00000000000000000000000000000000000000000000000000000000815260040160405180910390fd5b610acc565b6040517fa9059cbb000000000000000000000000000000000000000000000000000000006000528360045282602452602060006044600080895af13d15601f3d1160016000511416171691506000606052806040525080610acb576040517ff27f64e400000000000000000000000000000000000000000000000000000000815260040160405180910390fd5b5b50505050565b60008160801c9050919050565b60008073ffffffffffffffffffffffffffffffffffffffff168273ffffffffffffffffffffffffffffffffffffffff16149050919050565b6000819050919050565b600073ffffffffffffffffffffffffffffffffffffffff82169050919050565b6000819050919050565b6000610b66610b61610b5c84610b21565b610b41565b610b21565b9050919050565b6000610b7882610b4b565b9050919050565b6000610b8a82610b6d565b9050919050565b610b9a81610b7f565b82525050565b6000602082019050610bb56000830184610b91565b92915050565b6000604051905090565b600080fd5b600080fd5b600080fd5b6000601f19601f8301169050919050565b7f4e487b7100000000000000000000000000000000000000000000000000000000600052604160045260246000fd5b610c1d82610bd4565b810181811067ffffffffffffffff82111715610c3c57610c3b610be5565b5b80604052505050565b6000610c4f610bbb565b9050610c5b8282610c14565b919050565b600080fd5b6000610c7082610b21565b9050919050565b610c8081610c65565b8114610c8b57600080fd5b50565b600081359050610c9d81610c77565b92915050565b600062ffffff82169050919050565b610cbb81610ca3565b8114610cc657600080fd5b50565b600081359050610cd881610cb2565b92915050565b60008160020b9050919050565b610cf481610cde565b8114610cff57600080fd5b50565b600081359050610d1181610ceb565b92915050565b6000610d2282610c65565b9050919050565b610d3281610d17565b8114610d3d57600080fd5b50565b600081359050610d4f81610d29565b92915050565b600060a08284031215610d6b57610d6a610bcf565b5b610d7560a0610c45565b90506000610d8584828501610c8e565b6000830152506020610d9984828501610c8e565b6020830152506040610dad84828501610cc9565b6040830152506060610dc184828501610d02565b6060830152506080610dd584828501610d40565b60808301525092915050565b6000819050919050565b610df481610de1565b8114610dff57600080fd5b50565b600081359050610e1181610deb565b92915050565b600060608284031215610e2d57610e2c610bcf565b5b610e376060610c45565b90506000610e4784828501610d02565b6000830152506020610e5b84828501610d02565b6020830152506040610e6f84828501610e02565b60408301525092915050565b600080fd5b600080fd5b600067ffffffffffffffff821115610ea057610e9f610be5565b5b610ea982610bd4565b9050602081019050919050565b82818337600083830152505050565b6000610ed8610ed384610e85565b610c45565b905082815260208101848484011115610ef457610ef3610e80565b5b610eff848285610eb6565b509392505050565b600082601f830112610f1c57610f1b610e7b565b5b8135610f2c848260208601610ec5565b91505092915050565b60008060006101208486031215610f4f57610f4e610bc5565b5b6000610f5d86828701610d55565b93505060a0610f6e86828701610e17565b92505061010084013567ffffffffffffffff811115610f9057610f8f610bca565b5b610f9c86828701610f07565b9150509250925092565b6000610fc1610fbc610fb784610de1565b610b41565b610de1565b9050919050565b610fd181610fa6565b82525050565b6000602082019050610fec6000830184610fc8565b92915050565b600080fd5b600080fd5b60008083601f84011261101257611011610e7b565b5b8235905067ffffffffffffffff81111561102f5761102e610ff2565b5b60208301915083600182028301111561104b5761104a610ff7565b5b9250929050565b6000806020838503121561106957611068610bc5565b5b600083013567ffffffffffffffff81111561108757611086610bca565b5b61109385828601610ffc565b92509250509250929050565b600081519050919050565b600082825260208201905092915050565b60005b838110156110d95780820151818401526020810190506110be565b60008484015250505050565b60006110f08261109f565b6110fa81856110aa565b935061110a8185602086016110bb565b61111381610bd4565b840191505092915050565b6000602082019050818103600083015261113881846110e5565b905092915050565b61114981610c65565b82525050565b600061115a82610b6d565b9050919050565b61116a8161114f565b82525050565b61117981610ca3565b82525050565b61118881610cde565b82525050565b600061119982610b6d565b9050919050565b6111a98161118e565b82525050565b60a0820160008201516111c56000850182611161565b5060208201516111d86020850182611161565b5060408201516111eb6040850182611170565b5060608201516111fe606085018261117f565b50608082015161121160808501826111a0565b50505050565b61122081610de1565b82525050565b60608201600082015161123c600085018261117f565b50602082015161124f602085018261117f565b5060408201516112626040850182611217565b50505050565b600082825260208201905092915050565b60006112848261109f565b61128e8185611268565b935061129e8185602086016110bb565b6112a781610bd4565b840191505092915050565b6000610140830160008301516112cb6000860182611140565b5060208301516112de60208601826111af565b5060408301516112f160c0860182611226565b50606083015184820361012086015261130a8282611279565b9150508091505092915050565b6000602082019050818103600083015261133181846112b2565b905092915050565b600061134c61134784610e85565b610c45565b90508281526020810184848401111561136857611367610e80565b5b6113738482856110bb565b509392505050565b600082601f8301126113905761138f610e7b565b5b81516113a0848260208601611339565b91505092915050565b6000602082840312156113bf576113be610bc5565b5b600082015167ffffffffffffffff8111156113dd576113dc610bca565b5b6113e98482850161137b565b91505092915050565b6113fb81610de1565b811461140657600080fd5b50565b600081519050611418816113f2565b92915050565b60006020828403121561143457611433610bc5565b5b600061144284828501611409565b91505092915050565b61145481610c65565b811461145f57600080fd5b50565b6000813590506114718161144b565b92915050565b6000610140828403121561148e5761148d610bcf565b5b6114986080610c45565b905060006114a884828501611462565b60008301525060206114bc84828501610d55565b60208301525060c06114d084828501610e17565b60408301525061012082013567ffffffffffffffff8111156114f5576114f4610c60565b5b61150184828501610f07565b60608301525092915050565b60006020828403121561152357611522610bc5565b5b600082013567ffffffffffffffff81111561154157611540610bca565b5b61154d84828501611477565b91505092915050565b60a08201600082015161156c6000850182611161565b50602082015161157f6020850182611161565b5060408201516115926040850182611170565b5060608201516115a5606085018261117f565b5060808201516115b860808501826111a0565b50505050565b6060820160008201516115d4600085018261117f565b5060208201516115e7602085018261117f565b5060408201516115fa6040850182611217565b50505050565b6000610120820190506116166000830186611556565b61162360a08301856115be565b81810361010083015261163681846110e5565b9050949350505050565b6116498161114f565b82525050565b60006020820190506116646000830184611640565b92915050565b6000819050919050565b61167d8161166a565b811461168857600080fd5b50565b60008151905061169a81611674565b92915050565b6000602082840312156116b6576116b5610bc5565b5b60006116c48482850161168b565b91505092915050565b6116d681610c65565b82525050565b60006fffffffffffffffffffffffffffffffff82169050919050565b600061171361170e611709846116dc565b610b41565b61166a565b9050919050565b611723816116f8565b82525050565b600060608201905061173e60008301866116cd565b61174b60208301856116cd565b611758604083018461171a565b949350505050565b60008115159050919050565b61177581611760565b811461178057600080fd5b50565b6000815190506117928161176c565b92915050565b6000602082840312156117ae576117ad610bc5565b5b60006117bc84828501611783565b91505092915050565b600081600f0b9050919050565b7f4e487b7100000000000000000000000000000000000000000000000000000000600052601160045260246000fd5b600061180c826117c5565b91507fffffffffffffffffffffffffffffffff80000000000000000000000000000000820361183e5761183d6117d2565b5b816000039050919050565b600060608201905061185e6000830186611640565b61186b60208301856116cd565b611878604083018461171a565b94935050505056fea26469706673582212204fef2a29fbe2af0a70bdb386e4bf3b0eb9155b108748637e1109fc604fa034dd64736f6c6343000815003360a06040523480156200001157600080fd5b5060405162001f8c38038062001f8c8339818101604052810190620000379190620000f0565b8073ffffffffffffffffffffffffffffffffffffffff1660808173ffffffffffffffffffffffffffffffffffffffff16815250505062000122565b600080fd5b600073ffffffffffffffffffffffffffffffffffffffff82169050919050565b6000620000a48262000077565b9050919050565b6000620000b88262000097565b9050919050565b620000ca81620000ab565b8114620000d657600080fd5b50565b600081519050620000ea81620000bf565b92915050565b60006020828403121562000109576200010862000072565b5b60006200011984828501620000d9565b91505092915050565b608051611dd8620001b46000396000818160d50152818161022a01528181610250015281816102bd015281816103c7015281816104b501528181610541015281816105ec0152818161062d015281816106eb0152818161079c0152818161089d0152818161098b01528181610a1701528181610ac201528181610b0301528181610bc10152610c720152611dd86000f3fe6080604052600436106100345760003560e01c80632229d0b414610039578063481c6a7514610069578063ab6291fe14610094575b600080fd5b610053600480360381019061004e91906112e8565b6100d1565b60405161006091906113a9565b60405180910390f35b34801561007557600080fd5b5061007e610228565b60405161008b9190611419565b60405180910390f35b3480156100a057600080fd5b506100bb60048036038101906100b69190611494565b61024c565b6040516100c89190611560565b60405180910390f35b60007f000000000000000000000000000000000000000000000000000000000000000073ffffffffffffffffffffffffffffffffffffffff1663815483196040518060a001604052803373ffffffffffffffffffffffffffffffffffffffff1681526020018681526020018881526020018781526020018581525060405160200161015c91906117ba565b6040516020818303038152906040526040518263ffffffff1660e01b81526004016101879190611560565b6000604051808303816000875af11580156101a6573d6000803e3d6000fd5b505050506040513d6000823e3d601f19601f820116820180604052508101906101cf919061184c565b8060200190518101906101e291906118c1565b90506000479050600081111561021f5761021e3382600073ffffffffffffffffffffffffffffffffffffffff16610d499092919063ffffffff16565b5b50949350505050565b7f000000000000000000000000000000000000000000000000000000000000000081565b60607f000000000000000000000000000000000000000000000000000000000000000073ffffffffffffffffffffffffffffffffffffffff163373ffffffffffffffffffffffffffffffffffffffff16146102a657600080fd5b600083838101906102b791906119c5565b905060007f000000000000000000000000000000000000000000000000000000000000000073ffffffffffffffffffffffffffffffffffffffff1663f3cd914c8360400151846060015185608001516040518463ffffffff1660e01b815260040161032493929190611ab8565b6020604051808303816000875af1158015610343573d6000803e3d6000fd5b505050506040513d601f19601f8201168201806040525081019061036791906118c1565b90508160600151600001511561084d57600061038282610e4b565b600f0b13156106c757816020015160200151156105ea576103c082604001516000015173ffffffffffffffffffffffffffffffffffffffff16610e58565b1561048a577f000000000000000000000000000000000000000000000000000000000000000073ffffffffffffffffffffffffffffffffffffffff16636a256b2961040a83610e4b565b6fffffffffffffffffffffffffffffffff168460400151600001516040518363ffffffff1660e01b81526004016104419190611b07565b60206040518083038185885af115801561045f573d6000803e3d6000fd5b50505050506040513d601f19601f820116820180604052508101906104849190611b58565b506105e5565b81604001516000015173ffffffffffffffffffffffffffffffffffffffff166323b872dd83600001517f00000000000000000000000000000000000000000000000000000000000000006104dd85610e4b565b6040518463ffffffff1660e01b81526004016104fb93929190611be1565b6020604051808303816000875af115801561051a573d6000803e3d6000fd5b505050506040513d601f19601f8201168201806040525081019061053e9190611c2d565b507f000000000000000000000000000000000000000000000000000000000000000073ffffffffffffffffffffffffffffffffffffffff16636a256b298360400151600001516040518263ffffffff1660e01b81526004016105a09190611b07565b6020604051808303816000875af11580156105bf573d6000803e3d6000fd5b505050506040513d601f19601f820116820180604052508101906105e39190611b58565b505b6106c6565b7f000000000000000000000000000000000000000000000000000000000000000073ffffffffffffffffffffffffffffffffffffffff1663f242432a83600001517f000000000000000000000000000000000000000000000000000000000000000085604001516000015173ffffffffffffffffffffffffffffffffffffffff1661067486610e4b565b6040518563ffffffff1660e01b81526004016106939493929190611c8f565b600060405180830381600087803b1580156106ad57600080fd5b505af11580156106c1573d6000803e3d6000fd5b505050505b5b60006106d282610e90565b600f0b1215610848578160200151600001511561079a577f000000000000000000000000000000000000000000000000000000000000000073ffffffffffffffffffffffffffffffffffffffff16630b0d9c09836040015160200151846000015161073c85610e90565b61074590611d23565b6040518463ffffffff1660e01b815260040161076393929190611d6b565b600060405180830381600087803b15801561077d57600080fd5b505af1158015610791573d6000803e3d6000fd5b50505050610847565b7f000000000000000000000000000000000000000000000000000000000000000073ffffffffffffffffffffffffffffffffffffffff1663c6c3bbe683604001516020015184600001516107ed85610e90565b6107f690611d23565b6040518463ffffffff1660e01b815260040161081493929190611d6b565b600060405180830381600087803b15801561082e57600080fd5b505af1158015610842573d6000803e3d6000fd5b505050505b5b610d1f565b600061085882610e90565b600f0b1315610b9d5781602001516020015115610ac05761089682604001516020015173ffffffffffffffffffffffffffffffffffffffff16610e58565b15610960577f000000000000000000000000000000000000000000000000000000000000000073ffffffffffffffffffffffffffffffffffffffff16636a256b296108e083610e90565b6fffffffffffffffffffffffffffffffff168460400151602001516040518363ffffffff1660e01b81526004016109179190611b07565b60206040518083038185885af1158015610935573d6000803e3d6000fd5b50505050506040513d601f19601f8201168201806040525081019061095a9190611b58565b50610abb565b81604001516020015173ffffffffffffffffffffffffffffffffffffffff166323b872dd83600001517f00000000000000000000000000000000000000000000000000000000000000006109b385610e90565b6040518463ffffffff1660e01b81526004016109d193929190611be1565b6020604051808303816000875af11580156109f0573d6000803e3d6000fd5b505050506040513d601f19601f82011682018060405250810190610a149190611c2d565b507f000000000000000000000000000000000000000000000000000000000000000073ffffffffffffffffffffffffffffffffffffffff16636a256b298360400151602001516040518263ffffffff1660e01b8152600401610a769190611b07565b6020604051808303816000875af1158015610a95573d6000803e3d6000fd5b505050506040513d601f19601f82011682018060405250810190610ab99190611b58565b505b610b9c565b7f000000000000000000000000000000000000000000000000000000000000000073ffffffffffffffffffffffffffffffffffffffff1663f242432a83600001517f000000000000000000000000000000000000000000000000000000000000000085604001516020015173ffffffffffffffffffffffffffffffffffffffff16610b4a86610e90565b6040518563ffffffff1660e01b8152600401610b699493929190611c8f565b600060405180830381600087803b158015610b8357600080fd5b505af1158015610b97573d6000803e3d6000fd5b505050505b5b6000610ba882610e4b565b600f0b1215610d1e5781602001516000015115610c70577f000000000000000000000000000000000000000000000000000000000000000073ffffffffffffffffffffffffffffffffffffffff16630b0d9c098360400151600001518460000151610c1285610e4b565b610c1b90611d23565b6040518463ffffffff1660e01b8152600401610c3993929190611d6b565b600060405180830381600087803b158015610c5357600080fd5b505af1158015610c67573d6000803e3d6000fd5b50505050610d1d565b7f000000000000000000000000000000000000000000000000000000000000000073ffffffffffffffffffffffffffffffffffffffff1663c6c3bbe68360400151600001518460000151610cc385610e4b565b610ccc90611d23565b6040518463ffffffff1660e01b8152600401610cea93929190611d6b565b600060405180830381600087803b158015610d0457600080fd5b505af1158015610d18573d6000803e3d6000fd5b505050505b5b5b80604051602001610d3091906113a9565b6040516020818303038152906040529250505092915050565b6000610d6a8473ffffffffffffffffffffffffffffffffffffffff16610e58565b15610db75760008060008085875af1905080610db2576040517ff4b3b1bc00000000000000000000000000000000000000000000000000000000815260040160405180910390fd5b610e45565b6040517fa9059cbb000000000000000000000000000000000000000000000000000000006000528360045282602452602060006044600080895af13d15601f3d1160016000511416171691506000606052806040525080610e44576040517ff27f64e400000000000000000000000000000000000000000000000000000000815260040160405180910390fd5b5b50505050565b60008160801c9050919050565b60008073ffffffffffffffffffffffffffffffffffffffff168273ffffffffffffffffffffffffffffffffffffffff16149050919050565b6000819050919050565b6000604051905090565b600080fd5b600080fd5b600080fd5b6000601f19601f8301169050919050565b7f4e487b7100000000000000000000000000000000000000000000000000000000600052604160045260246000fd5b610efc82610eb3565b810181811067ffffffffffffffff82111715610f1b57610f1a610ec4565b5b80604052505050565b6000610f2e610e9a565b9050610f3a8282610ef3565b919050565b600080fd5b600073ffffffffffffffffffffffffffffffffffffffff82169050919050565b6000610f6f82610f44565b9050919050565b610f7f81610f64565b8114610f8a57600080fd5b50565b600081359050610f9c81610f76565b92915050565b600062ffffff82169050919050565b610fba81610fa2565b8114610fc557600080fd5b50565b600081359050610fd781610fb1565b92915050565b60008160020b9050919050565b610ff381610fdd565b8114610ffe57600080fd5b50565b60008135905061101081610fea565b92915050565b600061102182610f64565b9050919050565b61103181611016565b811461103c57600080fd5b50565b60008135905061104e81611028565b92915050565b600060a0828403121561106a57611069610eae565b5b61107460a0610f24565b9050600061108484828501610f8d565b600083015250602061109884828501610f8d565b60208301525060406110ac84828501610fc8565b60408301525060606110c084828501611001565b60608301525060806110d48482850161103f565b60808301525092915050565b60008115159050919050565b6110f5816110e0565b811461110057600080fd5b50565b600081359050611112816110ec565b92915050565b6000819050919050565b61112b81611118565b811461113657600080fd5b50565b60008135905061114881611122565b92915050565b61115781610f44565b811461116257600080fd5b50565b6000813590506111748161114e565b92915050565b6000606082840312156111905761118f610eae565b5b61119a6060610f24565b905060006111aa84828501611103565b60008301525060206111be84828501611139565b60208301525060406111d284828501611165565b60408301525092915050565b6000604082840312156111f4576111f3610eae565b5b6111fe6040610f24565b9050600061120e84828501611103565b600083015250602061122284828501611103565b60208301525092915050565b600080fd5b600080fd5b600067ffffffffffffffff82111561125357611252610ec4565b5b61125c82610eb3565b9050602081019050919050565b82818337600083830152505050565b600061128b61128684611238565b610f24565b9050828152602081018484840111156112a7576112a6611233565b5b6112b2848285611269565b509392505050565b600082601f8301126112cf576112ce61122e565b5b81356112df848260208601611278565b91505092915050565b600080600080610160858703121561130357611302610ea4565b5b600061131187828801611054565b94505060a06113228782880161117a565b935050610100611334878288016111de565b92505061014085013567ffffffffffffffff81111561135657611355610ea9565b5b611362878288016112ba565b91505092959194509250565b6000819050919050565b600061139361138e61138984611118565b61136e565b611118565b9050919050565b6113a381611378565b82525050565b60006020820190506113be600083018461139a565b92915050565b60006113df6113da6113d584610f44565b61136e565b610f44565b9050919050565b60006113f1826113c4565b9050919050565b6000611403826113e6565b9050919050565b611413816113f8565b82525050565b600060208201905061142e600083018461140a565b92915050565b600080fd5b600080fd5b60008083601f8401126114545761145361122e565b5b8235905067ffffffffffffffff81111561147157611470611434565b5b60208301915083600182028301111561148d5761148c611439565b5b9250929050565b600080602083850312156114ab576114aa610ea4565b5b600083013567ffffffffffffffff8111156114c9576114c8610ea9565b5b6114d58582860161143e565b92509250509250929050565b600081519050919050565b600082825260208201905092915050565b60005b8381101561151b578082015181840152602081019050611500565b60008484015250505050565b6000611532826114e1565b61153c81856114ec565b935061154c8185602086016114fd565b61155581610eb3565b840191505092915050565b6000602082019050818103600083015261157a8184611527565b905092915050565b61158b81610f64565b82525050565b61159a816110e0565b82525050565b6040820160008201516115b66000850182611591565b5060208201516115c96020850182611591565b50505050565b60006115da826113e6565b9050919050565b6115ea816115cf565b82525050565b6115f981610fa2565b82525050565b61160881610fdd565b82525050565b6000611619826113e6565b9050919050565b6116298161160e565b82525050565b60a08201600082015161164560008501826115e1565b50602082015161165860208501826115e1565b50604082015161166b60408501826115f0565b50606082015161167e60608501826115ff565b5060808201516116916080850182611620565b50505050565b6116a081611118565b82525050565b6116af81610f44565b82525050565b6060820160008201516116cb6000850182611591565b5060208201516116de6020850182611697565b5060408201516116f160408501826116a6565b50505050565b600082825260208201905092915050565b6000611713826114e1565b61171d81856116f7565b935061172d8185602086016114fd565b61173681610eb3565b840191505092915050565b60006101808301600083015161175a6000860182611582565b50602083015161176d60208601826115a0565b506040830151611780606086018261162f565b5060608301516117946101008601826116b5565b5060808301518482036101608601526117ad8282611708565b9150508091505092915050565b600060208201905081810360008301526117d48184611741565b905092915050565b60006117ef6117ea84611238565b610f24565b90508281526020810184848401111561180b5761180a611233565b5b6118168482856114fd565b509392505050565b600082601f8301126118335761183261122e565b5b81516118438482602086016117dc565b91505092915050565b60006020828403121561186257611861610ea4565b5b600082015167ffffffffffffffff8111156118805761187f610ea9565b5b61188c8482850161181e565b91505092915050565b61189e81611118565b81146118a957600080fd5b50565b6000815190506118bb81611895565b92915050565b6000602082840312156118d7576118d6610ea4565b5b60006118e5848285016118ac565b91505092915050565b6118f781610f64565b811461190257600080fd5b50565b600081359050611914816118ee565b92915050565b6000610180828403121561193157611930610eae565b5b61193b60a0610f24565b9050600061194b84828501611905565b600083015250602061195f848285016111de565b602083015250606061197384828501611054565b6040830152506101006119888482850161117a565b60608301525061016082013567ffffffffffffffff8111156119ad576119ac610f3f565b5b6119b9848285016112ba565b60808301525092915050565b6000602082840312156119db576119da610ea4565b5b600082013567ffffffffffffffff8111156119f9576119f8610ea9565b5b611a058482850161191a565b91505092915050565b60a082016000820151611a2460008501826115e1565b506020820151611a3760208501826115e1565b506040820151611a4a60408501826115f0565b506060820151611a5d60608501826115ff565b506080820151611a706080850182611620565b50505050565b606082016000820151611a8c6000850182611591565b506020820151611a9f6020850182611697565b506040820151611ab260408501826116a6565b50505050565b600061012082019050611ace6000830186611a0e565b611adb60a0830185611a76565b818103610100830152611aee8184611527565b9050949350505050565b611b01816115cf565b82525050565b6000602082019050611b1c6000830184611af8565b92915050565b6000819050919050565b611b3581611b22565b8114611b4057600080fd5b50565b600081519050611b5281611b2c565b92915050565b600060208284031215611b6e57611b6d610ea4565b5b6000611b7c84828501611b43565b91505092915050565b611b8e81610f64565b82525050565b60006fffffffffffffffffffffffffffffffff82169050919050565b6000611bcb611bc6611bc184611b94565b61136e565b611b22565b9050919050565b611bdb81611bb0565b82525050565b6000606082019050611bf66000830186611b85565b611c036020830185611b85565b611c106040830184611bd2565b949350505050565b600081519050611c27816110ec565b92915050565b600060208284031215611c4357611c42610ea4565b5b6000611c5184828501611c18565b91505092915050565b611c6381611b22565b82525050565b50565b6000611c796000836114ec565b9150611c8482611c69565b600082019050919050565b600060a082019050611ca46000830187611b85565b611cb16020830186611b85565b611cbe6040830185611c5a565b611ccb6060830184611bd2565b8181036080830152611cdc81611c6c565b905095945050505050565b600081600f0b9050919050565b7f4e487b7100000000000000000000000000000000000000000000000000000000600052601160045260246000fd5b6000611d2e82611ce7565b91507fffffffffffffffffffffffffffffffff800000000000000000000000000000008203611d6057611d5f611cf4565b5b816000039050919050565b6000606082019050611d806000830186611af8565b611d8d6020830185611b85565b611d9a6040830184611bd2565b94935050505056fea26469706673582212200ef6927d69207870b231186081e99973ce64a370df5d1e9284d593b948d94b5464736f6c63430008150033a26469706673582212208e3b239ac9f5cbbd1f914060578c059e268c8fc1b7fc7162183d8dda73d348d764736f6c63430008150033",
  "linkReferences": {
    "test/MULTI_SIG/Remix/utils/HookMiner.sol": {
      "HookMiner": [
        {
          "length": 20,
          "start": 1391
        }
      ]
    }
  },
  "deployedLinkReferences": {
    "test/MULTI_SIG/Remix/utils/HookMiner.sol": {
      "HookMiner": [
        {
          "length": 20,
          "start": 1092
        }
      ]
    }
  }
}