{
  "_format": "hh-sol-artifact-1",
  "contractName": "LimitiOrderTest",
  "sourceName": "test/LIMIT_ORDER/Remix/unit/RemixLimitOrder.sol",
  "abi": [
    {
      "inputs": [
        {
          "internalType": "address",
          "name": "_manager",
          "type": "address"
        }
      ],
      "stateMutability": "nonpayable",
      "type": "constructor"
    },
    {
      "anonymous": false,
      "inputs": [
        {
          "indexed": false,
          "internalType": "string",
          "name": "message",
          "type": "string"
        }
      ],
      "name": "Failure",
      "type": "event"
    },
    {
      "anonymous": false,
      "inputs": [
        {
          "indexed": false,
          "internalType": "string",
          "name": "testName",
          "type": "string"
        },
        {
          "indexed": false,
          "internalType": "string",
          "name": "message",
          "type": "string"
        }
      ],
      "name": "TestLog",
      "type": "event"
    },
    {
      "inputs": [],
      "name": "MAX_TICK_SPACING",
      "outputs": [
        {
          "internalType": "int24",
          "name": "",
          "type": "int24"
        }
      ],
      "stateMutability": "view",
      "type": "function"
    },
    {
      "inputs": [],
      "name": "SQRT_RATIO_1_1",
      "outputs": [
        {
          "internalType": "uint160",
          "name": "",
          "type": "uint160"
        }
      ],
      "stateMutability": "view",
      "type": "function"
    },
    {
      "inputs": [],
      "name": "hook",
      "outputs": [
        {
          "internalType": "contract LimitOrder",
          "name": "",
          "type": "address"
        }
      ],
      "stateMutability": "view",
      "type": "function"
    },
    {
      "inputs": [],
      "name": "setUp",
      "outputs": [],
      "stateMutability": "nonpayable",
      "type": "function"
    },
    {
      "inputs": [],
      "name": "testGetTickLowerLast",
      "outputs": [],
      "stateMutability": "nonpayable",
      "type": "function"
    },
    {
      "stateMutability": "payable",
      "type": "receive"
    }
  ],
  "bytecode": "0x60806040523480156200001157600080fd5b506040516200d47a3803806200d47a8339818101604052810190620000379190620000e9565b80600560006101000a81548173ffffffffffffffffffffffffffffffffffffffff021916908373ffffffffffffffffffffffffffffffffffffffff160217905550506200011b565b600080fd5b600073ffffffffffffffffffffffffffffffffffffffff82169050919050565b6000620000b18262000084565b9050919050565b620000c381620000a4565b8114620000cf57600080fd5b50565b600081519050620000e381620000b8565b92915050565b6000602082840312156200010257620001016200007f565b5b60006200011284828501620000d2565b91505092915050565b61d34f806200012b6000396000f3fe608060405260043610620000555760003560e01c80630a9254e41462000062578063303a36ae146200007c57806360460f06146200009657806377267b1e14620000c65780637f5a7c7b14620000f6576200005d565b366200005d57005b600080fd5b3480156200006f57600080fd5b506200007a62000126565b005b3480156200008957600080fd5b506200009462000f73565b005b348015620000a357600080fd5b50620000ae62001097565b604051620000bd9190620011b7565b60405180910390f35b348015620000d357600080fd5b50620000de620010a0565b604051620000ed919062001205565b60405180910390f35b3480156200010357600080fd5b506200010e620010b1565b6040516200011d91906200128d565b60405180910390f35b6012700100000000000000000000000000000000604051620001489062001161565b62000155929190620013f8565b604051809103906000f08015801562000172573d6000803e3d6000fd5b50600660006101000a81548173ffffffffffffffffffffffffffffffffffffffff021916908373ffffffffffffffffffffffffffffffffffffffff1602179055506012700100000000000000000000000000000000604051620001d59062001161565b620001e2929190620014ef565b604051809103906000f080158015620001ff573d6000803e3d6000fd5b50600760006101000a81548173ffffffffffffffffffffffffffffffffffffffff021916908373ffffffffffffffffffffffffffffffffffffffff16021790555062000290600660009054906101000a900473ffffffffffffffffffffffffffffffffffffffff16600760009054906101000a900473ffffffffffffffffffffffffffffffffffffffff16620010d5565b600b6000600c60008491906101000a81548173ffffffffffffffffffffffffffffffffffffffff021916908373ffffffffffffffffffffffffffffffffffffffff1602179055508391906101000a81548173ffffffffffffffffffffffffffffffffffffffff021916908373ffffffffffffffffffffffffffffffffffffffff1602179055505050600073040000000000000000000000000000000000000073400000000000000000000000000000000000000017905060008073__$35426206d4dd9b48945ecd863d05748a02$__63ab86511830856000604051806020016200037a906200116f565b6020820181038252601f19601f82011660405250600560009054906101000a900473ffffffffffffffffffffffffffffffffffffffff16604051602001620003c391906200156b565b6040516020818303038152906040526040518663ffffffff1660e01b8152600401620003f495949392919062001687565b6040805180830381865af415801562000411573d6000803e3d6000fd5b505050506040513d601f19601f8201168201806040525081019062000437919062001763565b9150915080600560009054906101000a900473ffffffffffffffffffffffffffffffffffffffff166040516200046d906200116f565b620004799190620017cf565b8190604051809103906000f59050801580156200049a573d6000803e3d6000fd5b506000806101000a81548173ffffffffffffffffffffffffffffffffffffffff021916908373ffffffffffffffffffffffffffffffffffffffff1602179055508173ffffffffffffffffffffffffffffffffffffffff1660008054906101000a900473ffffffffffffffffffffffffffffffffffffffff1673ffffffffffffffffffffffffffffffffffffffff16146200056b576040517f08c379a0000000000000000000000000000000000000000000000000000000008152600401620005629062001862565b60405180910390fd5b6040518060a00160405280600b60009054906101000a900473ffffffffffffffffffffffffffffffffffffffff1673ffffffffffffffffffffffffffffffffffffffff168152602001600c60009054906101000a900473ffffffffffffffffffffffffffffffffffffffff1673ffffffffffffffffffffffffffffffffffffffff168152602001600062ffffff168152602001617fff60010b60020b815260200160008054906101000a900473ffffffffffffffffffffffffffffffffffffffff1673ffffffffffffffffffffffffffffffffffffffff16815250600160008201518160000160006101000a81548173ffffffffffffffffffffffffffffffffffffffff021916908373ffffffffffffffffffffffffffffffffffffffff16021790555060208201518160010160006101000a81548173ffffffffffffffffffffffffffffffffffffffff021916908373ffffffffffffffffffffffffffffffffffffffff16021790555060408201518160010160146101000a81548162ffffff021916908362ffffff16021790555060608201518160010160176101000a81548162ffffff021916908360020b62ffffff16021790555060808201518160020160006101000a81548173ffffffffffffffffffffffffffffffffffffffff021916908373ffffffffffffffffffffffffffffffffffffffff160217905550905050620008c660016040518060a00160405290816000820160009054906101000a900473ffffffffffffffffffffffffffffffffffffffff1673ffffffffffffffffffffffffffffffffffffffff1673ffffffffffffffffffffffffffffffffffffffff1681526020016001820160009054906101000a900473ffffffffffffffffffffffffffffffffffffffff1673ffffffffffffffffffffffffffffffffffffffff1673ffffffffffffffffffffffffffffffffffffffff1681526020016001820160149054906101000a900462ffffff1662ffffff1662ffffff1681526020016001820160179054906101000a900460020b60020b60020b81526020016002820160009054906101000a900473ffffffffffffffffffffffffffffffffffffffff1673ffffffffffffffffffffffffffffffffffffffff1673ffffffffffffffffffffffffffffffffffffffff16815250506200112f565b600481905550600560009054906101000a900473ffffffffffffffffffffffffffffffffffffffff16604051620008fd906200117d565b620009099190620017cf565b604051809103906000f08015801562000926573d6000803e3d6000fd5b50600860006101000a81548173ffffffffffffffffffffffffffffffffffffffff021916908373ffffffffffffffffffffffffffffffffffffffff160217905550600560009054906101000a900473ffffffffffffffffffffffffffffffffffffffff1660405162000998906200118b565b620009a49190620017cf565b604051809103906000f080158015620009c1573d6000803e3d6000fd5b50600960006101000a81548173ffffffffffffffffffffffffffffffffffffffff021916908373ffffffffffffffffffffffffffffffffffffffff160217905550600660009054906101000a900473ffffffffffffffffffffffffffffffffffffffff1673ffffffffffffffffffffffffffffffffffffffff1663095ea7b360008054906101000a900473ffffffffffffffffffffffffffffffffffffffff167fffffffffffffffffffffffffffffffffffffffffffffffffffffffffffffffff6040518363ffffffff1660e01b815260040162000aa192919062001895565b6020604051808303816000875af115801562000ac1573d6000803e3d6000fd5b505050506040513d601f19601f8201168201806040525081019062000ae79190620018ff565b50600760009054906101000a900473ffffffffffffffffffffffffffffffffffffffff1673ffffffffffffffffffffffffffffffffffffffff1663095ea7b360008054906101000a900473ffffffffffffffffffffffffffffffffffffffff167fffffffffffffffffffffffffffffffffffffffffffffffffffffffffffffffff6040518363ffffffff1660e01b815260040162000b8792919062001895565b6020604051808303816000875af115801562000ba7573d6000803e3d6000fd5b505050506040513d601f19601f8201168201806040525081019062000bcd9190620018ff565b50600660009054906101000a900473ffffffffffffffffffffffffffffffffffffffff1673ffffffffffffffffffffffffffffffffffffffff1663095ea7b3600860009054906101000a900473ffffffffffffffffffffffffffffffffffffffff167fffffffffffffffffffffffffffffffffffffffffffffffffffffffffffffffff6040518363ffffffff1660e01b815260040162000c6f92919062001895565b6020604051808303816000875af115801562000c8f573d6000803e3d6000fd5b505050506040513d601f19601f8201168201806040525081019062000cb59190620018ff565b50600760009054906101000a900473ffffffffffffffffffffffffffffffffffffffff1673ffffffffffffffffffffffffffffffffffffffff1663095ea7b3600860009054906101000a900473ffffffffffffffffffffffffffffffffffffffff167fffffffffffffffffffffffffffffffffffffffffffffffffffffffffffffffff6040518363ffffffff1660e01b815260040162000d5792919062001895565b6020604051808303816000875af115801562000d77573d6000803e3d6000fd5b505050506040513d601f19601f8201168201806040525081019062000d9d9190620018ff565b50600660009054906101000a900473ffffffffffffffffffffffffffffffffffffffff1673ffffffffffffffffffffffffffffffffffffffff1663095ea7b3600960009054906101000a900473ffffffffffffffffffffffffffffffffffffffff167fffffffffffffffffffffffffffffffffffffffffffffffffffffffffffffffff6040518363ffffffff1660e01b815260040162000e3f92919062001895565b6020604051808303816000875af115801562000e5f573d6000803e3d6000fd5b505050506040513d601f19601f8201168201806040525081019062000e859190620018ff565b50600760009054906101000a900473ffffffffffffffffffffffffffffffffffffffff1673ffffffffffffffffffffffffffffffffffffffff1663095ea7b3600960009054906101000a900473ffffffffffffffffffffffffffffffffffffffff167fffffffffffffffffffffffffffffffffffffffffffffffffffffffffffffffff6040518363ffffffff1660e01b815260040162000f2792919062001895565b6020604051808303816000875af115801562000f47573d6000803e3d6000fd5b505050506040513d601f19601f8201168201806040525081019062000f6d9190620018ff565b50505050565b60008060009054906101000a900473ffffffffffffffffffffffffffffffffffffffff1673ffffffffffffffffffffffffffffffffffffffff16639b9da8246004546040518263ffffffff1660e01b815260040162000fd3919062001956565b602060405180830381865afa15801562000ff1573d6000803e3d6000fd5b505050506040513d601f19601f82011682018060405250810190620010179190620019a4565b60020b036200105d577f81169a5d04af4a3bb9a1cdebce8d9c090ab67042281e2e90cd51935e1beb565f6040516200104f9062001a76565b60405180910390a162001095565b7ffd5de27667e5407df5be0b6efb7f86ae8c40433040399a5e4d36a46ccc50638d6040516200108c9062001afd565b60405180910390a15b565b617fff60010b81565b6c0100000000000000000000000081565b60008054906101000a900473ffffffffffffffffffffffffffffffffffffffff1681565b6000808273ffffffffffffffffffffffffffffffffffffffff168473ffffffffffffffffffffffffffffffffffffffff1610156200111d578383809250819350505062001128565b828480925081935050505b9250929050565b60008160405160200162001144919062001c0c565b604051602081830303815290604052805190602001209050919050565b6121868062001c2a83390190565b615b9f8062003db083390190565b611a3f806200994f83390190565b611f8c806200b38e83390190565b60008160020b9050919050565b620011b18162001199565b82525050565b6000602082019050620011ce6000830184620011a6565b92915050565b600073ffffffffffffffffffffffffffffffffffffffff82169050919050565b620011ff81620011d4565b82525050565b60006020820190506200121c6000830184620011f4565b92915050565b6000819050919050565b60006200124d620012476200124184620011d4565b62001222565b620011d4565b9050919050565b600062001261826200122c565b9050919050565b6000620012758262001254565b9050919050565b620012878162001268565b82525050565b6000602082019050620012a460008301846200127c565b92915050565b600082825260208201905092915050565b7f5465737441000000000000000000000000000000000000000000000000000000600082015250565b6000620012f3600583620012aa565b91506200130082620012bb565b602082019050919050565b7f4100000000000000000000000000000000000000000000000000000000000000600082015250565b600062001343600183620012aa565b915062001350826200130b565b602082019050919050565b6000819050919050565b600060ff82169050919050565b6000620013936200138d62001387846200135b565b62001222565b62001365565b9050919050565b620013a58162001372565b82525050565b6000819050919050565b6000819050919050565b6000620013e0620013da620013d484620013ab565b62001222565b620013b5565b9050919050565b620013f281620013bf565b82525050565b600060808201905081810360008301526200141381620012e4565b90508181036020830152620014288162001334565b90506200143960408301856200139a565b620014486060830184620013e7565b9392505050565b7f5465737442000000000000000000000000000000000000000000000000000000600082015250565b600062001487600583620012aa565b915062001494826200144f565b602082019050919050565b7f4200000000000000000000000000000000000000000000000000000000000000600082015250565b6000620014d7600183620012aa565b9150620014e4826200149f565b602082019050919050565b600060808201905081810360008301526200150a8162001478565b905081810360208301526200151f81620014c8565b90506200153060408301856200139a565b6200153f6060830184620013e7565b9392505050565b60006200155382620011d4565b9050919050565b620015658162001546565b82525050565b60006020820190506200158260008301846200155a565b92915050565b620015938162001546565b82525050565b620015a481620011d4565b82525050565b6000819050919050565b6000620015d5620015cf620015c984620015aa565b62001222565b620013b5565b9050919050565b620015e781620015b4565b82525050565b600081519050919050565b600082825260208201905092915050565b60005b83811015620016295780820151818401526020810190506200160c565b60008484015250505050565b6000601f19601f8301169050919050565b60006200165382620015ed565b6200165f8185620015f8565b93506200167181856020860162001609565b6200167c8162001635565b840191505092915050565b600060a0820190506200169e600083018862001588565b620016ad602083018762001599565b620016bc6040830186620015dc565b8181036060830152620016d0818562001646565b90508181036080830152620016e6818462001646565b90509695505050505050565b600080fd5b620017028162001546565b81146200170e57600080fd5b50565b6000815190506200172281620016f7565b92915050565b6000819050919050565b6200173d8162001728565b81146200174957600080fd5b50565b6000815190506200175d8162001732565b92915050565b600080604083850312156200177d576200177c620016f2565b5b60006200178d8582860162001711565b9250506020620017a0858286016200174c565b9150509250929050565b6000620017b78262001254565b9050919050565b620017c981620017aa565b82525050565b6000602082019050620017e66000830184620017be565b92915050565b7f466169725472616465546573743a20486f6f6b2061646472657373206d69736d60008201527f6174636800000000000000000000000000000000000000000000000000000000602082015250565b60006200184a602483620012aa565b91506200185782620017ec565b604082019050919050565b600060208201905081810360008301526200187d816200183b565b9050919050565b6200188f81620013b5565b82525050565b6000604082019050620018ac60008301856200155a565b620018bb602083018462001884565b9392505050565b60008115159050919050565b620018d981620018c2565b8114620018e557600080fd5b50565b600081519050620018f981620018ce565b92915050565b600060208284031215620019185762001917620016f2565b5b60006200192884828501620018e8565b91505092915050565b60006200193e8262001728565b9050919050565b620019508162001931565b82525050565b60006020820190506200196d600083018462001945565b92915050565b6200197e8162001199565b81146200198a57600080fd5b50565b6000815190506200199e8162001973565b92915050565b600060208284031215620019bd57620019bc620016f2565b5b6000620019cd848285016200198d565b91505092915050565b7f5469636b4c6f7765724c61737420746573740000000000000000000000000000600082015250565b600062001a0e601283620012aa565b915062001a1b82620019d6565b602082019050919050565b7f5041535345443a205469636b4c6f7765724c6173742069732030000000000000600082015250565b600062001a5e601a83620012aa565b915062001a6b8262001a26565b602082019050919050565b6000604082019050818103600083015262001a9181620019ff565b9050818103602083015262001aa68162001a4f565b9050919050565b7f4641494c45443a205469636b4c6f7765724c617374206973206e6f7420300000600082015250565b600062001ae5601e83620012aa565b915062001af28262001aad565b602082019050919050565b6000602082019050818103600083015262001b188162001ad6565b9050919050565b600062001b2c8262001254565b9050919050565b62001b3e8162001b1f565b82525050565b600062ffffff82169050919050565b62001b5e8162001b44565b82525050565b62001b6f8162001199565b82525050565b600062001b828262001254565b9050919050565b62001b948162001b75565b82525050565b60a08201600082015162001bb2600085018262001b33565b50602082015162001bc7602085018262001b33565b50604082015162001bdc604085018262001b53565b50606082015162001bf1606085018262001b64565b50608082015162001c06608085018262001b89565b50505050565b600060a08201905062001c23600083018462001b9a565b9291505056fe60e06040523480156200001157600080fd5b506040516200218638038062002186833981810160405281019062000037919062000430565b83838382600090816200004b919062000721565b5081600190816200005d919062000721565b508060ff1660808160ff16815250504660a0818152505062000084620000aa60201b60201c565b60c08181525050505050620000a033826200013a60201b60201c565b5050505062000a25565b60007f8b73c3c69bb8fe3d512ecc4cf759cc79239f7b179b0ffacaa9a75d522b39400f6000604051620000de9190620008b7565b60405180910390207fc89efdaa54c0f20c7adf612882df0950f5a951637e0307cdcb4c672f298b8bc646306040516020016200011f95949392919062000941565b60405160208183030381529060405280519060200120905090565b6200014c82826200015060201b60201c565b5050565b8060026000828254620001649190620009cd565b9250508190555080600360008473ffffffffffffffffffffffffffffffffffffffff1673ffffffffffffffffffffffffffffffffffffffff168152602001908152602001600020600082825401925050819055508173ffffffffffffffffffffffffffffffffffffffff16600073ffffffffffffffffffffffffffffffffffffffff167fddf252ad1be2c89b69c2b068fc378daa952ba7f163c4a11628f55a4df523b3ef8360405162000218919062000a08565b60405180910390a35050565b6000604051905090565b600080fd5b600080fd5b600080fd5b600080fd5b6000601f19601f8301169050919050565b7f4e487b7100000000000000000000000000000000000000000000000000000000600052604160045260246000fd5b6200028d8262000242565b810181811067ffffffffffffffff82111715620002af57620002ae62000253565b5b80604052505050565b6000620002c462000224565b9050620002d2828262000282565b919050565b600067ffffffffffffffff821115620002f557620002f462000253565b5b620003008262000242565b9050602081019050919050565b60005b838110156200032d57808201518184015260208101905062000310565b60008484015250505050565b6000620003506200034a84620002d7565b620002b8565b9050828152602081018484840111156200036f576200036e6200023d565b5b6200037c8482856200030d565b509392505050565b600082601f8301126200039c576200039b62000238565b5b8151620003ae84826020860162000339565b91505092915050565b600060ff82169050919050565b620003cf81620003b7565b8114620003db57600080fd5b50565b600081519050620003ef81620003c4565b92915050565b6000819050919050565b6200040a81620003f5565b81146200041657600080fd5b50565b6000815190506200042a81620003ff565b92915050565b600080600080608085870312156200044d576200044c6200022e565b5b600085015167ffffffffffffffff8111156200046e576200046d62000233565b5b6200047c8782880162000384565b945050602085015167ffffffffffffffff811115620004a0576200049f62000233565b5b620004ae8782880162000384565b9350506040620004c187828801620003de565b9250506060620004d48782880162000419565b91505092959194509250565b600081519050919050565b7f4e487b7100000000000000000000000000000000000000000000000000000000600052602260045260246000fd5b600060028204905060018216806200053357607f821691505b602082108103620005495762000548620004eb565b5b50919050565b60008190508160005260206000209050919050565b60006020601f8301049050919050565b600082821b905092915050565b600060088302620005b37fffffffffffffffffffffffffffffffffffffffffffffffffffffffffffffffff8262000574565b620005bf868362000574565b95508019841693508086168417925050509392505050565b6000819050919050565b600062000602620005fc620005f684620003f5565b620005d7565b620003f5565b9050919050565b6000819050919050565b6200061e83620005e1565b620006366200062d8262000609565b84845462000581565b825550505050565b600090565b6200064d6200063e565b6200065a81848462000613565b505050565b5b8181101562000682576200067660008262000643565b60018101905062000660565b5050565b601f821115620006d1576200069b816200054f565b620006a68462000564565b81016020851015620006b6578190505b620006ce620006c58562000564565b8301826200065f565b50505b505050565b600082821c905092915050565b6000620006f660001984600802620006d6565b1980831691505092915050565b6000620007118383620006e3565b9150826002028217905092915050565b6200072c82620004e0565b67ffffffffffffffff81111562000748576200074762000253565b5b6200075482546200051a565b6200076182828562000686565b600060209050601f83116001811462000799576000841562000784578287015190505b62000790858262000703565b86555062000800565b601f198416620007a9866200054f565b60005b82811015620007d357848901518255600182019150602085019450602081019050620007ac565b86831015620007f35784890151620007ef601f891682620006e3565b8355505b6001600288020188555050505b505050505050565b600081905092915050565b60008190508160005260206000209050919050565b6000815462000837816200051a565b62000843818662000808565b945060018216600081146200086157600181146200087757620008ae565b60ff1983168652811515820286019350620008ae565b620008828562000813565b60005b83811015620008a65781548189015260018201915060208101905062000885565b838801955050505b50505092915050565b6000620008c5828462000828565b915081905092915050565b6000819050919050565b620008e581620008d0565b82525050565b620008f681620003f5565b82525050565b600073ffffffffffffffffffffffffffffffffffffffff82169050919050565b60006200092982620008fc565b9050919050565b6200093b816200091c565b82525050565b600060a082019050620009586000830188620008da565b620009676020830187620008da565b620009766040830186620008da565b620009856060830185620008eb565b62000994608083018462000930565b9695505050505050565b7f4e487b7100000000000000000000000000000000000000000000000000000000600052601160045260246000fd5b6000620009da82620003f5565b9150620009e783620003f5565b925082820190508082111562000a025762000a016200099e565b5b92915050565b600060208201905062000a1f6000830184620008eb565b92915050565b60805160a05160c05161173162000a55600039600061073901526000610705015260006106df01526117316000f3fe608060405234801561001057600080fd5b50600436106100ea5760003560e01c806361f49ed61161008c57806395d89b411161006657806395d89b4114610273578063a9059cbb14610291578063d505accf146102c1578063dd62ed3e146102dd576100ea565b806361f49ed6146101e357806370a08231146102135780637ecebe0014610243576100ea565b806323b872dd116100c857806323b872dd1461015b578063313ce5671461018b5780633644e515146101a957806340c10f19146101c7576100ea565b806306fdde03146100ef578063095ea7b31461010d57806318160ddd1461013d575b600080fd5b6100f761030d565b6040516101049190610f3b565b60405180910390f35b61012760048036038101906101229190610ff6565b61039b565b6040516101349190611051565b60405180910390f35b61014561048d565b604051610152919061107b565b60405180910390f35b61017560048036038101906101709190611096565b610493565b6040516101829190611051565b60405180910390f35b6101936106dd565b6040516101a09190611105565b60405180910390f35b6101b1610701565b6040516101be9190611139565b60405180910390f35b6101e160048036038101906101dc9190610ff6565b61075e565b005b6101fd60048036038101906101f89190611096565b61076c565b60405161020a9190611051565b60405180910390f35b61022d60048036038101906102289190611154565b61085f565b60405161023a919061107b565b60405180910390f35b61025d60048036038101906102589190611154565b610877565b60405161026a919061107b565b60405180910390f35b61027b61088f565b6040516102889190610f3b565b60405180910390f35b6102ab60048036038101906102a69190610ff6565b61091d565b6040516102b89190611051565b60405180910390f35b6102db60048036038101906102d691906111d9565b610a31565b005b6102f760048036038101906102f2919061127b565b610d2a565b604051610304919061107b565b60405180910390f35b6000805461031a906112ea565b80601f0160208091040260200160405190810160405280929190818152602001828054610346906112ea565b80156103935780601f1061036857610100808354040283529160200191610393565b820191906000526020600020905b81548152906001019060200180831161037657829003601f168201915b505050505081565b600081600460003373ffffffffffffffffffffffffffffffffffffffff1673ffffffffffffffffffffffffffffffffffffffff16815260200190815260200160002060008573ffffffffffffffffffffffffffffffffffffffff1673ffffffffffffffffffffffffffffffffffffffff168152602001908152602001600020819055508273ffffffffffffffffffffffffffffffffffffffff163373ffffffffffffffffffffffffffffffffffffffff167f8c5be1e5ebec7d5bd14f71427d1e84f3dd0314c0f7b2291e5b200ac8c7c3b9258460405161047b919061107b565b60405180910390a36001905092915050565b60025481565b600080600460008673ffffffffffffffffffffffffffffffffffffffff1673ffffffffffffffffffffffffffffffffffffffff16815260200190815260200160002060003373ffffffffffffffffffffffffffffffffffffffff1673ffffffffffffffffffffffffffffffffffffffff1681526020019081526020016000205490507fffffffffffffffffffffffffffffffffffffffffffffffffffffffffffffffff81146105c9578281610548919061134a565b600460008773ffffffffffffffffffffffffffffffffffffffff1673ffffffffffffffffffffffffffffffffffffffff16815260200190815260200160002060003373ffffffffffffffffffffffffffffffffffffffff1673ffffffffffffffffffffffffffffffffffffffff168152602001908152602001600020819055505b82600360008773ffffffffffffffffffffffffffffffffffffffff1673ffffffffffffffffffffffffffffffffffffffff1681526020019081526020016000206000828254610618919061134a565b9250508190555082600360008673ffffffffffffffffffffffffffffffffffffffff1673ffffffffffffffffffffffffffffffffffffffff168152602001908152602001600020600082825401925050819055508373ffffffffffffffffffffffffffffffffffffffff168573ffffffffffffffffffffffffffffffffffffffff167fddf252ad1be2c89b69c2b068fc378daa952ba7f163c4a11628f55a4df523b3ef856040516106c9919061107b565b60405180910390a360019150509392505050565b7f000000000000000000000000000000000000000000000000000000000000000081565b60007f0000000000000000000000000000000000000000000000000000000000000000461461073757610732610d4f565b610759565b7f00000000000000000000000000000000000000000000000000000000000000005b905090565b6107688282610ddb565b5050565b600081600460008673ffffffffffffffffffffffffffffffffffffffff1673ffffffffffffffffffffffffffffffffffffffff16815260200190815260200160002060008573ffffffffffffffffffffffffffffffffffffffff1673ffffffffffffffffffffffffffffffffffffffff168152602001908152602001600020819055508273ffffffffffffffffffffffffffffffffffffffff168473ffffffffffffffffffffffffffffffffffffffff167f8c5be1e5ebec7d5bd14f71427d1e84f3dd0314c0f7b2291e5b200ac8c7c3b9258460405161084c919061107b565b60405180910390a3600190509392505050565b60036020528060005260406000206000915090505481565b60056020528060005260406000206000915090505481565b6001805461089c906112ea565b80601f01602080910402602001604051908101604052809291908181526020018280546108c8906112ea565b80156109155780601f106108ea57610100808354040283529160200191610915565b820191906000526020600020905b8154815290600101906020018083116108f857829003601f168201915b505050505081565b600081600360003373ffffffffffffffffffffffffffffffffffffffff1673ffffffffffffffffffffffffffffffffffffffff168152602001908152602001600020600082825461096e919061134a565b9250508190555081600360008573ffffffffffffffffffffffffffffffffffffffff1673ffffffffffffffffffffffffffffffffffffffff168152602001908152602001600020600082825401925050819055508273ffffffffffffffffffffffffffffffffffffffff163373ffffffffffffffffffffffffffffffffffffffff167fddf252ad1be2c89b69c2b068fc378daa952ba7f163c4a11628f55a4df523b3ef84604051610a1f919061107b565b60405180910390a36001905092915050565b42841015610a74576040517f08c379a0000000000000000000000000000000000000000000000000000000008152600401610a6b906113ca565b60405180910390fd5b60006001610a80610701565b7f6e71edae12b1b97f4d1f60370fef10105fa2faae0126114a169c64845d6126c98a8a8a600560008f73ffffffffffffffffffffffffffffffffffffffff1673ffffffffffffffffffffffffffffffffffffffff1681526020019081526020016000206000815480929190600101919050558b604051602001610b08969594939291906113f9565b60405160208183030381529060405280519060200120604051602001610b2f9291906114d2565b6040516020818303038152906040528051906020012085858560405160008152602001604052604051610b659493929190611509565b6020604051602081039080840390855afa158015610b87573d6000803e3d6000fd5b505050602060405103519050600073ffffffffffffffffffffffffffffffffffffffff168173ffffffffffffffffffffffffffffffffffffffff1614158015610bfb57508773ffffffffffffffffffffffffffffffffffffffff168173ffffffffffffffffffffffffffffffffffffffff16145b610c3a576040517f08c379a0000000000000000000000000000000000000000000000000000000008152600401610c319061159a565b60405180910390fd5b85600460008373ffffffffffffffffffffffffffffffffffffffff1673ffffffffffffffffffffffffffffffffffffffff16815260200190815260200160002060008973ffffffffffffffffffffffffffffffffffffffff1673ffffffffffffffffffffffffffffffffffffffff16815260200190815260200160002081905550508573ffffffffffffffffffffffffffffffffffffffff168773ffffffffffffffffffffffffffffffffffffffff167f8c5be1e5ebec7d5bd14f71427d1e84f3dd0314c0f7b2291e5b200ac8c7c3b92587604051610d19919061107b565b60405180910390a350505050505050565b6004602052816000526040600020602052806000526040600020600091509150505481565b60007f8b73c3c69bb8fe3d512ecc4cf759cc79239f7b179b0ffacaa9a75d522b39400f6000604051610d81919061165d565b60405180910390207fc89efdaa54c0f20c7adf612882df0950f5a951637e0307cdcb4c672f298b8bc64630604051602001610dc0959493929190611674565b60405160208183030381529060405280519060200120905090565b8060026000828254610ded91906116c7565b9250508190555080600360008473ffffffffffffffffffffffffffffffffffffffff1673ffffffffffffffffffffffffffffffffffffffff168152602001908152602001600020600082825401925050819055508173ffffffffffffffffffffffffffffffffffffffff16600073ffffffffffffffffffffffffffffffffffffffff167fddf252ad1be2c89b69c2b068fc378daa952ba7f163c4a11628f55a4df523b3ef83604051610e9f919061107b565b60405180910390a35050565b600081519050919050565b600082825260208201905092915050565b60005b83811015610ee5578082015181840152602081019050610eca565b60008484015250505050565b6000601f19601f8301169050919050565b6000610f0d82610eab565b610f178185610eb6565b9350610f27818560208601610ec7565b610f3081610ef1565b840191505092915050565b60006020820190508181036000830152610f558184610f02565b905092915050565b600080fd5b600073ffffffffffffffffffffffffffffffffffffffff82169050919050565b6000610f8d82610f62565b9050919050565b610f9d81610f82565b8114610fa857600080fd5b50565b600081359050610fba81610f94565b92915050565b6000819050919050565b610fd381610fc0565b8114610fde57600080fd5b50565b600081359050610ff081610fca565b92915050565b6000806040838503121561100d5761100c610f5d565b5b600061101b85828601610fab565b925050602061102c85828601610fe1565b9150509250929050565b60008115159050919050565b61104b81611036565b82525050565b60006020820190506110666000830184611042565b92915050565b61107581610fc0565b82525050565b6000602082019050611090600083018461106c565b92915050565b6000806000606084860312156110af576110ae610f5d565b5b60006110bd86828701610fab565b93505060206110ce86828701610fab565b92505060406110df86828701610fe1565b9150509250925092565b600060ff82169050919050565b6110ff816110e9565b82525050565b600060208201905061111a60008301846110f6565b92915050565b6000819050919050565b61113381611120565b82525050565b600060208201905061114e600083018461112a565b92915050565b60006020828403121561116a57611169610f5d565b5b600061117884828501610fab565b91505092915050565b61118a816110e9565b811461119557600080fd5b50565b6000813590506111a781611181565b92915050565b6111b681611120565b81146111c157600080fd5b50565b6000813590506111d3816111ad565b92915050565b600080600080600080600060e0888a0312156111f8576111f7610f5d565b5b60006112068a828b01610fab565b97505060206112178a828b01610fab565b96505060406112288a828b01610fe1565b95505060606112398a828b01610fe1565b945050608061124a8a828b01611198565b93505060a061125b8a828b016111c4565b92505060c061126c8a828b016111c4565b91505092959891949750929550565b6000806040838503121561129257611291610f5d565b5b60006112a085828601610fab565b92505060206112b185828601610fab565b9150509250929050565b7f4e487b7100000000000000000000000000000000000000000000000000000000600052602260045260246000fd5b6000600282049050600182168061130257607f821691505b602082108103611315576113146112bb565b5b50919050565b7f4e487b7100000000000000000000000000000000000000000000000000000000600052601160045260246000fd5b600061135582610fc0565b915061136083610fc0565b92508282039050818111156113785761137761131b565b5b92915050565b7f5045524d49545f444541444c494e455f45585049524544000000000000000000600082015250565b60006113b4601783610eb6565b91506113bf8261137e565b602082019050919050565b600060208201905081810360008301526113e3816113a7565b9050919050565b6113f381610f82565b82525050565b600060c08201905061140e600083018961112a565b61141b60208301886113ea565b61142860408301876113ea565b611435606083018661106c565b611442608083018561106c565b61144f60a083018461106c565b979650505050505050565b600081905092915050565b7f1901000000000000000000000000000000000000000000000000000000000000600082015250565b600061149b60028361145a565b91506114a682611465565b600282019050919050565b6000819050919050565b6114cc6114c782611120565b6114b1565b82525050565b60006114dd8261148e565b91506114e982856114bb565b6020820191506114f982846114bb565b6020820191508190509392505050565b600060808201905061151e600083018761112a565b61152b60208301866110f6565b611538604083018561112a565b611545606083018461112a565b95945050505050565b7f494e56414c49445f5349474e4552000000000000000000000000000000000000600082015250565b6000611584600e83610eb6565b915061158f8261154e565b602082019050919050565b600060208201905081810360008301526115b381611577565b9050919050565b600081905092915050565b60008190508160005260206000209050919050565b600081546115e7816112ea565b6115f181866115ba565b9450600182166000811461160c576001811461162157611654565b60ff1983168652811515820286019350611654565b61162a856115c5565b60005b8381101561164c5781548189015260018201915060208101905061162d565b838801955050505b50505092915050565b600061166982846115da565b915081905092915050565b600060a082019050611689600083018861112a565b611696602083018761112a565b6116a3604083018661112a565b6116b0606083018561106c565b6116bd60808301846113ea565b9695505050505050565b60006116d282610fc0565b91506116dd83610fc0565b92508282019050808211156116f5576116f461131b565b5b9291505056fea2646970667358221220d31e47fd1accc7a22040a33b1819ef70519b11925aa65adeb7bdfcd7a72d4d9264736f6c6343000815003360a060405260018060006101000a8154817cffffffffffffffffffffffffffffffffffffffffffffffffffffffffff02191690837cffffffffffffffffffffffffffffffffffffffffffffffffffffffffff1602179055503480156200006457600080fd5b5060405162005b9f38038062005b9f83398181016040528101906200008a919062000559565b808073ffffffffffffffffffffffffffffffffffffffff1660808173ffffffffffffffffffffffffffffffffffffffff1681525050620000d030620000d860201b60201c565b5050620005b9565b620000f981620000ed620000fc60201b60201c565b6200015d60201b60201c565b50565b6200010662000486565b60405180610100016040528060001515815260200160011515815260200160001515815260200160001515815260200160001515815260200160011515815260200160001515815260200160001515815250905090565b6200016e82620002be60201b60201c565b1515816000015115151415806200019d57506200019182620002f760201b60201c565b15158160200151151514155b80620001c15750620001b5826200033060201b60201c565b15158160400151151514155b80620001e55750620001d9826200036960201b60201c565b15158160600151151514155b80620002095750620001fd82620003a260201b60201c565b15158160800151151514155b806200022d57506200022182620003db60201b60201c565b15158160a00151151514155b8062000251575062000245826200041460201b60201c565b15158160c00151151514155b8062000275575062000269826200044d60201b60201c565b15158160e00151151514155b15620002ba57816040517fe65af6a0000000000000000000000000000000000000000000000000000000008152600401620002b191906200059c565b60405180910390fd5b5050565b6000807380000000000000000000000000000000000000008373ffffffffffffffffffffffffffffffffffffffff161614159050919050565b6000807340000000000000000000000000000000000000008373ffffffffffffffffffffffffffffffffffffffff161614159050919050565b6000807320000000000000000000000000000000000000008373ffffffffffffffffffffffffffffffffffffffff161614159050919050565b6000807310000000000000000000000000000000000000008373ffffffffffffffffffffffffffffffffffffffff161614159050919050565b6000807308000000000000000000000000000000000000008373ffffffffffffffffffffffffffffffffffffffff161614159050919050565b6000807304000000000000000000000000000000000000008373ffffffffffffffffffffffffffffffffffffffff161614159050919050565b6000807302000000000000000000000000000000000000008373ffffffffffffffffffffffffffffffffffffffff161614159050919050565b6000807301000000000000000000000000000000000000008373ffffffffffffffffffffffffffffffffffffffff161614159050919050565b6040518061010001604052806000151581526020016000151581526020016000151581526020016000151581526020016000151581526020016000151581526020016000151581526020016000151581525090565b600080fd5b600073ffffffffffffffffffffffffffffffffffffffff82169050919050565b60006200050d82620004e0565b9050919050565b6000620005218262000500565b9050919050565b620005338162000514565b81146200053f57600080fd5b50565b600081519050620005538162000528565b92915050565b600060208284031215620005725762000571620004db565b5b6000620005828482850162000542565b91505092915050565b620005968162000500565b82525050565b6000602082019050620005b360008301846200058b565b92915050565b6080516154ff620006a0600039600081816107740152818161085a01528181610924015281816109de01528181610ac301528181610b9f01528181610ce301528181610d2001528181610daa01528181610e4301528181610e8001528181610f0a015281816111dd0152818161149a01528181611647015281816116e501528181611845015281816118e301528181611a6401528181611b6601528181611c30015281816121ae0152818161238a01528181612462015281816125b30152818161284001528181612d4e01528181612da801528181613149015261344201526154ff6000f3fe608060405234801561001057600080fd5b506004361061018d5760003560e01c8063977e65aa116100de578063b6a8b0fa11610097578063dc4c90d311610071578063dc4c90d31461055d578063e1b4af691461057b578063f23a6e61146105ab578063fe9a6f45146105db5761018d565b8063b6a8b0fa146104e1578063c53b81aa14610511578063cb37d851146105415761018d565b8063977e65aa146103c05780639b9da824146103f0578063a23c0c3414610420578063a910f80f14610451578063ab6291fe14610481578063b47b2fb1146104b15761018d565b80634907c68e1161014b578063612c39b711610125578063612c39b71461030c578063622b76ae1461032a578063624f723c1461035b5780637d9248a8146103905761018d565b80634907c68e1461028f578063575e24b4146102c05780635aaff517146102f05761018d565b80622f79f61461019257806330b7cdef146101c2578063323b5ae7146101f25780633440d8201461021057806334eb074214610240578063365df6b314610273575b600080fd5b6101ac60048036038101906101a79190613589565b61060b565b6040516101b9919061361a565b60405180910390f35b6101dc60048036038101906101d79190613771565b610647565b6040516101e99190613849565b60405180910390f35b6101fa61067b565b604051610207919061361a565b60405180910390f35b61022a60048036038101906102259190613890565b6106aa565b6040516102379190613849565b60405180910390f35b61025a600480360381019061025591906139b6565b6106de565b60405161026a9493929190613a77565b60405180910390f35b61028d60048036038101906102889190613b14565b610c73565b005b6102a960048036038101906102a49190613b8f565b610f9f565b6040516102b7929190613bf7565b60405180910390f35b6102da60048036038101906102d59190613c3f565b6113fd565b6040516102e79190613849565b60405180910390f35b61030a60048036038101906103059190613cc9565b611431565b005b610314611999565b6040516103219190613df7565b60405180910390f35b610344600480360381019061033f9190613e13565b6119f8565b604051610352929190613e66565b60405180910390f35b61037560048036038101906103709190613ebb565b611ced565b60405161038796959493929190613f4c565b60405180910390f35b6103aa60048036038101906103a59190614143565b611d92565b6040516103b7919061361a565b60405180910390f35b6103da60048036038101906103d59190614196565b611e04565b6040516103e791906141d6565b60405180910390f35b61040a6004803603810190610405919061421d565b611ece565b6040516104179190614259565b60405180910390f35b61043a60048036038101906104359190614196565b611ef7565b604051610448929190613bf7565b60405180910390f35b61046b60048036038101906104669190614274565b612386565b6040516104789190613849565b60405180910390f35b61049b60048036038101906104969190614310565b61245e565b6040516104a891906143dc565b60405180910390f35b6104cb60048036038101906104c691906143fe565b6125af565b6040516104d89190613849565b60405180910390f35b6104fb60048036038101906104f6919061449b565b612726565b6040516105089190613849565b60405180910390f35b61052b6004803603810190610526919061421d565b61275a565b6040516105389190614259565b60405180910390f35b61055b60048036038101906105569190614563565b61277a565b005b610565612d4c565b60405161057291906145ec565b60405180910390f35b6105956004803603810190610590919061449b565b612d70565b6040516105a29190613849565b60405180910390f35b6105c560048036038101906105c09190614607565b612da4565b6040516105d29190613849565b60405180910390f35b6105f560048036038101906105f091906146a1565b612e3f565b6040516106029190613849565b60405180910390f35b60026020528060005260406000206000915054906101000a90047cffffffffffffffffffffffffffffffffffffffffffffffffffffffffff1681565b60006040517f0a85dc2900000000000000000000000000000000000000000000000000000000815260040160405180910390fd5b600160009054906101000a90047cffffffffffffffffffffffffffffffffffffffffffffffffffffffffff1681565b60006040517f0a85dc2900000000000000000000000000000000000000000000000000000000815260040160405180910390fd5b6000806000803073ffffffffffffffffffffffffffffffffffffffff163373ffffffffffffffffffffffffffffffffffffffff1614610749576040517f29c3b7ee00000000000000000000000000000000000000000000000000000000815260040160405180910390fd5b600089606001602081019061075e919061472b565b896107699190614787565b9050856109da5760007f000000000000000000000000000000000000000000000000000000000000000073ffffffffffffffffffffffffffffffffffffffff166361ae449a8c60405180606001604052808e60020b81526020018660020b81526020016000815250604051806020016040528060008152506040518463ffffffff1660e01b81526004016107ff9392919061496d565b6020604051808303816000875af115801561081e573d6000803e3d6000fd5b505050506040513d601f19601f8201168201806040525081019061084291906149c2565b9050600061084f82612e73565b600f0b121561090e577f000000000000000000000000000000000000000000000000000000000000000073ffffffffffffffffffffffffffffffffffffffff1663c6c3bbe68c60000160208101906108a791906149ef565b306108b185612e73565b6108ba90614a29565b9750876040518463ffffffff1660e01b81526004016108db93929190614ab1565b600060405180830381600087803b1580156108f557600080fd5b505af1158015610909573d6000803e3d6000fd5b505050505b600061091982612e80565b600f0b12156109d8577f000000000000000000000000000000000000000000000000000000000000000073ffffffffffffffffffffffffffffffffffffffff1663c6c3bbe68c602001602081019061097191906149ef565b3061097b85612e80565b61098490614a29565b9650866040518463ffffffff1660e01b81526004016109a593929190614ab1565b600060405180830381600087803b1580156109bf57600080fd5b505af11580156109d3573d6000803e3d6000fd5b505050505b505b60007f000000000000000000000000000000000000000000000000000000000000000073ffffffffffffffffffffffffffffffffffffffff166361ae449a8c60405180606001604052808e60020b81526020018660020b81526020018d815250604051806020016040528060008152506040518463ffffffff1660e01b8152600401610a689392919061496d565b6020604051808303816000875af1158015610a87573d6000803e3d6000fd5b505050506040513d601f19601f82011682018060405250810190610aab91906149c2565b90506000610ab882612e73565b600f0b1215610b89577f000000000000000000000000000000000000000000000000000000000000000073ffffffffffffffffffffffffffffffffffffffff16630b0d9c098c6000016020810190610b1091906149ef565b8a610b1a85612e73565b610b2390614a29565b6fffffffffffffffffffffffffffffffff169950896040518463ffffffff1660e01b8152600401610b5693929190614ae8565b600060405180830381600087803b158015610b7057600080fd5b505af1158015610b84573d6000803e3d6000fd5b505050505b6000610b9482612e80565b600f0b1215610c65577f000000000000000000000000000000000000000000000000000000000000000073ffffffffffffffffffffffffffffffffffffffff16630b0d9c098c6020016020810190610bec91906149ef565b8a610bf685612e80565b610bff90614a29565b6fffffffffffffffffffffffffffffffff169850886040518463ffffffff1660e01b8152600401610c3293929190614ae8565b600060405180830381600087803b158015610c4c57600080fd5b505af1158015610c60573d6000803e3d6000fd5b505050505b505095509550955095915050565b3073ffffffffffffffffffffffffffffffffffffffff163373ffffffffffffffffffffffffffffffffffffffff1614610cd8576040517f29c3b7ee00000000000000000000000000000000000000000000000000000000815260040160405180910390fd5b6000831115610e38577f000000000000000000000000000000000000000000000000000000000000000073ffffffffffffffffffffffffffffffffffffffff1663f242432a307f00000000000000000000000000000000000000000000000000000000000000008873ffffffffffffffffffffffffffffffffffffffff16876040518563ffffffff1660e01b8152600401610d769493929190614b45565b600060405180830381600087803b158015610d9057600080fd5b505af1158015610da4573d6000803e3d6000fd5b505050507f000000000000000000000000000000000000000000000000000000000000000073ffffffffffffffffffffffffffffffffffffffff16630b0d9c098683866040518463ffffffff1660e01b8152600401610e0593929190614ae8565b600060405180830381600087803b158015610e1f57600080fd5b505af1158015610e33573d6000803e3d6000fd5b505050505b6000821115610f98577f000000000000000000000000000000000000000000000000000000000000000073ffffffffffffffffffffffffffffffffffffffff1663f242432a307f00000000000000000000000000000000000000000000000000000000000000008773ffffffffffffffffffffffffffffffffffffffff16866040518563ffffffff1660e01b8152600401610ed69493929190614b45565b600060405180830381600087803b158015610ef057600080fd5b505af1158015610f04573d6000803e3d6000fd5b505050507f000000000000000000000000000000000000000000000000000000000000000073ffffffffffffffffffffffffffffffffffffffff16630b0d9c098583856040518463ffffffff1660e01b8152600401610f6593929190614ae8565b600060405180830381600087803b158015610f7f57600080fd5b505af1158015610f93573d6000803e3d6000fd5b505050505b5050505050565b6000806000610fbf87803603810190610fb89190614b9d565b8787611d92565b9050600060036000837cffffffffffffffffffffffffffffffffffffffffffffffffffffffffff167cffffffffffffffffffffffffffffffffffffffffffffffffffffffffff16815260200190815260200160002090508060000160009054906101000a900460ff161561105f576040517f827d22e600000000000000000000000000000000000000000000000000000000815260040160405180910390fd5b60008160050160003373ffffffffffffffffffffffffffffffffffffffff1673ffffffffffffffffffffffffffffffffffffffff16815260200190815260200160002060009054906101000a90046fffffffffffffffffffffffffffffffff1690506000816fffffffffffffffffffffffffffffffff160361110d576040517f1007454800000000000000000000000000000000000000000000000000000000815260040160405180910390fd5b8160050160003373ffffffffffffffffffffffffffffffffffffffff1673ffffffffffffffffffffffffffffffffffffffff16815260200190815260200160002060006101000a8154906fffffffffffffffffffffffffffffffff021916905560008260040160009054906101000a90046fffffffffffffffffffffffffffffffff169050818161119e9190614bca565b8360040160006101000a8154816fffffffffffffffffffffffffffffffff02191690836fffffffffffffffffffffffffffffffff1602179055506000807f000000000000000000000000000000000000000000000000000000000000000073ffffffffffffffffffffffffffffffffffffffff1663815483193073ffffffffffffffffffffffffffffffffffffffff166334eb07428f8f896fffffffffffffffffffffffffffffffff1661125190614c0e565b8f8a6fffffffffffffffffffffffffffffffff168c6fffffffffffffffffffffffffffffffff161460405160240161128d959493929190614c65565b604051602081830303815290604052915060e01b6020820180517bffffffffffffffffffffffffffffffffffffffffffffffffffffffff83818316178352505050506040518263ffffffff1660e01b81526004016112eb91906143dc565b6000604051808303816000875af115801561130a573d6000803e3d6000fd5b505050506040513d6000823e3d601f19601f820116820180604052508101906113339190614d60565b8060200190518101906113469190614dbe565b809450819550829a50839b5050505050818560020160008282540192505081905550808560030160008282540192505081905550857cffffffffffffffffffffffffffffffffffffffffffffffffffffffffff163373ffffffffffffffffffffffffffffffffffffffff167f1fcdf3a63cf3db59982665c5a85b5b5d46a623a9216a89da970cbad511ff02358e8e8e896040516113e69493929190614e25565b60405180910390a350505050505094509492505050565b60006040517f0a85dc2900000000000000000000000000000000000000000000000000000000815260040160405180910390fd5b3073ffffffffffffffffffffffffffffffffffffffff163373ffffffffffffffffffffffffffffffffffffffff1614611496576040517f29c3b7ee00000000000000000000000000000000000000000000000000000000815260040160405180910390fd5b60007f000000000000000000000000000000000000000000000000000000000000000073ffffffffffffffffffffffffffffffffffffffff166361ae449a8760405180606001604052808960020b81526020018a60600160208101906114fc919061472b565b8a6115079190614787565b60020b815260200187815250604051806020016040528060008152506040518463ffffffff1660e01b81526004016115419392919061496d565b6020604051808303816000875af1158015611560573d6000803e3d6000fd5b505050506040513d601f19601f8201168201806040525081019061158491906149c2565b9050600061159182612e73565b600f0b13156117975760006115a582612e80565b600f0b146115df576040517f23ac68e700000000000000000000000000000000000000000000000000000000815260040160405180910390fd5b83611616576040517fb319920d00000000000000000000000000000000000000000000000000000000815260040160405180910390fd5b85600001602081019061162991906149ef565b73ffffffffffffffffffffffffffffffffffffffff166323b872dd837f000000000000000000000000000000000000000000000000000000000000000061166f85612e73565b6fffffffffffffffffffffffffffffffff166040518463ffffffff1660e01b815260040161169f93929190614e6b565b6020604051808303816000875af11580156116be573d6000803e3d6000fd5b505050506040513d601f19601f820116820180604052508101906116e29190614eb7565b507f000000000000000000000000000000000000000000000000000000000000000073ffffffffffffffffffffffffffffffffffffffff16636a256b2987600001602081019061173291906149ef565b6040518263ffffffff1660e01b815260040161174e9190614ee4565b6020604051808303816000875af115801561176d573d6000803e3d6000fd5b505050506040513d601f19601f820116820180604052508101906117919190614eff565b50611991565b60006117a282612e73565b600f0b146117dc576040517f23ac68e700000000000000000000000000000000000000000000000000000000815260040160405180910390fd5b8315611814576040517fb319920d00000000000000000000000000000000000000000000000000000000815260040160405180910390fd5b85602001602081019061182791906149ef565b73ffffffffffffffffffffffffffffffffffffffff166323b872dd837f000000000000000000000000000000000000000000000000000000000000000061186d85612e80565b6fffffffffffffffffffffffffffffffff166040518463ffffffff1660e01b815260040161189d93929190614e6b565b6020604051808303816000875af11580156118bc573d6000803e3d6000fd5b505050506040513d601f19601f820116820180604052508101906118e09190614eb7565b507f000000000000000000000000000000000000000000000000000000000000000073ffffffffffffffffffffffffffffffffffffffff16636a256b2987602001602081019061193091906149ef565b6040518263ffffffff1660e01b815260040161194c9190614ee4565b6020604051808303816000875af115801561196b573d6000803e3d6000fd5b505050506040513d601f19601f8201168201806040525081019061198f9190614eff565b505b505050505050565b6119a16134ea565b60405180610100016040528060001515815260200160011515815260200160001515815260200160001515815260200160001515815260200160011515815260200160001515815260200160001515815250905090565b6000803073ffffffffffffffffffffffffffffffffffffffff163373ffffffffffffffffffffffffffffffffffffffff1614611a60576040517f29c3b7ee00000000000000000000000000000000000000000000000000000000815260040160405180910390fd5b60007f000000000000000000000000000000000000000000000000000000000000000073ffffffffffffffffffffffffffffffffffffffff166361ae449a8760405180606001604052808960020b81526020018a6060016020810190611ac6919061472b565b8a611ad19190614787565b60020b815260200188815250604051806020016040528060008152506040518463ffffffff1660e01b8152600401611b0b9392919061496d565b6020604051808303816000875af1158015611b2a573d6000803e3d6000fd5b505050506040513d601f19601f82011682018060405250810190611b4e91906149c2565b90506000611b5b82612e73565b600f0b1215611c1a577f000000000000000000000000000000000000000000000000000000000000000073ffffffffffffffffffffffffffffffffffffffff1663c6c3bbe6876000016020810190611bb391906149ef565b30611bbd85612e73565b611bc690614a29565b9650866040518463ffffffff1660e01b8152600401611be793929190614ab1565b600060405180830381600087803b158015611c0157600080fd5b505af1158015611c15573d6000803e3d6000fd5b505050505b6000611c2582612e80565b600f0b1215611ce4577f000000000000000000000000000000000000000000000000000000000000000073ffffffffffffffffffffffffffffffffffffffff1663c6c3bbe6876020016020810190611c7d91906149ef565b30611c8785612e80565b611c9090614a29565b9550856040518463ffffffff1660e01b8152600401611cb193929190614ab1565b600060405180830381600087803b158015611ccb57600080fd5b505af1158015611cdf573d6000803e3d6000fd5b505050505b50935093915050565b60036020528060005260406000206000915090508060000160009054906101000a900460ff16908060000160019054906101000a900473ffffffffffffffffffffffffffffffffffffffff16908060010160009054906101000a900473ffffffffffffffffffffffffffffffffffffffff16908060020154908060030154908060040160009054906101000a90046fffffffffffffffffffffffffffffffff16905086565b600060026000858585604051602001611dad93929190614f94565b60405160208183030381529060405280519060200120815260200190815260200160002060009054906101000a90047cffffffffffffffffffffffffffffffffffffffffffffffffffffffffff1690509392505050565b600060036000847cffffffffffffffffffffffffffffffffffffffffffffffffffffffffff167cffffffffffffffffffffffffffffffffffffffffffffffffffffffffff16815260200190815260200160002060050160008373ffffffffffffffffffffffffffffffffffffffff1673ffffffffffffffffffffffffffffffffffffffff16815260200190815260200160002060009054906101000a90046fffffffffffffffffffffffffffffffff166fffffffffffffffffffffffffffffffff16905092915050565b600080600083815260200190815260200160002060009054906101000a900460020b9050919050565b600080600060036000867cffffffffffffffffffffffffffffffffffffffffffffffffffffffffff167cffffffffffffffffffffffffffffffffffffffffffffffffffffffffff16815260200190815260200160002090508060000160009054906101000a900460ff16611f97576040517f6cb6fbf000000000000000000000000000000000000000000000000000000000815260040160405180910390fd5b60008160050160003373ffffffffffffffffffffffffffffffffffffffff1673ffffffffffffffffffffffffffffffffffffffff16815260200190815260200160002060009054906101000a90046fffffffffffffffffffffffffffffffff1690506000816fffffffffffffffffffffffffffffffff1603612045576040517f1007454800000000000000000000000000000000000000000000000000000000815260040160405180910390fd5b8160050160003373ffffffffffffffffffffffffffffffffffffffff1673ffffffffffffffffffffffffffffffffffffffff16815260200190815260200160002060006101000a8154906fffffffffffffffffffffffffffffffff021916905560008260020154905060008360030154905060008460040160009054906101000a90046fffffffffffffffffffffffffffffffff16905061210b83856fffffffffffffffffffffffffffffffff16836fffffffffffffffffffffffffffffffff16612e8a565b965061213c82856fffffffffffffffffffffffffffffffff16836fffffffffffffffffffffffffffffffff16612e8a565b9550868361214a9190614fcb565b8560020181905550858261215e9190614fcb565b856003018190555083816121729190614bca565b8560040160006101000a8154816fffffffffffffffffffffffffffffffff02191690836fffffffffffffffffffffffffffffffff1602179055507f000000000000000000000000000000000000000000000000000000000000000073ffffffffffffffffffffffffffffffffffffffff1663815483193073ffffffffffffffffffffffffffffffffffffffff1663365df6b38860000160019054906101000a900473ffffffffffffffffffffffffffffffffffffffff168960010160009054906101000a900473ffffffffffffffffffffffffffffffffffffffff168c8c8f604051602401612265959493929190614fff565b604051602081830303815290604052915060e01b6020820180517bffffffffffffffffffffffffffffffffffffffffffffffffffffffff83818316178352505050506040518263ffffffff1660e01b81526004016122c391906143dc565b6000604051808303816000875af11580156122e2573d6000803e3d6000fd5b505050506040513d6000823e3d601f19601f8201168201806040525081019061230b9190614d60565b50887cffffffffffffffffffffffffffffffffffffffffffffffffffffffffff163373ffffffffffffffffffffffffffffffffffffffff167fcfd201c31748d4bd85efe95ceda3bac90f7fd44d075465d1624a5ce18bcf5588866040516123729190615052565b60405180910390a350505050509250929050565b60007f000000000000000000000000000000000000000000000000000000000000000073ffffffffffffffffffffffffffffffffffffffff163373ffffffffffffffffffffffffffffffffffffffff161461240d576040517fae18210a00000000000000000000000000000000000000000000000000000000815260040160405180910390fd5b61244a612429878036038101906124249190614b9d565b612f56565b61244586896060016020810190612440919061472b565b612f86565b612fe2565b63a910f80f60e01b90509695505050505050565b60607f000000000000000000000000000000000000000000000000000000000000000073ffffffffffffffffffffffffffffffffffffffff163373ffffffffffffffffffffffffffffffffffffffff16146124e5576040517fae18210a00000000000000000000000000000000000000000000000000000000815260040160405180910390fd5b6000803073ffffffffffffffffffffffffffffffffffffffff16858560405161250f9291906150ac565b6000604051808303816000865af19150503d806000811461254c576040519150601f19603f3d011682016040523d82523d6000602084013e612551565b606091505b509150915081156125665780925050506125a9565b60008151036125a1576040517fa40afa3800000000000000000000000000000000000000000000000000000000815260040160405180910390fd5b805160208201fd5b92915050565b60007f000000000000000000000000000000000000000000000000000000000000000073ffffffffffffffffffffffffffffffffffffffff163373ffffffffffffffffffffffffffffffffffffffff1614612636576040517fae18210a00000000000000000000000000000000000000000000000000000000815260040160405180910390fd5b600080600061266f6126578a8036038101906126529190614b9d565b612f56565b8a606001602081019061266a919061472b565b613018565b9250925092508060020b8260020b13156126955763b47b2fb160e01b935050505061271c565b60008860000160208101906126aa91906150c5565b1590505b8160020b8360020b136126eb576126c68a848361307c565b8960600160208101906126d9919061472b565b836126e49190614787565b92506126ae565b61270d6127078b8036038101906127029190614b9d565b612f56565b85612fe2565b63b47b2fb160e01b9450505050505b9695505050505050565b60006040517f0a85dc2900000000000000000000000000000000000000000000000000000000815260040160405180910390fd5b60006020528060005260406000206000915054906101000a900460020b81565b83608001602081019061278d91906150f2565b3073ffffffffffffffffffffffffffffffffffffffff168173ffffffffffffffffffffffffffffffffffffffff16146127f2576040517f2083cd4000000000000000000000000000000000000000000000000000000000815260040160405180910390fd5b6000826fffffffffffffffffffffffffffffffff160361283e576040517f1007454800000000000000000000000000000000000000000000000000000000815260040160405180910390fd5b7f000000000000000000000000000000000000000000000000000000000000000073ffffffffffffffffffffffffffffffffffffffff1663815483193073ffffffffffffffffffffffffffffffffffffffff16635aaff517888888886fffffffffffffffffffffffffffffffff16336040516024016128c195949392919061511f565b604051602081830303815290604052915060e01b6020820180517bffffffffffffffffffffffffffffffffffffffffffffffffffffffff83818316178352505050506040518263ffffffff1660e01b815260040161291f91906143dc565b6000604051808303816000875af115801561293e573d6000803e3d6000fd5b505050506040513d6000823e3d601f19601f820116820180604052508101906129679190614d60565b506000806129868780360381019061297f9190614b9d565b8787611d92565b90506129bb6000827cffffffffffffffffffffffffffffffffffffffffffffffffffffffffff1661335290919063ffffffff16565b15612b8657612a0a878036038101906129d49190614b9d565b8787600160009054906101000a90047cffffffffffffffffffffffffffffffffffffffffffffffffffffffffff1694508461339d565b612a32817cffffffffffffffffffffffffffffffffffffffffffffffffffffffffff16613431565b600160006101000a8154817cffffffffffffffffffffffffffffffffffffffffffffffffffffffffff02191690837cffffffffffffffffffffffffffffffffffffffffffffffffffffffffff16021790555060036000827cffffffffffffffffffffffffffffffffffffffffffffffffffffffffff167cffffffffffffffffffffffffffffffffffffffffffffffffffffffffff1681526020019081526020016000209150866000016020810190612aea91906149ef565b8260000160016101000a81548173ffffffffffffffffffffffffffffffffffffffff021916908373ffffffffffffffffffffffffffffffffffffffff160217905550866020016020810190612b3f91906149ef565b8260010160006101000a81548173ffffffffffffffffffffffffffffffffffffffff021916908373ffffffffffffffffffffffffffffffffffffffff160217905550612bda565b60036000827cffffffffffffffffffffffffffffffffffffffffffffffffffffffffff167cffffffffffffffffffffffffffffffffffffffffffffffffffffffffff16815260200190815260200160002091505b838260040160008282829054906101000a90046fffffffffffffffffffffffffffffffff160192506101000a8154816fffffffffffffffffffffffffffffffff02191690836fffffffffffffffffffffffffffffffff160217905550838260050160003373ffffffffffffffffffffffffffffffffffffffff1673ffffffffffffffffffffffffffffffffffffffff16815260200190815260200160002060008282829054906101000a90046fffffffffffffffffffffffffffffffff160192506101000a8154816fffffffffffffffffffffffffffffffff02191690836fffffffffffffffffffffffffffffffff160217905550807cffffffffffffffffffffffffffffffffffffffffffffffffffffffffff163373ffffffffffffffffffffffffffffffffffffffff167f4f0ea5e4591f78ece28e0e576ad3e8430e47ef23df32f6d4a04911558b5803f589898989604051612d3b9493929190614e25565b60405180910390a350505050505050565b7f000000000000000000000000000000000000000000000000000000000000000081565b60006040517f0a85dc2900000000000000000000000000000000000000000000000000000000815260040160405180910390fd5b60007f000000000000000000000000000000000000000000000000000000000000000073ffffffffffffffffffffffffffffffffffffffff163373ffffffffffffffffffffffffffffffffffffffff1614612e2b576040517f53fa5ae400000000000000000000000000000000000000000000000000000000815260040160405180910390fd5b63f23a6e6160e01b90509695505050505050565b60006040517f0a85dc2900000000000000000000000000000000000000000000000000000000815260040160405180910390fd5b60008160801c9050919050565b6000819050919050565b60008083850290506000801985870982811083820303915050808411612eaf57600080fd5b60008103612ec35783820492505050612f4f565b600084868809905082811182039150808303925060008586600003169050808604955080840493506001818260000304019050808302841793506000600287600302189050808702600203810290508087026002038102905080870260020381029050808702600203810290508087026002038102905080870260020381029050808502955050505050505b9392505050565b600081604051602001612f699190615174565b604051602081830303815290604052805190602001209050919050565b6000808284612f9591906151be565b905060008460020b128015612fb9575060008385612fb39190615228565b60020b14155b15612fcd578080612fc990615259565b9150505b8281612fd991906152a1565b91505092915050565b8060008084815260200190815260200160002060006101000a81548162ffffff021916908360020b62ffffff1602179055505050565b600080600061302f6130298661343e565b85612f86565b9250600061303c86611ece565b90508060020b8460020b12156130625784846130589190614787565b9250809150613074565b809250848461307191906152de565b91505b509250925092565b6000613099848036038101906130929190614b9d565b8484611d92565b90506130ce6000827cffffffffffffffffffffffffffffffffffffffffffffffffffffffffff1661335290919063ffffffff16565b61334c57600060036000837cffffffffffffffffffffffffffffffffffffffffffffffffffffffffff167cffffffffffffffffffffffffffffffffffffffffffffffffffffffffff168152602001908152602001600020905060018160000160006101000a81548160ff0219169083151502179055506000807f000000000000000000000000000000000000000000000000000000000000000073ffffffffffffffffffffffffffffffffffffffff1663815483193073ffffffffffffffffffffffffffffffffffffffff1663622b76ae8a8a8860040160009054906101000a90046fffffffffffffffffffffffffffffffff166fffffffffffffffffffffffffffffffff166131dd90614c0e565b6040516024016131ef93929190615339565b604051602081830303815290604052915060e01b6020820180517bffffffffffffffffffffffffffffffffffffffffffffffffffffffff83818316178352505050506040518263ffffffff1660e01b815260040161324d91906143dc565b6000604051808303816000875af115801561326c573d6000803e3d6000fd5b505050506040513d6000823e3d601f19601f820116820180604052508101906132959190614d60565b8060200190518101906132a89190615370565b915091508183600201600082825401925050819055508083600301600082825401925050819055506132ed878036038101906132e49190614b9d565b8787600061339d565b837cffffffffffffffffffffffffffffffffffffffffffffffffffffffffff167f315051c5c119908100a3f90ce0f119abf8a2b85f89378f72e13c7fe0dad56f6e888888604051613340939291906153b0565b60405180910390a25050505b50505050565b6000817cffffffffffffffffffffffffffffffffffffffffffffffffffffffffff16837cffffffffffffffffffffffffffffffffffffffffffffffffffffffffff1614905092915050565b80600260008686866040516020016133b793929190614f94565b60405160208183030381529060405280519060200120815260200190815260200160002060006101000a8154817cffffffffffffffffffffffffffffffffffffffffffffffffffffffffff02191690837cffffffffffffffffffffffffffffffffffffffffffffffffffffffffff16021790555050505050565b6000600182019050919050565b60007f000000000000000000000000000000000000000000000000000000000000000073ffffffffffffffffffffffffffffffffffffffff1663c815641c836040518263ffffffff1660e01b81526004016134999190615408565b608060405180830381865afa1580156134b6573d6000803e3d6000fd5b505050506040513d601f19601f820116820180604052508101906134da9190615462565b9091925090505080915050919050565b6040518061010001604052806000151581526020016000151581526020016000151581526020016000151581526020016000151581526020016000151581526020016000151581526020016000151581525090565b6000604051905090565b600080fd5b600080fd5b6000819050919050565b61356681613553565b811461357157600080fd5b50565b6000813590506135838161355d565b92915050565b60006020828403121561359f5761359e613549565b5b60006135ad84828501613574565b91505092915050565b60007cffffffffffffffffffffffffffffffffffffffffffffffffffffffffff82169050919050565b6000819050919050565b60006136046135ff6135fa846135b6565b6135df565b6135b6565b9050919050565b613614816135e9565b82525050565b600060208201905061362f600083018461360b565b92915050565b600073ffffffffffffffffffffffffffffffffffffffff82169050919050565b600061366082613635565b9050919050565b61367081613655565b811461367b57600080fd5b50565b60008135905061368d81613667565b92915050565b600080fd5b600060a082840312156136ae576136ad613693565b5b81905092915050565b6000606082840312156136cd576136cc613693565b5b81905092915050565b6000819050919050565b6136e9816136d6565b81146136f457600080fd5b50565b600081359050613706816136e0565b92915050565b600080fd5b600080fd5b600080fd5b60008083601f8401126137315761373061370c565b5b8235905067ffffffffffffffff81111561374e5761374d613711565b5b60208301915083600182028301111561376a57613769613716565b5b9250929050565b600080600080600080610160878903121561378f5761378e613549565b5b600061379d89828a0161367e565b96505060206137ae89828a01613698565b95505060c06137bf89828a016136b7565b9450506101206137d189828a016136f7565b93505061014087013567ffffffffffffffff8111156137f3576137f261354e565b5b6137ff89828a0161371b565b92509250509295509295509295565b60007fffffffff0000000000000000000000000000000000000000000000000000000082169050919050565b6138438161380e565b82525050565b600060208201905061385e600083018461383a565b92915050565b61386d81613635565b811461387857600080fd5b50565b60008135905061388a81613864565b92915050565b600080600080600061010086880312156138ad576138ac613549565b5b60006138bb8882890161367e565b95505060206138cc88828901613698565b94505060c06138dd8882890161387b565b93505060e086013567ffffffffffffffff8111156138fe576138fd61354e565b5b61390a8882890161371b565b92509250509295509295909350565b60008160020b9050919050565b61392f81613919565b811461393a57600080fd5b50565b60008135905061394c81613926565b92915050565b61395b816136d6565b811461396657600080fd5b50565b60008135905061397881613952565b92915050565b60008115159050919050565b6139938161397e565b811461399e57600080fd5b50565b6000813590506139b08161398a565b92915050565b600080600080600061012086880312156139d3576139d2613549565b5b60006139e188828901613698565b95505060a06139f28882890161393d565b94505060c0613a0388828901613969565b93505060e0613a148882890161367e565b925050610100613a26888289016139a1565b9150509295509295909350565b6000819050919050565b613a4681613a33565b82525050565b60006fffffffffffffffffffffffffffffffff82169050919050565b613a7181613a4c565b82525050565b6000608082019050613a8c6000830187613a3d565b613a996020830186613a3d565b613aa66040830185613a68565b613ab36060830184613a68565b95945050505050565b613ac581613655565b8114613ad057600080fd5b50565b600081359050613ae281613abc565b92915050565b613af181613a33565b8114613afc57600080fd5b50565b600081359050613b0e81613ae8565b92915050565b600080600080600060a08688031215613b3057613b2f613549565b5b6000613b3e88828901613ad3565b9550506020613b4f88828901613ad3565b9450506040613b6088828901613aff565b9350506060613b7188828901613aff565b9250506080613b828882890161367e565b9150509295509295909350565b6000806000806101008587031215613baa57613ba9613549565b5b6000613bb887828801613698565b94505060a0613bc98782880161393d565b93505060c0613bda878288016139a1565b92505060e0613beb8782880161367e565b91505092959194509250565b6000604082019050613c0c6000830185613a3d565b613c196020830184613a3d565b9392505050565b600060608284031215613c3657613c35613693565b5b81905092915050565b60008060008060006101408688031215613c5c57613c5b613549565b5b6000613c6a8882890161367e565b9550506020613c7b88828901613698565b94505060c0613c8c88828901613c20565b93505061012086013567ffffffffffffffff811115613cae57613cad61354e565b5b613cba8882890161371b565b92509250509295509295909350565b60008060008060006101208688031215613ce657613ce5613549565b5b6000613cf488828901613698565b95505060a0613d058882890161393d565b94505060c0613d16888289016139a1565b93505060e0613d2788828901613969565b925050610100613d398882890161367e565b9150509295509295909350565b613d4f8161397e565b82525050565b61010082016000820151613d6c6000850182613d46565b506020820151613d7f6020850182613d46565b506040820151613d926040850182613d46565b506060820151613da56060850182613d46565b506080820151613db86080850182613d46565b5060a0820151613dcb60a0850182613d46565b5060c0820151613dde60c0850182613d46565b5060e0820151613df160e0850182613d46565b50505050565b600061010082019050613e0d6000830184613d55565b92915050565b600080600060e08486031215613e2c57613e2b613549565b5b6000613e3a86828701613698565b93505060a0613e4b8682870161393d565b92505060c0613e5c86828701613969565b9150509250925092565b6000604082019050613e7b6000830185613a68565b613e886020830184613a68565b9392505050565b613e98816135b6565b8114613ea357600080fd5b50565b600081359050613eb581613e8f565b92915050565b600060208284031215613ed157613ed0613549565b5b6000613edf84828501613ea6565b91505092915050565b613ef18161397e565b82525050565b6000613f12613f0d613f0884613635565b6135df565b613635565b9050919050565b6000613f2482613ef7565b9050919050565b6000613f3682613f19565b9050919050565b613f4681613f2b565b82525050565b600060c082019050613f616000830189613ee8565b613f6e6020830188613f3d565b613f7b6040830187613f3d565b613f886060830186613a3d565b613f956080830185613a3d565b613fa260a0830184613a68565b979650505050505050565b600080fd5b6000601f19601f8301169050919050565b7f4e487b7100000000000000000000000000000000000000000000000000000000600052604160045260246000fd5b613ffb82613fb2565b810181811067ffffffffffffffff8211171561401a57614019613fc3565b5b80604052505050565b600061402d61353f565b90506140398282613ff2565b919050565b600062ffffff82169050919050565b6140568161403e565b811461406157600080fd5b50565b6000813590506140738161404d565b92915050565b600061408482613655565b9050919050565b61409481614079565b811461409f57600080fd5b50565b6000813590506140b18161408b565b92915050565b600060a082840312156140cd576140cc613fad565b5b6140d760a0614023565b905060006140e784828501613ad3565b60008301525060206140fb84828501613ad3565b602083015250604061410f84828501614064565b60408301525060606141238482850161393d565b6060830152506080614137848285016140a2565b60808301525092915050565b600080600060e0848603121561415c5761415b613549565b5b600061416a868287016140b7565b93505060a061417b8682870161393d565b92505060c061418c868287016139a1565b9150509250925092565b600080604083850312156141ad576141ac613549565b5b60006141bb85828601613ea6565b92505060206141cc8582860161367e565b9150509250929050565b60006020820190506141eb6000830184613a3d565b92915050565b6141fa81613553565b811461420557600080fd5b50565b600081359050614217816141f1565b92915050565b60006020828403121561423357614232613549565b5b600061424184828501614208565b91505092915050565b61425381613919565b82525050565b600060208201905061426e600083018461424a565b92915050565b600080600080600080610120878903121561429257614291613549565b5b60006142a089828a0161367e565b96505060206142b189828a01613698565b95505060c06142c289828a0161387b565b94505060e06142d389828a0161393d565b93505061010087013567ffffffffffffffff8111156142f5576142f461354e565b5b61430189828a0161371b565b92509250509295509295509295565b6000806020838503121561432757614326613549565b5b600083013567ffffffffffffffff8111156143455761434461354e565b5b6143518582860161371b565b92509250509250929050565b600081519050919050565b600082825260208201905092915050565b60005b8381101561439757808201518184015260208101905061437c565b60008484015250505050565b60006143ae8261435d565b6143b88185614368565b93506143c8818560208601614379565b6143d181613fb2565b840191505092915050565b600060208201905081810360008301526143f681846143a3565b905092915050565b600080600080600080610160878903121561441c5761441b613549565b5b600061442a89828a0161367e565b965050602061443b89828a01613698565b95505060c061444c89828a01613c20565b94505061012061445e89828a016136f7565b93505061014087013567ffffffffffffffff8111156144805761447f61354e565b5b61448c89828a0161371b565b92509250509295509295509295565b60008060008060008061012087890312156144b9576144b8613549565b5b60006144c789828a0161367e565b96505060206144d889828a01613698565b95505060c06144e989828a01613aff565b94505060e06144fa89828a01613aff565b93505061010087013567ffffffffffffffff81111561451c5761451b61354e565b5b61452889828a0161371b565b92509250509295509295509295565b61454081613a4c565b811461454b57600080fd5b50565b60008135905061455d81614537565b92915050565b600080600080610100858703121561457e5761457d613549565b5b600061458c87828801613698565b94505060a061459d8782880161393d565b93505060c06145ae878288016139a1565b92505060e06145bf8782880161454e565b91505092959194509250565b60006145d682613f19565b9050919050565b6145e6816145cb565b82525050565b600060208201905061460160008301846145dd565b92915050565b60008060008060008060a0878903121561462457614623613549565b5b600061463289828a0161367e565b965050602061464389828a0161367e565b955050604061465489828a01613aff565b945050606061466589828a01613aff565b935050608087013567ffffffffffffffff8111156146865761468561354e565b5b61469289828a0161371b565b92509250509295509295509295565b600080600080600061014086880312156146be576146bd613549565b5b60006146cc8882890161367e565b95505060206146dd88828901613698565b94505060c06146ee888289016136b7565b93505061012086013567ffffffffffffffff8111156147105761470f61354e565b5b61471c8882890161371b565b92509250509295509295909350565b60006020828403121561474157614740613549565b5b600061474f8482850161393d565b91505092915050565b7f4e487b7100000000000000000000000000000000000000000000000000000000600052601160045260246000fd5b600061479282613919565b915061479d83613919565b925082820190507fffffffffffffffffffffffffffffffffffffffffffffffffffffffffff8000008112627fffff821317156147dc576147db614758565b5b92915050565b60006147f16020840184613ad3565b905092915050565b61480281613f2b565b82525050565b60006148176020840184614064565b905092915050565b6148288161403e565b82525050565b600061483d602084018461393d565b905092915050565b61484e81613919565b82525050565b600061486360208401846140a2565b905092915050565b600061487682613f19565b9050919050565b6148868161486b565b82525050565b60a0820161489d60008301836147e2565b6148aa60008501826147f9565b506148b860208301836147e2565b6148c560208501826147f9565b506148d36040830183614808565b6148e0604085018261481f565b506148ee606083018361482e565b6148fb6060850182614845565b506149096080830183614854565b614916608085018261487d565b50505050565b614925816136d6565b82525050565b6060820160008201516149416000850182614845565b5060208201516149546020850182614845565b506040820151614967604085018261491c565b50505050565b600061012082019050614983600083018661488c565b61499060a083018561492b565b8181036101008301526149a381846143a3565b9050949350505050565b6000815190506149bc816136e0565b92915050565b6000602082840312156149d8576149d7613549565b5b60006149e6848285016149ad565b91505092915050565b600060208284031215614a0557614a04613549565b5b6000614a1384828501613ad3565b91505092915050565b600081600f0b9050919050565b6000614a3482614a1c565b91507fffffffffffffffffffffffffffffffff800000000000000000000000000000008203614a6657614a65614758565b5b816000039050919050565b614a7a81613655565b82525050565b6000614a9b614a96614a9184613a4c565b6135df565b613a33565b9050919050565b614aab81614a80565b82525050565b6000606082019050614ac66000830186613f3d565b614ad36020830185614a71565b614ae06040830184614aa2565b949350505050565b6000606082019050614afd6000830186613f3d565b614b0a6020830185614a71565b614b176040830184613a3d565b949350505050565b50565b6000614b2f600083614368565b9150614b3a82614b1f565b600082019050919050565b600060a082019050614b5a6000830187614a71565b614b676020830186614a71565b614b746040830185613a3d565b614b816060830184613a3d565b8181036080830152614b9281614b22565b905095945050505050565b600060a08284031215614bb357614bb2613549565b5b6000614bc1848285016140b7565b91505092915050565b6000614bd582613a4c565b9150614be083613a4c565b925082820390506fffffffffffffffffffffffffffffffff811115614c0857614c07614758565b5b92915050565b6000614c19826136d6565b91507f80000000000000000000000000000000000000000000000000000000000000008203614c4b57614c4a614758565b5b816000039050919050565b614c5f816136d6565b82525050565b600061012082019050614c7b600083018861488c565b614c8860a083018761424a565b614c9560c0830186614c56565b614ca260e0830185614a71565b614cb0610100830184613ee8565b9695505050505050565b600080fd5b600067ffffffffffffffff821115614cda57614cd9613fc3565b5b614ce382613fb2565b9050602081019050919050565b6000614d03614cfe84614cbf565b614023565b905082815260208101848484011115614d1f57614d1e614cba565b5b614d2a848285614379565b509392505050565b600082601f830112614d4757614d4661370c565b5b8151614d57848260208601614cf0565b91505092915050565b600060208284031215614d7657614d75613549565b5b600082015167ffffffffffffffff811115614d9457614d9361354e565b5b614da084828501614d32565b91505092915050565b600081519050614db881613ae8565b92915050565b60008060008060808587031215614dd857614dd7613549565b5b6000614de687828801614da9565b9450506020614df787828801614da9565b9350506040614e0887828801614da9565b9250506060614e1987828801614da9565b91505092959194509250565b600061010082019050614e3b600083018761488c565b614e4860a083018661424a565b614e5560c0830185613ee8565b614e6260e0830184613a68565b95945050505050565b6000606082019050614e806000830186614a71565b614e8d6020830185614a71565b614e9a6040830184613a3d565b949350505050565b600081519050614eb18161398a565b92915050565b600060208284031215614ecd57614ecc613549565b5b6000614edb84828501614ea2565b91505092915050565b6000602082019050614ef96000830184613f3d565b92915050565b600060208284031215614f1557614f14613549565b5b6000614f2384828501614da9565b91505092915050565b60a082016000820151614f4260008501826147f9565b506020820151614f5560208501826147f9565b506040820151614f68604085018261481f565b506060820151614f7b6060850182614845565b506080820151614f8e608085018261487d565b50505050565b600060e082019050614fa96000830186614f2c565b614fb660a083018561424a565b614fc360c0830184613ee8565b949350505050565b6000614fd682613a33565b9150614fe183613a33565b9250828203905081811115614ff957614ff8614758565b5b92915050565b600060a0820190506150146000830188613f3d565b6150216020830187613f3d565b61502e6040830186613a3d565b61503b6060830185613a3d565b6150486080830184614a71565b9695505050505050565b60006020820190506150676000830184613a68565b92915050565b600081905092915050565b82818337600083830152505050565b6000615093838561506d565b93506150a0838584615078565b82840190509392505050565b60006150b9828486615087565b91508190509392505050565b6000602082840312156150db576150da613549565b5b60006150e9848285016139a1565b91505092915050565b60006020828403121561510857615107613549565b5b6000615116848285016140a2565b91505092915050565b600061012082019050615135600083018861488c565b61514260a083018761424a565b61514f60c0830186613ee8565b61515c60e0830185614c56565b61516a610100830184614a71565b9695505050505050565b600060a0820190506151896000830184614f2c565b92915050565b7f4e487b7100000000000000000000000000000000000000000000000000000000600052601260045260246000fd5b60006151c982613919565b91506151d483613919565b9250826151e4576151e361518f565b5b600160000383147fffffffffffffffffffffffffffffffffffffffffffffffffffffffffff8000008314161561521d5761521c614758565b5b828205905092915050565b600061523382613919565b915061523e83613919565b92508261524e5761524d61518f565b5b828207905092915050565b600061526482613919565b91507fffffffffffffffffffffffffffffffffffffffffffffffffffffffffff800000820361529657615295614758565b5b600182039050919050565b60006152ac82613919565b91506152b783613919565b92508282026152c581613919565b91508082146152d7576152d6614758565b5b5092915050565b60006152e982613919565b91506152f483613919565b92508282039050627fffff81137fffffffffffffffffffffffffffffffffffffffffffffffffffffffffff8000008212171561533357615332614758565b5b92915050565b600060e08201905061534e600083018661488c565b61535b60a083018561424a565b61536860c0830184614c56565b949350505050565b6000806040838503121561538757615386613549565b5b600061539585828601614da9565b92505060206153a685828601614da9565b9150509250929050565b600060e0820190506153c5600083018661488c565b6153d260a083018561424a565b6153df60c0830184613ee8565b949350505050565b60006153f282613553565b9050919050565b615402816153e7565b82525050565b600060208201905061541d60008301846153f9565b92915050565b60008151905061543281613864565b92915050565b60008151905061544781613926565b92915050565b60008151905061545c8161404d565b92915050565b6000806000806080858703121561547c5761547b613549565b5b600061548a87828801615423565b945050602061549b87828801615438565b93505060406154ac8782880161544d565b92505060606154bd8782880161544d565b9150509295919450925056fea2646970667358221220d1af2dacdd396a1086768d4eeb40c83f9212f61f26433ecdacfd46e74b864ba864736f6c6343000815003360a06040523480156200001157600080fd5b5060405162001a3f38038062001a3f8339818101604052810190620000379190620000f0565b8073ffffffffffffffffffffffffffffffffffffffff1660808173ffffffffffffffffffffffffffffffffffffffff16815250505062000122565b600080fd5b600073ffffffffffffffffffffffffffffffffffffffff82169050919050565b6000620000a48262000077565b9050919050565b6000620000b88262000097565b9050919050565b620000ca81620000ab565b8114620000d657600080fd5b50565b600081519050620000ea81620000bf565b92915050565b60006020828403121562000109576200010862000072565b5b60006200011984828501620000d9565b91505092915050565b6080516118b6620001896000396000818160d30152818160f901528181610249015281816102b6015281816103a4015281816104920152818161051e01528181610605015281816106f30152818161077f0152818161083a01526108fb01526118b66000f3fe6080604052600436106100345760003560e01c8063481c6a751461003957806361ae449a14610064578063ab6291fe14610094575b600080fd5b34801561004557600080fd5b5061004e6100d1565b60405161005b9190610ba0565b60405180910390f35b61007e60048036038101906100799190610f35565b6100f5565b60405161008b9190610fd7565b60405180910390f35b3480156100a057600080fd5b506100bb60048036038101906100b69190611052565b610245565b6040516100c8919061111e565b60405180910390f35b7f000000000000000000000000000000000000000000000000000000000000000081565b60007f000000000000000000000000000000000000000000000000000000000000000073ffffffffffffffffffffffffffffffffffffffff16638154831960405180608001604052803373ffffffffffffffffffffffffffffffffffffffff1681526020018781526020018681526020018581525060405160200161017a9190611317565b6040516020818303038152906040526040518263ffffffff1660e01b81526004016101a5919061111e565b6000604051808303816000875af11580156101c4573d6000803e3d6000fd5b505050506040513d6000823e3d601f19601f820116820180604052508101906101ed91906113a9565b806020019051810190610200919061141e565b90506000479050600081111561023d5761023c3382600073ffffffffffffffffffffffffffffffffffffffff166109d09092919063ffffffff16565b5b509392505050565b60607f000000000000000000000000000000000000000000000000000000000000000073ffffffffffffffffffffffffffffffffffffffff163373ffffffffffffffffffffffffffffffffffffffff161461029f57600080fd5b600083838101906102b0919061150d565b905060007f000000000000000000000000000000000000000000000000000000000000000073ffffffffffffffffffffffffffffffffffffffff166361ae449a8360200151846040015185606001516040518463ffffffff1660e01b815260040161031d93929190611600565b6020604051808303816000875af115801561033c573d6000803e3d6000fd5b505050506040513d601f19601f82011682018060405250810190610360919061141e565b9050600061036d82610ad2565b600f0b13156105c35761039d82602001516000015173ffffffffffffffffffffffffffffffffffffffff16610adf565b15610467577f000000000000000000000000000000000000000000000000000000000000000073ffffffffffffffffffffffffffffffffffffffff16636a256b296103e783610ad2565b6fffffffffffffffffffffffffffffffff168460200151600001516040518363ffffffff1660e01b815260040161041e919061164f565b60206040518083038185885af115801561043c573d6000803e3d6000fd5b50505050506040513d601f19601f8201168201806040525081019061046191906116a0565b506105c2565b81602001516000015173ffffffffffffffffffffffffffffffffffffffff166323b872dd83600001517f00000000000000000000000000000000000000000000000000000000000000006104ba85610ad2565b6040518463ffffffff1660e01b81526004016104d893929190611729565b6020604051808303816000875af11580156104f7573d6000803e3d6000fd5b505050506040513d601f19601f8201168201806040525081019061051b9190611798565b507f000000000000000000000000000000000000000000000000000000000000000073ffffffffffffffffffffffffffffffffffffffff16636a256b298360200151600001516040518263ffffffff1660e01b815260040161057d919061164f565b6020604051808303816000875af115801561059c573d6000803e3d6000fd5b505050506040513d601f19601f820116820180604052508101906105c091906116a0565b505b5b60006105ce82610b17565b600f0b1315610824576105fe82602001516020015173ffffffffffffffffffffffffffffffffffffffff16610adf565b156106c8577f000000000000000000000000000000000000000000000000000000000000000073ffffffffffffffffffffffffffffffffffffffff16636a256b2961064883610b17565b6fffffffffffffffffffffffffffffffff168460200151602001516040518363ffffffff1660e01b815260040161067f919061164f565b60206040518083038185885af115801561069d573d6000803e3d6000fd5b50505050506040513d601f19601f820116820180604052508101906106c291906116a0565b50610823565b81602001516020015173ffffffffffffffffffffffffffffffffffffffff166323b872dd83600001517f000000000000000000000000000000000000000000000000000000000000000061071b85610b17565b6040518463ffffffff1660e01b815260040161073993929190611729565b6020604051808303816000875af1158015610758573d6000803e3d6000fd5b505050506040513d601f19601f8201168201806040525081019061077c9190611798565b507f000000000000000000000000000000000000000000000000000000000000000073ffffffffffffffffffffffffffffffffffffffff16636a256b298360200151602001516040518263ffffffff1660e01b81526004016107de919061164f565b6020604051808303816000875af11580156107fd573d6000803e3d6000fd5b505050506040513d601f19601f8201168201806040525081019061082191906116a0565b505b5b600061082f82610ad2565b600f0b12156108e5577f000000000000000000000000000000000000000000000000000000000000000073ffffffffffffffffffffffffffffffffffffffff16630b0d9c09836020015160000151846000015161088b85610ad2565b61089490611801565b6040518463ffffffff1660e01b81526004016108b293929190611849565b600060405180830381600087803b1580156108cc57600080fd5b505af11580156108e0573d6000803e3d6000fd5b505050505b60006108f082610b17565b600f0b12156109a6577f000000000000000000000000000000000000000000000000000000000000000073ffffffffffffffffffffffffffffffffffffffff16630b0d9c09836020015160200151846000015161094c85610b17565b61095590611801565b6040518463ffffffff1660e01b815260040161097393929190611849565b600060405180830381600087803b15801561098d57600080fd5b505af11580156109a1573d6000803e3d6000fd5b505050505b806040516020016109b79190610fd7565b6040516020818303038152906040529250505092915050565b60006109f18473ffffffffffffffffffffffffffffffffffffffff16610adf565b15610a3e5760008060008085875af1905080610a39576040517ff4b3b1bc00000000000000000000000000000000000000000000000000000000815260040160405180910390fd5b610acc565b6040517fa9059cbb000000000000000000000000000000000000000000000000000000006000528360045282602452602060006044600080895af13d15601f3d1160016000511416171691506000606052806040525080610acb576040517ff27f64e400000000000000000000000000000000000000000000000000000000815260040160405180910390fd5b5b50505050565b60008160801c9050919050565b60008073ffffffffffffffffffffffffffffffffffffffff168273ffffffffffffffffffffffffffffffffffffffff16149050919050565b6000819050919050565b600073ffffffffffffffffffffffffffffffffffffffff82169050919050565b6000819050919050565b6000610b66610b61610b5c84610b21565b610b41565b610b21565b9050919050565b6000610b7882610b4b565b9050919050565b6000610b8a82610b6d565b9050919050565b610b9a81610b7f565b82525050565b6000602082019050610bb56000830184610b91565b92915050565b6000604051905090565b600080fd5b600080fd5b600080fd5b6000601f19601f8301169050919050565b7f4e487b7100000000000000000000000000000000000000000000000000000000600052604160045260246000fd5b610c1d82610bd4565b810181811067ffffffffffffffff82111715610c3c57610c3b610be5565b5b80604052505050565b6000610c4f610bbb565b9050610c5b8282610c14565b919050565b600080fd5b6000610c7082610b21565b9050919050565b610c8081610c65565b8114610c8b57600080fd5b50565b600081359050610c9d81610c77565b92915050565b600062ffffff82169050919050565b610cbb81610ca3565b8114610cc657600080fd5b50565b600081359050610cd881610cb2565b92915050565b60008160020b9050919050565b610cf481610cde565b8114610cff57600080fd5b50565b600081359050610d1181610ceb565b92915050565b6000610d2282610c65565b9050919050565b610d3281610d17565b8114610d3d57600080fd5b50565b600081359050610d4f81610d29565b92915050565b600060a08284031215610d6b57610d6a610bcf565b5b610d7560a0610c45565b90506000610d8584828501610c8e565b6000830152506020610d9984828501610c8e565b6020830152506040610dad84828501610cc9565b6040830152506060610dc184828501610d02565b6060830152506080610dd584828501610d40565b60808301525092915050565b6000819050919050565b610df481610de1565b8114610dff57600080fd5b50565b600081359050610e1181610deb565b92915050565b600060608284031215610e2d57610e2c610bcf565b5b610e376060610c45565b90506000610e4784828501610d02565b6000830152506020610e5b84828501610d02565b6020830152506040610e6f84828501610e02565b60408301525092915050565b600080fd5b600080fd5b600067ffffffffffffffff821115610ea057610e9f610be5565b5b610ea982610bd4565b9050602081019050919050565b82818337600083830152505050565b6000610ed8610ed384610e85565b610c45565b905082815260208101848484011115610ef457610ef3610e80565b5b610eff848285610eb6565b509392505050565b600082601f830112610f1c57610f1b610e7b565b5b8135610f2c848260208601610ec5565b91505092915050565b60008060006101208486031215610f4f57610f4e610bc5565b5b6000610f5d86828701610d55565b93505060a0610f6e86828701610e17565b92505061010084013567ffffffffffffffff811115610f9057610f8f610bca565b5b610f9c86828701610f07565b9150509250925092565b6000610fc1610fbc610fb784610de1565b610b41565b610de1565b9050919050565b610fd181610fa6565b82525050565b6000602082019050610fec6000830184610fc8565b92915050565b600080fd5b600080fd5b60008083601f84011261101257611011610e7b565b5b8235905067ffffffffffffffff81111561102f5761102e610ff2565b5b60208301915083600182028301111561104b5761104a610ff7565b5b9250929050565b6000806020838503121561106957611068610bc5565b5b600083013567ffffffffffffffff81111561108757611086610bca565b5b61109385828601610ffc565b92509250509250929050565b600081519050919050565b600082825260208201905092915050565b60005b838110156110d95780820151818401526020810190506110be565b60008484015250505050565b60006110f08261109f565b6110fa81856110aa565b935061110a8185602086016110bb565b61111381610bd4565b840191505092915050565b6000602082019050818103600083015261113881846110e5565b905092915050565b61114981610c65565b82525050565b600061115a82610b6d565b9050919050565b61116a8161114f565b82525050565b61117981610ca3565b82525050565b61118881610cde565b82525050565b600061119982610b6d565b9050919050565b6111a98161118e565b82525050565b60a0820160008201516111c56000850182611161565b5060208201516111d86020850182611161565b5060408201516111eb6040850182611170565b5060608201516111fe606085018261117f565b50608082015161121160808501826111a0565b50505050565b61122081610de1565b82525050565b60608201600082015161123c600085018261117f565b50602082015161124f602085018261117f565b5060408201516112626040850182611217565b50505050565b600082825260208201905092915050565b60006112848261109f565b61128e8185611268565b935061129e8185602086016110bb565b6112a781610bd4565b840191505092915050565b6000610140830160008301516112cb6000860182611140565b5060208301516112de60208601826111af565b5060408301516112f160c0860182611226565b50606083015184820361012086015261130a8282611279565b9150508091505092915050565b6000602082019050818103600083015261133181846112b2565b905092915050565b600061134c61134784610e85565b610c45565b90508281526020810184848401111561136857611367610e80565b5b6113738482856110bb565b509392505050565b600082601f8301126113905761138f610e7b565b5b81516113a0848260208601611339565b91505092915050565b6000602082840312156113bf576113be610bc5565b5b600082015167ffffffffffffffff8111156113dd576113dc610bca565b5b6113e98482850161137b565b91505092915050565b6113fb81610de1565b811461140657600080fd5b50565b600081519050611418816113f2565b92915050565b60006020828403121561143457611433610bc5565b5b600061144284828501611409565b91505092915050565b61145481610c65565b811461145f57600080fd5b50565b6000813590506114718161144b565b92915050565b6000610140828403121561148e5761148d610bcf565b5b6114986080610c45565b905060006114a884828501611462565b60008301525060206114bc84828501610d55565b60208301525060c06114d084828501610e17565b60408301525061012082013567ffffffffffffffff8111156114f5576114f4610c60565b5b61150184828501610f07565b60608301525092915050565b60006020828403121561152357611522610bc5565b5b600082013567ffffffffffffffff81111561154157611540610bca565b5b61154d84828501611477565b91505092915050565b60a08201600082015161156c6000850182611161565b50602082015161157f6020850182611161565b5060408201516115926040850182611170565b5060608201516115a5606085018261117f565b5060808201516115b860808501826111a0565b50505050565b6060820160008201516115d4600085018261117f565b5060208201516115e7602085018261117f565b5060408201516115fa6040850182611217565b50505050565b6000610120820190506116166000830186611556565b61162360a08301856115be565b81810361010083015261163681846110e5565b9050949350505050565b6116498161114f565b82525050565b60006020820190506116646000830184611640565b92915050565b6000819050919050565b61167d8161166a565b811461168857600080fd5b50565b60008151905061169a81611674565b92915050565b6000602082840312156116b6576116b5610bc5565b5b60006116c48482850161168b565b91505092915050565b6116d681610c65565b82525050565b60006fffffffffffffffffffffffffffffffff82169050919050565b600061171361170e611709846116dc565b610b41565b61166a565b9050919050565b611723816116f8565b82525050565b600060608201905061173e60008301866116cd565b61174b60208301856116cd565b611758604083018461171a565b949350505050565b60008115159050919050565b61177581611760565b811461178057600080fd5b50565b6000815190506117928161176c565b92915050565b6000602082840312156117ae576117ad610bc5565b5b60006117bc84828501611783565b91505092915050565b600081600f0b9050919050565b7f4e487b7100000000000000000000000000000000000000000000000000000000600052601160045260246000fd5b600061180c826117c5565b91507fffffffffffffffffffffffffffffffff80000000000000000000000000000000820361183e5761183d6117d2565b5b816000039050919050565b600060608201905061185e6000830186611640565b61186b60208301856116cd565b611878604083018461171a565b94935050505056fea26469706673582212204fef2a29fbe2af0a70bdb386e4bf3b0eb9155b108748637e1109fc604fa034dd64736f6c6343000815003360a06040523480156200001157600080fd5b5060405162001f8c38038062001f8c8339818101604052810190620000379190620000f0565b8073ffffffffffffffffffffffffffffffffffffffff1660808173ffffffffffffffffffffffffffffffffffffffff16815250505062000122565b600080fd5b600073ffffffffffffffffffffffffffffffffffffffff82169050919050565b6000620000a48262000077565b9050919050565b6000620000b88262000097565b9050919050565b620000ca81620000ab565b8114620000d657600080fd5b50565b600081519050620000ea81620000bf565b92915050565b60006020828403121562000109576200010862000072565b5b60006200011984828501620000d9565b91505092915050565b608051611dd8620001b46000396000818160d50152818161022a01528181610250015281816102bd015281816103c7015281816104b501528181610541015281816105ec0152818161062d015281816106eb0152818161079c0152818161089d0152818161098b01528181610a1701528181610ac201528181610b0301528181610bc10152610c720152611dd86000f3fe6080604052600436106100345760003560e01c80632229d0b414610039578063481c6a7514610069578063ab6291fe14610094575b600080fd5b610053600480360381019061004e91906112e8565b6100d1565b60405161006091906113a9565b60405180910390f35b34801561007557600080fd5b5061007e610228565b60405161008b9190611419565b60405180910390f35b3480156100a057600080fd5b506100bb60048036038101906100b69190611494565b61024c565b6040516100c89190611560565b60405180910390f35b60007f000000000000000000000000000000000000000000000000000000000000000073ffffffffffffffffffffffffffffffffffffffff1663815483196040518060a001604052803373ffffffffffffffffffffffffffffffffffffffff1681526020018681526020018881526020018781526020018581525060405160200161015c91906117ba565b6040516020818303038152906040526040518263ffffffff1660e01b81526004016101879190611560565b6000604051808303816000875af11580156101a6573d6000803e3d6000fd5b505050506040513d6000823e3d601f19601f820116820180604052508101906101cf919061184c565b8060200190518101906101e291906118c1565b90506000479050600081111561021f5761021e3382600073ffffffffffffffffffffffffffffffffffffffff16610d499092919063ffffffff16565b5b50949350505050565b7f000000000000000000000000000000000000000000000000000000000000000081565b60607f000000000000000000000000000000000000000000000000000000000000000073ffffffffffffffffffffffffffffffffffffffff163373ffffffffffffffffffffffffffffffffffffffff16146102a657600080fd5b600083838101906102b791906119c5565b905060007f000000000000000000000000000000000000000000000000000000000000000073ffffffffffffffffffffffffffffffffffffffff1663f3cd914c8360400151846060015185608001516040518463ffffffff1660e01b815260040161032493929190611ab8565b6020604051808303816000875af1158015610343573d6000803e3d6000fd5b505050506040513d601f19601f8201168201806040525081019061036791906118c1565b90508160600151600001511561084d57600061038282610e4b565b600f0b13156106c757816020015160200151156105ea576103c082604001516000015173ffffffffffffffffffffffffffffffffffffffff16610e58565b1561048a577f000000000000000000000000000000000000000000000000000000000000000073ffffffffffffffffffffffffffffffffffffffff16636a256b2961040a83610e4b565b6fffffffffffffffffffffffffffffffff168460400151600001516040518363ffffffff1660e01b81526004016104419190611b07565b60206040518083038185885af115801561045f573d6000803e3d6000fd5b50505050506040513d601f19601f820116820180604052508101906104849190611b58565b506105e5565b81604001516000015173ffffffffffffffffffffffffffffffffffffffff166323b872dd83600001517f00000000000000000000000000000000000000000000000000000000000000006104dd85610e4b565b6040518463ffffffff1660e01b81526004016104fb93929190611be1565b6020604051808303816000875af115801561051a573d6000803e3d6000fd5b505050506040513d601f19601f8201168201806040525081019061053e9190611c2d565b507f000000000000000000000000000000000000000000000000000000000000000073ffffffffffffffffffffffffffffffffffffffff16636a256b298360400151600001516040518263ffffffff1660e01b81526004016105a09190611b07565b6020604051808303816000875af11580156105bf573d6000803e3d6000fd5b505050506040513d601f19601f820116820180604052508101906105e39190611b58565b505b6106c6565b7f000000000000000000000000000000000000000000000000000000000000000073ffffffffffffffffffffffffffffffffffffffff1663f242432a83600001517f000000000000000000000000000000000000000000000000000000000000000085604001516000015173ffffffffffffffffffffffffffffffffffffffff1661067486610e4b565b6040518563ffffffff1660e01b81526004016106939493929190611c8f565b600060405180830381600087803b1580156106ad57600080fd5b505af11580156106c1573d6000803e3d6000fd5b505050505b5b60006106d282610e90565b600f0b1215610848578160200151600001511561079a577f000000000000000000000000000000000000000000000000000000000000000073ffffffffffffffffffffffffffffffffffffffff16630b0d9c09836040015160200151846000015161073c85610e90565b61074590611d23565b6040518463ffffffff1660e01b815260040161076393929190611d6b565b600060405180830381600087803b15801561077d57600080fd5b505af1158015610791573d6000803e3d6000fd5b50505050610847565b7f000000000000000000000000000000000000000000000000000000000000000073ffffffffffffffffffffffffffffffffffffffff1663c6c3bbe683604001516020015184600001516107ed85610e90565b6107f690611d23565b6040518463ffffffff1660e01b815260040161081493929190611d6b565b600060405180830381600087803b15801561082e57600080fd5b505af1158015610842573d6000803e3d6000fd5b505050505b5b610d1f565b600061085882610e90565b600f0b1315610b9d5781602001516020015115610ac05761089682604001516020015173ffffffffffffffffffffffffffffffffffffffff16610e58565b15610960577f000000000000000000000000000000000000000000000000000000000000000073ffffffffffffffffffffffffffffffffffffffff16636a256b296108e083610e90565b6fffffffffffffffffffffffffffffffff168460400151602001516040518363ffffffff1660e01b81526004016109179190611b07565b60206040518083038185885af1158015610935573d6000803e3d6000fd5b50505050506040513d601f19601f8201168201806040525081019061095a9190611b58565b50610abb565b81604001516020015173ffffffffffffffffffffffffffffffffffffffff166323b872dd83600001517f00000000000000000000000000000000000000000000000000000000000000006109b385610e90565b6040518463ffffffff1660e01b81526004016109d193929190611be1565b6020604051808303816000875af11580156109f0573d6000803e3d6000fd5b505050506040513d601f19601f82011682018060405250810190610a149190611c2d565b507f000000000000000000000000000000000000000000000000000000000000000073ffffffffffffffffffffffffffffffffffffffff16636a256b298360400151602001516040518263ffffffff1660e01b8152600401610a769190611b07565b6020604051808303816000875af1158015610a95573d6000803e3d6000fd5b505050506040513d601f19601f82011682018060405250810190610ab99190611b58565b505b610b9c565b7f000000000000000000000000000000000000000000000000000000000000000073ffffffffffffffffffffffffffffffffffffffff1663f242432a83600001517f000000000000000000000000000000000000000000000000000000000000000085604001516020015173ffffffffffffffffffffffffffffffffffffffff16610b4a86610e90565b6040518563ffffffff1660e01b8152600401610b699493929190611c8f565b600060405180830381600087803b158015610b8357600080fd5b505af1158015610b97573d6000803e3d6000fd5b505050505b5b6000610ba882610e4b565b600f0b1215610d1e5781602001516000015115610c70577f000000000000000000000000000000000000000000000000000000000000000073ffffffffffffffffffffffffffffffffffffffff16630b0d9c098360400151600001518460000151610c1285610e4b565b610c1b90611d23565b6040518463ffffffff1660e01b8152600401610c3993929190611d6b565b600060405180830381600087803b158015610c5357600080fd5b505af1158015610c67573d6000803e3d6000fd5b50505050610d1d565b7f000000000000000000000000000000000000000000000000000000000000000073ffffffffffffffffffffffffffffffffffffffff1663c6c3bbe68360400151600001518460000151610cc385610e4b565b610ccc90611d23565b6040518463ffffffff1660e01b8152600401610cea93929190611d6b565b600060405180830381600087803b158015610d0457600080fd5b505af1158015610d18573d6000803e3d6000fd5b505050505b5b5b80604051602001610d3091906113a9565b6040516020818303038152906040529250505092915050565b6000610d6a8473ffffffffffffffffffffffffffffffffffffffff16610e58565b15610db75760008060008085875af1905080610db2576040517ff4b3b1bc00000000000000000000000000000000000000000000000000000000815260040160405180910390fd5b610e45565b6040517fa9059cbb000000000000000000000000000000000000000000000000000000006000528360045282602452602060006044600080895af13d15601f3d1160016000511416171691506000606052806040525080610e44576040517ff27f64e400000000000000000000000000000000000000000000000000000000815260040160405180910390fd5b5b50505050565b60008160801c9050919050565b60008073ffffffffffffffffffffffffffffffffffffffff168273ffffffffffffffffffffffffffffffffffffffff16149050919050565b6000819050919050565b6000604051905090565b600080fd5b600080fd5b600080fd5b6000601f19601f8301169050919050565b7f4e487b7100000000000000000000000000000000000000000000000000000000600052604160045260246000fd5b610efc82610eb3565b810181811067ffffffffffffffff82111715610f1b57610f1a610ec4565b5b80604052505050565b6000610f2e610e9a565b9050610f3a8282610ef3565b919050565b600080fd5b600073ffffffffffffffffffffffffffffffffffffffff82169050919050565b6000610f6f82610f44565b9050919050565b610f7f81610f64565b8114610f8a57600080fd5b50565b600081359050610f9c81610f76565b92915050565b600062ffffff82169050919050565b610fba81610fa2565b8114610fc557600080fd5b50565b600081359050610fd781610fb1565b92915050565b60008160020b9050919050565b610ff381610fdd565b8114610ffe57600080fd5b50565b60008135905061101081610fea565b92915050565b600061102182610f64565b9050919050565b61103181611016565b811461103c57600080fd5b50565b60008135905061104e81611028565b92915050565b600060a0828403121561106a57611069610eae565b5b61107460a0610f24565b9050600061108484828501610f8d565b600083015250602061109884828501610f8d565b60208301525060406110ac84828501610fc8565b60408301525060606110c084828501611001565b60608301525060806110d48482850161103f565b60808301525092915050565b60008115159050919050565b6110f5816110e0565b811461110057600080fd5b50565b600081359050611112816110ec565b92915050565b6000819050919050565b61112b81611118565b811461113657600080fd5b50565b60008135905061114881611122565b92915050565b61115781610f44565b811461116257600080fd5b50565b6000813590506111748161114e565b92915050565b6000606082840312156111905761118f610eae565b5b61119a6060610f24565b905060006111aa84828501611103565b60008301525060206111be84828501611139565b60208301525060406111d284828501611165565b60408301525092915050565b6000604082840312156111f4576111f3610eae565b5b6111fe6040610f24565b9050600061120e84828501611103565b600083015250602061122284828501611103565b60208301525092915050565b600080fd5b600080fd5b600067ffffffffffffffff82111561125357611252610ec4565b5b61125c82610eb3565b9050602081019050919050565b82818337600083830152505050565b600061128b61128684611238565b610f24565b9050828152602081018484840111156112a7576112a6611233565b5b6112b2848285611269565b509392505050565b600082601f8301126112cf576112ce61122e565b5b81356112df848260208601611278565b91505092915050565b600080600080610160858703121561130357611302610ea4565b5b600061131187828801611054565b94505060a06113228782880161117a565b935050610100611334878288016111de565b92505061014085013567ffffffffffffffff81111561135657611355610ea9565b5b611362878288016112ba565b91505092959194509250565b6000819050919050565b600061139361138e61138984611118565b61136e565b611118565b9050919050565b6113a381611378565b82525050565b60006020820190506113be600083018461139a565b92915050565b60006113df6113da6113d584610f44565b61136e565b610f44565b9050919050565b60006113f1826113c4565b9050919050565b6000611403826113e6565b9050919050565b611413816113f8565b82525050565b600060208201905061142e600083018461140a565b92915050565b600080fd5b600080fd5b60008083601f8401126114545761145361122e565b5b8235905067ffffffffffffffff81111561147157611470611434565b5b60208301915083600182028301111561148d5761148c611439565b5b9250929050565b600080602083850312156114ab576114aa610ea4565b5b600083013567ffffffffffffffff8111156114c9576114c8610ea9565b5b6114d58582860161143e565b92509250509250929050565b600081519050919050565b600082825260208201905092915050565b60005b8381101561151b578082015181840152602081019050611500565b60008484015250505050565b6000611532826114e1565b61153c81856114ec565b935061154c8185602086016114fd565b61155581610eb3565b840191505092915050565b6000602082019050818103600083015261157a8184611527565b905092915050565b61158b81610f64565b82525050565b61159a816110e0565b82525050565b6040820160008201516115b66000850182611591565b5060208201516115c96020850182611591565b50505050565b60006115da826113e6565b9050919050565b6115ea816115cf565b82525050565b6115f981610fa2565b82525050565b61160881610fdd565b82525050565b6000611619826113e6565b9050919050565b6116298161160e565b82525050565b60a08201600082015161164560008501826115e1565b50602082015161165860208501826115e1565b50604082015161166b60408501826115f0565b50606082015161167e60608501826115ff565b5060808201516116916080850182611620565b50505050565b6116a081611118565b82525050565b6116af81610f44565b82525050565b6060820160008201516116cb6000850182611591565b5060208201516116de6020850182611697565b5060408201516116f160408501826116a6565b50505050565b600082825260208201905092915050565b6000611713826114e1565b61171d81856116f7565b935061172d8185602086016114fd565b61173681610eb3565b840191505092915050565b60006101808301600083015161175a6000860182611582565b50602083015161176d60208601826115a0565b506040830151611780606086018261162f565b5060608301516117946101008601826116b5565b5060808301518482036101608601526117ad8282611708565b9150508091505092915050565b600060208201905081810360008301526117d48184611741565b905092915050565b60006117ef6117ea84611238565b610f24565b90508281526020810184848401111561180b5761180a611233565b5b6118168482856114fd565b509392505050565b600082601f8301126118335761183261122e565b5b81516118438482602086016117dc565b91505092915050565b60006020828403121561186257611861610ea4565b5b600082015167ffffffffffffffff8111156118805761187f610ea9565b5b61188c8482850161181e565b91505092915050565b61189e81611118565b81146118a957600080fd5b50565b6000815190506118bb81611895565b92915050565b6000602082840312156118d7576118d6610ea4565b5b60006118e5848285016118ac565b91505092915050565b6118f781610f64565b811461190257600080fd5b50565b600081359050611914816118ee565b92915050565b6000610180828403121561193157611930610eae565b5b61193b60a0610f24565b9050600061194b84828501611905565b600083015250602061195f848285016111de565b602083015250606061197384828501611054565b6040830152506101006119888482850161117a565b60608301525061016082013567ffffffffffffffff8111156119ad576119ac610f3f565b5b6119b9848285016112ba565b60808301525092915050565b6000602082840312156119db576119da610ea4565b5b600082013567ffffffffffffffff8111156119f9576119f8610ea9565b5b611a058482850161191a565b91505092915050565b60a082016000820151611a2460008501826115e1565b506020820151611a3760208501826115e1565b506040820151611a4a60408501826115f0565b506060820151611a5d60608501826115ff565b506080820151611a706080850182611620565b50505050565b606082016000820151611a8c6000850182611591565b506020820151611a9f6020850182611697565b506040820151611ab260408501826116a6565b50505050565b600061012082019050611ace6000830186611a0e565b611adb60a0830185611a76565b818103610100830152611aee8184611527565b9050949350505050565b611b01816115cf565b82525050565b6000602082019050611b1c6000830184611af8565b92915050565b6000819050919050565b611b3581611b22565b8114611b4057600080fd5b50565b600081519050611b5281611b2c565b92915050565b600060208284031215611b6e57611b6d610ea4565b5b6000611b7c84828501611b43565b91505092915050565b611b8e81610f64565b82525050565b60006fffffffffffffffffffffffffffffffff82169050919050565b6000611bcb611bc6611bc184611b94565b61136e565b611b22565b9050919050565b611bdb81611bb0565b82525050565b6000606082019050611bf66000830186611b85565b611c036020830185611b85565b611c106040830184611bd2565b949350505050565b600081519050611c27816110ec565b92915050565b600060208284031215611c4357611c42610ea4565b5b6000611c5184828501611c18565b91505092915050565b611c6381611b22565b82525050565b50565b6000611c796000836114ec565b9150611c8482611c69565b600082019050919050565b600060a082019050611ca46000830187611b85565b611cb16020830186611b85565b611cbe6040830185611c5a565b611ccb6060830184611bd2565b8181036080830152611cdc81611c6c565b905095945050505050565b600081600f0b9050919050565b7f4e487b7100000000000000000000000000000000000000000000000000000000600052601160045260246000fd5b6000611d2e82611ce7565b91507fffffffffffffffffffffffffffffffff800000000000000000000000000000008203611d6057611d5f611cf4565b5b816000039050919050565b6000606082019050611d806000830186611af8565b611d8d6020830185611b85565b611d9a6040830184611bd2565b94935050505056fea26469706673582212200ef6927d69207870b231186081e99973ce64a370df5d1e9284d593b948d94b5464736f6c63430008150033a2646970667358221220be84b026c44da145ff25b24c36abfe0b4259b8bf8dfcda3ebe93444bb838a3fa64736f6c63430008150033",
  "linkReferences": {
    "test/LIMIT_ORDER/Remix/utils/HookMiner.sol": {
      "HookMiner": [
        {
          "length": 20,
          "start": 1143
        }
      ]
    }
  },
  "deployedLinkReferences": {
    "test/LIMIT_ORDER/Remix/utils/HookMiner.sol": {
      "HookMiner": [
        {
          "length": 20,
          "start": 844
        }
      ]
    }
  }
}