{
  "_format": "hh-sol-artifact-1",
  "contractName": "TestERC20",
  "sourceName": "lib/v4-periphery/lib/v4-core/contracts/test/TestERC20.sol",
  "abi": [
    {
      "inputs": [
        {
          "internalType": "uint256",
          "name": "amountToMint",
          "type": "uint256"
        }
      ],
      "stateMutability": "nonpayable",
      "type": "constructor"
    },
    {
      "anonymous": false,
      "inputs": [
        {
          "indexed": true,
          "internalType": "address",
          "name": "owner",
          "type": "address"
        },
        {
          "indexed": true,
          "internalType": "address",
          "name": "spender",
          "type": "address"
        },
        {
          "indexed": false,
          "internalType": "uint256",
          "name": "value",
          "type": "uint256"
        }
      ],
      "name": "Approval",
      "type": "event"
    },
    {
      "anonymous": false,
      "inputs": [
        {
          "indexed": true,
          "internalType": "address",
          "name": "from",
          "type": "address"
        },
        {
          "indexed": true,
          "internalType": "address",
          "name": "to",
          "type": "address"
        },
        {
          "indexed": false,
          "internalType": "uint256",
          "name": "value",
          "type": "uint256"
        }
      ],
      "name": "Transfer",
      "type": "event"
    },
    {
      "inputs": [
        {
          "internalType": "address",
          "name": "",
          "type": "address"
        },
        {
          "internalType": "address",
          "name": "",
          "type": "address"
        }
      ],
      "name": "allowance",
      "outputs": [
        {
          "internalType": "uint256",
          "name": "",
          "type": "uint256"
        }
      ],
      "stateMutability": "view",
      "type": "function"
    },
    {
      "inputs": [
        {
          "internalType": "address",
          "name": "spender",
          "type": "address"
        },
        {
          "internalType": "uint256",
          "name": "amount",
          "type": "uint256"
        }
      ],
      "name": "approve",
      "outputs": [
        {
          "internalType": "bool",
          "name": "",
          "type": "bool"
        }
      ],
      "stateMutability": "nonpayable",
      "type": "function"
    },
    {
      "inputs": [
        {
          "internalType": "address",
          "name": "",
          "type": "address"
        }
      ],
      "name": "balanceOf",
      "outputs": [
        {
          "internalType": "uint256",
          "name": "",
          "type": "uint256"
        }
      ],
      "stateMutability": "view",
      "type": "function"
    },
    {
      "inputs": [
        {
          "internalType": "address",
          "name": "to",
          "type": "address"
        },
        {
          "internalType": "uint256",
          "name": "amount",
          "type": "uint256"
        }
      ],
      "name": "mint",
      "outputs": [],
      "stateMutability": "nonpayable",
      "type": "function"
    },
    {
      "inputs": [
        {
          "internalType": "address",
          "name": "recipient",
          "type": "address"
        },
        {
          "internalType": "uint256",
          "name": "amount",
          "type": "uint256"
        }
      ],
      "name": "transfer",
      "outputs": [
        {
          "internalType": "bool",
          "name": "",
          "type": "bool"
        }
      ],
      "stateMutability": "nonpayable",
      "type": "function"
    },
    {
      "inputs": [
        {
          "internalType": "address",
          "name": "sender",
          "type": "address"
        },
        {
          "internalType": "address",
          "name": "recipient",
          "type": "address"
        },
        {
          "internalType": "uint256",
          "name": "amount",
          "type": "uint256"
        }
      ],
      "name": "transferFrom",
      "outputs": [
        {
          "internalType": "bool",
          "name": "",
          "type": "bool"
        }
      ],
      "stateMutability": "nonpayable",
      "type": "function"
    }
  ],
  "bytecode": "0x60806040523480156200001157600080fd5b50604051620011133803806200111383398181016040528101906200003791906200016e565b6200004933826200005060201b60201c565b506200028d565b6000816000808573ffffffffffffffffffffffffffffffffffffffff1673ffffffffffffffffffffffffffffffffffffffff168152602001908152602001600020546200009e9190620001cf565b905081811015620000e6576040517f08c379a0000000000000000000000000000000000000000000000000000000008152600401620000dd906200026b565b60405180910390fd5b806000808573ffffffffffffffffffffffffffffffffffffffff1673ffffffffffffffffffffffffffffffffffffffff16815260200190815260200160002081905550505050565b600080fd5b6000819050919050565b620001488162000133565b81146200015457600080fd5b50565b60008151905062000168816200013d565b92915050565b6000602082840312156200018757620001866200012e565b5b6000620001978482850162000157565b91505092915050565b7f4e487b7100000000000000000000000000000000000000000000000000000000600052601160045260246000fd5b6000620001dc8262000133565b9150620001e98362000133565b9250828201905080821115620002045762000203620001a0565b5b92915050565b600082825260208201905092915050565b7f6f766572666c6f772062616c616e636500000000000000000000000000000000600082015250565b6000620002536010836200020a565b915062000260826200021b565b602082019050919050565b60006020820190508181036000830152620002868162000244565b9050919050565b610e76806200029d6000396000f3fe608060405234801561001057600080fd5b50600436106100625760003560e01c8063095ea7b31461006757806323b872dd1461009757806340c10f19146100c757806370a08231146100e3578063a9059cbb14610113578063dd62ed3e14610143575b600080fd5b610081600480360381019061007c91906109b0565b610173565b60405161008e9190610a0b565b60405180910390f35b6100b160048036038101906100ac9190610a26565b610265565b6040516100be9190610a0b565b60405180910390f35b6100e160048036038101906100dc91906109b0565b6105dc565b005b6100fd60048036038101906100f89190610a79565b6106b5565b60405161010a9190610ab5565b60405180910390f35b61012d600480360381019061012891906109b0565b6106cd565b60405161013a9190610a0b565b60405180910390f35b61015d60048036038101906101589190610ad0565b6108f2565b60405161016a9190610ab5565b60405180910390f35b600081600160003373ffffffffffffffffffffffffffffffffffffffff1673ffffffffffffffffffffffffffffffffffffffff16815260200190815260200160002060008573ffffffffffffffffffffffffffffffffffffffff1673ffffffffffffffffffffffffffffffffffffffff168152602001908152602001600020819055508273ffffffffffffffffffffffffffffffffffffffff163373ffffffffffffffffffffffffffffffffffffffff167f8c5be1e5ebec7d5bd14f71427d1e84f3dd0314c0f7b2291e5b200ac8c7c3b925846040516102539190610ab5565b60405180910390a36001905092915050565b600080600160008673ffffffffffffffffffffffffffffffffffffffff1673ffffffffffffffffffffffffffffffffffffffff16815260200190815260200160002060003373ffffffffffffffffffffffffffffffffffffffff1673ffffffffffffffffffffffffffffffffffffffff1681526020019081526020016000205490508281101561032a576040517f08c379a000000000000000000000000000000000000000000000000000000000815260040161032190610b6d565b60405180910390fd5b82816103369190610bbc565b600160008773ffffffffffffffffffffffffffffffffffffffff1673ffffffffffffffffffffffffffffffffffffffff16815260200190815260200160002060003373ffffffffffffffffffffffffffffffffffffffff1673ffffffffffffffffffffffffffffffffffffffff1681526020019081526020016000208190555060008060008673ffffffffffffffffffffffffffffffffffffffff1673ffffffffffffffffffffffffffffffffffffffff1681526020019081526020016000205490508084826104069190610bf0565b1015610447576040517f08c379a000000000000000000000000000000000000000000000000000000000815260040161043e90610c70565b60405180910390fd5b83816104539190610bf0565b6000808773ffffffffffffffffffffffffffffffffffffffff1673ffffffffffffffffffffffffffffffffffffffff1681526020019081526020016000208190555060008060008873ffffffffffffffffffffffffffffffffffffffff1673ffffffffffffffffffffffffffffffffffffffff1681526020019081526020016000205490508481101561051b576040517f08c379a000000000000000000000000000000000000000000000000000000000815260040161051290610cdc565b60405180910390fd5b84816105279190610bbc565b6000808973ffffffffffffffffffffffffffffffffffffffff1673ffffffffffffffffffffffffffffffffffffffff168152602001908152602001600020819055508573ffffffffffffffffffffffffffffffffffffffff168773ffffffffffffffffffffffffffffffffffffffff167fddf252ad1be2c89b69c2b068fc378daa952ba7f163c4a11628f55a4df523b3ef876040516105c69190610ab5565b60405180910390a3600193505050509392505050565b6000816000808573ffffffffffffffffffffffffffffffffffffffff1673ffffffffffffffffffffffffffffffffffffffff168152602001908152602001600020546106289190610bf0565b90508181101561066d576040517f08c379a000000000000000000000000000000000000000000000000000000000815260040161066490610d48565b60405180910390fd5b806000808573ffffffffffffffffffffffffffffffffffffffff1673ffffffffffffffffffffffffffffffffffffffff16815260200190815260200160002081905550505050565b60006020528060005260406000206000915090505481565b6000806000803373ffffffffffffffffffffffffffffffffffffffff1673ffffffffffffffffffffffffffffffffffffffff16815260200190815260200160002054905082811015610754576040517f08c379a000000000000000000000000000000000000000000000000000000000815260040161074b90610db4565b60405180910390fd5b82816107609190610bbc565b6000803373ffffffffffffffffffffffffffffffffffffffff1673ffffffffffffffffffffffffffffffffffffffff1681526020019081526020016000208190555060008060008673ffffffffffffffffffffffffffffffffffffffff1673ffffffffffffffffffffffffffffffffffffffff1681526020019081526020016000205490508084826107f29190610bf0565b1015610833576040517f08c379a000000000000000000000000000000000000000000000000000000000815260040161082a90610e20565b60405180910390fd5b838161083f9190610bf0565b6000808773ffffffffffffffffffffffffffffffffffffffff1673ffffffffffffffffffffffffffffffffffffffff168152602001908152602001600020819055508473ffffffffffffffffffffffffffffffffffffffff163373ffffffffffffffffffffffffffffffffffffffff167fddf252ad1be2c89b69c2b068fc378daa952ba7f163c4a11628f55a4df523b3ef866040516108de9190610ab5565b60405180910390a360019250505092915050565b6001602052816000526040600020602052806000526040600020600091509150505481565b600080fd5b600073ffffffffffffffffffffffffffffffffffffffff82169050919050565b60006109478261091c565b9050919050565b6109578161093c565b811461096257600080fd5b50565b6000813590506109748161094e565b92915050565b6000819050919050565b61098d8161097a565b811461099857600080fd5b50565b6000813590506109aa81610984565b92915050565b600080604083850312156109c7576109c6610917565b5b60006109d585828601610965565b92505060206109e68582860161099b565b9150509250929050565b60008115159050919050565b610a05816109f0565b82525050565b6000602082019050610a2060008301846109fc565b92915050565b600080600060608486031215610a3f57610a3e610917565b5b6000610a4d86828701610965565b9350506020610a5e86828701610965565b9250506040610a6f8682870161099b565b9150509250925092565b600060208284031215610a8f57610a8e610917565b5b6000610a9d84828501610965565b91505092915050565b610aaf8161097a565b82525050565b6000602082019050610aca6000830184610aa6565b92915050565b60008060408385031215610ae757610ae6610917565b5b6000610af585828601610965565b9250506020610b0685828601610965565b9150509250929050565b600082825260208201905092915050565b7f616c6c6f77616e636520696e73756666696369656e7400000000000000000000600082015250565b6000610b57601683610b10565b9150610b6282610b21565b602082019050919050565b60006020820190508181036000830152610b8681610b4a565b9050919050565b7f4e487b7100000000000000000000000000000000000000000000000000000000600052601160045260246000fd5b6000610bc78261097a565b9150610bd28361097a565b9250828203905081811115610bea57610be9610b8d565b5b92915050565b6000610bfb8261097a565b9150610c068361097a565b9250828201905080821115610c1e57610c1d610b8d565b5b92915050565b7f6f766572666c6f772062616c616e636520726563697069656e74000000000000600082015250565b6000610c5a601a83610b10565b9150610c6582610c24565b602082019050919050565b60006020820190508181036000830152610c8981610c4d565b9050919050565b7f756e646572666c6f772062616c616e63652073656e6465720000000000000000600082015250565b6000610cc6601883610b10565b9150610cd182610c90565b602082019050919050565b60006020820190508181036000830152610cf581610cb9565b9050919050565b7f6f766572666c6f772062616c616e636500000000000000000000000000000000600082015250565b6000610d32601083610b10565b9150610d3d82610cfc565b602082019050919050565b60006020820190508181036000830152610d6181610d25565b9050919050565b7f696e73756666696369656e742062616c616e6365000000000000000000000000600082015250565b6000610d9e601483610b10565b9150610da982610d68565b602082019050919050565b60006020820190508181036000830152610dcd81610d91565b9050919050565b7f726563697069656e742062616c616e6365206f766572666c6f77000000000000600082015250565b6000610e0a601a83610b10565b9150610e1582610dd4565b602082019050919050565b60006020820190508181036000830152610e3981610dfd565b905091905056fea2646970667358221220c731387a168de6536ed59a82290d4fda6fd7a4fc9758321ec716af8caf5974b764736f6c63430008150033",
  "linkReferences": {},
  "deployedLinkReferences": {}
}