{
  "_format": "hh-sol-artifact-1",
  "contractName": "CurrencyLibrary",
  "sourceName": "lib/periphery-next/lib/v4-core/contracts/types/Currency.sol",
  "abi": [
    {
      "inputs": [],
      "name": "ERC20TransferFailed",
      "type": "error"
    },
    {
      "inputs": [],
      "name": "NativeTransferFailed",
      "type": "error"
    },
    {
      "inputs": [],
      "name": "NATIVE",
      "outputs": [
        {
          "internalType": "Currency",
          "name": "",
          "type": "address"
        }
      ],
      "stateMutability": "view",
      "type": "function"
    }
  ],
  "bytecode": "0x610119610053600b82828239805160001a607314610046577f4e487b7100000000000000000000000000000000000000000000000000000000600052600060045260246000fd5b30600052607381538281f3fe730000000000000000000000000000000000000000301460806040526004361060335760003560e01c8063a0cf0aea146038575b600080fd5b603e6052565b6040516049919060ca565b60405180910390f35b600081565b600073ffffffffffffffffffffffffffffffffffffffff82169050919050565b6000819050919050565b600060966092608e846057565b6077565b6057565b9050919050565b600060a6826081565b9050919050565b600060b682609d565b9050919050565b60c48160ad565b82525050565b600060208201905060dd600083018460bd565b9291505056fea2646970667358221220b280a01aac567d9f05880294bf06eeb761209c55c18bd55946606044d336312464736f6c63430008150033",
  "linkReferences": {},
  "deployedLinkReferences": {}
}