{
  "_format": "hh-sol-artifact-1",
  "contractName": "Constants",
  "sourceName": "lib/v4-periphery/lib/v4-core/test/foundry-tests/utils/Constants.sol",
  "abi": [
    {
      "inputs": [],
      "name": "SQRT_RATIO_121_100",
      "outputs": [
        {
          "internalType": "uint160",
          "name": "",
          "type": "uint160"
        }
      ],
      "stateMutability": "view",
      "type": "function"
    },
    {
      "inputs": [],
      "name": "SQRT_RATIO_1_1",
      "outputs": [
        {
          "internalType": "uint160",
          "name": "",
          "type": "uint160"
        }
      ],
      "stateMutability": "view",
      "type": "function"
    },
    {
      "inputs": [],
      "name": "SQRT_RATIO_1_2",
      "outputs": [
        {
          "internalType": "uint160",
          "name": "",
          "type": "uint160"
        }
      ],
      "stateMutability": "view",
      "type": "function"
    },
    {
      "inputs": [],
      "name": "SQRT_RATIO_1_4",
      "outputs": [
        {
          "internalType": "uint160",
          "name": "",
          "type": "uint160"
        }
      ],
      "stateMutability": "view",
      "type": "function"
    },
    {
      "inputs": [],
      "name": "SQRT_RATIO_2_1",
      "outputs": [
        {
          "internalType": "uint160",
          "name": "",
          "type": "uint160"
        }
      ],
      "stateMutability": "view",
      "type": "function"
    },
    {
      "inputs": [],
      "name": "SQRT_RATIO_4_1",
      "outputs": [
        {
          "internalType": "uint160",
          "name": "",
          "type": "uint160"
        }
      ],
      "stateMutability": "view",
      "type": "function"
    }
  ],
  "bytecode": "0x610209610053600b82828239805160001a607314610046577f4e487b7100000000000000000000000000000000000000000000000000000000600052600060045260246000fd5b30600052607381538281f3fe730000000000000000000000000000000000000000301460806040526004361061006c5760003560e01c80630b84e81c1461007157806377267b1e1461008f578063d1b7d611146100ad578063d6d2a04b146100cb578063dd431c4b146100e9578063e239ea4214610107575b600080fd5b610079610125565b60405161008691906101b8565b60405180910390f35b610097610135565b6040516100a491906101b8565b60405180910390f35b6100b5610146565b6040516100c291906101b8565b60405180910390f35b6100d3610156565b6040516100e091906101b8565b60405180910390f35b6100f1610167565b6040516100fe91906101b8565b60405180910390f35b61010f610178565b60405161011c91906101b8565b60405180910390f35b6bb504f333f9de6484597d89b381565b6c0100000000000000000000000081565b6b80000000000000000000000081565b6c016a09e667f3bcc908b2fb136681565b6c0200000000000000000000000081565b6c0119999999999999999999999981565b600073ffffffffffffffffffffffffffffffffffffffff82169050919050565b6101b281610189565b82525050565b60006020820190506101cd60008301846101a9565b9291505056fea26469706673582212205c589685dc4495ef11830d2358d505d61db7796e1869327c3f3ea0fa3866acfc64736f6c63430008150033",
  "linkReferences": {},
  "deployedLinkReferences": {}
}