{
  "_format": "hh-sol-artifact-1",
  "contractName": "Hedge",
  "sourceName": "src/HEDGE/Hedge.sol",
  "abi": [
    {
      "inputs": [
        {
          "internalType": "contract IPoolManager",
          "name": "_poolManager",
          "type": "address"
        }
      ],
      "stateMutability": "nonpayable",
      "type": "constructor"
    },
    {
      "inputs": [
        {
          "internalType": "address",
          "name": "hooks",
          "type": "address"
        }
      ],
      "name": "HookAddressNotValid",
      "type": "error"
    },
    {
      "inputs": [],
      "name": "HookNotImplemented",
      "type": "error"
    },
    {
      "inputs": [],
      "name": "InvalidPool",
      "type": "error"
    },
    {
      "inputs": [],
      "name": "LockFailure",
      "type": "error"
    },
    {
      "inputs": [],
      "name": "NotPoolManager",
      "type": "error"
    },
    {
      "inputs": [],
      "name": "NotSelf",
      "type": "error"
    },
    {
      "anonymous": false,
      "inputs": [
        {
          "indexed": false,
          "internalType": "address",
          "name": "sender",
          "type": "address"
        },
        {
          "indexed": false,
          "internalType": "Currency",
          "name": "currency",
          "type": "address"
        }
      ],
      "name": "NewCurrencyAdded",
      "type": "event"
    },
    {
      "anonymous": false,
      "inputs": [
        {
          "indexed": false,
          "internalType": "address",
          "name": "sender",
          "type": "address"
        },
        {
          "indexed": false,
          "internalType": "Currency",
          "name": "currency",
          "type": "address"
        },
        {
          "indexed": false,
          "internalType": "uint256",
          "name": "price",
          "type": "uint256"
        }
      ],
      "name": "NewPriceAdded",
      "type": "event"
    },
    {
      "anonymous": false,
      "inputs": [
        {
          "indexed": false,
          "internalType": "address",
          "name": "sender",
          "type": "address"
        },
        {
          "indexed": false,
          "internalType": "Currency",
          "name": "currency",
          "type": "address"
        },
        {
          "indexed": false,
          "internalType": "uint256",
          "name": "price",
          "type": "uint256"
        },
        {
          "indexed": false,
          "internalType": "address",
          "name": "user",
          "type": "address"
        },
        {
          "indexed": false,
          "internalType": "bytes32",
          "name": "trigger",
          "type": "bytes32"
        }
      ],
      "name": "NewTriggerAdded",
      "type": "event"
    },
    {
      "anonymous": false,
      "inputs": [
        {
          "indexed": false,
          "internalType": "address",
          "name": "sender",
          "type": "address"
        },
        {
          "indexed": false,
          "internalType": "Currency",
          "name": "currency",
          "type": "address"
        },
        {
          "indexed": false,
          "internalType": "uint256",
          "name": "price",
          "type": "uint256"
        },
        {
          "indexed": false,
          "internalType": "address",
          "name": "user",
          "type": "address"
        }
      ],
      "name": "NewUserAdded",
      "type": "event"
    },
    {
      "inputs": [
        {
          "internalType": "address",
          "name": "",
          "type": "address"
        },
        {
          "components": [
            {
              "internalType": "Currency",
              "name": "currency0",
              "type": "address"
            },
            {
              "internalType": "Currency",
              "name": "currency1",
              "type": "address"
            },
            {
              "internalType": "uint24",
              "name": "fee",
              "type": "uint24"
            },
            {
              "internalType": "int24",
              "name": "tickSpacing",
              "type": "int24"
            },
            {
              "internalType": "contract IHooks",
              "name": "hooks",
              "type": "address"
            }
          ],
          "internalType": "struct PoolKey",
          "name": "",
          "type": "tuple"
        },
        {
          "internalType": "uint256",
          "name": "",
          "type": "uint256"
        },
        {
          "internalType": "uint256",
          "name": "",
          "type": "uint256"
        },
        {
          "internalType": "bytes",
          "name": "",
          "type": "bytes"
        }
      ],
      "name": "afterDonate",
      "outputs": [
        {
          "internalType": "bytes4",
          "name": "",
          "type": "bytes4"
        }
      ],
      "stateMutability": "nonpayable",
      "type": "function"
    },
    {
      "inputs": [
        {
          "internalType": "address",
          "name": "",
          "type": "address"
        },
        {
          "components": [
            {
              "internalType": "Currency",
              "name": "currency0",
              "type": "address"
            },
            {
              "internalType": "Currency",
              "name": "currency1",
              "type": "address"
            },
            {
              "internalType": "uint24",
              "name": "fee",
              "type": "uint24"
            },
            {
              "internalType": "int24",
              "name": "tickSpacing",
              "type": "int24"
            },
            {
              "internalType": "contract IHooks",
              "name": "hooks",
              "type": "address"
            }
          ],
          "internalType": "struct PoolKey",
          "name": "",
          "type": "tuple"
        },
        {
          "internalType": "uint160",
          "name": "",
          "type": "uint160"
        },
        {
          "internalType": "int24",
          "name": "",
          "type": "int24"
        },
        {
          "internalType": "bytes",
          "name": "",
          "type": "bytes"
        }
      ],
      "name": "afterInitialize",
      "outputs": [
        {
          "internalType": "bytes4",
          "name": "",
          "type": "bytes4"
        }
      ],
      "stateMutability": "nonpayable",
      "type": "function"
    },
    {
      "inputs": [
        {
          "internalType": "address",
          "name": "",
          "type": "address"
        },
        {
          "components": [
            {
              "internalType": "Currency",
              "name": "currency0",
              "type": "address"
            },
            {
              "internalType": "Currency",
              "name": "currency1",
              "type": "address"
            },
            {
              "internalType": "uint24",
              "name": "fee",
              "type": "uint24"
            },
            {
              "internalType": "int24",
              "name": "tickSpacing",
              "type": "int24"
            },
            {
              "internalType": "contract IHooks",
              "name": "hooks",
              "type": "address"
            }
          ],
          "internalType": "struct PoolKey",
          "name": "",
          "type": "tuple"
        },
        {
          "components": [
            {
              "internalType": "int24",
              "name": "tickLower",
              "type": "int24"
            },
            {
              "internalType": "int24",
              "name": "tickUpper",
              "type": "int24"
            },
            {
              "internalType": "int256",
              "name": "liquidityDelta",
              "type": "int256"
            }
          ],
          "internalType": "struct IPoolManager.ModifyPositionParams",
          "name": "",
          "type": "tuple"
        },
        {
          "internalType": "BalanceDelta",
          "name": "",
          "type": "int256"
        },
        {
          "internalType": "bytes",
          "name": "",
          "type": "bytes"
        }
      ],
      "name": "afterModifyPosition",
      "outputs": [
        {
          "internalType": "bytes4",
          "name": "",
          "type": "bytes4"
        }
      ],
      "stateMutability": "nonpayable",
      "type": "function"
    },
    {
      "inputs": [
        {
          "internalType": "address",
          "name": "",
          "type": "address"
        },
        {
          "components": [
            {
              "internalType": "Currency",
              "name": "currency0",
              "type": "address"
            },
            {
              "internalType": "Currency",
              "name": "currency1",
              "type": "address"
            },
            {
              "internalType": "uint24",
              "name": "fee",
              "type": "uint24"
            },
            {
              "internalType": "int24",
              "name": "tickSpacing",
              "type": "int24"
            },
            {
              "internalType": "contract IHooks",
              "name": "hooks",
              "type": "address"
            }
          ],
          "internalType": "struct PoolKey",
          "name": "key",
          "type": "tuple"
        },
        {
          "components": [
            {
              "internalType": "bool",
              "name": "zeroForOne",
              "type": "bool"
            },
            {
              "internalType": "int256",
              "name": "amountSpecified",
              "type": "int256"
            },
            {
              "internalType": "uint160",
              "name": "sqrtPriceLimitX96",
              "type": "uint160"
            }
          ],
          "internalType": "struct IPoolManager.SwapParams",
          "name": "params",
          "type": "tuple"
        },
        {
          "internalType": "BalanceDelta",
          "name": "",
          "type": "int256"
        }
      ],
      "name": "afterSwap",
      "outputs": [
        {
          "internalType": "bytes4",
          "name": "",
          "type": "bytes4"
        }
      ],
      "stateMutability": "nonpayable",
      "type": "function"
    },
    {
      "inputs": [
        {
          "internalType": "address",
          "name": "",
          "type": "address"
        },
        {
          "components": [
            {
              "internalType": "Currency",
              "name": "currency0",
              "type": "address"
            },
            {
              "internalType": "Currency",
              "name": "currency1",
              "type": "address"
            },
            {
              "internalType": "uint24",
              "name": "fee",
              "type": "uint24"
            },
            {
              "internalType": "int24",
              "name": "tickSpacing",
              "type": "int24"
            },
            {
              "internalType": "contract IHooks",
              "name": "hooks",
              "type": "address"
            }
          ],
          "internalType": "struct PoolKey",
          "name": "",
          "type": "tuple"
        },
        {
          "components": [
            {
              "internalType": "bool",
              "name": "zeroForOne",
              "type": "bool"
            },
            {
              "internalType": "int256",
              "name": "amountSpecified",
              "type": "int256"
            },
            {
              "internalType": "uint160",
              "name": "sqrtPriceLimitX96",
              "type": "uint160"
            }
          ],
          "internalType": "struct IPoolManager.SwapParams",
          "name": "",
          "type": "tuple"
        },
        {
          "internalType": "BalanceDelta",
          "name": "",
          "type": "int256"
        },
        {
          "internalType": "bytes",
          "name": "",
          "type": "bytes"
        }
      ],
      "name": "afterSwap",
      "outputs": [
        {
          "internalType": "bytes4",
          "name": "",
          "type": "bytes4"
        }
      ],
      "stateMutability": "nonpayable",
      "type": "function"
    },
    {
      "inputs": [
        {
          "internalType": "address",
          "name": "",
          "type": "address"
        },
        {
          "components": [
            {
              "internalType": "Currency",
              "name": "currency0",
              "type": "address"
            },
            {
              "internalType": "Currency",
              "name": "currency1",
              "type": "address"
            },
            {
              "internalType": "uint24",
              "name": "fee",
              "type": "uint24"
            },
            {
              "internalType": "int24",
              "name": "tickSpacing",
              "type": "int24"
            },
            {
              "internalType": "contract IHooks",
              "name": "hooks",
              "type": "address"
            }
          ],
          "internalType": "struct PoolKey",
          "name": "",
          "type": "tuple"
        },
        {
          "internalType": "uint256",
          "name": "",
          "type": "uint256"
        },
        {
          "internalType": "uint256",
          "name": "",
          "type": "uint256"
        },
        {
          "internalType": "bytes",
          "name": "",
          "type": "bytes"
        }
      ],
      "name": "beforeDonate",
      "outputs": [
        {
          "internalType": "bytes4",
          "name": "",
          "type": "bytes4"
        }
      ],
      "stateMutability": "nonpayable",
      "type": "function"
    },
    {
      "inputs": [
        {
          "internalType": "address",
          "name": "",
          "type": "address"
        },
        {
          "components": [
            {
              "internalType": "Currency",
              "name": "currency0",
              "type": "address"
            },
            {
              "internalType": "Currency",
              "name": "currency1",
              "type": "address"
            },
            {
              "internalType": "uint24",
              "name": "fee",
              "type": "uint24"
            },
            {
              "internalType": "int24",
              "name": "tickSpacing",
              "type": "int24"
            },
            {
              "internalType": "contract IHooks",
              "name": "hooks",
              "type": "address"
            }
          ],
          "internalType": "struct PoolKey",
          "name": "",
          "type": "tuple"
        },
        {
          "internalType": "uint160",
          "name": "",
          "type": "uint160"
        },
        {
          "internalType": "bytes",
          "name": "",
          "type": "bytes"
        }
      ],
      "name": "beforeInitialize",
      "outputs": [
        {
          "internalType": "bytes4",
          "name": "",
          "type": "bytes4"
        }
      ],
      "stateMutability": "nonpayable",
      "type": "function"
    },
    {
      "inputs": [
        {
          "internalType": "address",
          "name": "",
          "type": "address"
        },
        {
          "components": [
            {
              "internalType": "Currency",
              "name": "currency0",
              "type": "address"
            },
            {
              "internalType": "Currency",
              "name": "currency1",
              "type": "address"
            },
            {
              "internalType": "uint24",
              "name": "fee",
              "type": "uint24"
            },
            {
              "internalType": "int24",
              "name": "tickSpacing",
              "type": "int24"
            },
            {
              "internalType": "contract IHooks",
              "name": "hooks",
              "type": "address"
            }
          ],
          "internalType": "struct PoolKey",
          "name": "",
          "type": "tuple"
        },
        {
          "components": [
            {
              "internalType": "int24",
              "name": "tickLower",
              "type": "int24"
            },
            {
              "internalType": "int24",
              "name": "tickUpper",
              "type": "int24"
            },
            {
              "internalType": "int256",
              "name": "liquidityDelta",
              "type": "int256"
            }
          ],
          "internalType": "struct IPoolManager.ModifyPositionParams",
          "name": "",
          "type": "tuple"
        },
        {
          "internalType": "bytes",
          "name": "",
          "type": "bytes"
        }
      ],
      "name": "beforeModifyPosition",
      "outputs": [
        {
          "internalType": "bytes4",
          "name": "",
          "type": "bytes4"
        }
      ],
      "stateMutability": "nonpayable",
      "type": "function"
    },
    {
      "inputs": [
        {
          "internalType": "address",
          "name": "",
          "type": "address"
        },
        {
          "components": [
            {
              "internalType": "Currency",
              "name": "currency0",
              "type": "address"
            },
            {
              "internalType": "Currency",
              "name": "currency1",
              "type": "address"
            },
            {
              "internalType": "uint24",
              "name": "fee",
              "type": "uint24"
            },
            {
              "internalType": "int24",
              "name": "tickSpacing",
              "type": "int24"
            },
            {
              "internalType": "contract IHooks",
              "name": "hooks",
              "type": "address"
            }
          ],
          "internalType": "struct PoolKey",
          "name": "",
          "type": "tuple"
        },
        {
          "components": [
            {
              "internalType": "bool",
              "name": "zeroForOne",
              "type": "bool"
            },
            {
              "internalType": "int256",
              "name": "amountSpecified",
              "type": "int256"
            },
            {
              "internalType": "uint160",
              "name": "sqrtPriceLimitX96",
              "type": "uint160"
            }
          ],
          "internalType": "struct IPoolManager.SwapParams",
          "name": "",
          "type": "tuple"
        },
        {
          "internalType": "bytes",
          "name": "",
          "type": "bytes"
        }
      ],
      "name": "beforeSwap",
      "outputs": [
        {
          "internalType": "bytes4",
          "name": "",
          "type": "bytes4"
        }
      ],
      "stateMutability": "nonpayable",
      "type": "function"
    },
    {
      "inputs": [],
      "name": "getHooksCalls",
      "outputs": [
        {
          "components": [
            {
              "internalType": "bool",
              "name": "beforeInitialize",
              "type": "bool"
            },
            {
              "internalType": "bool",
              "name": "afterInitialize",
              "type": "bool"
            },
            {
              "internalType": "bool",
              "name": "beforeModifyPosition",
              "type": "bool"
            },
            {
              "internalType": "bool",
              "name": "afterModifyPosition",
              "type": "bool"
            },
            {
              "internalType": "bool",
              "name": "beforeSwap",
              "type": "bool"
            },
            {
              "internalType": "bool",
              "name": "afterSwap",
              "type": "bool"
            },
            {
              "internalType": "bool",
              "name": "beforeDonate",
              "type": "bool"
            },
            {
              "internalType": "bool",
              "name": "afterDonate",
              "type": "bool"
            }
          ],
          "internalType": "struct Hooks.Calls",
          "name": "",
          "type": "tuple"
        }
      ],
      "stateMutability": "pure",
      "type": "function"
    },
    {
      "inputs": [
        {
          "internalType": "bytes",
          "name": "data",
          "type": "bytes"
        }
      ],
      "name": "lockAcquired",
      "outputs": [
        {
          "internalType": "bytes",
          "name": "",
          "type": "bytes"
        }
      ],
      "stateMutability": "nonpayable",
      "type": "function"
    },
    {
      "inputs": [
        {
          "components": [
            {
              "internalType": "Currency",
              "name": "currency0",
              "type": "address"
            },
            {
              "internalType": "Currency",
              "name": "currency1",
              "type": "address"
            },
            {
              "internalType": "uint24",
              "name": "fee",
              "type": "uint24"
            },
            {
              "internalType": "int24",
              "name": "tickSpacing",
              "type": "int24"
            },
            {
              "internalType": "contract IHooks",
              "name": "hooks",
              "type": "address"
            }
          ],
          "internalType": "struct PoolKey",
          "name": "key",
          "type": "tuple"
        },
        {
          "components": [
            {
              "internalType": "bool",
              "name": "zeroForOne",
              "type": "bool"
            },
            {
              "internalType": "int256",
              "name": "amountSpecified",
              "type": "int256"
            },
            {
              "internalType": "uint160",
              "name": "sqrtPriceLimitX96",
              "type": "uint160"
            }
          ],
          "internalType": "struct IPoolManager.SwapParams",
          "name": "params",
          "type": "tuple"
        },
        {
          "components": [
            {
              "internalType": "bool",
              "name": "unwind",
              "type": "bool"
            },
            {
              "internalType": "bool",
              "name": "fired",
              "type": "bool"
            },
            {
              "internalType": "Currency",
              "name": "currency0",
              "type": "address"
            },
            {
              "internalType": "Currency",
              "name": "currency1",
              "type": "address"
            },
            {
              "internalType": "uint256",
              "name": "minPriceLimit",
              "type": "uint256"
            },
            {
              "internalType": "uint256",
              "name": "unwindPrice",
              "type": "uint256"
            },
            {
              "internalType": "uint256",
              "name": "unwindAmount",
              "type": "uint256"
            },
            {
              "internalType": "uint256",
              "name": "maxAmountSwap",
              "type": "uint256"
            },
            {
              "internalType": "address",
              "name": "owner",
              "type": "address"
            }
          ],
          "internalType": "struct Trigger",
          "name": "trigger",
          "type": "tuple"
        }
      ],
      "name": "lockAcquiredHedge",
      "outputs": [
        {
          "internalType": "uint256",
          "name": "token1Amount",
          "type": "uint256"
        }
      ],
      "stateMutability": "nonpayable",
      "type": "function"
    },
    {
      "inputs": [
        {
          "components": [
            {
              "internalType": "Currency",
              "name": "currency0",
              "type": "address"
            },
            {
              "internalType": "Currency",
              "name": "currency1",
              "type": "address"
            },
            {
              "internalType": "uint24",
              "name": "fee",
              "type": "uint24"
            },
            {
              "internalType": "int24",
              "name": "tickSpacing",
              "type": "int24"
            },
            {
              "internalType": "contract IHooks",
              "name": "hooks",
              "type": "address"
            }
          ],
          "internalType": "struct PoolKey",
          "name": "key",
          "type": "tuple"
        },
        {
          "components": [
            {
              "internalType": "bool",
              "name": "zeroForOne",
              "type": "bool"
            },
            {
              "internalType": "int256",
              "name": "amountSpecified",
              "type": "int256"
            },
            {
              "internalType": "uint160",
              "name": "sqrtPriceLimitX96",
              "type": "uint160"
            }
          ],
          "internalType": "struct IPoolManager.SwapParams",
          "name": "params",
          "type": "tuple"
        },
        {
          "components": [
            {
              "internalType": "bool",
              "name": "unwind",
              "type": "bool"
            },
            {
              "internalType": "bool",
              "name": "fired",
              "type": "bool"
            },
            {
              "internalType": "Currency",
              "name": "currency0",
              "type": "address"
            },
            {
              "internalType": "Currency",
              "name": "currency1",
              "type": "address"
            },
            {
              "internalType": "uint256",
              "name": "minPriceLimit",
              "type": "uint256"
            },
            {
              "internalType": "uint256",
              "name": "unwindPrice",
              "type": "uint256"
            },
            {
              "internalType": "uint256",
              "name": "unwindAmount",
              "type": "uint256"
            },
            {
              "internalType": "uint256",
              "name": "maxAmountSwap",
              "type": "uint256"
            },
            {
              "internalType": "address",
              "name": "owner",
              "type": "address"
            }
          ],
          "internalType": "struct Trigger",
          "name": "trigger",
          "type": "tuple"
        }
      ],
      "name": "lockAcquiredUnwind",
      "outputs": [],
      "stateMutability": "nonpayable",
      "type": "function"
    },
    {
      "inputs": [
        {
          "internalType": "Currency",
          "name": "",
          "type": "address"
        },
        {
          "internalType": "uint256",
          "name": "",
          "type": "uint256"
        }
      ],
      "name": "orderedPriceByCurrency",
      "outputs": [
        {
          "internalType": "uint256",
          "name": "",
          "type": "uint256"
        }
      ],
      "stateMutability": "view",
      "type": "function"
    },
    {
      "inputs": [],
      "name": "poolManager",
      "outputs": [
        {
          "internalType": "contract IPoolManager",
          "name": "",
          "type": "address"
        }
      ],
      "stateMutability": "view",
      "type": "function"
    },
    {
      "inputs": [
        {
          "internalType": "Currency",
          "name": "_tokenAddress",
          "type": "address"
        },
        {
          "internalType": "uint256",
          "name": "_priceLimit",
          "type": "uint256"
        },
        {
          "internalType": "uint256",
          "name": "_maxAmountSwap",
          "type": "uint256"
        },
        {
          "internalType": "bool",
          "name": "_unwind",
          "type": "bool"
        }
      ],
      "name": "setTrigger",
      "outputs": [],
      "stateMutability": "nonpayable",
      "type": "function"
    },
    {
      "inputs": [
        {
          "internalType": "Currency",
          "name": "",
          "type": "address"
        },
        {
          "internalType": "uint256",
          "name": "",
          "type": "uint256"
        },
        {
          "internalType": "uint256",
          "name": "",
          "type": "uint256"
        }
      ],
      "name": "triggersByCurrency",
      "outputs": [
        {
          "internalType": "bool",
          "name": "unwind",
          "type": "bool"
        },
        {
          "internalType": "bool",
          "name": "fired",
          "type": "bool"
        },
        {
          "internalType": "Currency",
          "name": "currency0",
          "type": "address"
        },
        {
          "internalType": "Currency",
          "name": "currency1",
          "type": "address"
        },
        {
          "internalType": "uint256",
          "name": "minPriceLimit",
          "type": "uint256"
        },
        {
          "internalType": "uint256",
          "name": "unwindPrice",
          "type": "uint256"
        },
        {
          "internalType": "uint256",
          "name": "unwindAmount",
          "type": "uint256"
        },
        {
          "internalType": "uint256",
          "name": "maxAmountSwap",
          "type": "uint256"
        },
        {
          "internalType": "address",
          "name": "owner",
          "type": "address"
        }
      ],
      "stateMutability": "view",
      "type": "function"
    }
  ],
  "bytecode": "0x60a06040523480156200001157600080fd5b5060405162003daa38038062003daa833981810160405281019062000037919062000506565b808073ffffffffffffffffffffffffffffffffffffffff1660808173ffffffffffffffffffffffffffffffffffffffff16815250506200007d306200008560201b60201c565b505062000566565b620000a6816200009a620000a960201b60201c565b6200010a60201b60201c565b50565b620000b362000433565b60405180610100016040528060001515815260200160001515815260200160001515815260200160001515815260200160001515815260200160011515815260200160001515815260200160001515815250905090565b6200011b826200026b60201b60201c565b1515816000015115151415806200014a57506200013e82620002a460201b60201c565b15158160200151151514155b806200016e57506200016282620002dd60201b60201c565b15158160400151151514155b8062000192575062000186826200031660201b60201c565b15158160600151151514155b80620001b65750620001aa826200034f60201b60201c565b15158160800151151514155b80620001da5750620001ce826200038860201b60201c565b15158160a00151151514155b80620001fe5750620001f282620003c160201b60201c565b15158160c00151151514155b806200022257506200021682620003fa60201b60201c565b15158160e00151151514155b156200026757816040517fe65af6a00000000000000000000000000000000000000000000000000000000081526004016200025e919062000549565b60405180910390fd5b5050565b6000807380000000000000000000000000000000000000008373ffffffffffffffffffffffffffffffffffffffff161614159050919050565b6000807340000000000000000000000000000000000000008373ffffffffffffffffffffffffffffffffffffffff161614159050919050565b6000807320000000000000000000000000000000000000008373ffffffffffffffffffffffffffffffffffffffff161614159050919050565b6000807310000000000000000000000000000000000000008373ffffffffffffffffffffffffffffffffffffffff161614159050919050565b6000807308000000000000000000000000000000000000008373ffffffffffffffffffffffffffffffffffffffff161614159050919050565b6000807304000000000000000000000000000000000000008373ffffffffffffffffffffffffffffffffffffffff161614159050919050565b6000807302000000000000000000000000000000000000008373ffffffffffffffffffffffffffffffffffffffff161614159050919050565b6000807301000000000000000000000000000000000000008373ffffffffffffffffffffffffffffffffffffffff161614159050919050565b6040518061010001604052806000151581526020016000151581526020016000151581526020016000151581526020016000151581526020016000151581526020016000151581526020016000151581525090565b600080fd5b600073ffffffffffffffffffffffffffffffffffffffff82169050919050565b6000620004ba826200048d565b9050919050565b6000620004ce82620004ad565b9050919050565b620004e081620004c1565b8114620004ec57600080fd5b50565b6000815190506200050081620004d5565b92915050565b6000602082840312156200051f576200051e62000488565b5b60006200052f84828501620004ef565b91505092915050565b6200054381620004ad565b82525050565b600060208201905062000560600083018462000538565b92915050565b6080516137b8620005f26000396000818161051c015281816105a4015281816106470152818161072501528181610762015281816107f001528181610ab201528181610f6b01528181611242015281816112ca0152818161136d015281816114490152818161148601528181611514015281816115b701528181611c3f0152611e5101526137b86000f3fe608060405234801561001057600080fd5b506004361061010b5760003560e01c8063a910f80f116100a2578063d5f8cc4d11610071578063d5f8cc4d14610332578063dc4c90d314610362578063e1b4af6914610380578063f92ee941146103b0578063fe9a6f45146103cc5761010b565b8063a910f80f14610272578063ab6291fe146102a2578063b47b2fb1146102d2578063b6a8b0fa146103025761010b565b8063575e24b4116100de578063575e24b4146101bc578063612c39b7146101ec578063771029101461020a578063a5aa370a146102425761010b565b806327a7cc9a1461011057806330b7cdef1461012c578063334f137c1461015c5780633440d8201461018c575b600080fd5b61012a6004803603810190610125919061237b565b6103fc565b005b6101466004803603810190610141919061248a565b610890565b6040516101539190612562565b60405180910390f35b6101766004803603810190610171919061257d565b6108c4565b60405161018391906125cc565b60405180910390f35b6101a660048036038101906101a19190612613565b6108f5565b6040516101b39190612562565b60405180910390f35b6101d660048036038101906101d1919061269c565b610929565b6040516101e39190612562565b60405180910390f35b6101f461095d565b60405161020191906127d7565b60405180910390f35b610224600480360381019061021f91906127f3565b6109bc565b604051610239999897969594939291906128c3565b60405180910390f35b61025c60048036038101906102579190612950565b610aae565b6040516102699190612562565b60405180910390f35b61028c600480360381019061028791906129f2565b610f33565b6040516102999190612562565b60405180910390f35b6102bc60048036038101906102b79190612a8e565b610f67565b6040516102c99190612b5a565b60405180910390f35b6102ec60048036038101906102e79190612b7c565b6110b8565b6040516102f99190612562565b60405180910390f35b61031c60048036038101906103179190612c19565b6110ec565b6040516103299190612562565b60405180910390f35b61034c6004803603810190610347919061237b565b611120565b60405161035991906125cc565b60405180910390f35b61036a6115b5565b6040516103779190612cd6565b60405180910390f35b61039a60048036038101906103959190612c19565b6115d9565b6040516103a79190612562565b60405180910390f35b6103ca60048036038101906103c59190612cf1565b61160d565b005b6103e660048036038101906103e19190612d58565b6119d4565b6040516103f39190612562565b60405180910390f35b3073ffffffffffffffffffffffffffffffffffffffff163373ffffffffffffffffffffffffffffffffffffffff1614610461576040517f29c3b7ee00000000000000000000000000000000000000000000000000000000815260040160405180910390fd5b60008160600151905060008173ffffffffffffffffffffffffffffffffffffffff166370a082318461010001516040518263ffffffff1660e01b81526004016104aa9190612de2565b602060405180830381865afa1580156104c7573d6000803e3d6000fd5b505050506040513d601f19601f820116820180604052508101906104eb9190612e12565b90508260c001518110610889578173ffffffffffffffffffffffffffffffffffffffff166323b872dd8461010001517f00000000000000000000000000000000000000000000000000000000000000008660c001516040518463ffffffff1660e01b815260040161055e93929190612e3f565b6020604051808303816000875af115801561057d573d6000803e3d6000fd5b505050506040513d601f19601f820116820180604052508101906105a19190612e8b565b507f000000000000000000000000000000000000000000000000000000000000000073ffffffffffffffffffffffffffffffffffffffff16636a256b2984606001516040518263ffffffff1660e01b81526004016105ff9190612eb8565b6020604051808303816000875af115801561061e573d6000803e3d6000fd5b505050506040513d601f19601f820116820180604052508101906106429190612e12565b5060007f000000000000000000000000000000000000000000000000000000000000000073ffffffffffffffffffffffffffffffffffffffff1663f3cd914c878760405160200161069290612f0a565b6040516020818303038152906040526040518463ffffffff1660e01b81526004016106bf939291906131c6565b6020604051808303816000875af11580156106de573d6000803e3d6000fd5b505050506040513d601f19601f82011682018060405250810190610702919061321b565b9050600061070f82611a08565b6fffffffffffffffffffffffffffffffff1690507f000000000000000000000000000000000000000000000000000000000000000073ffffffffffffffffffffffffffffffffffffffff1663f242432a307f0000000000000000000000000000000000000000000000000000000000000000886040015173ffffffffffffffffffffffffffffffffffffffff16856040518563ffffffff1660e01b81526004016107bc949392919061326b565b600060405180830381600087803b1580156107d657600080fd5b505af11580156107ea573d6000803e3d6000fd5b505050507f000000000000000000000000000000000000000000000000000000000000000073ffffffffffffffffffffffffffffffffffffffff16630b0d9c098660400151876101000151846040518463ffffffff1660e01b8152600401610854939291906132c3565b600060405180830381600087803b15801561086e57600080fd5b505af1158015610882573d6000803e3d6000fd5b5050505050505b5050505050565b60006040517f0a85dc2900000000000000000000000000000000000000000000000000000000815260040160405180910390fd5b600060205281600052604060002081815481106108e057600080fd5b90600052602060002001600091509150505481565b60006040517f0a85dc2900000000000000000000000000000000000000000000000000000000815260040160405180910390fd5b60006040517f0a85dc2900000000000000000000000000000000000000000000000000000000815260040160405180910390fd5b610965611fd4565b60405180610100016040528060001515815260200160001515815260200160001515815260200160001515815260200160001515815260200160011515815260200160001515815260200160001515815250905090565b600160205282600052604060002060205281600052604060002081815481106109e457600080fd5b906000526020600020906007020160009250925050508060000160009054906101000a900460ff16908060000160019054906101000a900460ff16908060000160029054906101000a900473ffffffffffffffffffffffffffffffffffffffff16908060010160009054906101000a900473ffffffffffffffffffffffffffffffffffffffff16908060020154908060030154908060040154908060050154908060060160009054906101000a900473ffffffffffffffffffffffffffffffffffffffff16905089565b60007f000000000000000000000000000000000000000000000000000000000000000073ffffffffffffffffffffffffffffffffffffffff163373ffffffffffffffffffffffffffffffffffffffff1614610b35576040517fae18210a00000000000000000000000000000000000000000000000000000000815260040160405180910390fd5b6000806000866000016020810190610b4d91906132fa565b73ffffffffffffffffffffffffffffffffffffffff1673ffffffffffffffffffffffffffffffffffffffff168152602001908152602001600020805480602002602001604051908101604052809291908181526020018280548015610bd157602002820191906000526020600020905b815481526020019060010190808311610bbd575b505050505090506000815103610bf15763a5aa370a60e01b915050610f2b565b6000846040016020810190610c069190613327565b73ffffffffffffffffffffffffffffffffffffffff16856040016020810190610c2f9190613327565b73ffffffffffffffffffffffffffffffffffffffff16610c4f9190613383565b90506000670de0b6b3a764000090506000610c8483837801000000000000000000000000000000000000000000000000611a15565b90506000610c928583611ae1565b905060005b8551811015610f1a576000600160008c6000016020810190610cb991906132fa565b73ffffffffffffffffffffffffffffffffffffffff1673ffffffffffffffffffffffffffffffffffffffff1681526020019081526020016000206000888481518110610d0857610d076133c5565b5b60200260200101518152602001908152602001600020805480602002602001604051908101604052809291908181526020016000905b82821015610ed15783829060005260206000209060070201604051806101200160405290816000820160009054906101000a900460ff161515151581526020016000820160019054906101000a900460ff161515151581526020016000820160029054906101000a900473ffffffffffffffffffffffffffffffffffffffff1673ffffffffffffffffffffffffffffffffffffffff1673ffffffffffffffffffffffffffffffffffffffff1681526020016001820160009054906101000a900473ffffffffffffffffffffffffffffffffffffffff1673ffffffffffffffffffffffffffffffffffffffff1673ffffffffffffffffffffffffffffffffffffffff168152602001600282015481526020016003820154815260200160048201548152602001600582015481526020016006820160009054906101000a900473ffffffffffffffffffffffffffffffffffffffff1673ffffffffffffffffffffffffffffffffffffffff1673ffffffffffffffffffffffffffffffffffffffff168152505081526020019060010190610d3e565b5050505090506000815114610f0657828210610ef857610ef38b8b8387611c00565b610f05565b610f048b8b8387611dfc565b5b5b508080610f12906133f4565b915050610c97565b5063a5aa370a60e01b955050505050505b949350505050565b60006040517f0a85dc2900000000000000000000000000000000000000000000000000000000815260040160405180910390fd5b60607f000000000000000000000000000000000000000000000000000000000000000073ffffffffffffffffffffffffffffffffffffffff163373ffffffffffffffffffffffffffffffffffffffff1614610fee576040517fae18210a00000000000000000000000000000000000000000000000000000000815260040160405180910390fd5b6000803073ffffffffffffffffffffffffffffffffffffffff16858560405161101892919061347b565b6000604051808303816000865af19150503d8060008114611055576040519150601f19603f3d011682016040523d82523d6000602084013e61105a565b606091505b5091509150811561106f5780925050506110b2565b60008151036110aa576040517fa40afa3800000000000000000000000000000000000000000000000000000000815260040160405180910390fd5b805160208201fd5b92915050565b60006040517f0a85dc2900000000000000000000000000000000000000000000000000000000815260040160405180910390fd5b60006040517f0a85dc2900000000000000000000000000000000000000000000000000000000815260040160405180910390fd5b60003073ffffffffffffffffffffffffffffffffffffffff163373ffffffffffffffffffffffffffffffffffffffff1614611187576040517f29c3b7ee00000000000000000000000000000000000000000000000000000000815260040160405180910390fd5b60008260400151905060008173ffffffffffffffffffffffffffffffffffffffff166370a082318561010001516040518263ffffffff1660e01b81526004016111d09190612de2565b602060405180830381865afa1580156111ed573d6000803e3d6000fd5b505050506040513d601f19601f820116820180604052508101906112119190612e12565b90508360e0015181106115ac578173ffffffffffffffffffffffffffffffffffffffff166323b872dd8561010001517f00000000000000000000000000000000000000000000000000000000000000008760e001516040518463ffffffff1660e01b815260040161128493929190612e3f565b6020604051808303816000875af11580156112a3573d6000803e3d6000fd5b505050506040513d601f19601f820116820180604052508101906112c79190612e8b565b507f000000000000000000000000000000000000000000000000000000000000000073ffffffffffffffffffffffffffffffffffffffff16636a256b2985604001516040518263ffffffff1660e01b81526004016113259190612eb8565b6020604051808303816000875af1158015611344573d6000803e3d6000fd5b505050506040513d601f19601f820116820180604052508101906113689190612e12565b5060007f000000000000000000000000000000000000000000000000000000000000000073ffffffffffffffffffffffffffffffffffffffff1663f3cd914c88886040516020016113b890612f0a565b6040516020818303038152906040526040518463ffffffff1660e01b81526004016113e5939291906131c6565b6020604051808303816000875af1158015611404573d6000803e3d6000fd5b505050506040513d601f19601f82011682018060405250810190611428919061321b565b905061143381611fca565b6fffffffffffffffffffffffffffffffff1693507f000000000000000000000000000000000000000000000000000000000000000073ffffffffffffffffffffffffffffffffffffffff1663f242432a307f0000000000000000000000000000000000000000000000000000000000000000886060015173ffffffffffffffffffffffffffffffffffffffff16886040518563ffffffff1660e01b81526004016114e0949392919061326b565b600060405180830381600087803b1580156114fa57600080fd5b505af115801561150e573d6000803e3d6000fd5b505050507f000000000000000000000000000000000000000000000000000000000000000073ffffffffffffffffffffffffffffffffffffffff16630b0d9c098660600151876101000151876040518463ffffffff1660e01b8152600401611578939291906132c3565b600060405180830381600087803b15801561159257600080fd5b505af11580156115a6573d6000803e3d6000fd5b50505050505b50509392505050565b7f000000000000000000000000000000000000000000000000000000000000000081565b60006040517f0a85dc2900000000000000000000000000000000000000000000000000000000815260040160405180910390fd5b611615612029565b8181600001901515908115158152505084816040019073ffffffffffffffffffffffffffffffffffffffff16908173ffffffffffffffffffffffffffffffffffffffff168152505083816080018181525050828160e00181815250503381610100019073ffffffffffffffffffffffffffffffffffffffff16908173ffffffffffffffffffffffffffffffffffffffff168152505060008060008773ffffffffffffffffffffffffffffffffffffffff1673ffffffffffffffffffffffffffffffffffffffff168152602001908152602001600020905060006117478280548060200260200160405190810160405280929190818152602001828054801561173c57602002820191906000526020600020905b815481526020019060010190808311611728575b505050505087611ae1565b905081600090806001815401808255809150506001900390600052602060002001600090919091909150556000600183805490506117859190613494565b90505b818111156117ee578260018261179e9190613494565b815481106117af576117ae6133c5565b5b90600052602060002001548382815481106117cd576117cc6133c5565b5b906000526020600020018190555080806117e6906134c8565b915050611788565b5085828281548110611803576118026133c5565b5b9060005260206000200181905550600160008873ffffffffffffffffffffffffffffffffffffffff1673ffffffffffffffffffffffffffffffffffffffff168152602001908152602001600020600087815260200190815260200160002083908060018154018082558091505060019003906000526020600020906007020160009091909190915060008201518160000160006101000a81548160ff02191690831515021790555060208201518160000160016101000a81548160ff02191690831515021790555060408201518160000160026101000a81548173ffffffffffffffffffffffffffffffffffffffff021916908373ffffffffffffffffffffffffffffffffffffffff16021790555060608201518160010160006101000a81548173ffffffffffffffffffffffffffffffffffffffff021916908373ffffffffffffffffffffffffffffffffffffffff1602179055506080820151816002015560a0820151816003015560c0820151816004015560e082015181600501556101008201518160060160006101000a81548173ffffffffffffffffffffffffffffffffffffffff021916908373ffffffffffffffffffffffffffffffffffffffff160217905550505050505050505050565b60006040517f0a85dc2900000000000000000000000000000000000000000000000000000000815260040160405180910390fd5b60008160801c9050919050565b60008083850290506000801985870982811083820303915050808411611a3a57600080fd5b60008103611a4e5783820492505050611ada565b600084868809905082811182039150808303925060008586600003169050808604955080840493506001818260000304019050808302841793506000600287600302189050808702600203810290508087026002038102905080870260020381029050808702600203810290508087026002038102905080870260020381029050808502955050505050505b9392505050565b600080835190506000811480611b12575083600081518110611b0657611b056133c5565b5b60200260200101518311155b15611b21576000915050611bfa565b83600182611b2f9190613494565b81518110611b4057611b3f6133c5565b5b60200260200101518310611b575780915050611bfa565b600080600183611b679190613494565b90505b808211611bf357600060028284611b8191906134f1565b611b8b9190613554565b90506000878281518110611ba257611ba16133c5565b5b60200260200101519050868103611bc0578195505050505050611bfa565b86811015611bdc57600182611bd591906134f1565b9350611bec565b600182611be99190613494565b92505b5050611b6a565b8193505050505b92915050565b60005b8251811015611df5576000838281518110611c2157611c206133c5565b5b60200260200101519050806020015115611c3b5750611de2565b60007f000000000000000000000000000000000000000000000000000000000000000073ffffffffffffffffffffffffffffffffffffffff1663815483193073ffffffffffffffffffffffffffffffffffffffff1663d5f8cc4d8a8a87604051602401611caa9392919061365a565b604051602081830303815290604052915060e01b6020820180517bffffffffffffffffffffffffffffffffffffffffffffffffffffffff83818316178352505050506040518263ffffffff1660e01b8152600401611d089190612b5a565b6000604051808303816000875af1158015611d27573d6000803e3d6000fd5b505050506040513d6000823e3d601f19601f82011682018060405250810190611d509190613739565b806020019051810190611d639190612e12565b90506001826020019015159081151581525050866020016020810190611d8991906132fa565b826060019073ffffffffffffffffffffffffffffffffffffffff16908173ffffffffffffffffffffffffffffffffffffffff1681525050816000015115611ddf57838260a0018181525050808260c00181815250505b50505b8080611ded906133f4565b915050611c03565b5050505050565b60005b8251811015611fc3576000838281518110611e1d57611e1c6133c5565b5b602002602001015190508060200151611e365750611fb0565b8060a0015183118015611e4a575080600001515b15611f64577f000000000000000000000000000000000000000000000000000000000000000073ffffffffffffffffffffffffffffffffffffffff1663815483193073ffffffffffffffffffffffffffffffffffffffff166327a7cc9a898986604051602401611ebc9392919061365a565b604051602081830303815290604052915060e01b6020820180517bffffffffffffffffffffffffffffffffffffffffffffffffffffffff83818316178352505050506040518263ffffffff1660e01b8152600401611f1a9190612b5a565b6000604051808303816000875af1158015611f39573d6000803e3d6000fd5b505050506040513d6000823e3d601f19601f82011682018060405250810190611f629190613739565b505b60008160200190151590811515815250506000816060019073ffffffffffffffffffffffffffffffffffffffff16908173ffffffffffffffffffffffffffffffffffffffff1681525050505b8080611fbb906133f4565b915050611dff565b5050505050565b6000819050919050565b6040518061010001604052806000151581526020016000151581526020016000151581526020016000151581526020016000151581526020016000151581526020016000151581526020016000151581525090565b604051806101200160405280600015158152602001600015158152602001600073ffffffffffffffffffffffffffffffffffffffff168152602001600073ffffffffffffffffffffffffffffffffffffffff16815260200160008152602001600081526020016000815260200160008152602001600073ffffffffffffffffffffffffffffffffffffffff1681525090565b6000604051905090565b600080fd5b600080fd5b600080fd5b600060a082840312156120ea576120e96120cf565b5b81905092915050565b600060608284031215612109576121086120cf565b5b81905092915050565b600080fd5b6000601f19601f8301169050919050565b7f4e487b7100000000000000000000000000000000000000000000000000000000600052604160045260246000fd5b61216082612117565b810181811067ffffffffffffffff8211171561217f5761217e612128565b5b80604052505050565b60006121926120bb565b905061219e8282612157565b919050565b60008115159050919050565b6121b8816121a3565b81146121c357600080fd5b50565b6000813590506121d5816121af565b92915050565b600073ffffffffffffffffffffffffffffffffffffffff82169050919050565b6000612206826121db565b9050919050565b612216816121fb565b811461222157600080fd5b50565b6000813590506122338161220d565b92915050565b6000819050919050565b61224c81612239565b811461225757600080fd5b50565b60008135905061226981612243565b92915050565b612278816121fb565b811461228357600080fd5b50565b6000813590506122958161226f565b92915050565b600061012082840312156122b2576122b1612112565b5b6122bd610120612188565b905060006122cd848285016121c6565b60008301525060206122e1848285016121c6565b60208301525060406122f584828501612224565b604083015250606061230984828501612224565b606083015250608061231d8482850161225a565b60808301525060a06123318482850161225a565b60a08301525060c06123458482850161225a565b60c08301525060e06123598482850161225a565b60e08301525061010061236e84828501612286565b6101008301525092915050565b60008060006102208486031215612395576123946120c5565b5b60006123a3868287016120d4565b93505060a06123b4868287016120f3565b9250506101006123c68682870161229b565b9150509250925092565b6000606082840312156123e6576123e56120cf565b5b81905092915050565b6000819050919050565b612402816123ef565b811461240d57600080fd5b50565b60008135905061241f816123f9565b92915050565b600080fd5b600080fd5b600080fd5b60008083601f84011261244a57612449612425565b5b8235905067ffffffffffffffff8111156124675761246661242a565b5b6020830191508360018202830111156124835761248261242f565b5b9250929050565b60008060008060008061016087890312156124a8576124a76120c5565b5b60006124b689828a01612286565b96505060206124c789828a016120d4565b95505060c06124d889828a016123d0565b9450506101206124ea89828a01612410565b93505061014087013567ffffffffffffffff81111561250c5761250b6120ca565b5b61251889828a01612434565b92509250509295509295509295565b60007fffffffff0000000000000000000000000000000000000000000000000000000082169050919050565b61255c81612527565b82525050565b60006020820190506125776000830184612553565b92915050565b60008060408385031215612594576125936120c5565b5b60006125a285828601612224565b92505060206125b38582860161225a565b9150509250929050565b6125c681612239565b82525050565b60006020820190506125e160008301846125bd565b92915050565b6125f0816121db565b81146125fb57600080fd5b50565b60008135905061260d816125e7565b92915050565b600080600080600061010086880312156126305761262f6120c5565b5b600061263e88828901612286565b955050602061264f888289016120d4565b94505060c0612660888289016125fe565b93505060e086013567ffffffffffffffff811115612681576126806120ca565b5b61268d88828901612434565b92509250509295509295909350565b600080600080600061014086880312156126b9576126b86120c5565b5b60006126c788828901612286565b95505060206126d8888289016120d4565b94505060c06126e9888289016120f3565b93505061012086013567ffffffffffffffff81111561270b5761270a6120ca565b5b61271788828901612434565b92509250509295509295909350565b61272f816121a3565b82525050565b6101008201600082015161274c6000850182612726565b50602082015161275f6020850182612726565b5060408201516127726040850182612726565b5060608201516127856060850182612726565b5060808201516127986080850182612726565b5060a08201516127ab60a0850182612726565b5060c08201516127be60c0850182612726565b5060e08201516127d160e0850182612726565b50505050565b6000610100820190506127ed6000830184612735565b92915050565b60008060006060848603121561280c5761280b6120c5565b5b600061281a86828701612224565b935050602061282b8682870161225a565b925050604061283c8682870161225a565b9150509250925092565b61284f816121a3565b82525050565b6000819050919050565b600061287a612875612870846121db565b612855565b6121db565b9050919050565b600061288c8261285f565b9050919050565b600061289e82612881565b9050919050565b6128ae81612893565b82525050565b6128bd816121fb565b82525050565b6000610120820190506128d9600083018c612846565b6128e6602083018b612846565b6128f3604083018a6128a5565b61290060608301896128a5565b61290d60808301886125bd565b61291a60a08301876125bd565b61292760c08301866125bd565b61293460e08301856125bd565b6129426101008301846128b4565b9a9950505050505050505050565b600080600080610140858703121561296b5761296a6120c5565b5b600061297987828801612286565b945050602061298a878288016120d4565b93505060c061299b878288016120f3565b9250506101206129ad87828801612410565b91505092959194509250565b60008160020b9050919050565b6129cf816129b9565b81146129da57600080fd5b50565b6000813590506129ec816129c6565b92915050565b6000806000806000806101208789031215612a1057612a0f6120c5565b5b6000612a1e89828a01612286565b9650506020612a2f89828a016120d4565b95505060c0612a4089828a016125fe565b94505060e0612a5189828a016129dd565b93505061010087013567ffffffffffffffff811115612a7357612a726120ca565b5b612a7f89828a01612434565b92509250509295509295509295565b60008060208385031215612aa557612aa46120c5565b5b600083013567ffffffffffffffff811115612ac357612ac26120ca565b5b612acf85828601612434565b92509250509250929050565b600081519050919050565b600082825260208201905092915050565b60005b83811015612b15578082015181840152602081019050612afa565b60008484015250505050565b6000612b2c82612adb565b612b368185612ae6565b9350612b46818560208601612af7565b612b4f81612117565b840191505092915050565b60006020820190508181036000830152612b748184612b21565b905092915050565b6000806000806000806101608789031215612b9a57612b996120c5565b5b6000612ba889828a01612286565b9650506020612bb989828a016120d4565b95505060c0612bca89828a016120f3565b945050610120612bdc89828a01612410565b93505061014087013567ffffffffffffffff811115612bfe57612bfd6120ca565b5b612c0a89828a01612434565b92509250509295509295509295565b6000806000806000806101208789031215612c3757612c366120c5565b5b6000612c4589828a01612286565b9650506020612c5689828a016120d4565b95505060c0612c6789828a0161225a565b94505060e0612c7889828a0161225a565b93505061010087013567ffffffffffffffff811115612c9a57612c996120ca565b5b612ca689828a01612434565b92509250509295509295509295565b6000612cc082612881565b9050919050565b612cd081612cb5565b82525050565b6000602082019050612ceb6000830184612cc7565b92915050565b60008060008060808587031215612d0b57612d0a6120c5565b5b6000612d1987828801612224565b9450506020612d2a8782880161225a565b9350506040612d3b8782880161225a565b9250506060612d4c878288016121c6565b91505092959194509250565b60008060008060006101408688031215612d7557612d746120c5565b5b6000612d8388828901612286565b9550506020612d94888289016120d4565b94505060c0612da5888289016123d0565b93505061012086013567ffffffffffffffff811115612dc757612dc66120ca565b5b612dd388828901612434565b92509250509295509295909350565b6000602082019050612df760008301846128b4565b92915050565b600081519050612e0c81612243565b92915050565b600060208284031215612e2857612e276120c5565b5b6000612e3684828501612dfd565b91505092915050565b6000606082019050612e5460008301866128b4565b612e6160208301856128b4565b612e6e60408301846125bd565b949350505050565b600081519050612e85816121af565b92915050565b600060208284031215612ea157612ea06120c5565b5b6000612eaf84828501612e76565b91505092915050565b6000602082019050612ecd60008301846128a5565b92915050565b600082825260208201905092915050565b50565b6000612ef4600083612ed3565b9150612eff82612ee4565b600082019050919050565b60006020820190508181036000830152612f2381612ee7565b9050919050565b6000612f396020840184612224565b905092915050565b612f4a81612893565b82525050565b600062ffffff82169050919050565b612f6881612f50565b8114612f7357600080fd5b50565b600081359050612f8581612f5f565b92915050565b6000612f9a6020840184612f76565b905092915050565b612fab81612f50565b82525050565b6000612fc060208401846129dd565b905092915050565b612fd1816129b9565b82525050565b6000612fe2826121fb565b9050919050565b612ff281612fd7565b8114612ffd57600080fd5b50565b60008135905061300f81612fe9565b92915050565b60006130246020840184613000565b905092915050565b600061303782612881565b9050919050565b6130478161302c565b82525050565b60a0820161305e6000830183612f2a565b61306b6000850182612f41565b506130796020830183612f2a565b6130866020850182612f41565b506130946040830183612f8b565b6130a16040850182612fa2565b506130af6060830183612fb1565b6130bc6060850182612fc8565b506130ca6080830183613015565b6130d7608085018261303e565b50505050565b60006130ec60208401846121c6565b905092915050565b6130fd816123ef565b811461310857600080fd5b50565b60008135905061311a816130f4565b92915050565b600061312f602084018461310b565b905092915050565b613140816123ef565b82525050565b600061315560208401846125fe565b905092915050565b613166816121db565b82525050565b6060820161317d60008301836130dd565b61318a6000850182612726565b506131986020830183613120565b6131a56020850182613137565b506131b36040830183613146565b6131c0604085018261315d565b50505050565b6000610120820190506131dc600083018661304d565b6131e960a083018561316c565b8181036101008301526131fc8184612b21565b9050949350505050565b600081519050613215816123f9565b92915050565b600060208284031215613231576132306120c5565b5b600061323f84828501613206565b91505092915050565b6000613255600083612ae6565b915061326082612ee4565b600082019050919050565b600060a08201905061328060008301876128b4565b61328d60208301866128b4565b61329a60408301856125bd565b6132a760608301846125bd565b81810360808301526132b881613248565b905095945050505050565b60006060820190506132d860008301866128a5565b6132e560208301856128b4565b6132f260408301846125bd565b949350505050565b6000602082840312156133105761330f6120c5565b5b600061331e84828501612224565b91505092915050565b60006020828403121561333d5761333c6120c5565b5b600061334b848285016125fe565b91505092915050565b7f4e487b7100000000000000000000000000000000000000000000000000000000600052601160045260246000fd5b600061338e82612239565b915061339983612239565b92508282026133a781612239565b915082820484148315176133be576133bd613354565b5b5092915050565b7f4e487b7100000000000000000000000000000000000000000000000000000000600052603260045260246000fd5b60006133ff82612239565b91507fffffffffffffffffffffffffffffffffffffffffffffffffffffffffffffffff820361343157613430613354565b5b600182019050919050565b600081905092915050565b82818337600083830152505050565b6000613462838561343c565b935061346f838584613447565b82840190509392505050565b6000613488828486613456565b91508190509392505050565b600061349f82612239565b91506134aa83612239565b92508282039050818111156134c2576134c1613354565b5b92915050565b60006134d382612239565b9150600082036134e6576134e5613354565b5b600182039050919050565b60006134fc82612239565b915061350783612239565b925082820190508082111561351f5761351e613354565b5b92915050565b7f4e487b7100000000000000000000000000000000000000000000000000000000600052601260045260246000fd5b600061355f82612239565b915061356a83612239565b92508261357a57613579613525565b5b828204905092915050565b61358e81612239565b82525050565b61359d816121fb565b82525050565b610120820160008201516135ba6000850182612726565b5060208201516135cd6020850182612726565b5060408201516135e06040850182612f41565b5060608201516135f36060850182612f41565b5060808201516136066080850182613585565b5060a082015161361960a0850182613585565b5060c082015161362c60c0850182613585565b5060e082015161363f60e0850182613585565b50610100820151613654610100850182613594565b50505050565b600061022082019050613670600083018661304d565b61367d60a083018561316c565b61368b6101008301846135a3565b949350505050565b600080fd5b600067ffffffffffffffff8211156136b3576136b2612128565b5b6136bc82612117565b9050602081019050919050565b60006136dc6136d784613698565b612188565b9050828152602081018484840111156136f8576136f7613693565b5b613703848285612af7565b509392505050565b600082601f8301126137205761371f612425565b5b81516137308482602086016136c9565b91505092915050565b60006020828403121561374f5761374e6120c5565b5b600082015167ffffffffffffffff81111561376d5761376c6120ca565b5b6137798482850161370b565b9150509291505056fea26469706673582212207e5db461f1ab62ef5ca18bc8656107d8c3c42cc951b38759b42c0d7ece194a1264736f6c63430008150033",
  "linkReferences": {},
  "deployedLinkReferences": {}
}