{
  "_format": "hh-sol-artifact-1",
  "contractName": "FairTrade",
  "sourceName": "src/FAIR_TRADE/FairTrade.sol",
  "abi": [
    {
      "inputs": [
        {
          "internalType": "contract IPoolManager",
          "name": "_poolManager",
          "type": "address"
        },
        {
          "internalType": "string",
          "name": "_name",
          "type": "string"
        },
        {
          "internalType": "string",
          "name": "_symbol",
          "type": "string"
        },
        {
          "internalType": "uint8",
          "name": "_decimals",
          "type": "uint8"
        }
      ],
      "stateMutability": "nonpayable",
      "type": "constructor"
    },
    {
      "inputs": [],
      "name": "AlreadyInitialized",
      "type": "error"
    },
    {
      "inputs": [
        {
          "internalType": "address",
          "name": "hooks",
          "type": "address"
        }
      ],
      "name": "HookAddressNotValid",
      "type": "error"
    },
    {
      "inputs": [],
      "name": "HookNotImplemented",
      "type": "error"
    },
    {
      "inputs": [],
      "name": "InvalidPool",
      "type": "error"
    },
    {
      "inputs": [],
      "name": "LockFailure",
      "type": "error"
    },
    {
      "inputs": [],
      "name": "NewOwnerIsZeroAddress",
      "type": "error"
    },
    {
      "inputs": [],
      "name": "NoHandoverRequest",
      "type": "error"
    },
    {
      "inputs": [],
      "name": "NotPoolManager",
      "type": "error"
    },
    {
      "inputs": [],
      "name": "NotSelf",
      "type": "error"
    },
    {
      "inputs": [],
      "name": "Unauthorized",
      "type": "error"
    },
    {
      "anonymous": false,
      "inputs": [
        {
          "indexed": true,
          "internalType": "address",
          "name": "pendingOwner",
          "type": "address"
        }
      ],
      "name": "OwnershipHandoverCanceled",
      "type": "event"
    },
    {
      "anonymous": false,
      "inputs": [
        {
          "indexed": true,
          "internalType": "address",
          "name": "pendingOwner",
          "type": "address"
        }
      ],
      "name": "OwnershipHandoverRequested",
      "type": "event"
    },
    {
      "anonymous": false,
      "inputs": [
        {
          "indexed": true,
          "internalType": "address",
          "name": "oldOwner",
          "type": "address"
        },
        {
          "indexed": true,
          "internalType": "address",
          "name": "newOwner",
          "type": "address"
        }
      ],
      "name": "OwnershipTransferred",
      "type": "event"
    },
    {
      "inputs": [
        {
          "internalType": "address",
          "name": "",
          "type": "address"
        },
        {
          "components": [
            {
              "internalType": "Currency",
              "name": "currency0",
              "type": "address"
            },
            {
              "internalType": "Currency",
              "name": "currency1",
              "type": "address"
            },
            {
              "internalType": "uint24",
              "name": "fee",
              "type": "uint24"
            },
            {
              "internalType": "int24",
              "name": "tickSpacing",
              "type": "int24"
            },
            {
              "internalType": "contract IHooks",
              "name": "hooks",
              "type": "address"
            }
          ],
          "internalType": "struct PoolKey",
          "name": "",
          "type": "tuple"
        },
        {
          "internalType": "uint256",
          "name": "",
          "type": "uint256"
        },
        {
          "internalType": "uint256",
          "name": "",
          "type": "uint256"
        },
        {
          "internalType": "bytes",
          "name": "",
          "type": "bytes"
        }
      ],
      "name": "afterDonate",
      "outputs": [
        {
          "internalType": "bytes4",
          "name": "",
          "type": "bytes4"
        }
      ],
      "stateMutability": "nonpayable",
      "type": "function"
    },
    {
      "inputs": [
        {
          "internalType": "address",
          "name": "",
          "type": "address"
        },
        {
          "components": [
            {
              "internalType": "Currency",
              "name": "currency0",
              "type": "address"
            },
            {
              "internalType": "Currency",
              "name": "currency1",
              "type": "address"
            },
            {
              "internalType": "uint24",
              "name": "fee",
              "type": "uint24"
            },
            {
              "internalType": "int24",
              "name": "tickSpacing",
              "type": "int24"
            },
            {
              "internalType": "contract IHooks",
              "name": "hooks",
              "type": "address"
            }
          ],
          "internalType": "struct PoolKey",
          "name": "",
          "type": "tuple"
        },
        {
          "internalType": "uint160",
          "name": "",
          "type": "uint160"
        },
        {
          "internalType": "int24",
          "name": "",
          "type": "int24"
        },
        {
          "internalType": "bytes",
          "name": "",
          "type": "bytes"
        }
      ],
      "name": "afterInitialize",
      "outputs": [
        {
          "internalType": "bytes4",
          "name": "",
          "type": "bytes4"
        }
      ],
      "stateMutability": "nonpayable",
      "type": "function"
    },
    {
      "inputs": [
        {
          "internalType": "address",
          "name": "",
          "type": "address"
        },
        {
          "components": [
            {
              "internalType": "Currency",
              "name": "currency0",
              "type": "address"
            },
            {
              "internalType": "Currency",
              "name": "currency1",
              "type": "address"
            },
            {
              "internalType": "uint24",
              "name": "fee",
              "type": "uint24"
            },
            {
              "internalType": "int24",
              "name": "tickSpacing",
              "type": "int24"
            },
            {
              "internalType": "contract IHooks",
              "name": "hooks",
              "type": "address"
            }
          ],
          "internalType": "struct PoolKey",
          "name": "",
          "type": "tuple"
        },
        {
          "components": [
            {
              "internalType": "int24",
              "name": "tickLower",
              "type": "int24"
            },
            {
              "internalType": "int24",
              "name": "tickUpper",
              "type": "int24"
            },
            {
              "internalType": "int256",
              "name": "liquidityDelta",
              "type": "int256"
            }
          ],
          "internalType": "struct IPoolManager.ModifyPositionParams",
          "name": "",
          "type": "tuple"
        },
        {
          "internalType": "BalanceDelta",
          "name": "",
          "type": "int256"
        },
        {
          "internalType": "bytes",
          "name": "",
          "type": "bytes"
        }
      ],
      "name": "afterModifyPosition",
      "outputs": [
        {
          "internalType": "bytes4",
          "name": "",
          "type": "bytes4"
        }
      ],
      "stateMutability": "nonpayable",
      "type": "function"
    },
    {
      "inputs": [
        {
          "internalType": "address",
          "name": "",
          "type": "address"
        },
        {
          "components": [
            {
              "internalType": "Currency",
              "name": "currency0",
              "type": "address"
            },
            {
              "internalType": "Currency",
              "name": "currency1",
              "type": "address"
            },
            {
              "internalType": "uint24",
              "name": "fee",
              "type": "uint24"
            },
            {
              "internalType": "int24",
              "name": "tickSpacing",
              "type": "int24"
            },
            {
              "internalType": "contract IHooks",
              "name": "hooks",
              "type": "address"
            }
          ],
          "internalType": "struct PoolKey",
          "name": "",
          "type": "tuple"
        },
        {
          "components": [
            {
              "internalType": "bool",
              "name": "zeroForOne",
              "type": "bool"
            },
            {
              "internalType": "int256",
              "name": "amountSpecified",
              "type": "int256"
            },
            {
              "internalType": "uint160",
              "name": "sqrtPriceLimitX96",
              "type": "uint160"
            }
          ],
          "internalType": "struct IPoolManager.SwapParams",
          "name": "",
          "type": "tuple"
        },
        {
          "internalType": "BalanceDelta",
          "name": "",
          "type": "int256"
        },
        {
          "internalType": "bytes",
          "name": "",
          "type": "bytes"
        }
      ],
      "name": "afterSwap",
      "outputs": [
        {
          "internalType": "bytes4",
          "name": "",
          "type": "bytes4"
        }
      ],
      "stateMutability": "nonpayable",
      "type": "function"
    },
    {
      "inputs": [
        {
          "internalType": "address",
          "name": "",
          "type": "address"
        },
        {
          "components": [
            {
              "internalType": "Currency",
              "name": "currency0",
              "type": "address"
            },
            {
              "internalType": "Currency",
              "name": "currency1",
              "type": "address"
            },
            {
              "internalType": "uint24",
              "name": "fee",
              "type": "uint24"
            },
            {
              "internalType": "int24",
              "name": "tickSpacing",
              "type": "int24"
            },
            {
              "internalType": "contract IHooks",
              "name": "hooks",
              "type": "address"
            }
          ],
          "internalType": "struct PoolKey",
          "name": "",
          "type": "tuple"
        },
        {
          "internalType": "uint256",
          "name": "",
          "type": "uint256"
        },
        {
          "internalType": "uint256",
          "name": "",
          "type": "uint256"
        },
        {
          "internalType": "bytes",
          "name": "",
          "type": "bytes"
        }
      ],
      "name": "beforeDonate",
      "outputs": [
        {
          "internalType": "bytes4",
          "name": "",
          "type": "bytes4"
        }
      ],
      "stateMutability": "nonpayable",
      "type": "function"
    },
    {
      "inputs": [
        {
          "internalType": "address",
          "name": "",
          "type": "address"
        },
        {
          "components": [
            {
              "internalType": "Currency",
              "name": "currency0",
              "type": "address"
            },
            {
              "internalType": "Currency",
              "name": "currency1",
              "type": "address"
            },
            {
              "internalType": "uint24",
              "name": "fee",
              "type": "uint24"
            },
            {
              "internalType": "int24",
              "name": "tickSpacing",
              "type": "int24"
            },
            {
              "internalType": "contract IHooks",
              "name": "hooks",
              "type": "address"
            }
          ],
          "internalType": "struct PoolKey",
          "name": "",
          "type": "tuple"
        },
        {
          "internalType": "uint160",
          "name": "",
          "type": "uint160"
        },
        {
          "internalType": "bytes",
          "name": "",
          "type": "bytes"
        }
      ],
      "name": "beforeInitialize",
      "outputs": [
        {
          "internalType": "bytes4",
          "name": "",
          "type": "bytes4"
        }
      ],
      "stateMutability": "nonpayable",
      "type": "function"
    },
    {
      "inputs": [
        {
          "internalType": "address",
          "name": "",
          "type": "address"
        },
        {
          "components": [
            {
              "internalType": "Currency",
              "name": "currency0",
              "type": "address"
            },
            {
              "internalType": "Currency",
              "name": "currency1",
              "type": "address"
            },
            {
              "internalType": "uint24",
              "name": "fee",
              "type": "uint24"
            },
            {
              "internalType": "int24",
              "name": "tickSpacing",
              "type": "int24"
            },
            {
              "internalType": "contract IHooks",
              "name": "hooks",
              "type": "address"
            }
          ],
          "internalType": "struct PoolKey",
          "name": "",
          "type": "tuple"
        },
        {
          "components": [
            {
              "internalType": "int24",
              "name": "tickLower",
              "type": "int24"
            },
            {
              "internalType": "int24",
              "name": "tickUpper",
              "type": "int24"
            },
            {
              "internalType": "int256",
              "name": "liquidityDelta",
              "type": "int256"
            }
          ],
          "internalType": "struct IPoolManager.ModifyPositionParams",
          "name": "",
          "type": "tuple"
        },
        {
          "internalType": "bytes",
          "name": "",
          "type": "bytes"
        }
      ],
      "name": "beforeModifyPosition",
      "outputs": [
        {
          "internalType": "bytes4",
          "name": "",
          "type": "bytes4"
        }
      ],
      "stateMutability": "view",
      "type": "function"
    },
    {
      "inputs": [
        {
          "internalType": "address",
          "name": "",
          "type": "address"
        },
        {
          "components": [
            {
              "internalType": "Currency",
              "name": "currency0",
              "type": "address"
            },
            {
              "internalType": "Currency",
              "name": "currency1",
              "type": "address"
            },
            {
              "internalType": "uint24",
              "name": "fee",
              "type": "uint24"
            },
            {
              "internalType": "int24",
              "name": "tickSpacing",
              "type": "int24"
            },
            {
              "internalType": "contract IHooks",
              "name": "hooks",
              "type": "address"
            }
          ],
          "internalType": "struct PoolKey",
          "name": "",
          "type": "tuple"
        },
        {
          "components": [
            {
              "internalType": "bool",
              "name": "zeroForOne",
              "type": "bool"
            },
            {
              "internalType": "int256",
              "name": "amountSpecified",
              "type": "int256"
            },
            {
              "internalType": "uint160",
              "name": "sqrtPriceLimitX96",
              "type": "uint160"
            }
          ],
          "internalType": "struct IPoolManager.SwapParams",
          "name": "",
          "type": "tuple"
        },
        {
          "internalType": "bytes",
          "name": "",
          "type": "bytes"
        }
      ],
      "name": "beforeSwap",
      "outputs": [
        {
          "internalType": "bytes4",
          "name": "",
          "type": "bytes4"
        }
      ],
      "stateMutability": "view",
      "type": "function"
    },
    {
      "inputs": [],
      "name": "cancelOwnershipHandover",
      "outputs": [],
      "stateMutability": "payable",
      "type": "function"
    },
    {
      "inputs": [
        {
          "internalType": "address",
          "name": "pendingOwner",
          "type": "address"
        }
      ],
      "name": "completeOwnershipHandover",
      "outputs": [],
      "stateMutability": "payable",
      "type": "function"
    },
    {
      "inputs": [],
      "name": "depositEth",
      "outputs": [],
      "stateMutability": "payable",
      "type": "function"
    },
    {
      "inputs": [],
      "name": "getHooksCalls",
      "outputs": [
        {
          "components": [
            {
              "internalType": "bool",
              "name": "beforeInitialize",
              "type": "bool"
            },
            {
              "internalType": "bool",
              "name": "afterInitialize",
              "type": "bool"
            },
            {
              "internalType": "bool",
              "name": "beforeModifyPosition",
              "type": "bool"
            },
            {
              "internalType": "bool",
              "name": "afterModifyPosition",
              "type": "bool"
            },
            {
              "internalType": "bool",
              "name": "beforeSwap",
              "type": "bool"
            },
            {
              "internalType": "bool",
              "name": "afterSwap",
              "type": "bool"
            },
            {
              "internalType": "bool",
              "name": "beforeDonate",
              "type": "bool"
            },
            {
              "internalType": "bool",
              "name": "afterDonate",
              "type": "bool"
            }
          ],
          "internalType": "struct Hooks.Calls",
          "name": "",
          "type": "tuple"
        }
      ],
      "stateMutability": "pure",
      "type": "function"
    },
    {
      "inputs": [
        {
          "components": [
            {
              "internalType": "Currency",
              "name": "currency0",
              "type": "address"
            },
            {
              "internalType": "Currency",
              "name": "currency1",
              "type": "address"
            },
            {
              "internalType": "uint24",
              "name": "fee",
              "type": "uint24"
            },
            {
              "internalType": "int24",
              "name": "tickSpacing",
              "type": "int24"
            },
            {
              "internalType": "contract IHooks",
              "name": "hooks",
              "type": "address"
            }
          ],
          "internalType": "struct PoolKey",
          "name": "key",
          "type": "tuple"
        },
        {
          "components": [
            {
              "internalType": "int24",
              "name": "tickLower",
              "type": "int24"
            },
            {
              "internalType": "int24",
              "name": "tickUpper",
              "type": "int24"
            },
            {
              "internalType": "int256",
              "name": "liquidityDelta",
              "type": "int256"
            }
          ],
          "internalType": "struct IPoolManager.ModifyPositionParams",
          "name": "params",
          "type": "tuple"
        },
        {
          "internalType": "address",
          "name": "caller",
          "type": "address"
        }
      ],
      "name": "handleModifyPosition",
      "outputs": [
        {
          "internalType": "BalanceDelta",
          "name": "delta",
          "type": "int256"
        }
      ],
      "stateMutability": "nonpayable",
      "type": "function"
    },
    {
      "inputs": [
        {
          "components": [
            {
              "internalType": "Currency",
              "name": "currency0",
              "type": "address"
            },
            {
              "internalType": "Currency",
              "name": "currency1",
              "type": "address"
            },
            {
              "internalType": "uint24",
              "name": "fee",
              "type": "uint24"
            },
            {
              "internalType": "int24",
              "name": "tickSpacing",
              "type": "int24"
            },
            {
              "internalType": "contract IHooks",
              "name": "hooks",
              "type": "address"
            }
          ],
          "internalType": "struct PoolKey",
          "name": "key",
          "type": "tuple"
        },
        {
          "components": [
            {
              "internalType": "bool",
              "name": "zeroForOne",
              "type": "bool"
            },
            {
              "internalType": "int256",
              "name": "amountSpecified",
              "type": "int256"
            },
            {
              "internalType": "uint160",
              "name": "sqrtPriceLimitX96",
              "type": "uint160"
            }
          ],
          "internalType": "struct IPoolManager.SwapParams",
          "name": "params",
          "type": "tuple"
        },
        {
          "internalType": "address",
          "name": "sender",
          "type": "address"
        }
      ],
      "name": "handleSwap",
      "outputs": [
        {
          "internalType": "BalanceDelta",
          "name": "delta",
          "type": "int256"
        }
      ],
      "stateMutability": "nonpayable",
      "type": "function"
    },
    {
      "inputs": [
        {
          "internalType": "address",
          "name": "",
          "type": "address"
        }
      ],
      "name": "isFunder",
      "outputs": [
        {
          "internalType": "bool",
          "name": "",
          "type": "bool"
        }
      ],
      "stateMutability": "view",
      "type": "function"
    },
    {
      "inputs": [],
      "name": "launch",
      "outputs": [],
      "stateMutability": "nonpayable",
      "type": "function"
    },
    {
      "inputs": [
        {
          "internalType": "bytes",
          "name": "data",
          "type": "bytes"
        }
      ],
      "name": "lockAcquired",
      "outputs": [
        {
          "internalType": "bytes",
          "name": "",
          "type": "bytes"
        }
      ],
      "stateMutability": "nonpayable",
      "type": "function"
    },
    {
      "inputs": [],
      "name": "owner",
      "outputs": [
        {
          "internalType": "address",
          "name": "result",
          "type": "address"
        }
      ],
      "stateMutability": "view",
      "type": "function"
    },
    {
      "inputs": [
        {
          "internalType": "address",
          "name": "pendingOwner",
          "type": "address"
        }
      ],
      "name": "ownershipHandoverExpiresAt",
      "outputs": [
        {
          "internalType": "uint256",
          "name": "result",
          "type": "uint256"
        }
      ],
      "stateMutability": "view",
      "type": "function"
    },
    {
      "inputs": [],
      "name": "poolManager",
      "outputs": [
        {
          "internalType": "contract IPoolManager",
          "name": "",
          "type": "address"
        }
      ],
      "stateMutability": "view",
      "type": "function"
    },
    {
      "inputs": [],
      "name": "quit",
      "outputs": [],
      "stateMutability": "nonpayable",
      "type": "function"
    },
    {
      "inputs": [],
      "name": "renounceOwnership",
      "outputs": [],
      "stateMutability": "payable",
      "type": "function"
    },
    {
      "inputs": [],
      "name": "requestOwnershipHandover",
      "outputs": [],
      "stateMutability": "payable",
      "type": "function"
    },
    {
      "inputs": [],
      "name": "tokenAddress",
      "outputs": [
        {
          "internalType": "address",
          "name": "",
          "type": "address"
        }
      ],
      "stateMutability": "view",
      "type": "function"
    },
    {
      "inputs": [
        {
          "internalType": "address",
          "name": "newOwner",
          "type": "address"
        }
      ],
      "name": "transferOwnership",
      "outputs": [],
      "stateMutability": "payable",
      "type": "function"
    },
    {
      "inputs": [],
      "name": "unlockTime",
      "outputs": [
        {
          "internalType": "uint256",
          "name": "",
          "type": "uint256"
        }
      ],
      "stateMutability": "view",
      "type": "function"
    },
    {
      "stateMutability": "payable",
      "type": "receive"
    }
  ],
  "bytecode": "0x60a06040526301e13380426200001691906200076a565b6000556000600960016101000a81548173ffffffffffffffffffffffffffffffffffffffff021916908373ffffffffffffffffffffffffffffffffffffffff160217905550600067ffffffffffffffff811115620000795762000078620007a5565b5b604051908082528060200260200182016040528015620000a85781602001602082028036833780820191505090505b50600b9080519060200190620000c09291906200062e565b50348015620000ce57600080fd5b506040516200ae213803806200ae218339818101604052810190620000f49190620009ef565b838073ffffffffffffffffffffffffffffffffffffffff1660808173ffffffffffffffffffffffffffffffffffffffff16815250506200013a306200019560201b60201c565b506200014c33620001b960201b60201c565b82600790816200015d919062000ce0565b5081600890816200016f919062000ce0565b5080600960006101000a81548160ff021916908360ff1602179055505050505062000df5565b620001b681620001aa6200029f60201b60201c565b6200030060201b60201c565b50565b620001c96200046160201b60201c565b1562000247577fffffffffffffffffffffffffffffffffffffffffffffffffffffffff748739278054156200020657630dc149f06000526004601cfd5b8160601b60601c9150811560ff1b821781558160007f8be0079c531659141344cd1fd0a4f28419497f9722a3daafe3b4186f6b6457e0600080a3506200029c565b8060601b60601c9050807fffffffffffffffffffffffffffffffffffffffffffffffffffffffff74873927558060007f8be0079c531659141344cd1fd0a4f28419497f9722a3daafe3b4186f6b6457e0600080a35b50565b620002a9620006bd565b60405180610100016040528060011515815260200160011515815260200160011515815260200160001515815260200160011515815260200160001515815260200160001515815260200160001515815250905090565b62000311826200046660201b60201c565b15158160000151151514158062000340575062000334826200049f60201b60201c565b15158160200151151514155b806200036457506200035882620004d860201b60201c565b15158160400151151514155b806200038857506200037c826200051160201b60201c565b15158160600151151514155b80620003ac5750620003a0826200054a60201b60201c565b15158160800151151514155b80620003d05750620003c4826200058360201b60201c565b15158160a00151151514155b80620003f45750620003e882620005bc60201b60201c565b15158160c00151151514155b806200041857506200040c82620005f560201b60201c565b15158160e00151151514155b156200045d57816040517fe65af6a000000000000000000000000000000000000000000000000000000000815260040162000454919062000dd8565b60405180910390fd5b5050565b600090565b6000807380000000000000000000000000000000000000008373ffffffffffffffffffffffffffffffffffffffff161614159050919050565b6000807340000000000000000000000000000000000000008373ffffffffffffffffffffffffffffffffffffffff161614159050919050565b6000807320000000000000000000000000000000000000008373ffffffffffffffffffffffffffffffffffffffff161614159050919050565b6000807310000000000000000000000000000000000000008373ffffffffffffffffffffffffffffffffffffffff161614159050919050565b6000807308000000000000000000000000000000000000008373ffffffffffffffffffffffffffffffffffffffff161614159050919050565b6000807304000000000000000000000000000000000000008373ffffffffffffffffffffffffffffffffffffffff161614159050919050565b6000807302000000000000000000000000000000000000008373ffffffffffffffffffffffffffffffffffffffff161614159050919050565b6000807301000000000000000000000000000000000000008373ffffffffffffffffffffffffffffffffffffffff161614159050919050565b828054828255906000526020600020908101928215620006aa579160200282015b82811115620006a95782518260006101000a81548173ffffffffffffffffffffffffffffffffffffffff021916908373ffffffffffffffffffffffffffffffffffffffff160217905550916020019190600101906200064f565b5b509050620006b9919062000712565b5090565b6040518061010001604052806000151581526020016000151581526020016000151581526020016000151581526020016000151581526020016000151581526020016000151581526020016000151581525090565b5b808211156200072d57600081600090555060010162000713565b5090565b6000819050919050565b7f4e487b7100000000000000000000000000000000000000000000000000000000600052601160045260246000fd5b6000620007778262000731565b9150620007848362000731565b92508282019050808211156200079f576200079e6200073b565b5b92915050565b7f4e487b7100000000000000000000000000000000000000000000000000000000600052604160045260246000fd5b6000604051905090565b600080fd5b600080fd5b600073ffffffffffffffffffffffffffffffffffffffff82169050919050565b60006200081582620007e8565b9050919050565b6000620008298262000808565b9050919050565b6200083b816200081c565b81146200084757600080fd5b50565b6000815190506200085b8162000830565b92915050565b600080fd5b600080fd5b6000601f19601f8301169050919050565b62000887826200086b565b810181811067ffffffffffffffff82111715620008a957620008a8620007a5565b5b80604052505050565b6000620008be620007d4565b9050620008cc82826200087c565b919050565b600067ffffffffffffffff821115620008ef57620008ee620007a5565b5b620008fa826200086b565b9050602081019050919050565b60005b83811015620009275780820151818401526020810190506200090a565b60008484015250505050565b60006200094a6200094484620008d1565b620008b2565b90508281526020810184848401111562000969576200096862000866565b5b6200097684828562000907565b509392505050565b600082601f83011262000996576200099562000861565b5b8151620009a884826020860162000933565b91505092915050565b600060ff82169050919050565b620009c981620009b1565b8114620009d557600080fd5b50565b600081519050620009e981620009be565b92915050565b6000806000806080858703121562000a0c5762000a0b620007de565b5b600062000a1c878288016200084a565b945050602085015167ffffffffffffffff81111562000a405762000a3f620007e3565b5b62000a4e878288016200097e565b935050604085015167ffffffffffffffff81111562000a725762000a71620007e3565b5b62000a80878288016200097e565b925050606062000a9387828801620009d8565b91505092959194509250565b600081519050919050565b7f4e487b7100000000000000000000000000000000000000000000000000000000600052602260045260246000fd5b6000600282049050600182168062000af257607f821691505b60208210810362000b085762000b0762000aaa565b5b50919050565b60008190508160005260206000209050919050565b60006020601f8301049050919050565b600082821b905092915050565b60006008830262000b727fffffffffffffffffffffffffffffffffffffffffffffffffffffffffffffffff8262000b33565b62000b7e868362000b33565b95508019841693508086168417925050509392505050565b6000819050919050565b600062000bc162000bbb62000bb58462000731565b62000b96565b62000731565b9050919050565b6000819050919050565b62000bdd8362000ba0565b62000bf562000bec8262000bc8565b84845462000b40565b825550505050565b600090565b62000c0c62000bfd565b62000c1981848462000bd2565b505050565b5b8181101562000c415762000c3560008262000c02565b60018101905062000c1f565b5050565b601f82111562000c905762000c5a8162000b0e565b62000c658462000b23565b8101602085101562000c75578190505b62000c8d62000c848562000b23565b83018262000c1e565b50505b505050565b600082821c905092915050565b600062000cb56000198460080262000c95565b1980831691505092915050565b600062000cd0838362000ca2565b9150826002028217905092915050565b62000ceb8262000a9f565b67ffffffffffffffff81111562000d075762000d06620007a5565b5b62000d13825462000ad9565b62000d2082828562000c45565b600060209050601f83116001811462000d58576000841562000d43578287015190505b62000d4f858262000cc2565b86555062000dbf565b601f19841662000d688662000b0e565b60005b8281101562000d925784890151825560018201915060208501945060208101905062000d6b565b8683101562000db2578489015162000dae601f89168262000ca2565b8355505b6001600288020188555050505b505050505050565b62000dd28162000808565b82525050565b600060208201905062000def600083018462000dc7565b92915050565b608051619f7662000eab600039600081816108f801528181610a0b01528181610af401528181610b8601528181610c4501528181610d3a01528181610e2301528181610eb501528181610f74015281816114240152818161152c01528181611616015281816116a9015281816117930152818161187d01528181611910015281816119cf01528181611a9301528181611bb801528181611d7701528181612148015281816121e101526125970152619f766000f3fe608060405260043610620001ab5760003560e01c80638da5cb5b11620000e5578063dc4c90d31162000097578063f2fde38b116200006d578063f2fde38b14620005fe578063fc2b8cc3146200061e578063fe9a6f451462000638578063fee81cf4146200067c57620001b3565b8063dc4c90d3146200056a578063e1b4af69146200059a578063f04e283e14620005de57620001b3565b80638da5cb5b14620003fa5780639d76ea58146200042a578063a910f80f146200045a578063ab6291fe146200049e578063b47b2fb114620004e2578063b6a8b0fa146200052657620001b3565b80633440d820116200015d578063575e24b41162000133578063575e24b41462000336578063612c39b7146200037a578063715018a614620003aa57806371e1635914620003b657620001b3565b80633440d82014620002da578063439370b1146200031e57806354d1f13d146200032a57620001b3565b806301339c2114620001b85780631ea4887014620001d2578063251c1aa3146200021657806325692962146200024657806330b7cdef146200025257806333b50f8a146200029657620001b3565b36620001b357005b600080fd5b348015620001c557600080fd5b50620001d0620006c0565b005b348015620001df57600080fd5b50620001fe6004803603810190620001f8919062003032565b62000844565b6040516200020d919062003081565b60405180910390f35b3480156200022357600080fd5b506200022e62000864565b6040516200023d9190620030b9565b60405180910390f35b620002506200086a565b005b3480156200025f57600080fd5b506200027e6004803603810190620002789190620031c8565b620008c0565b6040516200028d9190620032b2565b60405180910390f35b348015620002a357600080fd5b50620002c26004803603810190620002bc9190620035fa565b620008f4565b604051620002d191906200369b565b60405180910390f35b348015620002e757600080fd5b50620003066004803603810190620003009190620036b8565b62001027565b604051620003159190620032b2565b60405180910390f35b6200032862001046565b005b62000334620012ba565b005b3480156200034357600080fd5b506200036260048036038101906200035c919062003771565b620012f6565b604051620003719190620032b2565b60405180910390f35b3480156200038757600080fd5b5062000392620013a7565b604051620003a19190620038cc565b60405180910390f35b620003b462001408565b005b348015620003c357600080fd5b50620003e26004803603810190620003dc919062003959565b62001420565b604051620003f191906200369b565b60405180910390f35b3480156200040757600080fd5b506200041262001b45565b604051620004219190620039c8565b60405180910390f35b3480156200043757600080fd5b506200044262001b6e565b604051620004519190620039c8565b60405180910390f35b3480156200046757600080fd5b50620004866004803603810190620004809190620039e5565b62001b94565b604051620004959190620032b2565b60405180910390f35b348015620004ab57600080fd5b50620004ca6004803603810190620004c4919062003a91565b62001bb4565b604051620004d9919062003b6f565b60405180910390f35b348015620004ef57600080fd5b506200050e600480360381019062000508919062003b93565b62001d0d565b6040516200051d9190620032b2565b60405180910390f35b3480156200053357600080fd5b506200055260048036038101906200054c919062003c71565b62001d41565b604051620005619190620032b2565b60405180910390f35b3480156200057757600080fd5b506200058262001d75565b60405162000591919062003d7e565b60405180910390f35b348015620005a757600080fd5b50620005c66004803603810190620005c0919062003c71565b62001d99565b604051620005d59190620032b2565b60405180910390f35b620005fc6004803603810190620005f6919062003032565b62001dcd565b005b6200061c600480360381019062000616919062003032565b62001e13565b005b3480156200062b57600080fd5b506200063662001e8a565b005b3480156200064557600080fd5b506200066460048036038101906200065e919062003d9b565b62002057565b604051620006739190620032b2565b60405180910390f35b3480156200068957600080fd5b50620006a86004803603810190620006a2919062003032565b620020f2565b604051620006b79190620030b9565b60405180910390f35b620006ca6200210d565b600073ffffffffffffffffffffffffffffffffffffffff16600960019054906101000a900473ffffffffffffffffffffffffffffffffffffffff1673ffffffffffffffffffffffffffffffffffffffff16146200075e576040517f08c379a0000000000000000000000000000000000000000000000000000000008152600401620007559062003e94565b60405180910390fd5b60004711620007a4576040517f08c379a00000000000000000000000000000000000000000000000000000000081526004016200079b9062003f06565b60405180910390fd5b600060076008600960009054906101000a900460ff16604051620007c89062002f3a565b620007d6939291906200404f565b604051809103906000f080158015620007f3573d6000803e3d6000fd5b50905080600960016101000a81548173ffffffffffffffffffffffffffffffffffffffff021916908373ffffffffffffffffffffffffffffffffffffffff1602179055506200084162002146565b50565b600a6020528060005260406000206000915054906101000a900460ff1681565b60005481565b6000620008766200266a565b67ffffffffffffffff164201905063389a75e1600c5233600052806020600c2055337fdbf36a107da19e49527a7176a1babf963b4b0ff8cde35ee35d6cd8f1f9ac7e1d600080a250565b60006040517f0a85dc2900000000000000000000000000000000000000000000000000000000815260040160405180910390fd5b60007f000000000000000000000000000000000000000000000000000000000000000073ffffffffffffffffffffffffffffffffffffffff1663f3cd914c85856040516020016200094590620040c4565b6040516020818303038152906040526040518463ffffffff1660e01b815260040162000974939291906200422e565b6020604051808303816000875af115801562000994573d6000803e3d6000fd5b505050506040513d601f19601f82011682018060405250810190620009ba91906200428b565b905082600001511562000cf6576000620009d48262002675565b600f0b131562000c2c5762000a03846000015173ffffffffffffffffffffffffffffffffffffffff1662002682565b1562000ad2577f000000000000000000000000000000000000000000000000000000000000000073ffffffffffffffffffffffffffffffffffffffff16636a256b2962000a508362002675565b6fffffffffffffffffffffffffffffffff1686600001516040518363ffffffff1660e01b815260040162000a859190620042ce565b60206040518083038185885af115801562000aa4573d6000803e3d6000fd5b50505050506040513d601f19601f8201168201806040525081019062000acb919062004302565b5062000c2b565b836000015173ffffffffffffffffffffffffffffffffffffffff1663a9059cbb7f000000000000000000000000000000000000000000000000000000000000000062000b1e8462002675565b6040518363ffffffff1660e01b815260040162000b3d92919062004389565b6020604051808303816000875af115801562000b5d573d6000803e3d6000fd5b505050506040513d601f19601f8201168201806040525081019062000b839190620043cd565b507f000000000000000000000000000000000000000000000000000000000000000073ffffffffffffffffffffffffffffffffffffffff16636a256b2985600001516040518263ffffffff1660e01b815260040162000be39190620042ce565b6020604051808303816000875af115801562000c03573d6000803e3d6000fd5b505050506040513d601f19601f8201168201806040525081019062000c29919062004302565b505b5b600062000c3982620026ba565b600f0b121562000cf0577f000000000000000000000000000000000000000000000000000000000000000073ffffffffffffffffffffffffffffffffffffffff16630b0d9c0985602001518462000c9085620026ba565b62000c9b906200443b565b6040518463ffffffff1660e01b815260040162000cbb9392919062004488565b600060405180830381600087803b15801562000cd657600080fd5b505af115801562000ceb573d6000803e3d6000fd5b505050505b62001020565b600062000d0382620026ba565b600f0b131562000f5b5762000d32846020015173ffffffffffffffffffffffffffffffffffffffff1662002682565b1562000e01577f000000000000000000000000000000000000000000000000000000000000000073ffffffffffffffffffffffffffffffffffffffff16636a256b2962000d7f83620026ba565b6fffffffffffffffffffffffffffffffff1686602001516040518363ffffffff1660e01b815260040162000db49190620042ce565b60206040518083038185885af115801562000dd3573d6000803e3d6000fd5b50505050506040513d601f19601f8201168201806040525081019062000dfa919062004302565b5062000f5a565b836020015173ffffffffffffffffffffffffffffffffffffffff1663a9059cbb7f000000000000000000000000000000000000000000000000000000000000000062000e4d84620026ba565b6040518363ffffffff1660e01b815260040162000e6c92919062004389565b6020604051808303816000875af115801562000e8c573d6000803e3d6000fd5b505050506040513d601f19601f8201168201806040525081019062000eb29190620043cd565b507f000000000000000000000000000000000000000000000000000000000000000073ffffffffffffffffffffffffffffffffffffffff16636a256b2985602001516040518263ffffffff1660e01b815260040162000f129190620042ce565b6020604051808303816000875af115801562000f32573d6000803e3d6000fd5b505050506040513d601f19601f8201168201806040525081019062000f58919062004302565b505b5b600062000f688262002675565b600f0b12156200101f577f000000000000000000000000000000000000000000000000000000000000000073ffffffffffffffffffffffffffffffffffffffff16630b0d9c0985600001518462000fbf8562002675565b62000fca906200443b565b6040518463ffffffff1660e01b815260040162000fea9392919062004488565b600060405180830381600087803b1580156200100557600080fd5b505af11580156200101a573d6000803e3d6000fd5b505050505b5b9392505050565b600062001033620026c4565b633440d82060e01b905095945050505050565b600073ffffffffffffffffffffffffffffffffffffffff16600960019054906101000a900473ffffffffffffffffffffffffffffffffffffffff1673ffffffffffffffffffffffffffffffffffffffff1614620010da576040517f08c379a0000000000000000000000000000000000000000000000000000000008152600401620010d19062003e94565b60405180910390fd5b6000341162001120576040517f08c379a0000000000000000000000000000000000000000000000000000000008152600401620011179062003f06565b60405180910390fd5b6703782dace9d9000034146200116d576040517f08c379a0000000000000000000000000000000000000000000000000000000008152600401620011649062004515565b60405180910390fd5b600a60003373ffffffffffffffffffffffffffffffffffffffff1673ffffffffffffffffffffffffffffffffffffffff16815260200190815260200160002060009054906101000a900460ff1615620011fd576040517f08c379a0000000000000000000000000000000000000000000000000000000008152600401620011f49062004587565b60405180910390fd5b6001600a60003373ffffffffffffffffffffffffffffffffffffffff1673ffffffffffffffffffffffffffffffffffffffff16815260200190815260200160002060006101000a81548160ff021916908315150217905550600b339080600181540180825580915050600190039060005260206000200160009091909190916101000a81548173ffffffffffffffffffffffffffffffffffffffff021916908373ffffffffffffffffffffffffffffffffffffffff160217905550565b63389a75e1600c523360005260006020600c2055337ffa7b8eab7da67f412cc9575ed43464468f9bfbae89d1675917346ca6d8fe3c92600080a2565b6000600a60003373ffffffffffffffffffffffffffffffffffffffff1673ffffffffffffffffffffffffffffffffffffffff16815260200190815260200160002060009054906101000a900460ff1615620013945760005442101562001393576040517f08c379a00000000000000000000000000000000000000000000000000000000081526004016200138a906200461f565b60405180910390fd5b5b63575e24b460e01b905095945050505050565b620013b162002f48565b60405180610100016040528060011515815260200160011515815260200160011515815260200160001515815260200160011515815260200160001515815260200160001515815260200160001515815250905090565b620014126200210d565b6200141e600062002860565b565b60007f000000000000000000000000000000000000000000000000000000000000000073ffffffffffffffffffffffffffffffffffffffff166361ae449a85856040516020016200147190620040c4565b6040516020818303038152906040526040518463ffffffff1660e01b8152600401620014a09392919062004689565b6020604051808303816000875af1158015620014c0573d6000803e3d6000fd5b505050506040513d601f19601f82011682018060405250810190620014e691906200428b565b90506000620014f58262002675565b600f0b13156200174f5762001524846000015173ffffffffffffffffffffffffffffffffffffffff1662002682565b15620015f3577f000000000000000000000000000000000000000000000000000000000000000073ffffffffffffffffffffffffffffffffffffffff16636a256b29620015718362002675565b6fffffffffffffffffffffffffffffffff1686600001516040518363ffffffff1660e01b8152600401620015a69190620042ce565b60206040518083038185885af1158015620015c5573d6000803e3d6000fd5b50505050506040513d601f19601f82011682018060405250810190620015ec919062004302565b506200174e565b836000015173ffffffffffffffffffffffffffffffffffffffff166323b872dd837f0000000000000000000000000000000000000000000000000000000000000000620016408562002675565b6040518463ffffffff1660e01b81526004016200166093929190620046cf565b6020604051808303816000875af115801562001680573d6000803e3d6000fd5b505050506040513d601f19601f82011682018060405250810190620016a69190620043cd565b507f000000000000000000000000000000000000000000000000000000000000000073ffffffffffffffffffffffffffffffffffffffff16636a256b2985600001516040518263ffffffff1660e01b8152600401620017069190620042ce565b6020604051808303816000875af115801562001726573d6000803e3d6000fd5b505050506040513d601f19601f820116820180604052508101906200174c919062004302565b505b5b60006200175c82620026ba565b600f0b1315620019b6576200178b846020015173ffffffffffffffffffffffffffffffffffffffff1662002682565b156200185a577f000000000000000000000000000000000000000000000000000000000000000073ffffffffffffffffffffffffffffffffffffffff16636a256b29620017d883620026ba565b6fffffffffffffffffffffffffffffffff1686602001516040518363ffffffff1660e01b81526004016200180d9190620042ce565b60206040518083038185885af11580156200182c573d6000803e3d6000fd5b50505050506040513d601f19601f8201168201806040525081019062001853919062004302565b50620019b5565b836020015173ffffffffffffffffffffffffffffffffffffffff166323b872dd837f0000000000000000000000000000000000000000000000000000000000000000620018a785620026ba565b6040518463ffffffff1660e01b8152600401620018c793929190620046cf565b6020604051808303816000875af1158015620018e7573d6000803e3d6000fd5b505050506040513d601f19601f820116820180604052508101906200190d9190620043cd565b507f000000000000000000000000000000000000000000000000000000000000000073ffffffffffffffffffffffffffffffffffffffff16636a256b2985602001516040518263ffffffff1660e01b81526004016200196d9190620042ce565b6020604051808303816000875af11580156200198d573d6000803e3d6000fd5b505050506040513d601f19601f82011682018060405250810190620019b3919062004302565b505b5b6000620019c38262002675565b600f0b121562001a7a577f000000000000000000000000000000000000000000000000000000000000000073ffffffffffffffffffffffffffffffffffffffff16630b0d9c0985600001518462001a1a8562002675565b62001a25906200443b565b6040518463ffffffff1660e01b815260040162001a459392919062004488565b600060405180830381600087803b15801562001a6057600080fd5b505af115801562001a75573d6000803e3d6000fd5b505050505b600062001a8782620026ba565b600f0b121562001b3e577f000000000000000000000000000000000000000000000000000000000000000073ffffffffffffffffffffffffffffffffffffffff16630b0d9c0985602001518462001ade85620026ba565b62001ae9906200443b565b6040518463ffffffff1660e01b815260040162001b099392919062004488565b600060405180830381600087803b15801562001b2457600080fd5b505af115801562001b39573d6000803e3d6000fd5b505050505b9392505050565b60007fffffffffffffffffffffffffffffffffffffffffffffffffffffffff7487392754905090565b600960019054906101000a900473ffffffffffffffffffffffffffffffffffffffff1681565b600062001ba06200292c565b63a910f80f60e01b90509695505050505050565b60607f000000000000000000000000000000000000000000000000000000000000000073ffffffffffffffffffffffffffffffffffffffff163373ffffffffffffffffffffffffffffffffffffffff161462001c3c576040517fae18210a00000000000000000000000000000000000000000000000000000000815260040160405180910390fd5b6000803073ffffffffffffffffffffffffffffffffffffffff16858560405162001c689291906200474f565b6000604051808303816000865af19150503d806000811462001ca7576040519150601f19603f3d011682016040523d82523d6000602084013e62001cac565b606091505b5091509150811562001cc357809250505062001d07565b600081510362001cff576040517fa40afa3800000000000000000000000000000000000000000000000000000000815260040160405180910390fd5b805160208201fd5b92915050565b60006040517f0a85dc2900000000000000000000000000000000000000000000000000000000815260040160405180910390fd5b60006040517f0a85dc2900000000000000000000000000000000000000000000000000000000815260040160405180910390fd5b7f000000000000000000000000000000000000000000000000000000000000000081565b60006040517f0a85dc2900000000000000000000000000000000000000000000000000000000815260040160405180910390fd5b62001dd76200210d565b63389a75e1600c52806000526020600c20805442111562001e0057636f5e88186000526004601cfd5b600081555062001e108162002860565b50565b62001e1d6200210d565b60005442101562001e65576040517f08c379a000000000000000000000000000000000000000000000000000000000815260040162001e5c90620047e0565b60405180910390fd5b8060601b62001e7c57637448fbae6000526004601cfd5b62001e878162002860565b50565b600a60003373ffffffffffffffffffffffffffffffffffffffff1673ffffffffffffffffffffffffffffffffffffffff16815260200190815260200160002060009054906101000a900460ff1662001f19576040517f08c379a000000000000000000000000000000000000000000000000000000000815260040162001f109062004852565b60405180910390fd5b600073ffffffffffffffffffffffffffffffffffffffff16600960019054906101000a900473ffffffffffffffffffffffffffffffffffffffff1673ffffffffffffffffffffffffffffffffffffffff161462001fad576040517f08c379a000000000000000000000000000000000000000000000000000000000815260040162001fa49062003e94565b60405180910390fd5b6000600a60003373ffffffffffffffffffffffffffffffffffffffff1673ffffffffffffffffffffffffffffffffffffffff16815260200190815260200160002060006101000a81548160ff0219169083151502179055503373ffffffffffffffffffffffffffffffffffffffff166108fc6703782dace9d900009081150290604051600060405180830381858888f1935050505015801562002054573d6000803e3d6000fd5b50565b60006200206362001b45565b73ffffffffffffffffffffffffffffffffffffffff163373ffffffffffffffffffffffffffffffffffffffff1603620020df57600054421015620020de576040517f08c379a0000000000000000000000000000000000000000000000000000000008152600401620020d590620048ea565b60405180910390fd5b5b63fe9a6f4560e01b905095945050505050565b600063389a75e1600c52816000526020600c20549050919050565b7fffffffffffffffffffffffffffffffffffffffffffffffffffffffff7487392754331462002144576382b429006000526004601cfd5b565b7f0000000000000000000000000000000000000000000000000000000000000000604051620021759062002f9d565b62002181919062003d7e565b604051809103906000f0801580156200219e573d6000803e3d6000fd5b50600160006101000a81548173ffffffffffffffffffffffffffffffffffffffff021916908373ffffffffffffffffffffffffffffffffffffffff1602179055507f00000000000000000000000000000000000000000000000000000000000000006040516200220e9062002fab565b6200221a919062003d7e565b604051809103906000f08015801562002237573d6000803e3d6000fd5b50600260006101000a81548173ffffffffffffffffffffffffffffffffffffffff021916908373ffffffffffffffffffffffffffffffffffffffff1602179055506040518060a00160405280600073ffffffffffffffffffffffffffffffffffffffff168152602001600960019054906101000a900473ffffffffffffffffffffffffffffffffffffffff1673ffffffffffffffffffffffffffffffffffffffff168152602001610bb862ffffff168152602001603c60020b81526020013073ffffffffffffffffffffffffffffffffffffffff16815250600360008201518160000160006101000a81548173ffffffffffffffffffffffffffffffffffffffff021916908373ffffffffffffffffffffffffffffffffffffffff16021790555060208201518160010160006101000a81548173ffffffffffffffffffffffffffffffffffffffff021916908373ffffffffffffffffffffffffffffffffffffffff16021790555060408201518160010160146101000a81548162ffffff021916908362ffffff16021790555060608201518160010160176101000a81548162ffffff021916908360020b62ffffff16021790555060808201518160020160006101000a81548173ffffffffffffffffffffffffffffffffffffffff021916908373ffffffffffffffffffffffffffffffffffffffff1602179055509050506200258f60036040518060a00160405290816000820160009054906101000a900473ffffffffffffffffffffffffffffffffffffffff1673ffffffffffffffffffffffffffffffffffffffff1673ffffffffffffffffffffffffffffffffffffffff1681526020016001820160009054906101000a900473ffffffffffffffffffffffffffffffffffffffff1673ffffffffffffffffffffffffffffffffffffffff1673ffffffffffffffffffffffffffffffffffffffff1681526020016001820160149054906101000a900462ffffff1662ffffff1662ffffff1681526020016001820160179054906101000a900460020b60020b60020b81526020016002820160009054906101000a900473ffffffffffffffffffffffffffffffffffffffff1673ffffffffffffffffffffffffffffffffffffffff1673ffffffffffffffffffffffffffffffffffffffff168152505062002e76565b6006819055507f000000000000000000000000000000000000000000000000000000000000000073ffffffffffffffffffffffffffffffffffffffff1663695c5bf560036c01000000000000000000000000604051602001620025f290620040c4565b6040516020818303038152906040526040518463ffffffff1660e01b8152600401620026219392919062004abf565b6020604051808303816000875af115801562002641573d6000803e3d6000fd5b505050506040513d601f19601f8201168201806040525081019062002667919062004b1a565b50565b60006202a300905090565b60008160801c9050919050565b60008073ffffffffffffffffffffffffffffffffffffffff168273ffffffffffffffffffffffffffffffffffffffff16149050919050565b6000819050919050565b60005b600b805490508110156200285d57600a6000600b8381548110620026f057620026ef62004b4c565b5b9060005260206000200160009054906101000a900473ffffffffffffffffffffffffffffffffffffffff1673ffffffffffffffffffffffffffffffffffffffff1673ffffffffffffffffffffffffffffffffffffffff16815260200190815260200160002060009054906101000a900460ff16156200284757600960019054906101000a900473ffffffffffffffffffffffffffffffffffffffff1673ffffffffffffffffffffffffffffffffffffffff166340c10f19600b8381548110620027be57620027bd62004b4c565b5b9060005260206000200160009054906101000a900473ffffffffffffffffffffffffffffffffffffffff16683635c9adc5dea000006040518363ffffffff1660e01b81526004016200281292919062004bbe565b600060405180830381600087803b1580156200282d57600080fd5b505af115801562002842573d6000803e3d6000fd5b505050505b8080620028549062004beb565b915050620026c7565b50565b6200286a62002ea8565b15620028d2577fffffffffffffffffffffffffffffffffffffffffffffffffffffffff748739278160601b60601c91508181547f8be0079c531659141344cd1fd0a4f28419497f9722a3daafe3b4186f6b6457e0600080a3811560ff1b821781555062002929565b7fffffffffffffffffffffffffffffffffffffffffffffffffffffffff748739278160601b60601c91508181547f8be0079c531659141344cd1fd0a4f28419497f9722a3daafe3b4186f6b6457e0600080a3818155505b50565b600960019054906101000a900473ffffffffffffffffffffffffffffffffffffffff1673ffffffffffffffffffffffffffffffffffffffff166340c10f1930683635c9adc5dea000006040518363ffffffff1660e01b81526004016200299492919062004bbe565b600060405180830381600087803b158015620029af57600080fd5b505af1158015620029c4573d6000803e3d6000fd5b50505050600960019054906101000a900473ffffffffffffffffffffffffffffffffffffffff1673ffffffffffffffffffffffffffffffffffffffff1663095ea7b3600160009054906101000a900473ffffffffffffffffffffffffffffffffffffffff16683635c9adc5dea000006040518363ffffffff1660e01b815260040162002a5292919062004bbe565b6020604051808303816000875af115801562002a72573d6000803e3d6000fd5b505050506040513d601f19601f8201168201806040525081019062002a989190620043cd565b506000479050600160009054906101000a900473ffffffffffffffffffffffffffffffffffffffff1673ffffffffffffffffffffffffffffffffffffffff1663555a473360028362002aeb919062004c67565b6003604051806060016040528062002b04603c62002ead565b60020b815260200162002b18603c62002ef2565b60020b815260200160028762002b2f919062004c67565b8152506040518463ffffffff1660e01b815260040162002b5192919062004c9f565b60206040518083038185885af115801562002b70573d6000803e3d6000fd5b50505050506040513d601f19601f8201168201806040525081019062002b9791906200428b565b50600160009054906101000a900473ffffffffffffffffffffffffffffffffffffffff1673ffffffffffffffffffffffffffffffffffffffff1663555a4733600a8362002be5919062004c67565b600360405180606001604052807fffffffffffffffffffffffffffffffffffffffffffffffffffffffffffffffc460020b8152602001603c60020b8152602001600a8762002c34919062004c67565b8152506040518463ffffffff1660e01b815260040162002c5692919062004c9f565b60206040518083038185885af115801562002c75573d6000803e3d6000fd5b50505050506040513d601f19601f8201168201806040525081019062002c9c91906200428b565b50600160009054906101000a900473ffffffffffffffffffffffffffffffffffffffff1673ffffffffffffffffffffffffffffffffffffffff1663555a4733600a8362002cea919062004c67565b600360405180606001604052807fffffffffffffffffffffffffffffffffffffffffffffffffffffffffffffff8860020b8152602001607860020b8152602001600a8762002d39919062004c67565b8152506040518463ffffffff1660e01b815260040162002d5b92919062004c9f565b60206040518083038185885af115801562002d7a573d6000803e3d6000fd5b50505050506040513d601f19601f8201168201806040525081019062002da191906200428b565b50600960019054906101000a900473ffffffffffffffffffffffffffffffffffffffff1673ffffffffffffffffffffffffffffffffffffffff1663095ea7b3600260009054906101000a900473ffffffffffffffffffffffffffffffffffffffff16683635c9adc5dea000006040518363ffffffff1660e01b815260040162002e2c92919062004bbe565b6020604051808303816000875af115801562002e4c573d6000803e3d6000fd5b505050506040513d601f19601f8201168201806040525081019062002e729190620043cd565b5050565b60008160405160200162002e8b919062004ccd565b604051602081830303815290604052805190602001209050919050565b600090565b6000818260020b7ffffffffffffffffffffffffffffffffffffffffffffffffffffffffffff2761860020b8162002ee95762002ee862004c38565b5b05029050919050565b6000818260020b7ffffffffffffffffffffffffffffffffffffffffffffffffffffffffffff2761860000360020b8162002f315762002f3062004c38565b5b05029050919050565b6119bb8062004ceb83390190565b6040518061010001604052806000151581526020016000151581526020016000151581526020016000151581526020016000151581526020016000151581526020016000151581526020016000151581525090565b61190f80620066a683390190565b611f8c8062007fb583390190565b6000604051905090565b600080fd5b600080fd5b600073ffffffffffffffffffffffffffffffffffffffff82169050919050565b600062002ffa8262002fcd565b9050919050565b6200300c8162002fed565b81146200301857600080fd5b50565b6000813590506200302c8162003001565b92915050565b6000602082840312156200304b576200304a62002fc3565b5b60006200305b848285016200301b565b91505092915050565b60008115159050919050565b6200307b8162003064565b82525050565b600060208201905062003098600083018462003070565b92915050565b6000819050919050565b620030b3816200309e565b82525050565b6000602082019050620030d06000830184620030a8565b92915050565b600080fd5b600060a08284031215620030f457620030f3620030d6565b5b81905092915050565b600060608284031215620031165762003115620030d6565b5b81905092915050565b6000819050919050565b62003134816200311f565b81146200314057600080fd5b50565b600081359050620031548162003129565b92915050565b600080fd5b600080fd5b600080fd5b60008083601f8401126200318257620031816200315a565b5b8235905067ffffffffffffffff811115620031a257620031a16200315f565b5b602083019150836001820283011115620031c157620031c062003164565b5b9250929050565b6000806000806000806101608789031215620031e957620031e862002fc3565b5b6000620031f989828a016200301b565b96505060206200320c89828a01620030db565b95505060c06200321f89828a01620030fd565b9450506101206200323389828a0162003143565b93505061014087013567ffffffffffffffff81111562003258576200325762002fc8565b5b6200326689828a0162003169565b92509250509295509295509295565b60007fffffffff0000000000000000000000000000000000000000000000000000000082169050919050565b620032ac8162003275565b82525050565b6000602082019050620032c96000830184620032a1565b92915050565b600080fd5b6000601f19601f8301169050919050565b7f4e487b7100000000000000000000000000000000000000000000000000000000600052604160045260246000fd5b6200331f82620032d4565b810181811067ffffffffffffffff82111715620033415762003340620032e5565b5b80604052505050565b60006200335662002fb9565b905062003364828262003314565b919050565b620033748162002fed565b81146200338057600080fd5b50565b600081359050620033948162003369565b92915050565b600062ffffff82169050919050565b620033b4816200339a565b8114620033c057600080fd5b50565b600081359050620033d481620033a9565b92915050565b60008160020b9050919050565b620033f281620033da565b8114620033fe57600080fd5b50565b6000813590506200341281620033e7565b92915050565b6000620034258262002fed565b9050919050565b620034378162003418565b81146200344357600080fd5b50565b60008135905062003457816200342c565b92915050565b600060a08284031215620034765762003475620032cf565b5b6200348260a06200334a565b90506000620034948482850162003383565b6000830152506020620034aa8482850162003383565b6020830152506040620034c084828501620033c3565b6040830152506060620034d68482850162003401565b6060830152506080620034ec8482850162003446565b60808301525092915050565b620035038162003064565b81146200350f57600080fd5b50565b6000813590506200352381620034f8565b92915050565b62003534816200311f565b81146200354057600080fd5b50565b600081359050620035548162003529565b92915050565b620035658162002fcd565b81146200357157600080fd5b50565b60008135905062003585816200355a565b92915050565b600060608284031215620035a457620035a3620032cf565b5b620035b060606200334a565b90506000620035c28482850162003512565b6000830152506020620035d88482850162003543565b6020830152506040620035ee8482850162003574565b60408301525092915050565b6000806000610120848603121562003617576200361662002fc3565b5b600062003627868287016200345d565b93505060a06200363a868287016200358b565b9250506101006200364e868287016200301b565b9150509250925092565b6000819050919050565b6000620036836200367d62003677846200311f565b62003658565b6200311f565b9050919050565b620036958162003662565b82525050565b6000602082019050620036b260008301846200368a565b92915050565b60008060008060006101008688031215620036d857620036d762002fc3565b5b6000620036e8888289016200301b565b9550506020620036fb88828901620030db565b94505060c06200370e8882890162003574565b93505060e086013567ffffffffffffffff81111562003732576200373162002fc8565b5b620037408882890162003169565b92509250509295509295909350565b600060608284031215620037685762003767620030d6565b5b81905092915050565b6000806000806000610140868803121562003791576200379062002fc3565b5b6000620037a1888289016200301b565b9550506020620037b488828901620030db565b94505060c0620037c7888289016200374f565b93505061012086013567ffffffffffffffff811115620037ec57620037eb62002fc8565b5b620037fa8882890162003169565b92509250509295509295909350565b620038148162003064565b82525050565b6101008201600082015162003833600085018262003809565b50602082015162003848602085018262003809565b5060408201516200385d604085018262003809565b50606082015162003872606085018262003809565b50608082015162003887608085018262003809565b5060a08201516200389c60a085018262003809565b5060c0820151620038b160c085018262003809565b5060e0820151620038c660e085018262003809565b50505050565b600061010082019050620038e460008301846200381a565b92915050565b600060608284031215620039035762003902620032cf565b5b6200390f60606200334a565b90506000620039218482850162003401565b6000830152506020620039378482850162003401565b60208301525060406200394d8482850162003543565b60408301525092915050565b6000806000610120848603121562003976576200397562002fc3565b5b600062003986868287016200345d565b93505060a06200399986828701620038ea565b925050610100620039ad868287016200301b565b9150509250925092565b620039c28162002fed565b82525050565b6000602082019050620039df6000830184620039b7565b92915050565b600080600080600080610120878903121562003a065762003a0562002fc3565b5b600062003a1689828a016200301b565b965050602062003a2989828a01620030db565b95505060c062003a3c89828a0162003574565b94505060e062003a4f89828a0162003401565b93505061010087013567ffffffffffffffff81111562003a745762003a7362002fc8565b5b62003a8289828a0162003169565b92509250509295509295509295565b6000806020838503121562003aab5762003aaa62002fc3565b5b600083013567ffffffffffffffff81111562003acc5762003acb62002fc8565b5b62003ada8582860162003169565b92509250509250929050565b600081519050919050565b600082825260208201905092915050565b60005b8381101562003b2257808201518184015260208101905062003b05565b60008484015250505050565b600062003b3b8262003ae6565b62003b47818562003af1565b935062003b5981856020860162003b02565b62003b6481620032d4565b840191505092915050565b6000602082019050818103600083015262003b8b818462003b2e565b905092915050565b600080600080600080610160878903121562003bb45762003bb362002fc3565b5b600062003bc489828a016200301b565b965050602062003bd789828a01620030db565b95505060c062003bea89828a016200374f565b94505061012062003bfe89828a0162003143565b93505061014087013567ffffffffffffffff81111562003c235762003c2262002fc8565b5b62003c3189828a0162003169565b92509250509295509295509295565b62003c4b816200309e565b811462003c5757600080fd5b50565b60008135905062003c6b8162003c40565b92915050565b600080600080600080610120878903121562003c925762003c9162002fc3565b5b600062003ca289828a016200301b565b965050602062003cb589828a01620030db565b95505060c062003cc889828a0162003c5a565b94505060e062003cdb89828a0162003c5a565b93505061010087013567ffffffffffffffff81111562003d005762003cff62002fc8565b5b62003d0e89828a0162003169565b92509250509295509295509295565b600062003d3e62003d3862003d328462002fcd565b62003658565b62002fcd565b9050919050565b600062003d528262003d1d565b9050919050565b600062003d668262003d45565b9050919050565b62003d788162003d59565b82525050565b600060208201905062003d95600083018462003d6d565b92915050565b6000806000806000610140868803121562003dbb5762003dba62002fc3565b5b600062003dcb888289016200301b565b955050602062003dde88828901620030db565b94505060c062003df188828901620030fd565b93505061012086013567ffffffffffffffff81111562003e165762003e1562002fc8565b5b62003e248882890162003169565b92509250509295509295909350565b600082825260208201905092915050565b7f4661697254726164653a20546f6b656e20616c72656164792073657400000000600082015250565b600062003e7c601c8362003e33565b915062003e898262003e44565b602082019050919050565b6000602082019050818103600083015262003eaf8162003e6d565b9050919050565b7f4661697254726164653a204e6f204554482073656e7400000000000000000000600082015250565b600062003eee60168362003e33565b915062003efb8262003eb6565b602082019050919050565b6000602082019050818103600083015262003f218162003edf565b9050919050565b7f4e487b7100000000000000000000000000000000000000000000000000000000600052602260045260246000fd5b6000600282049050600182168062003f7057607f821691505b60208210810362003f865762003f8562003f28565b5b50919050565b60008190508160005260206000209050919050565b6000815462003fb08162003f57565b62003fbc818662003e33565b9450600182166000811462003fda576001811462003ff15762004028565b60ff19831686528115156020028601935062004028565b62003ffc8562003f8c565b60005b83811015620040205781548189015260018201915060208101905062003fff565b808801955050505b50505092915050565b600060ff82169050919050565b620040498162004031565b82525050565b600060608201905081810360008301526200406b818662003fa1565b9050818103602083015262004081818562003fa1565b90506200409260408301846200403e565b949350505050565b50565b6000620040ac60008362003e33565b9150620040b9826200409a565b600082019050919050565b60006020820190508181036000830152620040df816200409d565b9050919050565b6000620040f38262003d45565b9050919050565b6200410581620040e6565b82525050565b62004116816200339a565b82525050565b6200412781620033da565b82525050565b60006200413a8262003d45565b9050919050565b6200414c816200412d565b82525050565b60a0820160008201516200416a6000850182620040fa565b5060208201516200417f6020850182620040fa565b5060408201516200419460408501826200410b565b506060820151620041a960608501826200411c565b506080820151620041be608085018262004141565b50505050565b620041cf816200311f565b82525050565b620041e08162002fcd565b82525050565b606082016000820151620041fe600085018262003809565b506020820151620042136020850182620041c4565b506040820151620042286040850182620041d5565b50505050565b60006101208201905062004246600083018662004152565b6200425560a0830185620041e6565b8181036101008301526200426a818462003b2e565b9050949350505050565b600081519050620042858162003129565b92915050565b600060208284031215620042a457620042a362002fc3565b5b6000620042b48482850162004274565b91505092915050565b620042c881620040e6565b82525050565b6000602082019050620042e56000830184620042bd565b92915050565b600081519050620042fc8162003c40565b92915050565b6000602082840312156200431b576200431a62002fc3565b5b60006200432b84828501620042eb565b91505092915050565b60006fffffffffffffffffffffffffffffffff82169050919050565b6000620043716200436b620043658462004334565b62003658565b6200309e565b9050919050565b620043838162004350565b82525050565b6000604082019050620043a06000830185620039b7565b620043af602083018462004378565b9392505050565b600081519050620043c781620034f8565b92915050565b600060208284031215620043e657620043e562002fc3565b5b6000620043f684828501620043b6565b91505092915050565b600081600f0b9050919050565b7f4e487b7100000000000000000000000000000000000000000000000000000000600052601160045260246000fd5b60006200444882620043ff565b91507fffffffffffffffffffffffffffffffff8000000000000000000000000000000082036200447d576200447c6200440c565b5b816000039050919050565b60006060820190506200449f6000830186620042bd565b620044ae6020830185620039b7565b620044bd604083018462004378565b949350505050565b7f4661697254726164653a204d7573742073656e6420302e323520455448000000600082015250565b6000620044fd601d8362003e33565b91506200450a82620044c5565b602082019050919050565b600060208201905081810360008301526200453081620044ee565b9050919050565b7f4661697254726164653a20416c72656164792066756e64656400000000000000600082015250565b60006200456f60198362003e33565b91506200457c8262004537565b602082019050919050565b60006020820190508181036000830152620045a28162004560565b9050919050565b7f4661697254726164653a2046756e646572732063616e6e6f742074726164652060008201527f7965740000000000000000000000000000000000000000000000000000000000602082015250565b60006200460760238362003e33565b91506200461482620045a9565b604082019050919050565b600060208201905081810360008301526200463a81620045f8565b9050919050565b6060820160008201516200465960008501826200411c565b5060208201516200466e60208501826200411c565b506040820151620046836040850182620041c4565b50505050565b600061012082019050620046a1600083018662004152565b620046b060a083018562004641565b818103610100830152620046c5818462003b2e565b9050949350505050565b6000606082019050620046e66000830186620039b7565b620046f56020830185620039b7565b62004704604083018462004378565b949350505050565b600081905092915050565b82818337600083830152505050565b60006200473483856200470c565b93506200474383858462004717565b82840190509392505050565b60006200475e82848662004726565b91508190509392505050565b7f4661697254726164653a204f776e6572736869702063616e6e6f74206368616e60008201527f6765207965740000000000000000000000000000000000000000000000000000602082015250565b6000620047c860268362003e33565b9150620047d5826200476a565b604082019050919050565b60006020820190508181036000830152620047fb81620047b9565b9050919050565b7f4661697254726164653a204e6f7420612066756e646572000000000000000000600082015250565b60006200483a60178362003e33565b9150620048478262004802565b602082019050919050565b600060208201905081810360008301526200486d816200482b565b9050919050565b7f4661697254726164653a204f776e65722063616e6e6f74206368616e6765204c60008201527f5020796574000000000000000000000000000000000000000000000000000000602082015250565b6000620048d260258362003e33565b9150620048df8262004874565b604082019050919050565b600060208201905081810360008301526200490581620048c3565b9050919050565b60008160001c9050919050565b600073ffffffffffffffffffffffffffffffffffffffff82169050919050565b6000620049506200494a836200490c565b62004919565b9050919050565b60008160a01c9050919050565b600062ffffff82169050919050565b60006200498a620049848362004957565b62004964565b9050919050565b60008160b81c9050919050565b60008160020b9050919050565b6000620049c2620049bc8362004991565b6200499e565b9050919050565b600073ffffffffffffffffffffffffffffffffffffffff82169050919050565b600062004a00620049fa836200490c565b620049c9565b9050919050565b60a08201600080830154905062004a1e8162004939565b62004a2d6000860182620040fa565b506001830154905062004a408162004939565b62004a4f6020860182620040fa565b5062004a5b8162004973565b62004a6a60408601826200410b565b5062004a7681620049ab565b62004a8560608601826200411c565b506002830154905062004a9881620049e9565b62004aa7608086018262004141565b5050505050565b62004ab98162002fcd565b82525050565b600060e08201905062004ad6600083018662004a07565b62004ae560a083018562004aae565b81810360c083015262004af9818462003b2e565b9050949350505050565b60008151905062004b1481620033e7565b92915050565b60006020828403121562004b335762004b3262002fc3565b5b600062004b438482850162004b03565b91505092915050565b7f4e487b7100000000000000000000000000000000000000000000000000000000600052603260045260246000fd5b6000819050919050565b600062004ba662004ba062004b9a8462004b7b565b62003658565b6200309e565b9050919050565b62004bb88162004b85565b82525050565b600060408201905062004bd56000830185620039b7565b62004be4602083018462004bad565b9392505050565b600062004bf8826200309e565b91507fffffffffffffffffffffffffffffffffffffffffffffffffffffffffffffffff820362004c2d5762004c2c6200440c565b5b600182019050919050565b7f4e487b7100000000000000000000000000000000000000000000000000000000600052601260045260246000fd5b600062004c74826200309e565b915062004c81836200309e565b92508262004c945762004c9362004c38565b5b828204905092915050565b60006101008201905062004cb7600083018562004a07565b62004cc660a083018462004641565b9392505050565b600060a08201905062004ce4600083018462004152565b9291505056fe60a06040523480156200001157600080fd5b50604051620019bb380380620019bb83398181016040528101906200003791906200035b565b62000048336200009f60201b60201c565b826000908162000059919062000640565b5081600190816200006b919062000640565b5080600260006101000a81548160ff021916908360ff16021790555082805190602001206080818152505050505062000727565b620000af6200018560201b60201c565b156200012d577fffffffffffffffffffffffffffffffffffffffffffffffffffffffff74873927805415620000ec57630dc149f06000526004601cfd5b8160601b60601c9150811560ff1b821781558160007f8be0079c531659141344cd1fd0a4f28419497f9722a3daafe3b4186f6b6457e0600080a35062000182565b8060601b60601c9050807fffffffffffffffffffffffffffffffffffffffffffffffffffffffff74873927558060007f8be0079c531659141344cd1fd0a4f28419497f9722a3daafe3b4186f6b6457e0600080a35b50565b600090565b6000604051905090565b600080fd5b600080fd5b600080fd5b600080fd5b6000601f19601f8301169050919050565b7f4e487b7100000000000000000000000000000000000000000000000000000000600052604160045260246000fd5b620001f382620001a8565b810181811067ffffffffffffffff82111715620002155762000214620001b9565b5b80604052505050565b60006200022a6200018a565b9050620002388282620001e8565b919050565b600067ffffffffffffffff8211156200025b576200025a620001b9565b5b6200026682620001a8565b9050602081019050919050565b60005b838110156200029357808201518184015260208101905062000276565b60008484015250505050565b6000620002b6620002b0846200023d565b6200021e565b905082815260208101848484011115620002d557620002d4620001a3565b5b620002e284828562000273565b509392505050565b600082601f8301126200030257620003016200019e565b5b8151620003148482602086016200029f565b91505092915050565b600060ff82169050919050565b62000335816200031d565b81146200034157600080fd5b50565b60008151905062000355816200032a565b92915050565b60008060006060848603121562000377576200037662000194565b5b600084015167ffffffffffffffff81111562000398576200039762000199565b5b620003a686828701620002ea565b935050602084015167ffffffffffffffff811115620003ca57620003c962000199565b5b620003d886828701620002ea565b9250506040620003eb8682870162000344565b9150509250925092565b600081519050919050565b7f4e487b7100000000000000000000000000000000000000000000000000000000600052602260045260246000fd5b600060028204905060018216806200044857607f821691505b6020821081036200045e576200045d62000400565b5b50919050565b60008190508160005260206000209050919050565b60006020601f8301049050919050565b600082821b905092915050565b600060088302620004c87fffffffffffffffffffffffffffffffffffffffffffffffffffffffffffffffff8262000489565b620004d4868362000489565b95508019841693508086168417925050509392505050565b6000819050919050565b6000819050919050565b6000620005216200051b6200051584620004ec565b620004f6565b620004ec565b9050919050565b6000819050919050565b6200053d8362000500565b620005556200054c8262000528565b84845462000496565b825550505050565b600090565b6200056c6200055d565b6200057981848462000532565b505050565b5b81811015620005a1576200059560008262000562565b6001810190506200057f565b5050565b601f821115620005f057620005ba8162000464565b620005c58462000479565b81016020851015620005d5578190505b620005ed620005e48562000479565b8301826200057e565b50505b505050565b600082821c905092915050565b60006200061560001984600802620005f5565b1980831691505092915050565b600062000630838362000602565b9150826002028217905092915050565b6200064b82620003f5565b67ffffffffffffffff811115620006675762000666620001b9565b5b6200067382546200042f565b62000680828285620005a5565b600060209050601f831160018114620006b85760008415620006a3578287015190505b620006af858262000622565b8655506200071f565b601f198416620006c88662000464565b60005b82811015620006f257848901518255600182019150602085019450602081019050620006cb565b868310156200071257848901516200070e601f89168262000602565b8355505b6001600288020188555050505b505050505050565b608051611278620007436000396000610b4c01526112786000f3fe60806040526004361061011f5760003560e01c8063715018a6116100a0578063d505accf11610064578063d505accf1461039e578063dd62ed3e146103c7578063f04e283e14610404578063f2fde38b14610420578063fee81cf41461043c5761011f565b8063715018a6146102c45780637ecebe00146102ce5780638da5cb5b1461030b57806395d89b4114610336578063a9059cbb146103615761011f565b8063313ce567116100e7578063313ce567146101fe5780633644e5151461022957806340c10f191461025457806354d1f13d1461027d57806370a08231146102875761011f565b806306fdde0314610124578063095ea7b31461014f57806318160ddd1461018c57806323b872dd146101b757806325692962146101f4575b600080fd5b34801561013057600080fd5b50610139610479565b6040516101469190610e38565b60405180910390f35b34801561015b57600080fd5b5061017660048036038101906101719190610ef3565b61050b565b6040516101839190610f4e565b60405180910390f35b34801561019857600080fd5b506101a161055f565b6040516101ae9190610f78565b60405180910390f35b3480156101c357600080fd5b506101de60048036038101906101d99190610f93565b610571565b6040516101eb9190610f4e565b60405180910390f35b6101fc610597565b005b34801561020a57600080fd5b506102136105eb565b6040516102209190611002565b60405180910390f35b34801561023557600080fd5b5061023e610602565b60405161024b9190611036565b60405180910390f35b34801561026057600080fd5b5061027b60048036038101906102769190610ef3565b610694565b005b6102856106b2565b005b34801561029357600080fd5b506102ae60048036038101906102a99190611051565b6106ee565b6040516102bb9190610f78565b60405180910390f35b6102cc610709565b005b3480156102da57600080fd5b506102f560048036038101906102f09190611051565b61071d565b6040516103029190610f78565b60405180910390f35b34801561031757600080fd5b50610320610738565b60405161032d919061108d565b60405180910390f35b34801561034257600080fd5b5061034b610761565b6040516103589190610e38565b60405180910390f35b34801561036d57600080fd5b5061038860048036038101906103839190610ef3565b6107f3565b6040516103959190610f4e565b60405180910390f35b3480156103aa57600080fd5b506103c560048036038101906103c09190611100565b61080f565b005b3480156103d357600080fd5b506103ee60048036038101906103e991906111a2565b6109b3565b6040516103fb9190610f78565b60405180910390f35b61041e60048036038101906104199190611051565b6109d3565b005b61043a60048036038101906104359190611051565b610a14565b005b34801561044857600080fd5b50610463600480360381019061045e9190611051565b610a3e565b6040516104709190610f78565b60405180910390f35b60606000805461048890611211565b80601f01602080910402602001604051908101604052809291908181526020018280546104b490611211565b80156105015780601f106104d657610100808354040283529160200191610501565b820191906000526020600020905b8154815290600101906020018083116104e457829003601f168201915b5050505050905090565b600082602052637f5e9f20600c5233600052816034600c205581600052602c5160601c337f8c5be1e5ebec7d5bd14f71427d1e84f3dd0314c0f7b2291e5b200ac8c7c3b92560206000a36001905092915050565b60006805345cdf77eb68f44c54905090565b600061058e61057f85610a59565b61058885610a59565b84610a68565b90509392505050565b60006105a1610b3d565b67ffffffffffffffff164201905063389a75e1600c5233600052806020600c2055337fdbf36a107da19e49527a7176a1babf963b4b0ff8cde35ee35d6cd8f1f9ac7e1d600080a250565b6000600260009054906101000a900460ff16905090565b60008061060d610b48565b90506000801b810361062b57610621610479565b8051906020012090505b6040517f8b73c3c69bb8fe3d512ecc4cf759cc79239f7b179b0ffacaa9a75d522b39400f81528160208201527fc89efdaa54c0f20c7adf612882df0950f5a951637e0307cdcb4c672f298b8bc6604082015246606082015230608082015260a081209250505090565b61069c610b70565b6106ae6106a883610a59565b82610ba8565b5050565b63389a75e1600c523360005260006020600c2055337ffa7b8eab7da67f412cc9575ed43464468f9bfbae89d1675917346ca6d8fe3c92600080a2565b60006387a211a2600c52816000526020600c20549050919050565b610711610b70565b61071b6000610c3f565b565b60006338377508600c52816000526020600c20549050919050565b60007fffffffffffffffffffffffffffffffffffffffffffffffffffffffff7487392754905090565b60606001805461077090611211565b80601f016020809104026020016040519081016040528092919081815260200182805461079c90611211565b80156107e95780601f106107be576101008083540402835291602001916107e9565b820191906000526020600020905b8154815290600101906020018083116107cc57829003601f168201915b5050505050905090565b600061080761080184610a59565b83610d07565b905092915050565b6000610819610b48565b90506000801b81036108375761082d610479565b8051906020012090505b8442111561084d57631a15a3cc6000526004601cfd5b6040518860601b60601c98508760601b60601c975065383775081901600e52886000526020600c2080547f8b73c3c69bb8fe3d512ecc4cf759cc79239f7b179b0ffacaa9a75d522b39400f83528360208401527fc89efdaa54c0f20c7adf612882df0950f5a951637e0307cdcb4c672f298b8bc6604084015246606084015230608084015260a08320602e527f6e71edae12b1b97f4d1f60370fef10105fa2faae0126114a169c64845d6126c983528a60208401528960408401528860608401528060808401528760a084015260c08320604e526042602c206000528660ff1660205285604052846060526020806080600060015afa8b3d51146109595763ddafbaef6000526004601cfd5b80820183558a637f5e9f2060a01b17604052896034602c20558a8c7f8c5be1e5ebec7d5bd14f71427d1e84f3dd0314c0f7b2291e5b200ac8c7c3b925602060608801a3836040526000606052505050505050505050505050565b600081602052637f5e9f20600c52826000526034600c2054905092915050565b6109db610b70565b63389a75e1600c52806000526020600c208054421115610a0357636f5e88186000526004601cfd5b6000815550610a1181610c3f565b50565b610a1c610b70565b8060601b610a3257637448fbae6000526004601cfd5b610a3b81610c3f565b50565b600063389a75e1600c52816000526020600c20549050919050565b60005a60a01b82179050919050565b6000610a75848484610d99565b8360601b33602052637f5e9f208117600c526034600c2080546001810115610ab35780851115610aad576313be252b6000526004601cfd5b84810382555b6387a211a28317600c526020600c20805480871115610ada5763f4d678b86000526004601cfd5b8681038255876000526020600c2087815401815587602052600c5160601c8660601c7fddf252ad1be2c89b69c2b068fc378daa952ba7f163c4a11628f55a4df523b3ef602080a3505050505050610b32848484610d9e565b600190509392505050565b60006202a300905090565b60007f0000000000000000000000000000000000000000000000000000000000000000905090565b7fffffffffffffffffffffffffffffffffffffffffffffffffffffffff74873927543314610ba6576382b429006000526004601cfd5b565b610bb460008383610d99565b6805345cdf77eb68f44c5481810181811015610bd85763e5cfe9576000526004601cfd5b806805345cdf77eb68f44c556387a211a2600c52836000526020600c2083815401815583602052600c5160601c60007fddf252ad1be2c89b69c2b068fc378daa952ba7f163c4a11628f55a4df523b3ef602080a3505050610c3b60008383610d9e565b5050565b610c47610da3565b15610cad577fffffffffffffffffffffffffffffffffffffffffffffffffffffffff748739278160601b60601c91508181547f8be0079c531659141344cd1fd0a4f28419497f9722a3daafe3b4186f6b6457e0600080a3811560ff1b8217815550610d04565b7fffffffffffffffffffffffffffffffffffffffffffffffffffffffff748739278160601b60601c91508181547f8be0079c531659141344cd1fd0a4f28419497f9722a3daafe3b4186f6b6457e0600080a3818155505b50565b6000610d14338484610d99565b6387a211a2600c52336000526020600c20805480841115610d3d5763f4d678b86000526004601cfd5b8381038255846000526020600c2084815401815584602052600c5160601c337fddf252ad1be2c89b69c2b068fc378daa952ba7f163c4a11628f55a4df523b3ef602080a3505050610d8f338484610d9e565b6001905092915050565b505050565b505050565b600090565b600081519050919050565b600082825260208201905092915050565b60005b83811015610de2578082015181840152602081019050610dc7565b60008484015250505050565b6000601f19601f8301169050919050565b6000610e0a82610da8565b610e148185610db3565b9350610e24818560208601610dc4565b610e2d81610dee565b840191505092915050565b60006020820190508181036000830152610e528184610dff565b905092915050565b600080fd5b600073ffffffffffffffffffffffffffffffffffffffff82169050919050565b6000610e8a82610e5f565b9050919050565b610e9a81610e7f565b8114610ea557600080fd5b50565b600081359050610eb781610e91565b92915050565b6000819050919050565b610ed081610ebd565b8114610edb57600080fd5b50565b600081359050610eed81610ec7565b92915050565b60008060408385031215610f0a57610f09610e5a565b5b6000610f1885828601610ea8565b9250506020610f2985828601610ede565b9150509250929050565b60008115159050919050565b610f4881610f33565b82525050565b6000602082019050610f636000830184610f3f565b92915050565b610f7281610ebd565b82525050565b6000602082019050610f8d6000830184610f69565b92915050565b600080600060608486031215610fac57610fab610e5a565b5b6000610fba86828701610ea8565b9350506020610fcb86828701610ea8565b9250506040610fdc86828701610ede565b9150509250925092565b600060ff82169050919050565b610ffc81610fe6565b82525050565b60006020820190506110176000830184610ff3565b92915050565b6000819050919050565b6110308161101d565b82525050565b600060208201905061104b6000830184611027565b92915050565b60006020828403121561106757611066610e5a565b5b600061107584828501610ea8565b91505092915050565b61108781610e7f565b82525050565b60006020820190506110a2600083018461107e565b92915050565b6110b181610fe6565b81146110bc57600080fd5b50565b6000813590506110ce816110a8565b92915050565b6110dd8161101d565b81146110e857600080fd5b50565b6000813590506110fa816110d4565b92915050565b600080600080600080600060e0888a03121561111f5761111e610e5a565b5b600061112d8a828b01610ea8565b975050602061113e8a828b01610ea8565b965050604061114f8a828b01610ede565b95505060606111608a828b01610ede565b94505060806111718a828b016110bf565b93505060a06111828a828b016110eb565b92505060c06111938a828b016110eb565b91505092959891949750929550565b600080604083850312156111b9576111b8610e5a565b5b60006111c785828601610ea8565b92505060206111d885828601610ea8565b9150509250929050565b7f4e487b7100000000000000000000000000000000000000000000000000000000600052602260045260246000fd5b6000600282049050600182168061122957607f821691505b60208210810361123c5761123b6111e2565b5b5091905056fea26469706673582212209a0bfc041cb7510b442468cd22e35700d4baa1baab016b629bda4bcb8093875064736f6c6343000815003360a06040523480156200001157600080fd5b506040516200190f3803806200190f8339818101604052810190620000379190620000f0565b8073ffffffffffffffffffffffffffffffffffffffff1660808173ffffffffffffffffffffffffffffffffffffffff16815250505062000122565b600080fd5b600073ffffffffffffffffffffffffffffffffffffffff82169050919050565b6000620000a48262000077565b9050919050565b6000620000b88262000097565b9050919050565b620000ca81620000ab565b8114620000d657600080fd5b50565b600081519050620000ea81620000bf565b92915050565b60006020828403121562000109576200010862000072565b5b60006200011984828501620000d9565b91505092915050565b608051611786620001896000396000818160d30152818160f901528181610242015281816102af015281816103e6015281816104d4015281816105600152818161064701528181610735015281816107c10152818161087c015261093d01526117866000f3fe6080604052600436106100345760003560e01c8063481c6a7514610039578063555a473314610064578063ab6291fe14610094575b600080fd5b34801561004557600080fd5b5061004e6100d1565b60405161005b9190610be2565b60405180910390f35b61007e60048036038101906100799190610eb8565b6100f5565b60405161008b9190610f2a565b60405180910390f35b3480156100a057600080fd5b506100bb60048036038101906100b69190610faa565b61023e565b6040516100c89190611076565b60405180910390f35b7f000000000000000000000000000000000000000000000000000000000000000081565b60007f000000000000000000000000000000000000000000000000000000000000000073ffffffffffffffffffffffffffffffffffffffff16638154831960405180606001604052803373ffffffffffffffffffffffffffffffffffffffff168152602001868152602001858152506040516020016101749190611203565b6040516020818303038152906040526040518263ffffffff1660e01b815260040161019f9190611076565b6000604051808303816000875af11580156101be573d6000803e3d6000fd5b505050506040513d6000823e3d601f19601f820116820180604052508101906101e791906112c5565b8060200190518101906101fa919061133a565b905060004790506000811115610237576102363382600073ffffffffffffffffffffffffffffffffffffffff16610a129092919063ffffffff16565b5b5092915050565b60607f000000000000000000000000000000000000000000000000000000000000000073ffffffffffffffffffffffffffffffffffffffff163373ffffffffffffffffffffffffffffffffffffffff161461029857600080fd5b600083838101906102a991906113f8565b905060007f000000000000000000000000000000000000000000000000000000000000000073ffffffffffffffffffffffffffffffffffffffff166361ae449a83602001518460400151600067ffffffffffffffff81111561030e5761030d610c27565b5b6040519080825280601f01601f1916602001820160405280156103405781602001600182028036833780820191505090505b506040518463ffffffff1660e01b815260040161035f939291906114d0565b6020604051808303816000875af115801561037e573d6000803e3d6000fd5b505050506040513d601f19601f820116820180604052508101906103a2919061133a565b905060006103af82610b14565b600f0b1315610605576103df82602001516000015173ffffffffffffffffffffffffffffffffffffffff16610b21565b156104a9577f000000000000000000000000000000000000000000000000000000000000000073ffffffffffffffffffffffffffffffffffffffff16636a256b2961042983610b14565b6fffffffffffffffffffffffffffffffff168460200151600001516040518363ffffffff1660e01b8152600401610460919061151f565b60206040518083038185885af115801561047e573d6000803e3d6000fd5b50505050506040513d601f19601f820116820180604052508101906104a39190611570565b50610604565b81602001516000015173ffffffffffffffffffffffffffffffffffffffff166323b872dd83600001517f00000000000000000000000000000000000000000000000000000000000000006104fc85610b14565b6040518463ffffffff1660e01b815260040161051a939291906115f9565b6020604051808303816000875af1158015610539573d6000803e3d6000fd5b505050506040513d601f19601f8201168201806040525081019061055d9190611668565b507f000000000000000000000000000000000000000000000000000000000000000073ffffffffffffffffffffffffffffffffffffffff16636a256b298360200151600001516040518263ffffffff1660e01b81526004016105bf919061151f565b6020604051808303816000875af11580156105de573d6000803e3d6000fd5b505050506040513d601f19601f820116820180604052508101906106029190611570565b505b5b600061061082610b59565b600f0b13156108665761064082602001516020015173ffffffffffffffffffffffffffffffffffffffff16610b21565b1561070a577f000000000000000000000000000000000000000000000000000000000000000073ffffffffffffffffffffffffffffffffffffffff16636a256b2961068a83610b59565b6fffffffffffffffffffffffffffffffff168460200151602001516040518363ffffffff1660e01b81526004016106c1919061151f565b60206040518083038185885af11580156106df573d6000803e3d6000fd5b50505050506040513d601f19601f820116820180604052508101906107049190611570565b50610865565b81602001516020015173ffffffffffffffffffffffffffffffffffffffff166323b872dd83600001517f000000000000000000000000000000000000000000000000000000000000000061075d85610b59565b6040518463ffffffff1660e01b815260040161077b939291906115f9565b6020604051808303816000875af115801561079a573d6000803e3d6000fd5b505050506040513d601f19601f820116820180604052508101906107be9190611668565b507f000000000000000000000000000000000000000000000000000000000000000073ffffffffffffffffffffffffffffffffffffffff16636a256b298360200151602001516040518263ffffffff1660e01b8152600401610820919061151f565b6020604051808303816000875af115801561083f573d6000803e3d6000fd5b505050506040513d601f19601f820116820180604052508101906108639190611570565b505b5b600061087182610b14565b600f0b1215610927577f000000000000000000000000000000000000000000000000000000000000000073ffffffffffffffffffffffffffffffffffffffff16630b0d9c0983602001516000015184600001516108cd85610b14565b6108d6906116d1565b6040518463ffffffff1660e01b81526004016108f493929190611719565b600060405180830381600087803b15801561090e57600080fd5b505af1158015610922573d6000803e3d6000fd5b505050505b600061093282610b59565b600f0b12156109e8577f000000000000000000000000000000000000000000000000000000000000000073ffffffffffffffffffffffffffffffffffffffff16630b0d9c09836020015160200151846000015161098e85610b59565b610997906116d1565b6040518463ffffffff1660e01b81526004016109b593929190611719565b600060405180830381600087803b1580156109cf57600080fd5b505af11580156109e3573d6000803e3d6000fd5b505050505b806040516020016109f99190610f2a565b6040516020818303038152906040529250505092915050565b6000610a338473ffffffffffffffffffffffffffffffffffffffff16610b21565b15610a805760008060008085875af1905080610a7b576040517ff4b3b1bc00000000000000000000000000000000000000000000000000000000815260040160405180910390fd5b610b0e565b6040517fa9059cbb000000000000000000000000000000000000000000000000000000006000528360045282602452602060006044600080895af13d15601f3d1160016000511416171691506000606052806040525080610b0d576040517ff27f64e400000000000000000000000000000000000000000000000000000000815260040160405180910390fd5b5b50505050565b60008160801c9050919050565b60008073ffffffffffffffffffffffffffffffffffffffff168273ffffffffffffffffffffffffffffffffffffffff16149050919050565b6000819050919050565b600073ffffffffffffffffffffffffffffffffffffffff82169050919050565b6000819050919050565b6000610ba8610ba3610b9e84610b63565b610b83565b610b63565b9050919050565b6000610bba82610b8d565b9050919050565b6000610bcc82610baf565b9050919050565b610bdc81610bc1565b82525050565b6000602082019050610bf76000830184610bd3565b92915050565b6000604051905090565b600080fd5b600080fd5b600080fd5b6000601f19601f8301169050919050565b7f4e487b7100000000000000000000000000000000000000000000000000000000600052604160045260246000fd5b610c5f82610c16565b810181811067ffffffffffffffff82111715610c7e57610c7d610c27565b5b80604052505050565b6000610c91610bfd565b9050610c9d8282610c56565b919050565b6000610cad82610b63565b9050919050565b610cbd81610ca2565b8114610cc857600080fd5b50565b600081359050610cda81610cb4565b92915050565b600062ffffff82169050919050565b610cf881610ce0565b8114610d0357600080fd5b50565b600081359050610d1581610cef565b92915050565b60008160020b9050919050565b610d3181610d1b565b8114610d3c57600080fd5b50565b600081359050610d4e81610d28565b92915050565b6000610d5f82610ca2565b9050919050565b610d6f81610d54565b8114610d7a57600080fd5b50565b600081359050610d8c81610d66565b92915050565b600060a08284031215610da857610da7610c11565b5b610db260a0610c87565b90506000610dc284828501610ccb565b6000830152506020610dd684828501610ccb565b6020830152506040610dea84828501610d06565b6040830152506060610dfe84828501610d3f565b6060830152506080610e1284828501610d7d565b60808301525092915050565b6000819050919050565b610e3181610e1e565b8114610e3c57600080fd5b50565b600081359050610e4e81610e28565b92915050565b600060608284031215610e6a57610e69610c11565b5b610e746060610c87565b90506000610e8484828501610d3f565b6000830152506020610e9884828501610d3f565b6020830152506040610eac84828501610e3f565b60408301525092915050565b6000806101008385031215610ed057610ecf610c07565b5b6000610ede85828601610d92565b92505060a0610eef85828601610e54565b9150509250929050565b6000610f14610f0f610f0a84610e1e565b610b83565b610e1e565b9050919050565b610f2481610ef9565b82525050565b6000602082019050610f3f6000830184610f1b565b92915050565b600080fd5b600080fd5b600080fd5b60008083601f840112610f6a57610f69610f45565b5b8235905067ffffffffffffffff811115610f8757610f86610f4a565b5b602083019150836001820283011115610fa357610fa2610f4f565b5b9250929050565b60008060208385031215610fc157610fc0610c07565b5b600083013567ffffffffffffffff811115610fdf57610fde610c0c565b5b610feb85828601610f54565b92509250509250929050565b600081519050919050565b600082825260208201905092915050565b60005b83811015611031578082015181840152602081019050611016565b60008484015250505050565b600061104882610ff7565b6110528185611002565b9350611062818560208601611013565b61106b81610c16565b840191505092915050565b60006020820190508181036000830152611090818461103d565b905092915050565b6110a181610ca2565b82525050565b60006110b282610baf565b9050919050565b6110c2816110a7565b82525050565b6110d181610ce0565b82525050565b6110e081610d1b565b82525050565b60006110f182610baf565b9050919050565b611101816110e6565b82525050565b60a08201600082015161111d60008501826110b9565b50602082015161113060208501826110b9565b50604082015161114360408501826110c8565b50606082015161115660608501826110d7565b50608082015161116960808501826110f8565b50505050565b61117881610e1e565b82525050565b60608201600082015161119460008501826110d7565b5060208201516111a760208501826110d7565b5060408201516111ba604085018261116f565b50505050565b610120820160008201516111d76000850182611098565b5060208201516111ea6020850182611107565b5060408201516111fd60c085018261117e565b50505050565b60006101208201905061121960008301846111c0565b92915050565b600080fd5b600067ffffffffffffffff82111561123f5761123e610c27565b5b61124882610c16565b9050602081019050919050565b600061126861126384611224565b610c87565b9050828152602081018484840111156112845761128361121f565b5b61128f848285611013565b509392505050565b600082601f8301126112ac576112ab610f45565b5b81516112bc848260208601611255565b91505092915050565b6000602082840312156112db576112da610c07565b5b600082015167ffffffffffffffff8111156112f9576112f8610c0c565b5b61130584828501611297565b91505092915050565b61131781610e1e565b811461132257600080fd5b50565b6000815190506113348161130e565b92915050565b6000602082840312156113505761134f610c07565b5b600061135e84828501611325565b91505092915050565b61137081610ca2565b811461137b57600080fd5b50565b60008135905061138d81611367565b92915050565b600061012082840312156113aa576113a9610c11565b5b6113b46060610c87565b905060006113c48482850161137e565b60008301525060206113d884828501610d92565b60208301525060c06113ec84828501610e54565b60408301525092915050565b6000610120828403121561140f5761140e610c07565b5b600061141d84828501611393565b91505092915050565b60a08201600082015161143c60008501826110b9565b50602082015161144f60208501826110b9565b50604082015161146260408501826110c8565b50606082015161147560608501826110d7565b50608082015161148860808501826110f8565b50505050565b6060820160008201516114a460008501826110d7565b5060208201516114b760208501826110d7565b5060408201516114ca604085018261116f565b50505050565b6000610120820190506114e66000830186611426565b6114f360a083018561148e565b818103610100830152611506818461103d565b9050949350505050565b611519816110a7565b82525050565b60006020820190506115346000830184611510565b92915050565b6000819050919050565b61154d8161153a565b811461155857600080fd5b50565b60008151905061156a81611544565b92915050565b60006020828403121561158657611585610c07565b5b60006115948482850161155b565b91505092915050565b6115a681610ca2565b82525050565b60006fffffffffffffffffffffffffffffffff82169050919050565b60006115e36115de6115d9846115ac565b610b83565b61153a565b9050919050565b6115f3816115c8565b82525050565b600060608201905061160e600083018661159d565b61161b602083018561159d565b61162860408301846115ea565b949350505050565b60008115159050919050565b61164581611630565b811461165057600080fd5b50565b6000815190506116628161163c565b92915050565b60006020828403121561167e5761167d610c07565b5b600061168c84828501611653565b91505092915050565b600081600f0b9050919050565b7f4e487b7100000000000000000000000000000000000000000000000000000000600052601160045260246000fd5b60006116dc82611695565b91507fffffffffffffffffffffffffffffffff80000000000000000000000000000000820361170e5761170d6116a2565b5b816000039050919050565b600060608201905061172e6000830186611510565b61173b602083018561159d565b61174860408301846115ea565b94935050505056fea2646970667358221220dfae7bba15b2a389efc898bb0bd7b13ac1df0590cdf06d0a26b31d84b0c49b7764736f6c6343000815003360a06040523480156200001157600080fd5b5060405162001f8c38038062001f8c8339818101604052810190620000379190620000f0565b8073ffffffffffffffffffffffffffffffffffffffff1660808173ffffffffffffffffffffffffffffffffffffffff16815250505062000122565b600080fd5b600073ffffffffffffffffffffffffffffffffffffffff82169050919050565b6000620000a48262000077565b9050919050565b6000620000b88262000097565b9050919050565b620000ca81620000ab565b8114620000d657600080fd5b50565b600081519050620000ea81620000bf565b92915050565b60006020828403121562000109576200010862000072565b5b60006200011984828501620000d9565b91505092915050565b608051611dd8620001b46000396000818160d50152818161022a01528181610250015281816102bd015281816103c7015281816104b501528181610541015281816105ec0152818161062d015281816106eb0152818161079c0152818161089d0152818161098b01528181610a1701528181610ac201528181610b0301528181610bc10152610c720152611dd86000f3fe6080604052600436106100345760003560e01c80632229d0b414610039578063481c6a7514610069578063ab6291fe14610094575b600080fd5b610053600480360381019061004e91906112e8565b6100d1565b60405161006091906113a9565b60405180910390f35b34801561007557600080fd5b5061007e610228565b60405161008b9190611419565b60405180910390f35b3480156100a057600080fd5b506100bb60048036038101906100b69190611494565b61024c565b6040516100c89190611560565b60405180910390f35b60007f000000000000000000000000000000000000000000000000000000000000000073ffffffffffffffffffffffffffffffffffffffff1663815483196040518060a001604052803373ffffffffffffffffffffffffffffffffffffffff1681526020018681526020018881526020018781526020018581525060405160200161015c91906117ba565b6040516020818303038152906040526040518263ffffffff1660e01b81526004016101879190611560565b6000604051808303816000875af11580156101a6573d6000803e3d6000fd5b505050506040513d6000823e3d601f19601f820116820180604052508101906101cf919061184c565b8060200190518101906101e291906118c1565b90506000479050600081111561021f5761021e3382600073ffffffffffffffffffffffffffffffffffffffff16610d499092919063ffffffff16565b5b50949350505050565b7f000000000000000000000000000000000000000000000000000000000000000081565b60607f000000000000000000000000000000000000000000000000000000000000000073ffffffffffffffffffffffffffffffffffffffff163373ffffffffffffffffffffffffffffffffffffffff16146102a657600080fd5b600083838101906102b791906119c5565b905060007f000000000000000000000000000000000000000000000000000000000000000073ffffffffffffffffffffffffffffffffffffffff1663f3cd914c8360400151846060015185608001516040518463ffffffff1660e01b815260040161032493929190611ab8565b6020604051808303816000875af1158015610343573d6000803e3d6000fd5b505050506040513d601f19601f8201168201806040525081019061036791906118c1565b90508160600151600001511561084d57600061038282610e4b565b600f0b13156106c757816020015160200151156105ea576103c082604001516000015173ffffffffffffffffffffffffffffffffffffffff16610e58565b1561048a577f000000000000000000000000000000000000000000000000000000000000000073ffffffffffffffffffffffffffffffffffffffff16636a256b2961040a83610e4b565b6fffffffffffffffffffffffffffffffff168460400151600001516040518363ffffffff1660e01b81526004016104419190611b07565b60206040518083038185885af115801561045f573d6000803e3d6000fd5b50505050506040513d601f19601f820116820180604052508101906104849190611b58565b506105e5565b81604001516000015173ffffffffffffffffffffffffffffffffffffffff166323b872dd83600001517f00000000000000000000000000000000000000000000000000000000000000006104dd85610e4b565b6040518463ffffffff1660e01b81526004016104fb93929190611be1565b6020604051808303816000875af115801561051a573d6000803e3d6000fd5b505050506040513d601f19601f8201168201806040525081019061053e9190611c2d565b507f000000000000000000000000000000000000000000000000000000000000000073ffffffffffffffffffffffffffffffffffffffff16636a256b298360400151600001516040518263ffffffff1660e01b81526004016105a09190611b07565b6020604051808303816000875af11580156105bf573d6000803e3d6000fd5b505050506040513d601f19601f820116820180604052508101906105e39190611b58565b505b6106c6565b7f000000000000000000000000000000000000000000000000000000000000000073ffffffffffffffffffffffffffffffffffffffff1663f242432a83600001517f000000000000000000000000000000000000000000000000000000000000000085604001516000015173ffffffffffffffffffffffffffffffffffffffff1661067486610e4b565b6040518563ffffffff1660e01b81526004016106939493929190611c8f565b600060405180830381600087803b1580156106ad57600080fd5b505af11580156106c1573d6000803e3d6000fd5b505050505b5b60006106d282610e90565b600f0b1215610848578160200151600001511561079a577f000000000000000000000000000000000000000000000000000000000000000073ffffffffffffffffffffffffffffffffffffffff16630b0d9c09836040015160200151846000015161073c85610e90565b61074590611d23565b6040518463ffffffff1660e01b815260040161076393929190611d6b565b600060405180830381600087803b15801561077d57600080fd5b505af1158015610791573d6000803e3d6000fd5b50505050610847565b7f000000000000000000000000000000000000000000000000000000000000000073ffffffffffffffffffffffffffffffffffffffff1663c6c3bbe683604001516020015184600001516107ed85610e90565b6107f690611d23565b6040518463ffffffff1660e01b815260040161081493929190611d6b565b600060405180830381600087803b15801561082e57600080fd5b505af1158015610842573d6000803e3d6000fd5b505050505b5b610d1f565b600061085882610e90565b600f0b1315610b9d5781602001516020015115610ac05761089682604001516020015173ffffffffffffffffffffffffffffffffffffffff16610e58565b15610960577f000000000000000000000000000000000000000000000000000000000000000073ffffffffffffffffffffffffffffffffffffffff16636a256b296108e083610e90565b6fffffffffffffffffffffffffffffffff168460400151602001516040518363ffffffff1660e01b81526004016109179190611b07565b60206040518083038185885af1158015610935573d6000803e3d6000fd5b50505050506040513d601f19601f8201168201806040525081019061095a9190611b58565b50610abb565b81604001516020015173ffffffffffffffffffffffffffffffffffffffff166323b872dd83600001517f00000000000000000000000000000000000000000000000000000000000000006109b385610e90565b6040518463ffffffff1660e01b81526004016109d193929190611be1565b6020604051808303816000875af11580156109f0573d6000803e3d6000fd5b505050506040513d601f19601f82011682018060405250810190610a149190611c2d565b507f000000000000000000000000000000000000000000000000000000000000000073ffffffffffffffffffffffffffffffffffffffff16636a256b298360400151602001516040518263ffffffff1660e01b8152600401610a769190611b07565b6020604051808303816000875af1158015610a95573d6000803e3d6000fd5b505050506040513d601f19601f82011682018060405250810190610ab99190611b58565b505b610b9c565b7f000000000000000000000000000000000000000000000000000000000000000073ffffffffffffffffffffffffffffffffffffffff1663f242432a83600001517f000000000000000000000000000000000000000000000000000000000000000085604001516020015173ffffffffffffffffffffffffffffffffffffffff16610b4a86610e90565b6040518563ffffffff1660e01b8152600401610b699493929190611c8f565b600060405180830381600087803b158015610b8357600080fd5b505af1158015610b97573d6000803e3d6000fd5b505050505b5b6000610ba882610e4b565b600f0b1215610d1e5781602001516000015115610c70577f000000000000000000000000000000000000000000000000000000000000000073ffffffffffffffffffffffffffffffffffffffff16630b0d9c098360400151600001518460000151610c1285610e4b565b610c1b90611d23565b6040518463ffffffff1660e01b8152600401610c3993929190611d6b565b600060405180830381600087803b158015610c5357600080fd5b505af1158015610c67573d6000803e3d6000fd5b50505050610d1d565b7f000000000000000000000000000000000000000000000000000000000000000073ffffffffffffffffffffffffffffffffffffffff1663c6c3bbe68360400151600001518460000151610cc385610e4b565b610ccc90611d23565b6040518463ffffffff1660e01b8152600401610cea93929190611d6b565b600060405180830381600087803b158015610d0457600080fd5b505af1158015610d18573d6000803e3d6000fd5b505050505b5b5b80604051602001610d3091906113a9565b6040516020818303038152906040529250505092915050565b6000610d6a8473ffffffffffffffffffffffffffffffffffffffff16610e58565b15610db75760008060008085875af1905080610db2576040517ff4b3b1bc00000000000000000000000000000000000000000000000000000000815260040160405180910390fd5b610e45565b6040517fa9059cbb000000000000000000000000000000000000000000000000000000006000528360045282602452602060006044600080895af13d15601f3d1160016000511416171691506000606052806040525080610e44576040517ff27f64e400000000000000000000000000000000000000000000000000000000815260040160405180910390fd5b5b50505050565b60008160801c9050919050565b60008073ffffffffffffffffffffffffffffffffffffffff168273ffffffffffffffffffffffffffffffffffffffff16149050919050565b6000819050919050565b6000604051905090565b600080fd5b600080fd5b600080fd5b6000601f19601f8301169050919050565b7f4e487b7100000000000000000000000000000000000000000000000000000000600052604160045260246000fd5b610efc82610eb3565b810181811067ffffffffffffffff82111715610f1b57610f1a610ec4565b5b80604052505050565b6000610f2e610e9a565b9050610f3a8282610ef3565b919050565b600080fd5b600073ffffffffffffffffffffffffffffffffffffffff82169050919050565b6000610f6f82610f44565b9050919050565b610f7f81610f64565b8114610f8a57600080fd5b50565b600081359050610f9c81610f76565b92915050565b600062ffffff82169050919050565b610fba81610fa2565b8114610fc557600080fd5b50565b600081359050610fd781610fb1565b92915050565b60008160020b9050919050565b610ff381610fdd565b8114610ffe57600080fd5b50565b60008135905061101081610fea565b92915050565b600061102182610f64565b9050919050565b61103181611016565b811461103c57600080fd5b50565b60008135905061104e81611028565b92915050565b600060a0828403121561106a57611069610eae565b5b61107460a0610f24565b9050600061108484828501610f8d565b600083015250602061109884828501610f8d565b60208301525060406110ac84828501610fc8565b60408301525060606110c084828501611001565b60608301525060806110d48482850161103f565b60808301525092915050565b60008115159050919050565b6110f5816110e0565b811461110057600080fd5b50565b600081359050611112816110ec565b92915050565b6000819050919050565b61112b81611118565b811461113657600080fd5b50565b60008135905061114881611122565b92915050565b61115781610f44565b811461116257600080fd5b50565b6000813590506111748161114e565b92915050565b6000606082840312156111905761118f610eae565b5b61119a6060610f24565b905060006111aa84828501611103565b60008301525060206111be84828501611139565b60208301525060406111d284828501611165565b60408301525092915050565b6000604082840312156111f4576111f3610eae565b5b6111fe6040610f24565b9050600061120e84828501611103565b600083015250602061122284828501611103565b60208301525092915050565b600080fd5b600080fd5b600067ffffffffffffffff82111561125357611252610ec4565b5b61125c82610eb3565b9050602081019050919050565b82818337600083830152505050565b600061128b61128684611238565b610f24565b9050828152602081018484840111156112a7576112a6611233565b5b6112b2848285611269565b509392505050565b600082601f8301126112cf576112ce61122e565b5b81356112df848260208601611278565b91505092915050565b600080600080610160858703121561130357611302610ea4565b5b600061131187828801611054565b94505060a06113228782880161117a565b935050610100611334878288016111de565b92505061014085013567ffffffffffffffff81111561135657611355610ea9565b5b611362878288016112ba565b91505092959194509250565b6000819050919050565b600061139361138e61138984611118565b61136e565b611118565b9050919050565b6113a381611378565b82525050565b60006020820190506113be600083018461139a565b92915050565b60006113df6113da6113d584610f44565b61136e565b610f44565b9050919050565b60006113f1826113c4565b9050919050565b6000611403826113e6565b9050919050565b611413816113f8565b82525050565b600060208201905061142e600083018461140a565b92915050565b600080fd5b600080fd5b60008083601f8401126114545761145361122e565b5b8235905067ffffffffffffffff81111561147157611470611434565b5b60208301915083600182028301111561148d5761148c611439565b5b9250929050565b600080602083850312156114ab576114aa610ea4565b5b600083013567ffffffffffffffff8111156114c9576114c8610ea9565b5b6114d58582860161143e565b92509250509250929050565b600081519050919050565b600082825260208201905092915050565b60005b8381101561151b578082015181840152602081019050611500565b60008484015250505050565b6000611532826114e1565b61153c81856114ec565b935061154c8185602086016114fd565b61155581610eb3565b840191505092915050565b6000602082019050818103600083015261157a8184611527565b905092915050565b61158b81610f64565b82525050565b61159a816110e0565b82525050565b6040820160008201516115b66000850182611591565b5060208201516115c96020850182611591565b50505050565b60006115da826113e6565b9050919050565b6115ea816115cf565b82525050565b6115f981610fa2565b82525050565b61160881610fdd565b82525050565b6000611619826113e6565b9050919050565b6116298161160e565b82525050565b60a08201600082015161164560008501826115e1565b50602082015161165860208501826115e1565b50604082015161166b60408501826115f0565b50606082015161167e60608501826115ff565b5060808201516116916080850182611620565b50505050565b6116a081611118565b82525050565b6116af81610f44565b82525050565b6060820160008201516116cb6000850182611591565b5060208201516116de6020850182611697565b5060408201516116f160408501826116a6565b50505050565b600082825260208201905092915050565b6000611713826114e1565b61171d81856116f7565b935061172d8185602086016114fd565b61173681610eb3565b840191505092915050565b60006101808301600083015161175a6000860182611582565b50602083015161176d60208601826115a0565b506040830151611780606086018261162f565b5060608301516117946101008601826116b5565b5060808301518482036101608601526117ad8282611708565b9150508091505092915050565b600060208201905081810360008301526117d48184611741565b905092915050565b60006117ef6117ea84611238565b610f24565b90508281526020810184848401111561180b5761180a611233565b5b6118168482856114fd565b509392505050565b600082601f8301126118335761183261122e565b5b81516118438482602086016117dc565b91505092915050565b60006020828403121561186257611861610ea4565b5b600082015167ffffffffffffffff8111156118805761187f610ea9565b5b61188c8482850161181e565b91505092915050565b61189e81611118565b81146118a957600080fd5b50565b6000815190506118bb81611895565b92915050565b6000602082840312156118d7576118d6610ea4565b5b60006118e5848285016118ac565b91505092915050565b6118f781610f64565b811461190257600080fd5b50565b600081359050611914816118ee565b92915050565b6000610180828403121561193157611930610eae565b5b61193b60a0610f24565b9050600061194b84828501611905565b600083015250602061195f848285016111de565b602083015250606061197384828501611054565b6040830152506101006119888482850161117a565b60608301525061016082013567ffffffffffffffff8111156119ad576119ac610f3f565b5b6119b9848285016112ba565b60808301525092915050565b6000602082840312156119db576119da610ea4565b5b600082013567ffffffffffffffff8111156119f9576119f8610ea9565b5b611a058482850161191a565b91505092915050565b60a082016000820151611a2460008501826115e1565b506020820151611a3760208501826115e1565b506040820151611a4a60408501826115f0565b506060820151611a5d60608501826115ff565b506080820151611a706080850182611620565b50505050565b606082016000820151611a8c6000850182611591565b506020820151611a9f6020850182611697565b506040820151611ab260408501826116a6565b50505050565b600061012082019050611ace6000830186611a0e565b611adb60a0830185611a76565b818103610100830152611aee8184611527565b9050949350505050565b611b01816115cf565b82525050565b6000602082019050611b1c6000830184611af8565b92915050565b6000819050919050565b611b3581611b22565b8114611b4057600080fd5b50565b600081519050611b5281611b2c565b92915050565b600060208284031215611b6e57611b6d610ea4565b5b6000611b7c84828501611b43565b91505092915050565b611b8e81610f64565b82525050565b60006fffffffffffffffffffffffffffffffff82169050919050565b6000611bcb611bc6611bc184611b94565b61136e565b611b22565b9050919050565b611bdb81611bb0565b82525050565b6000606082019050611bf66000830186611b85565b611c036020830185611b85565b611c106040830184611bd2565b949350505050565b600081519050611c27816110ec565b92915050565b600060208284031215611c4357611c42610ea4565b5b6000611c5184828501611c18565b91505092915050565b611c6381611b22565b82525050565b50565b6000611c796000836114ec565b9150611c8482611c69565b600082019050919050565b600060a082019050611ca46000830187611b85565b611cb16020830186611b85565b611cbe6040830185611c5a565b611ccb6060830184611bd2565b8181036080830152611cdc81611c6c565b905095945050505050565b600081600f0b9050919050565b7f4e487b7100000000000000000000000000000000000000000000000000000000600052601160045260246000fd5b6000611d2e82611ce7565b91507fffffffffffffffffffffffffffffffff800000000000000000000000000000008203611d6057611d5f611cf4565b5b816000039050919050565b6000606082019050611d806000830186611af8565b611d8d6020830185611b85565b611d9a6040830184611bd2565b94935050505056fea264697066735822122085fe61d34154f16890ee79561b71b7038357e0b2bc50ca7c25d069cbe04ed88a64736f6c63430008150033a264697066735822122009bb822f0a051315a52ec7a5ac039f995317bcd690819128f296f1ceed525fe664736f6c63430008150033",
  "linkReferences": {},
  "deployedLinkReferences": {}
}