{
  "_format": "hh-sol-artifact-1",
  "contractName": "MultiSigSwapHookImplementation",
  "sourceName": "test/MULTI_SIG/Foundry/utils/MultiSigSwapHookImplementation.sol",
  "abi": [
    {
      "inputs": [
        {
          "internalType": "contract IPoolManager",
          "name": "poolManager",
          "type": "address"
        },
        {
          "internalType": "contract MultiSigSwapHook",
          "name": "addressToEtch",
          "type": "address"
        },
        {
          "internalType": "address[]",
          "name": "_signers",
          "type": "address[]"
        },
        {
          "internalType": "uint256",
          "name": "_requiredSignatures",
          "type": "uint256"
        }
      ],
      "stateMutability": "nonpayable",
      "type": "constructor"
    },
    {
      "inputs": [
        {
          "internalType": "address",
          "name": "hooks",
          "type": "address"
        }
      ],
      "name": "HookAddressNotValid",
      "type": "error"
    },
    {
      "inputs": [],
      "name": "HookNotImplemented",
      "type": "error"
    },
    {
      "inputs": [],
      "name": "InvalidPool",
      "type": "error"
    },
    {
      "inputs": [],
      "name": "LockFailure",
      "type": "error"
    },
    {
      "inputs": [],
      "name": "NotPoolManager",
      "type": "error"
    },
    {
      "inputs": [],
      "name": "NotSelf",
      "type": "error"
    },
    {
      "anonymous": false,
      "inputs": [
        {
          "indexed": true,
          "internalType": "address",
          "name": "signer",
          "type": "address"
        },
        {
          "indexed": true,
          "internalType": "bytes32",
          "name": "swapHash",
          "type": "bytes32"
        }
      ],
      "name": "ApprovalAdded",
      "type": "event"
    },
    {
      "anonymous": false,
      "inputs": [
        {
          "indexed": true,
          "internalType": "bytes32",
          "name": "swapHash",
          "type": "bytes32"
        }
      ],
      "name": "SwapCompleted",
      "type": "event"
    },
    {
      "inputs": [
        {
          "internalType": "address",
          "name": "signer",
          "type": "address"
        }
      ],
      "name": "addSigner",
      "outputs": [],
      "stateMutability": "nonpayable",
      "type": "function"
    },
    {
      "inputs": [
        {
          "internalType": "address",
          "name": "",
          "type": "address"
        },
        {
          "components": [
            {
              "internalType": "Currency",
              "name": "currency0",
              "type": "address"
            },
            {
              "internalType": "Currency",
              "name": "currency1",
              "type": "address"
            },
            {
              "internalType": "uint24",
              "name": "fee",
              "type": "uint24"
            },
            {
              "internalType": "int24",
              "name": "tickSpacing",
              "type": "int24"
            },
            {
              "internalType": "contract IHooks",
              "name": "hooks",
              "type": "address"
            }
          ],
          "internalType": "struct PoolKey",
          "name": "",
          "type": "tuple"
        },
        {
          "internalType": "uint256",
          "name": "",
          "type": "uint256"
        },
        {
          "internalType": "uint256",
          "name": "",
          "type": "uint256"
        },
        {
          "internalType": "bytes",
          "name": "",
          "type": "bytes"
        }
      ],
      "name": "afterDonate",
      "outputs": [
        {
          "internalType": "bytes4",
          "name": "",
          "type": "bytes4"
        }
      ],
      "stateMutability": "nonpayable",
      "type": "function"
    },
    {
      "inputs": [
        {
          "internalType": "address",
          "name": "",
          "type": "address"
        },
        {
          "components": [
            {
              "internalType": "Currency",
              "name": "currency0",
              "type": "address"
            },
            {
              "internalType": "Currency",
              "name": "currency1",
              "type": "address"
            },
            {
              "internalType": "uint24",
              "name": "fee",
              "type": "uint24"
            },
            {
              "internalType": "int24",
              "name": "tickSpacing",
              "type": "int24"
            },
            {
              "internalType": "contract IHooks",
              "name": "hooks",
              "type": "address"
            }
          ],
          "internalType": "struct PoolKey",
          "name": "",
          "type": "tuple"
        },
        {
          "internalType": "uint160",
          "name": "",
          "type": "uint160"
        },
        {
          "internalType": "int24",
          "name": "",
          "type": "int24"
        },
        {
          "internalType": "bytes",
          "name": "",
          "type": "bytes"
        }
      ],
      "name": "afterInitialize",
      "outputs": [
        {
          "internalType": "bytes4",
          "name": "",
          "type": "bytes4"
        }
      ],
      "stateMutability": "nonpayable",
      "type": "function"
    },
    {
      "inputs": [
        {
          "internalType": "address",
          "name": "",
          "type": "address"
        },
        {
          "components": [
            {
              "internalType": "Currency",
              "name": "currency0",
              "type": "address"
            },
            {
              "internalType": "Currency",
              "name": "currency1",
              "type": "address"
            },
            {
              "internalType": "uint24",
              "name": "fee",
              "type": "uint24"
            },
            {
              "internalType": "int24",
              "name": "tickSpacing",
              "type": "int24"
            },
            {
              "internalType": "contract IHooks",
              "name": "hooks",
              "type": "address"
            }
          ],
          "internalType": "struct PoolKey",
          "name": "",
          "type": "tuple"
        },
        {
          "components": [
            {
              "internalType": "int24",
              "name": "tickLower",
              "type": "int24"
            },
            {
              "internalType": "int24",
              "name": "tickUpper",
              "type": "int24"
            },
            {
              "internalType": "int256",
              "name": "liquidityDelta",
              "type": "int256"
            }
          ],
          "internalType": "struct IPoolManager.ModifyPositionParams",
          "name": "",
          "type": "tuple"
        },
        {
          "internalType": "BalanceDelta",
          "name": "",
          "type": "int256"
        },
        {
          "internalType": "bytes",
          "name": "",
          "type": "bytes"
        }
      ],
      "name": "afterModifyPosition",
      "outputs": [
        {
          "internalType": "bytes4",
          "name": "",
          "type": "bytes4"
        }
      ],
      "stateMutability": "nonpayable",
      "type": "function"
    },
    {
      "inputs": [
        {
          "internalType": "address",
          "name": "",
          "type": "address"
        },
        {
          "components": [
            {
              "internalType": "Currency",
              "name": "currency0",
              "type": "address"
            },
            {
              "internalType": "Currency",
              "name": "currency1",
              "type": "address"
            },
            {
              "internalType": "uint24",
              "name": "fee",
              "type": "uint24"
            },
            {
              "internalType": "int24",
              "name": "tickSpacing",
              "type": "int24"
            },
            {
              "internalType": "contract IHooks",
              "name": "hooks",
              "type": "address"
            }
          ],
          "internalType": "struct PoolKey",
          "name": "",
          "type": "tuple"
        },
        {
          "components": [
            {
              "internalType": "bool",
              "name": "zeroForOne",
              "type": "bool"
            },
            {
              "internalType": "int256",
              "name": "amountSpecified",
              "type": "int256"
            },
            {
              "internalType": "uint160",
              "name": "sqrtPriceLimitX96",
              "type": "uint160"
            }
          ],
          "internalType": "struct IPoolManager.SwapParams",
          "name": "swapParams",
          "type": "tuple"
        },
        {
          "internalType": "BalanceDelta",
          "name": "",
          "type": "int256"
        },
        {
          "internalType": "bytes",
          "name": "",
          "type": "bytes"
        }
      ],
      "name": "afterSwap",
      "outputs": [
        {
          "internalType": "bytes4",
          "name": "",
          "type": "bytes4"
        }
      ],
      "stateMutability": "nonpayable",
      "type": "function"
    },
    {
      "inputs": [
        {
          "internalType": "bytes32",
          "name": "swapHash",
          "type": "bytes32"
        }
      ],
      "name": "approveSwap",
      "outputs": [],
      "stateMutability": "nonpayable",
      "type": "function"
    },
    {
      "inputs": [
        {
          "internalType": "address",
          "name": "",
          "type": "address"
        }
      ],
      "name": "authorizedSigners",
      "outputs": [
        {
          "internalType": "bool",
          "name": "",
          "type": "bool"
        }
      ],
      "stateMutability": "view",
      "type": "function"
    },
    {
      "inputs": [
        {
          "internalType": "address",
          "name": "",
          "type": "address"
        },
        {
          "components": [
            {
              "internalType": "Currency",
              "name": "currency0",
              "type": "address"
            },
            {
              "internalType": "Currency",
              "name": "currency1",
              "type": "address"
            },
            {
              "internalType": "uint24",
              "name": "fee",
              "type": "uint24"
            },
            {
              "internalType": "int24",
              "name": "tickSpacing",
              "type": "int24"
            },
            {
              "internalType": "contract IHooks",
              "name": "hooks",
              "type": "address"
            }
          ],
          "internalType": "struct PoolKey",
          "name": "",
          "type": "tuple"
        },
        {
          "internalType": "uint256",
          "name": "",
          "type": "uint256"
        },
        {
          "internalType": "uint256",
          "name": "",
          "type": "uint256"
        },
        {
          "internalType": "bytes",
          "name": "",
          "type": "bytes"
        }
      ],
      "name": "beforeDonate",
      "outputs": [
        {
          "internalType": "bytes4",
          "name": "",
          "type": "bytes4"
        }
      ],
      "stateMutability": "nonpayable",
      "type": "function"
    },
    {
      "inputs": [
        {
          "internalType": "address",
          "name": "",
          "type": "address"
        },
        {
          "components": [
            {
              "internalType": "Currency",
              "name": "currency0",
              "type": "address"
            },
            {
              "internalType": "Currency",
              "name": "currency1",
              "type": "address"
            },
            {
              "internalType": "uint24",
              "name": "fee",
              "type": "uint24"
            },
            {
              "internalType": "int24",
              "name": "tickSpacing",
              "type": "int24"
            },
            {
              "internalType": "contract IHooks",
              "name": "hooks",
              "type": "address"
            }
          ],
          "internalType": "struct PoolKey",
          "name": "",
          "type": "tuple"
        },
        {
          "internalType": "uint160",
          "name": "",
          "type": "uint160"
        },
        {
          "internalType": "bytes",
          "name": "",
          "type": "bytes"
        }
      ],
      "name": "beforeInitialize",
      "outputs": [
        {
          "internalType": "bytes4",
          "name": "",
          "type": "bytes4"
        }
      ],
      "stateMutability": "nonpayable",
      "type": "function"
    },
    {
      "inputs": [
        {
          "internalType": "address",
          "name": "",
          "type": "address"
        },
        {
          "components": [
            {
              "internalType": "Currency",
              "name": "currency0",
              "type": "address"
            },
            {
              "internalType": "Currency",
              "name": "currency1",
              "type": "address"
            },
            {
              "internalType": "uint24",
              "name": "fee",
              "type": "uint24"
            },
            {
              "internalType": "int24",
              "name": "tickSpacing",
              "type": "int24"
            },
            {
              "internalType": "contract IHooks",
              "name": "hooks",
              "type": "address"
            }
          ],
          "internalType": "struct PoolKey",
          "name": "",
          "type": "tuple"
        },
        {
          "components": [
            {
              "internalType": "int24",
              "name": "tickLower",
              "type": "int24"
            },
            {
              "internalType": "int24",
              "name": "tickUpper",
              "type": "int24"
            },
            {
              "internalType": "int256",
              "name": "liquidityDelta",
              "type": "int256"
            }
          ],
          "internalType": "struct IPoolManager.ModifyPositionParams",
          "name": "",
          "type": "tuple"
        },
        {
          "internalType": "bytes",
          "name": "",
          "type": "bytes"
        }
      ],
      "name": "beforeModifyPosition",
      "outputs": [
        {
          "internalType": "bytes4",
          "name": "",
          "type": "bytes4"
        }
      ],
      "stateMutability": "nonpayable",
      "type": "function"
    },
    {
      "inputs": [
        {
          "internalType": "address",
          "name": "",
          "type": "address"
        },
        {
          "components": [
            {
              "internalType": "Currency",
              "name": "currency0",
              "type": "address"
            },
            {
              "internalType": "Currency",
              "name": "currency1",
              "type": "address"
            },
            {
              "internalType": "uint24",
              "name": "fee",
              "type": "uint24"
            },
            {
              "internalType": "int24",
              "name": "tickSpacing",
              "type": "int24"
            },
            {
              "internalType": "contract IHooks",
              "name": "hooks",
              "type": "address"
            }
          ],
          "internalType": "struct PoolKey",
          "name": "",
          "type": "tuple"
        },
        {
          "components": [
            {
              "internalType": "bool",
              "name": "zeroForOne",
              "type": "bool"
            },
            {
              "internalType": "int256",
              "name": "amountSpecified",
              "type": "int256"
            },
            {
              "internalType": "uint160",
              "name": "sqrtPriceLimitX96",
              "type": "uint160"
            }
          ],
          "internalType": "struct IPoolManager.SwapParams",
          "name": "swapParams",
          "type": "tuple"
        },
        {
          "internalType": "bytes",
          "name": "",
          "type": "bytes"
        }
      ],
      "name": "beforeSwap",
      "outputs": [
        {
          "internalType": "bytes4",
          "name": "",
          "type": "bytes4"
        }
      ],
      "stateMutability": "view",
      "type": "function"
    },
    {
      "inputs": [
        {
          "internalType": "bytes32",
          "name": "swapHash",
          "type": "bytes32"
        }
      ],
      "name": "getApprovalDetails",
      "outputs": [
        {
          "internalType": "uint256",
          "name": "approvalCount",
          "type": "uint256"
        },
        {
          "internalType": "bool",
          "name": "hasSigned",
          "type": "bool"
        }
      ],
      "stateMutability": "view",
      "type": "function"
    },
    {
      "inputs": [],
      "name": "getHooksCalls",
      "outputs": [
        {
          "components": [
            {
              "internalType": "bool",
              "name": "beforeInitialize",
              "type": "bool"
            },
            {
              "internalType": "bool",
              "name": "afterInitialize",
              "type": "bool"
            },
            {
              "internalType": "bool",
              "name": "beforeModifyPosition",
              "type": "bool"
            },
            {
              "internalType": "bool",
              "name": "afterModifyPosition",
              "type": "bool"
            },
            {
              "internalType": "bool",
              "name": "beforeSwap",
              "type": "bool"
            },
            {
              "internalType": "bool",
              "name": "afterSwap",
              "type": "bool"
            },
            {
              "internalType": "bool",
              "name": "beforeDonate",
              "type": "bool"
            },
            {
              "internalType": "bool",
              "name": "afterDonate",
              "type": "bool"
            }
          ],
          "internalType": "struct Hooks.Calls",
          "name": "",
          "type": "tuple"
        }
      ],
      "stateMutability": "pure",
      "type": "function"
    },
    {
      "inputs": [
        {
          "internalType": "bytes",
          "name": "data",
          "type": "bytes"
        }
      ],
      "name": "lockAcquired",
      "outputs": [
        {
          "internalType": "bytes",
          "name": "",
          "type": "bytes"
        }
      ],
      "stateMutability": "nonpayable",
      "type": "function"
    },
    {
      "inputs": [],
      "name": "owner",
      "outputs": [
        {
          "internalType": "address",
          "name": "",
          "type": "address"
        }
      ],
      "stateMutability": "view",
      "type": "function"
    },
    {
      "inputs": [],
      "name": "poolManager",
      "outputs": [
        {
          "internalType": "contract IPoolManager",
          "name": "",
          "type": "address"
        }
      ],
      "stateMutability": "view",
      "type": "function"
    },
    {
      "inputs": [
        {
          "internalType": "address",
          "name": "signer",
          "type": "address"
        }
      ],
      "name": "removeSigner",
      "outputs": [],
      "stateMutability": "nonpayable",
      "type": "function"
    },
    {
      "inputs": [],
      "name": "requiredSignatures",
      "outputs": [
        {
          "internalType": "uint256",
          "name": "",
          "type": "uint256"
        }
      ],
      "stateMutability": "view",
      "type": "function"
    },
    {
      "inputs": [
        {
          "internalType": "uint256",
          "name": "_requiredSignatures",
          "type": "uint256"
        }
      ],
      "name": "setRequiredSignatures",
      "outputs": [],
      "stateMutability": "nonpayable",
      "type": "function"
    },
    {
      "inputs": [
        {
          "internalType": "bytes32",
          "name": "",
          "type": "bytes32"
        }
      ],
      "name": "swapApprovals",
      "outputs": [
        {
          "internalType": "uint256",
          "name": "count",
          "type": "uint256"
        }
      ],
      "stateMutability": "view",
      "type": "function"
    }
  ],
  "bytecode": "0x60a06040523480156200001157600080fd5b5060405162002c0438038062002c0483398181016040528101906200003791906200095e565b838282828073ffffffffffffffffffffffffffffffffffffffff1660808173ffffffffffffffffffffffffffffffffffffffff16815250506200008030620002c960201b60201c565b508082511015620000c8576040517f08c379a0000000000000000000000000000000000000000000000000000000008152600401620000bf9062000a76565b60405180910390fd5b600081116200010e576040517f08c379a0000000000000000000000000000000000000000000000000000000008152600401620001059062000b0e565b60405180910390fd5b60005b825181101562000253576002600084838151811062000135576200013462000b30565b5b602002602001015173ffffffffffffffffffffffffffffffffffffffff1673ffffffffffffffffffffffffffffffffffffffff16815260200190815260200160002060009054906101000a900460ff1615620001c8576040517f08c379a0000000000000000000000000000000000000000000000000000000008152600401620001bf9062000bd5565b60405180910390fd5b600160026000858481518110620001e457620001e362000b30565b5b602002602001015173ffffffffffffffffffffffffffffffffffffffff1673ffffffffffffffffffffffffffffffffffffffff16815260200190815260200160002060006101000a81548160ff02191690831515021790555080806200024a9062000c26565b91505062000111565b5080600381905550336000806101000a81548173ffffffffffffffffffffffffffffffffffffffff021916908373ffffffffffffffffffffffffffffffffffffffff160217905550505050620002bf83620002b3620002cc60201b60201c565b6200032d60201b60201c565b5050505062000ca1565b50565b620002d662000656565b60405180610100016040528060001515815260200160001515815260200160001515815260200160001515815260200160011515815260200160011515815260200160001515815260200160001515815250905090565b6200033e826200048e60201b60201c565b1515816000015115151415806200036d57506200036182620004c760201b60201c565b15158160200151151514155b8062000391575062000385826200050060201b60201c565b15158160400151151514155b80620003b55750620003a9826200053960201b60201c565b15158160600151151514155b80620003d95750620003cd826200057260201b60201c565b15158160800151151514155b80620003fd5750620003f182620005ab60201b60201c565b15158160a00151151514155b806200042157506200041582620005e460201b60201c565b15158160c00151151514155b8062000445575062000439826200061d60201b60201c565b15158160e00151151514155b156200048a57816040517fe65af6a000000000000000000000000000000000000000000000000000000000815260040162000481919062000c84565b60405180910390fd5b5050565b6000807380000000000000000000000000000000000000008373ffffffffffffffffffffffffffffffffffffffff161614159050919050565b6000807340000000000000000000000000000000000000008373ffffffffffffffffffffffffffffffffffffffff161614159050919050565b6000807320000000000000000000000000000000000000008373ffffffffffffffffffffffffffffffffffffffff161614159050919050565b6000807310000000000000000000000000000000000000008373ffffffffffffffffffffffffffffffffffffffff161614159050919050565b6000807308000000000000000000000000000000000000008373ffffffffffffffffffffffffffffffffffffffff161614159050919050565b6000807304000000000000000000000000000000000000008373ffffffffffffffffffffffffffffffffffffffff161614159050919050565b6000807302000000000000000000000000000000000000008373ffffffffffffffffffffffffffffffffffffffff161614159050919050565b6000807301000000000000000000000000000000000000008373ffffffffffffffffffffffffffffffffffffffff161614159050919050565b6040518061010001604052806000151581526020016000151581526020016000151581526020016000151581526020016000151581526020016000151581526020016000151581526020016000151581525090565b6000604051905090565b600080fd5b600080fd5b600073ffffffffffffffffffffffffffffffffffffffff82169050919050565b6000620006ec82620006bf565b9050919050565b60006200070082620006df565b9050919050565b6200071281620006f3565b81146200071e57600080fd5b50565b600081519050620007328162000707565b92915050565b60006200074582620006df565b9050919050565b620007578162000738565b81146200076357600080fd5b50565b60008151905062000777816200074c565b92915050565b600080fd5b6000601f19601f8301169050919050565b7f4e487b7100000000000000000000000000000000000000000000000000000000600052604160045260246000fd5b620007cd8262000782565b810181811067ffffffffffffffff82111715620007ef57620007ee62000793565b5b80604052505050565b600062000804620006ab565b9050620008128282620007c2565b919050565b600067ffffffffffffffff82111562000835576200083462000793565b5b602082029050602081019050919050565b600080fd5b6200085681620006df565b81146200086257600080fd5b50565b60008151905062000876816200084b565b92915050565b6000620008936200088d8462000817565b620007f8565b90508083825260208201905060208402830185811115620008b957620008b862000846565b5b835b81811015620008e65780620008d1888262000865565b845260208401935050602081019050620008bb565b5050509392505050565b600082601f8301126200090857620009076200077d565b5b81516200091a8482602086016200087c565b91505092915050565b6000819050919050565b620009388162000923565b81146200094457600080fd5b50565b60008151905062000958816200092d565b92915050565b600080600080608085870312156200097b576200097a620006b5565b5b60006200098b8782880162000721565b94505060206200099e8782880162000766565b935050604085015167ffffffffffffffff811115620009c257620009c1620006ba565b5b620009d087828801620008f0565b9250506060620009e38782880162000947565b91505092959194509250565b600082825260208201905092915050565b7f496e76616c6964207369676e657273206f72207265717569726564207369676e60008201527f6174757265730000000000000000000000000000000000000000000000000000602082015250565b600062000a5e602683620009ef565b915062000a6b8262000a00565b604082019050919050565b6000602082019050818103600083015262000a918162000a4f565b9050919050565b7f4174206c65617374206f6e65207369676e61747572652069732072657175697260008201527f6564000000000000000000000000000000000000000000000000000000000000602082015250565b600062000af6602283620009ef565b915062000b038262000a98565b604082019050919050565b6000602082019050818103600083015262000b298162000ae7565b9050919050565b7f4e487b7100000000000000000000000000000000000000000000000000000000600052603260045260246000fd5b7f4475706c6963617465207369676e65727320617265206e6f7420616c6c6f776560008201527f6400000000000000000000000000000000000000000000000000000000000000602082015250565b600062000bbd602183620009ef565b915062000bca8262000b5f565b604082019050919050565b6000602082019050818103600083015262000bf08162000bae565b9050919050565b7f4e487b7100000000000000000000000000000000000000000000000000000000600052601160045260246000fd5b600062000c338262000923565b91507fffffffffffffffffffffffffffffffffffffffffffffffffffffffffffffffff820362000c685762000c6762000bf7565b5b600182019050919050565b62000c7e81620006df565b82525050565b600060208201905062000c9b600083018462000c73565b92915050565b608051611f4062000cc46000396000818161088e0152610abb0152611f406000f3fe608060405234801561001057600080fd5b506004361061012c5760003560e01c8063ab6291fe116100ad578063e1b4af6911610071578063e1b4af6914610391578063e35468cb146103c1578063eb12d61e146103dd578063f9eb456b146103f9578063fe9a6f451461042a5761012c565b8063ab6291fe146102b3578063b47b2fb1146102e3578063b6a8b0fa14610313578063d3f5dedd14610343578063dc4c90d3146103735761012c565b8063612c39b7116100f4578063612c39b71461020d5780637d2b9cc01461022b5780638d068043146102475780638da5cb5b14610265578063a910f80f146102835761012c565b80630e316ab71461013157806330b7cdef1461014d5780633440d8201461017d578063575e24b4146101ad5780635d2b6a4e146101dd575b600080fd5b61014b60048036038101906101469190611007565b61045a565b005b61016760048036038101906101629190611112565b6105cf565b60405161017491906111ea565b60405180910390f35b61019760048036038101906101929190611231565b610603565b6040516101a491906111ea565b60405180910390f35b6101c760048036038101906101c291906112d9565b610637565b6040516101d491906111ea565b60405180910390f35b6101f760048036038101906101f29190611007565b6106d2565b604051610204919061137e565b60405180910390f35b6102156106f2565b604051610222919061144a565b60405180910390f35b6102456004803603810190610240919061149c565b610751565b005b61024f61082c565b60405161025c91906114d8565b60405180910390f35b61026d610832565b60405161027a9190611502565b60405180910390f35b61029d60048036038101906102989190611556565b610856565b6040516102aa91906111ea565b60405180910390f35b6102cd60048036038101906102c891906115f2565b61088a565b6040516102da91906116cf565b60405180910390f35b6102fd60048036038101906102f891906116f1565b6109db565b60405161030a91906111ea565b60405180910390f35b61032d6004803603810190610328919061178e565b610a67565b60405161033a91906111ea565b60405180910390f35b61035d60048036038101906103589190611860565b610a9b565b60405161036a91906114d8565b60405180910390f35b61037b610ab9565b60405161038891906118ec565b60405180910390f35b6103ab60048036038101906103a6919061178e565b610add565b6040516103b891906111ea565b60405180910390f35b6103db60048036038101906103d69190611860565b610b11565b005b6103f760048036038101906103f29190611007565b610d1c565b005b610413600480360381019061040e9190611860565b610e92565b604051610421929190611907565b60405180910390f35b610444600480360381019061043f9190611930565b610f16565b60405161045191906111ea565b60405180910390f35b60008054906101000a900473ffffffffffffffffffffffffffffffffffffffff1673ffffffffffffffffffffffffffffffffffffffff163373ffffffffffffffffffffffffffffffffffffffff16146104e8576040517f08c379a00000000000000000000000000000000000000000000000000000000081526004016104df90611a17565b60405180910390fd5b600260008273ffffffffffffffffffffffffffffffffffffffff1673ffffffffffffffffffffffffffffffffffffffff16815260200190815260200160002060009054906101000a900460ff16610574576040517f08c379a000000000000000000000000000000000000000000000000000000000815260040161056b90611a83565b60405180910390fd5b6000600260008373ffffffffffffffffffffffffffffffffffffffff1673ffffffffffffffffffffffffffffffffffffffff16815260200190815260200160002060006101000a81548160ff02191690831515021790555050565b60006040517f0a85dc2900000000000000000000000000000000000000000000000000000000815260040160405180910390fd5b60006040517f0a85dc2900000000000000000000000000000000000000000000000000000000815260040160405180910390fd5b6000808460405160200161064b9190611bb8565b604051602081830303815290604052805190602001209050600354600160008381526020019081526020016000206000015410156106be576040517f08c379a00000000000000000000000000000000000000000000000000000000081526004016106b590611c1f565b60405180910390fd5b63575e24b460e01b91505095945050505050565b60026020528060005260406000206000915054906101000a900460ff1681565b6106fa610f4a565b60405180610100016040528060001515815260200160001515815260200160001515815260200160001515815260200160011515815260200160011515815260200160001515815260200160001515815250905090565b60008054906101000a900473ffffffffffffffffffffffffffffffffffffffff1673ffffffffffffffffffffffffffffffffffffffff163373ffffffffffffffffffffffffffffffffffffffff16146107df576040517f08c379a00000000000000000000000000000000000000000000000000000000081526004016107d690611a17565b60405180910390fd5b60008111610822576040517f08c379a000000000000000000000000000000000000000000000000000000000815260040161081990611cb1565b60405180910390fd5b8060038190555050565b60035481565b60008054906101000a900473ffffffffffffffffffffffffffffffffffffffff1681565b60006040517f0a85dc2900000000000000000000000000000000000000000000000000000000815260040160405180910390fd5b60607f000000000000000000000000000000000000000000000000000000000000000073ffffffffffffffffffffffffffffffffffffffff163373ffffffffffffffffffffffffffffffffffffffff1614610911576040517fae18210a00000000000000000000000000000000000000000000000000000000815260040160405180910390fd5b6000803073ffffffffffffffffffffffffffffffffffffffff16858560405161093b929190611d10565b6000604051808303816000865af19150503d8060008114610978576040519150601f19603f3d011682016040523d82523d6000602084013e61097d565b606091505b509150915081156109925780925050506109d5565b60008151036109cd576040517fa40afa3800000000000000000000000000000000000000000000000000000000815260040160405180910390fd5b805160208201fd5b92915050565b600080856040516020016109ef9190611bb8565b604051602081830303815290604052805190602001209050600160008281526020019081526020016000206000808201600090555050807fcbd087f9a8a65f06ed193f7147c5f9da5d4c1b09a2de92b7f4196854a3e0e71060405160405180910390a263b47b2fb160e01b9150509695505050505050565b60006040517f0a85dc2900000000000000000000000000000000000000000000000000000000815260040160405180910390fd5b60016020528060005260406000206000915090508060000154905081565b7f000000000000000000000000000000000000000000000000000000000000000081565b60006040517f0a85dc2900000000000000000000000000000000000000000000000000000000815260040160405180910390fd5b600260003373ffffffffffffffffffffffffffffffffffffffff1673ffffffffffffffffffffffffffffffffffffffff16815260200190815260200160002060009054906101000a900460ff16610b9d576040517f08c379a0000000000000000000000000000000000000000000000000000000008152600401610b9490611d75565b60405180910390fd5b6001600082815260200190815260200160002060010160003373ffffffffffffffffffffffffffffffffffffffff1673ffffffffffffffffffffffffffffffffffffffff16815260200190815260200160002060009054906101000a900460ff1615610c3e576040517f08c379a0000000000000000000000000000000000000000000000000000000008152600401610c3590611e07565b60405180910390fd5b600160008281526020019081526020016000206000016000815480929190610c6590611e56565b9190505550600180600083815260200190815260200160002060010160003373ffffffffffffffffffffffffffffffffffffffff1673ffffffffffffffffffffffffffffffffffffffff16815260200190815260200160002060006101000a81548160ff021916908315150217905550803373ffffffffffffffffffffffffffffffffffffffff167feabc5269cb96e08081c3c66c435aaeef18ae0cdce6e785be60151096e3b37e0a60405160405180910390a350565b60008054906101000a900473ffffffffffffffffffffffffffffffffffffffff1673ffffffffffffffffffffffffffffffffffffffff163373ffffffffffffffffffffffffffffffffffffffff1614610daa576040517f08c379a0000000000000000000000000000000000000000000000000000000008152600401610da190611a17565b60405180910390fd5b600260008273ffffffffffffffffffffffffffffffffffffffff1673ffffffffffffffffffffffffffffffffffffffff16815260200190815260200160002060009054906101000a900460ff1615610e37576040517f08c379a0000000000000000000000000000000000000000000000000000000008152600401610e2e90611eea565b60405180910390fd5b6001600260008373ffffffffffffffffffffffffffffffffffffffff1673ffffffffffffffffffffffffffffffffffffffff16815260200190815260200160002060006101000a81548160ff02191690831515021790555050565b60008060016000848152602001908152602001600020600001546001600085815260200190815260200160002060010160003373ffffffffffffffffffffffffffffffffffffffff1673ffffffffffffffffffffffffffffffffffffffff16815260200190815260200160002060009054906101000a900460ff1691509150915091565b60006040517f0a85dc2900000000000000000000000000000000000000000000000000000000815260040160405180910390fd5b6040518061010001604052806000151581526020016000151581526020016000151581526020016000151581526020016000151581526020016000151581526020016000151581526020016000151581525090565b600080fd5b600080fd5b600073ffffffffffffffffffffffffffffffffffffffff82169050919050565b6000610fd482610fa9565b9050919050565b610fe481610fc9565b8114610fef57600080fd5b50565b60008135905061100181610fdb565b92915050565b60006020828403121561101d5761101c610f9f565b5b600061102b84828501610ff2565b91505092915050565b600080fd5b600060a0828403121561104f5761104e611034565b5b81905092915050565b60006060828403121561106e5761106d611034565b5b81905092915050565b6000819050919050565b61108a81611077565b811461109557600080fd5b50565b6000813590506110a781611081565b92915050565b600080fd5b600080fd5b600080fd5b60008083601f8401126110d2576110d16110ad565b5b8235905067ffffffffffffffff8111156110ef576110ee6110b2565b5b60208301915083600182028301111561110b5761110a6110b7565b5b9250929050565b60008060008060008061016087890312156111305761112f610f9f565b5b600061113e89828a01610ff2565b965050602061114f89828a01611039565b95505060c061116089828a01611058565b94505061012061117289828a01611098565b93505061014087013567ffffffffffffffff81111561119457611193610fa4565b5b6111a089828a016110bc565b92509250509295509295509295565b60007fffffffff0000000000000000000000000000000000000000000000000000000082169050919050565b6111e4816111af565b82525050565b60006020820190506111ff60008301846111db565b92915050565b61120e81610fa9565b811461121957600080fd5b50565b60008135905061122b81611205565b92915050565b6000806000806000610100868803121561124e5761124d610f9f565b5b600061125c88828901610ff2565b955050602061126d88828901611039565b94505060c061127e8882890161121c565b93505060e086013567ffffffffffffffff81111561129f5761129e610fa4565b5b6112ab888289016110bc565b92509250509295509295909350565b6000606082840312156112d0576112cf611034565b5b81905092915050565b600080600080600061014086880312156112f6576112f5610f9f565b5b600061130488828901610ff2565b955050602061131588828901611039565b94505060c0611326888289016112ba565b93505061012086013567ffffffffffffffff81111561134857611347610fa4565b5b611354888289016110bc565b92509250509295509295909350565b60008115159050919050565b61137881611363565b82525050565b6000602082019050611393600083018461136f565b92915050565b6113a281611363565b82525050565b610100820160008201516113bf6000850182611399565b5060208201516113d26020850182611399565b5060408201516113e56040850182611399565b5060608201516113f86060850182611399565b50608082015161140b6080850182611399565b5060a082015161141e60a0850182611399565b5060c082015161143160c0850182611399565b5060e082015161144460e0850182611399565b50505050565b60006101008201905061146060008301846113a8565b92915050565b6000819050919050565b61147981611466565b811461148457600080fd5b50565b60008135905061149681611470565b92915050565b6000602082840312156114b2576114b1610f9f565b5b60006114c084828501611487565b91505092915050565b6114d281611466565b82525050565b60006020820190506114ed60008301846114c9565b92915050565b6114fc81610fc9565b82525050565b600060208201905061151760008301846114f3565b92915050565b60008160020b9050919050565b6115338161151d565b811461153e57600080fd5b50565b6000813590506115508161152a565b92915050565b600080600080600080610120878903121561157457611573610f9f565b5b600061158289828a01610ff2565b965050602061159389828a01611039565b95505060c06115a489828a0161121c565b94505060e06115b589828a01611541565b93505061010087013567ffffffffffffffff8111156115d7576115d6610fa4565b5b6115e389828a016110bc565b92509250509295509295509295565b6000806020838503121561160957611608610f9f565b5b600083013567ffffffffffffffff81111561162757611626610fa4565b5b611633858286016110bc565b92509250509250929050565b600081519050919050565b600082825260208201905092915050565b60005b8381101561167957808201518184015260208101905061165e565b60008484015250505050565b6000601f19601f8301169050919050565b60006116a18261163f565b6116ab818561164a565b93506116bb81856020860161165b565b6116c481611685565b840191505092915050565b600060208201905081810360008301526116e98184611696565b905092915050565b600080600080600080610160878903121561170f5761170e610f9f565b5b600061171d89828a01610ff2565b965050602061172e89828a01611039565b95505060c061173f89828a016112ba565b94505061012061175189828a01611098565b93505061014087013567ffffffffffffffff81111561177357611772610fa4565b5b61177f89828a016110bc565b92509250509295509295509295565b60008060008060008061012087890312156117ac576117ab610f9f565b5b60006117ba89828a01610ff2565b96505060206117cb89828a01611039565b95505060c06117dc89828a01611487565b94505060e06117ed89828a01611487565b93505061010087013567ffffffffffffffff81111561180f5761180e610fa4565b5b61181b89828a016110bc565b92509250509295509295509295565b6000819050919050565b61183d8161182a565b811461184857600080fd5b50565b60008135905061185a81611834565b92915050565b60006020828403121561187657611875610f9f565b5b60006118848482850161184b565b91505092915050565b6000819050919050565b60006118b26118ad6118a884610fa9565b61188d565b610fa9565b9050919050565b60006118c482611897565b9050919050565b60006118d6826118b9565b9050919050565b6118e6816118cb565b82525050565b600060208201905061190160008301846118dd565b92915050565b600060408201905061191c60008301856114c9565b611929602083018461136f565b9392505050565b6000806000806000610140868803121561194d5761194c610f9f565b5b600061195b88828901610ff2565b955050602061196c88828901611039565b94505060c061197d88828901611058565b93505061012086013567ffffffffffffffff81111561199f5761199e610fa4565b5b6119ab888289016110bc565b92509250509295509295909350565b600082825260208201905092915050565b7f43616c6c6572206973206e6f7420746865206f776e6572000000000000000000600082015250565b6000611a016017836119ba565b9150611a0c826119cb565b602082019050919050565b60006020820190508181036000830152611a30816119f4565b9050919050565b7f5369676e6572206973206e6f7420617574686f72697a65640000000000000000600082015250565b6000611a6d6018836119ba565b9150611a7882611a37565b602082019050919050565b60006020820190508181036000830152611a9c81611a60565b9050919050565b611aac81611363565b8114611ab757600080fd5b50565b600081359050611ac981611aa3565b92915050565b6000611ade6020840184611aba565b905092915050565b611aef81611077565b8114611afa57600080fd5b50565b600081359050611b0c81611ae6565b92915050565b6000611b216020840184611afd565b905092915050565b611b3281611077565b82525050565b6000611b47602084018461121c565b905092915050565b611b5881610fa9565b82525050565b60608201611b6f6000830183611acf565b611b7c6000850182611399565b50611b8a6020830183611b12565b611b976020850182611b29565b50611ba56040830183611b38565b611bb26040850182611b4f565b50505050565b6000606082019050611bcd6000830184611b5e565b92915050565b7f496e73756666696369656e7420617070726f76616c7320666f72207377617000600082015250565b6000611c09601f836119ba565b9150611c1482611bd3565b602082019050919050565b60006020820190508181036000830152611c3881611bfc565b9050919050565b7f4174206c65617374206f6e65207369676e61747572652069732072657175697260008201527f6564000000000000000000000000000000000000000000000000000000000000602082015250565b6000611c9b6022836119ba565b9150611ca682611c3f565b604082019050919050565b60006020820190508181036000830152611cca81611c8e565b9050919050565b600081905092915050565b82818337600083830152505050565b6000611cf78385611cd1565b9350611d04838584611cdc565b82840190509392505050565b6000611d1d828486611ceb565b91508190509392505050565b7f4e6f7420616e20617070726f766564207369676e657200000000000000000000600082015250565b6000611d5f6016836119ba565b9150611d6a82611d29565b602082019050919050565b60006020820190508181036000830152611d8e81611d52565b9050919050565b7f5369676e65722068617320616c726561647920617070726f766564207468697360008201527f2073776170000000000000000000000000000000000000000000000000000000602082015250565b6000611df16025836119ba565b9150611dfc82611d95565b604082019050919050565b60006020820190508181036000830152611e2081611de4565b9050919050565b7f4e487b7100000000000000000000000000000000000000000000000000000000600052601160045260246000fd5b6000611e6182611466565b91507fffffffffffffffffffffffffffffffffffffffffffffffffffffffffffffffff8203611e9357611e92611e27565b5b600182019050919050565b7f5369676e657220697320616c726561647920617574686f72697a656400000000600082015250565b6000611ed4601c836119ba565b9150611edf82611e9e565b602082019050919050565b60006020820190508181036000830152611f0381611ec7565b905091905056fea26469706673582212200bccda518d06b043f62ab89c0f572d3c9bf8ecb3bbe9c9a9a8efd890cd7a7c8e64736f6c63430008150033",
  "linkReferences": {},
  "deployedLinkReferences": {}
}