{
  "_format": "hh-sol-artifact-1",
  "contractName": "FairTradeERC20",
  "sourceName": "src/FAIR_TRADE/utils/FairTradeERC20.sol",
  "abi": [
    {
      "inputs": [
        {
          "internalType": "string",
          "name": "name_",
          "type": "string"
        },
        {
          "internalType": "string",
          "name": "symbol_",
          "type": "string"
        },
        {
          "internalType": "uint8",
          "name": "decimals_",
          "type": "uint8"
        }
      ],
      "stateMutability": "nonpayable",
      "type": "constructor"
    },
    {
      "inputs": [],
      "name": "AllowanceOverflow",
      "type": "error"
    },
    {
      "inputs": [],
      "name": "AllowanceUnderflow",
      "type": "error"
    },
    {
      "inputs": [],
      "name": "AlreadyInitialized",
      "type": "error"
    },
    {
      "inputs": [],
      "name": "InsufficientAllowance",
      "type": "error"
    },
    {
      "inputs": [],
      "name": "InsufficientBalance",
      "type": "error"
    },
    {
      "inputs": [],
      "name": "InvalidPermit",
      "type": "error"
    },
    {
      "inputs": [],
      "name": "NewOwnerIsZeroAddress",
      "type": "error"
    },
    {
      "inputs": [],
      "name": "NoHandoverRequest",
      "type": "error"
    },
    {
      "inputs": [],
      "name": "PermitExpired",
      "type": "error"
    },
    {
      "inputs": [],
      "name": "TotalSupplyOverflow",
      "type": "error"
    },
    {
      "inputs": [],
      "name": "Unauthorized",
      "type": "error"
    },
    {
      "anonymous": false,
      "inputs": [
        {
          "indexed": true,
          "internalType": "address",
          "name": "owner",
          "type": "address"
        },
        {
          "indexed": true,
          "internalType": "address",
          "name": "spender",
          "type": "address"
        },
        {
          "indexed": false,
          "internalType": "uint256",
          "name": "amount",
          "type": "uint256"
        }
      ],
      "name": "Approval",
      "type": "event"
    },
    {
      "anonymous": false,
      "inputs": [
        {
          "indexed": true,
          "internalType": "address",
          "name": "pendingOwner",
          "type": "address"
        }
      ],
      "name": "OwnershipHandoverCanceled",
      "type": "event"
    },
    {
      "anonymous": false,
      "inputs": [
        {
          "indexed": true,
          "internalType": "address",
          "name": "pendingOwner",
          "type": "address"
        }
      ],
      "name": "OwnershipHandoverRequested",
      "type": "event"
    },
    {
      "anonymous": false,
      "inputs": [
        {
          "indexed": true,
          "internalType": "address",
          "name": "oldOwner",
          "type": "address"
        },
        {
          "indexed": true,
          "internalType": "address",
          "name": "newOwner",
          "type": "address"
        }
      ],
      "name": "OwnershipTransferred",
      "type": "event"
    },
    {
      "anonymous": false,
      "inputs": [
        {
          "indexed": true,
          "internalType": "address",
          "name": "from",
          "type": "address"
        },
        {
          "indexed": true,
          "internalType": "address",
          "name": "to",
          "type": "address"
        },
        {
          "indexed": false,
          "internalType": "uint256",
          "name": "amount",
          "type": "uint256"
        }
      ],
      "name": "Transfer",
      "type": "event"
    },
    {
      "inputs": [],
      "name": "DOMAIN_SEPARATOR",
      "outputs": [
        {
          "internalType": "bytes32",
          "name": "result",
          "type": "bytes32"
        }
      ],
      "stateMutability": "view",
      "type": "function"
    },
    {
      "inputs": [
        {
          "internalType": "address",
          "name": "owner",
          "type": "address"
        },
        {
          "internalType": "address",
          "name": "spender",
          "type": "address"
        }
      ],
      "name": "allowance",
      "outputs": [
        {
          "internalType": "uint256",
          "name": "result",
          "type": "uint256"
        }
      ],
      "stateMutability": "view",
      "type": "function"
    },
    {
      "inputs": [
        {
          "internalType": "address",
          "name": "spender",
          "type": "address"
        },
        {
          "internalType": "uint256",
          "name": "amount",
          "type": "uint256"
        }
      ],
      "name": "approve",
      "outputs": [
        {
          "internalType": "bool",
          "name": "",
          "type": "bool"
        }
      ],
      "stateMutability": "nonpayable",
      "type": "function"
    },
    {
      "inputs": [
        {
          "internalType": "address",
          "name": "owner",
          "type": "address"
        }
      ],
      "name": "balanceOf",
      "outputs": [
        {
          "internalType": "uint256",
          "name": "result",
          "type": "uint256"
        }
      ],
      "stateMutability": "view",
      "type": "function"
    },
    {
      "inputs": [],
      "name": "cancelOwnershipHandover",
      "outputs": [],
      "stateMutability": "payable",
      "type": "function"
    },
    {
      "inputs": [
        {
          "internalType": "address",
          "name": "pendingOwner",
          "type": "address"
        }
      ],
      "name": "completeOwnershipHandover",
      "outputs": [],
      "stateMutability": "payable",
      "type": "function"
    },
    {
      "inputs": [],
      "name": "decimals",
      "outputs": [
        {
          "internalType": "uint8",
          "name": "",
          "type": "uint8"
        }
      ],
      "stateMutability": "view",
      "type": "function"
    },
    {
      "inputs": [
        {
          "internalType": "address",
          "name": "to",
          "type": "address"
        },
        {
          "internalType": "uint256",
          "name": "value",
          "type": "uint256"
        }
      ],
      "name": "mint",
      "outputs": [],
      "stateMutability": "nonpayable",
      "type": "function"
    },
    {
      "inputs": [],
      "name": "name",
      "outputs": [
        {
          "internalType": "string",
          "name": "",
          "type": "string"
        }
      ],
      "stateMutability": "view",
      "type": "function"
    },
    {
      "inputs": [
        {
          "internalType": "address",
          "name": "owner",
          "type": "address"
        }
      ],
      "name": "nonces",
      "outputs": [
        {
          "internalType": "uint256",
          "name": "result",
          "type": "uint256"
        }
      ],
      "stateMutability": "view",
      "type": "function"
    },
    {
      "inputs": [],
      "name": "owner",
      "outputs": [
        {
          "internalType": "address",
          "name": "result",
          "type": "address"
        }
      ],
      "stateMutability": "view",
      "type": "function"
    },
    {
      "inputs": [
        {
          "internalType": "address",
          "name": "pendingOwner",
          "type": "address"
        }
      ],
      "name": "ownershipHandoverExpiresAt",
      "outputs": [
        {
          "internalType": "uint256",
          "name": "result",
          "type": "uint256"
        }
      ],
      "stateMutability": "view",
      "type": "function"
    },
    {
      "inputs": [
        {
          "internalType": "address",
          "name": "owner",
          "type": "address"
        },
        {
          "internalType": "address",
          "name": "spender",
          "type": "address"
        },
        {
          "internalType": "uint256",
          "name": "value",
          "type": "uint256"
        },
        {
          "internalType": "uint256",
          "name": "deadline",
          "type": "uint256"
        },
        {
          "internalType": "uint8",
          "name": "v",
          "type": "uint8"
        },
        {
          "internalType": "bytes32",
          "name": "r",
          "type": "bytes32"
        },
        {
          "internalType": "bytes32",
          "name": "s",
          "type": "bytes32"
        }
      ],
      "name": "permit",
      "outputs": [],
      "stateMutability": "nonpayable",
      "type": "function"
    },
    {
      "inputs": [],
      "name": "renounceOwnership",
      "outputs": [],
      "stateMutability": "payable",
      "type": "function"
    },
    {
      "inputs": [],
      "name": "requestOwnershipHandover",
      "outputs": [],
      "stateMutability": "payable",
      "type": "function"
    },
    {
      "inputs": [],
      "name": "symbol",
      "outputs": [
        {
          "internalType": "string",
          "name": "",
          "type": "string"
        }
      ],
      "stateMutability": "view",
      "type": "function"
    },
    {
      "inputs": [],
      "name": "totalSupply",
      "outputs": [
        {
          "internalType": "uint256",
          "name": "result",
          "type": "uint256"
        }
      ],
      "stateMutability": "view",
      "type": "function"
    },
    {
      "inputs": [
        {
          "internalType": "address",
          "name": "to",
          "type": "address"
        },
        {
          "internalType": "uint256",
          "name": "amount",
          "type": "uint256"
        }
      ],
      "name": "transfer",
      "outputs": [
        {
          "internalType": "bool",
          "name": "",
          "type": "bool"
        }
      ],
      "stateMutability": "nonpayable",
      "type": "function"
    },
    {
      "inputs": [
        {
          "internalType": "address",
          "name": "from",
          "type": "address"
        },
        {
          "internalType": "address",
          "name": "to",
          "type": "address"
        },
        {
          "internalType": "uint256",
          "name": "amount",
          "type": "uint256"
        }
      ],
      "name": "transferFrom",
      "outputs": [
        {
          "internalType": "bool",
          "name": "",
          "type": "bool"
        }
      ],
      "stateMutability": "nonpayable",
      "type": "function"
    },
    {
      "inputs": [
        {
          "internalType": "address",
          "name": "newOwner",
          "type": "address"
        }
      ],
      "name": "transferOwnership",
      "outputs": [],
      "stateMutability": "payable",
      "type": "function"
    }
  ],
  "bytecode": "0x60a06040523480156200001157600080fd5b50604051620019bb380380620019bb83398181016040528101906200003791906200035b565b62000048336200009f60201b60201c565b826000908162000059919062000640565b5081600190816200006b919062000640565b5080600260006101000a81548160ff021916908360ff16021790555082805190602001206080818152505050505062000727565b620000af6200018560201b60201c565b156200012d577fffffffffffffffffffffffffffffffffffffffffffffffffffffffff74873927805415620000ec57630dc149f06000526004601cfd5b8160601b60601c9150811560ff1b821781558160007f8be0079c531659141344cd1fd0a4f28419497f9722a3daafe3b4186f6b6457e0600080a35062000182565b8060601b60601c9050807fffffffffffffffffffffffffffffffffffffffffffffffffffffffff74873927558060007f8be0079c531659141344cd1fd0a4f28419497f9722a3daafe3b4186f6b6457e0600080a35b50565b600090565b6000604051905090565b600080fd5b600080fd5b600080fd5b600080fd5b6000601f19601f8301169050919050565b7f4e487b7100000000000000000000000000000000000000000000000000000000600052604160045260246000fd5b620001f382620001a8565b810181811067ffffffffffffffff82111715620002155762000214620001b9565b5b80604052505050565b60006200022a6200018a565b9050620002388282620001e8565b919050565b600067ffffffffffffffff8211156200025b576200025a620001b9565b5b6200026682620001a8565b9050602081019050919050565b60005b838110156200029357808201518184015260208101905062000276565b60008484015250505050565b6000620002b6620002b0846200023d565b6200021e565b905082815260208101848484011115620002d557620002d4620001a3565b5b620002e284828562000273565b509392505050565b600082601f8301126200030257620003016200019e565b5b8151620003148482602086016200029f565b91505092915050565b600060ff82169050919050565b62000335816200031d565b81146200034157600080fd5b50565b60008151905062000355816200032a565b92915050565b60008060006060848603121562000377576200037662000194565b5b600084015167ffffffffffffffff81111562000398576200039762000199565b5b620003a686828701620002ea565b935050602084015167ffffffffffffffff811115620003ca57620003c962000199565b5b620003d886828701620002ea565b9250506040620003eb8682870162000344565b9150509250925092565b600081519050919050565b7f4e487b7100000000000000000000000000000000000000000000000000000000600052602260045260246000fd5b600060028204905060018216806200044857607f821691505b6020821081036200045e576200045d62000400565b5b50919050565b60008190508160005260206000209050919050565b60006020601f8301049050919050565b600082821b905092915050565b600060088302620004c87fffffffffffffffffffffffffffffffffffffffffffffffffffffffffffffffff8262000489565b620004d4868362000489565b95508019841693508086168417925050509392505050565b6000819050919050565b6000819050919050565b6000620005216200051b6200051584620004ec565b620004f6565b620004ec565b9050919050565b6000819050919050565b6200053d8362000500565b620005556200054c8262000528565b84845462000496565b825550505050565b600090565b6200056c6200055d565b6200057981848462000532565b505050565b5b81811015620005a1576200059560008262000562565b6001810190506200057f565b5050565b601f821115620005f057620005ba8162000464565b620005c58462000479565b81016020851015620005d5578190505b620005ed620005e48562000479565b8301826200057e565b50505b505050565b600082821c905092915050565b60006200061560001984600802620005f5565b1980831691505092915050565b600062000630838362000602565b9150826002028217905092915050565b6200064b82620003f5565b67ffffffffffffffff811115620006675762000666620001b9565b5b6200067382546200042f565b62000680828285620005a5565b600060209050601f831160018114620006b85760008415620006a3578287015190505b620006af858262000622565b8655506200071f565b601f198416620006c88662000464565b60005b82811015620006f257848901518255600182019150602085019450602081019050620006cb565b868310156200071257848901516200070e601f89168262000602565b8355505b6001600288020188555050505b505050505050565b608051611278620007436000396000610b4c01526112786000f3fe60806040526004361061011f5760003560e01c8063715018a6116100a0578063d505accf11610064578063d505accf1461039e578063dd62ed3e146103c7578063f04e283e14610404578063f2fde38b14610420578063fee81cf41461043c5761011f565b8063715018a6146102c45780637ecebe00146102ce5780638da5cb5b1461030b57806395d89b4114610336578063a9059cbb146103615761011f565b8063313ce567116100e7578063313ce567146101fe5780633644e5151461022957806340c10f191461025457806354d1f13d1461027d57806370a08231146102875761011f565b806306fdde0314610124578063095ea7b31461014f57806318160ddd1461018c57806323b872dd146101b757806325692962146101f4575b600080fd5b34801561013057600080fd5b50610139610479565b6040516101469190610e38565b60405180910390f35b34801561015b57600080fd5b5061017660048036038101906101719190610ef3565b61050b565b6040516101839190610f4e565b60405180910390f35b34801561019857600080fd5b506101a161055f565b6040516101ae9190610f78565b60405180910390f35b3480156101c357600080fd5b506101de60048036038101906101d99190610f93565b610571565b6040516101eb9190610f4e565b60405180910390f35b6101fc610597565b005b34801561020a57600080fd5b506102136105eb565b6040516102209190611002565b60405180910390f35b34801561023557600080fd5b5061023e610602565b60405161024b9190611036565b60405180910390f35b34801561026057600080fd5b5061027b60048036038101906102769190610ef3565b610694565b005b6102856106b2565b005b34801561029357600080fd5b506102ae60048036038101906102a99190611051565b6106ee565b6040516102bb9190610f78565b60405180910390f35b6102cc610709565b005b3480156102da57600080fd5b506102f560048036038101906102f09190611051565b61071d565b6040516103029190610f78565b60405180910390f35b34801561031757600080fd5b50610320610738565b60405161032d919061108d565b60405180910390f35b34801561034257600080fd5b5061034b610761565b6040516103589190610e38565b60405180910390f35b34801561036d57600080fd5b5061038860048036038101906103839190610ef3565b6107f3565b6040516103959190610f4e565b60405180910390f35b3480156103aa57600080fd5b506103c560048036038101906103c09190611100565b61080f565b005b3480156103d357600080fd5b506103ee60048036038101906103e991906111a2565b6109b3565b6040516103fb9190610f78565b60405180910390f35b61041e60048036038101906104199190611051565b6109d3565b005b61043a60048036038101906104359190611051565b610a14565b005b34801561044857600080fd5b50610463600480360381019061045e9190611051565b610a3e565b6040516104709190610f78565b60405180910390f35b60606000805461048890611211565b80601f01602080910402602001604051908101604052809291908181526020018280546104b490611211565b80156105015780601f106104d657610100808354040283529160200191610501565b820191906000526020600020905b8154815290600101906020018083116104e457829003601f168201915b5050505050905090565b600082602052637f5e9f20600c5233600052816034600c205581600052602c5160601c337f8c5be1e5ebec7d5bd14f71427d1e84f3dd0314c0f7b2291e5b200ac8c7c3b92560206000a36001905092915050565b60006805345cdf77eb68f44c54905090565b600061058e61057f85610a59565b61058885610a59565b84610a68565b90509392505050565b60006105a1610b3d565b67ffffffffffffffff164201905063389a75e1600c5233600052806020600c2055337fdbf36a107da19e49527a7176a1babf963b4b0ff8cde35ee35d6cd8f1f9ac7e1d600080a250565b6000600260009054906101000a900460ff16905090565b60008061060d610b48565b90506000801b810361062b57610621610479565b8051906020012090505b6040517f8b73c3c69bb8fe3d512ecc4cf759cc79239f7b179b0ffacaa9a75d522b39400f81528160208201527fc89efdaa54c0f20c7adf612882df0950f5a951637e0307cdcb4c672f298b8bc6604082015246606082015230608082015260a081209250505090565b61069c610b70565b6106ae6106a883610a59565b82610ba8565b5050565b63389a75e1600c523360005260006020600c2055337ffa7b8eab7da67f412cc9575ed43464468f9bfbae89d1675917346ca6d8fe3c92600080a2565b60006387a211a2600c52816000526020600c20549050919050565b610711610b70565b61071b6000610c3f565b565b60006338377508600c52816000526020600c20549050919050565b60007fffffffffffffffffffffffffffffffffffffffffffffffffffffffff7487392754905090565b60606001805461077090611211565b80601f016020809104026020016040519081016040528092919081815260200182805461079c90611211565b80156107e95780601f106107be576101008083540402835291602001916107e9565b820191906000526020600020905b8154815290600101906020018083116107cc57829003601f168201915b5050505050905090565b600061080761080184610a59565b83610d07565b905092915050565b6000610819610b48565b90506000801b81036108375761082d610479565b8051906020012090505b8442111561084d57631a15a3cc6000526004601cfd5b6040518860601b60601c98508760601b60601c975065383775081901600e52886000526020600c2080547f8b73c3c69bb8fe3d512ecc4cf759cc79239f7b179b0ffacaa9a75d522b39400f83528360208401527fc89efdaa54c0f20c7adf612882df0950f5a951637e0307cdcb4c672f298b8bc6604084015246606084015230608084015260a08320602e527f6e71edae12b1b97f4d1f60370fef10105fa2faae0126114a169c64845d6126c983528a60208401528960408401528860608401528060808401528760a084015260c08320604e526042602c206000528660ff1660205285604052846060526020806080600060015afa8b3d51146109595763ddafbaef6000526004601cfd5b80820183558a637f5e9f2060a01b17604052896034602c20558a8c7f8c5be1e5ebec7d5bd14f71427d1e84f3dd0314c0f7b2291e5b200ac8c7c3b925602060608801a3836040526000606052505050505050505050505050565b600081602052637f5e9f20600c52826000526034600c2054905092915050565b6109db610b70565b63389a75e1600c52806000526020600c208054421115610a0357636f5e88186000526004601cfd5b6000815550610a1181610c3f565b50565b610a1c610b70565b8060601b610a3257637448fbae6000526004601cfd5b610a3b81610c3f565b50565b600063389a75e1600c52816000526020600c20549050919050565b60005a60a01b82179050919050565b6000610a75848484610d99565b8360601b33602052637f5e9f208117600c526034600c2080546001810115610ab35780851115610aad576313be252b6000526004601cfd5b84810382555b6387a211a28317600c526020600c20805480871115610ada5763f4d678b86000526004601cfd5b8681038255876000526020600c2087815401815587602052600c5160601c8660601c7fddf252ad1be2c89b69c2b068fc378daa952ba7f163c4a11628f55a4df523b3ef602080a3505050505050610b32848484610d9e565b600190509392505050565b60006202a300905090565b60007f0000000000000000000000000000000000000000000000000000000000000000905090565b7fffffffffffffffffffffffffffffffffffffffffffffffffffffffff74873927543314610ba6576382b429006000526004601cfd5b565b610bb460008383610d99565b6805345cdf77eb68f44c5481810181811015610bd85763e5cfe9576000526004601cfd5b806805345cdf77eb68f44c556387a211a2600c52836000526020600c2083815401815583602052600c5160601c60007fddf252ad1be2c89b69c2b068fc378daa952ba7f163c4a11628f55a4df523b3ef602080a3505050610c3b60008383610d9e565b5050565b610c47610da3565b15610cad577fffffffffffffffffffffffffffffffffffffffffffffffffffffffff748739278160601b60601c91508181547f8be0079c531659141344cd1fd0a4f28419497f9722a3daafe3b4186f6b6457e0600080a3811560ff1b8217815550610d04565b7fffffffffffffffffffffffffffffffffffffffffffffffffffffffff748739278160601b60601c91508181547f8be0079c531659141344cd1fd0a4f28419497f9722a3daafe3b4186f6b6457e0600080a3818155505b50565b6000610d14338484610d99565b6387a211a2600c52336000526020600c20805480841115610d3d5763f4d678b86000526004601cfd5b8381038255846000526020600c2084815401815584602052600c5160601c337fddf252ad1be2c89b69c2b068fc378daa952ba7f163c4a11628f55a4df523b3ef602080a3505050610d8f338484610d9e565b6001905092915050565b505050565b505050565b600090565b600081519050919050565b600082825260208201905092915050565b60005b83811015610de2578082015181840152602081019050610dc7565b60008484015250505050565b6000601f19601f8301169050919050565b6000610e0a82610da8565b610e148185610db3565b9350610e24818560208601610dc4565b610e2d81610dee565b840191505092915050565b60006020820190508181036000830152610e528184610dff565b905092915050565b600080fd5b600073ffffffffffffffffffffffffffffffffffffffff82169050919050565b6000610e8a82610e5f565b9050919050565b610e9a81610e7f565b8114610ea557600080fd5b50565b600081359050610eb781610e91565b92915050565b6000819050919050565b610ed081610ebd565b8114610edb57600080fd5b50565b600081359050610eed81610ec7565b92915050565b60008060408385031215610f0a57610f09610e5a565b5b6000610f1885828601610ea8565b9250506020610f2985828601610ede565b9150509250929050565b60008115159050919050565b610f4881610f33565b82525050565b6000602082019050610f636000830184610f3f565b92915050565b610f7281610ebd565b82525050565b6000602082019050610f8d6000830184610f69565b92915050565b600080600060608486031215610fac57610fab610e5a565b5b6000610fba86828701610ea8565b9350506020610fcb86828701610ea8565b9250506040610fdc86828701610ede565b9150509250925092565b600060ff82169050919050565b610ffc81610fe6565b82525050565b60006020820190506110176000830184610ff3565b92915050565b6000819050919050565b6110308161101d565b82525050565b600060208201905061104b6000830184611027565b92915050565b60006020828403121561106757611066610e5a565b5b600061107584828501610ea8565b91505092915050565b61108781610e7f565b82525050565b60006020820190506110a2600083018461107e565b92915050565b6110b181610fe6565b81146110bc57600080fd5b50565b6000813590506110ce816110a8565b92915050565b6110dd8161101d565b81146110e857600080fd5b50565b6000813590506110fa816110d4565b92915050565b600080600080600080600060e0888a03121561111f5761111e610e5a565b5b600061112d8a828b01610ea8565b975050602061113e8a828b01610ea8565b965050604061114f8a828b01610ede565b95505060606111608a828b01610ede565b94505060806111718a828b016110bf565b93505060a06111828a828b016110eb565b92505060c06111938a828b016110eb565b91505092959891949750929550565b600080604083850312156111b9576111b8610e5a565b5b60006111c785828601610ea8565b92505060206111d885828601610ea8565b9150509250929050565b7f4e487b7100000000000000000000000000000000000000000000000000000000600052602260045260246000fd5b6000600282049050600182168061122957607f821691505b60208210810361123c5761123b6111e2565b5b5091905056fea264697066735822122084ac34c6fc1383612dd8af41ca9051be1abb3a2d2b19a767231141ce01321ffe64736f6c63430008150033",
  "linkReferences": {},
  "deployedLinkReferences": {}
}