{
  "_format": "hh-sol-artifact-1",
  "contractName": "FeeLibrary",
  "sourceName": "lib/periphery-next/lib/v4-core/contracts/libraries/FeeLibrary.sol",
  "abi": [
    {
      "inputs": [],
      "name": "DYNAMIC_FEE_FLAG",
      "outputs": [
        {
          "internalType": "uint24",
          "name": "",
          "type": "uint24"
        }
      ],
      "stateMutability": "view",
      "type": "function"
    },
    {
      "inputs": [],
      "name": "HOOK_SWAP_FEE_FLAG",
      "outputs": [
        {
          "internalType": "uint24",
          "name": "",
          "type": "uint24"
        }
      ],
      "stateMutability": "view",
      "type": "function"
    },
    {
      "inputs": [],
      "name": "HOOK_WITHDRAW_FEE_FLAG",
      "outputs": [
        {
          "internalType": "uint24",
          "name": "",
          "type": "uint24"
        }
      ],
      "stateMutability": "view",
      "type": "function"
    },
    {
      "inputs": [],
      "name": "STATIC_FEE_MASK",
      "outputs": [
        {
          "internalType": "uint24",
          "name": "",
          "type": "uint24"
        }
      ],
      "stateMutability": "view",
      "type": "function"
    }
  ],
  "bytecode": "0x61015e610053600b82828239805160001a607314610046577f4e487b7100000000000000000000000000000000000000000000000000000000600052600060045260246000fd5b30600052607381538281f3fe73000000000000000000000000000000000000000030146080604052600436106100565760003560e01c80634f7deff71461005b578063c7a97b4e14610079578063d11e7dee14610097578063f26ef49d146100b5575b600080fd5b6100636100d3565b604051610070919061010d565b60405180910390f35b6100816100da565b60405161008e919061010d565b60405180910390f35b61009f6100e1565b6040516100ac919061010d565b60405180910390f35b6100bd6100e8565b6040516100ca919061010d565b60405180910390f35b6220000081565b620fffff81565b6240000081565b6280000081565b600062ffffff82169050919050565b610107816100ef565b82525050565b600060208201905061012260008301846100fe565b9291505056fea264697066735822122074f46859063ebaaf547d9f93e5c48221407dbe7b52b9dce6591526e7efbad21864736f6c63430008150033",
  "linkReferences": {},
  "deployedLinkReferences": {}
}