{
  "_format": "hh-sol-artifact-1",
  "contractName": "VotingEscrowTest",
  "sourceName": "test/VOTING_ESCROW/Remix/unit/RemixVotingEscrow.sol",
  "abi": [
    {
      "inputs": [
        {
          "internalType": "address",
          "name": "_manager",
          "type": "address"
        }
      ],
      "stateMutability": "nonpayable",
      "type": "constructor"
    },
    {
      "anonymous": false,
      "inputs": [
        {
          "indexed": false,
          "internalType": "string",
          "name": "message",
          "type": "string"
        }
      ],
      "name": "Failure",
      "type": "event"
    },
    {
      "anonymous": false,
      "inputs": [
        {
          "indexed": false,
          "internalType": "string",
          "name": "testName",
          "type": "string"
        },
        {
          "indexed": false,
          "internalType": "string",
          "name": "message",
          "type": "string"
        }
      ],
      "name": "TestLog",
      "type": "event"
    },
    {
      "inputs": [],
      "name": "MAX_TICK_SPACING",
      "outputs": [
        {
          "internalType": "int24",
          "name": "",
          "type": "int24"
        }
      ],
      "stateMutability": "view",
      "type": "function"
    },
    {
      "inputs": [],
      "name": "SQRT_RATIO_1_1",
      "outputs": [
        {
          "internalType": "uint160",
          "name": "",
          "type": "uint160"
        }
      ],
      "stateMutability": "view",
      "type": "function"
    },
    {
      "inputs": [],
      "name": "hook",
      "outputs": [
        {
          "internalType": "contract VotingEscrow",
          "name": "",
          "type": "address"
        }
      ],
      "stateMutability": "view",
      "type": "function"
    },
    {
      "inputs": [],
      "name": "setUp",
      "outputs": [],
      "stateMutability": "nonpayable",
      "type": "function"
    },
    {
      "stateMutability": "payable",
      "type": "receive"
    }
  ],
  "bytecode": "0x60806040523480156200001157600080fd5b506040516200cf393803806200cf398339818101604052810190620000379190620000e9565b80600560006101000a81548173ffffffffffffffffffffffffffffffffffffffff021916908373ffffffffffffffffffffffffffffffffffffffff160217905550506200011b565b600080fd5b600073ffffffffffffffffffffffffffffffffffffffff82169050919050565b6000620000b18262000084565b9050919050565b620000c381620000a4565b8114620000cf57600080fd5b50565b600081519050620000e381620000b8565b92915050565b6000602082840312156200010257620001016200007f565b5b60006200011284828501620000d2565b91505092915050565b61ce0e806200012b6000396000f3fe608060405260043610620000495760003560e01c80630a9254e4146200005657806360460f06146200007057806377267b1e14620000a05780637f5a7c7b14620000d05762000051565b366200005157005b600080fd5b3480156200006357600080fd5b506200006e62000100565b005b3480156200007d57600080fd5b506200008862000ca7565b60405162000097919062000dc7565b60405180910390f35b348015620000ad57600080fd5b50620000b862000cb0565b604051620000c7919062000e15565b60405180910390f35b348015620000dd57600080fd5b50620000e862000cc1565b604051620000f7919062000e9d565b60405180910390f35b6012700100000000000000000000000000000000604051620001229062000d71565b6200012f92919062001008565b604051809103906000f0801580156200014c573d6000803e3d6000fd5b50600660006101000a81548173ffffffffffffffffffffffffffffffffffffffff021916908373ffffffffffffffffffffffffffffffffffffffff1602179055506012700100000000000000000000000000000000604051620001af9062000d71565b620001bc929190620010ff565b604051809103906000f080158015620001d9573d6000803e3d6000fd5b50600760006101000a81548173ffffffffffffffffffffffffffffffffffffffff021916908373ffffffffffffffffffffffffffffffffffffffff1602179055506200026a600660009054906101000a900473ffffffffffffffffffffffffffffffffffffffff16600760009054906101000a900473ffffffffffffffffffffffffffffffffffffffff1662000ce5565b600b6000600c60008491906101000a81548173ffffffffffffffffffffffffffffffffffffffff021916908373ffffffffffffffffffffffffffffffffffffffff1602179055508391906101000a81548173ffffffffffffffffffffffffffffffffffffffff021916908373ffffffffffffffffffffffffffffffffffffffff160217905550505060007340000000000000000000000000000000000000007310000000000000000000000000000000000000007320000000000000000000000000000000000000001717905060008073__$9fd496e6221abe361aa8d420397989e8c6$__63ab86511830856000604051806020016200036a9062000d7f565b6020820181038252601f19601f82011660405250600560009054906101000a900473ffffffffffffffffffffffffffffffffffffffff16600660009054906101000a900473ffffffffffffffffffffffffffffffffffffffff16604051602001620003d79291906200121b565b6040516020818303038152906040526040518663ffffffff1660e01b81526004016200040895949392919062001371565b6040805180830381865af415801562000425573d6000803e3d6000fd5b505050506040513d601f19601f820116820180604052508101906200044b91906200144d565b9150915080600560009054906101000a900473ffffffffffffffffffffffffffffffffffffffff16600660009054906101000a900473ffffffffffffffffffffffffffffffffffffffff16604051620004a49062000d7f565b620004b1929190620014b9565b8190604051809103906000f5905080158015620004d2573d6000803e3d6000fd5b506000806101000a81548173ffffffffffffffffffffffffffffffffffffffff021916908373ffffffffffffffffffffffffffffffffffffffff1602179055508173ffffffffffffffffffffffffffffffffffffffff1660008054906101000a900473ffffffffffffffffffffffffffffffffffffffff1673ffffffffffffffffffffffffffffffffffffffff1614620005a3576040517f08c379a00000000000000000000000000000000000000000000000000000000081526004016200059a9062001586565b60405180910390fd5b6040518060a00160405280600b60009054906101000a900473ffffffffffffffffffffffffffffffffffffffff1673ffffffffffffffffffffffffffffffffffffffff168152602001600c60009054906101000a900473ffffffffffffffffffffffffffffffffffffffff1673ffffffffffffffffffffffffffffffffffffffff168152602001610bb862ffffff168152602001617fff60010b60020b815260200160008054906101000a900473ffffffffffffffffffffffffffffffffffffffff1673ffffffffffffffffffffffffffffffffffffffff16815250600160008201518160000160006101000a81548173ffffffffffffffffffffffffffffffffffffffff021916908373ffffffffffffffffffffffffffffffffffffffff16021790555060208201518160010160006101000a81548173ffffffffffffffffffffffffffffffffffffffff021916908373ffffffffffffffffffffffffffffffffffffffff16021790555060408201518160010160146101000a81548162ffffff021916908362ffffff16021790555060608201518160010160176101000a81548162ffffff021916908360020b62ffffff16021790555060808201518160020160006101000a81548173ffffffffffffffffffffffffffffffffffffffff021916908373ffffffffffffffffffffffffffffffffffffffff160217905550905050620008ff60016040518060a00160405290816000820160009054906101000a900473ffffffffffffffffffffffffffffffffffffffff1673ffffffffffffffffffffffffffffffffffffffff1673ffffffffffffffffffffffffffffffffffffffff1681526020016001820160009054906101000a900473ffffffffffffffffffffffffffffffffffffffff1673ffffffffffffffffffffffffffffffffffffffff1673ffffffffffffffffffffffffffffffffffffffff1681526020016001820160149054906101000a900462ffffff1662ffffff1662ffffff1681526020016001820160179054906101000a900460020b60020b60020b81526020016002820160009054906101000a900473ffffffffffffffffffffffffffffffffffffffff1673ffffffffffffffffffffffffffffffffffffffff1673ffffffffffffffffffffffffffffffffffffffff168152505062000d3f565b600481905550600560009054906101000a900473ffffffffffffffffffffffffffffffffffffffff1673ffffffffffffffffffffffffffffffffffffffff1663695c5bf560016c01000000000000000000000000604051806020016040528060008152506040518463ffffffff1660e01b8152600401620009839392919062001817565b6020604051808303816000875af1158015620009a3573d6000803e3d6000fd5b505050506040513d601f19601f82011682018060405250810190620009c991906200188c565b50600560009054906101000a900473ffffffffffffffffffffffffffffffffffffffff16604051620009fb9062000d8d565b62000a079190620018be565b604051809103906000f08015801562000a24573d6000803e3d6000fd5b50600860006101000a81548173ffffffffffffffffffffffffffffffffffffffff021916908373ffffffffffffffffffffffffffffffffffffffff160217905550600560009054906101000a900473ffffffffffffffffffffffffffffffffffffffff1660405162000a969062000d9b565b62000aa29190620018be565b604051809103906000f08015801562000abf573d6000803e3d6000fd5b50600960006101000a81548173ffffffffffffffffffffffffffffffffffffffff021916908373ffffffffffffffffffffffffffffffffffffffff160217905550600660009054906101000a900473ffffffffffffffffffffffffffffffffffffffff1673ffffffffffffffffffffffffffffffffffffffff1663095ea7b3600860009054906101000a900473ffffffffffffffffffffffffffffffffffffffff1668056bc75e2d631000006040518363ffffffff1660e01b815260040162000b8a9291906200191e565b6020604051808303816000875af115801562000baa573d6000803e3d6000fd5b505050506040513d601f19601f8201168201806040525081019062000bd0919062001988565b50600760009054906101000a900473ffffffffffffffffffffffffffffffffffffffff1673ffffffffffffffffffffffffffffffffffffffff1663095ea7b3600860009054906101000a900473ffffffffffffffffffffffffffffffffffffffff1668056bc75e2d631000006040518363ffffffff1660e01b815260040162000c5b9291906200191e565b6020604051808303816000875af115801562000c7b573d6000803e3d6000fd5b505050506040513d601f19601f8201168201806040525081019062000ca1919062001988565b50505050565b617fff60010b81565b6c0100000000000000000000000081565b60008054906101000a900473ffffffffffffffffffffffffffffffffffffffff1681565b6000808273ffffffffffffffffffffffffffffffffffffffff168473ffffffffffffffffffffffffffffffffffffffff16101562000d2d578383809250819350505062000d38565b828480925081935050505b9250929050565b60008160405160200162000d54919062001a2c565b604051602081830303815290604052805190602001209050919050565b6121868062001a4a83390190565b61583e8062003bd083390190565b611a3f806200940e83390190565b611f8c806200ae4d83390190565b60008160020b9050919050565b62000dc18162000da9565b82525050565b600060208201905062000dde600083018462000db6565b92915050565b600073ffffffffffffffffffffffffffffffffffffffff82169050919050565b62000e0f8162000de4565b82525050565b600060208201905062000e2c600083018462000e04565b92915050565b6000819050919050565b600062000e5d62000e5762000e518462000de4565b62000e32565b62000de4565b9050919050565b600062000e718262000e3c565b9050919050565b600062000e858262000e64565b9050919050565b62000e978162000e78565b82525050565b600060208201905062000eb4600083018462000e8c565b92915050565b600082825260208201905092915050565b7f5465737441000000000000000000000000000000000000000000000000000000600082015250565b600062000f0360058362000eba565b915062000f108262000ecb565b602082019050919050565b7f4100000000000000000000000000000000000000000000000000000000000000600082015250565b600062000f5360018362000eba565b915062000f608262000f1b565b602082019050919050565b6000819050919050565b600060ff82169050919050565b600062000fa362000f9d62000f978462000f6b565b62000e32565b62000f75565b9050919050565b62000fb58162000f82565b82525050565b6000819050919050565b6000819050919050565b600062000ff062000fea62000fe48462000fbb565b62000e32565b62000fc5565b9050919050565b620010028162000fcf565b82525050565b60006080820190508181036000830152620010238162000ef4565b90508181036020830152620010388162000f44565b905062001049604083018562000faa565b62001058606083018462000ff7565b9392505050565b7f5465737442000000000000000000000000000000000000000000000000000000600082015250565b60006200109760058362000eba565b9150620010a4826200105f565b602082019050919050565b7f4200000000000000000000000000000000000000000000000000000000000000600082015250565b6000620010e760018362000eba565b9150620010f482620010af565b602082019050919050565b600060808201905081810360008301526200111a8162001088565b905081810360208301526200112f81620010d8565b905062001140604083018562000faa565b6200114f606083018462000ff7565b9392505050565b6000620011638262000de4565b9050919050565b620011758162001156565b82525050565b7f7665546f6b656e00000000000000000000000000000000000000000000000000600082015250565b6000620011b360078362000eba565b9150620011c0826200117b565b602082019050919050565b7f7665544b4e000000000000000000000000000000000000000000000000000000600082015250565b60006200120360058362000eba565b91506200121082620011cb565b602082019050919050565b60006080820190506200123260008301856200116a565b6200124160208301846200116a565b81810360408301526200125481620011a4565b905081810360608301526200126981620011f4565b90509392505050565b6200127d8162001156565b82525050565b6200128e8162000de4565b82525050565b6000819050919050565b6000620012bf620012b9620012b38462001294565b62000e32565b62000fc5565b9050919050565b620012d1816200129e565b82525050565b600081519050919050565b600082825260208201905092915050565b60005b8381101562001313578082015181840152602081019050620012f6565b60008484015250505050565b6000601f19601f8301169050919050565b60006200133d82620012d7565b620013498185620012e2565b93506200135b818560208601620012f3565b62001366816200131f565b840191505092915050565b600060a08201905062001388600083018862001272565b62001397602083018762001283565b620013a66040830186620012c6565b8181036060830152620013ba818562001330565b90508181036080830152620013d0818462001330565b90509695505050505050565b600080fd5b620013ec8162001156565b8114620013f857600080fd5b50565b6000815190506200140c81620013e1565b92915050565b6000819050919050565b620014278162001412565b81146200143357600080fd5b50565b60008151905062001447816200141c565b92915050565b60008060408385031215620014675762001466620013dc565b5b60006200147785828601620013fb565b92505060206200148a8582860162001436565b9150509250929050565b6000620014a18262000e64565b9050919050565b620014b38162001494565b82525050565b6000608082019050620014d06000830185620014a8565b620014df60208301846200116a565b8181036040830152620014f281620011a4565b905081810360608301526200150781620011f4565b90509392505050565b7f466169725472616465546573743a20486f6f6b2061646472657373206d69736d60008201527f6174636800000000000000000000000000000000000000000000000000000000602082015250565b60006200156e60248362000eba565b91506200157b8262001510565b604082019050919050565b60006020820190508181036000830152620015a1816200155f565b9050919050565b60008160001c9050919050565b600073ffffffffffffffffffffffffffffffffffffffff82169050919050565b6000620015ec620015e683620015a8565b620015b5565b9050919050565b6000620016008262000e64565b9050919050565b6200161281620015f3565b82525050565b60008160a01c9050919050565b600062ffffff82169050919050565b60006200164b620016458362001618565b62001625565b9050919050565b600062ffffff82169050919050565b6200166c8162001652565b82525050565b60008160b81c9050919050565b60008160020b9050919050565b6000620016a36200169d8362001672565b6200167f565b9050919050565b620016b58162000da9565b82525050565b600073ffffffffffffffffffffffffffffffffffffffff82169050919050565b6000620016f2620016ec83620015a8565b620016bb565b9050919050565b6000620017068262000e64565b9050919050565b6200171881620016f9565b82525050565b60a0820160008083015490506200173581620015d5565b62001744600086018262001607565b50600183015490506200175781620015d5565b62001766602086018262001607565b50620017728162001634565b62001781604086018262001661565b506200178d816200168c565b6200179c6060860182620016aa565b5060028301549050620017af81620016db565b620017be60808601826200170d565b5050505050565b600082825260208201905092915050565b6000620017e382620012d7565b620017ef8185620017c5565b935062001801818560208601620012f3565b6200180c816200131f565b840191505092915050565b600060e0820190506200182e60008301866200171e565b6200183d60a083018562000e04565b81810360c0830152620018518184620017d6565b9050949350505050565b620018668162000da9565b81146200187257600080fd5b50565b60008151905062001886816200185b565b92915050565b600060208284031215620018a557620018a4620013dc565b5b6000620018b58482850162001875565b91505092915050565b6000602082019050620018d56000830184620014a8565b92915050565b6000819050919050565b60006200190662001900620018fa84620018db565b62000e32565b62000fc5565b9050919050565b6200191881620018e5565b82525050565b60006040820190506200193560008301856200116a565b6200194460208301846200190d565b9392505050565b60008115159050919050565b62001962816200194b565b81146200196e57600080fd5b50565b600081519050620019828162001957565b92915050565b600060208284031215620019a157620019a0620013dc565b5b6000620019b18482850162001971565b91505092915050565b60a082016000820151620019d2600085018262001607565b506020820151620019e7602085018262001607565b506040820151620019fc604085018262001661565b50606082015162001a116060850182620016aa565b50608082015162001a2660808501826200170d565b50505050565b600060a08201905062001a436000830184620019ba565b9291505056fe60e06040523480156200001157600080fd5b506040516200218638038062002186833981810160405281019062000037919062000430565b83838382600090816200004b919062000721565b5081600190816200005d919062000721565b508060ff1660808160ff16815250504660a0818152505062000084620000aa60201b60201c565b60c08181525050505050620000a033826200013a60201b60201c565b5050505062000a25565b60007f8b73c3c69bb8fe3d512ecc4cf759cc79239f7b179b0ffacaa9a75d522b39400f6000604051620000de9190620008b7565b60405180910390207fc89efdaa54c0f20c7adf612882df0950f5a951637e0307cdcb4c672f298b8bc646306040516020016200011f95949392919062000941565b60405160208183030381529060405280519060200120905090565b6200014c82826200015060201b60201c565b5050565b8060026000828254620001649190620009cd565b9250508190555080600360008473ffffffffffffffffffffffffffffffffffffffff1673ffffffffffffffffffffffffffffffffffffffff168152602001908152602001600020600082825401925050819055508173ffffffffffffffffffffffffffffffffffffffff16600073ffffffffffffffffffffffffffffffffffffffff167fddf252ad1be2c89b69c2b068fc378daa952ba7f163c4a11628f55a4df523b3ef8360405162000218919062000a08565b60405180910390a35050565b6000604051905090565b600080fd5b600080fd5b600080fd5b600080fd5b6000601f19601f8301169050919050565b7f4e487b7100000000000000000000000000000000000000000000000000000000600052604160045260246000fd5b6200028d8262000242565b810181811067ffffffffffffffff82111715620002af57620002ae62000253565b5b80604052505050565b6000620002c462000224565b9050620002d2828262000282565b919050565b600067ffffffffffffffff821115620002f557620002f462000253565b5b620003008262000242565b9050602081019050919050565b60005b838110156200032d57808201518184015260208101905062000310565b60008484015250505050565b6000620003506200034a84620002d7565b620002b8565b9050828152602081018484840111156200036f576200036e6200023d565b5b6200037c8482856200030d565b509392505050565b600082601f8301126200039c576200039b62000238565b5b8151620003ae84826020860162000339565b91505092915050565b600060ff82169050919050565b620003cf81620003b7565b8114620003db57600080fd5b50565b600081519050620003ef81620003c4565b92915050565b6000819050919050565b6200040a81620003f5565b81146200041657600080fd5b50565b6000815190506200042a81620003ff565b92915050565b600080600080608085870312156200044d576200044c6200022e565b5b600085015167ffffffffffffffff8111156200046e576200046d62000233565b5b6200047c8782880162000384565b945050602085015167ffffffffffffffff811115620004a0576200049f62000233565b5b620004ae8782880162000384565b9350506040620004c187828801620003de565b9250506060620004d48782880162000419565b91505092959194509250565b600081519050919050565b7f4e487b7100000000000000000000000000000000000000000000000000000000600052602260045260246000fd5b600060028204905060018216806200053357607f821691505b602082108103620005495762000548620004eb565b5b50919050565b60008190508160005260206000209050919050565b60006020601f8301049050919050565b600082821b905092915050565b600060088302620005b37fffffffffffffffffffffffffffffffffffffffffffffffffffffffffffffffff8262000574565b620005bf868362000574565b95508019841693508086168417925050509392505050565b6000819050919050565b600062000602620005fc620005f684620003f5565b620005d7565b620003f5565b9050919050565b6000819050919050565b6200061e83620005e1565b620006366200062d8262000609565b84845462000581565b825550505050565b600090565b6200064d6200063e565b6200065a81848462000613565b505050565b5b8181101562000682576200067660008262000643565b60018101905062000660565b5050565b601f821115620006d1576200069b816200054f565b620006a68462000564565b81016020851015620006b6578190505b620006ce620006c58562000564565b8301826200065f565b50505b505050565b600082821c905092915050565b6000620006f660001984600802620006d6565b1980831691505092915050565b6000620007118383620006e3565b9150826002028217905092915050565b6200072c82620004e0565b67ffffffffffffffff81111562000748576200074762000253565b5b6200075482546200051a565b6200076182828562000686565b600060209050601f83116001811462000799576000841562000784578287015190505b62000790858262000703565b86555062000800565b601f198416620007a9866200054f565b60005b82811015620007d357848901518255600182019150602085019450602081019050620007ac565b86831015620007f35784890151620007ef601f891682620006e3565b8355505b6001600288020188555050505b505050505050565b600081905092915050565b60008190508160005260206000209050919050565b6000815462000837816200051a565b62000843818662000808565b945060018216600081146200086157600181146200087757620008ae565b60ff1983168652811515820286019350620008ae565b620008828562000813565b60005b83811015620008a65781548189015260018201915060208101905062000885565b838801955050505b50505092915050565b6000620008c5828462000828565b915081905092915050565b6000819050919050565b620008e581620008d0565b82525050565b620008f681620003f5565b82525050565b600073ffffffffffffffffffffffffffffffffffffffff82169050919050565b60006200092982620008fc565b9050919050565b6200093b816200091c565b82525050565b600060a082019050620009586000830188620008da565b620009676020830187620008da565b620009766040830186620008da565b620009856060830185620008eb565b62000994608083018462000930565b9695505050505050565b7f4e487b7100000000000000000000000000000000000000000000000000000000600052601160045260246000fd5b6000620009da82620003f5565b9150620009e783620003f5565b925082820190508082111562000a025762000a016200099e565b5b92915050565b600060208201905062000a1f6000830184620008eb565b92915050565b60805160a05160c05161173162000a55600039600061073901526000610705015260006106df01526117316000f3fe608060405234801561001057600080fd5b50600436106100ea5760003560e01c806361f49ed61161008c57806395d89b411161006657806395d89b4114610273578063a9059cbb14610291578063d505accf146102c1578063dd62ed3e146102dd576100ea565b806361f49ed6146101e357806370a08231146102135780637ecebe0014610243576100ea565b806323b872dd116100c857806323b872dd1461015b578063313ce5671461018b5780633644e515146101a957806340c10f19146101c7576100ea565b806306fdde03146100ef578063095ea7b31461010d57806318160ddd1461013d575b600080fd5b6100f761030d565b6040516101049190610f3b565b60405180910390f35b61012760048036038101906101229190610ff6565b61039b565b6040516101349190611051565b60405180910390f35b61014561048d565b604051610152919061107b565b60405180910390f35b61017560048036038101906101709190611096565b610493565b6040516101829190611051565b60405180910390f35b6101936106dd565b6040516101a09190611105565b60405180910390f35b6101b1610701565b6040516101be9190611139565b60405180910390f35b6101e160048036038101906101dc9190610ff6565b61075e565b005b6101fd60048036038101906101f89190611096565b61076c565b60405161020a9190611051565b60405180910390f35b61022d60048036038101906102289190611154565b61085f565b60405161023a919061107b565b60405180910390f35b61025d60048036038101906102589190611154565b610877565b60405161026a919061107b565b60405180910390f35b61027b61088f565b6040516102889190610f3b565b60405180910390f35b6102ab60048036038101906102a69190610ff6565b61091d565b6040516102b89190611051565b60405180910390f35b6102db60048036038101906102d691906111d9565b610a31565b005b6102f760048036038101906102f2919061127b565b610d2a565b604051610304919061107b565b60405180910390f35b6000805461031a906112ea565b80601f0160208091040260200160405190810160405280929190818152602001828054610346906112ea565b80156103935780601f1061036857610100808354040283529160200191610393565b820191906000526020600020905b81548152906001019060200180831161037657829003601f168201915b505050505081565b600081600460003373ffffffffffffffffffffffffffffffffffffffff1673ffffffffffffffffffffffffffffffffffffffff16815260200190815260200160002060008573ffffffffffffffffffffffffffffffffffffffff1673ffffffffffffffffffffffffffffffffffffffff168152602001908152602001600020819055508273ffffffffffffffffffffffffffffffffffffffff163373ffffffffffffffffffffffffffffffffffffffff167f8c5be1e5ebec7d5bd14f71427d1e84f3dd0314c0f7b2291e5b200ac8c7c3b9258460405161047b919061107b565b60405180910390a36001905092915050565b60025481565b600080600460008673ffffffffffffffffffffffffffffffffffffffff1673ffffffffffffffffffffffffffffffffffffffff16815260200190815260200160002060003373ffffffffffffffffffffffffffffffffffffffff1673ffffffffffffffffffffffffffffffffffffffff1681526020019081526020016000205490507fffffffffffffffffffffffffffffffffffffffffffffffffffffffffffffffff81146105c9578281610548919061134a565b600460008773ffffffffffffffffffffffffffffffffffffffff1673ffffffffffffffffffffffffffffffffffffffff16815260200190815260200160002060003373ffffffffffffffffffffffffffffffffffffffff1673ffffffffffffffffffffffffffffffffffffffff168152602001908152602001600020819055505b82600360008773ffffffffffffffffffffffffffffffffffffffff1673ffffffffffffffffffffffffffffffffffffffff1681526020019081526020016000206000828254610618919061134a565b9250508190555082600360008673ffffffffffffffffffffffffffffffffffffffff1673ffffffffffffffffffffffffffffffffffffffff168152602001908152602001600020600082825401925050819055508373ffffffffffffffffffffffffffffffffffffffff168573ffffffffffffffffffffffffffffffffffffffff167fddf252ad1be2c89b69c2b068fc378daa952ba7f163c4a11628f55a4df523b3ef856040516106c9919061107b565b60405180910390a360019150509392505050565b7f000000000000000000000000000000000000000000000000000000000000000081565b60007f0000000000000000000000000000000000000000000000000000000000000000461461073757610732610d4f565b610759565b7f00000000000000000000000000000000000000000000000000000000000000005b905090565b6107688282610ddb565b5050565b600081600460008673ffffffffffffffffffffffffffffffffffffffff1673ffffffffffffffffffffffffffffffffffffffff16815260200190815260200160002060008573ffffffffffffffffffffffffffffffffffffffff1673ffffffffffffffffffffffffffffffffffffffff168152602001908152602001600020819055508273ffffffffffffffffffffffffffffffffffffffff168473ffffffffffffffffffffffffffffffffffffffff167f8c5be1e5ebec7d5bd14f71427d1e84f3dd0314c0f7b2291e5b200ac8c7c3b9258460405161084c919061107b565b60405180910390a3600190509392505050565b60036020528060005260406000206000915090505481565b60056020528060005260406000206000915090505481565b6001805461089c906112ea565b80601f01602080910402602001604051908101604052809291908181526020018280546108c8906112ea565b80156109155780601f106108ea57610100808354040283529160200191610915565b820191906000526020600020905b8154815290600101906020018083116108f857829003601f168201915b505050505081565b600081600360003373ffffffffffffffffffffffffffffffffffffffff1673ffffffffffffffffffffffffffffffffffffffff168152602001908152602001600020600082825461096e919061134a565b9250508190555081600360008573ffffffffffffffffffffffffffffffffffffffff1673ffffffffffffffffffffffffffffffffffffffff168152602001908152602001600020600082825401925050819055508273ffffffffffffffffffffffffffffffffffffffff163373ffffffffffffffffffffffffffffffffffffffff167fddf252ad1be2c89b69c2b068fc378daa952ba7f163c4a11628f55a4df523b3ef84604051610a1f919061107b565b60405180910390a36001905092915050565b42841015610a74576040517f08c379a0000000000000000000000000000000000000000000000000000000008152600401610a6b906113ca565b60405180910390fd5b60006001610a80610701565b7f6e71edae12b1b97f4d1f60370fef10105fa2faae0126114a169c64845d6126c98a8a8a600560008f73ffffffffffffffffffffffffffffffffffffffff1673ffffffffffffffffffffffffffffffffffffffff1681526020019081526020016000206000815480929190600101919050558b604051602001610b08969594939291906113f9565b60405160208183030381529060405280519060200120604051602001610b2f9291906114d2565b6040516020818303038152906040528051906020012085858560405160008152602001604052604051610b659493929190611509565b6020604051602081039080840390855afa158015610b87573d6000803e3d6000fd5b505050602060405103519050600073ffffffffffffffffffffffffffffffffffffffff168173ffffffffffffffffffffffffffffffffffffffff1614158015610bfb57508773ffffffffffffffffffffffffffffffffffffffff168173ffffffffffffffffffffffffffffffffffffffff16145b610c3a576040517f08c379a0000000000000000000000000000000000000000000000000000000008152600401610c319061159a565b60405180910390fd5b85600460008373ffffffffffffffffffffffffffffffffffffffff1673ffffffffffffffffffffffffffffffffffffffff16815260200190815260200160002060008973ffffffffffffffffffffffffffffffffffffffff1673ffffffffffffffffffffffffffffffffffffffff16815260200190815260200160002081905550508573ffffffffffffffffffffffffffffffffffffffff168773ffffffffffffffffffffffffffffffffffffffff167f8c5be1e5ebec7d5bd14f71427d1e84f3dd0314c0f7b2291e5b200ac8c7c3b92587604051610d19919061107b565b60405180910390a350505050505050565b6004602052816000526040600020602052806000526040600020600091509150505481565b60007f8b73c3c69bb8fe3d512ecc4cf759cc79239f7b179b0ffacaa9a75d522b39400f6000604051610d81919061165d565b60405180910390207fc89efdaa54c0f20c7adf612882df0950f5a951637e0307cdcb4c672f298b8bc64630604051602001610dc0959493929190611674565b60405160208183030381529060405280519060200120905090565b8060026000828254610ded91906116c7565b9250508190555080600360008473ffffffffffffffffffffffffffffffffffffffff1673ffffffffffffffffffffffffffffffffffffffff168152602001908152602001600020600082825401925050819055508173ffffffffffffffffffffffffffffffffffffffff16600073ffffffffffffffffffffffffffffffffffffffff167fddf252ad1be2c89b69c2b068fc378daa952ba7f163c4a11628f55a4df523b3ef83604051610e9f919061107b565b60405180910390a35050565b600081519050919050565b600082825260208201905092915050565b60005b83811015610ee5578082015181840152602081019050610eca565b60008484015250505050565b6000601f19601f8301169050919050565b6000610f0d82610eab565b610f178185610eb6565b9350610f27818560208601610ec7565b610f3081610ef1565b840191505092915050565b60006020820190508181036000830152610f558184610f02565b905092915050565b600080fd5b600073ffffffffffffffffffffffffffffffffffffffff82169050919050565b6000610f8d82610f62565b9050919050565b610f9d81610f82565b8114610fa857600080fd5b50565b600081359050610fba81610f94565b92915050565b6000819050919050565b610fd381610fc0565b8114610fde57600080fd5b50565b600081359050610ff081610fca565b92915050565b6000806040838503121561100d5761100c610f5d565b5b600061101b85828601610fab565b925050602061102c85828601610fe1565b9150509250929050565b60008115159050919050565b61104b81611036565b82525050565b60006020820190506110666000830184611042565b92915050565b61107581610fc0565b82525050565b6000602082019050611090600083018461106c565b92915050565b6000806000606084860312156110af576110ae610f5d565b5b60006110bd86828701610fab565b93505060206110ce86828701610fab565b92505060406110df86828701610fe1565b9150509250925092565b600060ff82169050919050565b6110ff816110e9565b82525050565b600060208201905061111a60008301846110f6565b92915050565b6000819050919050565b61113381611120565b82525050565b600060208201905061114e600083018461112a565b92915050565b60006020828403121561116a57611169610f5d565b5b600061117884828501610fab565b91505092915050565b61118a816110e9565b811461119557600080fd5b50565b6000813590506111a781611181565b92915050565b6111b681611120565b81146111c157600080fd5b50565b6000813590506111d3816111ad565b92915050565b600080600080600080600060e0888a0312156111f8576111f7610f5d565b5b60006112068a828b01610fab565b97505060206112178a828b01610fab565b96505060406112288a828b01610fe1565b95505060606112398a828b01610fe1565b945050608061124a8a828b01611198565b93505060a061125b8a828b016111c4565b92505060c061126c8a828b016111c4565b91505092959891949750929550565b6000806040838503121561129257611291610f5d565b5b60006112a085828601610fab565b92505060206112b185828601610fab565b9150509250929050565b7f4e487b7100000000000000000000000000000000000000000000000000000000600052602260045260246000fd5b6000600282049050600182168061130257607f821691505b602082108103611315576113146112bb565b5b50919050565b7f4e487b7100000000000000000000000000000000000000000000000000000000600052601160045260246000fd5b600061135582610fc0565b915061136083610fc0565b92508282039050818111156113785761137761131b565b5b92915050565b7f5045524d49545f444541444c494e455f45585049524544000000000000000000600082015250565b60006113b4601783610eb6565b91506113bf8261137e565b602082019050919050565b600060208201905081810360008301526113e3816113a7565b9050919050565b6113f381610f82565b82525050565b600060c08201905061140e600083018961112a565b61141b60208301886113ea565b61142860408301876113ea565b611435606083018661106c565b611442608083018561106c565b61144f60a083018461106c565b979650505050505050565b600081905092915050565b7f1901000000000000000000000000000000000000000000000000000000000000600082015250565b600061149b60028361145a565b91506114a682611465565b600282019050919050565b6000819050919050565b6114cc6114c782611120565b6114b1565b82525050565b60006114dd8261148e565b91506114e982856114bb565b6020820191506114f982846114bb565b6020820191508190509392505050565b600060808201905061151e600083018761112a565b61152b60208301866110f6565b611538604083018561112a565b611545606083018461112a565b95945050505050565b7f494e56414c49445f5349474e4552000000000000000000000000000000000000600082015250565b6000611584600e83610eb6565b915061158f8261154e565b602082019050919050565b600060208201905081810360008301526115b381611577565b9050919050565b600081905092915050565b60008190508160005260206000209050919050565b600081546115e7816112ea565b6115f181866115ba565b9450600182166000811461160c576001811461162157611654565b60ff1983168652811515820286019350611654565b61162a856115c5565b60005b8381101561164c5781548189015260018201915060208101905061162d565b838801955050505b50505092915050565b600061166982846115da565b915081905092915050565b600060a082019050611689600083018861112a565b611696602083018761112a565b6116a3604083018661112a565b6116b0606083018561106c565b6116bd60808301846113ea565b9695505050505050565b60006116d282610fc0565b91506116dd83610fc0565b92508282019050808211156116f5576116f461131b565b5b9291505056fea2646970667358221220d31e47fd1accc7a22040a33b1819ef70519b11925aa65adeb7bdfcd7a72d4d9264736f6c6343000815003360a060405260126729a2241af62c000b553480156200001d57600080fd5b506040516200583e3803806200583e833981810160405281019062000043919062000908565b838073ffffffffffffffffffffffffffffffffffffffff1660808173ffffffffffffffffffffffffffffffffffffffff16815250506200008930620002c860201b60201c565b50600160008190555082600260006101000a81548173ffffffffffffffffffffffffffffffffffffffff021916908373ffffffffffffffffffffffffffffffffffffffff16021790555060405180608001604052806000600f0b81526020016000600f0b81526020014281526020014381525060046000670de0b6b3a764000081106200011b576200011a620009b8565b5b6003020160008201518160000160006101000a8154816fffffffffffffffffffffffffffffffff0219169083600f0b6fffffffffffffffffffffffffffffffff16021790555060208201518160000160106101000a8154816fffffffffffffffffffffffffffffffff0219169083600f0b6fffffffffffffffffffffffffffffffff16021790555060408201518160010155606082015181600201559050508273ffffffffffffffffffffffffffffffffffffffff1663313ce5676040518163ffffffff1660e01b8152600401602060405180830381865afa15801562000206573d6000803e3d6000fd5b505050506040513d601f19601f820116820180604052508101906200022c919062000a25565b60ff166729a2241af62c000b8190555060126729a2241af62c000b5411156200028c576040517f08c379a0000000000000000000000000000000000000000000000000000000008152600401620002839062000ab8565b60405180910390fd5b816729a2241af62c00099081620002a4919062000d25565b50806729a2241af62c000a9081620002bd919062000d25565b505050505062000e3a565b620002e981620002dd620002ec60201b60201c565b6200034d60201b60201c565b50565b620002f662000676565b60405180610100016040528060001515815260200160011515815260200160011515815260200160011515815260200160001515815260200160001515815260200160001515815260200160001515815250905090565b6200035e82620004ae60201b60201c565b1515816000015115151415806200038d57506200038182620004e760201b60201c565b15158160200151151514155b80620003b15750620003a5826200052060201b60201c565b15158160400151151514155b80620003d55750620003c9826200055960201b60201c565b15158160600151151514155b80620003f95750620003ed826200059260201b60201c565b15158160800151151514155b806200041d57506200041182620005cb60201b60201c565b15158160a00151151514155b8062000441575062000435826200060460201b60201c565b15158160c00151151514155b8062000465575062000459826200063d60201b60201c565b15158160e00151151514155b15620004aa57816040517fe65af6a0000000000000000000000000000000000000000000000000000000008152600401620004a1919062000e1d565b60405180910390fd5b5050565b6000807380000000000000000000000000000000000000008373ffffffffffffffffffffffffffffffffffffffff161614159050919050565b6000807340000000000000000000000000000000000000008373ffffffffffffffffffffffffffffffffffffffff161614159050919050565b6000807320000000000000000000000000000000000000008373ffffffffffffffffffffffffffffffffffffffff161614159050919050565b6000807310000000000000000000000000000000000000008373ffffffffffffffffffffffffffffffffffffffff161614159050919050565b6000807308000000000000000000000000000000000000008373ffffffffffffffffffffffffffffffffffffffff161614159050919050565b6000807304000000000000000000000000000000000000008373ffffffffffffffffffffffffffffffffffffffff161614159050919050565b6000807302000000000000000000000000000000000000008373ffffffffffffffffffffffffffffffffffffffff161614159050919050565b6000807301000000000000000000000000000000000000008373ffffffffffffffffffffffffffffffffffffffff161614159050919050565b6040518061010001604052806000151581526020016000151581526020016000151581526020016000151581526020016000151581526020016000151581526020016000151581526020016000151581525090565b6000604051905090565b600080fd5b600080fd5b600073ffffffffffffffffffffffffffffffffffffffff82169050919050565b60006200070c82620006df565b9050919050565b60006200072082620006ff565b9050919050565b620007328162000713565b81146200073e57600080fd5b50565b600081519050620007528162000727565b92915050565b6200076381620006ff565b81146200076f57600080fd5b50565b600081519050620007838162000758565b92915050565b600080fd5b600080fd5b6000601f19601f8301169050919050565b7f4e487b7100000000000000000000000000000000000000000000000000000000600052604160045260246000fd5b620007de8262000793565b810181811067ffffffffffffffff821117156200080057620007ff620007a4565b5b80604052505050565b600062000815620006cb565b9050620008238282620007d3565b919050565b600067ffffffffffffffff821115620008465762000845620007a4565b5b620008518262000793565b9050602081019050919050565b60005b838110156200087e57808201518184015260208101905062000861565b60008484015250505050565b6000620008a16200089b8462000828565b62000809565b905082815260208101848484011115620008c057620008bf6200078e565b5b620008cd8482856200085e565b509392505050565b600082601f830112620008ed57620008ec62000789565b5b8151620008ff8482602086016200088a565b91505092915050565b60008060008060808587031215620009255762000924620006d5565b5b6000620009358782880162000741565b9450506020620009488782880162000772565b935050604085015167ffffffffffffffff8111156200096c576200096b620006da565b5b6200097a87828801620008d5565b925050606085015167ffffffffffffffff8111156200099e576200099d620006da565b5b620009ac87828801620008d5565b91505092959194509250565b7f4e487b7100000000000000000000000000000000000000000000000000000000600052603260045260246000fd5b600060ff82169050919050565b620009ff81620009e7565b811462000a0b57600080fd5b50565b60008151905062000a1f81620009f4565b92915050565b60006020828403121562000a3e5762000a3d620006d5565b5b600062000a4e8482850162000a0e565b91505092915050565b600082825260208201905092915050565b7f45786365656473206d617820646563696d616c73000000000000000000000000600082015250565b600062000aa060148362000a57565b915062000aad8262000a68565b602082019050919050565b6000602082019050818103600083015262000ad38162000a91565b9050919050565b600081519050919050565b7f4e487b7100000000000000000000000000000000000000000000000000000000600052602260045260246000fd5b6000600282049050600182168062000b2d57607f821691505b60208210810362000b435762000b4262000ae5565b5b50919050565b60008190508160005260206000209050919050565b60006020601f8301049050919050565b600082821b905092915050565b60006008830262000bad7fffffffffffffffffffffffffffffffffffffffffffffffffffffffffffffffff8262000b6e565b62000bb9868362000b6e565b95508019841693508086168417925050509392505050565b6000819050919050565b6000819050919050565b600062000c0662000c0062000bfa8462000bd1565b62000bdb565b62000bd1565b9050919050565b6000819050919050565b62000c228362000be5565b62000c3a62000c318262000c0d565b84845462000b7b565b825550505050565b600090565b62000c5162000c42565b62000c5e81848462000c17565b505050565b5b8181101562000c865762000c7a60008262000c47565b60018101905062000c64565b5050565b601f82111562000cd55762000c9f8162000b49565b62000caa8462000b5e565b8101602085101562000cba578190505b62000cd262000cc98562000b5e565b83018262000c63565b50505b505050565b600082821c905092915050565b600062000cfa6000198460080262000cda565b1980831691505092915050565b600062000d15838362000ce7565b9150826002028217905092915050565b62000d308262000ada565b67ffffffffffffffff81111562000d4c5762000d4b620007a4565b5b62000d58825462000b14565b62000d6582828562000c8a565b600060209050601f83116001811462000d9d576000841562000d88578287015190505b62000d94858262000d07565b86555062000e04565b601f19841662000dad8662000b49565b60005b8281101562000dd75784890151825560018201915060208501945060208101905062000db0565b8683101562000df7578489015162000df3601f89168262000ce7565b8355505b6001600288020188555050505b505050505050565b62000e1781620006ff565b82525050565b600060208201905062000e34600083018462000e0c565b92915050565b6080516149be62000e806000396000818161080601528181610add01528181610c4f015281816111c9015281816117d301528181611b470152611cfb01526149be6000f3fe608060405234801561001057600080fd5b50600436106102065760003560e01c80638ad4c4471161011a578063cbf9fe5f116100ad578063f4359ce51161007c578063f4359ce5146106a9578063f52a36f7146106c7578063fc0c546a146106f7578063fe8fee8114610715578063fe9a6f451461073157610206565b8063cbf9fe5f1461060c578063dc4c90d31461063d578063e1b4af691461065b578063ee00ef3a1461068b57610206565b8063b47b2fb1116100e9578063b47b2fb114610570578063b6a8b0fa146105a0578063c2c4c5c1146105d0578063c4698ee5146105da57610206565b80638ad4c447146104bf57806395d89b41146104f2578063a910f80f14610510578063ab6291fe1461054057610206565b806334d901a41161019d578063612c39b71161016c578063612c39b7146103f45780636e9c5aa0146104125780636fe7e6eb146104435780637c616fe61461047357806381fc83bb1461048f57610206565b806334d901a4146103555780633e0dc34e146103885780635719098b146103a6578063575e24b4146103c457610206565b806323792279116101d957806323792279146102a757806330b7cdef146102d7578063313ce567146103075780633440d8201461032557610206565b8063059f8b161461020b57806306fdde03146102295780630dbe5dbd146102475780630e2059f514610277575b600080fd5b610213610761565b6040516102209190613012565b60405180910390f35b61023161076d565b60405161023e91906130bd565b60405180910390f35b610261600480360381019061025c9190613194565b610802565b60405161026e9190613223565b60405180910390f35b610291600480360381019061028c9190613274565b610ad9565b60405161029e9190613223565b60405180910390f35b6102c160048036038101906102bc91906132dd565b610f84565b6040516102ce9190613012565b60405180910390f35b6102f160048036038101906102ec919061336f565b611005565b6040516102fe9190613223565b60405180910390f35b61030f611039565b60405161031c9190613012565b60405180910390f35b61033f600480360381019061033a9190613438565b611046565b60405161034c9190613223565b60405180910390f35b61036f600480360381019061036a91906134ed565b61107a565b60405161037f9493929190613549565b60405180910390f35b6103906110e1565b60405161039d91906135b9565b60405180910390f35b6103ae6110e7565b6040516103bb9190613012565b60405180910390f35b6103de60048036038101906103d991906135f3565b6110ed565b6040516103eb9190613223565b60405180910390f35b6103fc611121565b604051610409919061373a565b60405180910390f35b61042c600480360381019061042791906132dd565b611180565b60405161043a929190613772565b60405180910390f35b61045d600480360381019061045891906137c7565b6111c5565b60405161046a9190613223565b60405180910390f35b61048d6004803603810190610488919061382f565b61127d565b005b6104a960048036038101906104a491906132dd565b611690565b6040516104b69190613012565b60405180910390f35b6104d960048036038101906104d4919061382f565b6116af565b6040516104e99493929190613549565b60405180910390f35b6104fa611706565b60405161050791906130bd565b60405180910390f35b61052a6004803603810190610525919061385c565b61179b565b6040516105379190613223565b60405180910390f35b61055a600480360381019061055591906138f8565b6117cf565b604051610567919061399a565b60405180910390f35b61058a600480360381019061058591906139bc565b611920565b6040516105979190613223565b60405180910390f35b6105ba60048036038101906105b59190613a59565b611954565b6040516105c79190613223565b60405180910390f35b6105d8611988565b005b6105f460048036038101906105ef91906132dd565b61199f565b60405161060393929190613af5565b60405180910390f35b610626600480360381019061062191906132dd565b611ae2565b604051610634929190613b57565b60405180910390f35b610645611b45565b6040516106529190613bdf565b60405180910390f35b61067560048036038101906106709190613a59565b611b69565b6040516106829190613223565b60405180910390f35b610693611b9d565b6040516106a09190613012565b60405180910390f35b6106b1611ba5565b6040516106be9190613012565b60405180910390f35b6106e160048036038101906106dc919061382f565b611bac565b6040516106ee9190613bfa565b60405180910390f35b6106ff611bd3565b60405161070c9190613c36565b60405180910390f35b61072f600480360381019061072a9190613c51565b611bf9565b005b61074b60048036038101906107469190613ca4565b6121d9565b6040516107589190613223565b60405180910390f35b670de0b6b3a764000081565b6729a2241af62c0009805461078190613d5d565b80601f01602080910402602001604051908101604052809291908181526020018280546107ad90613d5d565b80156107fa5780601f106107cf576101008083540402835291602001916107fa565b820191906000526020600020905b8154815290600101906020018083116107dd57829003601f168201915b505050505081565b60007f000000000000000000000000000000000000000000000000000000000000000073ffffffffffffffffffffffffffffffffffffffff163373ffffffffffffffffffffffffffffffffffffffff1614610889576040517fae18210a00000000000000000000000000000000000000000000000000000000815260040160405180910390fd5b60006729a2241af62c000860008673ffffffffffffffffffffffffffffffffffffffff1673ffffffffffffffffffffffffffffffffffffffff1681526020019081526020016000206040518060400160405290816000820160009054906101000a900460020b60020b60020b81526020016000820160039054906101000a900460020b60020b60020b81525050905082600001602081019061092b9190613d8e565b60020b816000015160020b14158061095f57508260200160208101906109519190613d8e565b60020b816020015160020b14155b1561097457630dbe5dbd60e01b915050610ad2565b60006729a2241af62c000760008773ffffffffffffffffffffffffffffffffffffffff1673ffffffffffffffffffffffffffffffffffffffff1681526020019081526020016000206040518060400160405290816000820160009054906101000a90046fffffffffffffffffffffffffffffffff166fffffffffffffffffffffffffffffffff166fffffffffffffffffffffffffffffffff1681526020016000820160109054906101000a90046fffffffffffffffffffffffffffffffff166fffffffffffffffffffffffffffffffff166fffffffffffffffffffffffffffffffff16815250509050600084604001351380610a8657504281602001516fffffffffffffffffffffffffffffffff1611155b610ac5576040517f08c379a0000000000000000000000000000000000000000000000000000000008152600401610abc90613e07565b60405180910390fd5b630dbe5dbd60e01b925050505b9392505050565b60007f000000000000000000000000000000000000000000000000000000000000000073ffffffffffffffffffffffffffffffffffffffff163373ffffffffffffffffffffffffffffffffffffffff1614610b60576040517fae18210a00000000000000000000000000000000000000000000000000000000815260040160405180910390fd5b60006729a2241af62c000860008773ffffffffffffffffffffffffffffffffffffffff1673ffffffffffffffffffffffffffffffffffffffff1681526020019081526020016000206040518060400160405290816000820160009054906101000a900460020b60020b60020b81526020016000820160039054906101000a900460020b60020b60020b815250509050836000016020810190610c029190613d8e565b60020b816000015160020b141580610c365750836020016020810190610c289190613d8e565b60020b816020015160020b14155b15610c4b57630e2059f560e01b915050610f7c565b60007f000000000000000000000000000000000000000000000000000000000000000073ffffffffffffffffffffffffffffffffffffffff1663048d9c7060015489886000016020810190610ca09190613d8e565b896020016020810190610cb39190613d8e565b6040518563ffffffff1660e01b8152600401610cd29493929190613e36565b606060405180830381865afa158015610cef573d6000803e3d6000fd5b505050506040513d601f19601f82011682018060405250810190610d139190613fa0565b905060006729a2241af62c000760008973ffffffffffffffffffffffffffffffffffffffff1673ffffffffffffffffffffffffffffffffffffffff1681526020019081526020016000206040518060400160405290816000820160009054906101000a90046fffffffffffffffffffffffffffffffff166fffffffffffffffffffffffffffffffff166fffffffffffffffffffffffffffffffff1681526020016000820160109054906101000a90046fffffffffffffffffffffffffffffffff166fffffffffffffffffffffffffffffffff166fffffffffffffffffffffffffffffffff168152505090504281602001516fffffffffffffffffffffffffffffffff161115610e595781600001516fffffffffffffffffffffffffffffffff1681600001516fffffffffffffffffffffffffffffffff1610610e5857610e57613fcd565b5b5b6000610e648261220d565b9050826000015181600001906fffffffffffffffffffffffffffffffff1690816fffffffffffffffffffffffffffffffff1681525050806729a2241af62c000760008b73ffffffffffffffffffffffffffffffffffffffff1673ffffffffffffffffffffffffffffffffffffffff16815260200190815260200160002060008201518160000160006101000a8154816fffffffffffffffffffffffffffffffff02191690836fffffffffffffffffffffffffffffffff16021790555060208201518160000160106101000a8154816fffffffffffffffffffffffffffffffff02191690836fffffffffffffffffffffffffffffffff160217905550905050610f6d89838361225d565b630e2059f560e01b9450505050505b949350505050565b60006729a2241af62c000760008373ffffffffffffffffffffffffffffffffffffffff1673ffffffffffffffffffffffffffffffffffffffff16815260200190815260200160002060000160109054906101000a90046fffffffffffffffffffffffffffffffff166fffffffffffffffffffffffffffffffff169050919050565b60006040517f0a85dc2900000000000000000000000000000000000000000000000000000000815260040160405180910390fd5b6729a2241af62c000b5481565b60006040517f0a85dc2900000000000000000000000000000000000000000000000000000000815260040160405180910390fd5b6729a2241af62c000460205281600052604060002081633b9aca0081106110a057600080fd5b60030201600091509150508060000160009054906101000a9004600f0b908060000160109054906101000a9004600f0b908060010154908060020154905084565b60015481565b60035481565b60006040517f0a85dc2900000000000000000000000000000000000000000000000000000000815260040160405180910390fd5b611129612f38565b60405180610100016040528060001515815260200160011515815260200160011515815260200160011515815260200160001515815260200160001515815260200160001515815260200160001515815250905090565b6729a2241af62c00086020528060005260406000206000915090508060000160009054906101000a900460020b908060000160039054906101000a900460020b905082565b60007f000000000000000000000000000000000000000000000000000000000000000073ffffffffffffffffffffffffffffffffffffffff163373ffffffffffffffffffffffffffffffffffffffff161461124c576040517fae18210a00000000000000000000000000000000000000000000000000000000815260040160405180910390fd5b61126584803603810190611260919061412d565b612e95565b600181905550636fe7e6eb60e01b9050949350505050565b611285612ec5565b60006729a2241af62c000760003373ffffffffffffffffffffffffffffffffffffffff1673ffffffffffffffffffffffffffffffffffffffff1681526020019081526020016000206040518060400160405290816000820160009054906101000a90046fffffffffffffffffffffffffffffffff166fffffffffffffffffffffffffffffffff166fffffffffffffffffffffffffffffffff1681526020016000820160109054906101000a90046fffffffffffffffffffffffffffffffff166fffffffffffffffffffffffffffffffff166fffffffffffffffffffffffffffffffff16815250509050600061137983612f0b565b9050600082600001516fffffffffffffffffffffffffffffffff16116113d4576040517f08c379a00000000000000000000000000000000000000000000000000000000081526004016113cb906141a6565b60405180910390fd5b81602001516fffffffffffffffffffffffffffffffff16811161142c576040517f08c379a000000000000000000000000000000000000000000000000000000000815260040161142390614212565b60405180910390fd5b6301e133804261143c9190614261565b81111561147e576040517f08c379a0000000000000000000000000000000000000000000000000000000008152600401611475906142e1565b60405180910390fd5b600082602001516fffffffffffffffffffffffffffffffff1690508183602001906fffffffffffffffffffffffffffffffff1690816fffffffffffffffffffffffffffffffff1681525050826729a2241af62c000760003373ffffffffffffffffffffffffffffffffffffffff1673ffffffffffffffffffffffffffffffffffffffff16815260200190815260200160002060008201518160000160006101000a8154816fffffffffffffffffffffffffffffffff02191690836fffffffffffffffffffffffffffffffff16021790555060208201518160000160106101000a8154816fffffffffffffffffffffffffffffffff02191690836fffffffffffffffffffffffffffffffff1602179055509050504281116115d3576040517f08c379a00000000000000000000000000000000000000000000000000000000081526004016115ca9061434d565b60405180910390fd5b60006115de8461220d565b90508181602001906fffffffffffffffffffffffffffffffff1690816fffffffffffffffffffffffffffffffff168152505061161b33828661225d565b60018081111561162e5761162d61436d565b5b3373ffffffffffffffffffffffffffffffffffffffff167fbe9cf0e939c614fad640a623a53ba0a807c8cb503c4c4c8dacabe27b86ff2dd560008642604051611679939291906143d7565b60405180910390a35050505061168d612f2e565b50565b6729a2241af62c00056020528060005260406000206000915090505481565b600481670de0b6b3a764000081106116c657600080fd5b600302016000915090508060000160009054906101000a9004600f0b908060000160109054906101000a9004600f0b908060010154908060020154905084565b6729a2241af62c000a805461171a90613d5d565b80601f016020809104026020016040519081016040528092919081815260200182805461174690613d5d565b80156117935780601f1061176857610100808354040283529160200191611793565b820191906000526020600020905b81548152906001019060200180831161177657829003601f168201915b505050505081565b60006040517f0a85dc2900000000000000000000000000000000000000000000000000000000815260040160405180910390fd5b60607f000000000000000000000000000000000000000000000000000000000000000073ffffffffffffffffffffffffffffffffffffffff163373ffffffffffffffffffffffffffffffffffffffff1614611856576040517fae18210a00000000000000000000000000000000000000000000000000000000815260040160405180910390fd5b6000803073ffffffffffffffffffffffffffffffffffffffff16858560405161188092919061444d565b6000604051808303816000865af19150503d80600081146118bd576040519150601f19603f3d011682016040523d82523d6000602084013e6118c2565b606091505b509150915081156118d757809250505061191a565b6000815103611912576040517fa40afa3800000000000000000000000000000000000000000000000000000000815260040160405180910390fd5b805160208201fd5b92915050565b60006040517f0a85dc2900000000000000000000000000000000000000000000000000000000815260040160405180910390fd5b60006040517f0a85dc2900000000000000000000000000000000000000000000000000000000815260040160405180910390fd5b611990612f8d565b61199c6000828361225d565b50565b6000806000806729a2241af62c000560008673ffffffffffffffffffffffffffffffffffffffff1673ffffffffffffffffffffffffffffffffffffffff16815260200190815260200160002054905060008103611a0757600080600093509350935050611adb565b60006729a2241af62c000460008773ffffffffffffffffffffffffffffffffffffffff1673ffffffffffffffffffffffffffffffffffffffff16815260200190815260200160002082633b9aca008110611a6457611a63614466565b5b600302016040518060800160405290816000820160009054906101000a9004600f0b600f0b600f0b81526020016000820160109054906101000a9004600f0b600f0b600f0b815260200160018201548152602001600282015481525050905080600001518160200151826040015194509450945050505b9193909250565b6729a2241af62c00076020528060005260406000206000915090508060000160009054906101000a90046fffffffffffffffffffffffffffffffff16908060000160109054906101000a90046fffffffffffffffffffffffffffffffff16905082565b7f000000000000000000000000000000000000000000000000000000000000000081565b60006040517f0a85dc2900000000000000000000000000000000000000000000000000000000815260040160405180910390fd5b6301e1338081565b62093a8081565b6729a2241af62c00066020528060005260406000206000915054906101000a9004600f0b81565b600260009054906101000a900473ffffffffffffffffffffffffffffffffffffffff1681565b611c01612ec5565b6000611c0c84612f0b565b905060006729a2241af62c000760003373ffffffffffffffffffffffffffffffffffffffff1673ffffffffffffffffffffffffffffffffffffffff1681526020019081526020016000206040518060400160405290816000820160009054906101000a90046fffffffffffffffffffffffffffffffff166fffffffffffffffffffffffffffffffff166fffffffffffffffffffffffffffffffff1681526020016000820160109054906101000a90046fffffffffffffffffffffffffffffffff166fffffffffffffffffffffffffffffffff166fffffffffffffffffffffffffffffffff1681525050905060007f000000000000000000000000000000000000000000000000000000000000000073ffffffffffffffffffffffffffffffffffffffff1663048d9c706001543388886040518563ffffffff1660e01b8152600401611d5a9493929190613e36565b606060405180830381865afa158015611d77573d6000803e3d6000fd5b505050506040513d601f19601f82011682018060405250810190611d9b9190613fa0565b9050600081600001516fffffffffffffffffffffffffffffffff16905060008111611dfb576040517f08c379a0000000000000000000000000000000000000000000000000000000008152600401611df2906144e1565b60405180910390fd5b600083600001516fffffffffffffffffffffffffffffffff1614611e54576040517f08c379a0000000000000000000000000000000000000000000000000000000008152600401611e4b9061454d565b60405180910390fd5b82602001516fffffffffffffffffffffffffffffffff16841015611ead576040517f08c379a0000000000000000000000000000000000000000000000000000000008152600401611ea490614212565b60405180910390fd5b428411611eef576040517f08c379a0000000000000000000000000000000000000000000000000000000008152600401611ee6906145b9565b60405180910390fd5b6301e1338042611eff9190614261565b841115611f41576040517f08c379a0000000000000000000000000000000000000000000000000000000008152600401611f38906142e1565b60405180910390fd5b8083600001906fffffffffffffffffffffffffffffffff1690816fffffffffffffffffffffffffffffffff16815250508383602001906fffffffffffffffffffffffffffffffff1690816fffffffffffffffffffffffffffffffff1681525050826729a2241af62c000760003373ffffffffffffffffffffffffffffffffffffffff1673ffffffffffffffffffffffffffffffffffffffff16815260200190815260200160002060008201518160000160006101000a8154816fffffffffffffffffffffffffffffffff02191690836fffffffffffffffffffffffffffffffff16021790555060208201518160000160106101000a8154816fffffffffffffffffffffffffffffffff02191690836fffffffffffffffffffffffffffffffff16021790555090505060405180604001604052808760020b81526020018660020b8152506729a2241af62c000860003373ffffffffffffffffffffffffffffffffffffffff1673ffffffffffffffffffffffffffffffffffffffff16815260200190815260200160002060008201518160000160006101000a81548162ffffff021916908360020b62ffffff16021790555060208201518160000160036101000a81548162ffffff021916908360020b62ffffff16021790555090505061216233604051806040016040528060006fffffffffffffffffffffffffffffffff16815260200160006fffffffffffffffffffffffffffffffff168152508561225d565b600060018111156121765761217561436d565b5b3373ffffffffffffffffffffffffffffffffffffffff167fbe9cf0e939c614fad640a623a53ba0a807c8cb503c4c4c8dacabe27b86ff2dd58387426040516121c0939291906145d9565b60405180910390a3505050506121d4612f2e565b505050565b60006040517f0a85dc2900000000000000000000000000000000000000000000000000000000815260040160405180910390fd5b612215612f8d565b604051806040016040528083600001516fffffffffffffffffffffffffffffffff16815260200183602001516fffffffffffffffffffffffffffffffff168152509050919050565b612265612fcb565b61226d612fcb565b60008060006003549050600073ffffffffffffffffffffffffffffffffffffffff168873ffffffffffffffffffffffffffffffffffffffff1614612761574287602001516fffffffffffffffffffffffffffffffff161115612331576301e1338087600001516122dd919061463f565b8560200190600f0b9081600f0b815250504287602001516fffffffffffffffffffffffffffffffff1661231091906146a9565b856020015161231f91906146dd565b8560000190600f0b9081600f0b815250505b4286602001516fffffffffffffffffffffffffffffffff1611156123b7576301e133808660000151612363919061463f565b8460200190600f0b9081600f0b815250504286602001516fffffffffffffffffffffffffffffffff1661239691906146a9565b84602001516123a591906146dd565b8460000190600f0b9081600f0b815250505b60006729a2241af62c000560008a73ffffffffffffffffffffffffffffffffffffffff1673ffffffffffffffffffffffffffffffffffffffff1681526020019081526020016000205490506000810361251257856729a2241af62c000460008b73ffffffffffffffffffffffffffffffffffffffff1673ffffffffffffffffffffffffffffffffffffffff16815260200190815260200160002060018361245e9190614261565b633b9aca00811061247257612471614466565b5b6003020160008201518160000160006101000a8154816fffffffffffffffffffffffffffffffff0219169083600f0b6fffffffffffffffffffffffffffffffff16021790555060208201518160000160106101000a8154816fffffffffffffffffffffffffffffffff0219169083600f0b6fffffffffffffffffffffffffffffffff16021790555060408201518160010155606082015181600201559050505b60018161251f9190614261565b6729a2241af62c000560008b73ffffffffffffffffffffffffffffffffffffffff1673ffffffffffffffffffffffffffffffffffffffff168152602001908152602001600020819055504285604001818152505043856060018181525050846729a2241af62c000460008b73ffffffffffffffffffffffffffffffffffffffff1673ffffffffffffffffffffffffffffffffffffffff1681526020019081526020016000206001836125d19190614261565b633b9aca0081106125e5576125e4614466565b5b6003020160008201518160000160006101000a8154816fffffffffffffffffffffffffffffffff0219169083600f0b6fffffffffffffffffffffffffffffffff16021790555060208201518160000160106101000a8154816fffffffffffffffffffffffffffffffff0219169083600f0b6fffffffffffffffffffffffffffffffff16021790555060408201518160010155606082015181600201559050506729a2241af62c0006600089602001516fffffffffffffffffffffffffffffffff16815260200190815260200160002060009054906101000a9004600f0b9350600087602001516fffffffffffffffffffffffffffffffff161461275f5787602001516fffffffffffffffffffffffffffffffff1687602001516fffffffffffffffffffffffffffffffff160361271d5783925061275e565b6729a2241af62c0006600088602001516fffffffffffffffffffffffffffffffff16815260200190815260200160002060009054906101000a9004600f0b92505b5b505b600060405180608001604052806000600f0b81526020016000600f0b8152602001428152602001438152509050600082111561281257600482670de0b6b3a764000081106127b2576127b1614466565b5b600302016040518060800160405290816000820160009054906101000a9004600f0b600f0b600f0b81526020016000820160109054906101000a9004600f0b600f0b600f0b81526020016001820154815260200160028201548152505090505b600081604001519050600060405180608001604052806000600f0b81526020016000600f0b815260200184604001518152602001846060015181525090506000836040015142111561289e5783604001514261286e91906146a9565b84606001514361287e91906146a9565b670de0b6b3a7640000612891919061471a565b61289b919061475c565b90505b60006128a984612f0b565b905060005b60ff811015612af85762093a80826128c69190614261565b91506000428311156128da57429250612905565b6729a2241af62c0006600084815260200190815260200160002060009054906101000a9004600f0b90505b6000868461291391906146a9565b886020015161292291906146dd565b9050808860000151612934919061478d565b8860000190600f0b9081600f0b8152505081886020015161295591906147f5565b8860200190600f0b9081600f0b8152505060008860000151600f0b121561298a5760008860000190600f0b9081600f0b815250505b60008860200151600f0b12156129ae5760008860200190600f0b9081600f0b815250505b83965083886040018181525050670de0b6b3a76400008660400151856129d491906146a9565b866129df919061471a565b6129e9919061475c565b86606001516129f89190614261565b886060018181525050600189612a0e9190614261565b9850428403612a2857438860600181815250505050612af8565b8760048a670de0b6b3a76400008110612a4457612a43614466565b5b6003020160008201518160000160006101000a8154816fffffffffffffffffffffffffffffffff0219169083600f0b6fffffffffffffffffffffffffffffffff16021790555060208201518160000160106101000a8154816fffffffffffffffffffffffffffffffff0219169083600f0b6fffffffffffffffffffffffffffffffff160217905550604082015181600101556060820151816002015590505050508080612af09061485d565b9150506128ae565b5085600381905550600073ffffffffffffffffffffffffffffffffffffffff168d73ffffffffffffffffffffffffffffffffffffffff1614612be557896020015189602001518660200151612b4d91906147f5565b612b57919061478d565b8560200190600f0b9081600f0b81525050896000015189600001518660000151612b8191906147f5565b612b8b919061478d565b8560000190600f0b9081600f0b8152505060008560200151600f0b1215612bc05760008560200190600f0b9081600f0b815250505b60008560000151600f0b1215612be45760008560000190600f0b9081600f0b815250505b5b84600487670de0b6b3a76400008110612c0157612c00614466565b5b6003020160008201518160000160006101000a8154816fffffffffffffffffffffffffffffffff0219169083600f0b6fffffffffffffffffffffffffffffffff16021790555060208201518160000160106101000a8154816fffffffffffffffffffffffffffffffff0219169083600f0b6fffffffffffffffffffffffffffffffff1602179055506040820151816001015560608201518160020155905050600073ffffffffffffffffffffffffffffffffffffffff168d73ffffffffffffffffffffffffffffffffffffffff1614612e8657428c602001516fffffffffffffffffffffffffffffffff161115612db557896020015188612d0291906147f5565b97508b602001516fffffffffffffffffffffffffffffffff168b602001516fffffffffffffffffffffffffffffffff1603612d4a57886020015188612d47919061478d565b97505b876729a2241af62c000660008e602001516fffffffffffffffffffffffffffffffff16815260200190815260200160002060006101000a8154816fffffffffffffffffffffffffffffffff0219169083600f0b6fffffffffffffffffffffffffffffffff1602179055505b428b602001516fffffffffffffffffffffffffffffffff161115612e85578b602001516fffffffffffffffffffffffffffffffff168b602001516fffffffffffffffffffffffffffffffff161115612e8457886020015187612e17919061478d565b9650866729a2241af62c000660008d602001516fffffffffffffffffffffffffffffffff16815260200190815260200160002060006101000a8154816fffffffffffffffffffffffffffffffff0219169083600f0b6fffffffffffffffffffffffffffffffff1602179055505b5b5b50505050505050505050505050565b600081604051602001612ea8919061496d565b604051602081830303815290604052805190602001209050919050565b600260005403612f01576040517f3ee5aeb500000000000000000000000000000000000000000000000000000000815260040160405180910390fd5b6002600081905550565b600062093a808083612f1d919061475c565b612f27919061471a565b9050919050565b6001600081905550565b6040518061010001604052806000151581526020016000151581526020016000151581526020016000151581526020016000151581526020016000151581526020016000151581526020016000151581525090565b604051806040016040528060006fffffffffffffffffffffffffffffffff16815260200160006fffffffffffffffffffffffffffffffff1681525090565b60405180608001604052806000600f0b81526020016000600f0b815260200160008152602001600081525090565b6000819050919050565b61300c81612ff9565b82525050565b60006020820190506130276000830184613003565b92915050565b600081519050919050565b600082825260208201905092915050565b60005b8381101561306757808201518184015260208101905061304c565b60008484015250505050565b6000601f19601f8301169050919050565b600061308f8261302d565b6130998185613038565b93506130a9818560208601613049565b6130b281613073565b840191505092915050565b600060208201905081810360008301526130d78184613084565b905092915050565b6000604051905090565b600080fd5b600080fd5b600073ffffffffffffffffffffffffffffffffffffffff82169050919050565b600061311e826130f3565b9050919050565b61312e81613113565b811461313957600080fd5b50565b60008135905061314b81613125565b92915050565b600080fd5b600060a0828403121561316c5761316b613151565b5b81905092915050565b60006060828403121561318b5761318a613151565b5b81905092915050565b600080600061012084860312156131ae576131ad6130e9565b5b60006131bc8682870161313c565b93505060206131cd86828701613156565b92505060c06131de86828701613175565b9150509250925092565b60007fffffffff0000000000000000000000000000000000000000000000000000000082169050919050565b61321d816131e8565b82525050565b60006020820190506132386000830184613214565b92915050565b6000819050919050565b6132518161323e565b811461325c57600080fd5b50565b60008135905061326e81613248565b92915050565b600080600080610140858703121561328f5761328e6130e9565b5b600061329d8782880161313c565b94505060206132ae87828801613156565b93505060c06132bf87828801613175565b9250506101206132d18782880161325f565b91505092959194509250565b6000602082840312156132f3576132f26130e9565b5b60006133018482850161313c565b91505092915050565b600080fd5b600080fd5b600080fd5b60008083601f84011261332f5761332e61330a565b5b8235905067ffffffffffffffff81111561334c5761334b61330f565b5b60208301915083600182028301111561336857613367613314565b5b9250929050565b600080600080600080610160878903121561338d5761338c6130e9565b5b600061339b89828a0161313c565b96505060206133ac89828a01613156565b95505060c06133bd89828a01613175565b9450506101206133cf89828a0161325f565b93505061014087013567ffffffffffffffff8111156133f1576133f06130ee565b5b6133fd89828a01613319565b92509250509295509295509295565b613415816130f3565b811461342057600080fd5b50565b6000813590506134328161340c565b92915050565b60008060008060006101008688031215613455576134546130e9565b5b60006134638882890161313c565b955050602061347488828901613156565b94505060c061348588828901613423565b93505060e086013567ffffffffffffffff8111156134a6576134a56130ee565b5b6134b288828901613319565b92509250509295509295909350565b6134ca81612ff9565b81146134d557600080fd5b50565b6000813590506134e7816134c1565b92915050565b60008060408385031215613504576135036130e9565b5b60006135128582860161313c565b9250506020613523858286016134d8565b9150509250929050565b600081600f0b9050919050565b6135438161352d565b82525050565b600060808201905061355e600083018761353a565b61356b602083018661353a565b6135786040830185613003565b6135856060830184613003565b95945050505050565b6000819050919050565b60006135a38261358e565b9050919050565b6135b381613598565b82525050565b60006020820190506135ce60008301846135aa565b92915050565b6000606082840312156135ea576135e9613151565b5b81905092915050565b600080600080600061014086880312156136105761360f6130e9565b5b600061361e8882890161313c565b955050602061362f88828901613156565b94505060c0613640888289016135d4565b93505061012086013567ffffffffffffffff811115613662576136616130ee565b5b61366e88828901613319565b92509250509295509295909350565b60008115159050919050565b6136928161367d565b82525050565b610100820160008201516136af6000850182613689565b5060208201516136c26020850182613689565b5060408201516136d56040850182613689565b5060608201516136e86060850182613689565b5060808201516136fb6080850182613689565b5060a082015161370e60a0850182613689565b5060c082015161372160c0850182613689565b5060e082015161373460e0850182613689565b50505050565b6000610100820190506137506000830184613698565b92915050565b60008160020b9050919050565b61376c81613756565b82525050565b60006040820190506137876000830185613763565b6137946020830184613763565b9392505050565b6137a481613756565b81146137af57600080fd5b50565b6000813590506137c18161379b565b92915050565b60008060008061010085870312156137e2576137e16130e9565b5b60006137f08782880161313c565b945050602061380187828801613156565b93505060c061381287828801613423565b92505060e0613823878288016137b2565b91505092959194509250565b600060208284031215613845576138446130e9565b5b6000613853848285016134d8565b91505092915050565b600080600080600080610120878903121561387a576138796130e9565b5b600061388889828a0161313c565b965050602061389989828a01613156565b95505060c06138aa89828a01613423565b94505060e06138bb89828a016137b2565b93505061010087013567ffffffffffffffff8111156138dd576138dc6130ee565b5b6138e989828a01613319565b92509250509295509295509295565b6000806020838503121561390f5761390e6130e9565b5b600083013567ffffffffffffffff81111561392d5761392c6130ee565b5b61393985828601613319565b92509250509250929050565b600081519050919050565b600082825260208201905092915050565b600061396c82613945565b6139768185613950565b9350613986818560208601613049565b61398f81613073565b840191505092915050565b600060208201905081810360008301526139b48184613961565b905092915050565b60008060008060008061016087890312156139da576139d96130e9565b5b60006139e889828a0161313c565b96505060206139f989828a01613156565b95505060c0613a0a89828a016135d4565b945050610120613a1c89828a0161325f565b93505061014087013567ffffffffffffffff811115613a3e57613a3d6130ee565b5b613a4a89828a01613319565b92509250509295509295509295565b6000806000806000806101208789031215613a7757613a766130e9565b5b6000613a8589828a0161313c565b9650506020613a9689828a01613156565b95505060c0613aa789828a016134d8565b94505060e0613ab889828a016134d8565b93505061010087013567ffffffffffffffff811115613ada57613ad96130ee565b5b613ae689828a01613319565b92509250509295509295509295565b6000606082019050613b0a600083018661353a565b613b17602083018561353a565b613b246040830184613003565b949350505050565b60006fffffffffffffffffffffffffffffffff82169050919050565b613b5181613b2c565b82525050565b6000604082019050613b6c6000830185613b48565b613b796020830184613b48565b9392505050565b6000819050919050565b6000613ba5613ba0613b9b846130f3565b613b80565b6130f3565b9050919050565b6000613bb782613b8a565b9050919050565b6000613bc982613bac565b9050919050565b613bd981613bbe565b82525050565b6000602082019050613bf46000830184613bd0565b92915050565b6000602082019050613c0f600083018461353a565b92915050565b6000613c2082613bac565b9050919050565b613c3081613c15565b82525050565b6000602082019050613c4b6000830184613c27565b92915050565b600080600060608486031215613c6a57613c696130e9565b5b6000613c78868287016134d8565b9350506020613c89868287016137b2565b9250506040613c9a868287016137b2565b9150509250925092565b60008060008060006101408688031215613cc157613cc06130e9565b5b6000613ccf8882890161313c565b9550506020613ce088828901613156565b94505060c0613cf188828901613175565b93505061012086013567ffffffffffffffff811115613d1357613d126130ee565b5b613d1f88828901613319565b92509250509295509295909350565b7f4e487b7100000000000000000000000000000000000000000000000000000000600052602260045260246000fd5b60006002820490506001821680613d7557607f821691505b602082108103613d8857613d87613d2e565b5b50919050565b600060208284031215613da457613da36130e9565b5b6000613db2848285016137b2565b91505092915050565b7f43616e2774207769746864726177206265666f7265206c6f636b20656e640000600082015250565b6000613df1601e83613038565b9150613dfc82613dbb565b602082019050919050565b60006020820190508181036000830152613e2081613de4565b9050919050565b613e3081613113565b82525050565b6000608082019050613e4b60008301876135aa565b613e586020830186613e27565b613e656040830185613763565b613e726060830184613763565b95945050505050565b600080fd5b7f4e487b7100000000000000000000000000000000000000000000000000000000600052604160045260246000fd5b613eb882613073565b810181811067ffffffffffffffff82111715613ed757613ed6613e80565b5b80604052505050565b6000613eea6130df565b9050613ef68282613eaf565b919050565b613f0481613b2c565b8114613f0f57600080fd5b50565b600081519050613f2181613efb565b92915050565b600081519050613f36816134c1565b92915050565b600060608284031215613f5257613f51613e7b565b5b613f5c6060613ee0565b90506000613f6c84828501613f12565b6000830152506020613f8084828501613f27565b6020830152506040613f9484828501613f27565b60408301525092915050565b600060608284031215613fb657613fb56130e9565b5b6000613fc484828501613f3c565b91505092915050565b7f4e487b7100000000000000000000000000000000000000000000000000000000600052600160045260246000fd5b61400581613113565b811461401057600080fd5b50565b60008135905061402281613ffc565b92915050565b600062ffffff82169050919050565b61404081614028565b811461404b57600080fd5b50565b60008135905061405d81614037565b92915050565b600061406e82613113565b9050919050565b61407e81614063565b811461408957600080fd5b50565b60008135905061409b81614075565b92915050565b600060a082840312156140b7576140b6613e7b565b5b6140c160a0613ee0565b905060006140d184828501614013565b60008301525060206140e584828501614013565b60208301525060406140f98482850161404e565b604083015250606061410d848285016137b2565b60608301525060806141218482850161408c565b60808301525092915050565b600060a08284031215614143576141426130e9565b5b6000614151848285016140a1565b91505092915050565b7f4e6f206c6f636b00000000000000000000000000000000000000000000000000600082015250565b6000614190600783613038565b915061419b8261415a565b602082019050919050565b600060208201905081810360008301526141bf81614183565b9050919050565b7f4f6e6c7920696e637265617365206c6f636b20656e6400000000000000000000600082015250565b60006141fc601683613038565b9150614207826141c6565b602082019050919050565b6000602082019050818103600083015261422b816141ef565b9050919050565b7f4e487b7100000000000000000000000000000000000000000000000000000000600052601160045260246000fd5b600061426c82612ff9565b915061427783612ff9565b925082820190508082111561428f5761428e614232565b5b92915050565b7f45786365656473206d617874696d650000000000000000000000000000000000600082015250565b60006142cb600f83613038565b91506142d682614295565b602082019050919050565b600060208201905081810360008301526142fa816142be565b9050919050565b7f4c6f636b20657870697265640000000000000000000000000000000000000000600082015250565b6000614337600c83613038565b915061434282614301565b602082019050919050565b600060208201905081810360008301526143668161432a565b9050919050565b7f4e487b7100000000000000000000000000000000000000000000000000000000600052602160045260246000fd5b6000819050919050565b60006143c16143bc6143b78461439c565b613b80565b612ff9565b9050919050565b6143d1816143a6565b82525050565b60006060820190506143ec60008301866143c8565b6143f96020830185613003565b6144066040830184613003565b949350505050565b600081905092915050565b82818337600083830152505050565b6000614434838561440e565b9350614441838584614419565b82840190509392505050565b600061445a828486614428565b91508190509392505050565b7f4e487b7100000000000000000000000000000000000000000000000000000000600052603260045260246000fd5b7f4e6f206c697175696469747920706f736974696f6e0000000000000000000000600082015250565b60006144cb601583613038565b91506144d682614495565b602082019050919050565b600060208201905081810360008301526144fa816144be565b9050919050565b7f4c6f636b20657869737473000000000000000000000000000000000000000000600082015250565b6000614537600b83613038565b915061454282614501565b602082019050919050565b600060208201905081810360008301526145668161452a565b9050919050565b7f4f6e6c7920667574757265206c6f636b20656e64000000000000000000000000600082015250565b60006145a3601483613038565b91506145ae8261456d565b602082019050919050565b600060208201905081810360008301526145d281614596565b9050919050565b60006060820190506145ee6000830186613003565b6145fb6020830185613003565b6146086040830184613003565b949350505050565b7f4e487b7100000000000000000000000000000000000000000000000000000000600052601260045260246000fd5b600061464a8261352d565b91506146558361352d565b92508261466557614664614610565b5b600160000383147fffffffffffffffffffffffffffffffff800000000000000000000000000000008314161561469e5761469d614232565b5b828205905092915050565b60006146b482612ff9565b91506146bf83612ff9565b92508282039050818111156146d7576146d6614232565b5b92915050565b60006146e88261352d565b91506146f38361352d565b92508282026147018161352d565b915080821461471357614712614232565b5b5092915050565b600061472582612ff9565b915061473083612ff9565b925082820261473e81612ff9565b9150828204841483151761475557614754614232565b5b5092915050565b600061476782612ff9565b915061477283612ff9565b92508261478257614781614610565b5b828204905092915050565b60006147988261352d565b91506147a38361352d565b925082820390506f7fffffffffffffffffffffffffffffff81137fffffffffffffffffffffffffffffffff80000000000000000000000000000000821217156147ef576147ee614232565b5b92915050565b60006148008261352d565b915061480b8361352d565b925082820190507fffffffffffffffffffffffffffffffff8000000000000000000000000000000081126f7fffffffffffffffffffffffffffffff8213171561485757614856614232565b5b92915050565b600061486882612ff9565b91507fffffffffffffffffffffffffffffffffffffffffffffffffffffffffffffffff820361489a57614899614232565b5b600182019050919050565b60006148b082613bac565b9050919050565b6148c0816148a5565b82525050565b6148cf81614028565b82525050565b6148de81613756565b82525050565b60006148ef82613bac565b9050919050565b6148ff816148e4565b82525050565b60a08201600082015161491b60008501826148b7565b50602082015161492e60208501826148b7565b50604082015161494160408501826148c6565b50606082015161495460608501826148d5565b50608082015161496760808501826148f6565b50505050565b600060a0820190506149826000830184614905565b9291505056fea26469706673582212208b97b6715e667e090d818905a53953d8d2a8cd2972d54b37fdb3f9420525ad3f64736f6c6343000815003360a06040523480156200001157600080fd5b5060405162001a3f38038062001a3f8339818101604052810190620000379190620000f0565b8073ffffffffffffffffffffffffffffffffffffffff1660808173ffffffffffffffffffffffffffffffffffffffff16815250505062000122565b600080fd5b600073ffffffffffffffffffffffffffffffffffffffff82169050919050565b6000620000a48262000077565b9050919050565b6000620000b88262000097565b9050919050565b620000ca81620000ab565b8114620000d657600080fd5b50565b600081519050620000ea81620000bf565b92915050565b60006020828403121562000109576200010862000072565b5b60006200011984828501620000d9565b91505092915050565b6080516118b6620001896000396000818160d30152818160f901528181610249015281816102b6015281816103a4015281816104920152818161051e01528181610605015281816106f30152818161077f0152818161083a01526108fb01526118b66000f3fe6080604052600436106100345760003560e01c8063481c6a751461003957806361ae449a14610064578063ab6291fe14610094575b600080fd5b34801561004557600080fd5b5061004e6100d1565b60405161005b9190610ba0565b60405180910390f35b61007e60048036038101906100799190610f35565b6100f5565b60405161008b9190610fd7565b60405180910390f35b3480156100a057600080fd5b506100bb60048036038101906100b69190611052565b610245565b6040516100c8919061111e565b60405180910390f35b7f000000000000000000000000000000000000000000000000000000000000000081565b60007f000000000000000000000000000000000000000000000000000000000000000073ffffffffffffffffffffffffffffffffffffffff16638154831960405180608001604052803373ffffffffffffffffffffffffffffffffffffffff1681526020018781526020018681526020018581525060405160200161017a9190611317565b6040516020818303038152906040526040518263ffffffff1660e01b81526004016101a5919061111e565b6000604051808303816000875af11580156101c4573d6000803e3d6000fd5b505050506040513d6000823e3d601f19601f820116820180604052508101906101ed91906113a9565b806020019051810190610200919061141e565b90506000479050600081111561023d5761023c3382600073ffffffffffffffffffffffffffffffffffffffff166109d09092919063ffffffff16565b5b509392505050565b60607f000000000000000000000000000000000000000000000000000000000000000073ffffffffffffffffffffffffffffffffffffffff163373ffffffffffffffffffffffffffffffffffffffff161461029f57600080fd5b600083838101906102b0919061150d565b905060007f000000000000000000000000000000000000000000000000000000000000000073ffffffffffffffffffffffffffffffffffffffff166361ae449a8360200151846040015185606001516040518463ffffffff1660e01b815260040161031d93929190611600565b6020604051808303816000875af115801561033c573d6000803e3d6000fd5b505050506040513d601f19601f82011682018060405250810190610360919061141e565b9050600061036d82610ad2565b600f0b13156105c35761039d82602001516000015173ffffffffffffffffffffffffffffffffffffffff16610adf565b15610467577f000000000000000000000000000000000000000000000000000000000000000073ffffffffffffffffffffffffffffffffffffffff16636a256b296103e783610ad2565b6fffffffffffffffffffffffffffffffff168460200151600001516040518363ffffffff1660e01b815260040161041e919061164f565b60206040518083038185885af115801561043c573d6000803e3d6000fd5b50505050506040513d601f19601f8201168201806040525081019061046191906116a0565b506105c2565b81602001516000015173ffffffffffffffffffffffffffffffffffffffff166323b872dd83600001517f00000000000000000000000000000000000000000000000000000000000000006104ba85610ad2565b6040518463ffffffff1660e01b81526004016104d893929190611729565b6020604051808303816000875af11580156104f7573d6000803e3d6000fd5b505050506040513d601f19601f8201168201806040525081019061051b9190611798565b507f000000000000000000000000000000000000000000000000000000000000000073ffffffffffffffffffffffffffffffffffffffff16636a256b298360200151600001516040518263ffffffff1660e01b815260040161057d919061164f565b6020604051808303816000875af115801561059c573d6000803e3d6000fd5b505050506040513d601f19601f820116820180604052508101906105c091906116a0565b505b5b60006105ce82610b17565b600f0b1315610824576105fe82602001516020015173ffffffffffffffffffffffffffffffffffffffff16610adf565b156106c8577f000000000000000000000000000000000000000000000000000000000000000073ffffffffffffffffffffffffffffffffffffffff16636a256b2961064883610b17565b6fffffffffffffffffffffffffffffffff168460200151602001516040518363ffffffff1660e01b815260040161067f919061164f565b60206040518083038185885af115801561069d573d6000803e3d6000fd5b50505050506040513d601f19601f820116820180604052508101906106c291906116a0565b50610823565b81602001516020015173ffffffffffffffffffffffffffffffffffffffff166323b872dd83600001517f000000000000000000000000000000000000000000000000000000000000000061071b85610b17565b6040518463ffffffff1660e01b815260040161073993929190611729565b6020604051808303816000875af1158015610758573d6000803e3d6000fd5b505050506040513d601f19601f8201168201806040525081019061077c9190611798565b507f000000000000000000000000000000000000000000000000000000000000000073ffffffffffffffffffffffffffffffffffffffff16636a256b298360200151602001516040518263ffffffff1660e01b81526004016107de919061164f565b6020604051808303816000875af11580156107fd573d6000803e3d6000fd5b505050506040513d601f19601f8201168201806040525081019061082191906116a0565b505b5b600061082f82610ad2565b600f0b12156108e5577f000000000000000000000000000000000000000000000000000000000000000073ffffffffffffffffffffffffffffffffffffffff16630b0d9c09836020015160000151846000015161088b85610ad2565b61089490611801565b6040518463ffffffff1660e01b81526004016108b293929190611849565b600060405180830381600087803b1580156108cc57600080fd5b505af11580156108e0573d6000803e3d6000fd5b505050505b60006108f082610b17565b600f0b12156109a6577f000000000000000000000000000000000000000000000000000000000000000073ffffffffffffffffffffffffffffffffffffffff16630b0d9c09836020015160200151846000015161094c85610b17565b61095590611801565b6040518463ffffffff1660e01b815260040161097393929190611849565b600060405180830381600087803b15801561098d57600080fd5b505af11580156109a1573d6000803e3d6000fd5b505050505b806040516020016109b79190610fd7565b6040516020818303038152906040529250505092915050565b60006109f18473ffffffffffffffffffffffffffffffffffffffff16610adf565b15610a3e5760008060008085875af1905080610a39576040517ff4b3b1bc00000000000000000000000000000000000000000000000000000000815260040160405180910390fd5b610acc565b6040517fa9059cbb000000000000000000000000000000000000000000000000000000006000528360045282602452602060006044600080895af13d15601f3d1160016000511416171691506000606052806040525080610acb576040517ff27f64e400000000000000000000000000000000000000000000000000000000815260040160405180910390fd5b5b50505050565b60008160801c9050919050565b60008073ffffffffffffffffffffffffffffffffffffffff168273ffffffffffffffffffffffffffffffffffffffff16149050919050565b6000819050919050565b600073ffffffffffffffffffffffffffffffffffffffff82169050919050565b6000819050919050565b6000610b66610b61610b5c84610b21565b610b41565b610b21565b9050919050565b6000610b7882610b4b565b9050919050565b6000610b8a82610b6d565b9050919050565b610b9a81610b7f565b82525050565b6000602082019050610bb56000830184610b91565b92915050565b6000604051905090565b600080fd5b600080fd5b600080fd5b6000601f19601f8301169050919050565b7f4e487b7100000000000000000000000000000000000000000000000000000000600052604160045260246000fd5b610c1d82610bd4565b810181811067ffffffffffffffff82111715610c3c57610c3b610be5565b5b80604052505050565b6000610c4f610bbb565b9050610c5b8282610c14565b919050565b600080fd5b6000610c7082610b21565b9050919050565b610c8081610c65565b8114610c8b57600080fd5b50565b600081359050610c9d81610c77565b92915050565b600062ffffff82169050919050565b610cbb81610ca3565b8114610cc657600080fd5b50565b600081359050610cd881610cb2565b92915050565b60008160020b9050919050565b610cf481610cde565b8114610cff57600080fd5b50565b600081359050610d1181610ceb565b92915050565b6000610d2282610c65565b9050919050565b610d3281610d17565b8114610d3d57600080fd5b50565b600081359050610d4f81610d29565b92915050565b600060a08284031215610d6b57610d6a610bcf565b5b610d7560a0610c45565b90506000610d8584828501610c8e565b6000830152506020610d9984828501610c8e565b6020830152506040610dad84828501610cc9565b6040830152506060610dc184828501610d02565b6060830152506080610dd584828501610d40565b60808301525092915050565b6000819050919050565b610df481610de1565b8114610dff57600080fd5b50565b600081359050610e1181610deb565b92915050565b600060608284031215610e2d57610e2c610bcf565b5b610e376060610c45565b90506000610e4784828501610d02565b6000830152506020610e5b84828501610d02565b6020830152506040610e6f84828501610e02565b60408301525092915050565b600080fd5b600080fd5b600067ffffffffffffffff821115610ea057610e9f610be5565b5b610ea982610bd4565b9050602081019050919050565b82818337600083830152505050565b6000610ed8610ed384610e85565b610c45565b905082815260208101848484011115610ef457610ef3610e80565b5b610eff848285610eb6565b509392505050565b600082601f830112610f1c57610f1b610e7b565b5b8135610f2c848260208601610ec5565b91505092915050565b60008060006101208486031215610f4f57610f4e610bc5565b5b6000610f5d86828701610d55565b93505060a0610f6e86828701610e17565b92505061010084013567ffffffffffffffff811115610f9057610f8f610bca565b5b610f9c86828701610f07565b9150509250925092565b6000610fc1610fbc610fb784610de1565b610b41565b610de1565b9050919050565b610fd181610fa6565b82525050565b6000602082019050610fec6000830184610fc8565b92915050565b600080fd5b600080fd5b60008083601f84011261101257611011610e7b565b5b8235905067ffffffffffffffff81111561102f5761102e610ff2565b5b60208301915083600182028301111561104b5761104a610ff7565b5b9250929050565b6000806020838503121561106957611068610bc5565b5b600083013567ffffffffffffffff81111561108757611086610bca565b5b61109385828601610ffc565b92509250509250929050565b600081519050919050565b600082825260208201905092915050565b60005b838110156110d95780820151818401526020810190506110be565b60008484015250505050565b60006110f08261109f565b6110fa81856110aa565b935061110a8185602086016110bb565b61111381610bd4565b840191505092915050565b6000602082019050818103600083015261113881846110e5565b905092915050565b61114981610c65565b82525050565b600061115a82610b6d565b9050919050565b61116a8161114f565b82525050565b61117981610ca3565b82525050565b61118881610cde565b82525050565b600061119982610b6d565b9050919050565b6111a98161118e565b82525050565b60a0820160008201516111c56000850182611161565b5060208201516111d86020850182611161565b5060408201516111eb6040850182611170565b5060608201516111fe606085018261117f565b50608082015161121160808501826111a0565b50505050565b61122081610de1565b82525050565b60608201600082015161123c600085018261117f565b50602082015161124f602085018261117f565b5060408201516112626040850182611217565b50505050565b600082825260208201905092915050565b60006112848261109f565b61128e8185611268565b935061129e8185602086016110bb565b6112a781610bd4565b840191505092915050565b6000610140830160008301516112cb6000860182611140565b5060208301516112de60208601826111af565b5060408301516112f160c0860182611226565b50606083015184820361012086015261130a8282611279565b9150508091505092915050565b6000602082019050818103600083015261133181846112b2565b905092915050565b600061134c61134784610e85565b610c45565b90508281526020810184848401111561136857611367610e80565b5b6113738482856110bb565b509392505050565b600082601f8301126113905761138f610e7b565b5b81516113a0848260208601611339565b91505092915050565b6000602082840312156113bf576113be610bc5565b5b600082015167ffffffffffffffff8111156113dd576113dc610bca565b5b6113e98482850161137b565b91505092915050565b6113fb81610de1565b811461140657600080fd5b50565b600081519050611418816113f2565b92915050565b60006020828403121561143457611433610bc5565b5b600061144284828501611409565b91505092915050565b61145481610c65565b811461145f57600080fd5b50565b6000813590506114718161144b565b92915050565b6000610140828403121561148e5761148d610bcf565b5b6114986080610c45565b905060006114a884828501611462565b60008301525060206114bc84828501610d55565b60208301525060c06114d084828501610e17565b60408301525061012082013567ffffffffffffffff8111156114f5576114f4610c60565b5b61150184828501610f07565b60608301525092915050565b60006020828403121561152357611522610bc5565b5b600082013567ffffffffffffffff81111561154157611540610bca565b5b61154d84828501611477565b91505092915050565b60a08201600082015161156c6000850182611161565b50602082015161157f6020850182611161565b5060408201516115926040850182611170565b5060608201516115a5606085018261117f565b5060808201516115b860808501826111a0565b50505050565b6060820160008201516115d4600085018261117f565b5060208201516115e7602085018261117f565b5060408201516115fa6040850182611217565b50505050565b6000610120820190506116166000830186611556565b61162360a08301856115be565b81810361010083015261163681846110e5565b9050949350505050565b6116498161114f565b82525050565b60006020820190506116646000830184611640565b92915050565b6000819050919050565b61167d8161166a565b811461168857600080fd5b50565b60008151905061169a81611674565b92915050565b6000602082840312156116b6576116b5610bc5565b5b60006116c48482850161168b565b91505092915050565b6116d681610c65565b82525050565b60006fffffffffffffffffffffffffffffffff82169050919050565b600061171361170e611709846116dc565b610b41565b61166a565b9050919050565b611723816116f8565b82525050565b600060608201905061173e60008301866116cd565b61174b60208301856116cd565b611758604083018461171a565b949350505050565b60008115159050919050565b61177581611760565b811461178057600080fd5b50565b6000815190506117928161176c565b92915050565b6000602082840312156117ae576117ad610bc5565b5b60006117bc84828501611783565b91505092915050565b600081600f0b9050919050565b7f4e487b7100000000000000000000000000000000000000000000000000000000600052601160045260246000fd5b600061180c826117c5565b91507fffffffffffffffffffffffffffffffff80000000000000000000000000000000820361183e5761183d6117d2565b5b816000039050919050565b600060608201905061185e6000830186611640565b61186b60208301856116cd565b611878604083018461171a565b94935050505056fea26469706673582212204fef2a29fbe2af0a70bdb386e4bf3b0eb9155b108748637e1109fc604fa034dd64736f6c6343000815003360a06040523480156200001157600080fd5b5060405162001f8c38038062001f8c8339818101604052810190620000379190620000f0565b8073ffffffffffffffffffffffffffffffffffffffff1660808173ffffffffffffffffffffffffffffffffffffffff16815250505062000122565b600080fd5b600073ffffffffffffffffffffffffffffffffffffffff82169050919050565b6000620000a48262000077565b9050919050565b6000620000b88262000097565b9050919050565b620000ca81620000ab565b8114620000d657600080fd5b50565b600081519050620000ea81620000bf565b92915050565b60006020828403121562000109576200010862000072565b5b60006200011984828501620000d9565b91505092915050565b608051611dd8620001b46000396000818160d50152818161022a01528181610250015281816102bd015281816103c7015281816104b501528181610541015281816105ec0152818161062d015281816106eb0152818161079c0152818161089d0152818161098b01528181610a1701528181610ac201528181610b0301528181610bc10152610c720152611dd86000f3fe6080604052600436106100345760003560e01c80632229d0b414610039578063481c6a7514610069578063ab6291fe14610094575b600080fd5b610053600480360381019061004e91906112e8565b6100d1565b60405161006091906113a9565b60405180910390f35b34801561007557600080fd5b5061007e610228565b60405161008b9190611419565b60405180910390f35b3480156100a057600080fd5b506100bb60048036038101906100b69190611494565b61024c565b6040516100c89190611560565b60405180910390f35b60007f000000000000000000000000000000000000000000000000000000000000000073ffffffffffffffffffffffffffffffffffffffff1663815483196040518060a001604052803373ffffffffffffffffffffffffffffffffffffffff1681526020018681526020018881526020018781526020018581525060405160200161015c91906117ba565b6040516020818303038152906040526040518263ffffffff1660e01b81526004016101879190611560565b6000604051808303816000875af11580156101a6573d6000803e3d6000fd5b505050506040513d6000823e3d601f19601f820116820180604052508101906101cf919061184c565b8060200190518101906101e291906118c1565b90506000479050600081111561021f5761021e3382600073ffffffffffffffffffffffffffffffffffffffff16610d499092919063ffffffff16565b5b50949350505050565b7f000000000000000000000000000000000000000000000000000000000000000081565b60607f000000000000000000000000000000000000000000000000000000000000000073ffffffffffffffffffffffffffffffffffffffff163373ffffffffffffffffffffffffffffffffffffffff16146102a657600080fd5b600083838101906102b791906119c5565b905060007f000000000000000000000000000000000000000000000000000000000000000073ffffffffffffffffffffffffffffffffffffffff1663f3cd914c8360400151846060015185608001516040518463ffffffff1660e01b815260040161032493929190611ab8565b6020604051808303816000875af1158015610343573d6000803e3d6000fd5b505050506040513d601f19601f8201168201806040525081019061036791906118c1565b90508160600151600001511561084d57600061038282610e4b565b600f0b13156106c757816020015160200151156105ea576103c082604001516000015173ffffffffffffffffffffffffffffffffffffffff16610e58565b1561048a577f000000000000000000000000000000000000000000000000000000000000000073ffffffffffffffffffffffffffffffffffffffff16636a256b2961040a83610e4b565b6fffffffffffffffffffffffffffffffff168460400151600001516040518363ffffffff1660e01b81526004016104419190611b07565b60206040518083038185885af115801561045f573d6000803e3d6000fd5b50505050506040513d601f19601f820116820180604052508101906104849190611b58565b506105e5565b81604001516000015173ffffffffffffffffffffffffffffffffffffffff166323b872dd83600001517f00000000000000000000000000000000000000000000000000000000000000006104dd85610e4b565b6040518463ffffffff1660e01b81526004016104fb93929190611be1565b6020604051808303816000875af115801561051a573d6000803e3d6000fd5b505050506040513d601f19601f8201168201806040525081019061053e9190611c2d565b507f000000000000000000000000000000000000000000000000000000000000000073ffffffffffffffffffffffffffffffffffffffff16636a256b298360400151600001516040518263ffffffff1660e01b81526004016105a09190611b07565b6020604051808303816000875af11580156105bf573d6000803e3d6000fd5b505050506040513d601f19601f820116820180604052508101906105e39190611b58565b505b6106c6565b7f000000000000000000000000000000000000000000000000000000000000000073ffffffffffffffffffffffffffffffffffffffff1663f242432a83600001517f000000000000000000000000000000000000000000000000000000000000000085604001516000015173ffffffffffffffffffffffffffffffffffffffff1661067486610e4b565b6040518563ffffffff1660e01b81526004016106939493929190611c8f565b600060405180830381600087803b1580156106ad57600080fd5b505af11580156106c1573d6000803e3d6000fd5b505050505b5b60006106d282610e90565b600f0b1215610848578160200151600001511561079a577f000000000000000000000000000000000000000000000000000000000000000073ffffffffffffffffffffffffffffffffffffffff16630b0d9c09836040015160200151846000015161073c85610e90565b61074590611d23565b6040518463ffffffff1660e01b815260040161076393929190611d6b565b600060405180830381600087803b15801561077d57600080fd5b505af1158015610791573d6000803e3d6000fd5b50505050610847565b7f000000000000000000000000000000000000000000000000000000000000000073ffffffffffffffffffffffffffffffffffffffff1663c6c3bbe683604001516020015184600001516107ed85610e90565b6107f690611d23565b6040518463ffffffff1660e01b815260040161081493929190611d6b565b600060405180830381600087803b15801561082e57600080fd5b505af1158015610842573d6000803e3d6000fd5b505050505b5b610d1f565b600061085882610e90565b600f0b1315610b9d5781602001516020015115610ac05761089682604001516020015173ffffffffffffffffffffffffffffffffffffffff16610e58565b15610960577f000000000000000000000000000000000000000000000000000000000000000073ffffffffffffffffffffffffffffffffffffffff16636a256b296108e083610e90565b6fffffffffffffffffffffffffffffffff168460400151602001516040518363ffffffff1660e01b81526004016109179190611b07565b60206040518083038185885af1158015610935573d6000803e3d6000fd5b50505050506040513d601f19601f8201168201806040525081019061095a9190611b58565b50610abb565b81604001516020015173ffffffffffffffffffffffffffffffffffffffff166323b872dd83600001517f00000000000000000000000000000000000000000000000000000000000000006109b385610e90565b6040518463ffffffff1660e01b81526004016109d193929190611be1565b6020604051808303816000875af11580156109f0573d6000803e3d6000fd5b505050506040513d601f19601f82011682018060405250810190610a149190611c2d565b507f000000000000000000000000000000000000000000000000000000000000000073ffffffffffffffffffffffffffffffffffffffff16636a256b298360400151602001516040518263ffffffff1660e01b8152600401610a769190611b07565b6020604051808303816000875af1158015610a95573d6000803e3d6000fd5b505050506040513d601f19601f82011682018060405250810190610ab99190611b58565b505b610b9c565b7f000000000000000000000000000000000000000000000000000000000000000073ffffffffffffffffffffffffffffffffffffffff1663f242432a83600001517f000000000000000000000000000000000000000000000000000000000000000085604001516020015173ffffffffffffffffffffffffffffffffffffffff16610b4a86610e90565b6040518563ffffffff1660e01b8152600401610b699493929190611c8f565b600060405180830381600087803b158015610b8357600080fd5b505af1158015610b97573d6000803e3d6000fd5b505050505b5b6000610ba882610e4b565b600f0b1215610d1e5781602001516000015115610c70577f000000000000000000000000000000000000000000000000000000000000000073ffffffffffffffffffffffffffffffffffffffff16630b0d9c098360400151600001518460000151610c1285610e4b565b610c1b90611d23565b6040518463ffffffff1660e01b8152600401610c3993929190611d6b565b600060405180830381600087803b158015610c5357600080fd5b505af1158015610c67573d6000803e3d6000fd5b50505050610d1d565b7f000000000000000000000000000000000000000000000000000000000000000073ffffffffffffffffffffffffffffffffffffffff1663c6c3bbe68360400151600001518460000151610cc385610e4b565b610ccc90611d23565b6040518463ffffffff1660e01b8152600401610cea93929190611d6b565b600060405180830381600087803b158015610d0457600080fd5b505af1158015610d18573d6000803e3d6000fd5b505050505b5b5b80604051602001610d3091906113a9565b6040516020818303038152906040529250505092915050565b6000610d6a8473ffffffffffffffffffffffffffffffffffffffff16610e58565b15610db75760008060008085875af1905080610db2576040517ff4b3b1bc00000000000000000000000000000000000000000000000000000000815260040160405180910390fd5b610e45565b6040517fa9059cbb000000000000000000000000000000000000000000000000000000006000528360045282602452602060006044600080895af13d15601f3d1160016000511416171691506000606052806040525080610e44576040517ff27f64e400000000000000000000000000000000000000000000000000000000815260040160405180910390fd5b5b50505050565b60008160801c9050919050565b60008073ffffffffffffffffffffffffffffffffffffffff168273ffffffffffffffffffffffffffffffffffffffff16149050919050565b6000819050919050565b6000604051905090565b600080fd5b600080fd5b600080fd5b6000601f19601f8301169050919050565b7f4e487b7100000000000000000000000000000000000000000000000000000000600052604160045260246000fd5b610efc82610eb3565b810181811067ffffffffffffffff82111715610f1b57610f1a610ec4565b5b80604052505050565b6000610f2e610e9a565b9050610f3a8282610ef3565b919050565b600080fd5b600073ffffffffffffffffffffffffffffffffffffffff82169050919050565b6000610f6f82610f44565b9050919050565b610f7f81610f64565b8114610f8a57600080fd5b50565b600081359050610f9c81610f76565b92915050565b600062ffffff82169050919050565b610fba81610fa2565b8114610fc557600080fd5b50565b600081359050610fd781610fb1565b92915050565b60008160020b9050919050565b610ff381610fdd565b8114610ffe57600080fd5b50565b60008135905061101081610fea565b92915050565b600061102182610f64565b9050919050565b61103181611016565b811461103c57600080fd5b50565b60008135905061104e81611028565b92915050565b600060a0828403121561106a57611069610eae565b5b61107460a0610f24565b9050600061108484828501610f8d565b600083015250602061109884828501610f8d565b60208301525060406110ac84828501610fc8565b60408301525060606110c084828501611001565b60608301525060806110d48482850161103f565b60808301525092915050565b60008115159050919050565b6110f5816110e0565b811461110057600080fd5b50565b600081359050611112816110ec565b92915050565b6000819050919050565b61112b81611118565b811461113657600080fd5b50565b60008135905061114881611122565b92915050565b61115781610f44565b811461116257600080fd5b50565b6000813590506111748161114e565b92915050565b6000606082840312156111905761118f610eae565b5b61119a6060610f24565b905060006111aa84828501611103565b60008301525060206111be84828501611139565b60208301525060406111d284828501611165565b60408301525092915050565b6000604082840312156111f4576111f3610eae565b5b6111fe6040610f24565b9050600061120e84828501611103565b600083015250602061122284828501611103565b60208301525092915050565b600080fd5b600080fd5b600067ffffffffffffffff82111561125357611252610ec4565b5b61125c82610eb3565b9050602081019050919050565b82818337600083830152505050565b600061128b61128684611238565b610f24565b9050828152602081018484840111156112a7576112a6611233565b5b6112b2848285611269565b509392505050565b600082601f8301126112cf576112ce61122e565b5b81356112df848260208601611278565b91505092915050565b600080600080610160858703121561130357611302610ea4565b5b600061131187828801611054565b94505060a06113228782880161117a565b935050610100611334878288016111de565b92505061014085013567ffffffffffffffff81111561135657611355610ea9565b5b611362878288016112ba565b91505092959194509250565b6000819050919050565b600061139361138e61138984611118565b61136e565b611118565b9050919050565b6113a381611378565b82525050565b60006020820190506113be600083018461139a565b92915050565b60006113df6113da6113d584610f44565b61136e565b610f44565b9050919050565b60006113f1826113c4565b9050919050565b6000611403826113e6565b9050919050565b611413816113f8565b82525050565b600060208201905061142e600083018461140a565b92915050565b600080fd5b600080fd5b60008083601f8401126114545761145361122e565b5b8235905067ffffffffffffffff81111561147157611470611434565b5b60208301915083600182028301111561148d5761148c611439565b5b9250929050565b600080602083850312156114ab576114aa610ea4565b5b600083013567ffffffffffffffff8111156114c9576114c8610ea9565b5b6114d58582860161143e565b92509250509250929050565b600081519050919050565b600082825260208201905092915050565b60005b8381101561151b578082015181840152602081019050611500565b60008484015250505050565b6000611532826114e1565b61153c81856114ec565b935061154c8185602086016114fd565b61155581610eb3565b840191505092915050565b6000602082019050818103600083015261157a8184611527565b905092915050565b61158b81610f64565b82525050565b61159a816110e0565b82525050565b6040820160008201516115b66000850182611591565b5060208201516115c96020850182611591565b50505050565b60006115da826113e6565b9050919050565b6115ea816115cf565b82525050565b6115f981610fa2565b82525050565b61160881610fdd565b82525050565b6000611619826113e6565b9050919050565b6116298161160e565b82525050565b60a08201600082015161164560008501826115e1565b50602082015161165860208501826115e1565b50604082015161166b60408501826115f0565b50606082015161167e60608501826115ff565b5060808201516116916080850182611620565b50505050565b6116a081611118565b82525050565b6116af81610f44565b82525050565b6060820160008201516116cb6000850182611591565b5060208201516116de6020850182611697565b5060408201516116f160408501826116a6565b50505050565b600082825260208201905092915050565b6000611713826114e1565b61171d81856116f7565b935061172d8185602086016114fd565b61173681610eb3565b840191505092915050565b60006101808301600083015161175a6000860182611582565b50602083015161176d60208601826115a0565b506040830151611780606086018261162f565b5060608301516117946101008601826116b5565b5060808301518482036101608601526117ad8282611708565b9150508091505092915050565b600060208201905081810360008301526117d48184611741565b905092915050565b60006117ef6117ea84611238565b610f24565b90508281526020810184848401111561180b5761180a611233565b5b6118168482856114fd565b509392505050565b600082601f8301126118335761183261122e565b5b81516118438482602086016117dc565b91505092915050565b60006020828403121561186257611861610ea4565b5b600082015167ffffffffffffffff8111156118805761187f610ea9565b5b61188c8482850161181e565b91505092915050565b61189e81611118565b81146118a957600080fd5b50565b6000815190506118bb81611895565b92915050565b6000602082840312156118d7576118d6610ea4565b5b60006118e5848285016118ac565b91505092915050565b6118f781610f64565b811461190257600080fd5b50565b600081359050611914816118ee565b92915050565b6000610180828403121561193157611930610eae565b5b61193b60a0610f24565b9050600061194b84828501611905565b600083015250602061195f848285016111de565b602083015250606061197384828501611054565b6040830152506101006119888482850161117a565b60608301525061016082013567ffffffffffffffff8111156119ad576119ac610f3f565b5b6119b9848285016112ba565b60808301525092915050565b6000602082840312156119db576119da610ea4565b5b600082013567ffffffffffffffff8111156119f9576119f8610ea9565b5b611a058482850161191a565b91505092915050565b60a082016000820151611a2460008501826115e1565b506020820151611a3760208501826115e1565b506040820151611a4a60408501826115f0565b506060820151611a5d60608501826115ff565b506080820151611a706080850182611620565b50505050565b606082016000820151611a8c6000850182611591565b506020820151611a9f6020850182611697565b506040820151611ab260408501826116a6565b50505050565b600061012082019050611ace6000830186611a0e565b611adb60a0830185611a76565b818103610100830152611aee8184611527565b9050949350505050565b611b01816115cf565b82525050565b6000602082019050611b1c6000830184611af8565b92915050565b6000819050919050565b611b3581611b22565b8114611b4057600080fd5b50565b600081519050611b5281611b2c565b92915050565b600060208284031215611b6e57611b6d610ea4565b5b6000611b7c84828501611b43565b91505092915050565b611b8e81610f64565b82525050565b60006fffffffffffffffffffffffffffffffff82169050919050565b6000611bcb611bc6611bc184611b94565b61136e565b611b22565b9050919050565b611bdb81611bb0565b82525050565b6000606082019050611bf66000830186611b85565b611c036020830185611b85565b611c106040830184611bd2565b949350505050565b600081519050611c27816110ec565b92915050565b600060208284031215611c4357611c42610ea4565b5b6000611c5184828501611c18565b91505092915050565b611c6381611b22565b82525050565b50565b6000611c796000836114ec565b9150611c8482611c69565b600082019050919050565b600060a082019050611ca46000830187611b85565b611cb16020830186611b85565b611cbe6040830185611c5a565b611ccb6060830184611bd2565b8181036080830152611cdc81611c6c565b905095945050505050565b600081600f0b9050919050565b7f4e487b7100000000000000000000000000000000000000000000000000000000600052601160045260246000fd5b6000611d2e82611ce7565b91507fffffffffffffffffffffffffffffffff800000000000000000000000000000008203611d6057611d5f611cf4565b5b816000039050919050565b6000606082019050611d806000830186611af8565b611d8d6020830185611b85565b611d9a6040830184611bd2565b94935050505056fea26469706673582212200ef6927d69207870b231186081e99973ce64a370df5d1e9284d593b948d94b5464736f6c63430008150033a2646970667358221220fbb16e806123247780431e1260254c737730fd916af4501b28a5fdd95ca51bf164736f6c63430008150033",
  "linkReferences": {
    "test/VOTING_ESCROW/Remix/utils/HookMiner.sol": {
      "HookMiner": [
        {
          "length": 20,
          "start": 1127
        }
      ]
    }
  },
  "deployedLinkReferences": {
    "test/VOTING_ESCROW/Remix/utils/HookMiner.sol": {
      "HookMiner": [
        {
          "length": 20,
          "start": 828
        }
      ]
    }
  }
}