{
  "_format": "hh-sol-artifact-1",
  "contractName": "UniswapV4ERC20",
  "sourceName": "lib/v4-periphery/contracts/libraries/UniswapV4ERC20.sol",
  "abi": [
    {
      "inputs": [
        {
          "internalType": "string",
          "name": "name",
          "type": "string"
        },
        {
          "internalType": "string",
          "name": "symbol",
          "type": "string"
        }
      ],
      "stateMutability": "nonpayable",
      "type": "constructor"
    },
    {
      "anonymous": false,
      "inputs": [
        {
          "indexed": true,
          "internalType": "address",
          "name": "owner",
          "type": "address"
        },
        {
          "indexed": true,
          "internalType": "address",
          "name": "spender",
          "type": "address"
        },
        {
          "indexed": false,
          "internalType": "uint256",
          "name": "amount",
          "type": "uint256"
        }
      ],
      "name": "Approval",
      "type": "event"
    },
    {
      "anonymous": false,
      "inputs": [
        {
          "indexed": true,
          "internalType": "address",
          "name": "user",
          "type": "address"
        },
        {
          "indexed": true,
          "internalType": "address",
          "name": "newOwner",
          "type": "address"
        }
      ],
      "name": "OwnershipTransferred",
      "type": "event"
    },
    {
      "anonymous": false,
      "inputs": [
        {
          "indexed": true,
          "internalType": "address",
          "name": "from",
          "type": "address"
        },
        {
          "indexed": true,
          "internalType": "address",
          "name": "to",
          "type": "address"
        },
        {
          "indexed": false,
          "internalType": "uint256",
          "name": "amount",
          "type": "uint256"
        }
      ],
      "name": "Transfer",
      "type": "event"
    },
    {
      "inputs": [],
      "name": "DOMAIN_SEPARATOR",
      "outputs": [
        {
          "internalType": "bytes32",
          "name": "",
          "type": "bytes32"
        }
      ],
      "stateMutability": "view",
      "type": "function"
    },
    {
      "inputs": [
        {
          "internalType": "address",
          "name": "",
          "type": "address"
        },
        {
          "internalType": "address",
          "name": "",
          "type": "address"
        }
      ],
      "name": "allowance",
      "outputs": [
        {
          "internalType": "uint256",
          "name": "",
          "type": "uint256"
        }
      ],
      "stateMutability": "view",
      "type": "function"
    },
    {
      "inputs": [
        {
          "internalType": "address",
          "name": "spender",
          "type": "address"
        },
        {
          "internalType": "uint256",
          "name": "amount",
          "type": "uint256"
        }
      ],
      "name": "approve",
      "outputs": [
        {
          "internalType": "bool",
          "name": "",
          "type": "bool"
        }
      ],
      "stateMutability": "nonpayable",
      "type": "function"
    },
    {
      "inputs": [
        {
          "internalType": "address",
          "name": "",
          "type": "address"
        }
      ],
      "name": "balanceOf",
      "outputs": [
        {
          "internalType": "uint256",
          "name": "",
          "type": "uint256"
        }
      ],
      "stateMutability": "view",
      "type": "function"
    },
    {
      "inputs": [
        {
          "internalType": "address",
          "name": "account",
          "type": "address"
        },
        {
          "internalType": "uint256",
          "name": "amount",
          "type": "uint256"
        }
      ],
      "name": "burn",
      "outputs": [],
      "stateMutability": "nonpayable",
      "type": "function"
    },
    {
      "inputs": [],
      "name": "decimals",
      "outputs": [
        {
          "internalType": "uint8",
          "name": "",
          "type": "uint8"
        }
      ],
      "stateMutability": "view",
      "type": "function"
    },
    {
      "inputs": [
        {
          "internalType": "address",
          "name": "account",
          "type": "address"
        },
        {
          "internalType": "uint256",
          "name": "amount",
          "type": "uint256"
        }
      ],
      "name": "mint",
      "outputs": [],
      "stateMutability": "nonpayable",
      "type": "function"
    },
    {
      "inputs": [],
      "name": "name",
      "outputs": [
        {
          "internalType": "string",
          "name": "",
          "type": "string"
        }
      ],
      "stateMutability": "view",
      "type": "function"
    },
    {
      "inputs": [
        {
          "internalType": "address",
          "name": "",
          "type": "address"
        }
      ],
      "name": "nonces",
      "outputs": [
        {
          "internalType": "uint256",
          "name": "",
          "type": "uint256"
        }
      ],
      "stateMutability": "view",
      "type": "function"
    },
    {
      "inputs": [],
      "name": "owner",
      "outputs": [
        {
          "internalType": "address",
          "name": "",
          "type": "address"
        }
      ],
      "stateMutability": "view",
      "type": "function"
    },
    {
      "inputs": [
        {
          "internalType": "address",
          "name": "owner",
          "type": "address"
        },
        {
          "internalType": "address",
          "name": "spender",
          "type": "address"
        },
        {
          "internalType": "uint256",
          "name": "value",
          "type": "uint256"
        },
        {
          "internalType": "uint256",
          "name": "deadline",
          "type": "uint256"
        },
        {
          "internalType": "uint8",
          "name": "v",
          "type": "uint8"
        },
        {
          "internalType": "bytes32",
          "name": "r",
          "type": "bytes32"
        },
        {
          "internalType": "bytes32",
          "name": "s",
          "type": "bytes32"
        }
      ],
      "name": "permit",
      "outputs": [],
      "stateMutability": "nonpayable",
      "type": "function"
    },
    {
      "inputs": [],
      "name": "symbol",
      "outputs": [
        {
          "internalType": "string",
          "name": "",
          "type": "string"
        }
      ],
      "stateMutability": "view",
      "type": "function"
    },
    {
      "inputs": [],
      "name": "totalSupply",
      "outputs": [
        {
          "internalType": "uint256",
          "name": "",
          "type": "uint256"
        }
      ],
      "stateMutability": "view",
      "type": "function"
    },
    {
      "inputs": [
        {
          "internalType": "address",
          "name": "to",
          "type": "address"
        },
        {
          "internalType": "uint256",
          "name": "amount",
          "type": "uint256"
        }
      ],
      "name": "transfer",
      "outputs": [
        {
          "internalType": "bool",
          "name": "",
          "type": "bool"
        }
      ],
      "stateMutability": "nonpayable",
      "type": "function"
    },
    {
      "inputs": [
        {
          "internalType": "address",
          "name": "from",
          "type": "address"
        },
        {
          "internalType": "address",
          "name": "to",
          "type": "address"
        },
        {
          "internalType": "uint256",
          "name": "amount",
          "type": "uint256"
        }
      ],
      "name": "transferFrom",
      "outputs": [
        {
          "internalType": "bool",
          "name": "",
          "type": "bool"
        }
      ],
      "stateMutability": "nonpayable",
      "type": "function"
    },
    {
      "inputs": [
        {
          "internalType": "address",
          "name": "newOwner",
          "type": "address"
        }
      ],
      "name": "transferOwnership",
      "outputs": [],
      "stateMutability": "nonpayable",
      "type": "function"
    }
  ],
  "bytecode": "0x60e06040523480156200001157600080fd5b506040516200232838038062002328833981810160405281019062000037919062000358565b338282601282600090816200004d919062000628565b5081600190816200005f919062000628565b508060ff1660808160ff16815250504660a08181525050620000866200013560201b60201c565b60c0818152505050505080600660006101000a81548173ffffffffffffffffffffffffffffffffffffffff021916908373ffffffffffffffffffffffffffffffffffffffff1602179055508073ffffffffffffffffffffffffffffffffffffffff16600073ffffffffffffffffffffffffffffffffffffffff167f8be0079c531659141344cd1fd0a4f28419497f9722a3daafe3b4186f6b6457e060405160405180910390a3505050620008a5565b60007f8b73c3c69bb8fe3d512ecc4cf759cc79239f7b179b0ffacaa9a75d522b39400f6000604051620001699190620007be565b60405180910390207fc89efdaa54c0f20c7adf612882df0950f5a951637e0307cdcb4c672f298b8bc64630604051602001620001aa95949392919062000848565b60405160208183030381529060405280519060200120905090565b6000604051905090565b600080fd5b600080fd5b600080fd5b600080fd5b6000601f19601f8301169050919050565b7f4e487b7100000000000000000000000000000000000000000000000000000000600052604160045260246000fd5b6200022e82620001e3565b810181811067ffffffffffffffff8211171562000250576200024f620001f4565b5b80604052505050565b600062000265620001c5565b905062000273828262000223565b919050565b600067ffffffffffffffff821115620002965762000295620001f4565b5b620002a182620001e3565b9050602081019050919050565b60005b83811015620002ce578082015181840152602081019050620002b1565b60008484015250505050565b6000620002f1620002eb8462000278565b62000259565b90508281526020810184848401111562000310576200030f620001de565b5b6200031d848285620002ae565b509392505050565b600082601f8301126200033d576200033c620001d9565b5b81516200034f848260208601620002da565b91505092915050565b60008060408385031215620003725762000371620001cf565b5b600083015167ffffffffffffffff811115620003935762000392620001d4565b5b620003a18582860162000325565b925050602083015167ffffffffffffffff811115620003c557620003c4620001d4565b5b620003d38582860162000325565b9150509250929050565b600081519050919050565b7f4e487b7100000000000000000000000000000000000000000000000000000000600052602260045260246000fd5b600060028204905060018216806200043057607f821691505b602082108103620004465762000445620003e8565b5b50919050565b60008190508160005260206000209050919050565b60006020601f8301049050919050565b600082821b905092915050565b600060088302620004b07fffffffffffffffffffffffffffffffffffffffffffffffffffffffffffffffff8262000471565b620004bc868362000471565b95508019841693508086168417925050509392505050565b6000819050919050565b6000819050919050565b60006200050962000503620004fd84620004d4565b620004de565b620004d4565b9050919050565b6000819050919050565b6200052583620004e8565b6200053d620005348262000510565b8484546200047e565b825550505050565b600090565b6200055462000545565b620005618184846200051a565b505050565b5b8181101562000589576200057d6000826200054a565b60018101905062000567565b5050565b601f821115620005d857620005a2816200044c565b620005ad8462000461565b81016020851015620005bd578190505b620005d5620005cc8562000461565b83018262000566565b50505b505050565b600082821c905092915050565b6000620005fd60001984600802620005dd565b1980831691505092915050565b6000620006188383620005ea565b9150826002028217905092915050565b6200063382620003dd565b67ffffffffffffffff8111156200064f576200064e620001f4565b5b6200065b825462000417565b620006688282856200058d565b600060209050601f831160018114620006a057600084156200068b578287015190505b6200069785826200060a565b86555062000707565b601f198416620006b0866200044c565b60005b82811015620006da57848901518255600182019150602085019450602081019050620006b3565b86831015620006fa5784890151620006f6601f891682620005ea565b8355505b6001600288020188555050505b505050505050565b600081905092915050565b60008190508160005260206000209050919050565b600081546200073e8162000417565b6200074a81866200070f565b945060018216600081146200076857600181146200077e57620007b5565b60ff1983168652811515820286019350620007b5565b62000789856200071a565b60005b83811015620007ad578154818901526001820191506020810190506200078c565b838801955050505b50505092915050565b6000620007cc82846200072f565b915081905092915050565b6000819050919050565b620007ec81620007d7565b82525050565b620007fd81620004d4565b82525050565b600073ffffffffffffffffffffffffffffffffffffffff82169050919050565b6000620008308262000803565b9050919050565b620008428162000823565b82525050565b600060a0820190506200085f6000830188620007e1565b6200086e6020830187620007e1565b6200087d6040830186620007e1565b6200088c6060830185620007f2565b6200089b608083018462000837565b9695505050505050565b60805160a05160c051611a53620008d56000396000610775015260006107410152600061071b0152611a536000f3fe608060405234801561001057600080fd5b50600436106101005760003560e01c80637ecebe0011610097578063a9059cbb11610066578063a9059cbb146102b1578063d505accf146102e1578063dd62ed3e146102fd578063f2fde38b1461032d57610100565b80637ecebe00146102295780638da5cb5b1461025957806395d89b41146102775780639dc29fac1461029557610100565b8063313ce567116100d3578063313ce567146101a15780633644e515146101bf57806340c10f19146101dd57806370a08231146101f957610100565b806306fdde0314610105578063095ea7b31461012357806318160ddd1461015357806323b872dd14610171575b600080fd5b61010d610349565b60405161011a91906111d6565b60405180910390f35b61013d60048036038101906101389190611291565b6103d7565b60405161014a91906112ec565b60405180910390f35b61015b6104c9565b6040516101689190611316565b60405180910390f35b61018b60048036038101906101869190611331565b6104cf565b60405161019891906112ec565b60405180910390f35b6101a9610719565b6040516101b691906113a0565b60405180910390f35b6101c761073d565b6040516101d491906113d4565b60405180910390f35b6101f760048036038101906101f29190611291565b61079a565b005b610213600480360381019061020e91906113ef565b610838565b6040516102209190611316565b60405180910390f35b610243600480360381019061023e91906113ef565b610850565b6040516102509190611316565b60405180910390f35b610261610868565b60405161026e919061142b565b60405180910390f35b61027f61088e565b60405161028c91906111d6565b60405180910390f35b6102af60048036038101906102aa9190611291565b61091c565b005b6102cb60048036038101906102c69190611291565b6109ba565b6040516102d891906112ec565b60405180910390f35b6102fb60048036038101906102f6919061149e565b610ace565b005b61031760048036038101906103129190611540565b610dc7565b6040516103249190611316565b60405180910390f35b610347600480360381019061034291906113ef565b610dec565b005b60008054610356906115af565b80601f0160208091040260200160405190810160405280929190818152602001828054610382906115af565b80156103cf5780601f106103a4576101008083540402835291602001916103cf565b820191906000526020600020905b8154815290600101906020018083116103b257829003601f168201915b505050505081565b600081600460003373ffffffffffffffffffffffffffffffffffffffff1673ffffffffffffffffffffffffffffffffffffffff16815260200190815260200160002060008573ffffffffffffffffffffffffffffffffffffffff1673ffffffffffffffffffffffffffffffffffffffff168152602001908152602001600020819055508273ffffffffffffffffffffffffffffffffffffffff163373ffffffffffffffffffffffffffffffffffffffff167f8c5be1e5ebec7d5bd14f71427d1e84f3dd0314c0f7b2291e5b200ac8c7c3b925846040516104b79190611316565b60405180910390a36001905092915050565b60025481565b600080600460008673ffffffffffffffffffffffffffffffffffffffff1673ffffffffffffffffffffffffffffffffffffffff16815260200190815260200160002060003373ffffffffffffffffffffffffffffffffffffffff1673ffffffffffffffffffffffffffffffffffffffff1681526020019081526020016000205490507fffffffffffffffffffffffffffffffffffffffffffffffffffffffffffffffff8114610605578281610584919061160f565b600460008773ffffffffffffffffffffffffffffffffffffffff1673ffffffffffffffffffffffffffffffffffffffff16815260200190815260200160002060003373ffffffffffffffffffffffffffffffffffffffff1673ffffffffffffffffffffffffffffffffffffffff168152602001908152602001600020819055505b82600360008773ffffffffffffffffffffffffffffffffffffffff1673ffffffffffffffffffffffffffffffffffffffff1681526020019081526020016000206000828254610654919061160f565b9250508190555082600360008673ffffffffffffffffffffffffffffffffffffffff1673ffffffffffffffffffffffffffffffffffffffff168152602001908152602001600020600082825401925050819055508373ffffffffffffffffffffffffffffffffffffffff168573ffffffffffffffffffffffffffffffffffffffff167fddf252ad1be2c89b69c2b068fc378daa952ba7f163c4a11628f55a4df523b3ef856040516107059190611316565b60405180910390a360019150509392505050565b7f000000000000000000000000000000000000000000000000000000000000000081565b60007f000000000000000000000000000000000000000000000000000000000000000046146107735761076e610f1a565b610795565b7f00000000000000000000000000000000000000000000000000000000000000005b905090565b600660009054906101000a900473ffffffffffffffffffffffffffffffffffffffff1673ffffffffffffffffffffffffffffffffffffffff163373ffffffffffffffffffffffffffffffffffffffff161461082a576040517f08c379a00000000000000000000000000000000000000000000000000000000081526004016108219061168f565b60405180910390fd5b6108348282610fa6565b5050565b60036020528060005260406000206000915090505481565b60056020528060005260406000206000915090505481565b600660009054906101000a900473ffffffffffffffffffffffffffffffffffffffff1681565b6001805461089b906115af565b80601f01602080910402602001604051908101604052809291908181526020018280546108c7906115af565b80156109145780601f106108e957610100808354040283529160200191610914565b820191906000526020600020905b8154815290600101906020018083116108f757829003601f168201915b505050505081565b600660009054906101000a900473ffffffffffffffffffffffffffffffffffffffff1673ffffffffffffffffffffffffffffffffffffffff163373ffffffffffffffffffffffffffffffffffffffff16146109ac576040517f08c379a00000000000000000000000000000000000000000000000000000000081526004016109a39061168f565b60405180910390fd5b6109b68282611076565b5050565b600081600360003373ffffffffffffffffffffffffffffffffffffffff1673ffffffffffffffffffffffffffffffffffffffff1681526020019081526020016000206000828254610a0b919061160f565b9250508190555081600360008573ffffffffffffffffffffffffffffffffffffffff1673ffffffffffffffffffffffffffffffffffffffff168152602001908152602001600020600082825401925050819055508273ffffffffffffffffffffffffffffffffffffffff163373ffffffffffffffffffffffffffffffffffffffff167fddf252ad1be2c89b69c2b068fc378daa952ba7f163c4a11628f55a4df523b3ef84604051610abc9190611316565b60405180910390a36001905092915050565b42841015610b11576040517f08c379a0000000000000000000000000000000000000000000000000000000008152600401610b08906116fb565b60405180910390fd5b60006001610b1d61073d565b7f6e71edae12b1b97f4d1f60370fef10105fa2faae0126114a169c64845d6126c98a8a8a600560008f73ffffffffffffffffffffffffffffffffffffffff1673ffffffffffffffffffffffffffffffffffffffff1681526020019081526020016000206000815480929190600101919050558b604051602001610ba59695949392919061171b565b60405160208183030381529060405280519060200120604051602001610bcc9291906117f4565b6040516020818303038152906040528051906020012085858560405160008152602001604052604051610c02949392919061182b565b6020604051602081039080840390855afa158015610c24573d6000803e3d6000fd5b505050602060405103519050600073ffffffffffffffffffffffffffffffffffffffff168173ffffffffffffffffffffffffffffffffffffffff1614158015610c9857508773ffffffffffffffffffffffffffffffffffffffff168173ffffffffffffffffffffffffffffffffffffffff16145b610cd7576040517f08c379a0000000000000000000000000000000000000000000000000000000008152600401610cce906118bc565b60405180910390fd5b85600460008373ffffffffffffffffffffffffffffffffffffffff1673ffffffffffffffffffffffffffffffffffffffff16815260200190815260200160002060008973ffffffffffffffffffffffffffffffffffffffff1673ffffffffffffffffffffffffffffffffffffffff16815260200190815260200160002081905550508573ffffffffffffffffffffffffffffffffffffffff168773ffffffffffffffffffffffffffffffffffffffff167f8c5be1e5ebec7d5bd14f71427d1e84f3dd0314c0f7b2291e5b200ac8c7c3b92587604051610db69190611316565b60405180910390a350505050505050565b6004602052816000526040600020602052806000526040600020600091509150505481565b600660009054906101000a900473ffffffffffffffffffffffffffffffffffffffff1673ffffffffffffffffffffffffffffffffffffffff163373ffffffffffffffffffffffffffffffffffffffff1614610e7c576040517f08c379a0000000000000000000000000000000000000000000000000000000008152600401610e739061168f565b60405180910390fd5b80600660006101000a81548173ffffffffffffffffffffffffffffffffffffffff021916908373ffffffffffffffffffffffffffffffffffffffff1602179055508073ffffffffffffffffffffffffffffffffffffffff163373ffffffffffffffffffffffffffffffffffffffff167f8be0079c531659141344cd1fd0a4f28419497f9722a3daafe3b4186f6b6457e060405160405180910390a350565b60007f8b73c3c69bb8fe3d512ecc4cf759cc79239f7b179b0ffacaa9a75d522b39400f6000604051610f4c919061197f565b60405180910390207fc89efdaa54c0f20c7adf612882df0950f5a951637e0307cdcb4c672f298b8bc64630604051602001610f8b959493929190611996565b60405160208183030381529060405280519060200120905090565b8060026000828254610fb891906119e9565b9250508190555080600360008473ffffffffffffffffffffffffffffffffffffffff1673ffffffffffffffffffffffffffffffffffffffff168152602001908152602001600020600082825401925050819055508173ffffffffffffffffffffffffffffffffffffffff16600073ffffffffffffffffffffffffffffffffffffffff167fddf252ad1be2c89b69c2b068fc378daa952ba7f163c4a11628f55a4df523b3ef8360405161106a9190611316565b60405180910390a35050565b80600360008473ffffffffffffffffffffffffffffffffffffffff1673ffffffffffffffffffffffffffffffffffffffff16815260200190815260200160002060008282546110c5919061160f565b9250508190555080600260008282540392505081905550600073ffffffffffffffffffffffffffffffffffffffff168273ffffffffffffffffffffffffffffffffffffffff167fddf252ad1be2c89b69c2b068fc378daa952ba7f163c4a11628f55a4df523b3ef8360405161113a9190611316565b60405180910390a35050565b600081519050919050565b600082825260208201905092915050565b60005b83811015611180578082015181840152602081019050611165565b60008484015250505050565b6000601f19601f8301169050919050565b60006111a882611146565b6111b28185611151565b93506111c2818560208601611162565b6111cb8161118c565b840191505092915050565b600060208201905081810360008301526111f0818461119d565b905092915050565b600080fd5b600073ffffffffffffffffffffffffffffffffffffffff82169050919050565b6000611228826111fd565b9050919050565b6112388161121d565b811461124357600080fd5b50565b6000813590506112558161122f565b92915050565b6000819050919050565b61126e8161125b565b811461127957600080fd5b50565b60008135905061128b81611265565b92915050565b600080604083850312156112a8576112a76111f8565b5b60006112b685828601611246565b92505060206112c78582860161127c565b9150509250929050565b60008115159050919050565b6112e6816112d1565b82525050565b600060208201905061130160008301846112dd565b92915050565b6113108161125b565b82525050565b600060208201905061132b6000830184611307565b92915050565b60008060006060848603121561134a576113496111f8565b5b600061135886828701611246565b935050602061136986828701611246565b925050604061137a8682870161127c565b9150509250925092565b600060ff82169050919050565b61139a81611384565b82525050565b60006020820190506113b56000830184611391565b92915050565b6000819050919050565b6113ce816113bb565b82525050565b60006020820190506113e960008301846113c5565b92915050565b600060208284031215611405576114046111f8565b5b600061141384828501611246565b91505092915050565b6114258161121d565b82525050565b6000602082019050611440600083018461141c565b92915050565b61144f81611384565b811461145a57600080fd5b50565b60008135905061146c81611446565b92915050565b61147b816113bb565b811461148657600080fd5b50565b60008135905061149881611472565b92915050565b600080600080600080600060e0888a0312156114bd576114bc6111f8565b5b60006114cb8a828b01611246565b97505060206114dc8a828b01611246565b96505060406114ed8a828b0161127c565b95505060606114fe8a828b0161127c565b945050608061150f8a828b0161145d565b93505060a06115208a828b01611489565b92505060c06115318a828b01611489565b91505092959891949750929550565b60008060408385031215611557576115566111f8565b5b600061156585828601611246565b925050602061157685828601611246565b9150509250929050565b7f4e487b7100000000000000000000000000000000000000000000000000000000600052602260045260246000fd5b600060028204905060018216806115c757607f821691505b6020821081036115da576115d9611580565b5b50919050565b7f4e487b7100000000000000000000000000000000000000000000000000000000600052601160045260246000fd5b600061161a8261125b565b91506116258361125b565b925082820390508181111561163d5761163c6115e0565b5b92915050565b7f554e415554484f52495a45440000000000000000000000000000000000000000600082015250565b6000611679600c83611151565b915061168482611643565b602082019050919050565b600060208201905081810360008301526116a88161166c565b9050919050565b7f5045524d49545f444541444c494e455f45585049524544000000000000000000600082015250565b60006116e5601783611151565b91506116f0826116af565b602082019050919050565b60006020820190508181036000830152611714816116d8565b9050919050565b600060c08201905061173060008301896113c5565b61173d602083018861141c565b61174a604083018761141c565b6117576060830186611307565b6117646080830185611307565b61177160a0830184611307565b979650505050505050565b600081905092915050565b7f1901000000000000000000000000000000000000000000000000000000000000600082015250565b60006117bd60028361177c565b91506117c882611787565b600282019050919050565b6000819050919050565b6117ee6117e9826113bb565b6117d3565b82525050565b60006117ff826117b0565b915061180b82856117dd565b60208201915061181b82846117dd565b6020820191508190509392505050565b600060808201905061184060008301876113c5565b61184d6020830186611391565b61185a60408301856113c5565b61186760608301846113c5565b95945050505050565b7f494e56414c49445f5349474e4552000000000000000000000000000000000000600082015250565b60006118a6600e83611151565b91506118b182611870565b602082019050919050565b600060208201905081810360008301526118d581611899565b9050919050565b600081905092915050565b60008190508160005260206000209050919050565b60008154611909816115af565b61191381866118dc565b9450600182166000811461192e576001811461194357611976565b60ff1983168652811515820286019350611976565b61194c856118e7565b60005b8381101561196e5781548189015260018201915060208101905061194f565b838801955050505b50505092915050565b600061198b82846118fc565b915081905092915050565b600060a0820190506119ab60008301886113c5565b6119b860208301876113c5565b6119c560408301866113c5565b6119d26060830185611307565b6119df608083018461141c565b9695505050505050565b60006119f48261125b565b91506119ff8361125b565b9250828201905080821115611a1757611a166115e0565b5b9291505056fea26469706673582212205e4465fb053f106d92eec5977cb50320a6131b154810ed65a5ddc8788d37670264736f6c63430008150033",
  "linkReferences": {},
  "deployedLinkReferences": {}
}