{
  "_format": "hh-sol-artifact-1",
  "contractName": "PoolModifyPositionTest",
  "sourceName": "src/FAIR_TRADE/utils/PoolModifyPositionTest.sol",
  "abi": [
    {
      "inputs": [
        {
          "internalType": "contract IPoolManager",
          "name": "_manager",
          "type": "address"
        }
      ],
      "stateMutability": "nonpayable",
      "type": "constructor"
    },
    {
      "inputs": [],
      "name": "ERC20TransferFailed",
      "type": "error"
    },
    {
      "inputs": [],
      "name": "NativeTransferFailed",
      "type": "error"
    },
    {
      "inputs": [
        {
          "internalType": "bytes",
          "name": "rawData",
          "type": "bytes"
        }
      ],
      "name": "lockAcquired",
      "outputs": [
        {
          "internalType": "bytes",
          "name": "",
          "type": "bytes"
        }
      ],
      "stateMutability": "nonpayable",
      "type": "function"
    },
    {
      "inputs": [],
      "name": "manager",
      "outputs": [
        {
          "internalType": "contract IPoolManager",
          "name": "",
          "type": "address"
        }
      ],
      "stateMutability": "view",
      "type": "function"
    },
    {
      "inputs": [
        {
          "components": [
            {
              "internalType": "Currency",
              "name": "currency0",
              "type": "address"
            },
            {
              "internalType": "Currency",
              "name": "currency1",
              "type": "address"
            },
            {
              "internalType": "uint24",
              "name": "fee",
              "type": "uint24"
            },
            {
              "internalType": "int24",
              "name": "tickSpacing",
              "type": "int24"
            },
            {
              "internalType": "contract IHooks",
              "name": "hooks",
              "type": "address"
            }
          ],
          "internalType": "struct PoolKey",
          "name": "key",
          "type": "tuple"
        },
        {
          "components": [
            {
              "internalType": "int24",
              "name": "tickLower",
              "type": "int24"
            },
            {
              "internalType": "int24",
              "name": "tickUpper",
              "type": "int24"
            },
            {
              "internalType": "int256",
              "name": "liquidityDelta",
              "type": "int256"
            }
          ],
          "internalType": "struct IPoolManager.ModifyPositionParams",
          "name": "params",
          "type": "tuple"
        }
      ],
      "name": "modifyPosition",
      "outputs": [
        {
          "internalType": "BalanceDelta",
          "name": "delta",
          "type": "int256"
        }
      ],
      "stateMutability": "payable",
      "type": "function"
    }
  ],
  "bytecode": "0x60a06040523480156200001157600080fd5b506040516200190f3803806200190f8339818101604052810190620000379190620000f0565b8073ffffffffffffffffffffffffffffffffffffffff1660808173ffffffffffffffffffffffffffffffffffffffff16815250505062000122565b600080fd5b600073ffffffffffffffffffffffffffffffffffffffff82169050919050565b6000620000a48262000077565b9050919050565b6000620000b88262000097565b9050919050565b620000ca81620000ab565b8114620000d657600080fd5b50565b600081519050620000ea81620000bf565b92915050565b60006020828403121562000109576200010862000072565b5b60006200011984828501620000d9565b91505092915050565b608051611786620001896000396000818160d30152818160f901528181610242015281816102af015281816103e6015281816104d4015281816105600152818161064701528181610735015281816107c10152818161087c015261093d01526117866000f3fe6080604052600436106100345760003560e01c8063481c6a7514610039578063555a473314610064578063ab6291fe14610094575b600080fd5b34801561004557600080fd5b5061004e6100d1565b60405161005b9190610be2565b60405180910390f35b61007e60048036038101906100799190610eb8565b6100f5565b60405161008b9190610f2a565b60405180910390f35b3480156100a057600080fd5b506100bb60048036038101906100b69190610faa565b61023e565b6040516100c89190611076565b60405180910390f35b7f000000000000000000000000000000000000000000000000000000000000000081565b60007f000000000000000000000000000000000000000000000000000000000000000073ffffffffffffffffffffffffffffffffffffffff16638154831960405180606001604052803373ffffffffffffffffffffffffffffffffffffffff168152602001868152602001858152506040516020016101749190611203565b6040516020818303038152906040526040518263ffffffff1660e01b815260040161019f9190611076565b6000604051808303816000875af11580156101be573d6000803e3d6000fd5b505050506040513d6000823e3d601f19601f820116820180604052508101906101e791906112c5565b8060200190518101906101fa919061133a565b905060004790506000811115610237576102363382600073ffffffffffffffffffffffffffffffffffffffff16610a129092919063ffffffff16565b5b5092915050565b60607f000000000000000000000000000000000000000000000000000000000000000073ffffffffffffffffffffffffffffffffffffffff163373ffffffffffffffffffffffffffffffffffffffff161461029857600080fd5b600083838101906102a991906113f8565b905060007f000000000000000000000000000000000000000000000000000000000000000073ffffffffffffffffffffffffffffffffffffffff166361ae449a83602001518460400151600067ffffffffffffffff81111561030e5761030d610c27565b5b6040519080825280601f01601f1916602001820160405280156103405781602001600182028036833780820191505090505b506040518463ffffffff1660e01b815260040161035f939291906114d0565b6020604051808303816000875af115801561037e573d6000803e3d6000fd5b505050506040513d601f19601f820116820180604052508101906103a2919061133a565b905060006103af82610b14565b600f0b1315610605576103df82602001516000015173ffffffffffffffffffffffffffffffffffffffff16610b21565b156104a9577f000000000000000000000000000000000000000000000000000000000000000073ffffffffffffffffffffffffffffffffffffffff16636a256b2961042983610b14565b6fffffffffffffffffffffffffffffffff168460200151600001516040518363ffffffff1660e01b8152600401610460919061151f565b60206040518083038185885af115801561047e573d6000803e3d6000fd5b50505050506040513d601f19601f820116820180604052508101906104a39190611570565b50610604565b81602001516000015173ffffffffffffffffffffffffffffffffffffffff166323b872dd83600001517f00000000000000000000000000000000000000000000000000000000000000006104fc85610b14565b6040518463ffffffff1660e01b815260040161051a939291906115f9565b6020604051808303816000875af1158015610539573d6000803e3d6000fd5b505050506040513d601f19601f8201168201806040525081019061055d9190611668565b507f000000000000000000000000000000000000000000000000000000000000000073ffffffffffffffffffffffffffffffffffffffff16636a256b298360200151600001516040518263ffffffff1660e01b81526004016105bf919061151f565b6020604051808303816000875af11580156105de573d6000803e3d6000fd5b505050506040513d601f19601f820116820180604052508101906106029190611570565b505b5b600061061082610b59565b600f0b13156108665761064082602001516020015173ffffffffffffffffffffffffffffffffffffffff16610b21565b1561070a577f000000000000000000000000000000000000000000000000000000000000000073ffffffffffffffffffffffffffffffffffffffff16636a256b2961068a83610b59565b6fffffffffffffffffffffffffffffffff168460200151602001516040518363ffffffff1660e01b81526004016106c1919061151f565b60206040518083038185885af11580156106df573d6000803e3d6000fd5b50505050506040513d601f19601f820116820180604052508101906107049190611570565b50610865565b81602001516020015173ffffffffffffffffffffffffffffffffffffffff166323b872dd83600001517f000000000000000000000000000000000000000000000000000000000000000061075d85610b59565b6040518463ffffffff1660e01b815260040161077b939291906115f9565b6020604051808303816000875af115801561079a573d6000803e3d6000fd5b505050506040513d601f19601f820116820180604052508101906107be9190611668565b507f000000000000000000000000000000000000000000000000000000000000000073ffffffffffffffffffffffffffffffffffffffff16636a256b298360200151602001516040518263ffffffff1660e01b8152600401610820919061151f565b6020604051808303816000875af115801561083f573d6000803e3d6000fd5b505050506040513d601f19601f820116820180604052508101906108639190611570565b505b5b600061087182610b14565b600f0b1215610927577f000000000000000000000000000000000000000000000000000000000000000073ffffffffffffffffffffffffffffffffffffffff16630b0d9c0983602001516000015184600001516108cd85610b14565b6108d6906116d1565b6040518463ffffffff1660e01b81526004016108f493929190611719565b600060405180830381600087803b15801561090e57600080fd5b505af1158015610922573d6000803e3d6000fd5b505050505b600061093282610b59565b600f0b12156109e8577f000000000000000000000000000000000000000000000000000000000000000073ffffffffffffffffffffffffffffffffffffffff16630b0d9c09836020015160200151846000015161098e85610b59565b610997906116d1565b6040518463ffffffff1660e01b81526004016109b593929190611719565b600060405180830381600087803b1580156109cf57600080fd5b505af11580156109e3573d6000803e3d6000fd5b505050505b806040516020016109f99190610f2a565b6040516020818303038152906040529250505092915050565b6000610a338473ffffffffffffffffffffffffffffffffffffffff16610b21565b15610a805760008060008085875af1905080610a7b576040517ff4b3b1bc00000000000000000000000000000000000000000000000000000000815260040160405180910390fd5b610b0e565b6040517fa9059cbb000000000000000000000000000000000000000000000000000000006000528360045282602452602060006044600080895af13d15601f3d1160016000511416171691506000606052806040525080610b0d576040517ff27f64e400000000000000000000000000000000000000000000000000000000815260040160405180910390fd5b5b50505050565b60008160801c9050919050565b60008073ffffffffffffffffffffffffffffffffffffffff168273ffffffffffffffffffffffffffffffffffffffff16149050919050565b6000819050919050565b600073ffffffffffffffffffffffffffffffffffffffff82169050919050565b6000819050919050565b6000610ba8610ba3610b9e84610b63565b610b83565b610b63565b9050919050565b6000610bba82610b8d565b9050919050565b6000610bcc82610baf565b9050919050565b610bdc81610bc1565b82525050565b6000602082019050610bf76000830184610bd3565b92915050565b6000604051905090565b600080fd5b600080fd5b600080fd5b6000601f19601f8301169050919050565b7f4e487b7100000000000000000000000000000000000000000000000000000000600052604160045260246000fd5b610c5f82610c16565b810181811067ffffffffffffffff82111715610c7e57610c7d610c27565b5b80604052505050565b6000610c91610bfd565b9050610c9d8282610c56565b919050565b6000610cad82610b63565b9050919050565b610cbd81610ca2565b8114610cc857600080fd5b50565b600081359050610cda81610cb4565b92915050565b600062ffffff82169050919050565b610cf881610ce0565b8114610d0357600080fd5b50565b600081359050610d1581610cef565b92915050565b60008160020b9050919050565b610d3181610d1b565b8114610d3c57600080fd5b50565b600081359050610d4e81610d28565b92915050565b6000610d5f82610ca2565b9050919050565b610d6f81610d54565b8114610d7a57600080fd5b50565b600081359050610d8c81610d66565b92915050565b600060a08284031215610da857610da7610c11565b5b610db260a0610c87565b90506000610dc284828501610ccb565b6000830152506020610dd684828501610ccb565b6020830152506040610dea84828501610d06565b6040830152506060610dfe84828501610d3f565b6060830152506080610e1284828501610d7d565b60808301525092915050565b6000819050919050565b610e3181610e1e565b8114610e3c57600080fd5b50565b600081359050610e4e81610e28565b92915050565b600060608284031215610e6a57610e69610c11565b5b610e746060610c87565b90506000610e8484828501610d3f565b6000830152506020610e9884828501610d3f565b6020830152506040610eac84828501610e3f565b60408301525092915050565b6000806101008385031215610ed057610ecf610c07565b5b6000610ede85828601610d92565b92505060a0610eef85828601610e54565b9150509250929050565b6000610f14610f0f610f0a84610e1e565b610b83565b610e1e565b9050919050565b610f2481610ef9565b82525050565b6000602082019050610f3f6000830184610f1b565b92915050565b600080fd5b600080fd5b600080fd5b60008083601f840112610f6a57610f69610f45565b5b8235905067ffffffffffffffff811115610f8757610f86610f4a565b5b602083019150836001820283011115610fa357610fa2610f4f565b5b9250929050565b60008060208385031215610fc157610fc0610c07565b5b600083013567ffffffffffffffff811115610fdf57610fde610c0c565b5b610feb85828601610f54565b92509250509250929050565b600081519050919050565b600082825260208201905092915050565b60005b83811015611031578082015181840152602081019050611016565b60008484015250505050565b600061104882610ff7565b6110528185611002565b9350611062818560208601611013565b61106b81610c16565b840191505092915050565b60006020820190508181036000830152611090818461103d565b905092915050565b6110a181610ca2565b82525050565b60006110b282610baf565b9050919050565b6110c2816110a7565b82525050565b6110d181610ce0565b82525050565b6110e081610d1b565b82525050565b60006110f182610baf565b9050919050565b611101816110e6565b82525050565b60a08201600082015161111d60008501826110b9565b50602082015161113060208501826110b9565b50604082015161114360408501826110c8565b50606082015161115660608501826110d7565b50608082015161116960808501826110f8565b50505050565b61117881610e1e565b82525050565b60608201600082015161119460008501826110d7565b5060208201516111a760208501826110d7565b5060408201516111ba604085018261116f565b50505050565b610120820160008201516111d76000850182611098565b5060208201516111ea6020850182611107565b5060408201516111fd60c085018261117e565b50505050565b60006101208201905061121960008301846111c0565b92915050565b600080fd5b600067ffffffffffffffff82111561123f5761123e610c27565b5b61124882610c16565b9050602081019050919050565b600061126861126384611224565b610c87565b9050828152602081018484840111156112845761128361121f565b5b61128f848285611013565b509392505050565b600082601f8301126112ac576112ab610f45565b5b81516112bc848260208601611255565b91505092915050565b6000602082840312156112db576112da610c07565b5b600082015167ffffffffffffffff8111156112f9576112f8610c0c565b5b61130584828501611297565b91505092915050565b61131781610e1e565b811461132257600080fd5b50565b6000815190506113348161130e565b92915050565b6000602082840312156113505761134f610c07565b5b600061135e84828501611325565b91505092915050565b61137081610ca2565b811461137b57600080fd5b50565b60008135905061138d81611367565b92915050565b600061012082840312156113aa576113a9610c11565b5b6113b46060610c87565b905060006113c48482850161137e565b60008301525060206113d884828501610d92565b60208301525060c06113ec84828501610e54565b60408301525092915050565b6000610120828403121561140f5761140e610c07565b5b600061141d84828501611393565b91505092915050565b60a08201600082015161143c60008501826110b9565b50602082015161144f60208501826110b9565b50604082015161146260408501826110c8565b50606082015161147560608501826110d7565b50608082015161148860808501826110f8565b50505050565b6060820160008201516114a460008501826110d7565b5060208201516114b760208501826110d7565b5060408201516114ca604085018261116f565b50505050565b6000610120820190506114e66000830186611426565b6114f360a083018561148e565b818103610100830152611506818461103d565b9050949350505050565b611519816110a7565b82525050565b60006020820190506115346000830184611510565b92915050565b6000819050919050565b61154d8161153a565b811461155857600080fd5b50565b60008151905061156a81611544565b92915050565b60006020828403121561158657611585610c07565b5b60006115948482850161155b565b91505092915050565b6115a681610ca2565b82525050565b60006fffffffffffffffffffffffffffffffff82169050919050565b60006115e36115de6115d9846115ac565b610b83565b61153a565b9050919050565b6115f3816115c8565b82525050565b600060608201905061160e600083018661159d565b61161b602083018561159d565b61162860408301846115ea565b949350505050565b60008115159050919050565b61164581611630565b811461165057600080fd5b50565b6000815190506116628161163c565b92915050565b60006020828403121561167e5761167d610c07565b5b600061168c84828501611653565b91505092915050565b600081600f0b9050919050565b7f4e487b7100000000000000000000000000000000000000000000000000000000600052601160045260246000fd5b60006116dc82611695565b91507fffffffffffffffffffffffffffffffff80000000000000000000000000000000820361170e5761170d6116a2565b5b816000039050919050565b600060608201905061172e6000830186611510565b61173b602083018561159d565b61174860408301846115ea565b94935050505056fea264697066735822122005116dcd2bfaaaad5caeb08ccb58c740c28b7f06a1011dd09d58275d05f713cf64736f6c63430008150033",
  "linkReferences": {},
  "deployedLinkReferences": {}
}